{
  "_format": "hh-sol-artifact-1",
  "contractName": "GasVault",
  "sourceName": "contracts/GasVault.sol",
  "abi": [
    {
      "anonymous": false,
      "inputs": [
        {
          "indexed": false,
          "internalType": "address",
          "name": "previousAdmin",
          "type": "address"
        },
        {
          "indexed": false,
          "internalType": "address",
          "name": "newAdmin",
          "type": "address"
        }
      ],
      "name": "AdminChanged",
      "type": "event"
    },
    {
      "anonymous": false,
      "inputs": [
        {
          "indexed": true,
          "internalType": "address",
          "name": "beacon",
          "type": "address"
        }
      ],
      "name": "BeaconUpgraded",
      "type": "event"
    },
    {
      "anonymous": false,
      "inputs": [
        {
          "indexed": true,
          "internalType": "address",
          "name": "previousOwner",
          "type": "address"
        },
        {
          "indexed": true,
          "internalType": "address",
          "name": "newOwner",
          "type": "address"
        }
      ],
      "name": "OwnershipTransferred",
      "type": "event"
    },
    {
      "anonymous": false,
      "inputs": [
        {
          "indexed": true,
          "internalType": "address",
          "name": "implementation",
          "type": "address"
        }
      ],
      "name": "Upgraded",
      "type": "event"
    },
    {
      "anonymous": false,
      "inputs": [
        {
          "indexed": false,
          "internalType": "address",
          "name": "origin",
          "type": "address"
        },
        {
          "indexed": false,
          "internalType": "address",
          "name": "target",
          "type": "address"
        },
        {
          "indexed": false,
          "internalType": "uint256",
          "name": "amount",
          "type": "uint256"
        }
      ],
      "name": "deposited",
      "type": "event"
    },
    {
      "anonymous": false,
      "inputs": [
        {
          "indexed": false,
          "internalType": "address",
          "name": "account",
          "type": "address"
        },
        {
          "indexed": false,
          "internalType": "uint256",
          "name": "amount",
          "type": "uint256"
        }
      ],
      "name": "etherUsed",
      "type": "event"
    },
    {
      "anonymous": false,
      "inputs": [
        {
          "indexed": false,
          "internalType": "address",
          "name": "account",
          "type": "address"
        },
        {
          "indexed": false,
          "internalType": "uint256",
          "name": "amount",
          "type": "uint256"
        }
      ],
      "name": "withdrawn",
      "type": "event"
    },
    {
      "inputs": [
        {
          "internalType": "address",
          "name": "targetAddress",
          "type": "address"
        }
      ],
      "name": "deposit",
      "outputs": [],
      "stateMutability": "payable",
      "type": "function"
    },
    {
      "inputs": [
        {
          "internalType": "address",
          "name": "",
          "type": "address"
        }
      ],
      "name": "ethBalances",
      "outputs": [
        {
          "internalType": "uint256",
          "name": "",
          "type": "uint256"
        }
      ],
      "stateMutability": "view",
      "type": "function"
    },
    {
      "inputs": [
        {
          "internalType": "address",
          "name": "_orchestrator",
          "type": "address"
        },
        {
          "internalType": "address",
          "name": "_stratRegistry",
          "type": "address"
        },
        {
          "internalType": "address",
          "name": "_vaultRegistry",
          "type": "address"
        }
      ],
      "name": "initialize",
      "outputs": [],
      "stateMutability": "nonpayable",
      "type": "function"
    },
    {
      "inputs": [],
      "name": "orchestrator",
      "outputs": [
        {
          "internalType": "contract IOrchestrator",
          "name": "",
          "type": "address"
        }
      ],
      "stateMutability": "view",
      "type": "function"
    },
    {
      "inputs": [],
      "name": "owner",
      "outputs": [
        {
          "internalType": "address",
          "name": "",
          "type": "address"
        }
      ],
      "stateMutability": "view",
      "type": "function"
    },
    {
      "inputs": [],
      "name": "renounceOwnership",
      "outputs": [],
      "stateMutability": "nonpayable",
      "type": "function"
    },
    {
      "inputs": [
        {
          "internalType": "address",
          "name": "targetAddress",
          "type": "address"
        },
        {
          "internalType": "uint256",
          "name": "originalGas",
          "type": "uint256"
        }
      ],
      "name": "returnGas",
      "outputs": [],
      "stateMutability": "nonpayable",
      "type": "function"
    },
    {
      "inputs": [
        {
          "internalType": "address",
          "name": "_targetAddress",
          "type": "address"
        }
      ],
      "name": "setAsideGas",
      "outputs": [
        {
          "internalType": "uint256",
          "name": "",
          "type": "uint256"
        }
      ],
      "stateMutability": "nonpayable",
      "type": "function"
    },
    {
      "inputs": [],
      "name": "strategyRegistry",
      "outputs": [
        {
          "internalType": "contract IStrategyRegistry",
          "name": "",
          "type": "address"
        }
      ],
      "stateMutability": "view",
      "type": "function"
    },
    {
      "inputs": [
        {
          "internalType": "address",
          "name": "targetAddress",
          "type": "address"
        },
        {
          "internalType": "uint256",
          "name": "gasCostEstimate",
          "type": "uint256"
        }
      ],
      "name": "transactionsRemaining",
      "outputs": [
        {
          "internalType": "uint256",
          "name": "",
          "type": "uint256"
        }
      ],
      "stateMutability": "view",
      "type": "function"
    },
    {
      "inputs": [
        {
          "internalType": "address",
          "name": "newOwner",
          "type": "address"
        }
      ],
      "name": "transferOwnership",
      "outputs": [],
      "stateMutability": "nonpayable",
      "type": "function"
    },
    {
      "inputs": [
        {
          "internalType": "address",
          "name": "newImplementation",
          "type": "address"
        }
      ],
      "name": "upgradeTo",
      "outputs": [],
      "stateMutability": "nonpayable",
      "type": "function"
    },
    {
      "inputs": [
        {
          "internalType": "address",
          "name": "newImplementation",
          "type": "address"
        },
        {
          "internalType": "bytes",
          "name": "data",
          "type": "bytes"
        }
      ],
      "name": "upgradeToAndCall",
      "outputs": [],
      "stateMutability": "payable",
      "type": "function"
    },
    {
      "inputs": [],
      "name": "vaultRegistry",
      "outputs": [
        {
          "internalType": "contract IVaultRegistry",
          "name": "",
          "type": "address"
        }
      ],
      "stateMutability": "view",
      "type": "function"
    },
    {
      "inputs": [
        {
          "internalType": "uint256",
          "name": "amount",
          "type": "uint256"
        }
      ],
      "name": "withdraw",
      "outputs": [],
      "stateMutability": "nonpayable",
      "type": "function"
    }
  ],
  "bytecode": "0x60a06040523060805234801561001457600080fd5b506080516117c5610045600039600081816103a8015281816103e80152818161047101526104b101526117c56000f3fe6080604052600436106100e85760003560e01c8063b74795d91161008a578063d080bf2711610059578063d080bf2714610269578063d2c6ecc014610289578063f2fde38b146102a9578063f340fa01146102c957600080fd5b8063b74795d9146101e9578063c0c53b8b14610209578063caf0b3fa14610229578063cdd7b38a1461024957600080fd5b80634f1ef286116100c65780634f1ef2861461016f57806361d2be2e14610182578063715018a6146101a25780638da5cb5b146101b757600080fd5b80632e1a7d4d146100ed5780633659cfe61461010f5780633cfba0e31461012f575b600080fd5b3480156100f957600080fd5b5061010d6101083660046110e4565b6102dc565b005b34801561011b57600080fd5b5061010d61012a366004611112565b61039d565b34801561013b57600080fd5b5061015c61014a366004611112565b60cc6020526000908152604090205481565b6040519081526020015b60405180910390f35b61010d61017d3660046111ea565b610466565b34801561018e57600080fd5b5061015c61019d36600461127d565b61051c565b3480156101ae57600080fd5b5061010d610693565b3480156101c357600080fd5b506033546001600160a01b03165b6040516001600160a01b039091168152602001610166565b3480156101f557600080fd5b5060c9546101d1906001600160a01b031681565b34801561021557600080fd5b5061010d6102243660046112a9565b6106c9565b34801561023557600080fd5b5061015c610244366004611112565b6107d2565b34801561025557600080fd5b5060cb546101d1906001600160a01b031681565b34801561027557600080fd5b5060ca546101d1906001600160a01b031681565b34801561029557600080fd5b5061010d6102a436600461127d565b610a0e565b3480156102b557600080fd5b5061010d6102c4366004611112565b610b0c565b61010d6102d7366004611112565b610ba4565b60c9546001600160a01b0316331461030f5760405162461bcd60e51b8152600401610306906112f4565b60405180910390fd5b33600090815260cc60205260408120805483929061032e908490611341565b909155505060408051338152602081018390527f6fb24f3ad0678f9d138e80b17293be051d87911eb34e9e60f0d1b9c3805e885a910160405180910390a1604051339082156108fc029083906000818181858888f19350505050158015610399573d6000803e3d6000fd5b5050565b306001600160a01b037f00000000000000000000000000000000000000000000000000000000000000001614156103e65760405162461bcd60e51b815260040161030690611358565b7f00000000000000000000000000000000000000000000000000000000000000006001600160a01b0316610418610c1a565b6001600160a01b03161461043e5760405162461bcd60e51b8152600401610306906113a4565b61044781610c48565b6040805160008082526020820190925261046391839190610c72565b50565b306001600160a01b037f00000000000000000000000000000000000000000000000000000000000000001614156104af5760405162461bcd60e51b815260040161030690611358565b7f00000000000000000000000000000000000000000000000000000000000000006001600160a01b03166104e1610c1a565b6001600160a01b0316146105075760405162461bcd60e51b8152600401610306906113a4565b61051082610c48565b61039982826001610c72565b60cb546040516367a44ca360e01b81526001600160a01b03848116600483015260009283929116906367a44ca390602401600060405180830381865afa15801561056a573d6000803e3d6000fd5b505050506040513d6000823e601f3d908101601f191682016040526105929190810190611457565b60ca54602082015160405163a43224a160e01b81529293506000926001600160a01b039092169163a43224a1916105cf9160040190815260200190565b600060405180830381865afa1580156105ec573d6000803e3d6000fd5b505050506040513d6000823e601f3d908101601f19168201604052610614919081019061154e565b905080608001516001600160801b03168411156106365760009250505061068d565b6000633b9aca00858360a001516001600160801b03166106569190611640565b6106609190611640565b6001600160a01b038716600090815260cc602052604090205490915061068790829061165f565b93505050505b92915050565b6033546001600160a01b031633146106bd5760405162461bcd60e51b815260040161030690611681565b6106c76000610dbd565b565b600054610100900460ff166106e45760005460ff16156106e8565b303b155b61074b5760405162461bcd60e51b815260206004820152602e60248201527f496e697469616c697a61626c653a20636f6e747261637420697320616c72656160448201526d191e481a5b9a5d1a585b1a5e995960921b6064820152608401610306565b600054610100900460ff1615801561076d576000805461ffff19166101011790555b610775610e0f565b61077d610e46565b60c980546001600160a01b038087166001600160a01b03199283161790925560ca805486841690831617905560cb80549285169290911691909117905580156107cc576000805461ff00191690555b50505050565b60c9546000906001600160a01b031633146107ff5760405162461bcd60e51b8152600401610306906112f4565b60cb546040516367a44ca360e01b81526001600160a01b03848116600483015260009216906367a44ca390602401600060405180830381865afa15801561084a573d6000803e3d6000fd5b505050506040513d6000823e601f3d908101601f191682016040526108729190810190611457565b60ca54602082015160405163f1eb1a2b60e01b81529293506000926001600160a01b039092169163f1eb1a2b916108af9160040190815260200190565b600060405180830381865afa1580156108cc573d6000803e3d6000fd5b505050506040513d6000823e601f3d908101601f191682016040526108f4919081019061154e565b905080608001516001600160801b03163a11156109485760405162461bcd60e51b815260206004820152601260248201527123b0b9903a37b79032bc3832b739b4bb329760711b6044820152606401610306565b60a08101516001600160801b0316610960813a611640565b6001600160a01b038616600090815260cc602052604081208054909190610988908490611341565b9091555061099a90508161c3506116b6565b5a1015610a045760405162461bcd60e51b815260206004820152603260248201527f496e73756666696369656e742067617320616c6c6f7474656420746f206a6f6260448201527120286e6f64652d73696465206572726f722960701b6064820152608401610306565b925050505b919050565b60c9546001600160a01b03163314610a385760405162461bcd60e51b8152600401610306906112f4565b60005a610a459083611341565b90503a610a528284611341565b610a5c9190611640565b6001600160a01b038416600090815260cc602052604081208054909190610a849084906116b6565b90915550610a9490503a82611640565b32600090815260cc602052604081208054909190610ab39084906116b6565b909155507f35f510a9df29679cad98f7ccd2bc97285fd673f53b9ce65fd22440458da62968905083610ae53a84611640565b604080516001600160a01b03909316835260208301919091520160405180910390a1505050565b6033546001600160a01b03163314610b365760405162461bcd60e51b815260040161030690611681565b6001600160a01b038116610b9b5760405162461bcd60e51b815260206004820152602660248201527f4f776e61626c653a206e6577206f776e657220697320746865207a65726f206160448201526564647265737360d01b6064820152608401610306565b61046381610dbd565b6001600160a01b038116600090815260cc602052604081208054349290610bcc9084906116b6565b9091555050604080513381526001600160a01b0383166020820152348183015290517e8fa12fdef5e29f599717a6d129ca52c2d8a902498312eab6a78c6090b8e8e09181900360600190a150565b7f360894a13ba1a3210667c828492db98dca3e2076cc3735a920a3ca505d382bbc546001600160a01b031690565b6033546001600160a01b031633146104635760405162461bcd60e51b815260040161030690611681565b6000610c7c610c1a565b9050610c8784610e7d565b600083511180610c945750815b15610ca557610ca38484610f22565b505b7f4910fdfa16fed3260ed0e7147f7cc6da11a60208b5b9406d12a635614ffd9143805460ff16610db657805460ff191660011781556040516001600160a01b0383166024820152610d2490869060440160408051601f198184030181529190526020810180516001600160e01b0316631b2ce7f360e11b179052610f22565b50805460ff19168155610d35610c1a565b6001600160a01b0316826001600160a01b031614610dad5760405162461bcd60e51b815260206004820152602f60248201527f45524331393637557067726164653a207570677261646520627265616b73206660448201526e75727468657220757067726164657360881b6064820152608401610306565b610db68561100d565b5050505050565b603380546001600160a01b038381166001600160a01b0319831681179093556040519116919082907f8be0079c531659141344cd1fd0a4f28419497f9722a3daafe3b4186f6b6457e090600090a35050565b600054610100900460ff16610e365760405162461bcd60e51b8152600401610306906116ce565b610e3e61104d565b6106c7611074565b600054610100900460ff16610e6d5760405162461bcd60e51b8152600401610306906116ce565b610e7561104d565b6106c761104d565b803b610ee15760405162461bcd60e51b815260206004820152602d60248201527f455243313936373a206e657720696d706c656d656e746174696f6e206973206e60448201526c1bdd08184818dbdb9d1c9858dd609a1b6064820152608401610306565b7f360894a13ba1a3210667c828492db98dca3e2076cc3735a920a3ca505d382bbc80546001600160a01b0319166001600160a01b0392909216919091179055565b6060823b610f815760405162461bcd60e51b815260206004820152602660248201527f416464726573733a2064656c65676174652063616c6c20746f206e6f6e2d636f6044820152651b9d1c9858dd60d21b6064820152608401610306565b600080846001600160a01b031684604051610f9c9190611719565b600060405180830381855af49150503d8060008114610fd7576040519150601f19603f3d011682016040523d82523d6000602084013e610fdc565b606091505b50915091506110048282604051806060016040528060278152602001611769602791396110a4565b95945050505050565b61101681610e7d565b6040516001600160a01b038216907fbc7cd75a20ee27fd9adebab32041f755214dbc6bffa90cc0225b39da2e5c2d3b90600090a250565b600054610100900460ff166106c75760405162461bcd60e51b8152600401610306906116ce565b600054610100900460ff1661109b5760405162461bcd60e51b8152600401610306906116ce565b6106c733610dbd565b606083156110b35750816110dd565b8251156110c35782518084602001fd5b8160405162461bcd60e51b81526004016103069190611735565b9392505050565b6000602082840312156110f657600080fd5b5035919050565b6001600160a01b038116811461046357600080fd5b60006020828403121561112457600080fd5b81356110dd816110fd565b634e487b7160e01b600052604160045260246000fd5b60405160a0810167ffffffffffffffff811182821017156111685761116861112f565b60405290565b60405160e0810167ffffffffffffffff811182821017156111685761116861112f565b604051601f8201601f1916810167ffffffffffffffff811182821017156111ba576111ba61112f565b604052919050565b600067ffffffffffffffff8211156111dc576111dc61112f565b50601f01601f191660200190565b600080604083850312156111fd57600080fd5b8235611208816110fd565b9150602083013567ffffffffffffffff81111561122457600080fd5b8301601f8101851361123557600080fd5b8035611248611243826111c2565b611191565b81815286602083850101111561125d57600080fd5b816020840160208301376000602083830101528093505050509250929050565b6000806040838503121561129057600080fd5b823561129b816110fd565b946020939093013593505050565b6000806000606084860312156112be57600080fd5b83356112c9816110fd565b925060208401356112d9816110fd565b915060408401356112e9816110fd565b809150509250925092565b6020808252601f908201527f4f6e6c79206f7263686573747261746f722063616e2063616c6c207468697300604082015260600190565b634e487b7160e01b600052601160045260246000fd5b6000828210156113535761135361132b565b500390565b6020808252602c908201527f46756e6374696f6e206d7573742062652063616c6c6564207468726f7567682060408201526b19195b1959d85d1958d85b1b60a21b606082015260800190565b6020808252602c908201527f46756e6374696f6e206d7573742062652063616c6c6564207468726f7567682060408201526b6163746976652070726f787960a01b606082015260800190565b60005b8381101561140b5781810151838201526020016113f3565b838111156107cc5750506000910152565b600061142a611243846111c2565b905082815283838301111561143e57600080fd5b6110dd8360208301846113f0565b8051610a09816110fd565b60006020828403121561146957600080fd5b815167ffffffffffffffff8082111561148157600080fd5b9083019060a0828603121561149557600080fd5b61149d611145565b8251600581106114ac57600080fd5b8082525060208301516020820152604083015160408201526060830151828111156114d657600080fd5b83019150601f820186136114e957600080fd5b6114f88683516020850161141c565b60608201526115096080840161144c565b608082015295945050505050565b600082601f83011261152857600080fd5b6110dd8383516020850161141c565b80516001600160801b0381168114610a0957600080fd5b60006020828403121561156057600080fd5b815167ffffffffffffffff8082111561157857600080fd5b9083019060e0828603121561158c57600080fd5b61159461116e565b825181526020830151828111156115aa57600080fd5b6115b687828601611517565b6020830152506115c86040840161144c565b60408201526060830151828111156115df57600080fd5b6115eb87828601611517565b6060830152506115fd60808401611537565b608082015261160e60a08401611537565b60a082015260c08301518281111561162557600080fd5b61163187828601611517565b60c08301525095945050505050565b600081600019048311821515161561165a5761165a61132b565b500290565b60008261167c57634e487b7160e01b600052601260045260246000fd5b500490565b6020808252818101527f4f776e61626c653a2063616c6c6572206973206e6f7420746865206f776e6572604082015260600190565b600082198211156116c9576116c961132b565b500190565b6020808252602b908201527f496e697469616c697a61626c653a20636f6e7472616374206973206e6f74206960408201526a6e697469616c697a696e6760a81b606082015260800190565b6000825161172b8184602087016113f0565b9190910192915050565b60208152600082518060208401526117548160408501602087016113f0565b601f01601f1916919091016040019291505056fe416464726573733a206c6f772d6c6576656c2064656c65676174652063616c6c206661696c6564a2646970667358221220e92464ce89da3503654edf2b5cd4562c750ccd430867d35f82203225e268585764736f6c634300080b0033",
  "linkReferences": {},
  "deployedLinkReferences": {}
}