{
  "_format": "hh-sol-artifact-1",
  "contractName": "StrategyRegistry",
  "sourceName": "contracts/StrategyRegistry.sol",
  "abi": [
    {
      "anonymous": false,
      "inputs": [
        {
          "indexed": false,
          "internalType": "address",
          "name": "previousAdmin",
          "type": "address"
        },
        {
          "indexed": false,
          "internalType": "address",
          "name": "newAdmin",
          "type": "address"
        }
      ],
      "name": "AdminChanged",
      "type": "event"
    },
    {
      "anonymous": false,
      "inputs": [
        {
          "indexed": true,
          "internalType": "address",
          "name": "owner",
          "type": "address"
        },
        {
          "indexed": true,
          "internalType": "address",
          "name": "approved",
          "type": "address"
        },
        {
          "indexed": true,
          "internalType": "uint256",
          "name": "tokenId",
          "type": "uint256"
        }
      ],
      "name": "Approval",
      "type": "event"
    },
    {
      "anonymous": false,
      "inputs": [
        {
          "indexed": true,
          "internalType": "address",
          "name": "owner",
          "type": "address"
        },
        {
          "indexed": true,
          "internalType": "address",
          "name": "operator",
          "type": "address"
        },
        {
          "indexed": false,
          "internalType": "bool",
          "name": "approved",
          "type": "bool"
        }
      ],
      "name": "ApprovalForAll",
      "type": "event"
    },
    {
      "anonymous": false,
      "inputs": [
        {
          "indexed": true,
          "internalType": "address",
          "name": "beacon",
          "type": "address"
        }
      ],
      "name": "BeaconUpgraded",
      "type": "event"
    },
    {
      "anonymous": false,
      "inputs": [
        {
          "indexed": true,
          "internalType": "address",
          "name": "previousOwner",
          "type": "address"
        },
        {
          "indexed": true,
          "internalType": "address",
          "name": "newOwner",
          "type": "address"
        }
      ],
      "name": "OwnershipTransferred",
      "type": "event"
    },
    {
      "anonymous": false,
      "inputs": [
        {
          "indexed": false,
          "internalType": "address",
          "name": "account",
          "type": "address"
        }
      ],
      "name": "Paused",
      "type": "event"
    },
    {
      "anonymous": false,
      "inputs": [
        {
          "indexed": true,
          "internalType": "bytes32",
          "name": "role",
          "type": "bytes32"
        },
        {
          "indexed": true,
          "internalType": "bytes32",
          "name": "previousAdminRole",
          "type": "bytes32"
        },
        {
          "indexed": true,
          "internalType": "bytes32",
          "name": "newAdminRole",
          "type": "bytes32"
        }
      ],
      "name": "RoleAdminChanged",
      "type": "event"
    },
    {
      "anonymous": false,
      "inputs": [
        {
          "indexed": true,
          "internalType": "bytes32",
          "name": "role",
          "type": "bytes32"
        },
        {
          "indexed": true,
          "internalType": "address",
          "name": "account",
          "type": "address"
        },
        {
          "indexed": true,
          "internalType": "address",
          "name": "sender",
          "type": "address"
        }
      ],
      "name": "RoleGranted",
      "type": "event"
    },
    {
      "anonymous": false,
      "inputs": [
        {
          "indexed": true,
          "internalType": "bytes32",
          "name": "role",
          "type": "bytes32"
        },
        {
          "indexed": true,
          "internalType": "address",
          "name": "account",
          "type": "address"
        },
        {
          "indexed": true,
          "internalType": "address",
          "name": "sender",
          "type": "address"
        }
      ],
      "name": "RoleRevoked",
      "type": "event"
    },
    {
      "anonymous": false,
      "inputs": [
        {
          "indexed": true,
          "internalType": "address",
          "name": "owner",
          "type": "address"
        },
        {
          "indexed": true,
          "internalType": "uint256",
          "name": "tokenID",
          "type": "uint256"
        },
        {
          "indexed": false,
          "internalType": "string",
          "name": "name",
          "type": "string"
        }
      ],
      "name": "StrategyCreated",
      "type": "event"
    },
    {
      "anonymous": false,
      "inputs": [
        {
          "indexed": true,
          "internalType": "address",
          "name": "from",
          "type": "address"
        },
        {
          "indexed": true,
          "internalType": "address",
          "name": "to",
          "type": "address"
        },
        {
          "indexed": true,
          "internalType": "uint256",
          "name": "tokenId",
          "type": "uint256"
        }
      ],
      "name": "Transfer",
      "type": "event"
    },
    {
      "anonymous": false,
      "inputs": [
        {
          "indexed": false,
          "internalType": "address",
          "name": "account",
          "type": "address"
        }
      ],
      "name": "Unpaused",
      "type": "event"
    },
    {
      "anonymous": false,
      "inputs": [
        {
          "indexed": true,
          "internalType": "address",
          "name": "implementation",
          "type": "address"
        }
      ],
      "name": "Upgraded",
      "type": "event"
    },
    {
      "inputs": [],
      "name": "DEFAULT_ADMIN_ROLE",
      "outputs": [
        {
          "internalType": "bytes32",
          "name": "",
          "type": "bytes32"
        }
      ],
      "stateMutability": "view",
      "type": "function"
    },
    {
      "inputs": [],
      "name": "GOVERNANCE_ROLE",
      "outputs": [
        {
          "internalType": "bytes32",
          "name": "",
          "type": "bytes32"
        }
      ],
      "stateMutability": "view",
      "type": "function"
    },
    {
      "inputs": [],
      "name": "MINTER_ROLE",
      "outputs": [
        {
          "internalType": "bytes32",
          "name": "",
          "type": "bytes32"
        }
      ],
      "stateMutability": "view",
      "type": "function"
    },
    {
      "inputs": [],
      "name": "PAUSER_ROLE",
      "outputs": [
        {
          "internalType": "bytes32",
          "name": "",
          "type": "bytes32"
        }
      ],
      "stateMutability": "view",
      "type": "function"
    },
    {
      "inputs": [],
      "name": "_tokenIdTracker",
      "outputs": [
        {
          "internalType": "uint256",
          "name": "_value",
          "type": "uint256"
        }
      ],
      "stateMutability": "view",
      "type": "function"
    },
    {
      "inputs": [
        {
          "internalType": "address",
          "name": "to",
          "type": "address"
        },
        {
          "internalType": "uint256",
          "name": "tokenId",
          "type": "uint256"
        }
      ],
      "name": "approve",
      "outputs": [],
      "stateMutability": "nonpayable",
      "type": "function"
    },
    {
      "inputs": [
        {
          "internalType": "address",
          "name": "owner",
          "type": "address"
        }
      ],
      "name": "balanceOf",
      "outputs": [
        {
          "internalType": "uint256",
          "name": "",
          "type": "uint256"
        }
      ],
      "stateMutability": "view",
      "type": "function"
    },
    {
      "inputs": [],
      "name": "baseURI",
      "outputs": [
        {
          "internalType": "string",
          "name": "",
          "type": "string"
        }
      ],
      "stateMutability": "view",
      "type": "function"
    },
    {
      "inputs": [
        {
          "internalType": "uint256",
          "name": "tokenId",
          "type": "uint256"
        }
      ],
      "name": "burn",
      "outputs": [],
      "stateMutability": "nonpayable",
      "type": "function"
    },
    {
      "inputs": [
        {
          "internalType": "string",
          "name": "name",
          "type": "string"
        },
        {
          "internalType": "string",
          "name": "execBundle",
          "type": "string"
        },
        {
          "internalType": "uint128",
          "name": "maxGasCost",
          "type": "uint128"
        },
        {
          "internalType": "uint128",
          "name": "maxGasPerAction",
          "type": "uint128"
        },
        {
          "internalType": "string",
          "name": "strategyDecodingInfo",
          "type": "string"
        }
      ],
      "name": "createStrategy",
      "outputs": [
        {
          "internalType": "uint256",
          "name": "tokenId",
          "type": "uint256"
        }
      ],
      "stateMutability": "nonpayable",
      "type": "function"
    },
    {
      "inputs": [
        {
          "internalType": "uint256",
          "name": "tokenId",
          "type": "uint256"
        }
      ],
      "name": "getApproved",
      "outputs": [
        {
          "internalType": "address",
          "name": "",
          "type": "address"
        }
      ],
      "stateMutability": "view",
      "type": "function"
    },
    {
      "inputs": [
        {
          "internalType": "uint256",
          "name": "tokenId",
          "type": "uint256"
        }
      ],
      "name": "getRegisteredStrategy",
      "outputs": [
        {
          "components": [
            {
              "internalType": "uint256",
              "name": "id",
              "type": "uint256"
            },
            {
              "internalType": "string",
              "name": "name",
              "type": "string"
            },
            {
              "internalType": "address",
              "name": "owner",
              "type": "address"
            },
            {
              "internalType": "string",
              "name": "execBundle",
              "type": "string"
            },
            {
              "internalType": "uint128",
              "name": "maxGasCost",
              "type": "uint128"
            },
            {
              "internalType": "uint128",
              "name": "maxGasPerAction",
              "type": "uint128"
            },
            {
              "internalType": "string",
              "name": "strategyDecodingInfo",
              "type": "string"
            }
          ],
          "internalType": "struct IStrategyRegistry.RegisteredStrategy",
          "name": "",
          "type": "tuple"
        }
      ],
      "stateMutability": "view",
      "type": "function"
    },
    {
      "inputs": [
        {
          "internalType": "bytes32",
          "name": "role",
          "type": "bytes32"
        }
      ],
      "name": "getRoleAdmin",
      "outputs": [
        {
          "internalType": "bytes32",
          "name": "",
          "type": "bytes32"
        }
      ],
      "stateMutability": "view",
      "type": "function"
    },
    {
      "inputs": [
        {
          "internalType": "bytes32",
          "name": "role",
          "type": "bytes32"
        },
        {
          "internalType": "uint256",
          "name": "index",
          "type": "uint256"
        }
      ],
      "name": "getRoleMember",
      "outputs": [
        {
          "internalType": "address",
          "name": "",
          "type": "address"
        }
      ],
      "stateMutability": "view",
      "type": "function"
    },
    {
      "inputs": [
        {
          "internalType": "bytes32",
          "name": "role",
          "type": "bytes32"
        }
      ],
      "name": "getRoleMemberCount",
      "outputs": [
        {
          "internalType": "uint256",
          "name": "",
          "type": "uint256"
        }
      ],
      "stateMutability": "view",
      "type": "function"
    },
    {
      "inputs": [
        {
          "internalType": "bytes32",
          "name": "role",
          "type": "bytes32"
        },
        {
          "internalType": "address",
          "name": "account",
          "type": "address"
        }
      ],
      "name": "grantRole",
      "outputs": [],
      "stateMutability": "nonpayable",
      "type": "function"
    },
    {
      "inputs": [
        {
          "internalType": "bytes32",
          "name": "role",
          "type": "bytes32"
        },
        {
          "internalType": "address",
          "name": "account",
          "type": "address"
        }
      ],
      "name": "hasRole",
      "outputs": [
        {
          "internalType": "bool",
          "name": "",
          "type": "bool"
        }
      ],
      "stateMutability": "view",
      "type": "function"
    },
    {
      "inputs": [
        {
          "internalType": "string",
          "name": "registry",
          "type": "string"
        }
      ],
      "name": "initialize",
      "outputs": [],
      "stateMutability": "nonpayable",
      "type": "function"
    },
    {
      "inputs": [
        {
          "internalType": "address",
          "name": "owner",
          "type": "address"
        },
        {
          "internalType": "address",
          "name": "operator",
          "type": "address"
        }
      ],
      "name": "isApprovedForAll",
      "outputs": [
        {
          "internalType": "bool",
          "name": "",
          "type": "bool"
        }
      ],
      "stateMutability": "view",
      "type": "function"
    },
    {
      "inputs": [],
      "name": "name",
      "outputs": [
        {
          "internalType": "string",
          "name": "",
          "type": "string"
        }
      ],
      "stateMutability": "view",
      "type": "function"
    },
    {
      "inputs": [],
      "name": "owner",
      "outputs": [
        {
          "internalType": "address",
          "name": "",
          "type": "address"
        }
      ],
      "stateMutability": "view",
      "type": "function"
    },
    {
      "inputs": [
        {
          "internalType": "uint256",
          "name": "tokenId",
          "type": "uint256"
        }
      ],
      "name": "ownerOf",
      "outputs": [
        {
          "internalType": "address",
          "name": "",
          "type": "address"
        }
      ],
      "stateMutability": "view",
      "type": "function"
    },
    {
      "inputs": [],
      "name": "pause",
      "outputs": [],
      "stateMutability": "nonpayable",
      "type": "function"
    },
    {
      "inputs": [],
      "name": "paused",
      "outputs": [
        {
          "internalType": "bool",
          "name": "",
          "type": "bool"
        }
      ],
      "stateMutability": "view",
      "type": "function"
    },
    {
      "inputs": [],
      "name": "renounceOwnership",
      "outputs": [],
      "stateMutability": "nonpayable",
      "type": "function"
    },
    {
      "inputs": [
        {
          "internalType": "bytes32",
          "name": "role",
          "type": "bytes32"
        },
        {
          "internalType": "address",
          "name": "account",
          "type": "address"
        }
      ],
      "name": "renounceRole",
      "outputs": [],
      "stateMutability": "nonpayable",
      "type": "function"
    },
    {
      "inputs": [
        {
          "internalType": "bytes32",
          "name": "role",
          "type": "bytes32"
        },
        {
          "internalType": "address",
          "name": "account",
          "type": "address"
        }
      ],
      "name": "revokeRole",
      "outputs": [],
      "stateMutability": "nonpayable",
      "type": "function"
    },
    {
      "inputs": [
        {
          "internalType": "address",
          "name": "from",
          "type": "address"
        },
        {
          "internalType": "address",
          "name": "to",
          "type": "address"
        },
        {
          "internalType": "uint256",
          "name": "tokenId",
          "type": "uint256"
        }
      ],
      "name": "safeTransferFrom",
      "outputs": [],
      "stateMutability": "nonpayable",
      "type": "function"
    },
    {
      "inputs": [
        {
          "internalType": "address",
          "name": "from",
          "type": "address"
        },
        {
          "internalType": "address",
          "name": "to",
          "type": "address"
        },
        {
          "internalType": "uint256",
          "name": "tokenId",
          "type": "uint256"
        },
        {
          "internalType": "bytes",
          "name": "_data",
          "type": "bytes"
        }
      ],
      "name": "safeTransferFrom",
      "outputs": [],
      "stateMutability": "nonpayable",
      "type": "function"
    },
    {
      "inputs": [
        {
          "internalType": "address",
          "name": "operator",
          "type": "address"
        },
        {
          "internalType": "bool",
          "name": "approved",
          "type": "bool"
        }
      ],
      "name": "setApprovalForAll",
      "outputs": [],
      "stateMutability": "nonpayable",
      "type": "function"
    },
    {
      "inputs": [
        {
          "internalType": "uint256",
          "name": "_tokenId",
          "type": "uint256"
        },
        {
          "internalType": "uint128",
          "name": "_maxGasCost",
          "type": "uint128"
        },
        {
          "internalType": "uint128",
          "name": "_maxGasPerAction",
          "type": "uint128"
        }
      ],
      "name": "setGasParameters",
      "outputs": [],
      "stateMutability": "nonpayable",
      "type": "function"
    },
    {
      "inputs": [
        {
          "internalType": "string",
          "name": "",
          "type": "string"
        }
      ],
      "name": "strategies",
      "outputs": [
        {
          "internalType": "uint256",
          "name": "id",
          "type": "uint256"
        },
        {
          "internalType": "string",
          "name": "name",
          "type": "string"
        },
        {
          "internalType": "address",
          "name": "owner",
          "type": "address"
        },
        {
          "internalType": "string",
          "name": "execBundle",
          "type": "string"
        },
        {
          "internalType": "uint128",
          "name": "maxGasCost",
          "type": "uint128"
        },
        {
          "internalType": "uint128",
          "name": "maxGasPerAction",
          "type": "uint128"
        },
        {
          "internalType": "string",
          "name": "strategyDecodingInfo",
          "type": "string"
        }
      ],
      "stateMutability": "view",
      "type": "function"
    },
    {
      "inputs": [
        {
          "internalType": "bytes4",
          "name": "interfaceId",
          "type": "bytes4"
        }
      ],
      "name": "supportsInterface",
      "outputs": [
        {
          "internalType": "bool",
          "name": "",
          "type": "bool"
        }
      ],
      "stateMutability": "view",
      "type": "function"
    },
    {
      "inputs": [],
      "name": "symbol",
      "outputs": [
        {
          "internalType": "string",
          "name": "",
          "type": "string"
        }
      ],
      "stateMutability": "view",
      "type": "function"
    },
    {
      "inputs": [
        {
          "internalType": "uint256",
          "name": "index",
          "type": "uint256"
        }
      ],
      "name": "tokenByIndex",
      "outputs": [
        {
          "internalType": "uint256",
          "name": "",
          "type": "uint256"
        }
      ],
      "stateMutability": "view",
      "type": "function"
    },
    {
      "inputs": [
        {
          "internalType": "uint256",
          "name": "",
          "type": "uint256"
        }
      ],
      "name": "tokenIdToExecBundle",
      "outputs": [
        {
          "internalType": "string",
          "name": "",
          "type": "string"
        }
      ],
      "stateMutability": "view",
      "type": "function"
    },
    {
      "inputs": [
        {
          "internalType": "address",
          "name": "owner",
          "type": "address"
        },
        {
          "internalType": "uint256",
          "name": "index",
          "type": "uint256"
        }
      ],
      "name": "tokenOfOwnerByIndex",
      "outputs": [
        {
          "internalType": "uint256",
          "name": "",
          "type": "uint256"
        }
      ],
      "stateMutability": "view",
      "type": "function"
    },
    {
      "inputs": [
        {
          "internalType": "uint256",
          "name": "tokenId",
          "type": "uint256"
        }
      ],
      "name": "tokenURI",
      "outputs": [
        {
          "internalType": "string",
          "name": "",
          "type": "string"
        }
      ],
      "stateMutability": "view",
      "type": "function"
    },
    {
      "inputs": [],
      "name": "totalSupply",
      "outputs": [
        {
          "internalType": "uint256",
          "name": "",
          "type": "uint256"
        }
      ],
      "stateMutability": "view",
      "type": "function"
    },
    {
      "inputs": [
        {
          "internalType": "address",
          "name": "from",
          "type": "address"
        },
        {
          "internalType": "address",
          "name": "to",
          "type": "address"
        },
        {
          "internalType": "uint256",
          "name": "tokenId",
          "type": "uint256"
        }
      ],
      "name": "transferFrom",
      "outputs": [],
      "stateMutability": "nonpayable",
      "type": "function"
    },
    {
      "inputs": [
        {
          "internalType": "address",
          "name": "newOwner",
          "type": "address"
        }
      ],
      "name": "transferOwnership",
      "outputs": [],
      "stateMutability": "nonpayable",
      "type": "function"
    },
    {
      "inputs": [],
      "name": "unpause",
      "outputs": [],
      "stateMutability": "nonpayable",
      "type": "function"
    },
    {
      "inputs": [
        {
          "internalType": "address",
          "name": "newImplementation",
          "type": "address"
        }
      ],
      "name": "upgradeTo",
      "outputs": [],
      "stateMutability": "nonpayable",
      "type": "function"
    },
    {
      "inputs": [
        {
          "internalType": "address",
          "name": "newImplementation",
          "type": "address"
        },
        {
          "internalType": "bytes",
          "name": "data",
          "type": "bytes"
        }
      ],
      "name": "upgradeToAndCall",
      "outputs": [],
      "stateMutability": "payable",
      "type": "function"
    }
  ],
  "bytecode": "0x60a06040523060805234801561001457600080fd5b5060805161478f61004560003960008181610bfd01528181610c3d0152818161112b015261116b015261478f6000f3fe6080604052600436106102675760003560e01c8063780f1acd11610144578063b88d4fde116100b6578063e63ab1e91161007a578063e63ab1e914610734578063e985e9c514610756578063f1eb1a2b1461079f578063f2fde38b146107cc578063f36c8f5c146107ec578063f62d18881461082057600080fd5b8063b88d4fde14610680578063c87b56dd146106a0578063ca15c873146106c0578063d5391393146106e0578063d547741f1461071457600080fd5b806395d89b411161010857806395d89b41146105de57806398bcede9146105f3578063a217fddf1461060b578063a22cb46514610620578063a2b1dc6b14610640578063b2c900d31461066057600080fd5b8063780f1acd146105375780638456cb591461056a5780638da5cb5b1461057f5780639010d07c1461059e57806391d14854146105be57600080fd5b80633f4ba83a116101dd5780634f6ccce7116101a15780634f6ccce7146104955780635c975abb146104b55780636352211e146104cd5780636c0360eb146104ed57806370a0823114610502578063715018a61461052257600080fd5b80633f4ba83a1461040d57806342842e0e1461042257806342966c6814610442578063456ec648146104625780634f1ef2861461048257600080fd5b806323b872dd1161022f57806323b872dd1461033c578063248a9ca31461035c5780632f2ff15d1461038d5780632f745c59146103ad57806336568abe146103cd5780633659cfe6146103ed57600080fd5b806301ffc9a71461026c57806306fdde03146102a1578063081812fc146102c3578063095ea7b3146102fb57806318160ddd1461031d575b600080fd5b34801561027857600080fd5b5061028c610287366004613c3c565b610840565b60405190151581526020015b60405180910390f35b3480156102ad57600080fd5b506102b6610851565b6040516102989190613cb1565b3480156102cf57600080fd5b506102e36102de366004613cc4565b6108e3565b6040516001600160a01b039091168152602001610298565b34801561030757600080fd5b5061031b610316366004613cf9565b610970565b005b34801561032957600080fd5b5060cb545b604051908152602001610298565b34801561034857600080fd5b5061031b610357366004613d23565b610a86565b34801561036857600080fd5b5061032e610377366004613cc4565b600090815261015f602052604090206001015490565b34801561039957600080fd5b5061031b6103a8366004613d5f565b610ab7565b3480156103b957600080fd5b5061032e6103c8366004613cf9565b610ade565b3480156103d957600080fd5b5061031b6103e8366004613d5f565b610b74565b3480156103f957600080fd5b5061031b610408366004613d8b565b610bf2565b34801561041957600080fd5b5061031b610cbb565b34801561042e57600080fd5b5061031b61043d366004613d23565b610d51565b34801561044e57600080fd5b5061031b61045d366004613cc4565b610d6c565b34801561046e57600080fd5b5061031b61047d366004613dbd565b610d75565b61031b610490366004613e9c565b611120565b3480156104a157600080fd5b5061032e6104b0366004613cc4565b6111d6565b3480156104c157600080fd5b5060fb5460ff1661028c565b3480156104d957600080fd5b506102e36104e8366004613cc4565b611269565b3480156104f957600080fd5b506102b66112e0565b34801561050e57600080fd5b5061032e61051d366004613d8b565b6112ef565b34801561052e57600080fd5b5061031b611376565b34801561054357600080fd5b50610557610552366004613eea565b6113ab565b6040516102989796959493929190613f1f565b34801561057657600080fd5b5061031b6115aa565b34801561058b57600080fd5b50610227546001600160a01b03166102e3565b3480156105aa57600080fd5b506102e36105b9366004613f92565b61163c565b3480156105ca57600080fd5b5061028c6105d9366004613d5f565b61165c565b3480156105ea57600080fd5b506102b6611688565b3480156105ff57600080fd5b5061025c5461032e9081565b34801561061757600080fd5b5061032e600081565b34801561062c57600080fd5b5061031b61063b366004613fb4565b611697565b34801561064c57600080fd5b5061032e61065b366004614039565b6116a2565b34801561066c57600080fd5b506102b661067b366004613cc4565b611956565b34801561068c57600080fd5b5061031b61069b3660046140f1565b6119f1565b3480156106ac57600080fd5b506102b66106bb366004613cc4565b611a29565b3480156106cc57600080fd5b5061032e6106db366004613cc4565b611a34565b3480156106ec57600080fd5b5061032e7f9f2df0fed2c77648de5860a4cc508cd0818c85b8b8a1ab4ceeef8d981c8956a681565b34801561072057600080fd5b5061031b61072f366004613d5f565b611a4c565b34801561074057600080fd5b5061032e60008051602061471383398151915281565b34801561076257600080fd5b5061028c610771366004614159565b6001600160a01b039182166000908152606a6020908152604080832093909416825291909152205460ff1690565b3480156107ab57600080fd5b506107bf6107ba366004613cc4565b611a73565b6040516102989190614183565b3480156107d857600080fd5b5061031b6107e7366004613d8b565b611ce9565b3480156107f857600080fd5b5061032e7f71840dc4906352362b0cdaf79870196c8e42acafade72d5d5a6d59291253ceb181565b34801561082c57600080fd5b5061031b61083b366004613eea565b611d82565b600061084b82611f68565b92915050565b60606065805461086090614227565b80601f016020809104026020016040519081016040528092919081815260200182805461088c90614227565b80156108d95780601f106108ae576101008083540402835291602001916108d9565b820191906000526020600020905b8154815290600101906020018083116108bc57829003601f168201915b5050505050905090565b60006108ee82611f8d565b6109545760405162461bcd60e51b815260206004820152602c60248201527f4552433732313a20617070726f76656420717565727920666f72206e6f6e657860448201526b34b9ba32b73a103a37b5b2b760a11b60648201526084015b60405180910390fd5b506000908152606960205260409020546001600160a01b031690565b600061097b82611269565b9050806001600160a01b0316836001600160a01b031614156109e95760405162461bcd60e51b815260206004820152602160248201527f4552433732313a20617070726f76616c20746f2063757272656e74206f776e656044820152603960f91b606482015260840161094b565b336001600160a01b0382161480610a055750610a058133610771565b610a775760405162461bcd60e51b815260206004820152603860248201527f4552433732313a20617070726f76652063616c6c6572206973206e6f74206f7760448201527f6e6572206e6f7220617070726f76656420666f7220616c6c0000000000000000606482015260840161094b565b610a818383611faa565b505050565b610a903382612018565b610aac5760405162461bcd60e51b815260040161094b90614262565b610a81838383612102565b600082815261015f6020526040902060010154610ad481336122ad565b610a818383612311565b6000610ae9836112ef565b8210610b4b5760405162461bcd60e51b815260206004820152602b60248201527f455243373231456e756d657261626c653a206f776e657220696e646578206f7560448201526a74206f6620626f756e647360a81b606482015260840161094b565b506001600160a01b0391909116600090815260c960209081526040808320938352929052205490565b6001600160a01b0381163314610be45760405162461bcd60e51b815260206004820152602f60248201527f416363657373436f6e74726f6c3a2063616e206f6e6c792072656e6f756e636560448201526e103937b632b9903337b91039b2b63360891b606482015260840161094b565b610bee8282612334565b5050565b306001600160a01b037f0000000000000000000000000000000000000000000000000000000000000000161415610c3b5760405162461bcd60e51b815260040161094b906142b3565b7f00000000000000000000000000000000000000000000000000000000000000006001600160a01b0316610c6d612357565b6001600160a01b031614610c935760405162461bcd60e51b815260040161094b906142ff565b610c9c81612385565b60408051600080825260208201909252610cb8918391906123b0565b50565b610cd36000805160206147138339815191523361165c565b610d47576040805162461bcd60e51b81526020600482015260248101919091527f4552433732315072657365744d696e7465725061757365724175746f49643a2060448201527f6d75737420686176652070617573657220726f6c6520746f20756e7061757365606482015260840161094b565b610d4f6124fb565b565b610a81838383604051806020016040528060008152506119f1565b610cb88161258e565b610d7e83611269565b6001600160a01b0316336001600160a01b031614610def5760405162461bcd60e51b815260206004820152602860248201527f4f6e6c792062756e646c65206f776e65722063616e207365742067617320706160448201526772616d657465727360c01b606482015260840161094b565b600083815261025b6020526040808220905161025a91610e0e9161434b565b90815260200160405180910390206040518060e001604052908160008201548152602001600182018054610e4190614227565b80601f0160208091040260200160405190810160405280929190818152602001828054610e6d90614227565b8015610eba5780601f10610e8f57610100808354040283529160200191610eba565b820191906000526020600020905b815481529060010190602001808311610e9d57829003601f168201915b505050918352505060028201546001600160a01b03166020820152600382018054604090920191610eea90614227565b80601f0160208091040260200160405190810160405280929190818152602001828054610f1690614227565b8015610f635780601f10610f3857610100808354040283529160200191610f63565b820191906000526020600020905b815481529060010190602001808311610f4657829003601f168201915b505050918352505060048201546001600160801b038082166020840152600160801b909104166040820152600582018054606090920191610fa390614227565b80601f0160208091040260200160405190810160405280929190818152602001828054610fcf90614227565b801561101c5780601f10610ff15761010080835404028352916020019161101c565b820191906000526020600020905b815481529060010190602001808311610fff57829003601f168201915b505050919092525050506001600160801b038085166080830152831660a0820152600085815261025b6020526040908190209051919250829161025a916110629161434b565b9081526020016040518091039020600082015181600001556020820151816001019080519060200190611096929190613ae3565b5060408201516002820180546001600160a01b0319166001600160a01b03909216919091179055606082015180516110d8916003840191602090910190613ae3565b50608082015160a08301516001600160801b03908116600160801b02911617600482015560c08201518051611117916005840191602090910190613ae3565b50505050505050565b306001600160a01b037f00000000000000000000000000000000000000000000000000000000000000001614156111695760405162461bcd60e51b815260040161094b906142b3565b7f00000000000000000000000000000000000000000000000000000000000000006001600160a01b031661119b612357565b6001600160a01b0316146111c15760405162461bcd60e51b815260040161094b906142ff565b6111ca82612385565b610bee828260016123b0565b60006111e160cb5490565b82106112445760405162461bcd60e51b815260206004820152602c60248201527f455243373231456e756d657261626c653a20676c6f62616c20696e646578206f60448201526b7574206f6620626f756e647360a01b606482015260840161094b565b60cb8281548110611257576112576143e7565b90600052602060002001549050919050565b6000818152606760205260408120546001600160a01b03168061084b5760405162461bcd60e51b815260206004820152602960248201527f4552433732313a206f776e657220717565727920666f72206e6f6e657869737460448201526832b73a103a37b5b2b760b91b606482015260840161094b565b60606112ea612597565b905090565b60006001600160a01b03821661135a5760405162461bcd60e51b815260206004820152602a60248201527f4552433732313a2062616c616e636520717565727920666f7220746865207a65604482015269726f206164647265737360b01b606482015260840161094b565b506001600160a01b031660009081526068602052604090205490565b610227546001600160a01b031633146113a15760405162461bcd60e51b815260040161094b906143fd565b610d4f60006125a7565b805160208183018101805161025a82529282019190930120915280546001820180549192916113d990614227565b80601f016020809104026020016040519081016040528092919081815260200182805461140590614227565b80156114525780601f1061142757610100808354040283529160200191611452565b820191906000526020600020905b81548152906001019060200180831161143557829003601f168201915b505050600284015460038501805494956001600160a01b0390921694919350915061147c90614227565b80601f01602080910402602001604051908101604052809291908181526020018280546114a890614227565b80156114f55780601f106114ca576101008083540402835291602001916114f5565b820191906000526020600020905b8154815290600101906020018083116114d857829003601f168201915b50505050600483015460058401805493946001600160801b0380841695600160801b9094041693509161152790614227565b80601f016020809104026020016040519081016040528092919081815260200182805461155390614227565b80156115a05780601f10611575576101008083540402835291602001916115a0565b820191906000526020600020905b81548152906001019060200180831161158357829003601f168201915b5050505050905087565b6115c26000805160206147138339815191523361165c565b6116345760405162461bcd60e51b815260206004820152603e60248201527f4552433732315072657365744d696e7465725061757365724175746f49643a2060448201527f6d75737420686176652070617573657220726f6c6520746f2070617573650000606482015260840161094b565b610d4f6125fa565b6000828152610191602052604081206116559083612675565b9392505050565b600091825261015f602090815260408084206001600160a01b0393909316845291905290205460ff1690565b60606066805461086090614227565b610bee338383612681565b600085856040516020016116b7929190614432565b6040516020818303038152906040528051906020012061025a87876040516116e0929190614432565b9081526020016040518091039020600301604051602001611701919061434b565b6040516020818303038152906040528051906020012014156117655760405162461bcd60e51b815260206004820152601760248201527f537472617465677920616c726561647920657869737473000000000000000000604482015260640161094b565b60006117718787612750565b90506040518060e001604052808281526020018a8a8080601f0160208091040260200160405190810160405280939291908181526020018383808284376000920191909152505050908252503360208083019190915260408051601f8b0183900483028101830182528a8152920191908a908a90819084018382808284376000920191909152505050908252506001600160801b038088166020830152861660408083019190915260609091018590525161025a90611833908a908a90614432565b9081526020016040518091039020600082015181600001556020820151816001019080519060200190611867929190613ae3565b5060408201516002820180546001600160a01b0319166001600160a01b03909216919091179055606082015180516118a9916003840191602090910190613ae3565b50608082015160a08301516001600160801b03908116600160801b02911617600482015560c082015180516118e8916005840191602090910190613ae3565b505050600081815261025b60205260409020611905908888613b67565b5080336001600160a01b03167f7052642ef562f5c864625a76bc84583678fa33406b6d8462432c2e8ab06acc148b8b604051611942929190614442565b60405180910390a398975050505050505050565b61025b602052600090815260409020805461197090614227565b80601f016020809104026020016040519081016040528092919081815260200182805461199c90614227565b80156119e95780601f106119be576101008083540402835291602001916119e9565b820191906000526020600020905b8154815290600101906020018083116119cc57829003601f168201915b505050505081565b6119fb3383612018565b611a175760405162461bcd60e51b815260040161094b90614262565b611a23848484846127b8565b50505050565b606061084b826127eb565b60008181526101916020526040812061084b9061294d565b600082815261015f6020526040902060010154611a6981336122ad565b610a818383612334565b6040805160e08101825260008082526060602083018190529282018190528282018390526080820181905260a082015260c0810191909152600082815261025b602052604090819020905161025a91611acb9161434b565b90815260200160405180910390206040518060e001604052908160008201548152602001600182018054611afe90614227565b80601f0160208091040260200160405190810160405280929190818152602001828054611b2a90614227565b8015611b775780601f10611b4c57610100808354040283529160200191611b77565b820191906000526020600020905b815481529060010190602001808311611b5a57829003601f168201915b505050918352505060028201546001600160a01b03166020820152600382018054604090920191611ba790614227565b80601f0160208091040260200160405190810160405280929190818152602001828054611bd390614227565b8015611c205780601f10611bf557610100808354040283529160200191611c20565b820191906000526020600020905b815481529060010190602001808311611c0357829003601f168201915b505050918352505060048201546001600160801b038082166020840152600160801b909104166040820152600582018054606090920191611c6090614227565b80601f0160208091040260200160405190810160405280929190818152602001828054611c8c90614227565b8015611cd95780601f10611cae57610100808354040283529160200191611cd9565b820191906000526020600020905b815481529060010190602001808311611cbc57829003601f168201915b5050505050815250509050919050565b610227546001600160a01b03163314611d145760405162461bcd60e51b815260040161094b906143fd565b6001600160a01b038116611d795760405162461bcd60e51b815260206004820152602660248201527f4f776e61626c653a206e6577206f776e657220697320746865207a65726f206160448201526564647265737360d01b606482015260840161094b565b610cb8816125a7565b600054610100900460ff16611d9d5760005460ff1615611da1565b303b155b611e045760405162461bcd60e51b815260206004820152602e60248201527f496e697469616c697a61626c653a20636f6e747261637420697320616c72656160448201526d191e481a5b9a5d1a585b1a5e995960921b606482015260840161094b565b600054610100900460ff16158015611e26576000805461ffff19166101011790555b611e2e612957565b611e36612986565b611e3e6129bd565b611e46612957565b611e4e6129ec565b611e56612a1b565b611ea76040518060400160405280600e81526020016d537465657220537472617465677960901b815250604051806040016040528060098152602001685354525f535254475960b81b815250612a4a565b611eaf6129ec565b611eb7612a8b565b611ebf612ac2565b611ec76129ec565b611ed2600033612b01565b611efc7f9f2df0fed2c77648de5860a4cc508cd0818c85b8b8a1ab4ceeef8d981c8956a633612b01565b611f1460008051602061471383398151915233612b01565b611f3e7f71840dc4906352362b0cdaf79870196c8e42acafade72d5d5a6d59291253ceb133612b01565b8151611f5290610259906020850190613ae3565b508015610bee576000805461ff00191690555050565b60006001600160e01b03198216635a05180f60e01b148061084b575061084b82612b0b565b6000908152606760205260409020546001600160a01b0316151590565b600081815260696020526040902080546001600160a01b0319166001600160a01b0384169081179091558190611fdf82611269565b6001600160a01b03167f8c5be1e5ebec7d5bd14f71427d1e84f3dd0314c0f7b2291e5b200ac8c7c3b92560405160405180910390a45050565b600061202382611f8d565b6120845760405162461bcd60e51b815260206004820152602c60248201527f4552433732313a206f70657261746f7220717565727920666f72206e6f6e657860448201526b34b9ba32b73a103a37b5b2b760a11b606482015260840161094b565b600061208f83611269565b9050806001600160a01b0316846001600160a01b031614806120ca5750836001600160a01b03166120bf846108e3565b6001600160a01b0316145b806120fa57506001600160a01b038082166000908152606a602090815260408083209388168352929052205460ff165b949350505050565b826001600160a01b031661211582611269565b6001600160a01b03161461217d5760405162461bcd60e51b815260206004820152602960248201527f4552433732313a207472616e73666572206f6620746f6b656e2074686174206960448201526839903737ba1037bbb760b91b606482015260840161094b565b6001600160a01b0382166121df5760405162461bcd60e51b8152602060048201526024808201527f4552433732313a207472616e7366657220746f20746865207a65726f206164646044820152637265737360e01b606482015260840161094b565b6121ea838383612b30565b6121f5600082611faa565b6001600160a01b038316600090815260686020526040812080546001929061221e908490614487565b90915550506001600160a01b038216600090815260686020526040812080546001929061224c90849061449e565b909155505060008181526067602052604080822080546001600160a01b0319166001600160a01b0386811691821790925591518493918716917fddf252ad1be2c89b69c2b068fc378daa952ba7f163c4a11628f55a4df523b3ef91a4505050565b6122b7828261165c565b610bee576122cf816001600160a01b03166014612b3b565b6122da836020612b3b565b6040516020016122eb9291906144b6565b60408051601f198184030181529082905262461bcd60e51b825261094b91600401613cb1565b61231b8282612cd7565b600082815261019160205260409020610a819082612d5e565b61233e8282612d73565b600082815261019160205260409020610a819082612ddb565b7f360894a13ba1a3210667c828492db98dca3e2076cc3735a920a3ca505d382bbc546001600160a01b031690565b610227546001600160a01b03163314610cb85760405162461bcd60e51b815260040161094b906143fd565b60006123ba612357565b90506123c584612df0565b6000835111806123d25750815b156123e3576123e18484612e95565b505b7f4910fdfa16fed3260ed0e7147f7cc6da11a60208b5b9406d12a635614ffd9143805460ff166124f457805460ff191660011781556040516001600160a01b038316602482015261246290869060440160408051601f198184030181529190526020810180516001600160e01b0316631b2ce7f360e11b179052612e95565b50805460ff19168155612473612357565b6001600160a01b0316826001600160a01b0316146124eb5760405162461bcd60e51b815260206004820152602f60248201527f45524331393637557067726164653a207570677261646520627265616b73206660448201526e75727468657220757067726164657360881b606482015260840161094b565b6124f485612f80565b5050505050565b60fb5460ff166125445760405162461bcd60e51b815260206004820152601460248201527314185d5cd8589b194e881b9bdd081c185d5cd95960621b604482015260640161094b565b60fb805460ff191690557f5db9ee0a495bf2e6ff9c91a7834c1ba4fdd244a5e8aa4e537bd38aeae4b073aa335b6040516001600160a01b03909116815260200160405180910390a1565b610cb881612fc0565b6060610259805461086090614227565b61022780546001600160a01b038381166001600160a01b0319831681179093556040519116919082907f8be0079c531659141344cd1fd0a4f28419497f9722a3daafe3b4186f6b6457e090600090a35050565b60fb5460ff16156126405760405162461bcd60e51b815260206004820152601060248201526f14185d5cd8589b194e881c185d5cd95960821b604482015260640161094b565b60fb805460ff191660011790557f62e78cea01bee320cd4e420270b5ea74000d11b0c9f74754ebdbfc544b05a2586125713390565b60006116558383613000565b816001600160a01b0316836001600160a01b031614156126e35760405162461bcd60e51b815260206004820152601960248201527f4552433732313a20617070726f766520746f2063616c6c657200000000000000604482015260640161094b565b6001600160a01b038381166000818152606a6020908152604080832094871680845294825291829020805460ff191686151590811790915591519182527f17307eab39ab6107e8899845ad3d59bd9653f200f220920489ca2b5937696c31910160405180910390a3505050565b60008061275d61025c5490565b9050612769338261302a565b6127a98185858080601f01602080910402602001604051908101604052809392919081815260200183838082843760009201919091525061316992505050565b61165561025c80546001019055565b6127c3848484612102565b6127cf848484846131f4565b611a235760405162461bcd60e51b815260040161094b9061452b565b60606127f682611f8d565b61285c5760405162461bcd60e51b815260206004820152603160248201527f45524337323155524953746f726167653a2055524920717565727920666f72206044820152703737b732bc34b9ba32b73a103a37b5b2b760791b606482015260840161094b565b6000828152609760205260408120805461287590614227565b80601f01602080910402602001604051908101604052809291908181526020018280546128a190614227565b80156128ee5780601f106128c3576101008083540402835291602001916128ee565b820191906000526020600020905b8154815290600101906020018083116128d157829003601f168201915b5050505050905060006128ff612597565b9050805160001415612912575092915050565b81511561294457808260405160200161292c92919061457d565b60405160208183030381529060405292505050919050565b6120fa846132f2565b600061084b825490565b600054610100900460ff1661297e5760405162461bcd60e51b815260040161094b906145ac565b610d4f6133bc565b600054610100900460ff166129ad5760405162461bcd60e51b815260040161094b906145ac565b6129b56133bc565b610d4f6133e3565b600054610100900460ff166129e45760405162461bcd60e51b815260040161094b906145ac565b61297e6133bc565b600054610100900460ff16612a135760405162461bcd60e51b815260040161094b906145ac565b6129e46133bc565b600054610100900460ff16612a425760405162461bcd60e51b815260040161094b906145ac565b612a136133bc565b600054610100900460ff16612a715760405162461bcd60e51b815260040161094b906145ac565b612a796133bc565b612a816133bc565b610bee8282613413565b600054610100900460ff16612ab25760405162461bcd60e51b815260040161094b906145ac565b612aba6133bc565b610d4f613461565b600054610100900460ff16612ae95760405162461bcd60e51b815260040161094b906145ac565b612af16133bc565b612af96133bc565b61297e613461565b610bee8282612311565b60006001600160e01b03198216637965db0b60e01b148061084b575061084b82613494565b610a818383836134b9565b60606000612b4a8360026145f7565b612b5590600261449e565b67ffffffffffffffff811115612b6d57612b6d613df9565b6040519080825280601f01601f191660200182016040528015612b97576020820181803683370190505b509050600360fc1b81600081518110612bb257612bb26143e7565b60200101906001600160f81b031916908160001a905350600f60fb1b81600181518110612be157612be16143e7565b60200101906001600160f81b031916908160001a9053506000612c058460026145f7565b612c1090600161449e565b90505b6001811115612c88576f181899199a1a9b1b9c1cb0b131b232b360811b85600f1660108110612c4457612c446143e7565b1a60f81b828281518110612c5a57612c5a6143e7565b60200101906001600160f81b031916908160001a90535060049490941c93612c8181614616565b9050612c13565b5083156116555760405162461bcd60e51b815260206004820181905260248201527f537472696e67733a20686578206c656e67746820696e73756666696369656e74604482015260640161094b565b612ce1828261165c565b610bee57600082815261015f602090815260408083206001600160a01b03851684529091529020805460ff19166001179055612d1a3390565b6001600160a01b0316816001600160a01b0316837f2f8788117e7eff1d82e926ec794901d17c78024a50270940304540a733656f0d60405160405180910390a45050565b6000611655836001600160a01b03841661352b565b612d7d828261165c565b15610bee57600082815261015f602090815260408083206001600160a01b0385168085529252808320805460ff1916905551339285917ff6391f5c32d9c69d2a47ea670b442974b53935d1edc7fd64eb21e047a839171b9190a45050565b6000611655836001600160a01b03841661357a565b803b612e545760405162461bcd60e51b815260206004820152602d60248201527f455243313936373a206e657720696d706c656d656e746174696f6e206973206e60448201526c1bdd08184818dbdb9d1c9858dd609a1b606482015260840161094b565b7f360894a13ba1a3210667c828492db98dca3e2076cc3735a920a3ca505d382bbc80546001600160a01b0319166001600160a01b0392909216919091179055565b6060823b612ef45760405162461bcd60e51b815260206004820152602660248201527f416464726573733a2064656c65676174652063616c6c20746f206e6f6e2d636f6044820152651b9d1c9858dd60d21b606482015260840161094b565b600080846001600160a01b031684604051612f0f919061462d565b600060405180830381855af49150503d8060008114612f4a576040519150601f19603f3d011682016040523d82523d6000602084013e612f4f565b606091505b5091509150612f7782826040518060600160405280602781526020016147336027913961366d565b95945050505050565b612f8981612df0565b6040516001600160a01b038216907fbc7cd75a20ee27fd9adebab32041f755214dbc6bffa90cc0225b39da2e5c2d3b90600090a250565b612fc9816136a6565b60008181526097602052604090208054612fe290614227565b159050610cb8576000818152609760205260408120610cb891613bdb565b6000826000018281548110613017576130176143e7565b9060005260206000200154905092915050565b6001600160a01b0382166130805760405162461bcd60e51b815260206004820181905260248201527f4552433732313a206d696e7420746f20746865207a65726f2061646472657373604482015260640161094b565b61308981611f8d565b156130d65760405162461bcd60e51b815260206004820152601c60248201527f4552433732313a20746f6b656e20616c7265616479206d696e74656400000000604482015260640161094b565b6130e260008383612b30565b6001600160a01b038216600090815260686020526040812080546001929061310b90849061449e565b909155505060008181526067602052604080822080546001600160a01b0319166001600160a01b03861690811790915590518392907fddf252ad1be2c89b69c2b068fc378daa952ba7f163c4a11628f55a4df523b3ef908290a45050565b61317282611f8d565b6131d55760405162461bcd60e51b815260206004820152602e60248201527f45524337323155524953746f726167653a2055524920736574206f66206e6f6e60448201526d32bc34b9ba32b73a103a37b5b2b760911b606482015260840161094b565b60008281526097602090815260409091208251610a8192840190613ae3565b60006001600160a01b0384163b156132e757604051630a85bd0160e11b81526001600160a01b0385169063150b7a0290613238903390899088908890600401614649565b6020604051808303816000875af1925050508015613273575060408051601f3d908101601f1916820190925261327091810190614686565b60015b6132cd573d8080156132a1576040519150601f19603f3d011682016040523d82523d6000602084013e6132a6565b606091505b5080516132c55760405162461bcd60e51b815260040161094b9061452b565b805181602001fd5b6001600160e01b031916630a85bd0160e11b1490506120fa565b506001949350505050565b60606132fd82611f8d565b6133615760405162461bcd60e51b815260206004820152602f60248201527f4552433732314d657461646174613a2055524920717565727920666f72206e6f60448201526e3732bc34b9ba32b73a103a37b5b2b760891b606482015260840161094b565b600061336b612597565b9050600081511161338b5760405180602001604052806000815250611655565b806133958461374d565b6040516020016133a692919061457d565b6040516020818303038152906040529392505050565b600054610100900460ff16610d4f5760405162461bcd60e51b815260040161094b906145ac565b600054610100900460ff1661340a5760405162461bcd60e51b815260040161094b906145ac565b610d4f336125a7565b600054610100900460ff1661343a5760405162461bcd60e51b815260040161094b906145ac565b815161344d906065906020850190613ae3565b508051610a81906066906020840190613ae3565b600054610100900460ff166134885760405162461bcd60e51b815260040161094b906145ac565b60fb805460ff19169055565b60006001600160e01b0319821663780e9d6360e01b148061084b575061084b8261384b565b6134c483838361389b565b60fb5460ff1615610a815760405162461bcd60e51b815260206004820152602b60248201527f4552433732315061757361626c653a20746f6b656e207472616e73666572207760448201526a1a1a5b19481c185d5cd95960aa1b606482015260840161094b565b60008181526001830160205260408120546135725750815460018181018455600084815260208082209093018490558454848252828601909352604090209190915561084b565b50600061084b565b6000818152600183016020526040812054801561366357600061359e600183614487565b85549091506000906135b290600190614487565b90508181146136175760008660000182815481106135d2576135d26143e7565b90600052602060002001549050808760000184815481106135f5576135f56143e7565b6000918252602080832090910192909255918252600188019052604090208390555b8554869080613628576136286146a3565b60019003818190600052602060002001600090559055856001016000868152602001908152602001600020600090556001935050505061084b565b600091505061084b565b6060831561367c575081611655565b82511561368c5782518084602001fd5b8160405162461bcd60e51b815260040161094b9190613cb1565b60006136b182611269565b90506136bf81600084612b30565b6136ca600083611faa565b6001600160a01b03811660009081526068602052604081208054600192906136f3908490614487565b909155505060008281526067602052604080822080546001600160a01b0319169055518391906001600160a01b038416907fddf252ad1be2c89b69c2b068fc378daa952ba7f163c4a11628f55a4df523b3ef908390a45050565b6060816137715750506040805180820190915260018152600360fc1b602082015290565b8160005b811561379b5780613785816146b9565b91506137949050600a836146ea565b9150613775565b60008167ffffffffffffffff8111156137b6576137b6613df9565b6040519080825280601f01601f1916602001820160405280156137e0576020820181803683370190505b5090505b84156120fa576137f5600183614487565b9150613802600a866146fe565b61380d90603061449e565b60f81b818381518110613822576138226143e7565b60200101906001600160f81b031916908160001a905350613844600a866146ea565b94506137e4565b60006001600160e01b031982166380ac58cd60e01b148061387c57506001600160e01b03198216635b5e139f60e01b145b8061084b57506301ffc9a760e01b6001600160e01b031983161461084b565b6001600160a01b0383166138f6576138f18160cb8054600083815260cc60205260408120829055600182018355919091527fa7ce836d032b2bf62b7e2097a8e0a6d8aeb35405ad15271e96d3b0188a1d06fb0155565b613919565b816001600160a01b0316836001600160a01b031614613919576139198382613953565b6001600160a01b03821661393057610a81816139f0565b826001600160a01b0316826001600160a01b031614610a8157610a818282613a9f565b60006001613960846112ef565b61396a9190614487565b600083815260ca60205260409020549091508082146139bd576001600160a01b038416600090815260c960209081526040808320858452825280832054848452818420819055835260ca90915290208190555b50600091825260ca602090815260408084208490556001600160a01b03909416835260c981528383209183525290812055565b60cb54600090613a0290600190614487565b600083815260cc602052604081205460cb8054939450909284908110613a2a57613a2a6143e7565b906000526020600020015490508060cb8381548110613a4b57613a4b6143e7565b600091825260208083209091019290925582815260cc909152604080822084905585825281205560cb805480613a8357613a836146a3565b6001900381819060005260206000200160009055905550505050565b6000613aaa836112ef565b6001600160a01b03909316600090815260c960209081526040808320868452825280832085905593825260ca9052919091209190915550565b828054613aef90614227565b90600052602060002090601f016020900481019282613b115760008555613b57565b82601f10613b2a57805160ff1916838001178555613b57565b82800160010185558215613b57579182015b82811115613b57578251825591602001919060010190613b3c565b50613b63929150613c11565b5090565b828054613b7390614227565b90600052602060002090601f016020900481019282613b955760008555613b57565b82601f10613bae5782800160ff19823516178555613b57565b82800160010185558215613b57579182015b82811115613b57578235825591602001919060010190613bc0565b508054613be790614227565b6000825580601f10613bf7575050565b601f016020900490600052602060002090810190610cb891905b5b80821115613b635760008155600101613c12565b6001600160e01b031981168114610cb857600080fd5b600060208284031215613c4e57600080fd5b813561165581613c26565b60005b83811015613c74578181015183820152602001613c5c565b83811115611a235750506000910152565b60008151808452613c9d816020860160208601613c59565b601f01601f19169290920160200192915050565b6020815260006116556020830184613c85565b600060208284031215613cd657600080fd5b5035919050565b80356001600160a01b0381168114613cf457600080fd5b919050565b60008060408385031215613d0c57600080fd5b613d1583613cdd565b946020939093013593505050565b600080600060608486031215613d3857600080fd5b613d4184613cdd565b9250613d4f60208501613cdd565b9150604084013590509250925092565b60008060408385031215613d7257600080fd5b82359150613d8260208401613cdd565b90509250929050565b600060208284031215613d9d57600080fd5b61165582613cdd565b80356001600160801b0381168114613cf457600080fd5b600080600060608486031215613dd257600080fd5b83359250613de260208501613da6565b9150613df060408501613da6565b90509250925092565b634e487b7160e01b600052604160045260246000fd5b600082601f830112613e2057600080fd5b813567ffffffffffffffff80821115613e3b57613e3b613df9565b604051601f8301601f19908116603f01168101908282118183101715613e6357613e63613df9565b81604052838152866020858801011115613e7c57600080fd5b836020870160208301376000602085830101528094505050505092915050565b60008060408385031215613eaf57600080fd5b613eb883613cdd565b9150602083013567ffffffffffffffff811115613ed457600080fd5b613ee085828601613e0f565b9150509250929050565b600060208284031215613efc57600080fd5b813567ffffffffffffffff811115613f1357600080fd5b6120fa84828501613e0f565b87815260e060208201526000613f3860e0830189613c85565b6001600160a01b03881660408401528281036060840152613f598188613c85565b6001600160801b038781166080860152861660a085015283810360c08501529050613f848185613c85565b9a9950505050505050505050565b60008060408385031215613fa557600080fd5b50508035926020909101359150565b60008060408385031215613fc757600080fd5b613fd083613cdd565b915060208301358015158114613fe557600080fd5b809150509250929050565b60008083601f84011261400257600080fd5b50813567ffffffffffffffff81111561401a57600080fd5b60208301915083602082850101111561403257600080fd5b9250929050565b600080600080600080600060a0888a03121561405457600080fd5b873567ffffffffffffffff8082111561406c57600080fd5b6140788b838c01613ff0565b909950975060208a013591508082111561409157600080fd5b61409d8b838c01613ff0565b90975095508591506140b160408b01613da6565b94506140bf60608b01613da6565b935060808a01359150808211156140d557600080fd5b506140e28a828b01613e0f565b91505092959891949750929550565b6000806000806080858703121561410757600080fd5b61411085613cdd565b935061411e60208601613cdd565b925060408501359150606085013567ffffffffffffffff81111561414157600080fd5b61414d87828801613e0f565b91505092959194509250565b6000806040838503121561416c57600080fd5b61417583613cdd565b9150613d8260208401613cdd565b60208152815160208201526000602083015160e060408401526141aa610100840182613c85565b905060018060a01b0360408501511660608401526060840151601f19808584030160808601526141da8383613c85565b92506001600160801b0360808701511660a086015260a0860151915061420b60c08601836001600160801b03169052565b60c08601519150808584030160e086015250612f778282613c85565b600181811c9082168061423b57607f821691505b6020821081141561425c57634e487b7160e01b600052602260045260246000fd5b50919050565b60208082526031908201527f4552433732313a207472616e736665722063616c6c6572206973206e6f74206f6040820152701ddb995c881b9bdc88185c1c1c9bdd9959607a1b606082015260800190565b6020808252602c908201527f46756e6374696f6e206d7573742062652063616c6c6564207468726f7567682060408201526b19195b1959d85d1958d85b1b60a21b606082015260800190565b6020808252602c908201527f46756e6374696f6e206d7573742062652063616c6c6564207468726f7567682060408201526b6163746976652070726f787960a01b606082015260800190565b600080835481600182811c91508083168061436757607f831692505b602080841082141561438757634e487b7160e01b86526022600452602486fd5b81801561439b57600181146143ac576143d9565b60ff198616895284890196506143d9565b60008a81526020902060005b868110156143d15781548b8201529085019083016143b8565b505084890196505b509498975050505050505050565b634e487b7160e01b600052603260045260246000fd5b6020808252818101527f4f776e61626c653a2063616c6c6572206973206e6f7420746865206f776e6572604082015260600190565b8183823760009101908152919050565b60208152816020820152818360408301376000818301604090810191909152601f909201601f19160101919050565b634e487b7160e01b600052601160045260246000fd5b60008282101561449957614499614471565b500390565b600082198211156144b1576144b1614471565b500190565b7f416363657373436f6e74726f6c3a206163636f756e74200000000000000000008152600083516144ee816017850160208801613c59565b7001034b99036b4b9b9b4b733903937b6329607d1b601791840191820152835161451f816028840160208801613c59565b01602801949350505050565b60208082526032908201527f4552433732313a207472616e7366657220746f206e6f6e20455243373231526560408201527131b2b4bb32b91034b6b83632b6b2b73a32b960711b606082015260800190565b6000835161458f818460208801613c59565b8351908301906145a3818360208801613c59565b01949350505050565b6020808252602b908201527f496e697469616c697a61626c653a20636f6e7472616374206973206e6f74206960408201526a6e697469616c697a696e6760a81b606082015260800190565b600081600019048311821515161561461157614611614471565b500290565b60008161462557614625614471565b506000190190565b6000825161463f818460208701613c59565b9190910192915050565b6001600160a01b038581168252841660208201526040810183905260806060820181905260009061467c90830184613c85565b9695505050505050565b60006020828403121561469857600080fd5b815161165581613c26565b634e487b7160e01b600052603160045260246000fd5b60006000198214156146cd576146cd614471565b5060010190565b634e487b7160e01b600052601260045260246000fd5b6000826146f9576146f96146d4565b500490565b60008261470d5761470d6146d4565b50069056fe65d7a28e3265b37a6474929f336521b332c1681b933f6cb9f3376673440d862a416464726573733a206c6f772d6c6576656c2064656c65676174652063616c6c206661696c6564a26469706673582212204074b304f42ca1e7a750cee3e784c1d8dbd4184c0589605babb6473869fa1e6164736f6c634300080b0033",
  "linkReferences": {},
  "deployedLinkReferences": {}
}