{
  "_format": "hh-sol-artifact-1",
  "contractName": "BundleRegistry",
  "sourceName": "contracts/BundleRegistry.sol",
  "abi": [
    {
      "anonymous": false,
      "inputs": [
        {
          "indexed": false,
          "internalType": "address",
          "name": "previousAdmin",
          "type": "address"
        },
        {
          "indexed": false,
          "internalType": "address",
          "name": "newAdmin",
          "type": "address"
        }
      ],
      "name": "AdminChanged",
      "type": "event"
    },
    {
      "anonymous": false,
      "inputs": [
        {
          "indexed": true,
          "internalType": "address",
          "name": "beacon",
          "type": "address"
        }
      ],
      "name": "BeaconUpgraded",
      "type": "event"
    },
    {
      "anonymous": false,
      "inputs": [
        {
          "indexed": false,
          "internalType": "string",
          "name": "bundle",
          "type": "string"
        },
        {
          "indexed": false,
          "internalType": "string",
          "name": "host",
          "type": "string"
        },
        {
          "indexed": false,
          "internalType": "address",
          "name": "creator",
          "type": "address"
        }
      ],
      "name": "BundleRegistered",
      "type": "event"
    },
    {
      "anonymous": false,
      "inputs": [
        {
          "indexed": true,
          "internalType": "address",
          "name": "previousOwner",
          "type": "address"
        },
        {
          "indexed": true,
          "internalType": "address",
          "name": "newOwner",
          "type": "address"
        }
      ],
      "name": "OwnershipTransferred",
      "type": "event"
    },
    {
      "anonymous": false,
      "inputs": [
        {
          "indexed": false,
          "internalType": "address",
          "name": "account",
          "type": "address"
        }
      ],
      "name": "Paused",
      "type": "event"
    },
    {
      "anonymous": false,
      "inputs": [
        {
          "indexed": true,
          "internalType": "bytes32",
          "name": "role",
          "type": "bytes32"
        },
        {
          "indexed": true,
          "internalType": "bytes32",
          "name": "previousAdminRole",
          "type": "bytes32"
        },
        {
          "indexed": true,
          "internalType": "bytes32",
          "name": "newAdminRole",
          "type": "bytes32"
        }
      ],
      "name": "RoleAdminChanged",
      "type": "event"
    },
    {
      "anonymous": false,
      "inputs": [
        {
          "indexed": true,
          "internalType": "bytes32",
          "name": "role",
          "type": "bytes32"
        },
        {
          "indexed": true,
          "internalType": "address",
          "name": "account",
          "type": "address"
        },
        {
          "indexed": true,
          "internalType": "address",
          "name": "sender",
          "type": "address"
        }
      ],
      "name": "RoleGranted",
      "type": "event"
    },
    {
      "anonymous": false,
      "inputs": [
        {
          "indexed": true,
          "internalType": "bytes32",
          "name": "role",
          "type": "bytes32"
        },
        {
          "indexed": true,
          "internalType": "address",
          "name": "account",
          "type": "address"
        },
        {
          "indexed": true,
          "internalType": "address",
          "name": "sender",
          "type": "address"
        }
      ],
      "name": "RoleRevoked",
      "type": "event"
    },
    {
      "anonymous": false,
      "inputs": [
        {
          "indexed": false,
          "internalType": "address",
          "name": "account",
          "type": "address"
        }
      ],
      "name": "Unpaused",
      "type": "event"
    },
    {
      "anonymous": false,
      "inputs": [
        {
          "indexed": true,
          "internalType": "address",
          "name": "implementation",
          "type": "address"
        }
      ],
      "name": "Upgraded",
      "type": "event"
    },
    {
      "inputs": [],
      "name": "DEFAULT_ADMIN_ROLE",
      "outputs": [
        {
          "internalType": "bytes32",
          "name": "",
          "type": "bytes32"
        }
      ],
      "stateMutability": "view",
      "type": "function"
    },
    {
      "inputs": [],
      "name": "PAUSER_ROLE",
      "outputs": [
        {
          "internalType": "bytes32",
          "name": "",
          "type": "bytes32"
        }
      ],
      "stateMutability": "view",
      "type": "function"
    },
    {
      "inputs": [
        {
          "internalType": "string",
          "name": "",
          "type": "string"
        }
      ],
      "name": "bundles",
      "outputs": [
        {
          "internalType": "string",
          "name": "bundle",
          "type": "string"
        },
        {
          "internalType": "string",
          "name": "source",
          "type": "string"
        },
        {
          "internalType": "string",
          "name": "host",
          "type": "string"
        },
        {
          "internalType": "string",
          "name": "output",
          "type": "string"
        },
        {
          "internalType": "bool",
          "name": "active",
          "type": "bool"
        },
        {
          "internalType": "address",
          "name": "author",
          "type": "address"
        }
      ],
      "stateMutability": "view",
      "type": "function"
    },
    {
      "inputs": [
        {
          "internalType": "bytes32",
          "name": "role",
          "type": "bytes32"
        }
      ],
      "name": "getRoleAdmin",
      "outputs": [
        {
          "internalType": "bytes32",
          "name": "",
          "type": "bytes32"
        }
      ],
      "stateMutability": "view",
      "type": "function"
    },
    {
      "inputs": [
        {
          "internalType": "bytes32",
          "name": "role",
          "type": "bytes32"
        },
        {
          "internalType": "address",
          "name": "account",
          "type": "address"
        }
      ],
      "name": "grantRole",
      "outputs": [],
      "stateMutability": "nonpayable",
      "type": "function"
    },
    {
      "inputs": [
        {
          "internalType": "bytes32",
          "name": "role",
          "type": "bytes32"
        },
        {
          "internalType": "address",
          "name": "account",
          "type": "address"
        }
      ],
      "name": "hasRole",
      "outputs": [
        {
          "internalType": "bool",
          "name": "",
          "type": "bool"
        }
      ],
      "stateMutability": "view",
      "type": "function"
    },
    {
      "inputs": [],
      "name": "initialize",
      "outputs": [],
      "stateMutability": "nonpayable",
      "type": "function"
    },
    {
      "inputs": [],
      "name": "owner",
      "outputs": [
        {
          "internalType": "address",
          "name": "",
          "type": "address"
        }
      ],
      "stateMutability": "view",
      "type": "function"
    },
    {
      "inputs": [],
      "name": "pause",
      "outputs": [],
      "stateMutability": "nonpayable",
      "type": "function"
    },
    {
      "inputs": [],
      "name": "paused",
      "outputs": [
        {
          "internalType": "bool",
          "name": "",
          "type": "bool"
        }
      ],
      "stateMutability": "view",
      "type": "function"
    },
    {
      "inputs": [
        {
          "internalType": "string",
          "name": "_bundle",
          "type": "string"
        },
        {
          "internalType": "string",
          "name": "_source",
          "type": "string"
        },
        {
          "internalType": "string",
          "name": "_host",
          "type": "string"
        },
        {
          "internalType": "string",
          "name": "_output",
          "type": "string"
        },
        {
          "internalType": "bool",
          "name": "_active",
          "type": "bool"
        }
      ],
      "name": "register",
      "outputs": [
        {
          "components": [
            {
              "internalType": "string",
              "name": "bundle",
              "type": "string"
            },
            {
              "internalType": "string",
              "name": "source",
              "type": "string"
            },
            {
              "internalType": "string",
              "name": "host",
              "type": "string"
            },
            {
              "internalType": "string",
              "name": "output",
              "type": "string"
            },
            {
              "internalType": "bool",
              "name": "active",
              "type": "bool"
            },
            {
              "internalType": "address",
              "name": "author",
              "type": "address"
            }
          ],
          "internalType": "struct BundleRegistry.DataSourceAdapter",
          "name": "bundle",
          "type": "tuple"
        }
      ],
      "stateMutability": "nonpayable",
      "type": "function"
    },
    {
      "inputs": [],
      "name": "renounceOwnership",
      "outputs": [],
      "stateMutability": "nonpayable",
      "type": "function"
    },
    {
      "inputs": [
        {
          "internalType": "bytes32",
          "name": "role",
          "type": "bytes32"
        },
        {
          "internalType": "address",
          "name": "account",
          "type": "address"
        }
      ],
      "name": "renounceRole",
      "outputs": [],
      "stateMutability": "nonpayable",
      "type": "function"
    },
    {
      "inputs": [
        {
          "internalType": "bytes32",
          "name": "role",
          "type": "bytes32"
        },
        {
          "internalType": "address",
          "name": "account",
          "type": "address"
        }
      ],
      "name": "revokeRole",
      "outputs": [],
      "stateMutability": "nonpayable",
      "type": "function"
    },
    {
      "inputs": [
        {
          "internalType": "bytes4",
          "name": "interfaceId",
          "type": "bytes4"
        }
      ],
      "name": "supportsInterface",
      "outputs": [
        {
          "internalType": "bool",
          "name": "",
          "type": "bool"
        }
      ],
      "stateMutability": "view",
      "type": "function"
    },
    {
      "inputs": [
        {
          "internalType": "address",
          "name": "newOwner",
          "type": "address"
        }
      ],
      "name": "transferOwnership",
      "outputs": [],
      "stateMutability": "nonpayable",
      "type": "function"
    },
    {
      "inputs": [
        {
          "internalType": "address",
          "name": "newImplementation",
          "type": "address"
        }
      ],
      "name": "upgradeTo",
      "outputs": [],
      "stateMutability": "nonpayable",
      "type": "function"
    },
    {
      "inputs": [
        {
          "internalType": "address",
          "name": "newImplementation",
          "type": "address"
        },
        {
          "internalType": "bytes",
          "name": "data",
          "type": "bytes"
        }
      ],
      "name": "upgradeToAndCall",
      "outputs": [],
      "stateMutability": "payable",
      "type": "function"
    }
  ],
  "bytecode": "0x60a06040523060805234801561001457600080fd5b506080516122a26100456000396000818161046e015281816104ae01528181610ada0152610b1a01526122a26000f3fe6080604052600436106101095760003560e01c80638129fc1c116100955780639f7901f4116100645780639f7901f4146102c3578063a217fddf146102f5578063d547741f1461030a578063e63ab1e91461032a578063f2fde38b1461035e57600080fd5b80638129fc1c146102515780638456cb59146102665780638da5cb5b1461027b57806391d14854146102a357600080fd5b80633659cfe6116100dc5780633659cfe6146101c357806341b0b5f2146101e35780634f1ef286146102105780635c975abb14610223578063715018a61461023c57600080fd5b806301ffc9a71461010e578063248a9ca3146101435780632f2ff15d1461018157806336568abe146101a3575b600080fd5b34801561011a57600080fd5b5061012e610129366004611a98565b61037e565b60405190151581526020015b60405180910390f35b34801561014f57600080fd5b5061017361015e366004611ac2565b60009081526097602052604090206001015490565b60405190815260200161013a565b34801561018d57600080fd5b506101a161019c366004611af7565b6103b5565b005b3480156101af57600080fd5b506101a16101be366004611af7565b6103e0565b3480156101cf57600080fd5b506101a16101de366004611b23565b610463565b3480156101ef57600080fd5b506102036101fe366004611bea565b61052c565b60405161013a9190611d0d565b6101a161021e366004611db0565b610acf565b34801561022f57600080fd5b5061012d5460ff1661012e565b34801561024857600080fd5b506101a1610b85565b34801561025d57600080fd5b506101a1610bbb565b34801561027257600080fd5b506101a1610cbd565b34801561028757600080fd5b506033546040516001600160a01b03909116815260200161013a565b3480156102af57600080fd5b5061012e6102be366004611af7565b610cf0565b3480156102cf57600080fd5b506102e36102de366004611e12565b610d1b565b60405161013a96959493929190611e47565b34801561030157600080fd5b50610173600081565b34801561031657600080fd5b506101a1610325366004611af7565b610f89565b34801561033657600080fd5b506101737f65d7a28e3265b37a6474929f336521b332c1681b933f6cb9f3376673440d862a81565b34801561036a57600080fd5b506101a1610379366004611b23565b610faf565b60006001600160e01b03198216637965db0b60e01b14806103af57506301ffc9a760e01b6001600160e01b03198316145b92915050565b6000828152609760205260409020600101546103d18133611047565b6103db83836110ab565b505050565b6001600160a01b03811633146104555760405162461bcd60e51b815260206004820152602f60248201527f416363657373436f6e74726f6c3a2063616e206f6e6c792072656e6f756e636560448201526e103937b632b9903337b91039b2b63360891b60648201526084015b60405180910390fd5b61045f8282611131565b5050565b306001600160a01b037f00000000000000000000000000000000000000000000000000000000000000001614156104ac5760405162461bcd60e51b815260040161044c90611eb8565b7f00000000000000000000000000000000000000000000000000000000000000006001600160a01b03166104de611198565b6001600160a01b0316146105045760405162461bcd60e51b815260040161044c90611f04565b61050d816111c6565b60408051600080825260208201909252610529918391906111f0565b50565b6105706040518060c001604052806060815260200160608152602001606081526020016060815260200160001515815260200160006001600160a01b031681525090565b61012d5460ff16156105b75760405162461bcd60e51b815260206004820152601060248201526f14185d5cd8589b194e881c185d5cd95960821b604482015260640161044c565b6105c08661133b565b61060c5760405162461bcd60e51b815260206004820152601f60248201527f42756e646c65206d75737420626520616e204950465320434944206861736800604482015260640161044c565b838660405160200161061f929190611f50565b6040516020818303038152906040528051906020012061015f856040516106469190611f7f565b908152602001604051809103902060020161015f866040516106689190611f7f565b908152604051602091819003820181206106859392909101612070565b6040516020818303038152906040528051906020012014156106f45760405162461bcd60e51b815260206004820152602260248201527f42756e646c6520616c7265616479207265676973746572656420666f7220686f6044820152611cdd60f21b606482015260840161044c565b6040805160c0810182528781526020810187905280820186905260608101859052600160808201523360a0820152905161015f90610733908790611f7f565b9081526020016040518091039020600082015181600001908051906020019061075d9291906119ff565b50602082810151805161077692600185019201906119ff565b50604082015180516107929160028401916020909101906119ff565b50606082015180516107ae9160038401916020909101906119ff565b5060808201516004909101805460a0909301516001600160a01b031661010002610100600160a81b0319921515929092166001600160a81b0319909316929092171790556040517f58bd0d2d5bfe073b8b383c2e487a57117dc438b0591e3cb0d23e5f83383c84cb9061082690889087903390612085565b60405180910390a161015f8460405161083f9190611f7f565b90815260200160405180910390206040518060c001604052908160008201805461086890611f9b565b80601f016020809104026020016040519081016040528092919081815260200182805461089490611f9b565b80156108e15780601f106108b6576101008083540402835291602001916108e1565b820191906000526020600020905b8154815290600101906020018083116108c457829003601f168201915b505050505081526020016001820180546108fa90611f9b565b80601f016020809104026020016040519081016040528092919081815260200182805461092690611f9b565b80156109735780601f1061094857610100808354040283529160200191610973565b820191906000526020600020905b81548152906001019060200180831161095657829003601f168201915b5050505050815260200160028201805461098c90611f9b565b80601f01602080910402602001604051908101604052809291908181526020018280546109b890611f9b565b8015610a055780601f106109da57610100808354040283529160200191610a05565b820191906000526020600020905b8154815290600101906020018083116109e857829003601f168201915b50505050508152602001600382018054610a1e90611f9b565b80601f0160208091040260200160405190810160405280929190818152602001828054610a4a90611f9b565b8015610a975780601f10610a6c57610100808354040283529160200191610a97565b820191906000526020600020905b815481529060010190602001808311610a7a57829003601f168201915b50505091835250506004919091015460ff81161515602083015261010090046001600160a01b03166040909101529695505050505050565b306001600160a01b037f0000000000000000000000000000000000000000000000000000000000000000161415610b185760405162461bcd60e51b815260040161044c90611eb8565b7f00000000000000000000000000000000000000000000000000000000000000006001600160a01b0316610b4a611198565b6001600160a01b031614610b705760405162461bcd60e51b815260040161044c90611f04565b610b79826111c6565b61045f828260016111f0565b6033546001600160a01b03163314610baf5760405162461bcd60e51b815260040161044c906120c3565b610bb960006113fe565b565b600054610100900460ff16610bd65760005460ff1615610bda565b303b155b610c3d5760405162461bcd60e51b815260206004820152602e60248201527f496e697469616c697a61626c653a20636f6e747261637420697320616c72656160448201526d191e481a5b9a5d1a585b1a5e995960921b606482015260840161044c565b600054610100900460ff16158015610c5f576000805461ffff19166101011790555b610c67611450565b610c6f611487565b610c776114be565b610c7f6114ed565b610ca97f65d7a28e3265b37a6474929f336521b332c1681b933f6cb9f3376673440d862a33611524565b8015610529576000805461ff001916905550565b7f65d7a28e3265b37a6474929f336521b332c1681b933f6cb9f3376673440d862a610ce88133611047565b61052961152e565b60009182526097602090815260408084206001600160a01b0393909316845291905290205460ff1690565b805160208183018101805161015f82529282019190930120915280548190610d4290611f9b565b80601f0160208091040260200160405190810160405280929190818152602001828054610d6e90611f9b565b8015610dbb5780601f10610d9057610100808354040283529160200191610dbb565b820191906000526020600020905b815481529060010190602001808311610d9e57829003601f168201915b505050505090806001018054610dd090611f9b565b80601f0160208091040260200160405190810160405280929190818152602001828054610dfc90611f9b565b8015610e495780601f10610e1e57610100808354040283529160200191610e49565b820191906000526020600020905b815481529060010190602001808311610e2c57829003601f168201915b505050505090806002018054610e5e90611f9b565b80601f0160208091040260200160405190810160405280929190818152602001828054610e8a90611f9b565b8015610ed75780601f10610eac57610100808354040283529160200191610ed7565b820191906000526020600020905b815481529060010190602001808311610eba57829003601f168201915b505050505090806003018054610eec90611f9b565b80601f0160208091040260200160405190810160405280929190818152602001828054610f1890611f9b565b8015610f655780601f10610f3a57610100808354040283529160200191610f65565b820191906000526020600020905b815481529060010190602001808311610f4857829003601f168201915b5050506004909301549192505060ff8116906001600160a01b036101009091041686565b600082815260976020526040902060010154610fa58133611047565b6103db8383611131565b6033546001600160a01b03163314610fd95760405162461bcd60e51b815260040161044c906120c3565b6001600160a01b03811661103e5760405162461bcd60e51b815260206004820152602660248201527f4f776e61626c653a206e6577206f776e657220697320746865207a65726f206160448201526564647265737360d01b606482015260840161044c565b610529816113fe565b6110518282610cf0565b61045f57611069816001600160a01b031660146115c8565b6110748360206115c8565b6040516020016110859291906120f8565b60408051601f198184030181529082905262461bcd60e51b825261044c9160040161216d565b6110b58282610cf0565b61045f5760008281526097602090815260408083206001600160a01b03851684529091529020805460ff191660011790556110ed3390565b6001600160a01b0316816001600160a01b0316837f2f8788117e7eff1d82e926ec794901d17c78024a50270940304540a733656f0d60405160405180910390a45050565b61113b8282610cf0565b1561045f5760008281526097602090815260408083206001600160a01b0385168085529252808320805460ff1916905551339285917ff6391f5c32d9c69d2a47ea670b442974b53935d1edc7fd64eb21e047a839171b9190a45050565b7f360894a13ba1a3210667c828492db98dca3e2076cc3735a920a3ca505d382bbc546001600160a01b031690565b6033546001600160a01b031633146105295760405162461bcd60e51b815260040161044c906120c3565b60006111fa611198565b90506112058461176b565b6000835111806112125750815b15611223576112218484611810565b505b7f4910fdfa16fed3260ed0e7147f7cc6da11a60208b5b9406d12a635614ffd9143805460ff1661133457805460ff191660011781556040516001600160a01b03831660248201526112a290869060440160408051601f198184030181529190526020810180516001600160e01b0316631b2ce7f360e11b179052611810565b50805460ff191681556112b3611198565b6001600160a01b0316826001600160a01b03161461132b5760405162461bcd60e51b815260206004820152602f60248201527f45524331393637557067726164653a207570677261646520627265616b73206660448201526e75727468657220757067726164657360881b606482015260840161044c565b611334856118fb565b5050505050565b604080516001808252818301909252600091839183916020820181803683370190505090508160008151811061137357611373612180565b602001015160f81c60f81b8160008151811061139157611391612180565b60200101906001600160f81b031916908160001a9053506040805180820190915260018152605160f81b6020918201528151908201207ffbf3cc6079e09a6a2a778706898aef91b633ff613801d212e0afe7f411ddb1d21480156113f657508151602e145b949350505050565b603380546001600160a01b038381166001600160a01b0319831681179093556040519116919082907f8be0079c531659141344cd1fd0a4f28419497f9722a3daafe3b4186f6b6457e090600090a35050565b600054610100900460ff166114775760405162461bcd60e51b815260040161044c90612196565b61147f61193b565b610bb961193b565b600054610100900460ff166114ae5760405162461bcd60e51b815260040161044c90612196565b6114b661193b565b610bb9611962565b600054610100900460ff166114e55760405162461bcd60e51b815260040161044c90612196565b61147761193b565b600054610100900460ff166115145760405162461bcd60e51b815260040161044c90612196565b61151c61193b565b610bb9611992565b61045f82826110ab565b61012d5460ff16156115755760405162461bcd60e51b815260206004820152601060248201526f14185d5cd8589b194e881c185d5cd95960821b604482015260640161044c565b61012d805460ff191660011790557f62e78cea01bee320cd4e420270b5ea74000d11b0c9f74754ebdbfc544b05a2586115ab3390565b6040516001600160a01b03909116815260200160405180910390a1565b606060006115d78360026121f7565b6115e2906002612216565b67ffffffffffffffff8111156115fa576115fa611b3e565b6040519080825280601f01601f191660200182016040528015611624576020820181803683370190505b509050600360fc1b8160008151811061163f5761163f612180565b60200101906001600160f81b031916908160001a905350600f60fb1b8160018151811061166e5761166e612180565b60200101906001600160f81b031916908160001a90535060006116928460026121f7565b61169d906001612216565b90505b6001811115611715576f181899199a1a9b1b9c1cb0b131b232b360811b85600f16601081106116d1576116d1612180565b1a60f81b8282815181106116e7576116e7612180565b60200101906001600160f81b031916908160001a90535060049490941c9361170e8161222e565b90506116a0565b5083156117645760405162461bcd60e51b815260206004820181905260248201527f537472696e67733a20686578206c656e67746820696e73756666696369656e74604482015260640161044c565b9392505050565b803b6117cf5760405162461bcd60e51b815260206004820152602d60248201527f455243313936373a206e657720696d706c656d656e746174696f6e206973206e60448201526c1bdd08184818dbdb9d1c9858dd609a1b606482015260840161044c565b7f360894a13ba1a3210667c828492db98dca3e2076cc3735a920a3ca505d382bbc80546001600160a01b0319166001600160a01b0392909216919091179055565b6060823b61186f5760405162461bcd60e51b815260206004820152602660248201527f416464726573733a2064656c65676174652063616c6c20746f206e6f6e2d636f6044820152651b9d1c9858dd60d21b606482015260840161044c565b600080846001600160a01b03168460405161188a9190611f7f565b600060405180830381855af49150503d80600081146118c5576040519150601f19603f3d011682016040523d82523d6000602084013e6118ca565b606091505b50915091506118f28282604051806060016040528060278152602001612246602791396119c6565b95945050505050565b6119048161176b565b6040516001600160a01b038216907fbc7cd75a20ee27fd9adebab32041f755214dbc6bffa90cc0225b39da2e5c2d3b90600090a250565b600054610100900460ff16610bb95760405162461bcd60e51b815260040161044c90612196565b600054610100900460ff166119895760405162461bcd60e51b815260040161044c90612196565b610bb9336113fe565b600054610100900460ff166119b95760405162461bcd60e51b815260040161044c90612196565b61012d805460ff19169055565b606083156119d5575081611764565b8251156119e55782518084602001fd5b8160405162461bcd60e51b815260040161044c919061216d565b828054611a0b90611f9b565b90600052602060002090601f016020900481019282611a2d5760008555611a73565b82601f10611a4657805160ff1916838001178555611a73565b82800160010185558215611a73579182015b82811115611a73578251825591602001919060010190611a58565b50611a7f929150611a83565b5090565b5b80821115611a7f5760008155600101611a84565b600060208284031215611aaa57600080fd5b81356001600160e01b03198116811461176457600080fd5b600060208284031215611ad457600080fd5b5035919050565b80356001600160a01b0381168114611af257600080fd5b919050565b60008060408385031215611b0a57600080fd5b82359150611b1a60208401611adb565b90509250929050565b600060208284031215611b3557600080fd5b61176482611adb565b634e487b7160e01b600052604160045260246000fd5b600067ffffffffffffffff80841115611b6f57611b6f611b3e565b604051601f8501601f19908116603f01168101908282118183101715611b9757611b97611b3e565b81604052809350858152868686011115611bb057600080fd5b858560208301376000602087830101525050509392505050565b600082601f830112611bdb57600080fd5b61176483833560208501611b54565b600080600080600060a08688031215611c0257600080fd5b853567ffffffffffffffff80821115611c1a57600080fd5b611c2689838a01611bca565b96506020880135915080821115611c3c57600080fd5b611c4889838a01611bca565b95506040880135915080821115611c5e57600080fd5b611c6a89838a01611bca565b94506060880135915080821115611c8057600080fd5b50611c8d88828901611bca565b92505060808601358015158114611ca357600080fd5b809150509295509295909350565b60005b83811015611ccc578181015183820152602001611cb4565b83811115611cdb576000848401525b50505050565b60008151808452611cf9816020860160208601611cb1565b601f01601f19169290920160200192915050565b602081526000825160c06020840152611d2960e0840182611ce1565b90506020840151601f1980858403016040860152611d478383611ce1565b92506040860151915080858403016060860152611d648383611ce1565b9250606086015191508085840301608086015250611d828282611ce1565b6080860151151560a086810191909152909501516001600160a01b031660c090940193909352509192915050565b60008060408385031215611dc357600080fd5b611dcc83611adb565b9150602083013567ffffffffffffffff811115611de857600080fd5b8301601f81018513611df957600080fd5b611e0885823560208401611b54565b9150509250929050565b600060208284031215611e2457600080fd5b813567ffffffffffffffff811115611e3b57600080fd5b6113f684828501611bca565b60c081526000611e5a60c0830189611ce1565b8281036020840152611e6c8189611ce1565b90508281036040840152611e808188611ce1565b90508281036060840152611e948187611ce1565b941515608084015250506001600160a01b039190911660a090910152949350505050565b6020808252602c908201527f46756e6374696f6e206d7573742062652063616c6c6564207468726f7567682060408201526b19195b1959d85d1958d85b1b60a21b606082015260800190565b6020808252602c908201527f46756e6374696f6e206d7573742062652063616c6c6564207468726f7567682060408201526b6163746976652070726f787960a01b606082015260800190565b60008351611f62818460208801611cb1565b835190830190611f76818360208801611cb1565b01949350505050565b60008251611f91818460208701611cb1565b9190910192915050565b600181811c90821680611faf57607f821691505b60208210811415611fd057634e487b7160e01b600052602260045260246000fd5b50919050565b8054600090600181811c9080831680611ff057607f831692505b602080841082141561201257634e487b7160e01b600052602260045260246000fd5b818015612026576001811461203757612064565b60ff19861689528489019650612064565b60008881526020902060005b8681101561205c5781548b820152908501908301612043565b505084890196505b50505050505092915050565b60006113f661207f8386611fd6565b84611fd6565b6060815260006120986060830186611ce1565b82810360208401526120aa8186611ce1565b91505060018060a01b0383166040830152949350505050565b6020808252818101527f4f776e61626c653a2063616c6c6572206973206e6f7420746865206f776e6572604082015260600190565b7f416363657373436f6e74726f6c3a206163636f756e7420000000000000000000815260008351612130816017850160208801611cb1565b7001034b99036b4b9b9b4b733903937b6329607d1b6017918401918201528351612161816028840160208801611cb1565b01602801949350505050565b6020815260006117646020830184611ce1565b634e487b7160e01b600052603260045260246000fd5b6020808252602b908201527f496e697469616c697a61626c653a20636f6e7472616374206973206e6f74206960408201526a6e697469616c697a696e6760a81b606082015260800190565b634e487b7160e01b600052601160045260246000fd5b6000816000190483118215151615612211576122116121e1565b500290565b60008219821115612229576122296121e1565b500190565b60008161223d5761223d6121e1565b50600019019056fe416464726573733a206c6f772d6c6576656c2064656c65676174652063616c6c206661696c6564a2646970667358221220c9eb75e520b3a5c9aae8e044362771b4a0e33fe1b4c3f3346e0ce3c6c12e6d7a64736f6c634300080b0033",
  "linkReferences": {},
  "deployedLinkReferences": {}
}