{
  "_format": "hh-sol-artifact-1",
  "contractName": "KeeperRegistry",
  "sourceName": "contracts/KeeperRegistry.sol",
  "abi": [
    {
      "anonymous": false,
      "inputs": [
        {
          "indexed": false,
          "internalType": "address",
          "name": "previousAdmin",
          "type": "address"
        },
        {
          "indexed": false,
          "internalType": "address",
          "name": "newAdmin",
          "type": "address"
        }
      ],
      "name": "AdminChanged",
      "type": "event"
    },
    {
      "anonymous": false,
      "inputs": [
        {
          "indexed": true,
          "internalType": "address",
          "name": "beacon",
          "type": "address"
        }
      ],
      "name": "BeaconUpgraded",
      "type": "event"
    },
    {
      "anonymous": false,
      "inputs": [
        {
          "indexed": true,
          "internalType": "address",
          "name": "previousOwner",
          "type": "address"
        },
        {
          "indexed": true,
          "internalType": "address",
          "name": "newOwner",
          "type": "address"
        }
      ],
      "name": "OwnershipTransferred",
      "type": "event"
    },
    {
      "anonymous": false,
      "inputs": [
        {
          "indexed": true,
          "internalType": "address",
          "name": "implementation",
          "type": "address"
        }
      ],
      "name": "Upgraded",
      "type": "event"
    },
    {
      "anonymous": false,
      "inputs": [
        {
          "indexed": false,
          "internalType": "address",
          "name": "keeper",
          "type": "address"
        },
        {
          "indexed": false,
          "internalType": "uint256",
          "name": "timestamp",
          "type": "uint256"
        }
      ],
      "name": "leaveQueued",
      "type": "event"
    },
    {
      "anonymous": false,
      "inputs": [
        {
          "indexed": false,
          "internalType": "address",
          "name": "_subject",
          "type": "address"
        },
        {
          "indexed": false,
          "internalType": "enum KeeperRegistry.permissionType",
          "name": "_permissionType",
          "type": "uint8"
        }
      ],
      "name": "permissionChanged",
      "type": "event"
    },
    {
      "inputs": [],
      "name": "baseTime",
      "outputs": [
        {
          "internalType": "uint256",
          "name": "",
          "type": "uint256"
        }
      ],
      "stateMutability": "view",
      "type": "function"
    },
    {
      "inputs": [],
      "name": "bondAmount",
      "outputs": [
        {
          "internalType": "uint256",
          "name": "",
          "type": "uint256"
        }
      ],
      "stateMutability": "view",
      "type": "function"
    },
    {
      "inputs": [],
      "name": "bondCoin",
      "outputs": [
        {
          "internalType": "contract ERC20PermitUpgradeable",
          "name": "",
          "type": "address"
        }
      ],
      "stateMutability": "view",
      "type": "function"
    },
    {
      "inputs": [],
      "name": "cancelLeave",
      "outputs": [
        {
          "internalType": "bool",
          "name": "successfulCancel",
          "type": "bool"
        }
      ],
      "stateMutability": "nonpayable",
      "type": "function"
    },
    {
      "inputs": [
        {
          "internalType": "address",
          "name": "arbitraryAddress",
          "type": "address"
        }
      ],
      "name": "denounce",
      "outputs": [],
      "stateMutability": "nonpayable",
      "type": "function"
    },
    {
      "inputs": [],
      "name": "firstEmptyKeeperIndex",
      "outputs": [
        {
          "internalType": "uint256",
          "name": "",
          "type": "uint256"
        }
      ],
      "stateMutability": "view",
      "type": "function"
    },
    {
      "inputs": [],
      "name": "freeCoin",
      "outputs": [
        {
          "internalType": "uint256",
          "name": "",
          "type": "uint256"
        }
      ],
      "stateMutability": "view",
      "type": "function"
    },
    {
      "inputs": [],
      "name": "getRegisteredKeepers",
      "outputs": [
        {
          "internalType": "address[]",
          "name": "",
          "type": "address[]"
        }
      ],
      "stateMutability": "view",
      "type": "function"
    },
    {
      "inputs": [
        {
          "internalType": "address",
          "name": "coinAddress",
          "type": "address"
        },
        {
          "internalType": "uint256",
          "name": "keeperTransferDelay",
          "type": "uint256"
        },
        {
          "internalType": "uint16",
          "name": "maxKeepers",
          "type": "uint16"
        },
        {
          "internalType": "uint256",
          "name": "bondSize",
          "type": "uint256"
        },
        {
          "internalType": "address[]",
          "name": "_joiners",
          "type": "address[]"
        }
      ],
      "name": "initialize",
      "outputs": [],
      "stateMutability": "nonpayable",
      "type": "function"
    },
    {
      "inputs": [],
      "name": "isKeeper",
      "outputs": [
        {
          "internalType": "bool",
          "name": "",
          "type": "bool"
        }
      ],
      "stateMutability": "view",
      "type": "function"
    },
    {
      "inputs": [
        {
          "internalType": "address",
          "name": "arbitraryAddress",
          "type": "address"
        }
      ],
      "name": "isKeeper",
      "outputs": [
        {
          "internalType": "bool",
          "name": "",
          "type": "bool"
        }
      ],
      "stateMutability": "view",
      "type": "function"
    },
    {
      "inputs": [],
      "name": "isLicenseAvailable",
      "outputs": [
        {
          "internalType": "bool",
          "name": "",
          "type": "bool"
        }
      ],
      "stateMutability": "view",
      "type": "function"
    },
    {
      "inputs": [],
      "name": "join",
      "outputs": [
        {
          "internalType": "bool",
          "name": "",
          "type": "bool"
        }
      ],
      "stateMutability": "nonpayable",
      "type": "function"
    },
    {
      "inputs": [
        {
          "internalType": "address[]",
          "name": "joiners",
          "type": "address[]"
        },
        {
          "internalType": "uint256",
          "name": "bondSize",
          "type": "uint256"
        }
      ],
      "name": "joiningForOwner",
      "outputs": [],
      "stateMutability": "nonpayable",
      "type": "function"
    },
    {
      "inputs": [],
      "name": "leave",
      "outputs": [
        {
          "internalType": "bool",
          "name": "",
          "type": "bool"
        }
      ],
      "stateMutability": "nonpayable",
      "type": "function"
    },
    {
      "inputs": [
        {
          "internalType": "address[]",
          "name": "joiners",
          "type": "address[]"
        }
      ],
      "name": "leavingForOwner",
      "outputs": [],
      "stateMutability": "nonpayable",
      "type": "function"
    },
    {
      "inputs": [],
      "name": "maxNumKeepers",
      "outputs": [
        {
          "internalType": "uint16",
          "name": "",
          "type": "uint16"
        }
      ],
      "stateMutability": "view",
      "type": "function"
    },
    {
      "inputs": [],
      "name": "nextFreeTransferSlot",
      "outputs": [
        {
          "internalType": "uint256",
          "name": "",
          "type": "uint256"
        }
      ],
      "stateMutability": "view",
      "type": "function"
    },
    {
      "inputs": [],
      "name": "owner",
      "outputs": [
        {
          "internalType": "address",
          "name": "",
          "type": "address"
        }
      ],
      "stateMutability": "view",
      "type": "function"
    },
    {
      "inputs": [],
      "name": "queueToLeave",
      "outputs": [],
      "stateMutability": "nonpayable",
      "type": "function"
    },
    {
      "inputs": [
        {
          "internalType": "uint256",
          "name": "",
          "type": "uint256"
        }
      ],
      "name": "registeredKeepers",
      "outputs": [
        {
          "internalType": "address",
          "name": "",
          "type": "address"
        }
      ],
      "stateMutability": "view",
      "type": "function"
    },
    {
      "inputs": [
        {
          "internalType": "address",
          "name": "",
          "type": "address"
        }
      ],
      "name": "registry",
      "outputs": [
        {
          "internalType": "uint256",
          "name": "arrayIndex",
          "type": "uint256"
        },
        {
          "internalType": "uint256",
          "name": "bondHeld",
          "type": "uint256"
        }
      ],
      "stateMutability": "view",
      "type": "function"
    },
    {
      "inputs": [],
      "name": "renounceOwnership",
      "outputs": [],
      "stateMutability": "nonpayable",
      "type": "function"
    },
    {
      "inputs": [],
      "name": "transferDelay",
      "outputs": [
        {
          "internalType": "uint256",
          "name": "",
          "type": "uint256"
        }
      ],
      "stateMutability": "view",
      "type": "function"
    },
    {
      "inputs": [
        {
          "internalType": "address",
          "name": "newOwner",
          "type": "address"
        }
      ],
      "name": "transferOwnership",
      "outputs": [],
      "stateMutability": "nonpayable",
      "type": "function"
    },
    {
      "inputs": [
        {
          "internalType": "address",
          "name": "",
          "type": "address"
        }
      ],
      "name": "transferRequests",
      "outputs": [
        {
          "internalType": "uint256",
          "name": "",
          "type": "uint256"
        }
      ],
      "stateMutability": "view",
      "type": "function"
    },
    {
      "inputs": [
        {
          "internalType": "address",
          "name": "newImplementation",
          "type": "address"
        }
      ],
      "name": "upgradeTo",
      "outputs": [],
      "stateMutability": "nonpayable",
      "type": "function"
    },
    {
      "inputs": [
        {
          "internalType": "address",
          "name": "newImplementation",
          "type": "address"
        },
        {
          "internalType": "bytes",
          "name": "data",
          "type": "bytes"
        }
      ],
      "name": "upgradeToAndCall",
      "outputs": [],
      "stateMutability": "payable",
      "type": "function"
    },
    {
      "inputs": [
        {
          "internalType": "uint256",
          "name": "amount",
          "type": "uint256"
        }
      ],
      "name": "withdrawFreeCoin",
      "outputs": [],
      "stateMutability": "nonpayable",
      "type": "function"
    }
  ],
  "bytecode": "0x60a06040523060805234801561001457600080fd5b506080516121e3610045600039600081816106af015281816106ef01528181610907015261094701526121e36000f3fe6080604052600436106101c25760003560e01c80636ba42aaa116100f75780638bce79a911610095578063d66d9e1911610064578063d66d9e191461050d578063dcb77c7614610522578063dcf69fb214610542578063f2fde38b1461056257600080fd5b80638bce79a91461049a5780638da5cb5b146104ba578063b688a363146104d8578063ca0e551f146104ed57600080fd5b80637fbaab7b116100d15780637fbaab7b1461042f57806380f323a71461044557806388b0ff481461045b5780638a61fdb71461047b57600080fd5b80636ba42aaa146103c25780636f691a8a146103e2578063715018a61461041a57600080fd5b806323c41816116101645780634f1ef2861161013e5780634f1ef2861461034c57806353e661df1461035f5780635bc383591461037f5780636212d91a1461039557600080fd5b806323c41816146103005780633659cfe61461031557806339b5aac21461033757600080fd5b806308b096a0116101a057806308b096a01461025b5780630a702e8d14610271578063100f83f91461028757806314b80553146102d257600080fd5b8063038defd7146101c757806303b13208146102155780630401ae5b14610237575b600080fd5b3480156101d357600080fd5b506101fb6101e2366004611be8565b60d1602052600090815260409020805460019091015482565b604080519283526020830191909152015b60405180910390f35b34801561022157600080fd5b5061022a610582565b60405161020c9190611c03565b34801561024357600080fd5b5061024d60d35481565b60405190815260200161020c565b34801561026757600080fd5b5061024d60ce5481565b34801561027d57600080fd5b5061024d60cd5481565b34801561029357600080fd5b5033600090815260d1602090815260409182902082518084019093528054835260010154910181905260ca5411155b604051901515815260200161020c565b3480156102de57600080fd5b5060c9546102ed9061ffff1681565b60405161ffff909116815260200161020c565b34801561030c57600080fd5b506102c26105e4565b34801561032157600080fd5b50610335610330366004611be8565b6106a4565b005b34801561034357600080fd5b5061033561076d565b61033561035a366004611c97565b6108fc565b34801561036b57600080fd5b5061033561037a366004611dc4565b6109b6565b34801561038b57600080fd5b5061024d60cb5481565b3480156103a157600080fd5b5061024d6103b0366004611be8565b60d06020526000908152604090205481565b3480156103ce57600080fd5b506102c26103dd366004611be8565b610ac8565b3480156103ee57600080fd5b506104026103fd366004611e3f565b610b00565b6040516001600160a01b03909116815260200161020c565b34801561042657600080fd5b50610335610b2a565b34801561043b57600080fd5b5061024d60cf5481565b34801561045157600080fd5b5061024d60ca5481565b34801561046757600080fd5b5060cc54610402906001600160a01b031681565b34801561048757600080fd5b5060c95460d35461ffff909116116102c2565b3480156104a657600080fd5b506103356104b5366004611e58565b610b5e565b3480156104c657600080fd5b506033546001600160a01b0316610402565b3480156104e457600080fd5b506102c2610cb1565b3480156104f957600080fd5b50610335610508366004611be8565b610ee7565b34801561051957600080fd5b506102c2611111565b34801561052e57600080fd5b5061033561053d366004611e3f565b6113ca565b34801561054e57600080fd5b5061033561055d366004611e9d565b611480565b34801561056e57600080fd5b5061033561057d366004611be8565b611671565b606060d28054806020026020016040519081016040528092919081815260200182805480156105da57602002820191906000526020600020905b81546001600160a01b031681526001909101906020018083116105bc575b5050505050905090565b60006105ef33610ac8565b6106145760405162461bcd60e51b815260040161060b90611eda565b60405180910390fd5b33600090815260d060205260409020546106705760405162461bcd60e51b815260206004820152601b60248201527f4b6565706572206e6f7420736c6174656420746f206c656176652e0000000000604482015260640161060b565b33600090815260d06020526040812081905560cd5460ce805491929091610698908490611f1c565b90915550600192915050565b306001600160a01b037f00000000000000000000000000000000000000000000000000000000000000001614156106ed5760405162461bcd60e51b815260040161060b90611f34565b7f00000000000000000000000000000000000000000000000000000000000000006001600160a01b031661071f611709565b6001600160a01b0316146107455760405162461bcd60e51b815260040161060b90611f80565b61074e81611737565b6040805160008082526020820190925261076a91839190611761565b50565b61077633610ac8565b6107925760405162461bcd60e51b815260040161060b90611eda565b33600090815260d06020526040902054156107ef5760405162461bcd60e51b815260206004820152601c60248201527f5573657220616c72656164792071756575656420746f206c6561766500000000604482015260640161060b565b60cd5460ce5460cf546108029190611f1c565b61080c9190611fcc565b42111561089157600060ce5460cd54426108269190611f1c565b6108309190611fcc565b905060cd54816108409190611f1c565b60cf5533600081815260d06020908152604091829020849055815192835282018390527f2d76199d62d00e659fd536da56ef323e0e8557fb21b1d88b861bf6129c80f02d910160405180910390a150565b60cf5433600081815260d0602090815260409182902084905581519283528201929092527f2d76199d62d00e659fd536da56ef323e0e8557fb21b1d88b861bf6129c80f02d910160405180910390a160cd5460cf60008282546108f49190611f1c565b90915550505b565b306001600160a01b037f00000000000000000000000000000000000000000000000000000000000000001614156109455760405162461bcd60e51b815260040161060b90611f34565b7f00000000000000000000000000000000000000000000000000000000000000006001600160a01b0316610977611709565b6001600160a01b03161461099d5760405162461bcd60e51b815260040161060b90611f80565b6109a682611737565b6109b282826001611761565b5050565b600054610100900460ff166109d15760005460ff16156109d5565b303b155b610a385760405162461bcd60e51b815260206004820152602e60248201527f496e697469616c697a61626c653a20636f6e747261637420697320616c72656160448201526d191e481a5b9a5d1a585b1a5e995960921b606482015260840161060b565b600054610100900460ff16158015610a5a576000805461ffff19166101011790555b610a626118a5565b610a6a6118dc565b60cc80546001600160a01b0319166001600160a01b0388161790554260ce5560cd85905560c9805461ffff191661ffff861617905560ca839055610aae8284610b5e565b8015610ac0576000805461ff00191690555b505050505050565b6001600160a01b0316600090815260d1602090815260409182902082518084019093528054835260010154910181905260ca54111590565b60d28181548110610b1057600080fd5b6000918252602090912001546001600160a01b0316905081565b6033546001600160a01b03163314610b545760405162461bcd60e51b815260040161060b90611fe3565b6108fa6000611913565b6033546001600160a01b03163314610b885760405162461bcd60e51b815260040161060b90611fe3565b815160d354610b978282611f1c565b60d35560005b82811015610caa57610bb0826001611f1c565b9150610bcf604051806040016040528060008152602001600081525090565b6040518060400160405280600185610be79190611fcc565b81526020018681525090508060d16000888581518110610c0957610c09612018565b60200260200101516001600160a01b03166001600160a01b03168152602001908152602001600020600082015181600001556020820151816001015590505060d2868381518110610c5c57610c5c612018565b60209081029190910181015182546001810184556000938452919092200180546001600160a01b0319166001600160a01b039092169190911790555080610ca28161202e565b915050610b9d565b5050505050565b60c95460d35460009161ffff1611610d0b5760405162461bcd60e51b815260206004820152601c60248201527f4e6f206b6565706572206c6963656e736520617661696c61626c652e00000000604482015260640161060b565b600160d36000828254610d1e9190611f1c565b909155505033600090815260d160209081526040918290208251808401909352805483526001015490820181905260ca5411610da65760405162461bcd60e51b815260206004820152602160248201527f5573657220616c72656164792072656769737465726564206173204b656570656044820152603960f91b606482015260840161060b565b6040518060400160405280600160d354610dc09190611fcc565b815260ca5460209182015233600081815260d183526040808220855181559385015160019485015560d28054808601825592527ff2192e1030363415d7b4fb0406540a0060e8e2fc8982f3f32289379e11fa654690910180546001600160a01b03191683179055519293507fb564eb894c76c4be20c0a8159041d5e4f81d2bf69e7019dff0fae7618129fdbd92610e579290612049565b60405180910390a160cc5460ca546040516323b872dd60e01b815233600482015230602482015260448101919091526001600160a01b03909116906323b872dd906064016020604051808303816000875af1158015610eba573d6000803e3d6000fd5b505050506040513d601f19601f82011682018060405250810190610ede9190612084565b50600191505090565b6033546001600160a01b03163314610f115760405162461bcd60e51b815260040161060b90611fe3565b610f1a81610ac8565b610f5d5760405162461bcd60e51b815260206004820152601460248201527330b2323932b9b9903737ba10309035b2b2b832b960611b604482015260640161060b565b6001600160a01b038116600090815260d1602052604081206001015460cb805491929091610f8c908490611f1c565b92505081905550600160d36000828254610fa69190611fcc565b909155505060d2805490600090610fbe600184611fcc565b81548110610fce57610fce612018565b60009182526020808320909101546001600160a01b03868116845260d1808452604080862081518083018352815481526001918201548188015293909416808752828652818720825180840190935280548352948501805483880190815285518452978290529290955280519093559351909355825160d28054939550919285929190811061105f5761105f612018565b600091825260208083209190910180546001600160a01b0319166001600160a01b03948516179055918716815260d1909152604081208181556001015560d28054806110ad576110ad6120a6565b600082815260209020810160001990810180546001600160a01b03191690550190556040517fb564eb894c76c4be20c0a8159041d5e4f81d2bf69e7019dff0fae7618129fdbd90611102903390600290612049565b60405180910390a15050505050565b600061111c33610ac8565b6111385760405162461bcd60e51b815260040161060b90611eda565b33600090815260d060205260409020546111945760405162461bcd60e51b815260206004820152601860248201527f55736572206e6f742071756575656420746f206c656176650000000000000000604482015260640161060b565b60ce5433600090815260d0602052604090205442916111b291611f1c565b10156113c457600160d360008282546111cb9190611fcc565b909155505060d28054906000906111e3600184611fcc565b815481106111f3576111f3612018565b600091825260208083209091015433835260d180835260408085208151808301835281548152600191820154818701526001600160a01b0390941680875283865282872083518085019094528054845291820180548488019081528651855297829052939095528151905593519055805160d2805493955091939285929190811061128057611280612018565b600091825260208083209190910180546001600160a01b0319166001600160a01b03949094169390931790925533815260d1909152604081208181556001015560d28054806112d1576112d16120a6565b600082815260208120820160001990810180546001600160a01b03191690559091019091556040517fb564eb894c76c4be20c0a8159041d5e4f81d2bf69e7019dff0fae7618129fdbd9161132791339190612049565b60405180910390a160cc5433600081815260d160205260409081902060010154905163a9059cbb60e01b8152600481019290925260248201526001600160a01b039091169063a9059cbb906044016020604051808303816000875af1158015611394573d6000803e3d6000fd5b505050506040513d601f19601f820116820180604052508101906113b89190612084565b50600194505050505090565b50600090565b6033546001600160a01b031633146113f45760405162461bcd60e51b815260040161060b90611fe3565b8060cb60008282546114069190611fcc565b909155505060cc5460405163a9059cbb60e01b8152336004820152602481018390526001600160a01b039091169063a9059cbb906044016020604051808303816000875af115801561145c573d6000803e3d6000fd5b505050506040513d601f19601f820116820180604052508101906109b29190612084565b6033546001600160a01b031633146114aa5760405162461bcd60e51b815260040161060b90611fe3565b805160d3546114ba908290611fcc565b60d35560005b8181101561166c5760d28054906000906114db600184611fcc565b815481106114eb576114eb612018565b600091825260208220015486516001600160a01b03909116925060d190829088908790811061151c5761151c612018565b6020908102919091018101516001600160a01b039081168352828201939093526040918201600090812083518085018552815481526001918201548185015294871680835260d1808552858420865180880190975280548752928301805487870190815288518852929094529093528351905590519055815160d2805493945091928592919081106115b0576115b0612018565b9060005260206000200160006101000a8154816001600160a01b0302191690836001600160a01b0316021790555060d160008887815181106115f4576115f4612018565b6020908102919091018101516001600160a01b0316825281019190915260400160009081208181556001015560d2805480611631576116316120a6565b600082815260209020810160001990810180546001600160a01b031916905501905550839250611664915082905061202e565b9150506114c0565b505050565b6033546001600160a01b0316331461169b5760405162461bcd60e51b815260040161060b90611fe3565b6001600160a01b0381166117005760405162461bcd60e51b815260206004820152602660248201527f4f776e61626c653a206e6577206f776e657220697320746865207a65726f206160448201526564647265737360d01b606482015260840161060b565b61076a81611913565b7f360894a13ba1a3210667c828492db98dca3e2076cc3735a920a3ca505d382bbc546001600160a01b031690565b6033546001600160a01b0316331461076a5760405162461bcd60e51b815260040161060b90611fe3565b600061176b611709565b905061177684611965565b6000835111806117835750815b15611794576117928484611a0a565b505b7f4910fdfa16fed3260ed0e7147f7cc6da11a60208b5b9406d12a635614ffd9143805460ff16610caa57805460ff191660011781556040516001600160a01b038316602482015261181390869060440160408051601f198184030181529190526020810180516001600160e01b0316631b2ce7f360e11b179052611a0a565b50805460ff19168155611824611709565b6001600160a01b0316826001600160a01b03161461189c5760405162461bcd60e51b815260206004820152602f60248201527f45524331393637557067726164653a207570677261646520627265616b73206660448201526e75727468657220757067726164657360881b606482015260840161060b565b610caa85611af5565b600054610100900460ff166118cc5760405162461bcd60e51b815260040161060b906120bc565b6118d4611b35565b6108fa611b35565b600054610100900460ff166119035760405162461bcd60e51b815260040161060b906120bc565b61190b611b35565b6108fa611b5c565b603380546001600160a01b038381166001600160a01b0319831681179093556040519116919082907f8be0079c531659141344cd1fd0a4f28419497f9722a3daafe3b4186f6b6457e090600090a35050565b803b6119c95760405162461bcd60e51b815260206004820152602d60248201527f455243313936373a206e657720696d706c656d656e746174696f6e206973206e60448201526c1bdd08184818dbdb9d1c9858dd609a1b606482015260840161060b565b7f360894a13ba1a3210667c828492db98dca3e2076cc3735a920a3ca505d382bbc80546001600160a01b0319166001600160a01b0392909216919091179055565b6060823b611a695760405162461bcd60e51b815260206004820152602660248201527f416464726573733a2064656c65676174652063616c6c20746f206e6f6e2d636f6044820152651b9d1c9858dd60d21b606482015260840161060b565b600080846001600160a01b031684604051611a849190612137565b600060405180830381855af49150503d8060008114611abf576040519150601f19603f3d011682016040523d82523d6000602084013e611ac4565b606091505b5091509150611aec828260405180606001604052806027815260200161218760279139611b8c565b95945050505050565b611afe81611965565b6040516001600160a01b038216907fbc7cd75a20ee27fd9adebab32041f755214dbc6bffa90cc0225b39da2e5c2d3b90600090a250565b600054610100900460ff166108fa5760405162461bcd60e51b815260040161060b906120bc565b600054610100900460ff16611b835760405162461bcd60e51b815260040161060b906120bc565b6108fa33611913565b60608315611b9b575081611bc5565b825115611bab5782518084602001fd5b8160405162461bcd60e51b815260040161060b9190612153565b9392505050565b80356001600160a01b0381168114611be357600080fd5b919050565b600060208284031215611bfa57600080fd5b611bc582611bcc565b6020808252825182820181905260009190848201906040850190845b81811015611c445783516001600160a01b031683529284019291840191600101611c1f565b50909695505050505050565b634e487b7160e01b600052604160045260246000fd5b604051601f8201601f1916810167ffffffffffffffff81118282101715611c8f57611c8f611c50565b604052919050565b60008060408385031215611caa57600080fd5b611cb383611bcc565b915060208084013567ffffffffffffffff80821115611cd157600080fd5b818601915086601f830112611ce557600080fd5b813581811115611cf757611cf7611c50565b611d09601f8201601f19168501611c66565b91508082528784828501011115611d1f57600080fd5b80848401858401376000848284010152508093505050509250929050565b600082601f830112611d4e57600080fd5b8135602067ffffffffffffffff821115611d6a57611d6a611c50565b8160051b611d79828201611c66565b9283528481018201928281019087851115611d9357600080fd5b83870192505b84831015611db957611daa83611bcc565b82529183019190830190611d99565b979650505050505050565b600080600080600060a08688031215611ddc57600080fd5b611de586611bcc565b945060208601359350604086013561ffff81168114611e0357600080fd5b925060608601359150608086013567ffffffffffffffff811115611e2657600080fd5b611e3288828901611d3d565b9150509295509295909350565b600060208284031215611e5157600080fd5b5035919050565b60008060408385031215611e6b57600080fd5b823567ffffffffffffffff811115611e8257600080fd5b611e8e85828601611d3d565b95602094909401359450505050565b600060208284031215611eaf57600080fd5b813567ffffffffffffffff811115611ec657600080fd5b611ed284828501611d3d565b949350505050565b60208082526012908201527120b1b1b7bab73a103737ba1035b2b2b832b960711b604082015260600190565b634e487b7160e01b600052601160045260246000fd5b60008219821115611f2f57611f2f611f06565b500190565b6020808252602c908201527f46756e6374696f6e206d7573742062652063616c6c6564207468726f7567682060408201526b19195b1959d85d1958d85b1b60a21b606082015260800190565b6020808252602c908201527f46756e6374696f6e206d7573742062652063616c6c6564207468726f7567682060408201526b6163746976652070726f787960a01b606082015260800190565b600082821015611fde57611fde611f06565b500390565b6020808252818101527f4f776e61626c653a2063616c6c6572206973206e6f7420746865206f776e6572604082015260600190565b634e487b7160e01b600052603260045260246000fd5b600060001982141561204257612042611f06565b5060010190565b6001600160a01b0383168152604081016003831061207757634e487b7160e01b600052602160045260246000fd5b8260208301529392505050565b60006020828403121561209657600080fd5b81518015158114611bc557600080fd5b634e487b7160e01b600052603160045260246000fd5b6020808252602b908201527f496e697469616c697a61626c653a20636f6e7472616374206973206e6f74206960408201526a6e697469616c697a696e6760a81b606082015260800190565b60005b8381101561212257818101518382015260200161210a565b83811115612131576000848401525b50505050565b60008251612149818460208701612107565b9190910192915050565b6020815260008251806020840152612172816040850160208701612107565b601f01601f1916919091016040019291505056fe416464726573733a206c6f772d6c6576656c2064656c65676174652063616c6c206661696c6564a26469706673582212208d3cc4bd26ad83aec807541570f5a867de4685dd1a9f14ea45e3bfc877d34a6e64736f6c634300080b0033",
  "linkReferences": {},
  "deployedLinkReferences": {}
}