{
  "_format": "hh-sol-artifact-1",
  "contractName": "TreasuryVester",
  "sourceName": "contracts/TreasuryVester.sol",
  "abi": [
    {
      "inputs": [
        {
          "internalType": "address",
          "name": "steertoken_",
          "type": "address"
        },
        {
          "internalType": "address",
          "name": "recipient_",
          "type": "address"
        },
        {
          "internalType": "uint256",
          "name": "vestingAmount_",
          "type": "uint256"
        },
        {
          "internalType": "uint256",
          "name": "vestingBegin_",
          "type": "uint256"
        },
        {
          "internalType": "uint256",
          "name": "vestingCliff_",
          "type": "uint256"
        },
        {
          "internalType": "uint256",
          "name": "vestingEnd_",
          "type": "uint256"
        }
      ],
      "stateMutability": "nonpayable",
      "type": "constructor"
    },
    {
      "inputs": [],
      "name": "claim",
      "outputs": [],
      "stateMutability": "nonpayable",
      "type": "function"
    },
    {
      "inputs": [],
      "name": "getVotingPowerForVestedTokens",
      "outputs": [],
      "stateMutability": "nonpayable",
      "type": "function"
    },
    {
      "inputs": [],
      "name": "lastUpdate",
      "outputs": [
        {
          "internalType": "uint256",
          "name": "",
          "type": "uint256"
        }
      ],
      "stateMutability": "view",
      "type": "function"
    },
    {
      "inputs": [],
      "name": "recipient",
      "outputs": [
        {
          "internalType": "address",
          "name": "",
          "type": "address"
        }
      ],
      "stateMutability": "view",
      "type": "function"
    },
    {
      "inputs": [
        {
          "internalType": "address",
          "name": "recipient_",
          "type": "address"
        }
      ],
      "name": "setRecipient",
      "outputs": [],
      "stateMutability": "nonpayable",
      "type": "function"
    },
    {
      "inputs": [],
      "name": "steertoken",
      "outputs": [
        {
          "internalType": "address",
          "name": "",
          "type": "address"
        }
      ],
      "stateMutability": "view",
      "type": "function"
    },
    {
      "inputs": [],
      "name": "vestingAmount",
      "outputs": [
        {
          "internalType": "uint256",
          "name": "",
          "type": "uint256"
        }
      ],
      "stateMutability": "view",
      "type": "function"
    },
    {
      "inputs": [],
      "name": "vestingBegin",
      "outputs": [
        {
          "internalType": "uint256",
          "name": "",
          "type": "uint256"
        }
      ],
      "stateMutability": "view",
      "type": "function"
    },
    {
      "inputs": [],
      "name": "vestingCliff",
      "outputs": [
        {
          "internalType": "uint256",
          "name": "",
          "type": "uint256"
        }
      ],
      "stateMutability": "view",
      "type": "function"
    },
    {
      "inputs": [],
      "name": "vestingEnd",
      "outputs": [
        {
          "internalType": "uint256",
          "name": "",
          "type": "uint256"
        }
      ],
      "stateMutability": "view",
      "type": "function"
    }
  ],
  "bytecode": "0x608060405234801561001057600080fd5b506040516107a53803806107a583398101604081905261002f916101df565b428310156100aa5760405162461bcd60e51b815260206004820152603460248201527f54726561737572795665737465723a3a636f6e7374727563746f723a2076657360448201527f74696e6720626567696e20746f6f206561726c7900000000000000000000000060648201526084015b60405180910390fd5b828210156101125760405162461bcd60e51b815260206004820152602f60248201527f54726561737572795665737465723a3a636f6e7374727563746f723a20636c6960448201526e666620697320746f6f206561726c7960881b60648201526084016100a1565b8181116101775760405162461bcd60e51b815260206004820152602d60248201527f54726561737572795665737465723a3a636f6e7374727563746f723a20656e6460448201526c20697320746f6f206561726c7960981b60648201526084016100a1565b600080546001600160a01b039788166001600160a01b03199182161790915560018054969097169516949094179094556002919091556003819055600492909255600555600655610237565b80516001600160a01b03811681146101da57600080fd5b919050565b60008060008060008060c087890312156101f857600080fd5b610201876101c3565b955061020f602088016101c3565b945060408701519350606087015192506080870151915060a087015190509295509295509295565b61055f806102466000396000f3fe608060405234801561001057600080fd5b506004361061009d5760003560e01c806366d003ac1161006657806366d003ac1461010e57806384a1931f14610121578063c04637111461012a578063e29bc68b14610133578063f3640e741461013c57600080fd5b8062728f76146100a257806324fbba88146100be5780633bbed4a0146100c85780633fff2cc0146100db5780634e71d92d14610106575b600080fd5b6100ab60025481565b6040519081526020015b60405180910390f35b6100c6610145565b005b6100c66100d6366004610457565b6101a8565b6000546100ee906001600160a01b031681565b6040516001600160a01b0390911681526020016100b5565b6100c661028b565b6001546100ee906001600160a01b031681565b6100ab60055481565b6100ab60065481565b6100ab60035481565b6100ab60045481565b6000546001546040516317066a5760e21b81526001600160a01b039182166004820152911690635c19a95c90602401600060405180830381600087803b15801561018e57600080fd5b505af11580156101a2573d6000803e3d6000fd5b50505050565b6001600160a01b0381166101fc5760405162461bcd60e51b81526020600482015260166024820152755a65726f20616464726573732c20496e76616c69642160501b60448201526064015b60405180910390fd5b6001546001600160a01b031633146102695760405162461bcd60e51b815260206004820152602a60248201527f54726561737572795665737465723a3a736574526563697069656e743a20756e604482015269185d5d1a1bdc9a5e995960b21b60648201526084016101f3565b600180546001600160a01b0319166001600160a01b0392909216919091179055565b6004544210156102e95760405162461bcd60e51b815260206004820152602360248201527f54726561737572795665737465723a3a636c61696d3a206e6f742074696d65206044820152621e595d60ea1b60648201526084016101f3565b60006005544210610367576000546040516370a0823160e01b81523060048201526001600160a01b03909116906370a0823190602401602060405180830381865afa15801561033c573d6000803e3d6000fd5b505050506040513d601f19601f820116820180604052508101906103609190610480565b90506103af565b6103a861038160035460055461042c90919063ffffffff16565b6103a26103996006544261042c90919063ffffffff16565b6002549061043f565b9061044b565b4260065590505b60005460015460405163a9059cbb60e01b81526001600160a01b0391821660048201526024810184905291169063a9059cbb906044016020604051808303816000875af1158015610404573d6000803e3d6000fd5b505050506040513d601f19601f820116820180604052508101906104289190610499565b5050565b600061043882846104d1565b9392505050565b600061043882846104e8565b60006104388284610507565b60006020828403121561046957600080fd5b81356001600160a01b038116811461043857600080fd5b60006020828403121561049257600080fd5b5051919050565b6000602082840312156104ab57600080fd5b8151801515811461043857600080fd5b634e487b7160e01b600052601160045260246000fd5b6000828210156104e3576104e36104bb565b500390565b6000816000190483118215151615610502576105026104bb565b500290565b60008261052457634e487b7160e01b600052601260045260246000fd5b50049056fea264697066735822122063df43e75e67132e2c0179379c335dd66e5ad72f686bb006fb8e75c4b1fa68b164736f6c634300080b0033",
  "linkReferences": {},
  "deployedLinkReferences": {}
}