{
  "_format": "hh-sol-artifact-1",
  "contractName": "L2rewards",
  "sourceName": "contracts/L2rewards.sol",
  "abi": [
    {
      "anonymous": false,
      "inputs": [
        {
          "indexed": false,
          "internalType": "address",
          "name": "previousAdmin",
          "type": "address"
        },
        {
          "indexed": false,
          "internalType": "address",
          "name": "newAdmin",
          "type": "address"
        }
      ],
      "name": "AdminChanged",
      "type": "event"
    },
    {
      "anonymous": false,
      "inputs": [
        {
          "indexed": true,
          "internalType": "address",
          "name": "beacon",
          "type": "address"
        }
      ],
      "name": "BeaconUpgraded",
      "type": "event"
    },
    {
      "anonymous": false,
      "inputs": [
        {
          "indexed": true,
          "internalType": "address",
          "name": "to",
          "type": "address"
        },
        {
          "indexed": false,
          "internalType": "uint256",
          "name": "amount",
          "type": "uint256"
        }
      ],
      "name": "Claim",
      "type": "event"
    },
    {
      "anonymous": false,
      "inputs": [
        {
          "indexed": true,
          "internalType": "address",
          "name": "previousOwner",
          "type": "address"
        },
        {
          "indexed": true,
          "internalType": "address",
          "name": "newOwner",
          "type": "address"
        }
      ],
      "name": "OwnershipTransferred",
      "type": "event"
    },
    {
      "anonymous": false,
      "inputs": [
        {
          "indexed": true,
          "internalType": "address",
          "name": "implementation",
          "type": "address"
        }
      ],
      "name": "Upgraded",
      "type": "event"
    },
    {
      "inputs": [
        {
          "internalType": "bytes32",
          "name": "hash",
          "type": "bytes32"
        }
      ],
      "name": "changeMerkleRootHash",
      "outputs": [],
      "stateMutability": "nonpayable",
      "type": "function"
    },
    {
      "inputs": [
        {
          "internalType": "uint256",
          "name": "amount",
          "type": "uint256"
        },
        {
          "internalType": "bytes32[]",
          "name": "proof",
          "type": "bytes32[]"
        }
      ],
      "name": "claim",
      "outputs": [],
      "stateMutability": "nonpayable",
      "type": "function"
    },
    {
      "inputs": [
        {
          "internalType": "address",
          "name": "",
          "type": "address"
        }
      ],
      "name": "claimed",
      "outputs": [
        {
          "internalType": "uint256",
          "name": "",
          "type": "uint256"
        }
      ],
      "stateMutability": "view",
      "type": "function"
    },
    {
      "inputs": [
        {
          "internalType": "address",
          "name": "_rewardTokenAddress",
          "type": "address"
        }
      ],
      "name": "initialize",
      "outputs": [],
      "stateMutability": "nonpayable",
      "type": "function"
    },
    {
      "inputs": [],
      "name": "l2orchestrator",
      "outputs": [
        {
          "internalType": "address",
          "name": "",
          "type": "address"
        }
      ],
      "stateMutability": "view",
      "type": "function"
    },
    {
      "inputs": [],
      "name": "merkleRoot",
      "outputs": [
        {
          "internalType": "bytes32",
          "name": "",
          "type": "bytes32"
        }
      ],
      "stateMutability": "view",
      "type": "function"
    },
    {
      "inputs": [],
      "name": "owner",
      "outputs": [
        {
          "internalType": "address",
          "name": "",
          "type": "address"
        }
      ],
      "stateMutability": "view",
      "type": "function"
    },
    {
      "inputs": [],
      "name": "renounceOwnership",
      "outputs": [],
      "stateMutability": "nonpayable",
      "type": "function"
    },
    {
      "inputs": [],
      "name": "rewardToken",
      "outputs": [
        {
          "internalType": "contract IERC20Upgradeable",
          "name": "",
          "type": "address"
        }
      ],
      "stateMutability": "view",
      "type": "function"
    },
    {
      "inputs": [
        {
          "internalType": "address",
          "name": "_l2orchestrator",
          "type": "address"
        }
      ],
      "name": "setL2orchestrator",
      "outputs": [],
      "stateMutability": "nonpayable",
      "type": "function"
    },
    {
      "inputs": [
        {
          "internalType": "address",
          "name": "newOwner",
          "type": "address"
        }
      ],
      "name": "transferOwnership",
      "outputs": [],
      "stateMutability": "nonpayable",
      "type": "function"
    },
    {
      "inputs": [
        {
          "internalType": "address",
          "name": "newImplementation",
          "type": "address"
        }
      ],
      "name": "upgradeTo",
      "outputs": [],
      "stateMutability": "nonpayable",
      "type": "function"
    },
    {
      "inputs": [
        {
          "internalType": "address",
          "name": "newImplementation",
          "type": "address"
        },
        {
          "internalType": "bytes",
          "name": "data",
          "type": "bytes"
        }
      ],
      "name": "upgradeToAndCall",
      "outputs": [],
      "stateMutability": "payable",
      "type": "function"
    }
  ],
  "bytecode": "0x60a06040523060805234801561001457600080fd5b5060805161128c610045600039600081816104b2015281816104f2015281816106160152610656015261128c6000f3fe6080604052600436106100c25760003560e01c80638da5cb5b1161007f578063c884ef8311610059578063c884ef83146101ec578063efefbd8014610219578063f2fde38b14610239578063f7c618c11461025957600080fd5b80638da5cb5b1461017a578063bb0ffa20146101ac578063c4d66de8146101cc57600080fd5b80632eb4a7ab146100c75780632f52ebb7146100f05780633659cfe6146101125780634cdb051a146101325780634f1ef28614610152578063715018a614610165575b600080fd5b3480156100d357600080fd5b506100dd60c95481565b6040519081526020015b60405180910390f35b3480156100fc57600080fd5b5061011061010b366004610e71565b610279565b005b34801561011e57600080fd5b5061011061012d366004610f0c565b6104a7565b34801561013e57600080fd5b5061011061014d366004610f0c565b610570565b610110610160366004610f3d565b61060b565b34801561017157600080fd5b506101106106c5565b34801561018657600080fd5b506097546001600160a01b03165b6040516001600160a01b0390911681526020016100e7565b3480156101b857600080fd5b5060ca54610194906001600160a01b031681565b3480156101d857600080fd5b506101106101e7366004610f0c565b6106fb565b3480156101f857600080fd5b506100dd610207366004610f0c565b60cc6020526000908152604090205481565b34801561022557600080fd5b50610110610234366004610fff565b6107df565b34801561024557600080fd5b50610110610254366004610f0c565b610852565b34801561026557600080fd5b5060cb54610194906001600160a01b031681565b33600090815260cc60205260409020548084116102e95760405162461bcd60e51b8152602060048201526024808201527f5468697320616d6f756e742068617320616c7265616479206265656e20636c616044820152631a5b595960e21b60648201526084015b60405180910390fd5b6040516bffffffffffffffffffffffff193360601b16602082015260348101859052600090605401604051602081830303815290604052805190602001209050600061036c8585808060200260200160405190810160405280939291908181526020018383602002808284376000920191909152505060c95491508590506108ea565b9050806103c55760405162461bcd60e51b815260206004820152602160248201527f43616c63756c61746564204d65726b6c65204861736820697320696e76616c696044820152601960fa1b60648201526084016102e0565b33600081815260cc602052604090208790557f47cee97cb7acd717b3c0aa1435d004cd5b3c8c57d70dbceb4e4458bbd60e39d4610402858961102e565b60405190815260200160405180910390a260cb546001600160a01b031663a9059cbb3361042f868a61102e565b6040516001600160e01b031960e085901b1681526001600160a01b03909216600483015260248201526044016020604051808303816000875af115801561047a573d6000803e3d6000fd5b505050506040513d601f19601f8201168201806040525081019061049e9190611045565b50505050505050565b306001600160a01b037f00000000000000000000000000000000000000000000000000000000000000001614156104f05760405162461bcd60e51b81526004016102e090611067565b7f00000000000000000000000000000000000000000000000000000000000000006001600160a01b0316610522610902565b6001600160a01b0316146105485760405162461bcd60e51b81526004016102e0906110b3565b61055181610930565b6040805160008082526020820190925261056d9183919061095a565b50565b6097546001600160a01b0316331461059a5760405162461bcd60e51b81526004016102e0906110ff565b6001600160a01b0381166105e95760405162461bcd60e51b81526020600482015260166024820152755a65726f20616464726573732c20496e76616c69642160501b60448201526064016102e0565b60ca80546001600160a01b0319166001600160a01b0392909216919091179055565b306001600160a01b037f00000000000000000000000000000000000000000000000000000000000000001614156106545760405162461bcd60e51b81526004016102e090611067565b7f00000000000000000000000000000000000000000000000000000000000000006001600160a01b0316610686610902565b6001600160a01b0316146106ac5760405162461bcd60e51b81526004016102e0906110b3565b6106b582610930565b6106c18282600161095a565b5050565b6097546001600160a01b031633146106ef5760405162461bcd60e51b81526004016102e0906110ff565b6106f96000610aa5565b565b600054610100900460ff166107165760005460ff161561071a565b303b155b61077d5760405162461bcd60e51b815260206004820152602e60248201527f496e697469616c697a61626c653a20636f6e747261637420697320616c72656160448201526d191e481a5b9a5d1a585b1a5e995960921b60648201526084016102e0565b600054610100900460ff1615801561079f576000805461ffff19166101011790555b6107a7610af7565b6107af610b2e565b60cb80546001600160a01b0319166001600160a01b03841617905580156106c1576000805461ff00191690555050565b60ca546001600160a01b0316331461084d5760405162461bcd60e51b815260206004820152602b60248201527f596f7520617265206e6f74207065726d697474656420746f2063616c6c20746860448201526a34b990333ab731ba34b7b760a91b60648201526084016102e0565b60c955565b6097546001600160a01b0316331461087c5760405162461bcd60e51b81526004016102e0906110ff565b6001600160a01b0381166108e15760405162461bcd60e51b815260206004820152602660248201527f4f776e61626c653a206e6577206f776e657220697320746865207a65726f206160448201526564647265737360d01b60648201526084016102e0565b61056d81610aa5565b6000826108f78584610b65565b1490505b9392505050565b7f360894a13ba1a3210667c828492db98dca3e2076cc3735a920a3ca505d382bbc546001600160a01b031690565b6097546001600160a01b0316331461056d5760405162461bcd60e51b81526004016102e0906110ff565b6000610964610902565b905061096f84610c11565b60008351118061097c5750815b1561098d5761098b8484610cb6565b505b7f4910fdfa16fed3260ed0e7147f7cc6da11a60208b5b9406d12a635614ffd9143805460ff16610a9e57805460ff191660011781556040516001600160a01b0383166024820152610a0c90869060440160408051601f198184030181529190526020810180516001600160e01b0316631b2ce7f360e11b179052610cb6565b50805460ff19168155610a1d610902565b6001600160a01b0316826001600160a01b031614610a955760405162461bcd60e51b815260206004820152602f60248201527f45524331393637557067726164653a207570677261646520627265616b73206660448201526e75727468657220757067726164657360881b60648201526084016102e0565b610a9e85610da1565b5050505050565b609780546001600160a01b038381166001600160a01b0319831681179093556040519116919082907f8be0079c531659141344cd1fd0a4f28419497f9722a3daafe3b4186f6b6457e090600090a35050565b600054610100900460ff16610b1e5760405162461bcd60e51b81526004016102e090611134565b610b26610de1565b6106f9610e08565b600054610100900460ff16610b555760405162461bcd60e51b81526004016102e090611134565b610b5d610de1565b6106f9610de1565b600081815b8451811015610c09576000858281518110610b8757610b8761117f565b60200260200101519050808311610bc9576040805160208101859052908101829052606001604051602081830303815290604052805190602001209250610bf6565b60408051602081018390529081018490526060016040516020818303038152906040528051906020012092505b5080610c0181611195565b915050610b6a565b509392505050565b803b610c755760405162461bcd60e51b815260206004820152602d60248201527f455243313936373a206e657720696d706c656d656e746174696f6e206973206e60448201526c1bdd08184818dbdb9d1c9858dd609a1b60648201526084016102e0565b7f360894a13ba1a3210667c828492db98dca3e2076cc3735a920a3ca505d382bbc80546001600160a01b0319166001600160a01b0392909216919091179055565b6060823b610d155760405162461bcd60e51b815260206004820152602660248201527f416464726573733a2064656c65676174652063616c6c20746f206e6f6e2d636f6044820152651b9d1c9858dd60d21b60648201526084016102e0565b600080846001600160a01b031684604051610d3091906111e0565b600060405180830381855af49150503d8060008114610d6b576040519150601f19603f3d011682016040523d82523d6000602084013e610d70565b606091505b5091509150610d98828260405180606001604052806027815260200161123060279139610e38565b95945050505050565b610daa81610c11565b6040516001600160a01b038216907fbc7cd75a20ee27fd9adebab32041f755214dbc6bffa90cc0225b39da2e5c2d3b90600090a250565b600054610100900460ff166106f95760405162461bcd60e51b81526004016102e090611134565b600054610100900460ff16610e2f5760405162461bcd60e51b81526004016102e090611134565b6106f933610aa5565b60608315610e475750816108fb565b825115610e575782518084602001fd5b8160405162461bcd60e51b81526004016102e091906111fc565b600080600060408486031215610e8657600080fd5b83359250602084013567ffffffffffffffff80821115610ea557600080fd5b818601915086601f830112610eb957600080fd5b813581811115610ec857600080fd5b8760208260051b8501011115610edd57600080fd5b6020830194508093505050509250925092565b80356001600160a01b0381168114610f0757600080fd5b919050565b600060208284031215610f1e57600080fd5b6108fb82610ef0565b634e487b7160e01b600052604160045260246000fd5b60008060408385031215610f5057600080fd5b610f5983610ef0565b9150602083013567ffffffffffffffff80821115610f7657600080fd5b818501915085601f830112610f8a57600080fd5b813581811115610f9c57610f9c610f27565b604051601f8201601f19908116603f01168101908382118183101715610fc457610fc4610f27565b81604052828152886020848701011115610fdd57600080fd5b8260208601602083013760006020848301015280955050505050509250929050565b60006020828403121561101157600080fd5b5035919050565b634e487b7160e01b600052601160045260246000fd5b60008282101561104057611040611018565b500390565b60006020828403121561105757600080fd5b815180151581146108fb57600080fd5b6020808252602c908201527f46756e6374696f6e206d7573742062652063616c6c6564207468726f7567682060408201526b19195b1959d85d1958d85b1b60a21b606082015260800190565b6020808252602c908201527f46756e6374696f6e206d7573742062652063616c6c6564207468726f7567682060408201526b6163746976652070726f787960a01b606082015260800190565b6020808252818101527f4f776e61626c653a2063616c6c6572206973206e6f7420746865206f776e6572604082015260600190565b6020808252602b908201527f496e697469616c697a61626c653a20636f6e7472616374206973206e6f74206960408201526a6e697469616c697a696e6760a81b606082015260800190565b634e487b7160e01b600052603260045260246000fd5b60006000198214156111a9576111a9611018565b5060010190565b60005b838110156111cb5781810151838201526020016111b3565b838111156111da576000848401525b50505050565b600082516111f28184602087016111b0565b9190910192915050565b602081526000825180602084015261121b8160408501602087016111b0565b601f01601f1916919091016040019291505056fe416464726573733a206c6f772d6c6576656c2064656c65676174652063616c6c206661696c6564a2646970667358221220f11703f94c753f477dee45f36e473dcf3fb95a91623bef96b459925ebfd658e164736f6c634300080b0033",
  "linkReferences": {},
  "deployedLinkReferences": {}
}