{
  "_format": "hh-sol-artifact-1",
  "contractName": "XSteerToken",
  "sourceName": "contracts/XSteerToken.sol",
  "abi": [
    {
      "anonymous": false,
      "inputs": [
        {
          "indexed": false,
          "internalType": "address",
          "name": "previousAdmin",
          "type": "address"
        },
        {
          "indexed": false,
          "internalType": "address",
          "name": "newAdmin",
          "type": "address"
        }
      ],
      "name": "AdminChanged",
      "type": "event"
    },
    {
      "anonymous": false,
      "inputs": [
        {
          "indexed": true,
          "internalType": "address",
          "name": "owner",
          "type": "address"
        },
        {
          "indexed": true,
          "internalType": "address",
          "name": "spender",
          "type": "address"
        },
        {
          "indexed": false,
          "internalType": "uint256",
          "name": "value",
          "type": "uint256"
        }
      ],
      "name": "Approval",
      "type": "event"
    },
    {
      "anonymous": false,
      "inputs": [
        {
          "indexed": true,
          "internalType": "address",
          "name": "beacon",
          "type": "address"
        }
      ],
      "name": "BeaconUpgraded",
      "type": "event"
    },
    {
      "anonymous": false,
      "inputs": [
        {
          "indexed": true,
          "internalType": "address",
          "name": "delegator",
          "type": "address"
        },
        {
          "indexed": true,
          "internalType": "address",
          "name": "fromDelegate",
          "type": "address"
        },
        {
          "indexed": true,
          "internalType": "address",
          "name": "toDelegate",
          "type": "address"
        }
      ],
      "name": "DelegateChanged",
      "type": "event"
    },
    {
      "anonymous": false,
      "inputs": [
        {
          "indexed": true,
          "internalType": "address",
          "name": "delegate",
          "type": "address"
        },
        {
          "indexed": false,
          "internalType": "uint256",
          "name": "previousBalance",
          "type": "uint256"
        },
        {
          "indexed": false,
          "internalType": "uint256",
          "name": "newBalance",
          "type": "uint256"
        }
      ],
      "name": "DelegateVotesChanged",
      "type": "event"
    },
    {
      "anonymous": false,
      "inputs": [
        {
          "indexed": true,
          "internalType": "address",
          "name": "previousOwner",
          "type": "address"
        },
        {
          "indexed": true,
          "internalType": "address",
          "name": "newOwner",
          "type": "address"
        }
      ],
      "name": "OwnershipTransferred",
      "type": "event"
    },
    {
      "anonymous": false,
      "inputs": [
        {
          "indexed": false,
          "internalType": "address",
          "name": "account",
          "type": "address"
        }
      ],
      "name": "Paused",
      "type": "event"
    },
    {
      "anonymous": false,
      "inputs": [
        {
          "indexed": true,
          "internalType": "address",
          "name": "from",
          "type": "address"
        },
        {
          "indexed": true,
          "internalType": "address",
          "name": "to",
          "type": "address"
        },
        {
          "indexed": false,
          "internalType": "uint256",
          "name": "value",
          "type": "uint256"
        }
      ],
      "name": "Transfer",
      "type": "event"
    },
    {
      "anonymous": false,
      "inputs": [
        {
          "indexed": false,
          "internalType": "address",
          "name": "account",
          "type": "address"
        }
      ],
      "name": "Unpaused",
      "type": "event"
    },
    {
      "anonymous": false,
      "inputs": [
        {
          "indexed": true,
          "internalType": "address",
          "name": "implementation",
          "type": "address"
        }
      ],
      "name": "Upgraded",
      "type": "event"
    },
    {
      "inputs": [],
      "name": "DOMAIN_SEPARATOR",
      "outputs": [
        {
          "internalType": "bytes32",
          "name": "",
          "type": "bytes32"
        }
      ],
      "stateMutability": "view",
      "type": "function"
    },
    {
      "inputs": [
        {
          "internalType": "address",
          "name": "owner",
          "type": "address"
        },
        {
          "internalType": "address",
          "name": "spender",
          "type": "address"
        }
      ],
      "name": "allowance",
      "outputs": [
        {
          "internalType": "uint256",
          "name": "",
          "type": "uint256"
        }
      ],
      "stateMutability": "view",
      "type": "function"
    },
    {
      "inputs": [
        {
          "internalType": "address",
          "name": "spender",
          "type": "address"
        },
        {
          "internalType": "uint256",
          "name": "amount",
          "type": "uint256"
        }
      ],
      "name": "approve",
      "outputs": [
        {
          "internalType": "bool",
          "name": "",
          "type": "bool"
        }
      ],
      "stateMutability": "nonpayable",
      "type": "function"
    },
    {
      "inputs": [
        {
          "internalType": "address",
          "name": "account",
          "type": "address"
        }
      ],
      "name": "balanceOf",
      "outputs": [
        {
          "internalType": "uint256",
          "name": "",
          "type": "uint256"
        }
      ],
      "stateMutability": "view",
      "type": "function"
    },
    {
      "inputs": [
        {
          "internalType": "uint256",
          "name": "amount",
          "type": "uint256"
        }
      ],
      "name": "burn",
      "outputs": [],
      "stateMutability": "nonpayable",
      "type": "function"
    },
    {
      "inputs": [
        {
          "internalType": "address",
          "name": "account",
          "type": "address"
        },
        {
          "internalType": "uint256",
          "name": "amount",
          "type": "uint256"
        }
      ],
      "name": "burnFrom",
      "outputs": [],
      "stateMutability": "nonpayable",
      "type": "function"
    },
    {
      "inputs": [
        {
          "internalType": "address",
          "name": "account",
          "type": "address"
        },
        {
          "internalType": "uint32",
          "name": "pos",
          "type": "uint32"
        }
      ],
      "name": "checkpoints",
      "outputs": [
        {
          "components": [
            {
              "internalType": "uint32",
              "name": "fromBlock",
              "type": "uint32"
            },
            {
              "internalType": "uint224",
              "name": "votes",
              "type": "uint224"
            }
          ],
          "internalType": "struct ERC20VotesUpgradeable.Checkpoint",
          "name": "",
          "type": "tuple"
        }
      ],
      "stateMutability": "view",
      "type": "function"
    },
    {
      "inputs": [],
      "name": "decimals",
      "outputs": [
        {
          "internalType": "uint8",
          "name": "",
          "type": "uint8"
        }
      ],
      "stateMutability": "view",
      "type": "function"
    },
    {
      "inputs": [
        {
          "internalType": "address",
          "name": "spender",
          "type": "address"
        },
        {
          "internalType": "uint256",
          "name": "subtractedValue",
          "type": "uint256"
        }
      ],
      "name": "decreaseAllowance",
      "outputs": [
        {
          "internalType": "bool",
          "name": "",
          "type": "bool"
        }
      ],
      "stateMutability": "nonpayable",
      "type": "function"
    },
    {
      "inputs": [
        {
          "internalType": "address",
          "name": "delegatee",
          "type": "address"
        }
      ],
      "name": "delegate",
      "outputs": [],
      "stateMutability": "nonpayable",
      "type": "function"
    },
    {
      "inputs": [
        {
          "internalType": "address",
          "name": "delegatee",
          "type": "address"
        },
        {
          "internalType": "uint256",
          "name": "nonce",
          "type": "uint256"
        },
        {
          "internalType": "uint256",
          "name": "expiry",
          "type": "uint256"
        },
        {
          "internalType": "uint8",
          "name": "v",
          "type": "uint8"
        },
        {
          "internalType": "bytes32",
          "name": "r",
          "type": "bytes32"
        },
        {
          "internalType": "bytes32",
          "name": "s",
          "type": "bytes32"
        }
      ],
      "name": "delegateBySig",
      "outputs": [],
      "stateMutability": "nonpayable",
      "type": "function"
    },
    {
      "inputs": [
        {
          "internalType": "address",
          "name": "account",
          "type": "address"
        }
      ],
      "name": "delegates",
      "outputs": [
        {
          "internalType": "address",
          "name": "",
          "type": "address"
        }
      ],
      "stateMutability": "view",
      "type": "function"
    },
    {
      "inputs": [
        {
          "internalType": "address",
          "name": "token",
          "type": "address"
        },
        {
          "internalType": "uint256",
          "name": "amount",
          "type": "uint256"
        }
      ],
      "name": "flashFee",
      "outputs": [
        {
          "internalType": "uint256",
          "name": "",
          "type": "uint256"
        }
      ],
      "stateMutability": "view",
      "type": "function"
    },
    {
      "inputs": [
        {
          "internalType": "contract IERC3156FlashBorrowerUpgradeable",
          "name": "receiver",
          "type": "address"
        },
        {
          "internalType": "address",
          "name": "token",
          "type": "address"
        },
        {
          "internalType": "uint256",
          "name": "amount",
          "type": "uint256"
        },
        {
          "internalType": "bytes",
          "name": "data",
          "type": "bytes"
        }
      ],
      "name": "flashLoan",
      "outputs": [
        {
          "internalType": "bool",
          "name": "",
          "type": "bool"
        }
      ],
      "stateMutability": "nonpayable",
      "type": "function"
    },
    {
      "inputs": [
        {
          "internalType": "uint256",
          "name": "blockNumber",
          "type": "uint256"
        }
      ],
      "name": "getPastTotalSupply",
      "outputs": [
        {
          "internalType": "uint256",
          "name": "",
          "type": "uint256"
        }
      ],
      "stateMutability": "view",
      "type": "function"
    },
    {
      "inputs": [
        {
          "internalType": "address",
          "name": "account",
          "type": "address"
        },
        {
          "internalType": "uint256",
          "name": "blockNumber",
          "type": "uint256"
        }
      ],
      "name": "getPastVotes",
      "outputs": [
        {
          "internalType": "uint256",
          "name": "",
          "type": "uint256"
        }
      ],
      "stateMutability": "view",
      "type": "function"
    },
    {
      "inputs": [
        {
          "internalType": "address",
          "name": "account",
          "type": "address"
        }
      ],
      "name": "getVotes",
      "outputs": [
        {
          "internalType": "uint256",
          "name": "",
          "type": "uint256"
        }
      ],
      "stateMutability": "view",
      "type": "function"
    },
    {
      "inputs": [
        {
          "internalType": "address",
          "name": "spender",
          "type": "address"
        },
        {
          "internalType": "uint256",
          "name": "addedValue",
          "type": "uint256"
        }
      ],
      "name": "increaseAllowance",
      "outputs": [
        {
          "internalType": "bool",
          "name": "",
          "type": "bool"
        }
      ],
      "stateMutability": "nonpayable",
      "type": "function"
    },
    {
      "inputs": [
        {
          "internalType": "uint256",
          "name": "initialSupply",
          "type": "uint256"
        }
      ],
      "name": "initialize",
      "outputs": [],
      "stateMutability": "nonpayable",
      "type": "function"
    },
    {
      "inputs": [
        {
          "internalType": "address",
          "name": "token",
          "type": "address"
        }
      ],
      "name": "maxFlashLoan",
      "outputs": [
        {
          "internalType": "uint256",
          "name": "",
          "type": "uint256"
        }
      ],
      "stateMutability": "view",
      "type": "function"
    },
    {
      "inputs": [
        {
          "internalType": "address",
          "name": "_to",
          "type": "address"
        },
        {
          "internalType": "uint256",
          "name": "_amount",
          "type": "uint256"
        }
      ],
      "name": "mint",
      "outputs": [],
      "stateMutability": "nonpayable",
      "type": "function"
    },
    {
      "inputs": [],
      "name": "name",
      "outputs": [
        {
          "internalType": "string",
          "name": "",
          "type": "string"
        }
      ],
      "stateMutability": "view",
      "type": "function"
    },
    {
      "inputs": [
        {
          "internalType": "address",
          "name": "owner",
          "type": "address"
        }
      ],
      "name": "nonces",
      "outputs": [
        {
          "internalType": "uint256",
          "name": "",
          "type": "uint256"
        }
      ],
      "stateMutability": "view",
      "type": "function"
    },
    {
      "inputs": [
        {
          "internalType": "address",
          "name": "account",
          "type": "address"
        }
      ],
      "name": "numCheckpoints",
      "outputs": [
        {
          "internalType": "uint32",
          "name": "",
          "type": "uint32"
        }
      ],
      "stateMutability": "view",
      "type": "function"
    },
    {
      "inputs": [],
      "name": "owner",
      "outputs": [
        {
          "internalType": "address",
          "name": "",
          "type": "address"
        }
      ],
      "stateMutability": "view",
      "type": "function"
    },
    {
      "inputs": [],
      "name": "pause",
      "outputs": [],
      "stateMutability": "nonpayable",
      "type": "function"
    },
    {
      "inputs": [],
      "name": "paused",
      "outputs": [
        {
          "internalType": "bool",
          "name": "",
          "type": "bool"
        }
      ],
      "stateMutability": "view",
      "type": "function"
    },
    {
      "inputs": [
        {
          "internalType": "address",
          "name": "owner",
          "type": "address"
        },
        {
          "internalType": "address",
          "name": "spender",
          "type": "address"
        },
        {
          "internalType": "uint256",
          "name": "value",
          "type": "uint256"
        },
        {
          "internalType": "uint256",
          "name": "deadline",
          "type": "uint256"
        },
        {
          "internalType": "uint8",
          "name": "v",
          "type": "uint8"
        },
        {
          "internalType": "bytes32",
          "name": "r",
          "type": "bytes32"
        },
        {
          "internalType": "bytes32",
          "name": "s",
          "type": "bytes32"
        }
      ],
      "name": "permit",
      "outputs": [],
      "stateMutability": "nonpayable",
      "type": "function"
    },
    {
      "inputs": [],
      "name": "renounceOwnership",
      "outputs": [],
      "stateMutability": "nonpayable",
      "type": "function"
    },
    {
      "inputs": [],
      "name": "symbol",
      "outputs": [
        {
          "internalType": "string",
          "name": "",
          "type": "string"
        }
      ],
      "stateMutability": "view",
      "type": "function"
    },
    {
      "inputs": [],
      "name": "totalSupply",
      "outputs": [
        {
          "internalType": "uint256",
          "name": "",
          "type": "uint256"
        }
      ],
      "stateMutability": "view",
      "type": "function"
    },
    {
      "inputs": [
        {
          "internalType": "address",
          "name": "recipient",
          "type": "address"
        },
        {
          "internalType": "uint256",
          "name": "amount",
          "type": "uint256"
        }
      ],
      "name": "transfer",
      "outputs": [
        {
          "internalType": "bool",
          "name": "",
          "type": "bool"
        }
      ],
      "stateMutability": "nonpayable",
      "type": "function"
    },
    {
      "inputs": [
        {
          "internalType": "address",
          "name": "sender",
          "type": "address"
        },
        {
          "internalType": "address",
          "name": "recipient",
          "type": "address"
        },
        {
          "internalType": "uint256",
          "name": "amount",
          "type": "uint256"
        }
      ],
      "name": "transferFrom",
      "outputs": [
        {
          "internalType": "bool",
          "name": "",
          "type": "bool"
        }
      ],
      "stateMutability": "nonpayable",
      "type": "function"
    },
    {
      "inputs": [
        {
          "internalType": "address",
          "name": "newOwner",
          "type": "address"
        }
      ],
      "name": "transferOwnership",
      "outputs": [],
      "stateMutability": "nonpayable",
      "type": "function"
    },
    {
      "inputs": [],
      "name": "unpause",
      "outputs": [],
      "stateMutability": "nonpayable",
      "type": "function"
    },
    {
      "inputs": [
        {
          "internalType": "address",
          "name": "newImplementation",
          "type": "address"
        }
      ],
      "name": "upgradeTo",
      "outputs": [],
      "stateMutability": "nonpayable",
      "type": "function"
    },
    {
      "inputs": [
        {
          "internalType": "address",
          "name": "newImplementation",
          "type": "address"
        },
        {
          "internalType": "bytes",
          "name": "data",
          "type": "bytes"
        }
      ],
      "name": "upgradeToAndCall",
      "outputs": [],
      "stateMutability": "payable",
      "type": "function"
    }
  ],
  "bytecode": "0x60a06040523060805234801561001457600080fd5b506080516134df610045600039600081816108aa015281816108ea01528181610a990152610ad901526134df6000f3fe60806040526004361061021a5760003560e01c80636fcfff45116101235780639ab24eb0116100ab578063d9d98ce41161006f578063d9d98ce414610646578063dd62ed3e14610666578063f1127ed8146106ac578063f2fde38b146106f6578063fe4b84df1461071657600080fd5b80639ab24eb0146105a6578063a457c2d7146105c6578063a9059cbb146105e6578063c3cda52014610606578063d505accf1461062657600080fd5b80637ecebe00116100f25780637ecebe001461051e5780638456cb591461053e5780638da5cb5b146105535780638e539e8c1461057157806395d89b411461059157600080fd5b80636fcfff451461047e57806370a08231146104b3578063715018a6146104e957806379cc6790146104fe57600080fd5b80633f4ba83a116101a6578063587cde1e11610175578063587cde1e146103b45780635c19a95c146104065780635c975abb146104265780635cffe9de1461043e578063613255ab1461045e57600080fd5b80633f4ba83a1461034c57806340c10f191461036157806342966c68146103815780634f1ef286146103a157600080fd5b8063313ce567116101ed578063313ce567146102b95780633644e515146102d55780633659cfe6146102ea578063395093511461030c5780633a46b1a81461032c57600080fd5b806306fdde031461021f578063095ea7b31461024a57806318160ddd1461027a57806323b872dd14610299575b600080fd5b34801561022b57600080fd5b50610234610736565b6040516102419190612d4d565b60405180910390f35b34801561025657600080fd5b5061026a610265366004612d95565b6107c8565b6040519015158152602001610241565b34801561028657600080fd5b506035545b604051908152602001610241565b3480156102a557600080fd5b5061026a6102b4366004612dc1565b6107df565b3480156102c557600080fd5b5060405160128152602001610241565b3480156102e157600080fd5b5061028b610890565b3480156102f657600080fd5b5061030a610305366004612e02565b61089f565b005b34801561031857600080fd5b5061026a610327366004612d95565b610968565b34801561033857600080fd5b5061028b610347366004612d95565b6109a4565b34801561035857600080fd5b5061030a610a18565b34801561036d57600080fd5b5061030a61037c366004612d95565b610a4c565b34801561038d57600080fd5b5061030a61039c366004612e1f565b610a84565b61030a6103af366004612e4e565b610a8e565b3480156103c057600080fd5b506103ee6103cf366004612e02565b6001600160a01b03908116600090815261016260205260409020541690565b6040516001600160a01b039091168152602001610241565b34801561041257600080fd5b5061030a610421366004612e02565b610b44565b34801561043257600080fd5b5060975460ff1661026a565b34801561044a57600080fd5b5061026a610459366004612f12565b610b4e565b34801561046a57600080fd5b5061028b610479366004612e02565b610d2b565b34801561048a57600080fd5b5061049e610499366004612e02565b610d53565b60405163ffffffff9091168152602001610241565b3480156104bf57600080fd5b5061028b6104ce366004612e02565b6001600160a01b031660009081526033602052604090205490565b3480156104f557600080fd5b5061030a610d76565b34801561050a57600080fd5b5061030a610519366004612d95565b610daa565b34801561052a57600080fd5b5061028b610539366004612e02565b610e30565b34801561054a57600080fd5b5061030a610e4f565b34801561055f57600080fd5b5060c9546001600160a01b03166103ee565b34801561057d57600080fd5b5061028b61058c366004612e1f565b610e81565b34801561059d57600080fd5b50610234610ede565b3480156105b257600080fd5b5061028b6105c1366004612e02565b610eed565b3480156105d257600080fd5b5061026a6105e1366004612d95565b610f76565b3480156105f257600080fd5b5061026a610601366004612d95565b61100f565b34801561061257600080fd5b5061030a610621366004612fc7565b61101c565b34801561063257600080fd5b5061030a610641366004613021565b611152565b34801561065257600080fd5b5061028b610661366004612d95565b611299565b34801561067257600080fd5b5061028b61068136600461308f565b6001600160a01b03918216600090815260346020908152604080832093909416825291909152205490565b3480156106b857600080fd5b506106cc6106c73660046130c8565b6112fc565b60408051825163ffffffff1681526020928301516001600160e01b03169281019290925201610241565b34801561070257600080fd5b5061030a610711366004612e02565b611381565b34801561072257600080fd5b5061030a610731366004612e1f565b611419565b606060368054610745906130ff565b80601f0160208091040260200160405190810160405280929190818152602001828054610771906130ff565b80156107be5780601f10610793576101008083540402835291602001916107be565b820191906000526020600020905b8154815290600101906020018083116107a157829003601f168201915b5050505050905090565b60006107d5338484611594565b5060015b92915050565b60006107ec8484846116b8565b6001600160a01b0384166000908152603460209081526040808320338452909152902054828110156108765760405162461bcd60e51b815260206004820152602860248201527f45524332303a207472616e7366657220616d6f756e74206578636565647320616044820152676c6c6f77616e636560c01b60648201526084015b60405180910390fd5b6108838533858403611594565b60019150505b9392505050565b600061089a61189d565b905090565b306001600160a01b037f00000000000000000000000000000000000000000000000000000000000000001614156108e85760405162461bcd60e51b815260040161086d90613134565b7f00000000000000000000000000000000000000000000000000000000000000006001600160a01b031661091a611918565b6001600160a01b0316146109405760405162461bcd60e51b815260040161086d90613180565b61094981611946565b6040805160008082526020820190925261096591839190611970565b50565b3360008181526034602090815260408083206001600160a01b038716845290915281205490916107d591859061099f9086906131e2565b611594565b60004382106109f55760405162461bcd60e51b815260206004820152601f60248201527f4552433230566f7465733a20626c6f636b206e6f7420796574206d696e656400604482015260640161086d565b6001600160a01b0383166000908152610163602052604090206108899083611abb565b60c9546001600160a01b03163314610a425760405162461bcd60e51b815260040161086d906131fa565b610a4a611b78565b565b60c9546001600160a01b03163314610a765760405162461bcd60e51b815260040161086d906131fa565b610a808282611c0b565b5050565b6109653382611c15565b306001600160a01b037f0000000000000000000000000000000000000000000000000000000000000000161415610ad75760405162461bcd60e51b815260040161086d90613134565b7f00000000000000000000000000000000000000000000000000000000000000006001600160a01b0316610b09611918565b6001600160a01b031614610b2f5760405162461bcd60e51b815260040161086d90613180565b610b3882611946565b610a8082826001611970565b6109653382611c1f565b600080610b5b8686611299565b9050610b678786611c0b565b6040516323e30c8b60e01b81527f439148f0bbc682ca079e46d6e2c2f0c1e3b820f1a291b069d8882abf8cf18dd9906001600160a01b038916906323e30c8b90610bbf9033908b908b9088908c908c9060040161322f565b6020604051808303816000875af1158015610bde573d6000803e3d6000fd5b505050506040513d601f19601f82011682018060405250810190610c02919061328b565b14610c5b5760405162461bcd60e51b8152602060048201526024808201527f4552433230466c6173684d696e743a20696e76616c69642072657475726e2076604482015263616c756560e01b606482015260840161086d565b6001600160a01b0387166000908152603460209081526040808320308452909152902054610c8982876131e2565b811015610cf05760405162461bcd60e51b815260206004820152602f60248201527f4552433230466c6173684d696e743a20616c6c6f77616e636520646f6573206e60448201526e1bdd08185b1b1bddc81c99599d5b99608a1b606482015260840161086d565b610d0a883084610d008a866132a4565b61099f91906132a4565b610d1d88610d1884896131e2565b611c15565b506001979650505050505050565b60006001600160a01b0382163014610d445760006107d9565b6035546107d9906000196132a4565b6001600160a01b038116600090815261016360205260408120546107d990611c9a565b60c9546001600160a01b03163314610da05760405162461bcd60e51b815260040161086d906131fa565b610a4a6000611d03565b6000610db68333610681565b905081811015610e145760405162461bcd60e51b8152602060048201526024808201527f45524332303a206275726e20616d6f756e74206578636565647320616c6c6f77604482015263616e636560e01b606482015260840161086d565b610e218333848403611594565b610e2b8383611c15565b505050565b6001600160a01b038116600090815261012f60205260408120546107d9565b60c9546001600160a01b03163314610e795760405162461bcd60e51b815260040161086d906131fa565b610a4a611d55565b6000438210610ed25760405162461bcd60e51b815260206004820152601f60248201527f4552433230566f7465733a20626c6f636b206e6f7420796574206d696e656400604482015260640161086d565b6107d961016483611abb565b606060378054610745906130ff565b6001600160a01b038116600090815261016360205260408120548015610f63576001600160a01b038316600090815261016360205260409020610f316001836132a4565b81548110610f4157610f416132bb565b60009182526020909120015464010000000090046001600160e01b0316610f66565b60005b6001600160e01b03169392505050565b3360009081526034602090815260408083206001600160a01b038616845290915281205482811015610ff85760405162461bcd60e51b815260206004820152602560248201527f45524332303a2064656372656173656420616c6c6f77616e63652062656c6f77604482015264207a65726f60d81b606482015260840161086d565b6110053385858403611594565b5060019392505050565b60006107d53384846116b8565b8342111561106c5760405162461bcd60e51b815260206004820152601d60248201527f4552433230566f7465733a207369676e61747572652065787069726564000000604482015260640161086d565b604080517fe48329057bfd03d55e49b547132e39cffd9c1820ad7b9d4c5307691425d15adf60208201526001600160a01b0388169181019190915260608101869052608081018590526000906110e6906110de9060a00160405160208183030381529060405280519060200120611dd0565b858585611e1e565b90506110f181611e46565b861461113f5760405162461bcd60e51b815260206004820152601960248201527f4552433230566f7465733a20696e76616c6964206e6f6e636500000000000000604482015260640161086d565b6111498188611c1f565b50505050505050565b834211156111a25760405162461bcd60e51b815260206004820152601d60248201527f45524332305065726d69743a206578706972656420646561646c696e65000000604482015260640161086d565b6000610130548888886111b48c611e46565b6040805160208101969096526001600160a01b0394851690860152929091166060840152608083015260a082015260c0810186905260e001604051602081830303815290604052805190602001209050600061120f82611dd0565b9050600061121f82878787611e1e565b9050896001600160a01b0316816001600160a01b0316146112825760405162461bcd60e51b815260206004820152601e60248201527f45524332305065726d69743a20696e76616c6964207369676e61747572650000604482015260640161086d565b61128d8a8a8a611594565b50505050505050505050565b60006001600160a01b03831630146112f35760405162461bcd60e51b815260206004820152601b60248201527f4552433230466c6173684d696e743a2077726f6e6720746f6b656e0000000000604482015260640161086d565b50600092915050565b60408051808201909152600080825260208201526001600160a01b038316600090815261016360205260409020805463ffffffff8416908110611341576113416132bb565b60009182526020918290206040805180820190915291015463ffffffff8116825264010000000090046001600160e01b0316918101919091529392505050565b60c9546001600160a01b031633146113ab5760405162461bcd60e51b815260040161086d906131fa565b6001600160a01b0381166114105760405162461bcd60e51b815260206004820152602660248201527f4f776e61626c653a206e6577206f776e657220697320746865207a65726f206160448201526564647265737360d01b606482015260840161086d565b61096581611d03565b600054610100900460ff166114345760005460ff1615611438565b303b155b61149b5760405162461bcd60e51b815260206004820152602e60248201527f496e697469616c697a61626c653a20636f6e747261637420697320616c72656160448201526d191e481a5b9a5d1a585b1a5e995960921b606482015260840161086d565b600054610100900460ff161580156114bd576000805461ffff19166101011790555b61150a6040518060400160405280600d81526020016c5374656572205265776172647360981b815250604051806040016040528060068152602001652c29aa22a2a960d11b815250611e6f565b611512611ea8565b61151a611edf565b611522611f16565b6115506040518060400160405280600d81526020016c5374656572205265776172647360981b815250611f4d565b611558611ea8565b611560611ea8565b61157f336115706012600a6133b5565b61157a90856133c4565b611c0b565b8015610a80576000805461ff00191690555050565b6001600160a01b0383166115f65760405162461bcd60e51b8152602060048201526024808201527f45524332303a20617070726f76652066726f6d20746865207a65726f206164646044820152637265737360e01b606482015260840161086d565b6001600160a01b0382166116575760405162461bcd60e51b815260206004820152602260248201527f45524332303a20617070726f766520746f20746865207a65726f206164647265604482015261737360f01b606482015260840161086d565b6001600160a01b0383811660008181526034602090815260408083209487168084529482529182902085905590518481527f8c5be1e5ebec7d5bd14f71427d1e84f3dd0314c0f7b2291e5b200ac8c7c3b925910160405180910390a3505050565b6001600160a01b03831661171c5760405162461bcd60e51b815260206004820152602560248201527f45524332303a207472616e736665722066726f6d20746865207a65726f206164604482015264647265737360d81b606482015260840161086d565b6001600160a01b03821661177e5760405162461bcd60e51b815260206004820152602360248201527f45524332303a207472616e7366657220746f20746865207a65726f206164647260448201526265737360e81b606482015260840161086d565b611789838383611fa8565b6001600160a01b038316600090815260336020526040902054818110156118015760405162461bcd60e51b815260206004820152602660248201527f45524332303a207472616e7366657220616d6f756e7420657863656564732062604482015265616c616e636560d01b606482015260840161086d565b6001600160a01b038085166000908152603360205260408082208585039055918516815290812080548492906118389084906131e2565b92505081905550826001600160a01b0316846001600160a01b03167fddf252ad1be2c89b69c2b068fc378daa952ba7f163c4a11628f55a4df523b3ef8460405161188491815260200190565b60405180910390a3611897848484611fee565b50505050565b600061089a7f8b73c3c69bb8fe3d512ecc4cf759cc79239f7b179b0ffacaa9a75d522b39400f6118cc60fb5490565b60fc546040805160208101859052908101839052606081018290524660808201523060a082015260009060c0016040516020818303038152906040528051906020012090509392505050565b7f360894a13ba1a3210667c828492db98dca3e2076cc3735a920a3ca505d382bbc546001600160a01b031690565b60c9546001600160a01b031633146109655760405162461bcd60e51b815260040161086d906131fa565b600061197a611918565b905061198584611ff9565b6000835111806119925750815b156119a3576119a1848461209e565b505b7f4910fdfa16fed3260ed0e7147f7cc6da11a60208b5b9406d12a635614ffd9143805460ff16611ab457805460ff191660011781556040516001600160a01b0383166024820152611a2290869060440160408051601f198184030181529190526020810180516001600160e01b0316631b2ce7f360e11b17905261209e565b50805460ff19168155611a33611918565b6001600160a01b0316826001600160a01b031614611aab5760405162461bcd60e51b815260206004820152602f60248201527f45524331393637557067726164653a207570677261646520627265616b73206660448201526e75727468657220757067726164657360881b606482015260840161086d565b611ab485612189565b5050505050565b8154600090815b81811015611b1f576000611ad682846121c9565b905084868281548110611aeb57611aeb6132bb565b60009182526020909120015463ffffffff161115611b0b57809250611b19565b611b168160016131e2565b91505b50611ac2565b8115611b635784611b316001846132a4565b81548110611b4157611b416132bb565b60009182526020909120015464010000000090046001600160e01b0316611b66565b60005b6001600160e01b031695945050505050565b60975460ff16611bc15760405162461bcd60e51b815260206004820152601460248201527314185d5cd8589b194e881b9bdd081c185d5cd95960621b604482015260640161086d565b6097805460ff191690557f5db9ee0a495bf2e6ff9c91a7834c1ba4fdd244a5e8aa4e537bd38aeae4b073aa335b6040516001600160a01b03909116815260200160405180910390a1565b610a8082826121e4565b610a80828261226f565b6001600160a01b0382811660008181526101626020818152604080842080546033845282862054949093528787166001600160a01b03198416811790915590519190951694919391928592917f3134e8a2e6d97e929a7e54011ea5485d7d196dd5f0ba4d4ef95803e8e3fc257f9190a4611897828483612288565b600063ffffffff821115611cff5760405162461bcd60e51b815260206004820152602660248201527f53616665436173743a2076616c756520646f65736e27742066697420696e203360448201526532206269747360d01b606482015260840161086d565b5090565b60c980546001600160a01b038381166001600160a01b0319831681179093556040519116919082907f8be0079c531659141344cd1fd0a4f28419497f9722a3daafe3b4186f6b6457e090600090a35050565b60975460ff1615611d9b5760405162461bcd60e51b815260206004820152601060248201526f14185d5cd8589b194e881c185d5cd95960821b604482015260640161086d565b6097805460ff191660011790557f62e78cea01bee320cd4e420270b5ea74000d11b0c9f74754ebdbfc544b05a258611bee3390565b60006107d9611ddd61189d565b8360405161190160f01b6020820152602281018390526042810182905260009060620160405160208183030381529060405280519060200120905092915050565b6000806000611e2f878787876123c7565b91509150611e3c816124b4565b5095945050505050565b6001600160a01b038116600090815261012f602052604090208054600181018255905b50919050565b600054610100900460ff16611e965760405162461bcd60e51b815260040161086d906133e3565b611e9e61266f565b610a808282612696565b600054610100900460ff16611ecf5760405162461bcd60e51b815260040161086d906133e3565b611ed761266f565b610a4a61266f565b600054610100900460ff16611f065760405162461bcd60e51b815260040161086d906133e3565b611f0e61266f565b610a4a6126e4565b600054610100900460ff16611f3d5760405162461bcd60e51b815260040161086d906133e3565b611f4561266f565b610a4a612717565b600054610100900460ff16611f745760405162461bcd60e51b815260040161086d906133e3565b611f7c61266f565b611f9f81604051806040016040528060018152602001603160f81b815250612747565b61096581612788565b60975460ff1615610e2b5760405162461bcd60e51b815260206004820152601060248201526f14185d5cd8589b194e881c185d5cd95960821b604482015260640161086d565b610e2b8383836127d7565b803b61205d5760405162461bcd60e51b815260206004820152602d60248201527f455243313936373a206e657720696d706c656d656e746174696f6e206973206e60448201526c1bdd08184818dbdb9d1c9858dd609a1b606482015260840161086d565b7f360894a13ba1a3210667c828492db98dca3e2076cc3735a920a3ca505d382bbc80546001600160a01b0319166001600160a01b0392909216919091179055565b6060823b6120fd5760405162461bcd60e51b815260206004820152602660248201527f416464726573733a2064656c65676174652063616c6c20746f206e6f6e2d636f6044820152651b9d1c9858dd60d21b606482015260840161086d565b600080846001600160a01b031684604051612118919061342e565b600060405180830381855af49150503d8060008114612153576040519150601f19603f3d011682016040523d82523d6000602084013e612158565b606091505b509150915061218082826040518060600160405280602781526020016134836027913961280a565b95945050505050565b61219281611ff9565b6040516001600160a01b038216907fbc7cd75a20ee27fd9adebab32041f755214dbc6bffa90cc0225b39da2e5c2d3b90600090a250565b60006121d8600284841861344a565b610889908484166131e2565b6121ee8282612843565b6035546001600160e01b0310156122605760405162461bcd60e51b815260206004820152603060248201527f4552433230566f7465733a20746f74616c20737570706c79207269736b73206f60448201526f766572666c6f77696e6720766f74657360801b606482015260840161086d565b61189761016461293683612942565b6122798282612abb565b611897610164612c1c83612942565b816001600160a01b0316836001600160a01b0316141580156122aa5750600081115b15610e2b576001600160a01b03831615612339576001600160a01b03831660009081526101636020526040812081906122e690612c1c85612942565b91509150846001600160a01b03167fdec2bacdd2f05b59de34da9b523dff8be42e5e38e818c82fdb0bae774387a724838360405161232e929190918252602082015260400190565b60405180910390a250505b6001600160a01b03821615610e2b576001600160a01b03821660009081526101636020526040812081906123709061293685612942565b91509150836001600160a01b03167fdec2bacdd2f05b59de34da9b523dff8be42e5e38e818c82fdb0bae774387a72483836040516123b8929190918252602082015260400190565b60405180910390a25050505050565b6000807f7fffffffffffffffffffffffffffffff5d576e7357a4501ddfe92f46681b20a08311156123fe57506000905060036124ab565b8460ff16601b1415801561241657508460ff16601c14155b1561242757506000905060046124ab565b6040805160008082526020820180845289905260ff881692820192909252606081018690526080810185905260019060a0016020604051602081039080840390855afa15801561247b573d6000803e3d6000fd5b5050604051601f1901519150506001600160a01b0381166124a4576000600192509250506124ab565b9150600090505b94509492505050565b60008160048111156124c8576124c861346c565b14156124d15750565b60018160048111156124e5576124e561346c565b14156125335760405162461bcd60e51b815260206004820152601860248201527f45434453413a20696e76616c6964207369676e61747572650000000000000000604482015260640161086d565b60028160048111156125475761254761346c565b14156125955760405162461bcd60e51b815260206004820152601f60248201527f45434453413a20696e76616c6964207369676e6174757265206c656e67746800604482015260640161086d565b60038160048111156125a9576125a961346c565b14156126025760405162461bcd60e51b815260206004820152602260248201527f45434453413a20696e76616c6964207369676e6174757265202773272076616c604482015261756560f01b606482015260840161086d565b60048160048111156126165761261661346c565b14156109655760405162461bcd60e51b815260206004820152602260248201527f45434453413a20696e76616c6964207369676e6174757265202776272076616c604482015261756560f01b606482015260840161086d565b600054610100900460ff16610a4a5760405162461bcd60e51b815260040161086d906133e3565b600054610100900460ff166126bd5760405162461bcd60e51b815260040161086d906133e3565b81516126d0906036906020850190612c91565b508051610e2b906037906020840190612c91565b600054610100900460ff1661270b5760405162461bcd60e51b815260040161086d906133e3565b6097805460ff19169055565b600054610100900460ff1661273e5760405162461bcd60e51b815260040161086d906133e3565b610a4a33611d03565b600054610100900460ff1661276e5760405162461bcd60e51b815260040161086d906133e3565b81516020928301208151919092012060fb9190915560fc55565b600054610100900460ff166127af5760405162461bcd60e51b815260040161086d906133e3565b507f6e71edae12b1b97f4d1f60370fef10105fa2faae0126114a169c64845d6126c961013055565b6001600160a01b0383811660009081526101626020526040808220548584168352912054610e2b92918216911683612288565b60608315612819575081610889565b8251156128295782518084602001fd5b8160405162461bcd60e51b815260040161086d9190612d4d565b6001600160a01b0382166128995760405162461bcd60e51b815260206004820152601f60248201527f45524332303a206d696e7420746f20746865207a65726f206164647265737300604482015260640161086d565b6128a560008383611fa8565b80603560008282546128b791906131e2565b90915550506001600160a01b038216600090815260336020526040812080548392906128e49084906131e2565b90915550506040518181526001600160a01b038316906000907fddf252ad1be2c89b69c2b068fc378daa952ba7f163c4a11628f55a4df523b3ef9060200160405180910390a3610a8060008383611fee565b600061088982846131e2565b82546000908190801561298d578561295b6001836132a4565b8154811061296b5761296b6132bb565b60009182526020909120015464010000000090046001600160e01b0316612990565b60005b6001600160e01b031692506129a983858763ffffffff16565b91506000811180156129e7575043866129c36001846132a4565b815481106129d3576129d36132bb565b60009182526020909120015463ffffffff16145b15612a47576129f582612c28565b86612a016001846132a4565b81548110612a1157612a116132bb565b9060005260206000200160000160046101000a8154816001600160e01b0302191690836001600160e01b03160217905550612ab2565b856040518060400160405280612a5c43611c9a565b63ffffffff168152602001612a7085612c28565b6001600160e01b0390811690915282546001810184556000938452602093849020835194909301519091166401000000000263ffffffff909316929092179101555b50935093915050565b6001600160a01b038216612b1b5760405162461bcd60e51b815260206004820152602160248201527f45524332303a206275726e2066726f6d20746865207a65726f206164647265736044820152607360f81b606482015260840161086d565b612b2782600083611fa8565b6001600160a01b03821660009081526033602052604090205481811015612b9b5760405162461bcd60e51b815260206004820152602260248201527f45524332303a206275726e20616d6f756e7420657863656564732062616c616e604482015261636560f01b606482015260840161086d565b6001600160a01b0383166000908152603360205260408120838303905560358054849290612bca9084906132a4565b90915550506040518281526000906001600160a01b038516907fddf252ad1be2c89b69c2b068fc378daa952ba7f163c4a11628f55a4df523b3ef9060200160405180910390a3610e2b83600084611fee565b600061088982846132a4565b60006001600160e01b03821115611cff5760405162461bcd60e51b815260206004820152602760248201527f53616665436173743a2076616c756520646f65736e27742066697420696e20326044820152663234206269747360c81b606482015260840161086d565b828054612c9d906130ff565b90600052602060002090601f016020900481019282612cbf5760008555612d05565b82601f10612cd857805160ff1916838001178555612d05565b82800160010185558215612d05579182015b82811115612d05578251825591602001919060010190612cea565b50611cff9291505b80821115611cff5760008155600101612d0d565b60005b83811015612d3c578181015183820152602001612d24565b838111156118975750506000910152565b6020815260008251806020840152612d6c816040850160208701612d21565b601f01601f19169190910160400192915050565b6001600160a01b038116811461096557600080fd5b60008060408385031215612da857600080fd5b8235612db381612d80565b946020939093013593505050565b600080600060608486031215612dd657600080fd5b8335612de181612d80565b92506020840135612df181612d80565b929592945050506040919091013590565b600060208284031215612e1457600080fd5b813561088981612d80565b600060208284031215612e3157600080fd5b5035919050565b634e487b7160e01b600052604160045260246000fd5b60008060408385031215612e6157600080fd5b8235612e6c81612d80565b9150602083013567ffffffffffffffff80821115612e8957600080fd5b818501915085601f830112612e9d57600080fd5b813581811115612eaf57612eaf612e38565b604051601f8201601f19908116603f01168101908382118183101715612ed757612ed7612e38565b81604052828152886020848701011115612ef057600080fd5b8260208601602083013760006020848301015280955050505050509250929050565b600080600080600060808688031215612f2a57600080fd5b8535612f3581612d80565b94506020860135612f4581612d80565b935060408601359250606086013567ffffffffffffffff80821115612f6957600080fd5b818801915088601f830112612f7d57600080fd5b813581811115612f8c57600080fd5b896020828501011115612f9e57600080fd5b9699959850939650602001949392505050565b803560ff81168114612fc257600080fd5b919050565b60008060008060008060c08789031215612fe057600080fd5b8635612feb81612d80565b9550602087013594506040870135935061300760608801612fb1565b92506080870135915060a087013590509295509295509295565b600080600080600080600060e0888a03121561303c57600080fd5b873561304781612d80565b9650602088013561305781612d80565b9550604088013594506060880135935061307360808901612fb1565b925060a0880135915060c0880135905092959891949750929550565b600080604083850312156130a257600080fd5b82356130ad81612d80565b915060208301356130bd81612d80565b809150509250929050565b600080604083850312156130db57600080fd5b82356130e681612d80565b9150602083013563ffffffff811681146130bd57600080fd5b600181811c9082168061311357607f821691505b60208210811415611e6957634e487b7160e01b600052602260045260246000fd5b6020808252602c908201527f46756e6374696f6e206d7573742062652063616c6c6564207468726f7567682060408201526b19195b1959d85d1958d85b1b60a21b606082015260800190565b6020808252602c908201527f46756e6374696f6e206d7573742062652063616c6c6564207468726f7567682060408201526b6163746976652070726f787960a01b606082015260800190565b634e487b7160e01b600052601160045260246000fd5b600082198211156131f5576131f56131cc565b500190565b6020808252818101527f4f776e61626c653a2063616c6c6572206973206e6f7420746865206f776e6572604082015260600190565b6001600160a01b03878116825286166020820152604081018590526060810184905260a06080820181905281018290526000828460c0840137600060c0848401015260c0601f19601f8501168301019050979650505050505050565b60006020828403121561329d57600080fd5b5051919050565b6000828210156132b6576132b66131cc565b500390565b634e487b7160e01b600052603260045260246000fd5b600181815b8085111561330c5781600019048211156132f2576132f26131cc565b808516156132ff57918102915b93841c93908002906132d6565b509250929050565b600082613323575060016107d9565b81613330575060006107d9565b816001811461334657600281146133505761336c565b60019150506107d9565b60ff841115613361576133616131cc565b50506001821b6107d9565b5060208310610133831016604e8410600b841016171561338f575081810a6107d9565b61339983836132d1565b80600019048211156133ad576133ad6131cc565b029392505050565b600061088960ff841683613314565b60008160001904831182151516156133de576133de6131cc565b500290565b6020808252602b908201527f496e697469616c697a61626c653a20636f6e7472616374206973206e6f74206960408201526a6e697469616c697a696e6760a81b606082015260800190565b60008251613440818460208701612d21565b9190910192915050565b60008261346757634e487b7160e01b600052601260045260246000fd5b500490565b634e487b7160e01b600052602160045260246000fdfe416464726573733a206c6f772d6c6576656c2064656c65676174652063616c6c206661696c6564a26469706673582212201cdc92482b7d2bcebbf040ae202288d1c221358d5d5db91fba7cf744e51e508c64736f6c634300080b0033",
  "linkReferences": {},
  "deployedLinkReferences": {}
}