{
  "_format": "hh-sol-artifact-1",
  "contractName": "SteerPeriphery",
  "sourceName": "contracts/SteerPeriphery.sol",
  "abi": [
    {
      "anonymous": false,
      "inputs": [
        {
          "indexed": false,
          "internalType": "address",
          "name": "previousAdmin",
          "type": "address"
        },
        {
          "indexed": false,
          "internalType": "address",
          "name": "newAdmin",
          "type": "address"
        }
      ],
      "name": "AdminChanged",
      "type": "event"
    },
    {
      "anonymous": false,
      "inputs": [
        {
          "indexed": true,
          "internalType": "address",
          "name": "beacon",
          "type": "address"
        }
      ],
      "name": "BeaconUpgraded",
      "type": "event"
    },
    {
      "anonymous": false,
      "inputs": [
        {
          "indexed": true,
          "internalType": "address",
          "name": "previousOwner",
          "type": "address"
        },
        {
          "indexed": true,
          "internalType": "address",
          "name": "newOwner",
          "type": "address"
        }
      ],
      "name": "OwnershipTransferred",
      "type": "event"
    },
    {
      "anonymous": false,
      "inputs": [
        {
          "indexed": true,
          "internalType": "address",
          "name": "implementation",
          "type": "address"
        }
      ],
      "name": "Upgraded",
      "type": "event"
    },
    {
      "inputs": [
        {
          "internalType": "address",
          "name": "_vaultAddress",
          "type": "address"
        },
        {
          "internalType": "uint256",
          "name": "amount0Desired",
          "type": "uint256"
        },
        {
          "internalType": "uint256",
          "name": "amount1Desired",
          "type": "uint256"
        },
        {
          "internalType": "uint256",
          "name": "amount0Min",
          "type": "uint256"
        },
        {
          "internalType": "uint256",
          "name": "amount1Min",
          "type": "uint256"
        },
        {
          "internalType": "address",
          "name": "to",
          "type": "address"
        }
      ],
      "name": "deposit",
      "outputs": [],
      "stateMutability": "nonpayable",
      "type": "function"
    },
    {
      "inputs": [
        {
          "internalType": "address",
          "name": "_strategyRegistry",
          "type": "address"
        },
        {
          "internalType": "address",
          "name": "_vaultRegistry",
          "type": "address"
        }
      ],
      "name": "initialize",
      "outputs": [],
      "stateMutability": "nonpayable",
      "type": "function"
    },
    {
      "inputs": [],
      "name": "owner",
      "outputs": [
        {
          "internalType": "address",
          "name": "",
          "type": "address"
        }
      ],
      "stateMutability": "view",
      "type": "function"
    },
    {
      "inputs": [],
      "name": "renounceOwnership",
      "outputs": [],
      "stateMutability": "nonpayable",
      "type": "function"
    },
    {
      "inputs": [
        {
          "internalType": "address",
          "name": "_address",
          "type": "address"
        }
      ],
      "name": "strategiesByCreator",
      "outputs": [
        {
          "components": [
            {
              "internalType": "uint256",
              "name": "id",
              "type": "uint256"
            },
            {
              "internalType": "string",
              "name": "name",
              "type": "string"
            },
            {
              "internalType": "address",
              "name": "owner",
              "type": "address"
            },
            {
              "internalType": "string",
              "name": "execBundle",
              "type": "string"
            },
            {
              "internalType": "uint128",
              "name": "maxGasCost",
              "type": "uint128"
            },
            {
              "internalType": "uint128",
              "name": "maxGasPerAction",
              "type": "uint128"
            },
            {
              "internalType": "string",
              "name": "strategyDecodingInfo",
              "type": "string"
            }
          ],
          "internalType": "struct IStrategyRegistry.RegisteredStrategy[]",
          "name": "",
          "type": "tuple[]"
        }
      ],
      "stateMutability": "view",
      "type": "function"
    },
    {
      "inputs": [
        {
          "internalType": "address",
          "name": "newOwner",
          "type": "address"
        }
      ],
      "name": "transferOwnership",
      "outputs": [],
      "stateMutability": "nonpayable",
      "type": "function"
    },
    {
      "inputs": [
        {
          "internalType": "address",
          "name": "newImplementation",
          "type": "address"
        }
      ],
      "name": "upgradeTo",
      "outputs": [],
      "stateMutability": "nonpayable",
      "type": "function"
    },
    {
      "inputs": [
        {
          "internalType": "address",
          "name": "newImplementation",
          "type": "address"
        },
        {
          "internalType": "bytes",
          "name": "data",
          "type": "bytes"
        }
      ],
      "name": "upgradeToAndCall",
      "outputs": [],
      "stateMutability": "payable",
      "type": "function"
    },
    {
      "inputs": [
        {
          "internalType": "address",
          "name": "_vault",
          "type": "address"
        },
        {
          "internalType": "bool",
          "name": "_includeFees",
          "type": "bool"
        }
      ],
      "name": "vaultBalancesByAddress",
      "outputs": [
        {
          "components": [
            {
              "internalType": "uint256",
              "name": "amountToken0",
              "type": "uint256"
            },
            {
              "internalType": "uint256",
              "name": "amountToken1",
              "type": "uint256"
            }
          ],
          "internalType": "struct IUniLiquidityManager.VaultBalance",
          "name": "balances",
          "type": "tuple"
        }
      ],
      "stateMutability": "nonpayable",
      "type": "function"
    },
    {
      "inputs": [
        {
          "internalType": "address",
          "name": "_vault",
          "type": "address"
        }
      ],
      "name": "vaultDetailsByAddress",
      "outputs": [
        {
          "components": [
            {
              "internalType": "address",
              "name": "token0",
              "type": "address"
            },
            {
              "internalType": "address",
              "name": "token1",
              "type": "address"
            },
            {
              "internalType": "string",
              "name": "name",
              "type": "string"
            },
            {
              "internalType": "string",
              "name": "symbol",
              "type": "string"
            },
            {
              "internalType": "uint256",
              "name": "decimals",
              "type": "uint256"
            },
            {
              "internalType": "string",
              "name": "token0Name",
              "type": "string"
            },
            {
              "internalType": "string",
              "name": "token1Name",
              "type": "string"
            },
            {
              "internalType": "string",
              "name": "token0Symbol",
              "type": "string"
            },
            {
              "internalType": "string",
              "name": "token1Symbol",
              "type": "string"
            },
            {
              "internalType": "uint256",
              "name": "token0Decimals",
              "type": "uint256"
            },
            {
              "internalType": "uint256",
              "name": "token1Decimals",
              "type": "uint256"
            },
            {
              "internalType": "uint256",
              "name": "feeTier",
              "type": "uint256"
            },
            {
              "internalType": "uint256",
              "name": "totalLPTokensIssued",
              "type": "uint256"
            }
          ],
          "internalType": "struct IUniLiquidityManager.VaultDetails",
          "name": "details",
          "type": "tuple"
        }
      ],
      "stateMutability": "view",
      "type": "function"
    },
    {
      "inputs": [
        {
          "internalType": "uint256",
          "name": "_strategyId",
          "type": "uint256"
        }
      ],
      "name": "vaultsByStrategy",
      "outputs": [
        {
          "components": [
            {
              "internalType": "enum IVaultRegistry.VaultState",
              "name": "state",
              "type": "uint8"
            },
            {
              "internalType": "uint256",
              "name": "tokenID",
              "type": "uint256"
            },
            {
              "internalType": "uint256",
              "name": "vaultID",
              "type": "uint256"
            },
            {
              "internalType": "bytes",
              "name": "strategyInfo",
              "type": "bytes"
            },
            {
              "internalType": "address",
              "name": "vaultAddress",
              "type": "address"
            }
          ],
          "internalType": "struct IVaultRegistry.VaultData[]",
          "name": "",
          "type": "tuple[]"
        }
      ],
      "stateMutability": "view",
      "type": "function"
    }
  ],
  "bytecode": "0x60a06040523060805234801561001457600080fd5b5060805161279c610045600039600081816102490152818161029201528181610cc20152610d02015261279c6000f3fe60806040526004361061009c5760003560e01c8063715018a611610064578063715018a61461014c5780637baa67c0146101615780638da5cb5b1461018e578063d297b5a3146101b6578063da9807de146101f1578063f2fde38b1461021e57600080fd5b80633659cfe6146100a1578063485cc955146100c35780634d593245146100e35780634f1ef286146101195780636505e65e1461012c575b600080fd5b3480156100ad57600080fd5b506100c16100bc366004611cb4565b61023e565b005b3480156100cf57600080fd5b506100c16100de366004611cd1565b610310565b3480156100ef57600080fd5b506101036100fe366004611cb4565b61040b565b6040516101109190611d66565b60405180910390f35b6100c1610127366004611f51565b610cb7565b34801561013857600080fd5b506100c1610147366004611fe4565b610d71565b34801561015857600080fd5b506100c1611293565b34801561016d57600080fd5b5061018161017c366004611cb4565b6112c9565b6040516101109190612042565b34801561019a57600080fd5b506033546040516001600160a01b039091168152602001610110565b3480156101c257600080fd5b506101d66101d1366004612142565b6114fa565b60408051825181526020928301519281019290925201610110565b3480156101fd57600080fd5b5061021161020c366004612170565b61159a565b6040516101109190612189565b34801561022a57600080fd5b506100c1610239366004611cb4565b61173d565b306001600160a01b037f00000000000000000000000000000000000000000000000000000000000000001614156102905760405162461bcd60e51b815260040161028790612247565b60405180910390fd5b7f00000000000000000000000000000000000000000000000000000000000000006001600160a01b03166102c26117d5565b6001600160a01b0316146102e85760405162461bcd60e51b815260040161028790612293565b6102f181611803565b6040805160008082526020820190925261030d9183919061182d565b50565b600054610100900460ff1661032b5760005460ff161561032f565b303b155b6103925760405162461bcd60e51b815260206004820152602e60248201527f496e697469616c697a61626c653a20636f6e747261637420697320616c72656160448201526d191e481a5b9a5d1a585b1a5e995960921b6064820152608401610287565b600054610100900460ff161580156103b4576000805461ffff19166101011790555b6103bc611978565b6103c46119af565b60c980546001600160a01b038086166001600160a01b03199283161790925560ca8054928516929091169190911790558015610406576000805461ff00191690555b505050565b610488604051806101a0016040528060006001600160a01b0316815260200160006001600160a01b0316815260200160608152602001606081526020016000815260200160608152602001606081526020016060815260200160608152602001600081526020016000815260200160008152602001600081525090565b6000829050604051806101a00160405280826001600160a01b0316630dfe16816040518163ffffffff1660e01b8152600401602060405180830381865afa1580156104d7573d6000803e3d6000fd5b505050506040513d601f19601f820116820180604052508101906104fb91906122ef565b6001600160a01b03168152602001826001600160a01b031663d21220a76040518163ffffffff1660e01b8152600401602060405180830381865afa158015610547573d6000803e3d6000fd5b505050506040513d601f19601f8201168201806040525081019061056b91906122ef565b6001600160a01b03168152602001846001600160a01b03166306fdde036040518163ffffffff1660e01b8152600401600060405180830381865afa1580156105b7573d6000803e3d6000fd5b505050506040513d6000823e601f3d908101601f191682016040526105df919081019061235c565b8152602001846001600160a01b03166395d89b416040518163ffffffff1660e01b8152600401600060405180830381865afa158015610622573d6000803e3d6000fd5b505050506040513d6000823e601f3d908101601f1916820160405261064a919081019061235c565b8152602001846001600160a01b031663313ce5676040518163ffffffff1660e01b8152600401602060405180830381865afa15801561068d573d6000803e3d6000fd5b505050506040513d601f19601f820116820180604052508101906106b19190612399565b60ff168152602001826001600160a01b0316630dfe16816040518163ffffffff1660e01b8152600401602060405180830381865afa1580156106f7573d6000803e3d6000fd5b505050506040513d601f19601f8201168201806040525081019061071b91906122ef565b6001600160a01b03166306fdde036040518163ffffffff1660e01b8152600401600060405180830381865afa158015610758573d6000803e3d6000fd5b505050506040513d6000823e601f3d908101601f19168201604052610780919081019061235c565b8152602001826001600160a01b031663d21220a76040518163ffffffff1660e01b8152600401602060405180830381865afa1580156107c3573d6000803e3d6000fd5b505050506040513d601f19601f820116820180604052508101906107e791906122ef565b6001600160a01b03166306fdde036040518163ffffffff1660e01b8152600401600060405180830381865afa158015610824573d6000803e3d6000fd5b505050506040513d6000823e601f3d908101601f1916820160405261084c919081019061235c565b8152602001826001600160a01b0316630dfe16816040518163ffffffff1660e01b8152600401602060405180830381865afa15801561088f573d6000803e3d6000fd5b505050506040513d601f19601f820116820180604052508101906108b391906122ef565b6001600160a01b03166395d89b416040518163ffffffff1660e01b8152600401600060405180830381865afa1580156108f0573d6000803e3d6000fd5b505050506040513d6000823e601f3d908101601f19168201604052610918919081019061235c565b8152602001826001600160a01b031663d21220a76040518163ffffffff1660e01b8152600401602060405180830381865afa15801561095b573d6000803e3d6000fd5b505050506040513d601f19601f8201168201806040525081019061097f91906122ef565b6001600160a01b03166395d89b416040518163ffffffff1660e01b8152600401600060405180830381865afa1580156109bc573d6000803e3d6000fd5b505050506040513d6000823e601f3d908101601f191682016040526109e4919081019061235c565b8152602001826001600160a01b0316630dfe16816040518163ffffffff1660e01b8152600401602060405180830381865afa158015610a27573d6000803e3d6000fd5b505050506040513d601f19601f82011682018060405250810190610a4b91906122ef565b6001600160a01b031663313ce5676040518163ffffffff1660e01b8152600401602060405180830381865afa158015610a88573d6000803e3d6000fd5b505050506040513d601f19601f82011682018060405250810190610aac9190612399565b60ff168152602001826001600160a01b031663d21220a76040518163ffffffff1660e01b8152600401602060405180830381865afa158015610af2573d6000803e3d6000fd5b505050506040513d601f19601f82011682018060405250810190610b1691906122ef565b6001600160a01b031663313ce5676040518163ffffffff1660e01b8152600401602060405180830381865afa158015610b53573d6000803e3d6000fd5b505050506040513d601f19601f82011682018060405250810190610b779190612399565b60ff168152602001826001600160a01b03166316f0115b6040518163ffffffff1660e01b8152600401602060405180830381865afa158015610bbd573d6000803e3d6000fd5b505050506040513d601f19601f82011682018060405250810190610be191906122ef565b6001600160a01b031663ddca3f436040518163ffffffff1660e01b8152600401602060405180830381865afa158015610c1e573d6000803e3d6000fd5b505050506040513d601f19601f82011682018060405250810190610c4291906123bc565b62ffffff168152602001826001600160a01b03166318160ddd6040518163ffffffff1660e01b8152600401602060405180830381865afa158015610c8a573d6000803e3d6000fd5b505050506040513d601f19601f82011682018060405250810190610cae91906123e1565b90529392505050565b306001600160a01b037f0000000000000000000000000000000000000000000000000000000000000000161415610d005760405162461bcd60e51b815260040161028790612247565b7f00000000000000000000000000000000000000000000000000000000000000006001600160a01b0316610d326117d5565b6001600160a01b031614610d585760405162461bcd60e51b815260040161028790612293565b610d6182611803565b610d6d8282600161182d565b5050565b60ca5460405163015a1d6760e31b81526001600160a01b0388811660048301526000921690630ad0eb3890602401602060405180830381865afa158015610dbc573d6000803e3d6000fd5b505050506040513d601f19601f82011682018060405250810190610de091906122ef565b6001600160a01b03161415610e2b5760405162461bcd60e51b815260206004820152601160248201527015985d5b1d081b9bdd081c1c995cd95b9d607a1b6044820152606401610287565b60008690506000816001600160a01b0316630dfe16816040518163ffffffff1660e01b8152600401602060405180830381865afa158015610e70573d6000803e3d6000fd5b505050506040513d601f19601f82011682018060405250810190610e9491906122ef565b90506000826001600160a01b031663d21220a76040518163ffffffff1660e01b8152600401602060405180830381865afa158015610ed6573d6000803e3d6000fd5b505050506040513d601f19601f82011682018060405250810190610efa91906122ef565b90508715610f7b576040516323b872dd60e01b8152336004820152306024820152604481018990526001600160a01b038316906323b872dd906064016020604051808303816000875af1158015610f55573d6000803e3d6000fd5b505050506040513d601f19601f82011682018060405250810190610f7991906123fa565b505b8615610ffa576040516323b872dd60e01b8152336004820152306024820152604481018890526001600160a01b038216906323b872dd906064016020604051808303816000875af1158015610fd4573d6000803e3d6000fd5b505050506040513d601f19601f82011682018060405250810190610ff891906123fa565b505b60405163095ea7b360e01b81526001600160a01b038a81166004830152602482018a905283169063095ea7b3906044016020604051808303816000875af1158015611049573d6000803e3d6000fd5b505050506040513d601f19601f8201168201806040525081019061106d91906123fa565b5060405163095ea7b360e01b81526001600160a01b038a811660048301526024820189905282169063095ea7b3906044016020604051808303816000875af11580156110bd573d6000803e3d6000fd5b505050506040513d601f19601f820116820180604052508101906110e191906123fa565b5060405163365d0ed760e01b8152600481018990526024810188905260448101879052606481018690526001600160a01b038581166084830152600091829186169063365d0ed79060a4016060604051808303816000875af115801561114b573d6000803e3d6000fd5b505050506040513d601f19601f8201168201806040525081019061116f9190612417565b92509250506000828b611182919061245b565b90506000611190838c61245b565b9050811561120b5760405163a9059cbb60e01b8152336004820152602481018390526001600160a01b0387169063a9059cbb906044016020604051808303816000875af11580156111e5573d6000803e3d6000fd5b505050506040513d601f19601f8201168201806040525081019061120991906123fa565b505b80156112845760405163a9059cbb60e01b8152336004820152602481018290526001600160a01b0386169063a9059cbb906044016020604051808303816000875af115801561125e573d6000803e3d6000fd5b505050506040513d601f19601f8201168201806040525081019061128291906123fa565b505b50505050505050505050505050565b6033546001600160a01b031633146112bd5760405162461bcd60e51b815260040161028790612472565b6112c760006119e6565b565b60c9546040516370a0823160e01b81526001600160a01b0383811660048301526060926000929116906370a0823190602401602060405180830381865afa158015611318573d6000803e3d6000fd5b505050506040513d601f19601f8201168201806040525081019061133c91906123e1565b905060008167ffffffffffffffff81111561135957611359611e96565b6040519080825280602002602001820160405280156113c257816020015b6040805160e08101825260008082526060602083018190529282018190528282018390526080820181905260a082015260c08101919091528152602001906001900390816113775790505b50905060005b828110156114f25760c954604051632f745c5960e01b81526001600160a01b038781166004830152602482018490526000921690632f745c5990604401602060405180830381865afa158015611422573d6000803e3d6000fd5b505050506040513d601f19601f8201168201806040525081019061144691906123e1565b60c95460405163f1eb1a2b60e01b8152600481018390529192506000916001600160a01b039091169063f1eb1a2b90602401600060405180830381865afa158015611495573d6000803e3d6000fd5b505050506040513d6000823e601f3d908101601f191682016040526114bd91908101906124be565b9050808484815181106114d2576114d26125b0565b6020026020010181905250505080806114ea906125c6565b9150506113c8565b509392505050565b60408051808201909152600080825260208201526040516347c570fd60e01b81528215156004820152839060009081906001600160a01b038416906347c570fd906024016040805180830381865afa15801561155a573d6000803e3d6000fd5b505050506040513d601f19601f8201168201806040525081019061157e91906125e1565b6040805180820190915291825260208201529695505050505050565b60ca5460405163733ff64160e11b8152600481018390526060916000916001600160a01b039091169063e67fec8290602401602060405180830381865afa1580156115e9573d6000803e3d6000fd5b505050506040513d601f19601f8201168201806040525081019061160d91906123e1565b905060008167ffffffffffffffff81111561162a5761162a611e96565b60405190808252806020026020018201604052801561168257816020015b6040805160a08101825260008082526020808301829052928201819052606080830152608082015282526000199092019101816116485790505b50905060005b828110156114f25760ca546040516312ec684f60e11b815260048101879052602481018390526000916001600160a01b0316906325d8d09e90604401600060405180830381865afa1580156116e1573d6000803e3d6000fd5b505050506040513d6000823e601f3d908101601f191682016040526117099190810190612605565b90508083838151811061171e5761171e6125b0565b6020026020010181905250508080611735906125c6565b915050611688565b6033546001600160a01b031633146117675760405162461bcd60e51b815260040161028790612472565b6001600160a01b0381166117cc5760405162461bcd60e51b815260206004820152602660248201527f4f776e61626c653a206e6577206f776e657220697320746865207a65726f206160448201526564647265737360d01b6064820152608401610287565b61030d816119e6565b7f360894a13ba1a3210667c828492db98dca3e2076cc3735a920a3ca505d382bbc546001600160a01b031690565b6033546001600160a01b0316331461030d5760405162461bcd60e51b815260040161028790612472565b60006118376117d5565b905061184284611a38565b60008351118061184f5750815b156118605761185e8484611add565b505b7f4910fdfa16fed3260ed0e7147f7cc6da11a60208b5b9406d12a635614ffd9143805460ff1661197157805460ff191660011781556040516001600160a01b03831660248201526118df90869060440160408051601f198184030181529190526020810180516001600160e01b0316631b2ce7f360e11b179052611add565b50805460ff191681556118f06117d5565b6001600160a01b0316826001600160a01b0316146119685760405162461bcd60e51b815260206004820152602f60248201527f45524331393637557067726164653a207570677261646520627265616b73206660448201526e75727468657220757067726164657360881b6064820152608401610287565b61197185611bc8565b5050505050565b600054610100900460ff1661199f5760405162461bcd60e51b8152600401610287906126c5565b6119a7611c08565b6112c7611c08565b600054610100900460ff166119d65760405162461bcd60e51b8152600401610287906126c5565b6119de611c08565b6112c7611c2f565b603380546001600160a01b038381166001600160a01b0319831681179093556040519116919082907f8be0079c531659141344cd1fd0a4f28419497f9722a3daafe3b4186f6b6457e090600090a35050565b803b611a9c5760405162461bcd60e51b815260206004820152602d60248201527f455243313936373a206e657720696d706c656d656e746174696f6e206973206e60448201526c1bdd08184818dbdb9d1c9858dd609a1b6064820152608401610287565b7f360894a13ba1a3210667c828492db98dca3e2076cc3735a920a3ca505d382bbc80546001600160a01b0319166001600160a01b0392909216919091179055565b6060823b611b3c5760405162461bcd60e51b815260206004820152602660248201527f416464726573733a2064656c65676174652063616c6c20746f206e6f6e2d636f6044820152651b9d1c9858dd60d21b6064820152608401610287565b600080846001600160a01b031684604051611b579190612710565b600060405180830381855af49150503d8060008114611b92576040519150601f19603f3d011682016040523d82523d6000602084013e611b97565b606091505b5091509150611bbf828260405180606001604052806027815260200161274060279139611c5f565b95945050505050565b611bd181611a38565b6040516001600160a01b038216907fbc7cd75a20ee27fd9adebab32041f755214dbc6bffa90cc0225b39da2e5c2d3b90600090a250565b600054610100900460ff166112c75760405162461bcd60e51b8152600401610287906126c5565b600054610100900460ff16611c565760405162461bcd60e51b8152600401610287906126c5565b6112c7336119e6565b60608315611c6e575081611c98565b825115611c7e5782518084602001fd5b8160405162461bcd60e51b8152600401610287919061272c565b9392505050565b6001600160a01b038116811461030d57600080fd5b600060208284031215611cc657600080fd5b8135611c9881611c9f565b60008060408385031215611ce457600080fd5b8235611cef81611c9f565b91506020830135611cff81611c9f565b809150509250929050565b60005b83811015611d25578181015183820152602001611d0d565b83811115611d34576000848401525b50505050565b60008151808452611d52816020860160208601611d0a565b601f01601f19169290920160200192915050565b60208152611d806020820183516001600160a01b03169052565b60006020830151611d9c60408401826001600160a01b03169052565b5060408301516101a0806060850152611db96101c0850183611d3a565b91506060850151601f1980868503016080870152611dd78483611d3a565b9350608087015160a087015260a08701519150808685030160c0870152611dfe8483611d3a565b935060c08701519150808685030160e0870152611e1b8483611d3a565b935060e08701519150610100818786030181880152611e3a8584611d3a565b945080880151925050610120818786030181880152611e598584611d3a565b9088015161014088810191909152880151610160808901919091528801516101808089019190915290970151929095019190915250929392505050565b634e487b7160e01b600052604160045260246000fd5b60405160e0810167ffffffffffffffff81118282101715611ecf57611ecf611e96565b60405290565b60405160a0810167ffffffffffffffff81118282101715611ecf57611ecf611e96565b604051601f8201601f1916810167ffffffffffffffff81118282101715611f2157611f21611e96565b604052919050565b600067ffffffffffffffff821115611f4357611f43611e96565b50601f01601f191660200190565b60008060408385031215611f6457600080fd5b8235611f6f81611c9f565b9150602083013567ffffffffffffffff811115611f8b57600080fd5b8301601f81018513611f9c57600080fd5b8035611faf611faa82611f29565b611ef8565b818152866020838501011115611fc457600080fd5b816020840160208301376000602083830101528093505050509250929050565b60008060008060008060c08789031215611ffd57600080fd5b863561200881611c9f565b95506020870135945060408701359350606087013592506080870135915060a087013561203481611c9f565b809150509295509295509295565b60006020808301818452808551808352604092508286019150828160051b87010184880160005b8381101561212657603f19898403018552815160e08151855288820151818a87015261209782870182611d3a565b838a01516001600160a01b0316878b0152606080850151888303828a015291935091506120c48382611d3a565b9250505060806001600160801b038184015116818701525060a0808301516120f6828801826001600160801b03169052565b505060c080830151925085820381870152506121128183611d3a565b968901969450505090860190600101612069565b509098975050505050505050565b801515811461030d57600080fd5b6000806040838503121561215557600080fd5b823561216081611c9f565b91506020830135611cff81612134565b60006020828403121561218257600080fd5b5035919050565b602080825282518282018190526000919060409081850190600581811b8701840188860187805b8581101561223757603f198b8503018752825160a081518781106121e257634e487b7160e01b85526021600452602485fd5b8652818b01518b870152898201518a87015260608083015181880183905261220c83890182611d3a565b6080948501516001600160a01b031698909401979097525050968901969350918801916001016121b0565b50919a9950505050505050505050565b6020808252602c908201527f46756e6374696f6e206d7573742062652063616c6c6564207468726f7567682060408201526b19195b1959d85d1958d85b1b60a21b606082015260800190565b6020808252602c908201527f46756e6374696f6e206d7573742062652063616c6c6564207468726f7567682060408201526b6163746976652070726f787960a01b606082015260800190565b80516122ea81611c9f565b919050565b60006020828403121561230157600080fd5b8151611c9881611c9f565b600061231a611faa84611f29565b905082815283838301111561232e57600080fd5b611c98836020830184611d0a565b600082601f83011261234d57600080fd5b611c988383516020850161230c565b60006020828403121561236e57600080fd5b815167ffffffffffffffff81111561238557600080fd5b6123918482850161233c565b949350505050565b6000602082840312156123ab57600080fd5b815160ff81168114611c9857600080fd5b6000602082840312156123ce57600080fd5b815162ffffff81168114611c9857600080fd5b6000602082840312156123f357600080fd5b5051919050565b60006020828403121561240c57600080fd5b8151611c9881612134565b60008060006060848603121561242c57600080fd5b8351925060208401519150604084015190509250925092565b634e487b7160e01b600052601160045260246000fd5b60008282101561246d5761246d612445565b500390565b6020808252818101527f4f776e61626c653a2063616c6c6572206973206e6f7420746865206f776e6572604082015260600190565b80516001600160801b03811681146122ea57600080fd5b6000602082840312156124d057600080fd5b815167ffffffffffffffff808211156124e857600080fd5b9083019060e082860312156124fc57600080fd5b612504611eac565b8251815260208301518281111561251a57600080fd5b6125268782860161233c565b602083015250612538604084016122df565b604082015260608301518281111561254f57600080fd5b61255b8782860161233c565b60608301525061256d608084016124a7565b608082015261257e60a084016124a7565b60a082015260c08301518281111561259557600080fd5b6125a18782860161233c565b60c08301525095945050505050565b634e487b7160e01b600052603260045260246000fd5b60006000198214156125da576125da612445565b5060010190565b600080604083850312156125f457600080fd5b505080516020909101519092909150565b60006020828403121561261757600080fd5b815167ffffffffffffffff8082111561262f57600080fd5b9083019060a0828603121561264357600080fd5b61264b611ed5565b82516005811061265a57600080fd5b80825250602083015160208201526040830151604082015260608301518281111561268457600080fd5b83019150601f8201861361269757600080fd5b6126a68683516020850161230c565b60608201526126b7608084016122df565b608082015295945050505050565b6020808252602b908201527f496e697469616c697a61626c653a20636f6e7472616374206973206e6f74206960408201526a6e697469616c697a696e6760a81b606082015260800190565b60008251612722818460208701611d0a565b9190910192915050565b602081526000611c986020830184611d3a56fe416464726573733a206c6f772d6c6576656c2064656c65676174652063616c6c206661696c6564a26469706673582212203dce68446982297c0ebffab715071ee42a200609b6f6e9bb4fd0220333b1914264736f6c634300080b0033",
  "linkReferences": {},
  "deployedLinkReferences": {}
}