{
  "_format": "hh-sol-artifact-1",
  "contractName": "VaultRegistry",
  "sourceName": "contracts/VaultRegistry.sol",
  "abi": [
    {
      "anonymous": false,
      "inputs": [
        {
          "indexed": false,
          "internalType": "address",
          "name": "previousAdmin",
          "type": "address"
        },
        {
          "indexed": false,
          "internalType": "address",
          "name": "newAdmin",
          "type": "address"
        }
      ],
      "name": "AdminChanged",
      "type": "event"
    },
    {
      "anonymous": false,
      "inputs": [
        {
          "indexed": true,
          "internalType": "address",
          "name": "beacon",
          "type": "address"
        }
      ],
      "name": "BeaconUpgraded",
      "type": "event"
    },
    {
      "anonymous": false,
      "inputs": [
        {
          "indexed": true,
          "internalType": "address",
          "name": "previousOwner",
          "type": "address"
        },
        {
          "indexed": true,
          "internalType": "address",
          "name": "newOwner",
          "type": "address"
        }
      ],
      "name": "OwnershipTransferred",
      "type": "event"
    },
    {
      "anonymous": false,
      "inputs": [
        {
          "indexed": false,
          "internalType": "address",
          "name": "account",
          "type": "address"
        }
      ],
      "name": "Paused",
      "type": "event"
    },
    {
      "anonymous": false,
      "inputs": [
        {
          "indexed": true,
          "internalType": "bytes32",
          "name": "role",
          "type": "bytes32"
        },
        {
          "indexed": true,
          "internalType": "bytes32",
          "name": "previousAdminRole",
          "type": "bytes32"
        },
        {
          "indexed": true,
          "internalType": "bytes32",
          "name": "newAdminRole",
          "type": "bytes32"
        }
      ],
      "name": "RoleAdminChanged",
      "type": "event"
    },
    {
      "anonymous": false,
      "inputs": [
        {
          "indexed": true,
          "internalType": "bytes32",
          "name": "role",
          "type": "bytes32"
        },
        {
          "indexed": true,
          "internalType": "address",
          "name": "account",
          "type": "address"
        },
        {
          "indexed": true,
          "internalType": "address",
          "name": "sender",
          "type": "address"
        }
      ],
      "name": "RoleGranted",
      "type": "event"
    },
    {
      "anonymous": false,
      "inputs": [
        {
          "indexed": true,
          "internalType": "bytes32",
          "name": "role",
          "type": "bytes32"
        },
        {
          "indexed": true,
          "internalType": "address",
          "name": "account",
          "type": "address"
        },
        {
          "indexed": true,
          "internalType": "address",
          "name": "sender",
          "type": "address"
        }
      ],
      "name": "RoleRevoked",
      "type": "event"
    },
    {
      "anonymous": false,
      "inputs": [
        {
          "indexed": false,
          "internalType": "address",
          "name": "account",
          "type": "address"
        }
      ],
      "name": "Unpaused",
      "type": "event"
    },
    {
      "anonymous": false,
      "inputs": [
        {
          "indexed": true,
          "internalType": "address",
          "name": "implementation",
          "type": "address"
        }
      ],
      "name": "Upgraded",
      "type": "event"
    },
    {
      "anonymous": false,
      "inputs": [
        {
          "indexed": false,
          "internalType": "address",
          "name": "deployer",
          "type": "address"
        },
        {
          "indexed": false,
          "internalType": "address",
          "name": "vault",
          "type": "address"
        },
        {
          "indexed": true,
          "internalType": "uint256",
          "name": "tokenID",
          "type": "uint256"
        },
        {
          "indexed": false,
          "internalType": "string",
          "name": "name",
          "type": "string"
        }
      ],
      "name": "VaultCreated",
      "type": "event"
    },
    {
      "anonymous": false,
      "inputs": [
        {
          "indexed": false,
          "internalType": "address",
          "name": "vault",
          "type": "address"
        },
        {
          "indexed": false,
          "internalType": "enum IVaultRegistry.VaultState",
          "name": "newState",
          "type": "uint8"
        }
      ],
      "name": "VaultStateChanged",
      "type": "event"
    },
    {
      "inputs": [],
      "name": "BEACON_CREATOR",
      "outputs": [
        {
          "internalType": "bytes32",
          "name": "",
          "type": "bytes32"
        }
      ],
      "stateMutability": "view",
      "type": "function"
    },
    {
      "inputs": [],
      "name": "DEFAULT_ADMIN_ROLE",
      "outputs": [
        {
          "internalType": "bytes32",
          "name": "",
          "type": "bytes32"
        }
      ],
      "stateMutability": "view",
      "type": "function"
    },
    {
      "inputs": [],
      "name": "GOVERNANCE_ROLE",
      "outputs": [
        {
          "internalType": "bytes32",
          "name": "",
          "type": "bytes32"
        }
      ],
      "stateMutability": "view",
      "type": "function"
    },
    {
      "inputs": [],
      "name": "PAUSER_ROLE",
      "outputs": [
        {
          "internalType": "bytes32",
          "name": "",
          "type": "bytes32"
        }
      ],
      "stateMutability": "view",
      "type": "function"
    },
    {
      "inputs": [
        {
          "internalType": "uint256",
          "name": "",
          "type": "uint256"
        }
      ],
      "name": "_linkedVaultsCounts",
      "outputs": [
        {
          "internalType": "uint256",
          "name": "",
          "type": "uint256"
        }
      ],
      "stateMutability": "view",
      "type": "function"
    },
    {
      "inputs": [
        {
          "internalType": "bytes32",
          "name": "",
          "type": "bytes32"
        }
      ],
      "name": "beaconAddresses",
      "outputs": [
        {
          "internalType": "address",
          "name": "",
          "type": "address"
        }
      ],
      "stateMutability": "view",
      "type": "function"
    },
    {
      "inputs": [
        {
          "internalType": "string",
          "name": "_name",
          "type": "string"
        },
        {
          "internalType": "string",
          "name": "_symbol",
          "type": "string"
        },
        {
          "internalType": "bytes",
          "name": "_params",
          "type": "bytes"
        },
        {
          "internalType": "uint256",
          "name": "_tokenId",
          "type": "uint256"
        },
        {
          "internalType": "bytes32",
          "name": "_beaconName",
          "type": "bytes32"
        },
        {
          "internalType": "bytes",
          "name": "_strategyEncodedData",
          "type": "bytes"
        }
      ],
      "name": "createVault",
      "outputs": [
        {
          "internalType": "address",
          "name": "",
          "type": "address"
        }
      ],
      "stateMutability": "nonpayable",
      "type": "function"
    },
    {
      "inputs": [
        {
          "internalType": "address",
          "name": "_address",
          "type": "address"
        },
        {
          "internalType": "bytes32",
          "name": "_name",
          "type": "bytes32"
        }
      ],
      "name": "deployAndRegisterBeacon",
      "outputs": [
        {
          "internalType": "address",
          "name": "",
          "type": "address"
        }
      ],
      "stateMutability": "nonpayable",
      "type": "function"
    },
    {
      "inputs": [
        {
          "internalType": "bytes32",
          "name": "_name",
          "type": "bytes32"
        }
      ],
      "name": "deregisterBeacon",
      "outputs": [],
      "stateMutability": "nonpayable",
      "type": "function"
    },
    {
      "inputs": [
        {
          "internalType": "bytes32",
          "name": "role",
          "type": "bytes32"
        }
      ],
      "name": "getRoleAdmin",
      "outputs": [
        {
          "internalType": "bytes32",
          "name": "",
          "type": "bytes32"
        }
      ],
      "stateMutability": "view",
      "type": "function"
    },
    {
      "inputs": [
        {
          "internalType": "address",
          "name": "_vault",
          "type": "address"
        }
      ],
      "name": "getStrategyCreatorForVault",
      "outputs": [
        {
          "internalType": "address",
          "name": "",
          "type": "address"
        }
      ],
      "stateMutability": "view",
      "type": "function"
    },
    {
      "inputs": [
        {
          "internalType": "uint256",
          "name": "_tokenId",
          "type": "uint256"
        },
        {
          "internalType": "uint256",
          "name": "_vaultId",
          "type": "uint256"
        }
      ],
      "name": "getVaultByStrategyAndIndex",
      "outputs": [
        {
          "components": [
            {
              "internalType": "enum IVaultRegistry.VaultState",
              "name": "state",
              "type": "uint8"
            },
            {
              "internalType": "uint256",
              "name": "tokenID",
              "type": "uint256"
            },
            {
              "internalType": "uint256",
              "name": "vaultID",
              "type": "uint256"
            },
            {
              "internalType": "bytes",
              "name": "strategyInfo",
              "type": "bytes"
            },
            {
              "internalType": "address",
              "name": "vaultAddress",
              "type": "address"
            }
          ],
          "internalType": "struct IVaultRegistry.VaultData",
          "name": "",
          "type": "tuple"
        }
      ],
      "stateMutability": "view",
      "type": "function"
    },
    {
      "inputs": [
        {
          "internalType": "uint256",
          "name": "_tokenId",
          "type": "uint256"
        }
      ],
      "name": "getVaultCountByStrategyId",
      "outputs": [
        {
          "internalType": "uint256",
          "name": "",
          "type": "uint256"
        }
      ],
      "stateMutability": "view",
      "type": "function"
    },
    {
      "inputs": [
        {
          "internalType": "address",
          "name": "_address",
          "type": "address"
        }
      ],
      "name": "getVaultDetails",
      "outputs": [
        {
          "components": [
            {
              "internalType": "enum IVaultRegistry.VaultState",
              "name": "state",
              "type": "uint8"
            },
            {
              "internalType": "uint256",
              "name": "tokenID",
              "type": "uint256"
            },
            {
              "internalType": "uint256",
              "name": "vaultID",
              "type": "uint256"
            },
            {
              "internalType": "bytes",
              "name": "strategyInfo",
              "type": "bytes"
            },
            {
              "internalType": "address",
              "name": "vaultAddress",
              "type": "address"
            }
          ],
          "internalType": "struct IVaultRegistry.VaultData",
          "name": "",
          "type": "tuple"
        }
      ],
      "stateMutability": "view",
      "type": "function"
    },
    {
      "inputs": [
        {
          "internalType": "bytes32",
          "name": "role",
          "type": "bytes32"
        },
        {
          "internalType": "address",
          "name": "account",
          "type": "address"
        }
      ],
      "name": "grantRole",
      "outputs": [],
      "stateMutability": "nonpayable",
      "type": "function"
    },
    {
      "inputs": [
        {
          "internalType": "bytes32",
          "name": "role",
          "type": "bytes32"
        },
        {
          "internalType": "address",
          "name": "account",
          "type": "address"
        }
      ],
      "name": "hasRole",
      "outputs": [
        {
          "internalType": "bool",
          "name": "",
          "type": "bool"
        }
      ],
      "stateMutability": "view",
      "type": "function"
    },
    {
      "inputs": [
        {
          "internalType": "address payable",
          "name": "_orchestrator",
          "type": "address"
        },
        {
          "internalType": "address",
          "name": "_strategyRegistry",
          "type": "address"
        },
        {
          "internalType": "bytes32",
          "name": "_beaconName",
          "type": "bytes32"
        },
        {
          "internalType": "address",
          "name": "_beacon",
          "type": "address"
        }
      ],
      "name": "initialize",
      "outputs": [],
      "stateMutability": "nonpayable",
      "type": "function"
    },
    {
      "inputs": [
        {
          "internalType": "bytes",
          "name": "",
          "type": "bytes"
        }
      ],
      "name": "isVaultTypeCreated",
      "outputs": [
        {
          "internalType": "bool",
          "name": "",
          "type": "bool"
        }
      ],
      "stateMutability": "view",
      "type": "function"
    },
    {
      "inputs": [],
      "name": "orchestrator",
      "outputs": [
        {
          "internalType": "contract Orchestrator",
          "name": "",
          "type": "address"
        }
      ],
      "stateMutability": "view",
      "type": "function"
    },
    {
      "inputs": [],
      "name": "owner",
      "outputs": [
        {
          "internalType": "address",
          "name": "",
          "type": "address"
        }
      ],
      "stateMutability": "view",
      "type": "function"
    },
    {
      "inputs": [],
      "name": "pause",
      "outputs": [],
      "stateMutability": "nonpayable",
      "type": "function"
    },
    {
      "inputs": [],
      "name": "paused",
      "outputs": [
        {
          "internalType": "bool",
          "name": "",
          "type": "bool"
        }
      ],
      "stateMutability": "view",
      "type": "function"
    },
    {
      "inputs": [
        {
          "internalType": "bytes32",
          "name": "_name",
          "type": "bytes32"
        },
        {
          "internalType": "address",
          "name": "_address",
          "type": "address"
        }
      ],
      "name": "registerBeacon",
      "outputs": [],
      "stateMutability": "nonpayable",
      "type": "function"
    },
    {
      "inputs": [],
      "name": "renounceOwnership",
      "outputs": [],
      "stateMutability": "nonpayable",
      "type": "function"
    },
    {
      "inputs": [
        {
          "internalType": "bytes32",
          "name": "role",
          "type": "bytes32"
        },
        {
          "internalType": "address",
          "name": "account",
          "type": "address"
        }
      ],
      "name": "renounceRole",
      "outputs": [],
      "stateMutability": "nonpayable",
      "type": "function"
    },
    {
      "inputs": [
        {
          "internalType": "bytes32",
          "name": "role",
          "type": "bytes32"
        },
        {
          "internalType": "address",
          "name": "account",
          "type": "address"
        }
      ],
      "name": "revokeRole",
      "outputs": [],
      "stateMutability": "nonpayable",
      "type": "function"
    },
    {
      "inputs": [],
      "name": "strategyRegistry",
      "outputs": [
        {
          "internalType": "contract IStrategyRegistry",
          "name": "",
          "type": "address"
        }
      ],
      "stateMutability": "view",
      "type": "function"
    },
    {
      "inputs": [
        {
          "internalType": "bytes4",
          "name": "interfaceId",
          "type": "bytes4"
        }
      ],
      "name": "supportsInterface",
      "outputs": [
        {
          "internalType": "bool",
          "name": "",
          "type": "bool"
        }
      ],
      "stateMutability": "view",
      "type": "function"
    },
    {
      "inputs": [
        {
          "internalType": "address",
          "name": "newOwner",
          "type": "address"
        }
      ],
      "name": "transferOwnership",
      "outputs": [],
      "stateMutability": "nonpayable",
      "type": "function"
    },
    {
      "inputs": [
        {
          "internalType": "address",
          "name": "_vault",
          "type": "address"
        },
        {
          "internalType": "enum IVaultRegistry.VaultState",
          "name": "_newState",
          "type": "uint8"
        }
      ],
      "name": "updateVaultState",
      "outputs": [],
      "stateMutability": "nonpayable",
      "type": "function"
    },
    {
      "inputs": [
        {
          "internalType": "address",
          "name": "newImplementation",
          "type": "address"
        }
      ],
      "name": "upgradeTo",
      "outputs": [],
      "stateMutability": "nonpayable",
      "type": "function"
    },
    {
      "inputs": [
        {
          "internalType": "address",
          "name": "newImplementation",
          "type": "address"
        },
        {
          "internalType": "bytes",
          "name": "data",
          "type": "bytes"
        }
      ],
      "name": "upgradeToAndCall",
      "outputs": [],
      "stateMutability": "payable",
      "type": "function"
    },
    {
      "inputs": [
        {
          "internalType": "address",
          "name": "",
          "type": "address"
        }
      ],
      "name": "vaults",
      "outputs": [
        {
          "internalType": "enum IVaultRegistry.VaultState",
          "name": "state",
          "type": "uint8"
        },
        {
          "internalType": "uint256",
          "name": "tokenID",
          "type": "uint256"
        },
        {
          "internalType": "uint256",
          "name": "vaultID",
          "type": "uint256"
        },
        {
          "internalType": "bytes",
          "name": "strategyInfo",
          "type": "bytes"
        },
        {
          "internalType": "address",
          "name": "vaultAddress",
          "type": "address"
        }
      ],
      "stateMutability": "view",
      "type": "function"
    }
  ],
  "bytecode": "0x60a06040523060805234801561001457600080fd5b5060805161387e61004560003960008181610c5101528181610c9401528181610d260152610d69015261387e6000f3fe608060405260043610620002175760003560e01c80637e4d10431162000123578063b4d137bb11620000ad578063d547741f1162000078578063d547741f146200068d578063e63ab1e914620006b2578063e67fec8214620006e8578063f2fde38b146200071a578063f36c8f5c146200073f57600080fd5b8063b4d137bb14620005fd578063b74795d91462000622578063be2bf8ae1462000645578063d080bf27146200066a57600080fd5b806391d1485411620000ee57806391d148541462000564578063a217fddf1462000589578063a31ee5b014620005a0578063a622ee7c14620005c557600080fd5b80637e4d104314620004cc5780638456cb591462000507578063877e2635146200051f5780638da5cb5b146200054457600080fd5b806331c4714a11620001a55780634f1ef28611620001705780634f1ef286146200045d5780635c975abb146200047457806367a44ca3146200048f578063715018a614620004b457600080fd5b806331c4714a14620003bc57806336568abe14620003e15780633659cfe614620004065780634142a9e1146200042b57600080fd5b8063248a9ca311620001e6578063248a9ca314620002e057806325d8d09e14620003235780632f2ff15d14620003575780632fae7fdd146200037c57600080fd5b806301ffc9a7146200021c5780630ad0eb3814620002565780630da29cd0146200029457806315eeb7a014620002bb575b600080fd5b3480156200022957600080fd5b50620002416200023b36600462002185565b62000775565b60405190151581526020015b60405180910390f35b3480156200026357600080fd5b506200027b62000275366004620021c7565b620007ad565b6040516001600160a01b0390911681526020016200024d565b348015620002a157600080fd5b50620002b9620002b3366004620021e7565b62000838565b005b348015620002c857600080fd5b506200027b620002da3660046200221a565b620008e8565b348015620002ed57600080fd5b5062000314620002ff36600462002249565b60009081526097602052604090206001015490565b6040519081526020016200024d565b3480156200033057600080fd5b50620003486200034236600462002263565b62000a55565b6040516200024d919062002320565b3480156200036457600080fd5b50620002b962000376366004620021e7565b62000b95565b3480156200038957600080fd5b50620002416200039b36600462002431565b80516020818301810180516101648252928201919093012091525460ff1681565b348015620003c957600080fd5b50620003146000805160206200382983398151915281565b348015620003ee57600080fd5b50620002b962000400366004620021e7565b62000bc4565b3480156200041357600080fd5b50620002b962000425366004620021c7565b62000c46565b3480156200043857600080fd5b50620003146200044a36600462002249565b6101616020526000908152604090205481565b620002b96200046e36600462002472565b62000d1b565b3480156200048157600080fd5b5061012d5460ff1662000241565b3480156200049c57600080fd5b5062000348620004ae366004620021c7565b62000ddd565b348015620004c157600080fd5b50620002b962000f07565b348015620004d957600080fd5b506200027b620004eb36600462002249565b610163602052600090815260409020546001600160a01b031681565b3480156200051457600080fd5b50620002b962000f42565b3480156200052c57600080fd5b506200027b6200053e366004620024c8565b62000f79565b3480156200055157600080fd5b506033546001600160a01b03166200027b565b3480156200057157600080fd5b506200024162000583366004620021e7565b620011d5565b3480156200059657600080fd5b5062000314600081565b348015620005ad57600080fd5b50620002b9620005bf36600462002594565b62001200565b348015620005d257600080fd5b50620005ea620005e4366004620021c7565b62001377565b6040516200024d959493929190620025ee565b3480156200060a57600080fd5b50620002b96200061c36600462002249565b62001446565b3480156200062f57600080fd5b50610162546200027b906001600160a01b031681565b3480156200065257600080fd5b50620002b96200066436600462002638565b62001482565b3480156200067757600080fd5b50610165546200027b906001600160a01b031681565b3480156200069a57600080fd5b50620002b9620006ac366004620021e7565b6200152c565b348015620006bf57600080fd5b50620003147f65d7a28e3265b37a6474929f336521b332c1681b933f6cb9f3376673440d862a81565b348015620006f557600080fd5b50620003146200070736600462002249565b6000908152610161602052604090205490565b3480156200072757600080fd5b50620002b962000739366004620021c7565b62001556565b3480156200074c57600080fd5b50620003147f71840dc4906352362b0cdaf79870196c8e42acafade72d5d5a6d59291253ceb181565b60006001600160e01b03198216637965db0b60e01b1480620007a757506301ffc9a760e01b6001600160e01b03198316145b92915050565b610165546001600160a01b03828116600090815261015f60205260408082206001015490516331a9108f60e11b8152600481019190915290929190911690636352211e90602401602060405180830381865afa15801562000812573d6000803e3d6000fd5b505050506040513d601f19601f82011682018060405250810190620007a791906200266e565b60008051602062003829833981519152620008548133620015f5565b600083815261016360205260409020546001600160a01b031615620008b85760405162461bcd60e51b8152602060048201526015602482015274426561636f6e20616c72656164792065786973747360581b60448201526064015b60405180910390fd5b506000918252610163602052604090912080546001600160a01b0319166001600160a01b03909216919091179055565b600060008051602062003829833981519152620009068133620015f5565b600083815261016360205260409020546001600160a01b031615620009665760405162461bcd60e51b8152602060048201526015602482015274426561636f6e20616c72656164792065786973747360581b6044820152606401620008af565b60008460405162000977906200208a565b6001600160a01b039091168152602001604051809103906000f080158015620009a4573d6000803e3d6000fd5b509050806001600160a01b031663f2fde38b620009c96033546001600160a01b031690565b6040516001600160e01b031960e084901b1681526001600160a01b039091166004820152602401600060405180830381600087803b15801562000a0b57600080fd5b505af115801562000a20573d6000803e3d6000fd5b505050600094855250610163602052604090932080546001600160a01b0319166001600160a01b038516179055509092915050565b62000a5f62002098565b6000838152610160602090815260408083208584528252808320546001600160a01b0316835261015f90915290819020815160a081019092528054829060ff16600481111562000ab35762000ab362002286565b600481111562000ac75762000ac762002286565b8152602001600182015481526020016002820154815260200160038201805462000af1906200268e565b80601f016020809104026020016040519081016040528092919081815260200182805462000b1f906200268e565b801562000b705780601f1062000b445761010080835404028352916020019162000b70565b820191906000526020600020905b81548152906001019060200180831162000b5257829003601f168201915b5050509183525050600491909101546001600160a01b03166020909101529392505050565b60008281526097602052604090206001015462000bb38133620015f5565b62000bbf838362001664565b505050565b6001600160a01b038116331462000c365760405162461bcd60e51b815260206004820152602f60248201527f416363657373436f6e74726f6c3a2063616e206f6e6c792072656e6f756e636560448201526e103937b632b9903337b91039b2b63360891b6064820152608401620008af565b62000c428282620016ee565b5050565b306001600160a01b037f000000000000000000000000000000000000000000000000000000000000000016141562000c925760405162461bcd60e51b8152600401620008af90620026cb565b7f00000000000000000000000000000000000000000000000000000000000000006001600160a01b031662000cc662001758565b6001600160a01b03161462000cef5760405162461bcd60e51b8152600401620008af9062002717565b62000cfa8162001786565b6040805160008082526020820190925262000d1891839190620017b3565b50565b306001600160a01b037f000000000000000000000000000000000000000000000000000000000000000016141562000d675760405162461bcd60e51b8152600401620008af90620026cb565b7f00000000000000000000000000000000000000000000000000000000000000006001600160a01b031662000d9b62001758565b6001600160a01b03161462000dc45760405162461bcd60e51b8152600401620008af9062002717565b62000dcf8262001786565b62000c4282826001620017b3565b62000de762002098565b6001600160a01b038216600090815261015f602052604090819020815160a081019092528054829060ff16600481111562000e265762000e2662002286565b600481111562000e3a5762000e3a62002286565b8152602001600182015481526020016002820154815260200160038201805462000e64906200268e565b80601f016020809104026020016040519081016040528092919081815260200182805462000e92906200268e565b801562000ee35780601f1062000eb75761010080835404028352916020019162000ee3565b820191906000526020600020905b81548152906001019060200180831162000ec557829003601f168201915b5050509183525050600491909101546001600160a01b031660209091015292915050565b6033546001600160a01b0316331462000f345760405162461bcd60e51b8152600401620008af9062002763565b62000f40600062001908565b565b7f65d7a28e3265b37a6474929f336521b332c1681b933f6cb9f3376673440d862a62000f6f8133620015f5565b62000d186200195a565b600062000f8961012d5460ff1690565b1562000fcb5760405162461bcd60e51b815260206004820152601060248201526f14185d5cd8589b194e881c185d5cd95960821b6044820152606401620008af565b6101648560405162000fde919062002798565b9081526040519081900360200190205460ff1615620010375760405162461bcd60e51b81526020600482015260146024820152735661756c7420616c72656164792065786973747360601b6044820152606401620008af565b6001610164866040516200104c919062002798565b9081526040805160209281900383019020805460ff191693151593909317909255600085815261016390915220546001600160a01b031680620010ca5760405162461bcd60e51b815260206004820152601560248201527410995858dbdb881a5cc81b9bdd081c1c995cd95b9d605a1b6044820152606401620008af565b610162548190600090829063cf7a1d7760e01b906001600160a01b0316620010fa6033546001600160a01b031690565b8b6040516024016200110f93929190620027b6565b60408051601f198184030181529181526020820180516001600160e01b03166001600160e01b03199094169390931790925290516200114e90620020d1565b6200115b929190620027e4565b604051809103906000f08015801562001178573d6000803e3d6000fd5b5090508062001189888288620019f7565b877f3df58ad1674826c10252882b795e1ed5dc6f88b11895bf9a30c5d494d940046f33838e604051620011bf93929190620027b6565b60405180910390a29a9950505050505050505050565b60009182526097602090815260408084206001600160a01b0393909316845291905290205460ff1690565b600054610100900460ff166200121d5760005460ff161562001221565b303b155b620012865760405162461bcd60e51b815260206004820152602e60248201527f496e697469616c697a61626c653a20636f6e747261637420697320616c72656160448201526d191e481a5b9a5d1a585b1a5e995960921b6064820152608401620008af565b600054610100900460ff16158015620012a9576000805461ffff19166101011790555b620012b362001b1e565b620012bd62001b5c565b620012c762001b9a565b620012d162001bce565b61016280546001600160a01b038088166001600160a01b031992831617909255610165805492871692909116919091179055620013367f65d7a28e3265b37a6474929f336521b332c1681b933f6cb9f3376673440d862a620013303390565b62001c0c565b62001351600080516020620038298339815191523362001c0c565b6200135d838362000838565b801562001370576000805461ff00191690555b5050505050565b61015f60205260009081526040902080546001820154600283015460038401805460ff909416949293919291620013ae906200268e565b80601f0160208091040260200160405190810160405280929190818152602001828054620013dc906200268e565b80156200142d5780601f1062001401576101008083540402835291602001916200142d565b820191906000526020600020905b8154815290600101906020018083116200140f57829003601f168201915b505050600490930154919250506001600160a01b031685565b60008051602062003829833981519152620014628133620015f5565b5060009081526101636020526040902080546001600160a01b0319169055565b6033546001600160a01b03163314620014af5760405162461bcd60e51b8152600401620008af9062002763565b6001600160a01b038216600090815261015f60205260409020805482919060ff19166001836004811115620014e857620014e862002286565b02179055507fb977ce68002d3b49b272b3ae970ad8a17b283cd2b5d40a674c888140bca7436b8282604051620015209291906200280a565b60405180910390a15050565b6000828152609760205260409020600101546200154a8133620015f5565b62000bbf8383620016ee565b6033546001600160a01b03163314620015835760405162461bcd60e51b8152600401620008af9062002763565b6001600160a01b038116620015ea5760405162461bcd60e51b815260206004820152602660248201527f4f776e61626c653a206e6577206f776e657220697320746865207a65726f206160448201526564647265737360d01b6064820152608401620008af565b62000d188162001908565b620016018282620011d5565b62000c42576200161c816001600160a01b0316601462001c18565b6200162983602062001c18565b6040516020016200163c92919062002829565b60408051601f198184030181529082905262461bcd60e51b8252620008af91600401620028a2565b620016708282620011d5565b62000c425760008281526097602090815260408083206001600160a01b03851684529091529020805460ff19166001179055620016aa3390565b6001600160a01b0316816001600160a01b0316837f2f8788117e7eff1d82e926ec794901d17c78024a50270940304540a733656f0d60405160405180910390a45050565b620016fa8282620011d5565b1562000c425760008281526097602090815260408083206001600160a01b0385168085529252808320805460ff1916905551339285917ff6391f5c32d9c69d2a47ea670b442974b53935d1edc7fd64eb21e047a839171b9190a45050565b7f360894a13ba1a3210667c828492db98dca3e2076cc3735a920a3ca505d382bbc546001600160a01b031690565b6033546001600160a01b0316331462000d185760405162461bcd60e51b8152600401620008af9062002763565b6000620017bf62001758565b9050620017cc8462001dd9565b600083511180620017da5750815b15620017ee57620017ec848462001e80565b505b7f4910fdfa16fed3260ed0e7147f7cc6da11a60208b5b9406d12a635614ffd9143805460ff166200137057805460ff191660011781556040516001600160a01b03831660248201526200187090869060440160408051601f198184030181529190526020810180516001600160e01b0316631b2ce7f360e11b17905262001e80565b50805460ff191681556200188362001758565b6001600160a01b0316826001600160a01b031614620018fd5760405162461bcd60e51b815260206004820152602f60248201527f45524331393637557067726164653a207570677261646520627265616b73206660448201526e75727468657220757067726164657360881b6064820152608401620008af565b620013708562001f74565b603380546001600160a01b038381166001600160a01b0319831681179093556040519116919082907f8be0079c531659141344cd1fd0a4f28419497f9722a3daafe3b4186f6b6457e090600090a35050565b61012d5460ff1615620019a35760405162461bcd60e51b815260206004820152601060248201526f14185d5cd8589b194e881c185d5cd95960821b6044820152606401620008af565b61012d805460ff191660011790557f62e78cea01bee320cd4e420270b5ea74000d11b0c9f74754ebdbfc544b05a258620019da3390565b6040516001600160a01b03909116815260200160405180910390a1565b60008381526101616020908152604080832054610160835281842081855290925290912080546001600160a01b0319166001600160a01b03851617905562001a41816001620028cd565b600085815261016160205260409081902091909155805160a08101909152806001815260208082018790526040808301859052606083018690526001600160a01b0387166080909301839052600092835261015f909152902081518154829060ff1916600183600481111562001abb5762001abb62002286565b02179055506020828101516001830155604083015160028301556060830151805162001aee9260038501920190620020df565b5060809190910151600490910180546001600160a01b0319166001600160a01b0390921691909117905550505050565b600054610100900460ff1662001b485760405162461bcd60e51b8152600401620008af90620028e8565b62001b5262001fb6565b62000f4062001fb6565b600054610100900460ff1662001b865760405162461bcd60e51b8152600401620008af90620028e8565b62001b9062001fb6565b62000f4062001fe0565b600054610100900460ff1662001bc45760405162461bcd60e51b8152600401620008af90620028e8565b62001b4862001fb6565b600054610100900460ff1662001bf85760405162461bcd60e51b8152600401620008af90620028e8565b62001c0262001fb6565b62000f4062002015565b62000c42828262001664565b6060600062001c2983600262002933565b62001c36906002620028cd565b67ffffffffffffffff81111562001c515762001c5162002386565b6040519080825280601f01601f19166020018201604052801562001c7c576020820181803683370190505b509050600360fc1b8160008151811062001c9a5762001c9a62002955565b60200101906001600160f81b031916908160001a905350600f60fb1b8160018151811062001ccc5762001ccc62002955565b60200101906001600160f81b031916908160001a905350600062001cf284600262002933565b62001cff906001620028cd565b90505b600181111562001d81576f181899199a1a9b1b9c1cb0b131b232b360811b85600f166010811062001d375762001d3762002955565b1a60f81b82828151811062001d505762001d5062002955565b60200101906001600160f81b031916908160001a90535060049490941c9362001d79816200296b565b905062001d02565b50831562001dd25760405162461bcd60e51b815260206004820181905260248201527f537472696e67733a20686578206c656e67746820696e73756666696369656e746044820152606401620008af565b9392505050565b803b62001e3f5760405162461bcd60e51b815260206004820152602d60248201527f455243313936373a206e657720696d706c656d656e746174696f6e206973206e60448201526c1bdd08184818dbdb9d1c9858dd609a1b6064820152608401620008af565b7f360894a13ba1a3210667c828492db98dca3e2076cc3735a920a3ca505d382bbc80546001600160a01b0319166001600160a01b0392909216919091179055565b6060823b62001ee15760405162461bcd60e51b815260206004820152602660248201527f416464726573733a2064656c65676174652063616c6c20746f206e6f6e2d636f6044820152651b9d1c9858dd60d21b6064820152608401620008af565b600080846001600160a01b03168460405162001efe919062002798565b600060405180830381855af49150503d806000811462001f3b576040519150601f19603f3d011682016040523d82523d6000602084013e62001f40565b606091505b509150915062001f6b828260405180606001604052806027815260200162003802602791396200204c565b95945050505050565b62001f7f8162001dd9565b6040516001600160a01b038216907fbc7cd75a20ee27fd9adebab32041f755214dbc6bffa90cc0225b39da2e5c2d3b90600090a250565b600054610100900460ff1662000f405760405162461bcd60e51b8152600401620008af90620028e8565b600054610100900460ff166200200a5760405162461bcd60e51b8152600401620008af90620028e8565b62000f403362001908565b600054610100900460ff166200203f5760405162461bcd60e51b8152600401620008af90620028e8565b61012d805460ff19169055565b606083156200205d57508162001dd2565b8251156200206e5782518084602001fd5b8160405162461bcd60e51b8152600401620008af9190620028a2565b610516806200298683390190565b6040805160a08101909152806000815260200160008152602001600081526020016060815260200160006001600160a01b031681525090565b6109668062002e9c83390190565b828054620020ed906200268e565b90600052602060002090601f0160209004810192826200211157600085556200215c565b82601f106200212c57805160ff19168380011785556200215c565b828001600101855582156200215c579182015b828111156200215c5782518255916020019190600101906200213f565b506200216a9291506200216e565b5090565b5b808211156200216a57600081556001016200216f565b6000602082840312156200219857600080fd5b81356001600160e01b03198116811462001dd257600080fd5b6001600160a01b038116811462000d1857600080fd5b600060208284031215620021da57600080fd5b813562001dd281620021b1565b60008060408385031215620021fb57600080fd5b8235915060208301356200220f81620021b1565b809150509250929050565b600080604083850312156200222e57600080fd5b82356200223b81620021b1565b946020939093013593505050565b6000602082840312156200225c57600080fd5b5035919050565b600080604083850312156200227757600080fd5b50508035926020909101359150565b634e487b7160e01b600052602160045260246000fd5b60058110620022bb57634e487b7160e01b600052602160045260246000fd5b9052565b60005b83811015620022dc578181015183820152602001620022c2565b83811115620022ec576000848401525b50505050565b600081518084526200230c816020860160208601620022bf565b601f01601f19169290920160200192915050565b60208152620023346020820183516200229c565b60208201516040820152604082015160608201526000606083015160a060808401526200236560c0840182620022f2565b608094909401516001600160a01b031660a093909301929092525090919050565b634e487b7160e01b600052604160045260246000fd5b600082601f830112620023ae57600080fd5b813567ffffffffffffffff80821115620023cc57620023cc62002386565b604051601f8301601f19908116603f01168101908282118183101715620023f757620023f762002386565b816040528381528660208588010111156200241157600080fd5b836020870160208301376000602085830101528094505050505092915050565b6000602082840312156200244457600080fd5b813567ffffffffffffffff8111156200245c57600080fd5b6200246a848285016200239c565b949350505050565b600080604083850312156200248657600080fd5b82356200249381620021b1565b9150602083013567ffffffffffffffff811115620024b057600080fd5b620024be858286016200239c565b9150509250929050565b60008060008060008060c08789031215620024e257600080fd5b863567ffffffffffffffff80821115620024fb57600080fd5b620025098a838b016200239c565b975060208901359150808211156200252057600080fd5b6200252e8a838b016200239c565b965060408901359150808211156200254557600080fd5b620025538a838b016200239c565b9550606089013594506080890135935060a08901359150808211156200257857600080fd5b506200258789828a016200239c565b9150509295509295509295565b60008060008060808587031215620025ab57600080fd5b8435620025b881620021b1565b93506020850135620025ca81620021b1565b9250604085013591506060850135620025e381620021b1565b939692955090935050565b620025fa81876200229c565b84602082015283604082015260a0606082015260006200261e60a0830185620022f2565b905060018060a01b03831660808301529695505050505050565b600080604083850312156200264c57600080fd5b82356200265981620021b1565b91506020830135600581106200220f57600080fd5b6000602082840312156200268157600080fd5b815162001dd281620021b1565b600181811c90821680620026a357607f821691505b60208210811415620026c557634e487b7160e01b600052602260045260246000fd5b50919050565b6020808252602c908201527f46756e6374696f6e206d7573742062652063616c6c6564207468726f7567682060408201526b19195b1959d85d1958d85b1b60a21b606082015260800190565b6020808252602c908201527f46756e6374696f6e206d7573742062652063616c6c6564207468726f7567682060408201526b6163746976652070726f787960a01b606082015260800190565b6020808252818101527f4f776e61626c653a2063616c6c6572206973206e6f7420746865206f776e6572604082015260600190565b60008251620027ac818460208701620022bf565b9190910192915050565b6001600160a01b0384811682528316602082015260606040820181905260009062001f6b90830184620022f2565b6001600160a01b03831681526040602082018190526000906200246a90830184620022f2565b6001600160a01b03831681526040810162001dd260208301846200229c565b7f416363657373436f6e74726f6c3a206163636f756e742000000000000000000081526000835162002863816017850160208801620022bf565b7001034b99036b4b9b9b4b733903937b6329607d1b601791840191820152835162002896816028840160208801620022bf565b01602801949350505050565b60208152600062001dd26020830184620022f2565b634e487b7160e01b600052601160045260246000fd5b60008219821115620028e357620028e3620028b7565b500190565b6020808252602b908201527f496e697469616c697a61626c653a20636f6e7472616374206973206e6f74206960408201526a6e697469616c697a696e6760a81b606082015260800190565b6000816000190483118215151615620029505762002950620028b7565b500290565b634e487b7160e01b600052603260045260246000fd5b6000816200297d576200297d620028b7565b50600019019056fe608060405234801561001057600080fd5b5060405161051638038061051683398101604081905261002f91610148565b61003833610047565b61004181610097565b50610178565b600080546001600160a01b038381166001600160a01b0319831681178455604051919092169283917f8be0079c531659141344cd1fd0a4f28419497f9722a3daafe3b4186f6b6457e09190a35050565b6100aa8161014260201b6102121760201c565b6101205760405162461bcd60e51b815260206004820152603360248201527f5570677261646561626c65426561636f6e3a20696d706c656d656e746174696f60448201527f6e206973206e6f74206120636f6e747261637400000000000000000000000000606482015260840160405180910390fd5b600180546001600160a01b0319166001600160a01b0392909216919091179055565b3b151590565b60006020828403121561015a57600080fd5b81516001600160a01b038116811461017157600080fd5b9392505050565b61038f806101876000396000f3fe608060405234801561001057600080fd5b50600436106100575760003560e01c80635c60da1b1461005c5780635c879c1014610085578063715018a61461009a5780638da5cb5b146100a2578063f2fde38b146100b3575b600080fd5b6001546001600160a01b03165b6040516001600160a01b03909116815260200160405180910390f35b6100986100933660046102f4565b6100c6565b005b610098610141565b6000546001600160a01b0316610069565b6100986100c13660046102f4565b610177565b6000546001600160a01b031633146100f95760405162461bcd60e51b81526004016100f090610324565b60405180910390fd5b61010281610218565b6040516001600160a01b03821681527fbc7cd75a20ee27fd9adebab32041f755214dbc6bffa90cc0225b39da2e5c2d3b9060200160405180910390a150565b6000546001600160a01b0316331461016b5760405162461bcd60e51b81526004016100f090610324565b61017560006102a4565b565b6000546001600160a01b031633146101a15760405162461bcd60e51b81526004016100f090610324565b6001600160a01b0381166102065760405162461bcd60e51b815260206004820152602660248201527f4f776e61626c653a206e6577206f776e657220697320746865207a65726f206160448201526564647265737360d01b60648201526084016100f0565b61020f816102a4565b50565b3b151590565b803b6102825760405162461bcd60e51b815260206004820152603360248201527f5570677261646561626c65426561636f6e3a20696d706c656d656e746174696f6044820152721b881a5cc81b9bdd08184818dbdb9d1c9858dd606a1b60648201526084016100f0565b600180546001600160a01b0319166001600160a01b0392909216919091179055565b600080546001600160a01b038381166001600160a01b0319831681178455604051919092169283917f8be0079c531659141344cd1fd0a4f28419497f9722a3daafe3b4186f6b6457e09190a35050565b60006020828403121561030657600080fd5b81356001600160a01b038116811461031d57600080fd5b9392505050565b6020808252818101527f4f776e61626c653a2063616c6c6572206973206e6f7420746865206f776e657260408201526060019056fea26469706673582212206d43708a6db853c86d4d4459b78d170d27dbe2e8a773dcbf51944a87a253c92164736f6c634300080b0033608060405260405161096638038061096683398101604081905261002291610479565b61004d60017fa3f0ad74e5423aebfd80d3ef4346578335a9a72aeaee59ff6cb3582b35133d51610539565b60008051602061091f833981519152146100695761006961055e565b6100758282600061007c565b50506105de565b61008583610147565b6040516001600160a01b038416907f1cf3b03a6cf19fa2baba4df148e9dcabedea7f8a5c07840e207e5c089be95d3e90600090a26000825111806100c65750805b1561014257610140836001600160a01b0316635c60da1b6040518163ffffffff1660e01b8152600401602060405180830381865afa15801561010c573d6000803e3d6000fd5b505050506040513d601f19601f820116820180604052508101906101309190610574565b836102d860201b6100291760201c565b505b505050565b61015a8161030460201b6100551760201c565b6101b95760405162461bcd60e51b815260206004820152602560248201527f455243313936373a206e657720626561636f6e206973206e6f74206120636f6e6044820152641d1c9858dd60da1b60648201526084015b60405180910390fd5b61022d816001600160a01b0316635c60da1b6040518163ffffffff1660e01b8152600401602060405180830381865afa1580156101fa573d6000803e3d6000fd5b505050506040513d601f19601f8201168201806040525081019061021e9190610574565b61030460201b6100551760201c565b6102925760405162461bcd60e51b815260206004820152603060248201527f455243313936373a20626561636f6e20696d706c656d656e746174696f6e206960448201526f1cc81b9bdd08184818dbdb9d1c9858dd60821b60648201526084016101b0565b806102b760008051602061091f83398151915260001b61030a60201b61005b1760201c565b80546001600160a01b0319166001600160a01b039290921691909117905550565b60606102fd838360405180606001604052806027815260200161093f6027913961030d565b9392505050565b3b151590565b90565b6060833b61036c5760405162461bcd60e51b815260206004820152602660248201527f416464726573733a2064656c65676174652063616c6c20746f206e6f6e2d636f6044820152651b9d1c9858dd60d21b60648201526084016101b0565b600080856001600160a01b031685604051610387919061058f565b600060405180830381855af49150503d80600081146103c2576040519150601f19603f3d011682016040523d82523d6000602084013e6103c7565b606091505b5090925090506103d88282866103e2565b9695505050505050565b606083156103f15750816102fd565b8251156104015782518084602001fd5b8160405162461bcd60e51b81526004016101b091906105ab565b80516001600160a01b038116811461043257600080fd5b919050565b634e487b7160e01b600052604160045260246000fd5b60005b83811015610468578181015183820152602001610450565b838111156101405750506000910152565b6000806040838503121561048c57600080fd5b6104958361041b565b60208401519092506001600160401b03808211156104b257600080fd5b818501915085601f8301126104c657600080fd5b8151818111156104d8576104d8610437565b604051601f8201601f19908116603f0116810190838211818310171561050057610500610437565b8160405282815288602084870101111561051957600080fd5b61052a83602083016020880161044d565b80955050505050509250929050565b60008282101561055957634e487b7160e01b600052601160045260246000fd5b500390565b634e487b7160e01b600052600160045260246000fd5b60006020828403121561058657600080fd5b6102fd8261041b565b600082516105a181846020870161044d565b9190910192915050565b60208152600082518060208401526105ca81604085016020870161044d565b601f01601f19169190910160400192915050565b610332806105ed6000396000f3fe60806040523661001357610011610017565b005b6100115b61002761002261005e565b6100f7565b565b606061004e83836040518060600160405280602781526020016102d66027913961011b565b9392505050565b3b151590565b90565b60006100917fa3f0ad74e5423aebfd80d3ef4346578335a9a72aeaee59ff6cb3582b35133d50546001600160a01b031690565b6001600160a01b0316635c60da1b6040518163ffffffff1660e01b8152600401602060405180830381865afa1580156100ce573d6000803e3d6000fd5b505050506040513d601f19601f820116820180604052508101906100f2919061022d565b905090565b3660008037600080366000845af43d6000803e808015610116573d6000f35b3d6000fd5b6060833b61017f5760405162461bcd60e51b815260206004820152602660248201527f416464726573733a2064656c65676174652063616c6c20746f206e6f6e2d636f6044820152651b9d1c9858dd60d21b60648201526084015b60405180910390fd5b600080856001600160a01b03168560405161019a9190610286565b600060405180830381855af49150503d80600081146101d5576040519150601f19603f3d011682016040523d82523d6000602084013e6101da565b606091505b50915091506101ea8282866101f4565b9695505050505050565b6060831561020357508161004e565b8251156102135782518084602001fd5b8160405162461bcd60e51b815260040161017691906102a2565b60006020828403121561023f57600080fd5b81516001600160a01b038116811461004e57600080fd5b60005b83811015610271578181015183820152602001610259565b83811115610280576000848401525b50505050565b60008251610298818460208701610256565b9190910192915050565b60208152600082518060208401526102c1816040850160208701610256565b601f01601f1916919091016040019291505056fe416464726573733a206c6f772d6c6576656c2064656c65676174652063616c6c206661696c6564a264697066735822122042a273d9482873e60c2fe3d26310fbd8c529f461bf1b05d4f7f1069af0c9773f64736f6c634300080b0033a3f0ad74e5423aebfd80d3ef4346578335a9a72aeaee59ff6cb3582b35133d50416464726573733a206c6f772d6c6576656c2064656c65676174652063616c6c206661696c6564416464726573733a206c6f772d6c6576656c2064656c65676174652063616c6c206661696c656443c4ee843c388ace340d7c40a79a882e9cb3437dbb4d5f773148b941fef1a5afa264697066735822122027c8e66c630243338a851351b7b9b3e50464a4224c4c5c31e33a52638e63263b64736f6c634300080b0033",
  "linkReferences": {},
  "deployedLinkReferences": {}
}