{
  "address": "0x2cDAD0Cfa7D5cFc1e54E9f4b9dAcBcFd51b7c466",
  "abi": [
    {
      "inputs": [
        {
          "internalType": "address",
          "name": "implementationAddress",
          "type": "address"
        }
      ],
      "stateMutability": "nonpayable",
      "type": "constructor"
    },
    {
      "anonymous": false,
      "inputs": [
        {
          "indexed": true,
          "internalType": "address",
          "name": "previousOwner",
          "type": "address"
        },
        {
          "indexed": true,
          "internalType": "address",
          "name": "newOwner",
          "type": "address"
        }
      ],
      "name": "OwnershipTransferred",
      "type": "event"
    },
    {
      "anonymous": false,
      "inputs": [
        {
          "indexed": true,
          "internalType": "address",
          "name": "newImplementation",
          "type": "address"
        }
      ],
      "name": "Upgraded",
      "type": "event"
    },
    {
      "inputs": [],
      "name": "implementation",
      "outputs": [
        {
          "internalType": "address",
          "name": "",
          "type": "address"
        }
      ],
      "stateMutability": "view",
      "type": "function"
    },
    {
      "inputs": [],
      "name": "owner",
      "outputs": [
        {
          "internalType": "address",
          "name": "",
          "type": "address"
        }
      ],
      "stateMutability": "view",
      "type": "function"
    },
    {
      "inputs": [],
      "name": "renounceOwnership",
      "outputs": [],
      "stateMutability": "nonpayable",
      "type": "function"
    },
    {
      "inputs": [
        {
          "internalType": "address",
          "name": "newOwner",
          "type": "address"
        }
      ],
      "name": "transferOwnership",
      "outputs": [],
      "stateMutability": "nonpayable",
      "type": "function"
    },
    {
      "inputs": [
        {
          "internalType": "address",
          "name": "newImplementation",
          "type": "address"
        }
      ],
      "name": "upgradeImplementationTo",
      "outputs": [],
      "stateMutability": "nonpayable",
      "type": "function"
    }
  ],
  "transactionHash": "0x6ca348b4142141b05137fc7a415fbd105b39d32d1ac1bf002f3e939e90cbf96f",
  "args": [
    "0x22Ee5c43031F045f792cCd81c8fEcf70e51B1011"
  ],
  "numDeployments": 1,
  "solcInputHash": "cf44aef8b0521db207c6325488a9b9eb",
  "bytecode": "0x608060405234801561001057600080fd5b5060405161052d38038061052d83398101604081905261002f91610170565b61003833610047565b61004181610097565b506101a0565b600080546001600160a01b038381166001600160a01b0319831681178455604051919092169283917f8be0079c531659141344cd1fd0a4f28419497f9722a3daafe3b4186f6b6457e09190a35050565b6100aa8161016a60201b6101d91760201c565b6101205760405162461bcd60e51b815260206004820152603360248201527f5570677261646561626c65426561636f6e3a20696d706c656d656e746174696f60448201527f6e206973206e6f74206120636f6e747261637400000000000000000000000000606482015260840160405180910390fd5b600180546001600160a01b0319166001600160a01b0383169081179091556040517fbc7cd75a20ee27fd9adebab32041f755214dbc6bffa90cc0225b39da2e5c2d3b90600090a250565b3b151590565b60006020828403121561018257600080fd5b81516001600160a01b038116811461019957600080fd5b9392505050565b61037e806101af6000396000f3fe608060405234801561001057600080fd5b50600436106100575760003560e01c80635c60da1b1461005c5780635c879c101461008b578063715018a6146100a05780638da5cb5b146100a8578063f2fde38b146100b9575b600080fd5b60015461006f906001600160a01b031681565b6040516001600160a01b03909116815260200160405180910390f35b61009e6100993660046102e3565b6100cc565b005b61009e61010b565b6000546001600160a01b031661006f565b61009e6100c73660046102e3565b610141565b6000546001600160a01b031633146100ff5760405162461bcd60e51b81526004016100f690610313565b60405180910390fd5b610108816101df565b50565b6000546001600160a01b031633146101355760405162461bcd60e51b81526004016100f690610313565b61013f6000610293565b565b6000546001600160a01b0316331461016b5760405162461bcd60e51b81526004016100f690610313565b6001600160a01b0381166101d05760405162461bcd60e51b815260206004820152602660248201527f4f776e61626c653a206e6577206f776e657220697320746865207a65726f206160448201526564647265737360d01b60648201526084016100f6565b61010881610293565b3b151590565b803b6102495760405162461bcd60e51b815260206004820152603360248201527f5570677261646561626c65426561636f6e3a20696d706c656d656e746174696f6044820152721b881a5cc81b9bdd08184818dbdb9d1c9858dd606a1b60648201526084016100f6565b600180546001600160a01b0319166001600160a01b0383169081179091556040517fbc7cd75a20ee27fd9adebab32041f755214dbc6bffa90cc0225b39da2e5c2d3b90600090a250565b600080546001600160a01b038381166001600160a01b0319831681178455604051919092169283917f8be0079c531659141344cd1fd0a4f28419497f9722a3daafe3b4186f6b6457e09190a35050565b6000602082840312156102f557600080fd5b81356001600160a01b038116811461030c57600080fd5b9392505050565b6020808252818101527f4f776e61626c653a2063616c6c6572206973206e6f7420746865206f776e657260408201526060019056fea2646970667358221220a597c0cf29dbfd094990df3e8b3c13dce409639173ef37d77d7f9336775b801464736f6c634300080c0033",
  "devdoc": {
    "kind": "dev",
    "methods": {
      "constructor": {
        "params": {
          "implementationAddress": "The address all beaconProxies will delegatecall to."
        }
      },
      "owner()": {
        "details": "Returns the address of the current owner."
      },
      "renounceOwnership()": {
        "details": "Leaves the contract without owner. It will not be possible to call `onlyOwner` functions anymore. Can only be called by the current owner. NOTE: Renouncing ownership will leave the contract without an owner, thereby removing any functionality that is only available to the owner."
      },
      "transferOwnership(address)": {
        "details": "Transfers ownership of the contract to a new account (`newOwner`). Can only be called by the current owner."
      },
      "upgradeImplementationTo(address)": {
        "details": "Upgrades the implementation address of the beacon or the address that the beacon points to.",
        "params": {
          "newImplementation": "Address of implementation that the beacon should be upgraded to."
        }
      }
    },
    "stateVariables": {
      "implementation": {
        "details": "Current implementation address for this beacon,      i.e. the address which all beacon proxies will delegatecall to."
      }
    },
    "version": 1
  },
  "userdoc": {
    "kind": "user",
    "methods": {},
    "version": 1
  },
  "storageLayout": {
    "storage": [
      {
        "astId": 11014,
        "contract": "contracts/Beacon.sol:Beacon",
        "label": "_owner",
        "offset": 0,
        "slot": "0",
        "type": "t_address"
      },
      {
        "astId": 15242,
        "contract": "contracts/Beacon.sol:Beacon",
        "label": "implementation",
        "offset": 0,
        "slot": "1",
        "type": "t_address"
      }
    ],
    "types": {
      "t_address": {
        "encoding": "inplace",
        "label": "address",
        "numberOfBytes": "20"
      }
    }
  }
}