{
  "address": "0x2DBca2283f74cB663d1E0E7A85dFf46938B24c87",
  "abi": [
    {
      "inputs": [],
      "stateMutability": "nonpayable",
      "type": "constructor"
    },
    {
      "anonymous": false,
      "inputs": [
        {
          "indexed": false,
          "internalType": "address",
          "name": "previousAdmin",
          "type": "address"
        },
        {
          "indexed": false,
          "internalType": "address",
          "name": "newAdmin",
          "type": "address"
        }
      ],
      "name": "AdminChanged",
      "type": "event"
    },
    {
      "anonymous": false,
      "inputs": [
        {
          "indexed": true,
          "internalType": "address",
          "name": "beacon",
          "type": "address"
        }
      ],
      "name": "BeaconUpgraded",
      "type": "event"
    },
    {
      "anonymous": false,
      "inputs": [
        {
          "indexed": false,
          "internalType": "bytes32",
          "name": "hash",
          "type": "bytes32"
        },
        {
          "indexed": false,
          "internalType": "string",
          "name": "bundle",
          "type": "string"
        },
        {
          "indexed": false,
          "internalType": "string",
          "name": "host",
          "type": "string"
        },
        {
          "indexed": false,
          "internalType": "string",
          "name": "source",
          "type": "string"
        },
        {
          "indexed": false,
          "internalType": "string",
          "name": "output",
          "type": "string"
        },
        {
          "indexed": false,
          "internalType": "string",
          "name": "infoHash",
          "type": "string"
        },
        {
          "indexed": false,
          "internalType": "bool",
          "name": "active",
          "type": "bool"
        },
        {
          "indexed": false,
          "internalType": "address",
          "name": "creator",
          "type": "address"
        }
      ],
      "name": "BundleRegistered",
      "type": "event"
    },
    {
      "anonymous": false,
      "inputs": [
        {
          "indexed": false,
          "internalType": "bytes32",
          "name": "hash",
          "type": "bytes32"
        },
        {
          "indexed": false,
          "internalType": "bool",
          "name": "toggle",
          "type": "bool"
        }
      ],
      "name": "BundleStateChange",
      "type": "event"
    },
    {
      "anonymous": false,
      "inputs": [
        {
          "indexed": true,
          "internalType": "address",
          "name": "previousOwner",
          "type": "address"
        },
        {
          "indexed": true,
          "internalType": "address",
          "name": "newOwner",
          "type": "address"
        }
      ],
      "name": "OwnershipTransferred",
      "type": "event"
    },
    {
      "anonymous": false,
      "inputs": [
        {
          "indexed": false,
          "internalType": "address",
          "name": "account",
          "type": "address"
        }
      ],
      "name": "Paused",
      "type": "event"
    },
    {
      "anonymous": false,
      "inputs": [
        {
          "indexed": false,
          "internalType": "address",
          "name": "account",
          "type": "address"
        }
      ],
      "name": "Unpaused",
      "type": "event"
    },
    {
      "anonymous": false,
      "inputs": [
        {
          "indexed": true,
          "internalType": "address",
          "name": "implementation",
          "type": "address"
        }
      ],
      "name": "Upgraded",
      "type": "event"
    },
    {
      "inputs": [
        {
          "internalType": "bytes32",
          "name": "",
          "type": "bytes32"
        }
      ],
      "name": "bundles",
      "outputs": [
        {
          "internalType": "string",
          "name": "bundle",
          "type": "string"
        },
        {
          "internalType": "string",
          "name": "source",
          "type": "string"
        },
        {
          "internalType": "string",
          "name": "host",
          "type": "string"
        },
        {
          "internalType": "string",
          "name": "output",
          "type": "string"
        },
        {
          "internalType": "string",
          "name": "info",
          "type": "string"
        },
        {
          "internalType": "bool",
          "name": "active",
          "type": "bool"
        },
        {
          "internalType": "address",
          "name": "author",
          "type": "address"
        }
      ],
      "stateMutability": "view",
      "type": "function"
    },
    {
      "inputs": [],
      "name": "initialize",
      "outputs": [],
      "stateMutability": "nonpayable",
      "type": "function"
    },
    {
      "inputs": [],
      "name": "owner",
      "outputs": [
        {
          "internalType": "address",
          "name": "",
          "type": "address"
        }
      ],
      "stateMutability": "view",
      "type": "function"
    },
    {
      "inputs": [],
      "name": "pause",
      "outputs": [],
      "stateMutability": "nonpayable",
      "type": "function"
    },
    {
      "inputs": [],
      "name": "paused",
      "outputs": [
        {
          "internalType": "bool",
          "name": "",
          "type": "bool"
        }
      ],
      "stateMutability": "view",
      "type": "function"
    },
    {
      "inputs": [
        {
          "internalType": "string",
          "name": "_bundle",
          "type": "string"
        },
        {
          "internalType": "string",
          "name": "_source",
          "type": "string"
        },
        {
          "internalType": "string",
          "name": "_host",
          "type": "string"
        },
        {
          "internalType": "string",
          "name": "_output",
          "type": "string"
        },
        {
          "internalType": "string",
          "name": "_infoHash",
          "type": "string"
        },
        {
          "internalType": "bool",
          "name": "_active",
          "type": "bool"
        }
      ],
      "name": "register",
      "outputs": [],
      "stateMutability": "nonpayable",
      "type": "function"
    },
    {
      "inputs": [],
      "name": "renounceOwnership",
      "outputs": [],
      "stateMutability": "nonpayable",
      "type": "function"
    },
    {
      "inputs": [
        {
          "internalType": "bytes32",
          "name": "_adapter",
          "type": "bytes32"
        },
        {
          "internalType": "bool",
          "name": "_remainActive",
          "type": "bool"
        }
      ],
      "name": "setAdapterState",
      "outputs": [],
      "stateMutability": "nonpayable",
      "type": "function"
    },
    {
      "inputs": [
        {
          "internalType": "address",
          "name": "newOwner",
          "type": "address"
        }
      ],
      "name": "transferOwnership",
      "outputs": [],
      "stateMutability": "nonpayable",
      "type": "function"
    },
    {
      "inputs": [
        {
          "internalType": "address",
          "name": "newImplementation",
          "type": "address"
        }
      ],
      "name": "upgradeTo",
      "outputs": [],
      "stateMutability": "nonpayable",
      "type": "function"
    },
    {
      "inputs": [
        {
          "internalType": "address",
          "name": "newImplementation",
          "type": "address"
        },
        {
          "internalType": "bytes",
          "name": "data",
          "type": "bytes"
        }
      ],
      "name": "upgradeToAndCall",
      "outputs": [],
      "stateMutability": "payable",
      "type": "function"
    }
  ],
  "transactionHash": "0xeed22bd788083c4db8e5e244899060e2f1b48812ed8f2584bb3ef4f314aa2b70",
  "args": [],
  "numDeployments": 1,
  "solcInputHash": "412a8f2cb6c64662ec4ec37c56f333b9",
  "bytecode": "0x60a0604052306080523480156200001557600080fd5b50600054610100900460ff16620000335760005460ff16156200003d565b6200003d620000e2565b620000a55760405162461bcd60e51b815260206004820152602e60248201527f496e697469616c697a61626c653a20636f6e747261637420697320616c72656160448201526d191e481a5b9a5d1a585b1a5e995960921b606482015260840160405180910390fd5b600054610100900460ff16158015620000c8576000805461ffff19166101011790555b8015620000db576000805461ff00191690555b5062000106565b6000620000fa306200010060201b62000b6d1760201c565b15905090565b3b151590565b608051611aff62000137600039600081816102030152818161024c015281816102d501526103150152611aff6000f3fe60806040526004361061009c5760003560e01c80638456cb59116100645780638456cb59146101285780638da5cb5b1461013d57806393862c3b14610165578063bb33fc5a14610198578063e46ce338146101b8578063f2fde38b146101d857600080fd5b80633659cfe6146100a15780634f1ef286146100c35780635c975abb146100d6578063715018a6146100fe5780638129fc1c14610113575b600080fd5b3480156100ad57600080fd5b506100c16100bc3660046114e1565b6101f8565b005b6100c16100d1366004611588565b6102ca565b3480156100e257600080fd5b5060c95460ff1660405190151581526020015b60405180910390f35b34801561010a57600080fd5b506100c1610384565b34801561011f57600080fd5b506100c16103ba565b34801561013457600080fd5b506100c161048a565b34801561014957600080fd5b506033546040516001600160a01b0390911681526020016100f5565b34801561017157600080fd5b506101856101803660046115ea565b6104bc565b6040516100f5979695949392919061165f565b3480156101a457600080fd5b506100c16101b3366004611715565b6107ac565b3480156101c457600080fd5b506100c16101d33660046117f6565b610a4f565b3480156101e457600080fd5b506100c16101f33660046114e1565b610ad5565b306001600160a01b037f000000000000000000000000000000000000000000000000000000000000000016141561024a5760405162461bcd60e51b815260040161024190611822565b60405180910390fd5b7f00000000000000000000000000000000000000000000000000000000000000006001600160a01b031661027c610b73565b6001600160a01b0316146102a25760405162461bcd60e51b81526004016102419061186e565b6102ab81610ba1565b604080516000808252602082019092526102c791839190610bcb565b50565b306001600160a01b037f00000000000000000000000000000000000000000000000000000000000000001614156103135760405162461bcd60e51b815260040161024190611822565b7f00000000000000000000000000000000000000000000000000000000000000006001600160a01b0316610345610b73565b6001600160a01b03161461036b5760405162461bcd60e51b81526004016102419061186e565b61037482610ba1565b61038082826001610bcb565b5050565b6033546001600160a01b031633146103ae5760405162461bcd60e51b8152600401610241906118ba565b6103b86000610d16565b565b600054610100900460ff166103d55760005460ff16156103d9565b303b155b61043c5760405162461bcd60e51b815260206004820152602e60248201527f496e697469616c697a61626c653a20636f6e747261637420697320616c72656160448201526d191e481a5b9a5d1a585b1a5e995960921b6064820152608401610241565b600054610100900460ff1615801561045e576000805461ffff19166101011790555b610466610d68565b61046e610d9f565b610476610dd6565b80156102c7576000805461ff001916905550565b6033546001600160a01b031633146104b45760405162461bcd60e51b8152600401610241906118ba565b6103b8610e0d565b60fb602052600090815260409020805481906104d7906118ef565b80601f0160208091040260200160405190810160405280929190818152602001828054610503906118ef565b80156105505780601f1061052557610100808354040283529160200191610550565b820191906000526020600020905b81548152906001019060200180831161053357829003601f168201915b505050505090806001018054610565906118ef565b80601f0160208091040260200160405190810160405280929190818152602001828054610591906118ef565b80156105de5780601f106105b3576101008083540402835291602001916105de565b820191906000526020600020905b8154815290600101906020018083116105c157829003601f168201915b5050505050908060020180546105f3906118ef565b80601f016020809104026020016040519081016040528092919081815260200182805461061f906118ef565b801561066c5780601f106106415761010080835404028352916020019161066c565b820191906000526020600020905b81548152906001019060200180831161064f57829003601f168201915b505050505090806003018054610681906118ef565b80601f01602080910402602001604051908101604052809291908181526020018280546106ad906118ef565b80156106fa5780601f106106cf576101008083540402835291602001916106fa565b820191906000526020600020905b8154815290600101906020018083116106dd57829003601f168201915b50505050509080600401805461070f906118ef565b80601f016020809104026020016040519081016040528092919081815260200182805461073b906118ef565b80156107885780601f1061075d57610100808354040283529160200191610788565b820191906000526020600020905b81548152906001019060200180831161076b57829003601f168201915b5050506005909301549192505060ff8116906001600160a01b036101009091041687565b60c95460ff16156107f25760405162461bcd60e51b815260206004820152601060248201526f14185d5cd8589b194e881c185d5cd95960821b6044820152606401610241565b6107fb86610ea5565b6108475760405162461bcd60e51b815260206004820152601f60248201527f42756e646c65206d75737420626520616e2049504653204349442068617368006044820152606401610241565b600086868686604051602001610860949392919061192a565b60408051601f198184030181529181528151602092830120600081815260fb90935291206005015490915061010090046001600160a01b0316156108e65760405162461bcd60e51b815260206004820152601960248201527f42756e646c6520616c72656164792072656769737465726564000000000000006044820152606401610241565b6040518060e00160405280888152602001878152602001868152602001858152602001848152602001831515815260200161091e3390565b6001600160a01b03169052600082815260fb6020908152604090912082518051919261094f9284929091019061142c565b506020828101518051610968926001850192019061142c565b506040820151805161098491600284019160209091019061142c565b50606082015180516109a091600384019160209091019061142c565b50608082015180516109bc91600484019160209091019061142c565b5060a08201516005909101805460c0909301516001600160a01b031661010002610100600160a81b0319921515929092166001600160a81b0319909316929092171790556040517f5fefd2860204ab13d9368d6ab8443f8309bb482e9a1e8e0bc446b23bec45526a90610a3e9083908a9089908b908a908a908a903390611982565b60405180910390a150505050505050565b6033546001600160a01b03163314610a795760405162461bcd60e51b8152600401610241906118ba565b600082815260fb6020908152604091829020600501805460ff19168415159081179091558251858152918201527fc80d6f7f8fc35e11b52ccc6cf7c43f25a29550fa950ab77a857c56557d065faf910160405180910390a15050565b6033546001600160a01b03163314610aff5760405162461bcd60e51b8152600401610241906118ba565b6001600160a01b038116610b645760405162461bcd60e51b815260206004820152602660248201527f4f776e61626c653a206e6577206f776e657220697320746865207a65726f206160448201526564647265737360d01b6064820152608401610241565b6102c781610d16565b3b151590565b7f360894a13ba1a3210667c828492db98dca3e2076cc3735a920a3ca505d382bbc546001600160a01b031690565b6033546001600160a01b031633146102c75760405162461bcd60e51b8152600401610241906118ba565b6000610bd5610b73565b9050610be084611192565b600083511180610bed5750815b15610bfe57610bfc8484611237565b505b7f4910fdfa16fed3260ed0e7147f7cc6da11a60208b5b9406d12a635614ffd9143805460ff16610d0f57805460ff191660011781556040516001600160a01b0383166024820152610c7d90869060440160408051601f198184030181529190526020810180516001600160e01b0316631b2ce7f360e11b179052611237565b50805460ff19168155610c8e610b73565b6001600160a01b0316826001600160a01b031614610d065760405162461bcd60e51b815260206004820152602f60248201527f45524331393637557067726164653a207570677261646520627265616b73206660448201526e75727468657220757067726164657360881b6064820152608401610241565b610d0f85611322565b5050505050565b603380546001600160a01b038381166001600160a01b0319831681179093556040519116919082907f8be0079c531659141344cd1fd0a4f28419497f9722a3daafe3b4186f6b6457e090600090a35050565b600054610100900460ff16610d8f5760405162461bcd60e51b815260040161024190611a12565b610d97611362565b6103b8611362565b600054610100900460ff16610dc65760405162461bcd60e51b815260040161024190611a12565b610dce611362565b6103b8611389565b600054610100900460ff16610dfd5760405162461bcd60e51b815260040161024190611a12565b610e05611362565b6103b86113b9565b60c95460ff1615610e535760405162461bcd60e51b815260206004820152601060248201526f14185d5cd8589b194e881c185d5cd95960821b6044820152606401610241565b60c9805460ff191660011790557f62e78cea01bee320cd4e420270b5ea74000d11b0c9f74754ebdbfc544b05a258610e883390565b6040516001600160a01b03909116815260200160405180910390a1565b80516000908290602e14610ee45760405162461bcd60e51b8152602060048201526006602482015265098cadccee8d60d31b6044820152606401610241565b604080516001808252818301909252600091602082018180368337505060408051600180825281830190925292935060009291506020820181803683375050604080516001808252818301909252929350600092915060208201818036833701905050905083600081518110610f5c57610f5c611a5d565b602001015160f81c60f81b83600081518110610f7a57610f7a611a5d565b60200101906001600160f81b031916908160001a90535083600181518110610fa457610fa4611a5d565b602001015160f81c60f81b82600081518110610fc257610fc2611a5d565b60200101906001600160f81b031916908160001a90535083602d81518110610fec57610fec611a5d565b602001015160f81c60f81b8160008151811061100a5761100a611a5d565b60200101906001600160f81b031916908160001a9053506040805180820190915260018152605160f81b6020918201528351908401207ffbf3cc6079e09a6a2a778706898aef91b633ff613801d212e0afe7f411ddb1d21480156110ab57506040805180820190915260018152606d60f81b6020918201528251908301207fdaba8c984363447d18bf8210079973ac8fc1ce76864315b5baacf246bf6e72f6145b801561118857506040805180820190915260018152604f60f81b6020918201528151908201207fc669aa98d5975cc43653c879a18d9bc4aa8bf51e69f61aeb1d7769216f98009a1480159061113e57506040805180820190915260018152604960f81b6020918201528151908201207f8d61ecf6e15472e15b1a0f63cd77f62aa57e6edcd3871d7a841f1056fb42b21614155b801561118857506040805180820190915260018152601b60fa1b6020918201528151908201207f6a0d259bd4fb907339fd7c65a133083c1e9554f2ca6325b806612c8df6d7df2214155b9695505050505050565b803b6111f65760405162461bcd60e51b815260206004820152602d60248201527f455243313936373a206e657720696d706c656d656e746174696f6e206973206e60448201526c1bdd08184818dbdb9d1c9858dd609a1b6064820152608401610241565b7f360894a13ba1a3210667c828492db98dca3e2076cc3735a920a3ca505d382bbc80546001600160a01b0319166001600160a01b0392909216919091179055565b6060823b6112965760405162461bcd60e51b815260206004820152602660248201527f416464726573733a2064656c65676174652063616c6c20746f206e6f6e2d636f6044820152651b9d1c9858dd60d21b6064820152608401610241565b600080846001600160a01b0316846040516112b19190611a73565b600060405180830381855af49150503d80600081146112ec576040519150601f19603f3d011682016040523d82523d6000602084013e6112f1565b606091505b50915091506113198282604051806060016040528060278152602001611aa3602791396113ec565b95945050505050565b61132b81611192565b6040516001600160a01b038216907fbc7cd75a20ee27fd9adebab32041f755214dbc6bffa90cc0225b39da2e5c2d3b90600090a250565b600054610100900460ff166103b85760405162461bcd60e51b815260040161024190611a12565b600054610100900460ff166113b05760405162461bcd60e51b815260040161024190611a12565b6103b833610d16565b600054610100900460ff166113e05760405162461bcd60e51b815260040161024190611a12565b60c9805460ff19169055565b606083156113fb575081611425565b82511561140b5782518084602001fd5b8160405162461bcd60e51b81526004016102419190611a8f565b9392505050565b828054611438906118ef565b90600052602060002090601f01602090048101928261145a57600085556114a0565b82601f1061147357805160ff19168380011785556114a0565b828001600101855582156114a0579182015b828111156114a0578251825591602001919060010190611485565b506114ac9291506114b0565b5090565b5b808211156114ac57600081556001016114b1565b80356001600160a01b03811681146114dc57600080fd5b919050565b6000602082840312156114f357600080fd5b611425826114c5565b634e487b7160e01b600052604160045260246000fd5b600067ffffffffffffffff8084111561152d5761152d6114fc565b604051601f8501601f19908116603f01168101908282118183101715611555576115556114fc565b8160405280935085815286868601111561156e57600080fd5b858560208301376000602087830101525050509392505050565b6000806040838503121561159b57600080fd5b6115a4836114c5565b9150602083013567ffffffffffffffff8111156115c057600080fd5b8301601f810185136115d157600080fd5b6115e085823560208401611512565b9150509250929050565b6000602082840312156115fc57600080fd5b5035919050565b60005b8381101561161e578181015183820152602001611606565b8381111561162d576000848401525b50505050565b6000815180845261164b816020860160208601611603565b601f01601f19169290920160200192915050565b60e08152600061167260e083018a611633565b8281036020840152611684818a611633565b905082810360408401526116988189611633565b905082810360608401526116ac8188611633565b905082810360808401526116c08187611633565b94151560a084015250506001600160a01b039190911660c09091015295945050505050565b600082601f8301126116f657600080fd5b61142583833560208501611512565b803580151581146114dc57600080fd5b60008060008060008060c0878903121561172e57600080fd5b863567ffffffffffffffff8082111561174657600080fd5b6117528a838b016116e5565b9750602089013591508082111561176857600080fd5b6117748a838b016116e5565b9650604089013591508082111561178a57600080fd5b6117968a838b016116e5565b955060608901359150808211156117ac57600080fd5b6117b88a838b016116e5565b945060808901359150808211156117ce57600080fd5b506117db89828a016116e5565b9250506117ea60a08801611705565b90509295509295509295565b6000806040838503121561180957600080fd5b8235915061181960208401611705565b90509250929050565b6020808252602c908201527f46756e6374696f6e206d7573742062652063616c6c6564207468726f7567682060408201526b19195b1959d85d1958d85b1b60a21b606082015260800190565b6020808252602c908201527f46756e6374696f6e206d7573742062652063616c6c6564207468726f7567682060408201526b6163746976652070726f787960a01b606082015260800190565b6020808252818101527f4f776e61626c653a2063616c6c6572206973206e6f7420746865206f776e6572604082015260600190565b600181811c9082168061190357607f821691505b6020821081141561192457634e487b7160e01b600052602260045260246000fd5b50919050565b60808152600061193d6080830187611633565b828103602084015261194f8187611633565b905082810360408401526119638186611633565b905082810360608401526119778185611633565b979650505050505050565b60006101008a835280602084015261199c8184018b611633565b905082810360408401526119b0818a611633565b905082810360608401526119c48189611633565b905082810360808401526119d88188611633565b905082810360a08401526119ec8187611633565b94151560c084015250506001600160a01b039190911660e0909101529695505050505050565b6020808252602b908201527f496e697469616c697a61626c653a20636f6e7472616374206973206e6f74206960408201526a6e697469616c697a696e6760a81b606082015260800190565b634e487b7160e01b600052603260045260246000fd5b60008251611a85818460208701611603565b9190910192915050565b602081526000611425602083018461163356fe416464726573733a206c6f772d6c6576656c2064656c65676174652063616c6c206661696c6564a2646970667358221220ac129df6c2a6a71b0120b9ba27ef15b08b208d2405a8dc410b3573ad50b78ca564736f6c634300080c0033",
  "devdoc": {
    "kind": "dev",
    "methods": {
      "constructor": {
        "custom:oz-upgrades-unsafe-allow": "constructor"
      },
      "owner()": {
        "details": "Returns the address of the current owner."
      },
      "pause()": {
        "details": "Pauses the registeration of bundles"
      },
      "paused()": {
        "details": "Returns true if the contract is paused, and false otherwise."
      },
      "register(string,string,string,string,string,bool)": {
        "details": "Registers an execution bundle, making data accessible to nodes.      Once registered, each bundle is immutable.      Only the contract owner can change it, and they can only      deactivate/reactivate it if necessary.",
        "params": {
          "_active": "Determines if the adapter is active or not, allows for inactive sources                to be deprecated, vaults can pause based on this",
          "_bundle": "The bundle of the transformation module.",
          "_host": "The host of the transformation module source (e.g. \"Uniswap\" or \"@random-twitter-username\")",
          "_output": "The output type of the adapter, example: OHLC, OHLCV, SingleValue, etc.",
          "_source": "The source of the transformation module source (e.g. \"The Graph\" or \"Twitter\")"
        }
      },
      "renounceOwnership()": {
        "details": "Leaves the contract without owner. It will not be possible to call `onlyOwner` functions anymore. Can only be called by the current owner. NOTE: Renouncing ownership will leave the contract without an owner, thereby removing any functionality that is only available to the owner."
      },
      "setAdapterState(bytes32,bool)": {
        "details": "onlyOwner function to deprecate (or reactivate) an existing adapter.",
        "params": {
          "_adapter": "The key of the adapter to pause.",
          "_remainActive": "Whether to pause or unpause; false to pause."
        }
      },
      "transferOwnership(address)": {
        "details": "Transfers ownership of the contract to a new account (`newOwner`). Can only be called by the current owner."
      },
      "upgradeTo(address)": {
        "details": "Upgrade the implementation of the proxy to `newImplementation`. Calls {_authorizeUpgrade}. Emits an {Upgraded} event."
      },
      "upgradeToAndCall(address,bytes)": {
        "details": "Upgrade the implementation of the proxy to `newImplementation`, and subsequently execute the function call encoded in `data`. Calls {_authorizeUpgrade}. Emits an {Upgraded} event."
      }
    },
    "version": 1
  },
  "userdoc": {
    "kind": "user",
    "methods": {},
    "version": 1
  },
  "storageLayout": {
    "storage": [
      {
        "astId": 1030,
        "contract": "contracts/BundleRegistry.sol:BundleRegistry",
        "label": "_initialized",
        "offset": 0,
        "slot": "0",
        "type": "t_bool"
      },
      {
        "astId": 1033,
        "contract": "contracts/BundleRegistry.sol:BundleRegistry",
        "label": "_initializing",
        "offset": 1,
        "slot": "0",
        "type": "t_bool"
      },
      {
        "astId": 5274,
        "contract": "contracts/BundleRegistry.sol:BundleRegistry",
        "label": "__gap",
        "offset": 0,
        "slot": "1",
        "type": "t_array(t_uint256)50_storage"
      },
      {
        "astId": 420,
        "contract": "contracts/BundleRegistry.sol:BundleRegistry",
        "label": "_owner",
        "offset": 0,
        "slot": "51",
        "type": "t_address"
      },
      {
        "astId": 534,
        "contract": "contracts/BundleRegistry.sol:BundleRegistry",
        "label": "__gap",
        "offset": 0,
        "slot": "52",
        "type": "t_array(t_uint256)49_storage"
      },
      {
        "astId": 1012,
        "contract": "contracts/BundleRegistry.sol:BundleRegistry",
        "label": "__gap",
        "offset": 0,
        "slot": "101",
        "type": "t_array(t_uint256)50_storage"
      },
      {
        "astId": 1207,
        "contract": "contracts/BundleRegistry.sol:BundleRegistry",
        "label": "__gap",
        "offset": 0,
        "slot": "151",
        "type": "t_array(t_uint256)50_storage"
      },
      {
        "astId": 1229,
        "contract": "contracts/BundleRegistry.sol:BundleRegistry",
        "label": "_paused",
        "offset": 0,
        "slot": "201",
        "type": "t_bool"
      },
      {
        "astId": 1320,
        "contract": "contracts/BundleRegistry.sol:BundleRegistry",
        "label": "__gap",
        "offset": 0,
        "slot": "202",
        "type": "t_array(t_uint256)49_storage"
      },
      {
        "astId": 8818,
        "contract": "contracts/BundleRegistry.sol:BundleRegistry",
        "label": "bundles",
        "offset": 0,
        "slot": "251",
        "type": "t_mapping(t_bytes32,t_struct(DataSourceAdapter)14957_storage)"
      }
    ],
    "types": {
      "t_address": {
        "encoding": "inplace",
        "label": "address",
        "numberOfBytes": "20"
      },
      "t_array(t_uint256)49_storage": {
        "base": "t_uint256",
        "encoding": "inplace",
        "label": "uint256[49]",
        "numberOfBytes": "1568"
      },
      "t_array(t_uint256)50_storage": {
        "base": "t_uint256",
        "encoding": "inplace",
        "label": "uint256[50]",
        "numberOfBytes": "1600"
      },
      "t_bool": {
        "encoding": "inplace",
        "label": "bool",
        "numberOfBytes": "1"
      },
      "t_bytes32": {
        "encoding": "inplace",
        "label": "bytes32",
        "numberOfBytes": "32"
      },
      "t_mapping(t_bytes32,t_struct(DataSourceAdapter)14957_storage)": {
        "encoding": "mapping",
        "key": "t_bytes32",
        "label": "mapping(bytes32 => struct IBundleRegistry.DataSourceAdapter)",
        "numberOfBytes": "32",
        "value": "t_struct(DataSourceAdapter)14957_storage"
      },
      "t_string_storage": {
        "encoding": "bytes",
        "label": "string",
        "numberOfBytes": "32"
      },
      "t_struct(DataSourceAdapter)14957_storage": {
        "encoding": "inplace",
        "label": "struct IBundleRegistry.DataSourceAdapter",
        "members": [
          {
            "astId": 14944,
            "contract": "contracts/BundleRegistry.sol:BundleRegistry",
            "label": "bundle",
            "offset": 0,
            "slot": "0",
            "type": "t_string_storage"
          },
          {
            "astId": 14946,
            "contract": "contracts/BundleRegistry.sol:BundleRegistry",
            "label": "source",
            "offset": 0,
            "slot": "1",
            "type": "t_string_storage"
          },
          {
            "astId": 14948,
            "contract": "contracts/BundleRegistry.sol:BundleRegistry",
            "label": "host",
            "offset": 0,
            "slot": "2",
            "type": "t_string_storage"
          },
          {
            "astId": 14950,
            "contract": "contracts/BundleRegistry.sol:BundleRegistry",
            "label": "output",
            "offset": 0,
            "slot": "3",
            "type": "t_string_storage"
          },
          {
            "astId": 14952,
            "contract": "contracts/BundleRegistry.sol:BundleRegistry",
            "label": "info",
            "offset": 0,
            "slot": "4",
            "type": "t_string_storage"
          },
          {
            "astId": 14954,
            "contract": "contracts/BundleRegistry.sol:BundleRegistry",
            "label": "active",
            "offset": 0,
            "slot": "5",
            "type": "t_bool"
          },
          {
            "astId": 14956,
            "contract": "contracts/BundleRegistry.sol:BundleRegistry",
            "label": "author",
            "offset": 1,
            "slot": "5",
            "type": "t_address"
          }
        ],
        "numberOfBytes": "192"
      },
      "t_uint256": {
        "encoding": "inplace",
        "label": "uint256",
        "numberOfBytes": "32"
      }
    }
  }
}