{
  "address": "0x4ab80804ba9CB98A110078957310007f9Ad9b784",
  "abi": [
    {
      "anonymous": false,
      "inputs": [
        {
          "indexed": false,
          "internalType": "address",
          "name": "previousAdmin",
          "type": "address"
        },
        {
          "indexed": false,
          "internalType": "address",
          "name": "newAdmin",
          "type": "address"
        }
      ],
      "name": "AdminChanged",
      "type": "event"
    },
    {
      "anonymous": false,
      "inputs": [
        {
          "indexed": true,
          "internalType": "address",
          "name": "beacon",
          "type": "address"
        }
      ],
      "name": "BeaconUpgraded",
      "type": "event"
    },
    {
      "anonymous": false,
      "inputs": [
        {
          "indexed": true,
          "internalType": "address",
          "name": "previousOwner",
          "type": "address"
        },
        {
          "indexed": true,
          "internalType": "address",
          "name": "newOwner",
          "type": "address"
        }
      ],
      "name": "OwnershipTransferred",
      "type": "event"
    },
    {
      "anonymous": false,
      "inputs": [
        {
          "indexed": true,
          "internalType": "address",
          "name": "implementation",
          "type": "address"
        }
      ],
      "name": "Upgraded",
      "type": "event"
    },
    {
      "inputs": [
        {
          "internalType": "uint256",
          "name": "newNum",
          "type": "uint256"
        }
      ],
      "name": "changeNum",
      "outputs": [],
      "stateMutability": "nonpayable",
      "type": "function"
    },
    {
      "inputs": [
        {
          "internalType": "uint256",
          "name": "",
          "type": "uint256"
        }
      ],
      "name": "gasInTransaction",
      "outputs": [
        {
          "internalType": "uint256",
          "name": "",
          "type": "uint256"
        }
      ],
      "stateMutability": "view",
      "type": "function"
    },
    {
      "inputs": [],
      "name": "gasVault",
      "outputs": [
        {
          "internalType": "contract IGasVault",
          "name": "",
          "type": "address"
        }
      ],
      "stateMutability": "view",
      "type": "function"
    },
    {
      "inputs": [
        {
          "internalType": "address",
          "name": "",
          "type": "address"
        },
        {
          "internalType": "address",
          "name": "_steer",
          "type": "address"
        },
        {
          "internalType": "address",
          "name": "",
          "type": "address"
        },
        {
          "internalType": "bytes",
          "name": "",
          "type": "bytes"
        }
      ],
      "name": "initialize",
      "outputs": [],
      "stateMutability": "nonpayable",
      "type": "function"
    },
    {
      "inputs": [],
      "name": "num",
      "outputs": [
        {
          "internalType": "uint256",
          "name": "",
          "type": "uint256"
        }
      ],
      "stateMutability": "view",
      "type": "function"
    },
    {
      "inputs": [],
      "name": "owner",
      "outputs": [
        {
          "internalType": "address",
          "name": "",
          "type": "address"
        }
      ],
      "stateMutability": "view",
      "type": "function"
    },
    {
      "inputs": [],
      "name": "recordGas",
      "outputs": [],
      "stateMutability": "nonpayable",
      "type": "function"
    },
    {
      "inputs": [],
      "name": "renounceOwnership",
      "outputs": [],
      "stateMutability": "nonpayable",
      "type": "function"
    },
    {
      "inputs": [],
      "name": "setNumTo50",
      "outputs": [],
      "stateMutability": "nonpayable",
      "type": "function"
    },
    {
      "inputs": [
        {
          "internalType": "uint256",
          "name": "firstNum",
          "type": "uint256"
        },
        {
          "internalType": "uint256",
          "name": "secondNum",
          "type": "uint256"
        }
      ],
      "name": "setNumToMultiple",
      "outputs": [],
      "stateMutability": "nonpayable",
      "type": "function"
    },
    {
      "inputs": [
        {
          "internalType": "address",
          "name": "newOwner",
          "type": "address"
        }
      ],
      "name": "transferOwnership",
      "outputs": [],
      "stateMutability": "nonpayable",
      "type": "function"
    },
    {
      "inputs": [
        {
          "internalType": "address",
          "name": "newImplementation",
          "type": "address"
        }
      ],
      "name": "upgradeTo",
      "outputs": [],
      "stateMutability": "nonpayable",
      "type": "function"
    },
    {
      "inputs": [
        {
          "internalType": "address",
          "name": "newImplementation",
          "type": "address"
        },
        {
          "internalType": "bytes",
          "name": "data",
          "type": "bytes"
        }
      ],
      "name": "upgradeToAndCall",
      "outputs": [],
      "stateMutability": "payable",
      "type": "function"
    }
  ],
  "transactionHash": "0xbcc37fe74430e3399155075474c9f38f6127dc35dfaf015a82ab1110e9d052c6",
  "args": [],
  "numDeployments": 1,
  "solcInputHash": "4d3e56af63bf54cf90ac1bc35cfb9eec",
  "bytecode": "0x60a06040523060805234801561001457600080fd5b50608051610ed561004560003960008181610376015281816103b60152818161043f015261047f0152610ed56000f3fe6080604052600436106100c25760003560e01c80636f62f0be1161007f578063899d286511610059578063899d2865146101cf5780638da5cb5b146101e6578063a6f4724f14610218578063f2fde38b1461023857600080fd5b80636f62f0be14610185578063715018a61461019a5780637682b697146101af57600080fd5b806314050df7146100c7578063246581f7146100fa5780632b3113371461011c5780633659cfe61461013c5780634e70b1dc1461015c5780634f1ef28614610172575b600080fd5b3480156100d357600080fd5b506100e76100e2366004610ab2565b610258565b6040519081526020015b60405180910390f35b34801561010657600080fd5b5061011a610115366004610ae7565b610279565b005b34801561012857600080fd5b5061011a610137366004610ab2565b610355565b34801561014857600080fd5b5061011a610157366004610b89565b61036b565b34801561016857600080fd5b506100e760c95481565b61011a610180366004610bba565b610434565b34801561019157600080fd5b5061011a6104ee565b3480156101a657600080fd5b5061011a610509565b3480156101bb57600080fd5b5061011a6101ca366004610c7c565b61053f565b3480156101db57600080fd5b5061011a603260c955565b3480156101f257600080fd5b506033546001600160a01b03165b6040516001600160a01b0390911681526020016100f1565b34801561022457600080fd5b5060cb54610200906001600160a01b031681565b34801561024457600080fd5b5061011a610253366004610b89565b610550565b60ca818154811061026857600080fd5b600091825260209091200154905081565b600054610100900460ff166102945760005460ff1615610298565b303b155b6103005760405162461bcd60e51b815260206004820152602e60248201527f496e697469616c697a61626c653a20636f6e747261637420697320616c72656160448201526d191e481a5b9a5d1a585b1a5e995960921b60648201526084015b60405180910390fd5b600054610100900460ff16158015610322576000805461ffff19166101011790555b61032a6105e8565b61033261061f565b61033b85610656565b801561034d576000805461ff00191690555b505050505050565b8060c4141561036657610366610c9e565b60c955565b306001600160a01b037f00000000000000000000000000000000000000000000000000000000000000001614156103b45760405162461bcd60e51b81526004016102f790610cb4565b7f00000000000000000000000000000000000000000000000000000000000000006001600160a01b03166103e66106a8565b6001600160a01b03161461040c5760405162461bcd60e51b81526004016102f790610d00565b610415816106d6565b6040805160008082526020820190925261043191839190610700565b50565b306001600160a01b037f000000000000000000000000000000000000000000000000000000000000000016141561047d5760405162461bcd60e51b81526004016102f790610cb4565b7f00000000000000000000000000000000000000000000000000000000000000006001600160a01b03166104af6106a8565b6001600160a01b0316146104d55760405162461bcd60e51b81526004016102f790610d00565b6104de826106d6565b6104ea82826001610700565b5050565b60ca5a81546001810183556000928352602090922090910155565b6033546001600160a01b031633146105335760405162461bcd60e51b81526004016102f790610d4c565b61053d6000610656565b565b6105498183610d81565b60c9555050565b6033546001600160a01b0316331461057a5760405162461bcd60e51b81526004016102f790610d4c565b6001600160a01b0381166105df5760405162461bcd60e51b815260206004820152602660248201527f4f776e61626c653a206e6577206f776e657220697320746865207a65726f206160448201526564647265737360d01b60648201526084016102f7565b61043181610656565b600054610100900460ff1661060f5760405162461bcd60e51b81526004016102f790610dae565b61061761084b565b61053d61084b565b600054610100900460ff166106465760405162461bcd60e51b81526004016102f790610dae565b61064e61084b565b61053d610872565b603380546001600160a01b038381166001600160a01b0319831681179093556040519116919082907f8be0079c531659141344cd1fd0a4f28419497f9722a3daafe3b4186f6b6457e090600090a35050565b7f360894a13ba1a3210667c828492db98dca3e2076cc3735a920a3ca505d382bbc546001600160a01b031690565b6033546001600160a01b031633146104315760405162461bcd60e51b81526004016102f790610d4c565b600061070a6106a8565b9050610715846108a2565b6000835111806107225750815b15610733576107318484610947565b505b7f4910fdfa16fed3260ed0e7147f7cc6da11a60208b5b9406d12a635614ffd9143805460ff1661084457805460ff191660011781556040516001600160a01b03831660248201526107b290869060440160408051601f198184030181529190526020810180516001600160e01b0316631b2ce7f360e11b179052610947565b50805460ff191681556107c36106a8565b6001600160a01b0316826001600160a01b03161461083b5760405162461bcd60e51b815260206004820152602f60248201527f45524331393637557067726164653a207570677261646520627265616b73206660448201526e75727468657220757067726164657360881b60648201526084016102f7565b61084485610a32565b5050505050565b600054610100900460ff1661053d5760405162461bcd60e51b81526004016102f790610dae565b600054610100900460ff166108995760405162461bcd60e51b81526004016102f790610dae565b61053d33610656565b803b6109065760405162461bcd60e51b815260206004820152602d60248201527f455243313936373a206e657720696d706c656d656e746174696f6e206973206e60448201526c1bdd08184818dbdb9d1c9858dd609a1b60648201526084016102f7565b7f360894a13ba1a3210667c828492db98dca3e2076cc3735a920a3ca505d382bbc80546001600160a01b0319166001600160a01b0392909216919091179055565b6060823b6109a65760405162461bcd60e51b815260206004820152602660248201527f416464726573733a2064656c65676174652063616c6c20746f206e6f6e2d636f6044820152651b9d1c9858dd60d21b60648201526084016102f7565b600080846001600160a01b0316846040516109c19190610e29565b600060405180830381855af49150503d80600081146109fc576040519150601f19603f3d011682016040523d82523d6000602084013e610a01565b606091505b5091509150610a298282604051806060016040528060278152602001610e7960279139610a72565b95945050505050565b610a3b816108a2565b6040516001600160a01b038216907fbc7cd75a20ee27fd9adebab32041f755214dbc6bffa90cc0225b39da2e5c2d3b90600090a250565b60608315610a81575081610aab565b825115610a915782518084602001fd5b8160405162461bcd60e51b81526004016102f79190610e45565b9392505050565b600060208284031215610ac457600080fd5b5035919050565b80356001600160a01b0381168114610ae257600080fd5b919050565b600080600080600060808688031215610aff57600080fd5b610b0886610acb565b9450610b1660208701610acb565b9350610b2460408701610acb565b9250606086013567ffffffffffffffff80821115610b4157600080fd5b818801915088601f830112610b5557600080fd5b813581811115610b6457600080fd5b896020828501011115610b7657600080fd5b9699959850939650602001949392505050565b600060208284031215610b9b57600080fd5b610aab82610acb565b634e487b7160e01b600052604160045260246000fd5b60008060408385031215610bcd57600080fd5b610bd683610acb565b9150602083013567ffffffffffffffff80821115610bf357600080fd5b818501915085601f830112610c0757600080fd5b813581811115610c1957610c19610ba4565b604051601f8201601f19908116603f01168101908382118183101715610c4157610c41610ba4565b81604052828152886020848701011115610c5a57600080fd5b8260208601602083013760006020848301015280955050505050509250929050565b60008060408385031215610c8f57600080fd5b50508035926020909101359150565b634e487b7160e01b600052600160045260246000fd5b6020808252602c908201527f46756e6374696f6e206d7573742062652063616c6c6564207468726f7567682060408201526b19195b1959d85d1958d85b1b60a21b606082015260800190565b6020808252602c908201527f46756e6374696f6e206d7573742062652063616c6c6564207468726f7567682060408201526b6163746976652070726f787960a01b606082015260800190565b6020808252818101527f4f776e61626c653a2063616c6c6572206973206e6f7420746865206f776e6572604082015260600190565b6000816000190483118215151615610da957634e487b7160e01b600052601160045260246000fd5b500290565b6020808252602b908201527f496e697469616c697a61626c653a20636f6e7472616374206973206e6f74206960408201526a6e697469616c697a696e6760a81b606082015260800190565b60005b83811015610e14578181015183820152602001610dfc565b83811115610e23576000848401525b50505050565b60008251610e3b818460208701610df9565b9190910192915050565b6020815260008251806020840152610e64816040850160208701610df9565b601f01601f1916919091016040019291505056fe416464726573733a206c6f772d6c6576656c2064656c65676174652063616c6c206661696c6564a264697066735822122055d4f38f1fd32cce55b6a43a621d9d37f9d6938e9ea7d332e6d4d690a13b22cb64736f6c634300080c0033",
  "devdoc": {
    "kind": "dev",
    "methods": {
      "owner()": {
        "details": "Returns the address of the current owner."
      },
      "renounceOwnership()": {
        "details": "Leaves the contract without owner. It will not be possible to call `onlyOwner` functions anymore. Can only be called by the current owner. NOTE: Renouncing ownership will leave the contract without an owner, thereby removing any functionality that is only available to the owner."
      },
      "transferOwnership(address)": {
        "details": "Transfers ownership of the contract to a new account (`newOwner`). Can only be called by the current owner."
      },
      "upgradeTo(address)": {
        "details": "Upgrade the implementation of the proxy to `newImplementation`. Calls {_authorizeUpgrade}. Emits an {Upgraded} event."
      },
      "upgradeToAndCall(address,bytes)": {
        "details": "Upgrade the implementation of the proxy to `newImplementation`, and subsequently execute the function call encoded in `data`. Calls {_authorizeUpgrade}. Emits an {Upgraded} event."
      }
    },
    "version": 1
  },
  "userdoc": {
    "kind": "user",
    "methods": {},
    "version": 1
  },
  "storageLayout": {
    "storage": [
      {
        "astId": 4904,
        "contract": "contracts/tests/dummyContract.sol:DummyContract",
        "label": "_initialized",
        "offset": 0,
        "slot": "0",
        "type": "t_bool"
      },
      {
        "astId": 4907,
        "contract": "contracts/tests/dummyContract.sol:DummyContract",
        "label": "_initializing",
        "offset": 1,
        "slot": "0",
        "type": "t_bool"
      },
      {
        "astId": 9281,
        "contract": "contracts/tests/dummyContract.sol:DummyContract",
        "label": "__gap",
        "offset": 0,
        "slot": "1",
        "type": "t_array(t_uint256)50_storage"
      },
      {
        "astId": 420,
        "contract": "contracts/tests/dummyContract.sol:DummyContract",
        "label": "_owner",
        "offset": 0,
        "slot": "51",
        "type": "t_address"
      },
      {
        "astId": 534,
        "contract": "contracts/tests/dummyContract.sol:DummyContract",
        "label": "__gap",
        "offset": 0,
        "slot": "52",
        "type": "t_array(t_uint256)49_storage"
      },
      {
        "astId": 4886,
        "contract": "contracts/tests/dummyContract.sol:DummyContract",
        "label": "__gap",
        "offset": 0,
        "slot": "101",
        "type": "t_array(t_uint256)50_storage"
      },
      {
        "astId": 5081,
        "contract": "contracts/tests/dummyContract.sol:DummyContract",
        "label": "__gap",
        "offset": 0,
        "slot": "151",
        "type": "t_array(t_uint256)50_storage"
      },
      {
        "astId": 24566,
        "contract": "contracts/tests/dummyContract.sol:DummyContract",
        "label": "num",
        "offset": 0,
        "slot": "201",
        "type": "t_uint256"
      },
      {
        "astId": 24569,
        "contract": "contracts/tests/dummyContract.sol:DummyContract",
        "label": "gasInTransaction",
        "offset": 0,
        "slot": "202",
        "type": "t_array(t_uint256)dyn_storage"
      },
      {
        "astId": 24572,
        "contract": "contracts/tests/dummyContract.sol:DummyContract",
        "label": "gasVault",
        "offset": 0,
        "slot": "203",
        "type": "t_contract(IGasVault)22998"
      }
    ],
    "types": {
      "t_address": {
        "encoding": "inplace",
        "label": "address",
        "numberOfBytes": "20"
      },
      "t_array(t_uint256)49_storage": {
        "base": "t_uint256",
        "encoding": "inplace",
        "label": "uint256[49]",
        "numberOfBytes": "1568"
      },
      "t_array(t_uint256)50_storage": {
        "base": "t_uint256",
        "encoding": "inplace",
        "label": "uint256[50]",
        "numberOfBytes": "1600"
      },
      "t_array(t_uint256)dyn_storage": {
        "base": "t_uint256",
        "encoding": "dynamic_array",
        "label": "uint256[]",
        "numberOfBytes": "32"
      },
      "t_bool": {
        "encoding": "inplace",
        "label": "bool",
        "numberOfBytes": "1"
      },
      "t_contract(IGasVault)22998": {
        "encoding": "inplace",
        "label": "contract IGasVault",
        "numberOfBytes": "20"
      },
      "t_uint256": {
        "encoding": "inplace",
        "label": "uint256",
        "numberOfBytes": "32"
      }
    }
  }
}