{
  "address": "0xd959C26864A3C4e76C206EeCdA34e705a465f797",
  "abi": [
    {
      "inputs": [],
      "stateMutability": "nonpayable",
      "type": "constructor"
    },
    {
      "anonymous": false,
      "inputs": [
        {
          "indexed": false,
          "internalType": "bytes32",
          "name": "jobHash",
          "type": "bytes32"
        },
        {
          "indexed": false,
          "internalType": "address",
          "name": "executor",
          "type": "address"
        }
      ],
      "name": "JobExecuted",
      "type": "event"
    },
    {
      "anonymous": false,
      "inputs": [
        {
          "indexed": false,
          "internalType": "bytes[]",
          "name": "jobInfo",
          "type": "bytes[]"
        },
        {
          "indexed": false,
          "internalType": "address[]",
          "name": "targetAddresses",
          "type": "address[]"
        },
        {
          "indexed": false,
          "internalType": "bytes32",
          "name": "jobHash",
          "type": "bytes32"
        },
        {
          "indexed": false,
          "internalType": "string",
          "name": "name",
          "type": "string"
        },
        {
          "indexed": false,
          "internalType": "string",
          "name": "ipfsForJobDetails",
          "type": "string"
        }
      ],
      "name": "JobRegistered",
      "type": "event"
    },
    {
      "anonymous": false,
      "inputs": [
        {
          "indexed": false,
          "internalType": "bytes32",
          "name": "jobHash",
          "type": "bytes32"
        },
        {
          "indexed": false,
          "internalType": "uint256",
          "name": "toggle",
          "type": "uint256"
        }
      ],
      "name": "JobToggledByCreator",
      "type": "event"
    },
    {
      "anonymous": false,
      "inputs": [
        {
          "indexed": true,
          "internalType": "address",
          "name": "previousOwner",
          "type": "address"
        },
        {
          "indexed": true,
          "internalType": "address",
          "name": "newOwner",
          "type": "address"
        }
      ],
      "name": "OwnershipTransferred",
      "type": "event"
    },
    {
      "inputs": [],
      "name": "creator",
      "outputs": [
        {
          "internalType": "address",
          "name": "",
          "type": "address"
        }
      ],
      "stateMutability": "view",
      "type": "function"
    },
    {
      "inputs": [
        {
          "internalType": "address[]",
          "name": "_targetAddresses",
          "type": "address[]"
        },
        {
          "internalType": "bytes[]",
          "name": "_userProvidedData",
          "type": "bytes[]"
        },
        {
          "internalType": "bytes[]",
          "name": "_strategyProvidedData",
          "type": "bytes[]"
        }
      ],
      "name": "executeJob",
      "outputs": [],
      "stateMutability": "nonpayable",
      "type": "function"
    },
    {
      "inputs": [],
      "name": "gasBalance",
      "outputs": [
        {
          "internalType": "uint256",
          "name": "",
          "type": "uint256"
        }
      ],
      "stateMutability": "view",
      "type": "function"
    },
    {
      "inputs": [],
      "name": "gasVault",
      "outputs": [
        {
          "internalType": "address",
          "name": "",
          "type": "address"
        }
      ],
      "stateMutability": "view",
      "type": "function"
    },
    {
      "inputs": [
        {
          "internalType": "address",
          "name": "_orchestrator",
          "type": "address"
        },
        {
          "internalType": "address",
          "name": "",
          "type": "address"
        },
        {
          "internalType": "address",
          "name": "",
          "type": "address"
        },
        {
          "internalType": "bytes",
          "name": "_params",
          "type": "bytes"
        }
      ],
      "name": "initialize",
      "outputs": [],
      "stateMutability": "nonpayable",
      "type": "function"
    },
    {
      "inputs": [
        {
          "internalType": "bytes32",
          "name": "",
          "type": "bytes32"
        }
      ],
      "name": "jobState",
      "outputs": [
        {
          "internalType": "uint256",
          "name": "",
          "type": "uint256"
        }
      ],
      "stateMutability": "view",
      "type": "function"
    },
    {
      "inputs": [],
      "name": "keeperRegistry",
      "outputs": [
        {
          "internalType": "address",
          "name": "",
          "type": "address"
        }
      ],
      "stateMutability": "view",
      "type": "function"
    },
    {
      "inputs": [],
      "name": "orchestrator",
      "outputs": [
        {
          "internalType": "address",
          "name": "",
          "type": "address"
        }
      ],
      "stateMutability": "view",
      "type": "function"
    },
    {
      "inputs": [],
      "name": "owner",
      "outputs": [
        {
          "internalType": "address",
          "name": "",
          "type": "address"
        }
      ],
      "stateMutability": "view",
      "type": "function"
    },
    {
      "inputs": [
        {
          "internalType": "bytes[]",
          "name": "_userProvidedData",
          "type": "bytes[]"
        },
        {
          "internalType": "address[]",
          "name": "_targetAddresses",
          "type": "address[]"
        },
        {
          "internalType": "string",
          "name": "_name",
          "type": "string"
        },
        {
          "internalType": "string",
          "name": "_ipfsForJobDetails",
          "type": "string"
        }
      ],
      "name": "registerJob",
      "outputs": [],
      "stateMutability": "nonpayable",
      "type": "function"
    },
    {
      "inputs": [
        {
          "internalType": "bytes[]",
          "name": "_userProvidedData",
          "type": "bytes[]"
        },
        {
          "internalType": "address[]",
          "name": "_targetAddresses",
          "type": "address[]"
        },
        {
          "internalType": "string",
          "name": "_name",
          "type": "string"
        },
        {
          "internalType": "string",
          "name": "_ipfsForJobDetails",
          "type": "string"
        }
      ],
      "name": "registerJobAndDepositGas",
      "outputs": [],
      "stateMutability": "payable",
      "type": "function"
    },
    {
      "inputs": [],
      "name": "renounceOwnership",
      "outputs": [],
      "stateMutability": "nonpayable",
      "type": "function"
    },
    {
      "inputs": [
        {
          "internalType": "bytes32",
          "name": "_jobHash",
          "type": "bytes32"
        },
        {
          "internalType": "uint256",
          "name": "_toggle",
          "type": "uint256"
        }
      ],
      "name": "setJobState",
      "outputs": [],
      "stateMutability": "nonpayable",
      "type": "function"
    },
    {
      "inputs": [
        {
          "internalType": "address",
          "name": "newOwner",
          "type": "address"
        }
      ],
      "name": "transferOwnership",
      "outputs": [],
      "stateMutability": "nonpayable",
      "type": "function"
    },
    {
      "inputs": [
        {
          "internalType": "uint256",
          "name": "_amount",
          "type": "uint256"
        },
        {
          "internalType": "address payable",
          "name": "to",
          "type": "address"
        }
      ],
      "name": "withdrawGas",
      "outputs": [],
      "stateMutability": "nonpayable",
      "type": "function"
    }
  ],
  "transactionHash": "0x77dbb874440ee81892a6b262d6a93add42e7c87c51e442cc31eb65bfe8694c36",
  "args": [],
  "numDeployments": 1,
  "solcInputHash": "c724de2948cf424d67e09bba14db58da",
  "bytecode": "0x608060405234801561001057600080fd5b50600054610100900460ff1661002c5760005460ff1615610034565b6100346100d5565b61009b5760405162461bcd60e51b815260206004820152602e60248201527f496e697469616c697a61626c653a20636f6e747261637420697320616c72656160448201526d191e481a5b9a5d1a585b1a5e995960921b606482015260840160405180910390fd5b600054610100900460ff161580156100bd576000805461ffff19166101011790555b80156100cf576000805461ff00191690555b506100f6565b60006100ea306100f060201b610c321760201c565b15905090565b3b151590565b61136780620001066000396000f3fe6080604052600436106100e85760003560e01c806383e227741161008a578063b74795d911610059578063b74795d914610263578063cac409b214610283578063e489cc56146102a3578063f2fde38b146102c357600080fd5b806383e22774146101e55780638b412610146102055780638da5cb5b14610225578063a6f4724f1461024357600080fd5b806343973525116100c6578063439735251461016c57806346f774951461017f578063715018a6146101ba5780637f3d5985146101cf57600080fd5b806302d05d3f146100ed5780631d77dc951461012a578063246581f71461014c575b600080fd5b3480156100f957600080fd5b5060675461010d906001600160a01b031681565b6040516001600160a01b0390911681526020015b60405180910390f35b34801561013657600080fd5b5061014a610145366004610d18565b6102e3565b005b34801561015857600080fd5b5061014a610167366004610d98565b6103c6565b61014a61017a366004610e59565b6105c6565b34801561018b57600080fd5b506101ac61019a366004610f1d565b606a6020526000908152604090205481565b604051908152602001610121565b3480156101c657600080fd5b5061014a610728565b3480156101db57600080fd5b506101ac60685481565b3480156101f157600080fd5b5060655461010d906001600160a01b031681565b34801561021157600080fd5b5061014a610220366004610f36565b61078e565b34801561023157600080fd5b506033546001600160a01b031661010d565b34801561024f57600080fd5b5060695461010d906001600160a01b031681565b34801561026f57600080fd5b5060665461010d906001600160a01b031681565b34801561028f57600080fd5b5061014a61029e366004610f66565b610836565b3480156102af57600080fd5b5061014a6102be366004610e59565b610a4f565b3480156102cf57600080fd5b5061014a6102de366004611000565b610b67565b6067546001600160a01b031633146103325760405162461bcd60e51b815260206004820152600d60248201526c1058d8d95cdcc811195b9a5959609a1b60448201526064015b60405180910390fd5b80600114806103415750806002145b6103775760405162461bcd60e51b8152602060048201526007602482015266125b9d985b1a5960ca1b6044820152606401610329565b6000828152606a602090815260409182902083905581518481529081018390527ffbb8f7dd5489cd225600f85de7227707ceeeded4ea259f70ece12c8419f6c97b910160405180910390a15050565b600054610100900460ff166103e15760005460ff16156103e5565b303b155b6104485760405162461bcd60e51b815260206004820152602e60248201527f496e697469616c697a61626c653a20636f6e747261637420697320616c72656160448201526d191e481a5b9a5d1a585b1a5e995960921b6064820152608401610329565b600054610100900460ff1615801561046a576000805461ffff19166101011790555b846001600160a01b03166383e227746040518163ffffffff1660e01b8152600401602060405180830381865afa1580156104a8573d6000803e3d6000fd5b505050506040513d601f19601f820116820180604052508101906104cc9190611024565b606560006101000a8154816001600160a01b0302191690836001600160a01b03160217905550846001600160a01b031663a6f4724f6040518163ffffffff1660e01b8152600401602060405180830381865afa158015610530573d6000803e3d6000fd5b505050506040513d601f19601f820116820180604052508101906105549190611024565b606980546001600160a01b0319166001600160a01b039290921691909117905561057c610c38565b606780546001600160a01b038089166001600160a01b031992831617909255606680549288169290911691909117905580156105be576000805461ff00191690555b505050505050565b86851461060b5760405162461bcd60e51b815260206004820152601360248201527215dc9bdb99c81059191c995cdcc810dbdd5b9d606a1b6044820152606401610329565b6067546001600160a01b031633146106355760405162461bcd60e51b815260040161032990611041565b60008888888860405160200161064e949392919061116a565b60408051601f1981840301815282825280516020918201206000818152606a9092529190206002905591507fc0db3309cc0ca74df1def57c090353fce721aa5a6f379b47dc649ed93d7b9c4f906106b6908b908b908b908b9087908c908c908c908c9061119c565b60405180910390a160695460405163f340fa0160e01b81523060048201526001600160a01b039091169063f340fa019034906024016000604051808303818588803b15801561070457600080fd5b505af1158015610718573d6000803e3d6000fd5b5050505050505050505050505050565b6033546001600160a01b031633146107825760405162461bcd60e51b815260206004820181905260248201527f4f776e61626c653a2063616c6c6572206973206e6f7420746865206f776e65726044820152606401610329565b61078c6000610c6f565b565b6067546001600160a01b031633146107d65760405162461bcd60e51b815260206004820152600b60248201526a2737ba1021b932b0ba37b960a91b6044820152606401610329565b606954604051627b8a6760e11b8152600481018490526001600160a01b0383811660248301529091169062f714ce90604401600060405180830381600087803b15801561082257600080fd5b505af11580156105be573d6000803e3d6000fd5b60008484888860405160200161084f949392919061116a565b60408051601f1981840301815291815281516020928301206000818152606a9093529120549091506002146108c65760405162461bcd60e51b815260206004820152601860248201527f506175736564206f72204e6f74205265676973746572656400000000000000006044820152606401610329565b6066546001600160a01b031633146108f05760405162461bcd60e51b815260040161032990611041565b8560606000805b838114610a0a5788888281811061091057610910611203565b90506020028101906109229190611219565b88888481811061093457610934611203565b90506020028101906109469190611219565b6040516020016109599493929190611260565b60405160208183030381529060405292508a8a8281811061097c5761097c611203565b90506020020160208101906109919190611000565b6001600160a01b0316836040516109a89190611282565b6000604051808303816000865af19150503d80600081146109e5576040519150601f19603f3d011682016040523d82523d6000602084013e6109ea565b606091505b505080925050816109fa57600080fd5b610a03816112bd565b90506108f7565b50604080518581523360208201527f143572cad7ddc116666f3ec9604298a7ec0d02dc052cd16f09a0466d39fe76b9910160405180910390a150505050505050505050565b868514610a945760405162461bcd60e51b815260206004820152601360248201527215dc9bdb99c81059191c995cdcc810dbdd5b9d606a1b6044820152606401610329565b6067546001600160a01b0316331480610ab757506067546001600160a01b031632145b610ad35760405162461bcd60e51b815260040161032990611041565b600088888888604051602001610aec949392919061116a565b60408051601f1981840301815282825280516020918201206000818152606a9092529190206002905591507fc0db3309cc0ca74df1def57c090353fce721aa5a6f379b47dc649ed93d7b9c4f90610b54908b908b908b908b9087908c908c908c908c9061119c565b60405180910390a1505050505050505050565b6033546001600160a01b03163314610bc15760405162461bcd60e51b815260206004820181905260248201527f4f776e61626c653a2063616c6c6572206973206e6f7420746865206f776e65726044820152606401610329565b6001600160a01b038116610c265760405162461bcd60e51b815260206004820152602660248201527f4f776e61626c653a206e6577206f776e657220697320746865207a65726f206160448201526564647265737360d01b6064820152608401610329565b610c2f81610c6f565b50565b3b151590565b600054610100900460ff16610c5f5760405162461bcd60e51b8152600401610329906112e6565b610c67610cc1565b61078c610ce8565b603380546001600160a01b038381166001600160a01b0319831681179093556040519116919082907f8be0079c531659141344cd1fd0a4f28419497f9722a3daafe3b4186f6b6457e090600090a35050565b600054610100900460ff1661078c5760405162461bcd60e51b8152600401610329906112e6565b600054610100900460ff16610d0f5760405162461bcd60e51b8152600401610329906112e6565b61078c33610c6f565b60008060408385031215610d2b57600080fd5b50508035926020909101359150565b6001600160a01b0381168114610c2f57600080fd5b60008083601f840112610d6157600080fd5b50813567ffffffffffffffff811115610d7957600080fd5b602083019150836020828501011115610d9157600080fd5b9250929050565b600080600080600060808688031215610db057600080fd5b8535610dbb81610d3a565b94506020860135610dcb81610d3a565b93506040860135610ddb81610d3a565b9250606086013567ffffffffffffffff811115610df757600080fd5b610e0388828901610d4f565b969995985093965092949392505050565b60008083601f840112610e2657600080fd5b50813567ffffffffffffffff811115610e3e57600080fd5b6020830191508360208260051b8501011115610d9157600080fd5b6000806000806000806000806080898b031215610e7557600080fd5b883567ffffffffffffffff80821115610e8d57600080fd5b610e998c838d01610e14565b909a50985060208b0135915080821115610eb257600080fd5b610ebe8c838d01610e14565b909850965060408b0135915080821115610ed757600080fd5b610ee38c838d01610d4f565b909650945060608b0135915080821115610efc57600080fd5b50610f098b828c01610d4f565b999c989b5096995094979396929594505050565b600060208284031215610f2f57600080fd5b5035919050565b60008060408385031215610f4957600080fd5b823591506020830135610f5b81610d3a565b809150509250929050565b60008060008060008060608789031215610f7f57600080fd5b863567ffffffffffffffff80821115610f9757600080fd5b610fa38a838b01610e14565b90985096506020890135915080821115610fbc57600080fd5b610fc88a838b01610e14565b90965094506040890135915080821115610fe157600080fd5b50610fee89828a01610e14565b979a9699509497509295939492505050565b60006020828403121561101257600080fd5b813561101d81610d3a565b9392505050565b60006020828403121561103657600080fd5b815161101d81610d3a565b6020808252600c908201526b155b985d5d1a1bdc9a5e995960a21b604082015260600190565b81835281816020850137506000828201602090810191909152601f909101601f19169091010190565b81835260006020808501808196508560051b810191508460005b878110156111145782840389528135601e198836030181126110cb57600080fd5b8701803567ffffffffffffffff8111156110e457600080fd5b8036038913156110f357600080fd5b6111008682898501611067565b9a87019a95505050908401906001016110aa565b5091979650505050505050565b8183526000602080850194508260005b8581101561115f57813561114481610d3a565b6001600160a01b031687529582019590820190600101611131565b509495945050505050565b60408152600061117e604083018688611090565b8281036020840152611191818587611121565b979650505050505050565b60a0815260006111b060a083018b8d611090565b82810360208401526111c3818a8c611121565b905087604084015282810360608401526111de818789611067565b905082810360808401526111f3818587611067565b9c9b505050505050505050505050565b634e487b7160e01b600052603260045260246000fd5b6000808335601e1984360301811261123057600080fd5b83018035915067ffffffffffffffff82111561124b57600080fd5b602001915036819003821315610d9157600080fd5b8385823760008482016000815283858237600093019283525090949350505050565b6000825160005b818110156112a35760208186018101518583015201611289565b818111156112b2576000828501525b509190910192915050565b60006000198214156112df57634e487b7160e01b600052601160045260246000fd5b5060010190565b6020808252602b908201527f496e697469616c697a61626c653a20636f6e7472616374206973206e6f74206960408201526a6e697469616c697a696e6760a81b60608201526080019056fea2646970667358221220ebdeadcebe6bf3f82b4d9ee9fb52d87af3a5ef57efc89fe4f59a94e10b8a6fef64736f6c634300080c0033",
  "devdoc": {
    "kind": "dev",
    "methods": {
      "constructor": {
        "custom:oz-upgrades-unsafe-allow": "constructor"
      },
      "executeJob(address[],bytes[],bytes[])": {
        "details": "Use this function to execute Jobs.Only Orchestrator can call this function.",
        "params": {
          "_strategyProvidedData": "are the encoded parameters sent on the time of creation or execution of action in orchestrator according to the strategy.",
          "_targetAddresses": "are the addresses of the contracts on which the jobs needs to be executed.",
          "_userProvidedData": "are the calldatas that are provided by the user at the registration time."
        }
      },
      "owner()": {
        "details": "Returns the address of the current owner."
      },
      "registerJob(bytes[],address[],string,string)": {
        "details": "Use this function to register jobs.",
        "params": {
          "_ipfsForJobDetails": "is the ipfs hash containing job details like the interval for job execution.",
          "_name": "should be the name of the job.",
          "_targetAddresses": "are the addresses of the contracts on which the jobs needs to be executed.",
          "_userProvidedData": "are the calldatas that are provided by the user at the registration time."
        }
      },
      "registerJobAndDepositGas(bytes[],address[],string,string)": {
        "details": "Use this function to register jobs and deposit gas in one callSend the amount of gas that is needed to be deposited as msg.value.",
        "params": {
          "_ipfsForJobDetails": "is the ipfs hash containing job details like the interval for job execution.",
          "_name": "is the name of the job.",
          "_targetAddresses": "are the addresses of the contracts on which the jobs needs to be executed.",
          "_userProvidedData": "are the calldatas that are provided by the user at the registration time."
        }
      },
      "renounceOwnership()": {
        "details": "Leaves the contract without owner. It will not be possible to call `onlyOwner` functions anymore. Can only be called by the current owner. NOTE: Renouncing ownership will leave the contract without an owner, thereby removing any functionality that is only available to the owner."
      },
      "setJobState(bytes32,uint256)": {
        "details": "Use this function to pause or unpause a job",
        "params": {
          "_jobHash": "is the keccak of encoded parameters and target addresses",
          "_toggle": "pass 1 to pause the job and pass 2 to unpause the job"
        }
      },
      "transferOwnership(address)": {
        "details": "Transfers ownership of the contract to a new account (`newOwner`). Can only be called by the current owner."
      },
      "withdrawGas(uint256,address)": {
        "details": "Use this function to withdraw gas associated to this vaultOnly creator of this vault can call this function",
        "params": {
          "_amount": "is the amount of ether in wei that creator of this contract wants to pull out",
          "to": "is the address at which the creator wants to pull the deposited ether out"
        }
      }
    },
    "stateVariables": {
      "jobState": {
        "details": "The mapping of jobState has 3 possiblities      1) 0 means not registered      2) 1 means registered and paused      3) 2 means unpaused and registered (active)"
      }
    },
    "version": 1
  },
  "userdoc": {
    "kind": "user",
    "methods": {},
    "version": 1
  },
  "storageLayout": {
    "storage": [
      {
        "astId": 540,
        "contract": "contracts/DynamicJobs.sol:DynamicJobs",
        "label": "_initialized",
        "offset": 0,
        "slot": "0",
        "type": "t_bool"
      },
      {
        "astId": 543,
        "contract": "contracts/DynamicJobs.sol:DynamicJobs",
        "label": "_initializing",
        "offset": 1,
        "slot": "0",
        "type": "t_bool"
      },
      {
        "astId": 1211,
        "contract": "contracts/DynamicJobs.sol:DynamicJobs",
        "label": "__gap",
        "offset": 0,
        "slot": "1",
        "type": "t_array(t_uint256)50_storage"
      },
      {
        "astId": 10,
        "contract": "contracts/DynamicJobs.sol:DynamicJobs",
        "label": "_owner",
        "offset": 0,
        "slot": "51",
        "type": "t_address"
      },
      {
        "astId": 124,
        "contract": "contracts/DynamicJobs.sol:DynamicJobs",
        "label": "__gap",
        "offset": 0,
        "slot": "52",
        "type": "t_array(t_uint256)49_storage"
      },
      {
        "astId": 2576,
        "contract": "contracts/DynamicJobs.sol:DynamicJobs",
        "label": "keeperRegistry",
        "offset": 0,
        "slot": "101",
        "type": "t_address"
      },
      {
        "astId": 2578,
        "contract": "contracts/DynamicJobs.sol:DynamicJobs",
        "label": "orchestrator",
        "offset": 0,
        "slot": "102",
        "type": "t_address"
      },
      {
        "astId": 2580,
        "contract": "contracts/DynamicJobs.sol:DynamicJobs",
        "label": "creator",
        "offset": 0,
        "slot": "103",
        "type": "t_address"
      },
      {
        "astId": 2582,
        "contract": "contracts/DynamicJobs.sol:DynamicJobs",
        "label": "gasBalance",
        "offset": 0,
        "slot": "104",
        "type": "t_uint256"
      },
      {
        "astId": 2584,
        "contract": "contracts/DynamicJobs.sol:DynamicJobs",
        "label": "gasVault",
        "offset": 0,
        "slot": "105",
        "type": "t_address"
      },
      {
        "astId": 2589,
        "contract": "contracts/DynamicJobs.sol:DynamicJobs",
        "label": "jobState",
        "offset": 0,
        "slot": "106",
        "type": "t_mapping(t_bytes32,t_uint256)"
      }
    ],
    "types": {
      "t_address": {
        "encoding": "inplace",
        "label": "address",
        "numberOfBytes": "20"
      },
      "t_array(t_uint256)49_storage": {
        "base": "t_uint256",
        "encoding": "inplace",
        "label": "uint256[49]",
        "numberOfBytes": "1568"
      },
      "t_array(t_uint256)50_storage": {
        "base": "t_uint256",
        "encoding": "inplace",
        "label": "uint256[50]",
        "numberOfBytes": "1600"
      },
      "t_bool": {
        "encoding": "inplace",
        "label": "bool",
        "numberOfBytes": "1"
      },
      "t_bytes32": {
        "encoding": "inplace",
        "label": "bytes32",
        "numberOfBytes": "32"
      },
      "t_mapping(t_bytes32,t_uint256)": {
        "encoding": "mapping",
        "key": "t_bytes32",
        "label": "mapping(bytes32 => uint256)",
        "numberOfBytes": "32",
        "value": "t_uint256"
      },
      "t_uint256": {
        "encoding": "inplace",
        "label": "uint256",
        "numberOfBytes": "32"
      }
    }
  }
}