{
  "address": "0x42e684E6DB074756EC176006468Fd20261CcB275",
  "abi": [
    {
      "inputs": [],
      "stateMutability": "nonpayable",
      "type": "constructor"
    },
    {
      "anonymous": false,
      "inputs": [
        {
          "indexed": false,
          "internalType": "address",
          "name": "previousAdmin",
          "type": "address"
        },
        {
          "indexed": false,
          "internalType": "address",
          "name": "newAdmin",
          "type": "address"
        }
      ],
      "name": "AdminChanged",
      "type": "event"
    },
    {
      "anonymous": false,
      "inputs": [
        {
          "indexed": true,
          "internalType": "address",
          "name": "beacon",
          "type": "address"
        }
      ],
      "name": "BeaconUpgraded",
      "type": "event"
    },
    {
      "anonymous": false,
      "inputs": [
        {
          "indexed": true,
          "internalType": "address",
          "name": "origin",
          "type": "address"
        },
        {
          "indexed": true,
          "internalType": "address",
          "name": "target",
          "type": "address"
        },
        {
          "indexed": false,
          "internalType": "uint256",
          "name": "amount",
          "type": "uint256"
        }
      ],
      "name": "Deposited",
      "type": "event"
    },
    {
      "anonymous": false,
      "inputs": [
        {
          "indexed": true,
          "internalType": "address",
          "name": "account",
          "type": "address"
        },
        {
          "indexed": false,
          "internalType": "uint256",
          "name": "amount",
          "type": "uint256"
        },
        {
          "indexed": false,
          "internalType": "bytes32",
          "name": "jobHash",
          "type": "bytes32"
        }
      ],
      "name": "EtherUsed",
      "type": "event"
    },
    {
      "anonymous": false,
      "inputs": [
        {
          "indexed": true,
          "internalType": "address",
          "name": "previousOwner",
          "type": "address"
        },
        {
          "indexed": true,
          "internalType": "address",
          "name": "newOwner",
          "type": "address"
        }
      ],
      "name": "OwnershipTransferred",
      "type": "event"
    },
    {
      "anonymous": false,
      "inputs": [
        {
          "indexed": true,
          "internalType": "address",
          "name": "implementation",
          "type": "address"
        }
      ],
      "name": "Upgraded",
      "type": "event"
    },
    {
      "anonymous": false,
      "inputs": [
        {
          "indexed": true,
          "internalType": "address",
          "name": "targetAddress",
          "type": "address"
        },
        {
          "indexed": true,
          "internalType": "address",
          "name": "to",
          "type": "address"
        },
        {
          "indexed": false,
          "internalType": "uint256",
          "name": "amount",
          "type": "uint256"
        }
      ],
      "name": "Withdrawn",
      "type": "event"
    },
    {
      "inputs": [
        {
          "internalType": "address",
          "name": "targetAddress",
          "type": "address"
        }
      ],
      "name": "deposit",
      "outputs": [],
      "stateMutability": "payable",
      "type": "function"
    },
    {
      "inputs": [
        {
          "internalType": "address",
          "name": "",
          "type": "address"
        }
      ],
      "name": "ethBalances",
      "outputs": [
        {
          "internalType": "uint256",
          "name": "",
          "type": "uint256"
        }
      ],
      "stateMutability": "view",
      "type": "function"
    },
    {
      "inputs": [
        {
          "internalType": "address",
          "name": "_targetAddress",
          "type": "address"
        }
      ],
      "name": "gasAvailableForTransaction",
      "outputs": [
        {
          "internalType": "uint256",
          "name": "",
          "type": "uint256"
        }
      ],
      "stateMutability": "view",
      "type": "function"
    },
    {
      "inputs": [
        {
          "internalType": "address",
          "name": "_orchestrator",
          "type": "address"
        },
        {
          "internalType": "address",
          "name": "_stratRegistry",
          "type": "address"
        },
        {
          "internalType": "address",
          "name": "_vaultRegistry",
          "type": "address"
        }
      ],
      "name": "initialize",
      "outputs": [],
      "stateMutability": "nonpayable",
      "type": "function"
    },
    {
      "inputs": [],
      "name": "orchestrator",
      "outputs": [
        {
          "internalType": "contract IOrchestrator",
          "name": "",
          "type": "address"
        }
      ],
      "stateMutability": "view",
      "type": "function"
    },
    {
      "inputs": [],
      "name": "owner",
      "outputs": [
        {
          "internalType": "address",
          "name": "",
          "type": "address"
        }
      ],
      "stateMutability": "view",
      "type": "function"
    },
    {
      "inputs": [
        {
          "internalType": "address",
          "name": "targetAddress",
          "type": "address"
        },
        {
          "internalType": "uint256",
          "name": "originalGas",
          "type": "uint256"
        },
        {
          "internalType": "bytes32",
          "name": "jobHash",
          "type": "bytes32"
        }
      ],
      "name": "reimburseGas",
      "outputs": [],
      "stateMutability": "nonpayable",
      "type": "function"
    },
    {
      "inputs": [],
      "name": "renounceOwnership",
      "outputs": [],
      "stateMutability": "nonpayable",
      "type": "function"
    },
    {
      "inputs": [],
      "name": "strategyRegistry",
      "outputs": [
        {
          "internalType": "contract IStrategyRegistry",
          "name": "",
          "type": "address"
        }
      ],
      "stateMutability": "view",
      "type": "function"
    },
    {
      "inputs": [
        {
          "internalType": "address",
          "name": "targetAddress",
          "type": "address"
        },
        {
          "internalType": "uint256",
          "name": "highGasEstimate",
          "type": "uint256"
        }
      ],
      "name": "transactionsRemaining",
      "outputs": [
        {
          "internalType": "uint256",
          "name": "",
          "type": "uint256"
        }
      ],
      "stateMutability": "view",
      "type": "function"
    },
    {
      "inputs": [
        {
          "internalType": "address",
          "name": "newOwner",
          "type": "address"
        }
      ],
      "name": "transferOwnership",
      "outputs": [],
      "stateMutability": "nonpayable",
      "type": "function"
    },
    {
      "inputs": [
        {
          "internalType": "address",
          "name": "newImplementation",
          "type": "address"
        }
      ],
      "name": "upgradeTo",
      "outputs": [],
      "stateMutability": "nonpayable",
      "type": "function"
    },
    {
      "inputs": [
        {
          "internalType": "address",
          "name": "newImplementation",
          "type": "address"
        },
        {
          "internalType": "bytes",
          "name": "data",
          "type": "bytes"
        }
      ],
      "name": "upgradeToAndCall",
      "outputs": [],
      "stateMutability": "payable",
      "type": "function"
    },
    {
      "inputs": [],
      "name": "vaultRegistry",
      "outputs": [
        {
          "internalType": "contract IVaultRegistry",
          "name": "",
          "type": "address"
        }
      ],
      "stateMutability": "view",
      "type": "function"
    },
    {
      "inputs": [
        {
          "internalType": "uint256",
          "name": "amount",
          "type": "uint256"
        },
        {
          "internalType": "address payable",
          "name": "to",
          "type": "address"
        }
      ],
      "name": "withdraw",
      "outputs": [],
      "stateMutability": "nonpayable",
      "type": "function"
    }
  ],
  "transactionHash": "0x134056eec5953cd46d2d360ddfe7031537420d03c5581c03f74d15755d25e4eb",
  "args": [],
  "numDeployments": 1,
  "solcInputHash": "de4128423a4eb3f1b17d57738cf295f0",
  "bytecode": "0x60a0604052306080523480156200001557600080fd5b50600054610100900460ff16620000335760005460ff16156200003d565b6200003d620000e2565b620000a55760405162461bcd60e51b815260206004820152602e60248201527f496e697469616c697a61626c653a20636f6e747261637420697320616c72656160448201526d191e481a5b9a5d1a585b1a5e995960921b606482015260840160405180910390fd5b600054610100900460ff16158015620000c8576000805461ffff19166101011790555b8015620000db576000805461ff00191690555b5062000106565b6000620000fa306200010060201b62000c361760201c565b15905090565b3b151590565b60805161196462000137600039600081816103ba015281816103fa0152818161048301526104c301526119646000f3fe6080604052600436106100e75760003560e01c8063b6e1b3e91161008a578063cdd7b38a11610059578063cdd7b38a14610268578063d080bf2714610288578063f2fde38b146102a8578063f340fa01146102c857600080fd5b8063b6e1b3e9146101e8578063b74795d914610208578063c0c53b8b14610228578063cda08c161461024857600080fd5b80634f1ef286116100c65780634f1ef2861461016e57806361d2be2e14610181578063715018a6146101a15780638da5cb5b146101b657600080fd5b8062f714ce146100ec5780633659cfe61461010e5780633cfba0e31461012e575b600080fd5b3480156100f857600080fd5b5061010c610107366004611296565b6102db565b005b34801561011a57600080fd5b5061010c6101293660046112c6565b6103af565b34801561013a57600080fd5b5061015b6101493660046112c6565b60fe6020526000908152604090205481565b6040519081526020015b60405180910390f35b61010c61017c36600461137b565b610478565b34801561018d57600080fd5b5061015b61019c36600461140e565b610532565b3480156101ad57600080fd5b5061010c61069a565b3480156101c257600080fd5b506033546001600160a01b03165b6040516001600160a01b039091168152602001610165565b3480156101f457600080fd5b5061010c61020336600461143a565b6106d0565b34801561021457600080fd5b5060fb546101d0906001600160a01b031681565b34801561023457600080fd5b5061010c61024336600461146f565b6107d8565b34801561025457600080fd5b5061015b6102633660046112c6565b61095b565b34801561027457600080fd5b5060fd546101d0906001600160a01b031681565b34801561029457600080fd5b5060fc546101d0906001600160a01b031681565b3480156102b457600080fd5b5061010c6102c33660046112c6565b610b2e565b61010c6102d63660046112c6565b610bc6565b600260c95414156103335760405162461bcd60e51b815260206004820152601f60248201527f5265656e7472616e637947756172643a207265656e7472616e742063616c6c0060448201526064015b60405180910390fd5b600260c95533600090815260fe6020526040812080548492906103579084906114d0565b90915550506040518281526001600160a01b0382169033907fd1c19fbcd4551a5edfb66d43d2e337c04837afda3482b42bdf569a8fccdae5fb9060200160405180910390a36103a68183610c3c565b5050600160c955565b306001600160a01b037f00000000000000000000000000000000000000000000000000000000000000001614156103f85760405162461bcd60e51b815260040161032a906114e7565b7f00000000000000000000000000000000000000000000000000000000000000006001600160a01b031661042a610d5a565b6001600160a01b0316146104505760405162461bcd60e51b815260040161032a90611533565b61045981610d88565b6040805160008082526020820190925261047591839190610db2565b50565b306001600160a01b037f00000000000000000000000000000000000000000000000000000000000000001614156104c15760405162461bcd60e51b815260040161032a906114e7565b7f00000000000000000000000000000000000000000000000000000000000000006001600160a01b03166104f3610d5a565b6001600160a01b0316146105195760405162461bcd60e51b815260040161032a90611533565b61052282610d88565b61052e82826001610db2565b5050565b60fd546040516367a44ca360e01b81526001600160a01b03848116600483015260009283929116906367a44ca390602401600060405180830381865afa158015610580573d6000803e3d6000fd5b505050506040513d6000823e601f3d908101601f191682016040526105a8919081019061160f565b60fc54602082015160405163f1eb1a2b60e01b81529293506000926001600160a01b039092169163f1eb1a2b916105e59160040190815260200190565b600060405180830381865afa158015610602573d6000803e3d6000fd5b505050506040513d6000823e601f3d908101601f1916820160405261062a91908101906116ed565b905080608001516001600160801b031684111561064c57600092505050610694565b6000848260a001516001600160801b031661066791906117bb565b6001600160a01b038716600090815260fe602052604090205490915061068e9082906117da565b93505050505b92915050565b6033546001600160a01b031633146106c45760405162461bcd60e51b815260040161032a906117fc565b6106ce6000610efd565b565b60fb546001600160a01b0316331461072a5760405162461bcd60e51b815260206004820152601f60248201527f4f6e6c79206f7263686573747261746f722063616e2063616c6c207468697300604482015260640161032a565b60005a61073790846114d0565b905060006107453a836117bb565b6001600160a01b038616600090815260fe60205260408120805492935083929091906107729084906114d0565b909155505032600090815260fe602090815260409182902080548401905581518381529081018590526001600160a01b038716917f8df42119868c5e2a521d70014ce6857e311acdcf0669c555b17adf8bb53a313a910160405180910390a25050505050565b600054610100900460ff166107f35760005460ff16156107f7565b303b155b61085a5760405162461bcd60e51b815260206004820152602e60248201527f496e697469616c697a61626c653a20636f6e747261637420697320616c72656160448201526d191e481a5b9a5d1a585b1a5e995960921b606482015260840161032a565b600054610100900460ff1615801561087c576000805461ffff19166101011790555b610884610f4f565b61088c610f86565b610894610fbd565b6001600160a01b0384166108ba5760405162461bcd60e51b815260040161032a90611831565b6001600160a01b0383166108e05760405162461bcd60e51b815260040161032a90611831565b6001600160a01b0382166109065760405162461bcd60e51b815260040161032a90611831565b60fb80546001600160a01b038087166001600160a01b03199283161790925560fc805486841690831617905560fd8054928516929091169190911790558015610955576000805461ff00191690555b50505050565b60fd546040516367a44ca360e01b81526001600160a01b03838116600483015260009283929116906367a44ca390602401600060405180830381865afa1580156109a9573d6000803e3d6000fd5b505050506040513d6000823e601f3d908101601f191682016040526109d1919081019061160f565b60fc54602082015160405163f1eb1a2b60e01b81529293506000926001600160a01b039092169163f1eb1a2b91610a0e9160040190815260200190565b600060405180830381865afa158015610a2b573d6000803e3d6000fd5b505050506040513d6000823e601f3d908101601f19168201604052610a5391908101906116ed565b905080608001516001600160801b03163a1115610aa75760405162461bcd60e51b815260206004820152601260248201527123b0b9903a37b79032bc3832b739b4bb329760711b604482015260640161032a565b60a08101516001600160801b0316610abf813a6117bb565b6001600160a01b038616600090815260fe60205260409020541015610b265760405162461bcd60e51b815260206004820152601c60248201527f496e73756666696369656e74206574686572206465706f736974656400000000604482015260640161032a565b949350505050565b6033546001600160a01b03163314610b585760405162461bcd60e51b815260040161032a906117fc565b6001600160a01b038116610bbd5760405162461bcd60e51b815260206004820152602660248201527f4f776e61626c653a206e6577206f776e657220697320746865207a65726f206160448201526564647265737360d01b606482015260840161032a565b61047581610efd565b6001600160a01b038116600090815260fe602052604081208054349290610bee908490611855565b90915550506040513481526001600160a01b0382169033907f8752a472e571a816aea92eec8dae9baf628e840f4929fbcc2d155e6233ff68a79060200160405180910390a350565b3b151590565b80471015610c8c5760405162461bcd60e51b815260206004820152601d60248201527f416464726573733a20696e73756666696369656e742062616c616e6365000000604482015260640161032a565b6000826001600160a01b03168260405160006040518083038185875af1925050503d8060008114610cd9576040519150601f19603f3d011682016040523d82523d6000602084013e610cde565b606091505b5050905080610d555760405162461bcd60e51b815260206004820152603a60248201527f416464726573733a20756e61626c6520746f2073656e642076616c75652c207260448201527f6563697069656e74206d61792068617665207265766572746564000000000000606482015260840161032a565b505050565b7f360894a13ba1a3210667c828492db98dca3e2076cc3735a920a3ca505d382bbc546001600160a01b031690565b6033546001600160a01b031633146104755760405162461bcd60e51b815260040161032a906117fc565b6000610dbc610d5a565b9050610dc784610fec565b600083511180610dd45750815b15610de557610de38484611091565b505b7f4910fdfa16fed3260ed0e7147f7cc6da11a60208b5b9406d12a635614ffd9143805460ff16610ef657805460ff191660011781556040516001600160a01b0383166024820152610e6490869060440160408051601f198184030181529190526020810180516001600160e01b0316631b2ce7f360e11b179052611091565b50805460ff19168155610e75610d5a565b6001600160a01b0316826001600160a01b031614610eed5760405162461bcd60e51b815260206004820152602f60248201527f45524331393637557067726164653a207570677261646520627265616b73206660448201526e75727468657220757067726164657360881b606482015260840161032a565b610ef68561117c565b5050505050565b603380546001600160a01b038381166001600160a01b0319831681179093556040519116919082907f8be0079c531659141344cd1fd0a4f28419497f9722a3daafe3b4186f6b6457e090600090a35050565b600054610100900460ff16610f765760405162461bcd60e51b815260040161032a9061186d565b610f7e6111bc565b6106ce6111e3565b600054610100900460ff16610fad5760405162461bcd60e51b815260040161032a9061186d565b610fb56111bc565b6106ce6111bc565b600054610100900460ff16610fe45760405162461bcd60e51b815260040161032a9061186d565b6106ce611213565b803b6110505760405162461bcd60e51b815260206004820152602d60248201527f455243313936373a206e657720696d706c656d656e746174696f6e206973206e60448201526c1bdd08184818dbdb9d1c9858dd609a1b606482015260840161032a565b7f360894a13ba1a3210667c828492db98dca3e2076cc3735a920a3ca505d382bbc80546001600160a01b0319166001600160a01b0392909216919091179055565b6060823b6110f05760405162461bcd60e51b815260206004820152602660248201527f416464726573733a2064656c65676174652063616c6c20746f206e6f6e2d636f6044820152651b9d1c9858dd60d21b606482015260840161032a565b600080846001600160a01b03168460405161110b91906118b8565b600060405180830381855af49150503d8060008114611146576040519150601f19603f3d011682016040523d82523d6000602084013e61114b565b606091505b5091509150611173828260405180606001604052806027815260200161190860279139611241565b95945050505050565b61118581610fec565b6040516001600160a01b038216907fbc7cd75a20ee27fd9adebab32041f755214dbc6bffa90cc0225b39da2e5c2d3b90600090a250565b600054610100900460ff166106ce5760405162461bcd60e51b815260040161032a9061186d565b600054610100900460ff1661120a5760405162461bcd60e51b815260040161032a9061186d565b6106ce33610efd565b600054610100900460ff1661123a5760405162461bcd60e51b815260040161032a9061186d565b600160c955565b6060831561125057508161127a565b8251156112605782518084602001fd5b8160405162461bcd60e51b815260040161032a91906118d4565b9392505050565b6001600160a01b038116811461047557600080fd5b600080604083850312156112a957600080fd5b8235915060208301356112bb81611281565b809150509250929050565b6000602082840312156112d857600080fd5b813561127a81611281565b634e487b7160e01b600052604160045260246000fd5b60405160c0810167ffffffffffffffff8111828210171561131c5761131c6112e3565b60405290565b604051601f8201601f1916810167ffffffffffffffff8111828210171561134b5761134b6112e3565b604052919050565b600067ffffffffffffffff82111561136d5761136d6112e3565b50601f01601f191660200190565b6000806040838503121561138e57600080fd5b823561139981611281565b9150602083013567ffffffffffffffff8111156113b557600080fd5b8301601f810185136113c657600080fd5b80356113d96113d482611353565b611322565b8181528660208385010111156113ee57600080fd5b816020840160208301376000602083830101528093505050509250929050565b6000806040838503121561142157600080fd5b823561142c81611281565b946020939093013593505050565b60008060006060848603121561144f57600080fd5b833561145a81611281565b95602085013595506040909401359392505050565b60008060006060848603121561148457600080fd5b833561148f81611281565b9250602084013561149f81611281565b915060408401356114af81611281565b809150509250925092565b634e487b7160e01b600052601160045260246000fd5b6000828210156114e2576114e26114ba565b500390565b6020808252602c908201527f46756e6374696f6e206d7573742062652063616c6c6564207468726f7567682060408201526b19195b1959d85d1958d85b1b60a21b606082015260800190565b6020808252602c908201527f46756e6374696f6e206d7573742062652063616c6c6564207468726f7567682060408201526b6163746976652070726f787960a01b606082015260800190565b80516005811061158e57600080fd5b919050565b60005b838110156115ae578181015183820152602001611596565b838111156109555750506000910152565b600082601f8301126115d057600080fd5b81516115de6113d482611353565b8181528460208386010111156115f357600080fd5b610b26826020830160208701611593565b805161158e81611281565b60006020828403121561162157600080fd5b815167ffffffffffffffff8082111561163957600080fd5b9083019060c0828603121561164d57600080fd5b6116556112f9565b61165e8361157f565b8152602083015160208201526040830151604082015260608301518281111561168657600080fd5b611692878286016115bf565b6060830152506116a460808401611604565b608082015260a0830151828111156116bb57600080fd5b6116c7878286016115bf565b60a08301525095945050505050565b80516001600160801b038116811461158e57600080fd5b6000602082840312156116ff57600080fd5b815167ffffffffffffffff8082111561171757600080fd5b9083019060c0828603121561172b57600080fd5b6117336112f9565b8251815260208301518281111561174957600080fd5b611755878286016115bf565b60208301525061176760408401611604565b604082015260608301518281111561177e57600080fd5b61178a878286016115bf565b60608301525061179c608084016116d6565b60808201526117ad60a084016116d6565b60a082015295945050505050565b60008160001904831182151516156117d5576117d56114ba565b500290565b6000826117f757634e487b7160e01b600052601260045260246000fd5b500490565b6020808252818101527f4f776e61626c653a2063616c6c6572206973206e6f7420746865206f776e6572604082015260600190565b6020808252600a90820152696164647265737328302960b01b604082015260600190565b60008219821115611868576118686114ba565b500190565b6020808252602b908201527f496e697469616c697a61626c653a20636f6e7472616374206973206e6f74206960408201526a6e697469616c697a696e6760a81b606082015260800190565b600082516118ca818460208701611593565b9190910192915050565b60208152600082518060208401526118f3816040850160208701611593565b601f01601f1916919091016040019291505056fe416464726573733a206c6f772d6c6576656c2064656c65676174652063616c6c206661696c6564a2646970667358221220e2f27e565bc3f67ff00bfa42c104429a80bbc553fd7afa2ef194b20d2c1a8ca764736f6c634300080c0033",
  "devdoc": {
    "details": "vault for storing gas for each strategy. Nodes must still pay gas cost to call, but execution costs  will come out of the gas account.",
    "kind": "dev",
    "methods": {
      "constructor": {
        "custom:oz-upgrades-unsafe-allow": "constructor"
      },
      "deposit(address)": {
        "details": "Deposit more eth to be used in jobs.      Can only be withdrawn by governance and the given vault,      so in most cases these funds are unretrievable.",
        "params": {
          "targetAddress": "address of the recipient of these gas funds"
        }
      },
      "gasAvailableForTransaction(address)": {
        "details": "Orchestrator calls this function in order to reimburse tx.origin for method gas.      First it checks that all parameters are correct (gas price isn't too high),      And then it returns as much gas as is available to use in the transaction.      Note that this function will revert if the gas price is too high for the strategy.      This should be checked by the keeper beforehand.",
        "params": {
          "_targetAddress": "Address actions will be performed on, and address paying gas for those actions."
        },
        "returns": {
          "_0": "gasAvailable (representing amount of gas available per Method)."
        }
      },
      "initialize(address,address,address)": {
        "details": "Permanently sets related addresses",
        "params": {
          "_orchestrator": "Address of the orchestrator contract",
          "_stratRegistry": "Address of the strategy registry contract",
          "_vaultRegistry": "Address of the vault registry contract"
        }
      },
      "owner()": {
        "details": "Returns the address of the current owner."
      },
      "reimburseGas(address,uint256,bytes32)": {
        "details": "Note that keepers still have to pull their gas from the GasVault in order      to truly be reimbursed--until then the ETH is just sitting in the GasVault.",
        "params": {
          "jobHash": "The hash of the job which was performed.                All vaults other than DynamicJobs can only have one job,                so in this case jobHash will just be actionHash.",
          "originalGas": "How much gas there was at the start of the action (before any action was called)",
          "targetAddress": "The address which the action was performed upon.                      The reimbursement will come from its gas fund."
        }
      },
      "renounceOwnership()": {
        "details": "Leaves the contract without owner. It will not be possible to call `onlyOwner` functions anymore. Can only be called by the current owner. NOTE: Renouncing ownership will leave the contract without an owner, thereby removing any functionality that is only available to the owner."
      },
      "transactionsRemaining(address,uint256)": {
        "params": {
          "highGasEstimate": "An estimate of the highest reasonable gas price which                        a transaction will cost, in terms of wei.                        In other words, given a bad gas price,                        how many more times can a strategy be run.",
          "targetAddress": "The address of the vault in question"
        },
        "returns": {
          "_0": "transactions Remaining, assuming upper limit estimate of gas price                      is used for the transaction"
        }
      },
      "transferOwnership(address)": {
        "details": "Transfers ownership of the contract to a new account (`newOwner`). Can only be called by the current owner."
      },
      "upgradeTo(address)": {
        "details": "Upgrade the implementation of the proxy to `newImplementation`. Calls {_authorizeUpgrade}. Emits an {Upgraded} event."
      },
      "upgradeToAndCall(address,bytes)": {
        "details": "Upgrade the implementation of the proxy to `newImplementation`, and subsequently execute the function call encoded in `data`. Calls {_authorizeUpgrade}. Emits an {Upgraded} event."
      },
      "withdraw(uint256,address)": {
        "details": "Normal withdraw function, normally used by keepers",
        "params": {
          "amount": "The amount to withdraw",
          "to": "Address to send the ether to"
        }
      }
    },
    "version": 1
  },
  "userdoc": {
    "kind": "user",
    "methods": {
      "ethBalances(address)": {
        "notice": "Mapping from vault address to gasInfo"
      }
    },
    "version": 1
  },
  "storageLayout": {
    "storage": [
      {
        "astId": 4834,
        "contract": "contracts/GasVault.sol:GasVault",
        "label": "_initialized",
        "offset": 0,
        "slot": "0",
        "type": "t_bool"
      },
      {
        "astId": 4837,
        "contract": "contracts/GasVault.sol:GasVault",
        "label": "_initializing",
        "offset": 1,
        "slot": "0",
        "type": "t_bool"
      },
      {
        "astId": 8682,
        "contract": "contracts/GasVault.sol:GasVault",
        "label": "__gap",
        "offset": 0,
        "slot": "1",
        "type": "t_array(t_uint256)50_storage"
      },
      {
        "astId": 420,
        "contract": "contracts/GasVault.sol:GasVault",
        "label": "_owner",
        "offset": 0,
        "slot": "51",
        "type": "t_address"
      },
      {
        "astId": 534,
        "contract": "contracts/GasVault.sol:GasVault",
        "label": "__gap",
        "offset": 0,
        "slot": "52",
        "type": "t_array(t_uint256)49_storage"
      },
      {
        "astId": 4816,
        "contract": "contracts/GasVault.sol:GasVault",
        "label": "__gap",
        "offset": 0,
        "slot": "101",
        "type": "t_array(t_uint256)50_storage"
      },
      {
        "astId": 5011,
        "contract": "contracts/GasVault.sol:GasVault",
        "label": "__gap",
        "offset": 0,
        "slot": "151",
        "type": "t_array(t_uint256)50_storage"
      },
      {
        "astId": 5139,
        "contract": "contracts/GasVault.sol:GasVault",
        "label": "_status",
        "offset": 0,
        "slot": "201",
        "type": "t_uint256"
      },
      {
        "astId": 5182,
        "contract": "contracts/GasVault.sol:GasVault",
        "label": "__gap",
        "offset": 0,
        "slot": "202",
        "type": "t_array(t_uint256)49_storage"
      },
      {
        "astId": 13265,
        "contract": "contracts/GasVault.sol:GasVault",
        "label": "orchestrator",
        "offset": 0,
        "slot": "251",
        "type": "t_contract(IOrchestrator)17883"
      },
      {
        "astId": 13268,
        "contract": "contracts/GasVault.sol:GasVault",
        "label": "strategyRegistry",
        "offset": 0,
        "slot": "252",
        "type": "t_contract(IStrategyRegistry)18321"
      },
      {
        "astId": 13271,
        "contract": "contracts/GasVault.sol:GasVault",
        "label": "vaultRegistry",
        "offset": 0,
        "slot": "253",
        "type": "t_contract(IVaultRegistry)18512"
      },
      {
        "astId": 13276,
        "contract": "contracts/GasVault.sol:GasVault",
        "label": "ethBalances",
        "offset": 0,
        "slot": "254",
        "type": "t_mapping(t_address,t_uint256)"
      }
    ],
    "types": {
      "t_address": {
        "encoding": "inplace",
        "label": "address",
        "numberOfBytes": "20"
      },
      "t_array(t_uint256)49_storage": {
        "base": "t_uint256",
        "encoding": "inplace",
        "label": "uint256[49]",
        "numberOfBytes": "1568"
      },
      "t_array(t_uint256)50_storage": {
        "base": "t_uint256",
        "encoding": "inplace",
        "label": "uint256[50]",
        "numberOfBytes": "1600"
      },
      "t_bool": {
        "encoding": "inplace",
        "label": "bool",
        "numberOfBytes": "1"
      },
      "t_contract(IOrchestrator)17883": {
        "encoding": "inplace",
        "label": "contract IOrchestrator",
        "numberOfBytes": "20"
      },
      "t_contract(IStrategyRegistry)18321": {
        "encoding": "inplace",
        "label": "contract IStrategyRegistry",
        "numberOfBytes": "20"
      },
      "t_contract(IVaultRegistry)18512": {
        "encoding": "inplace",
        "label": "contract IVaultRegistry",
        "numberOfBytes": "20"
      },
      "t_mapping(t_address,t_uint256)": {
        "encoding": "mapping",
        "key": "t_address",
        "label": "mapping(address => uint256)",
        "numberOfBytes": "32",
        "value": "t_uint256"
      },
      "t_uint256": {
        "encoding": "inplace",
        "label": "uint256",
        "numberOfBytes": "32"
      }
    }
  }
}