{
  "address": "0x58CfE7Eb9b5B9A2588F7689c6Ae2F630dA196C84",
  "abi": [
    {
      "inputs": [],
      "stateMutability": "nonpayable",
      "type": "constructor"
    },
    {
      "anonymous": false,
      "inputs": [
        {
          "indexed": false,
          "internalType": "address",
          "name": "previousAdmin",
          "type": "address"
        },
        {
          "indexed": false,
          "internalType": "address",
          "name": "newAdmin",
          "type": "address"
        }
      ],
      "name": "AdminChanged",
      "type": "event"
    },
    {
      "anonymous": false,
      "inputs": [
        {
          "indexed": true,
          "internalType": "address",
          "name": "beacon",
          "type": "address"
        }
      ],
      "name": "BeaconUpgraded",
      "type": "event"
    },
    {
      "anonymous": false,
      "inputs": [
        {
          "indexed": true,
          "internalType": "address",
          "name": "previousOwner",
          "type": "address"
        },
        {
          "indexed": true,
          "internalType": "address",
          "name": "newOwner",
          "type": "address"
        }
      ],
      "name": "OwnershipTransferred",
      "type": "event"
    },
    {
      "anonymous": false,
      "inputs": [
        {
          "indexed": false,
          "internalType": "uint256",
          "name": "proposalId",
          "type": "uint256"
        }
      ],
      "name": "ProposalCanceled",
      "type": "event"
    },
    {
      "anonymous": false,
      "inputs": [
        {
          "indexed": false,
          "internalType": "uint256",
          "name": "proposalId",
          "type": "uint256"
        },
        {
          "indexed": false,
          "internalType": "address",
          "name": "proposer",
          "type": "address"
        },
        {
          "indexed": false,
          "internalType": "address[]",
          "name": "targets",
          "type": "address[]"
        },
        {
          "indexed": false,
          "internalType": "uint256[]",
          "name": "values",
          "type": "uint256[]"
        },
        {
          "indexed": false,
          "internalType": "string[]",
          "name": "signatures",
          "type": "string[]"
        },
        {
          "indexed": false,
          "internalType": "bytes[]",
          "name": "calldatas",
          "type": "bytes[]"
        },
        {
          "indexed": false,
          "internalType": "uint256",
          "name": "startBlock",
          "type": "uint256"
        },
        {
          "indexed": false,
          "internalType": "uint256",
          "name": "endBlock",
          "type": "uint256"
        },
        {
          "indexed": false,
          "internalType": "string",
          "name": "description",
          "type": "string"
        }
      ],
      "name": "ProposalCreated",
      "type": "event"
    },
    {
      "anonymous": false,
      "inputs": [
        {
          "indexed": false,
          "internalType": "uint256",
          "name": "proposalId",
          "type": "uint256"
        }
      ],
      "name": "ProposalExecuted",
      "type": "event"
    },
    {
      "anonymous": false,
      "inputs": [
        {
          "indexed": false,
          "internalType": "uint256",
          "name": "proposalId",
          "type": "uint256"
        },
        {
          "indexed": false,
          "internalType": "uint256",
          "name": "eta",
          "type": "uint256"
        }
      ],
      "name": "ProposalQueued",
      "type": "event"
    },
    {
      "anonymous": false,
      "inputs": [
        {
          "indexed": false,
          "internalType": "uint256",
          "name": "oldProposalThreshold",
          "type": "uint256"
        },
        {
          "indexed": false,
          "internalType": "uint256",
          "name": "newProposalThreshold",
          "type": "uint256"
        }
      ],
      "name": "ProposalThresholdSet",
      "type": "event"
    },
    {
      "anonymous": false,
      "inputs": [
        {
          "indexed": false,
          "internalType": "uint256",
          "name": "oldQuorumNumerator",
          "type": "uint256"
        },
        {
          "indexed": false,
          "internalType": "uint256",
          "name": "newQuorumNumerator",
          "type": "uint256"
        }
      ],
      "name": "QuorumNumeratorUpdated",
      "type": "event"
    },
    {
      "anonymous": false,
      "inputs": [
        {
          "indexed": false,
          "internalType": "address",
          "name": "oldTimelock",
          "type": "address"
        },
        {
          "indexed": false,
          "internalType": "address",
          "name": "newTimelock",
          "type": "address"
        }
      ],
      "name": "TimelockChange",
      "type": "event"
    },
    {
      "anonymous": false,
      "inputs": [
        {
          "indexed": true,
          "internalType": "address",
          "name": "implementation",
          "type": "address"
        }
      ],
      "name": "Upgraded",
      "type": "event"
    },
    {
      "anonymous": false,
      "inputs": [
        {
          "indexed": true,
          "internalType": "address",
          "name": "voter",
          "type": "address"
        },
        {
          "indexed": false,
          "internalType": "uint256",
          "name": "proposalId",
          "type": "uint256"
        },
        {
          "indexed": false,
          "internalType": "uint8",
          "name": "support",
          "type": "uint8"
        },
        {
          "indexed": false,
          "internalType": "uint256",
          "name": "weight",
          "type": "uint256"
        },
        {
          "indexed": false,
          "internalType": "string",
          "name": "reason",
          "type": "string"
        }
      ],
      "name": "VoteCast",
      "type": "event"
    },
    {
      "anonymous": false,
      "inputs": [
        {
          "indexed": false,
          "internalType": "uint256",
          "name": "oldVotingDelay",
          "type": "uint256"
        },
        {
          "indexed": false,
          "internalType": "uint256",
          "name": "newVotingDelay",
          "type": "uint256"
        }
      ],
      "name": "VotingDelaySet",
      "type": "event"
    },
    {
      "anonymous": false,
      "inputs": [
        {
          "indexed": false,
          "internalType": "uint256",
          "name": "oldVotingPeriod",
          "type": "uint256"
        },
        {
          "indexed": false,
          "internalType": "uint256",
          "name": "newVotingPeriod",
          "type": "uint256"
        }
      ],
      "name": "VotingPeriodSet",
      "type": "event"
    },
    {
      "anonymous": false,
      "inputs": [
        {
          "indexed": false,
          "internalType": "address[]",
          "name": "recipients",
          "type": "address[]"
        }
      ],
      "name": "VotingPowerGiven",
      "type": "event"
    },
    {
      "anonymous": false,
      "inputs": [
        {
          "indexed": false,
          "internalType": "address[]",
          "name": "recipients",
          "type": "address[]"
        }
      ],
      "name": "VotingPowerRemoved",
      "type": "event"
    },
    {
      "inputs": [],
      "name": "BALLOT_TYPEHASH",
      "outputs": [
        {
          "internalType": "bytes32",
          "name": "",
          "type": "bytes32"
        }
      ],
      "stateMutability": "view",
      "type": "function"
    },
    {
      "inputs": [],
      "name": "COUNTING_MODE",
      "outputs": [
        {
          "internalType": "string",
          "name": "",
          "type": "string"
        }
      ],
      "stateMutability": "pure",
      "type": "function"
    },
    {
      "inputs": [
        {
          "internalType": "uint256",
          "name": "proposalId",
          "type": "uint256"
        }
      ],
      "name": "cancel",
      "outputs": [],
      "stateMutability": "nonpayable",
      "type": "function"
    },
    {
      "inputs": [
        {
          "internalType": "uint256",
          "name": "proposalId",
          "type": "uint256"
        },
        {
          "internalType": "uint8",
          "name": "support",
          "type": "uint8"
        }
      ],
      "name": "castVote",
      "outputs": [
        {
          "internalType": "uint256",
          "name": "",
          "type": "uint256"
        }
      ],
      "stateMutability": "nonpayable",
      "type": "function"
    },
    {
      "inputs": [
        {
          "internalType": "uint256",
          "name": "proposalId",
          "type": "uint256"
        },
        {
          "internalType": "uint8",
          "name": "support",
          "type": "uint8"
        },
        {
          "internalType": "uint8",
          "name": "v",
          "type": "uint8"
        },
        {
          "internalType": "bytes32",
          "name": "r",
          "type": "bytes32"
        },
        {
          "internalType": "bytes32",
          "name": "s",
          "type": "bytes32"
        }
      ],
      "name": "castVoteBySig",
      "outputs": [
        {
          "internalType": "uint256",
          "name": "",
          "type": "uint256"
        }
      ],
      "stateMutability": "nonpayable",
      "type": "function"
    },
    {
      "inputs": [
        {
          "internalType": "uint256",
          "name": "proposalId",
          "type": "uint256"
        },
        {
          "internalType": "uint8",
          "name": "support",
          "type": "uint8"
        },
        {
          "internalType": "string",
          "name": "reason",
          "type": "string"
        }
      ],
      "name": "castVoteWithReason",
      "outputs": [
        {
          "internalType": "uint256",
          "name": "",
          "type": "uint256"
        }
      ],
      "stateMutability": "nonpayable",
      "type": "function"
    },
    {
      "inputs": [
        {
          "internalType": "address[]",
          "name": "targets",
          "type": "address[]"
        },
        {
          "internalType": "uint256[]",
          "name": "values",
          "type": "uint256[]"
        },
        {
          "internalType": "bytes[]",
          "name": "calldatas",
          "type": "bytes[]"
        },
        {
          "internalType": "bytes32",
          "name": "descriptionHash",
          "type": "bytes32"
        }
      ],
      "name": "execute",
      "outputs": [
        {
          "internalType": "uint256",
          "name": "",
          "type": "uint256"
        }
      ],
      "stateMutability": "payable",
      "type": "function"
    },
    {
      "inputs": [
        {
          "internalType": "uint256",
          "name": "proposalId",
          "type": "uint256"
        }
      ],
      "name": "execute",
      "outputs": [],
      "stateMutability": "payable",
      "type": "function"
    },
    {
      "inputs": [
        {
          "internalType": "uint256",
          "name": "proposalId",
          "type": "uint256"
        }
      ],
      "name": "getActions",
      "outputs": [
        {
          "internalType": "address[]",
          "name": "targets",
          "type": "address[]"
        },
        {
          "internalType": "uint256[]",
          "name": "values",
          "type": "uint256[]"
        },
        {
          "internalType": "string[]",
          "name": "signatures",
          "type": "string[]"
        },
        {
          "internalType": "bytes[]",
          "name": "calldatas",
          "type": "bytes[]"
        }
      ],
      "stateMutability": "view",
      "type": "function"
    },
    {
      "inputs": [
        {
          "internalType": "uint256",
          "name": "proposalId",
          "type": "uint256"
        },
        {
          "internalType": "address",
          "name": "voter",
          "type": "address"
        }
      ],
      "name": "getReceipt",
      "outputs": [
        {
          "components": [
            {
              "internalType": "bool",
              "name": "hasVoted",
              "type": "bool"
            },
            {
              "internalType": "uint8",
              "name": "support",
              "type": "uint8"
            },
            {
              "internalType": "uint96",
              "name": "votes",
              "type": "uint96"
            }
          ],
          "internalType": "struct IGovernorCompatibilityBravoUpgradeable.Receipt",
          "name": "",
          "type": "tuple"
        }
      ],
      "stateMutability": "view",
      "type": "function"
    },
    {
      "inputs": [
        {
          "internalType": "address",
          "name": "account",
          "type": "address"
        },
        {
          "internalType": "uint256",
          "name": "blockNumber",
          "type": "uint256"
        }
      ],
      "name": "getVotes",
      "outputs": [
        {
          "internalType": "uint256",
          "name": "",
          "type": "uint256"
        }
      ],
      "stateMutability": "view",
      "type": "function"
    },
    {
      "inputs": [
        {
          "internalType": "address[]",
          "name": "_recipients",
          "type": "address[]"
        }
      ],
      "name": "giveVotingPower",
      "outputs": [],
      "stateMutability": "nonpayable",
      "type": "function"
    },
    {
      "inputs": [
        {
          "internalType": "uint256",
          "name": "proposalId",
          "type": "uint256"
        },
        {
          "internalType": "address",
          "name": "account",
          "type": "address"
        }
      ],
      "name": "hasVoted",
      "outputs": [
        {
          "internalType": "bool",
          "name": "",
          "type": "bool"
        }
      ],
      "stateMutability": "view",
      "type": "function"
    },
    {
      "inputs": [
        {
          "internalType": "address",
          "name": "",
          "type": "address"
        }
      ],
      "name": "hasVotingPower",
      "outputs": [
        {
          "internalType": "bool",
          "name": "",
          "type": "bool"
        }
      ],
      "stateMutability": "view",
      "type": "function"
    },
    {
      "inputs": [
        {
          "internalType": "address[]",
          "name": "targets",
          "type": "address[]"
        },
        {
          "internalType": "uint256[]",
          "name": "values",
          "type": "uint256[]"
        },
        {
          "internalType": "bytes[]",
          "name": "calldatas",
          "type": "bytes[]"
        },
        {
          "internalType": "bytes32",
          "name": "descriptionHash",
          "type": "bytes32"
        }
      ],
      "name": "hashProposal",
      "outputs": [
        {
          "internalType": "uint256",
          "name": "",
          "type": "uint256"
        }
      ],
      "stateMutability": "pure",
      "type": "function"
    },
    {
      "inputs": [
        {
          "internalType": "contract ERC20VotesUpgradeable",
          "name": "_token",
          "type": "address"
        },
        {
          "internalType": "contract TimelockControllerUpgradeable",
          "name": "_timelock",
          "type": "address"
        },
        {
          "internalType": "address",
          "name": "_steerTimeLock",
          "type": "address"
        },
        {
          "internalType": "address[]",
          "name": "_voters",
          "type": "address[]"
        }
      ],
      "name": "initialize",
      "outputs": [],
      "stateMutability": "nonpayable",
      "type": "function"
    },
    {
      "inputs": [],
      "name": "name",
      "outputs": [
        {
          "internalType": "string",
          "name": "",
          "type": "string"
        }
      ],
      "stateMutability": "view",
      "type": "function"
    },
    {
      "inputs": [],
      "name": "owner",
      "outputs": [
        {
          "internalType": "address",
          "name": "",
          "type": "address"
        }
      ],
      "stateMutability": "view",
      "type": "function"
    },
    {
      "inputs": [
        {
          "internalType": "uint256",
          "name": "proposalId",
          "type": "uint256"
        }
      ],
      "name": "proposalDeadline",
      "outputs": [
        {
          "internalType": "uint256",
          "name": "",
          "type": "uint256"
        }
      ],
      "stateMutability": "view",
      "type": "function"
    },
    {
      "inputs": [
        {
          "internalType": "uint256",
          "name": "proposalId",
          "type": "uint256"
        }
      ],
      "name": "proposalEta",
      "outputs": [
        {
          "internalType": "uint256",
          "name": "",
          "type": "uint256"
        }
      ],
      "stateMutability": "view",
      "type": "function"
    },
    {
      "inputs": [
        {
          "internalType": "uint256",
          "name": "proposalId",
          "type": "uint256"
        }
      ],
      "name": "proposalSnapshot",
      "outputs": [
        {
          "internalType": "uint256",
          "name": "",
          "type": "uint256"
        }
      ],
      "stateMutability": "view",
      "type": "function"
    },
    {
      "inputs": [],
      "name": "proposalThreshold",
      "outputs": [
        {
          "internalType": "uint256",
          "name": "",
          "type": "uint256"
        }
      ],
      "stateMutability": "view",
      "type": "function"
    },
    {
      "inputs": [
        {
          "internalType": "uint256",
          "name": "proposalId",
          "type": "uint256"
        }
      ],
      "name": "proposals",
      "outputs": [
        {
          "internalType": "uint256",
          "name": "id",
          "type": "uint256"
        },
        {
          "internalType": "address",
          "name": "proposer",
          "type": "address"
        },
        {
          "internalType": "uint256",
          "name": "eta",
          "type": "uint256"
        },
        {
          "internalType": "uint256",
          "name": "startBlock",
          "type": "uint256"
        },
        {
          "internalType": "uint256",
          "name": "endBlock",
          "type": "uint256"
        },
        {
          "internalType": "uint256",
          "name": "forVotes",
          "type": "uint256"
        },
        {
          "internalType": "uint256",
          "name": "againstVotes",
          "type": "uint256"
        },
        {
          "internalType": "uint256",
          "name": "abstainVotes",
          "type": "uint256"
        },
        {
          "internalType": "bool",
          "name": "canceled",
          "type": "bool"
        },
        {
          "internalType": "bool",
          "name": "executed",
          "type": "bool"
        }
      ],
      "stateMutability": "view",
      "type": "function"
    },
    {
      "inputs": [
        {
          "internalType": "address[]",
          "name": "targets",
          "type": "address[]"
        },
        {
          "internalType": "uint256[]",
          "name": "values",
          "type": "uint256[]"
        },
        {
          "internalType": "bytes[]",
          "name": "calldatas",
          "type": "bytes[]"
        },
        {
          "internalType": "string",
          "name": "description",
          "type": "string"
        }
      ],
      "name": "propose",
      "outputs": [
        {
          "internalType": "uint256",
          "name": "",
          "type": "uint256"
        }
      ],
      "stateMutability": "nonpayable",
      "type": "function"
    },
    {
      "inputs": [
        {
          "internalType": "address[]",
          "name": "targets",
          "type": "address[]"
        },
        {
          "internalType": "uint256[]",
          "name": "values",
          "type": "uint256[]"
        },
        {
          "internalType": "string[]",
          "name": "signatures",
          "type": "string[]"
        },
        {
          "internalType": "bytes[]",
          "name": "calldatas",
          "type": "bytes[]"
        },
        {
          "internalType": "string",
          "name": "description",
          "type": "string"
        }
      ],
      "name": "propose",
      "outputs": [
        {
          "internalType": "uint256",
          "name": "",
          "type": "uint256"
        }
      ],
      "stateMutability": "nonpayable",
      "type": "function"
    },
    {
      "inputs": [
        {
          "internalType": "address[]",
          "name": "targets",
          "type": "address[]"
        },
        {
          "internalType": "uint256[]",
          "name": "values",
          "type": "uint256[]"
        },
        {
          "internalType": "bytes[]",
          "name": "calldatas",
          "type": "bytes[]"
        },
        {
          "internalType": "bytes32",
          "name": "descriptionHash",
          "type": "bytes32"
        }
      ],
      "name": "queue",
      "outputs": [
        {
          "internalType": "uint256",
          "name": "",
          "type": "uint256"
        }
      ],
      "stateMutability": "nonpayable",
      "type": "function"
    },
    {
      "inputs": [
        {
          "internalType": "uint256",
          "name": "proposalId",
          "type": "uint256"
        }
      ],
      "name": "queue",
      "outputs": [],
      "stateMutability": "nonpayable",
      "type": "function"
    },
    {
      "inputs": [
        {
          "internalType": "uint256",
          "name": "blockNumber",
          "type": "uint256"
        }
      ],
      "name": "quorum",
      "outputs": [
        {
          "internalType": "uint256",
          "name": "",
          "type": "uint256"
        }
      ],
      "stateMutability": "view",
      "type": "function"
    },
    {
      "inputs": [],
      "name": "quorumDenominator",
      "outputs": [
        {
          "internalType": "uint256",
          "name": "",
          "type": "uint256"
        }
      ],
      "stateMutability": "view",
      "type": "function"
    },
    {
      "inputs": [],
      "name": "quorumNumerator",
      "outputs": [
        {
          "internalType": "uint256",
          "name": "",
          "type": "uint256"
        }
      ],
      "stateMutability": "view",
      "type": "function"
    },
    {
      "inputs": [],
      "name": "quorumVotes",
      "outputs": [
        {
          "internalType": "uint256",
          "name": "",
          "type": "uint256"
        }
      ],
      "stateMutability": "view",
      "type": "function"
    },
    {
      "inputs": [
        {
          "internalType": "address[]",
          "name": "_recipients",
          "type": "address[]"
        }
      ],
      "name": "removeVotingPower",
      "outputs": [],
      "stateMutability": "nonpayable",
      "type": "function"
    },
    {
      "inputs": [],
      "name": "renounceOwnership",
      "outputs": [],
      "stateMutability": "nonpayable",
      "type": "function"
    },
    {
      "inputs": [
        {
          "internalType": "uint256",
          "name": "newProposalThreshold",
          "type": "uint256"
        }
      ],
      "name": "setProposalThreshold",
      "outputs": [],
      "stateMutability": "nonpayable",
      "type": "function"
    },
    {
      "inputs": [
        {
          "internalType": "uint256",
          "name": "newVotingDelay",
          "type": "uint256"
        }
      ],
      "name": "setVotingDelay",
      "outputs": [],
      "stateMutability": "nonpayable",
      "type": "function"
    },
    {
      "inputs": [
        {
          "internalType": "uint256",
          "name": "newVotingPeriod",
          "type": "uint256"
        }
      ],
      "name": "setVotingPeriod",
      "outputs": [],
      "stateMutability": "nonpayable",
      "type": "function"
    },
    {
      "inputs": [
        {
          "internalType": "uint256",
          "name": "proposalId",
          "type": "uint256"
        }
      ],
      "name": "state",
      "outputs": [
        {
          "internalType": "enum IGovernorUpgradeable.ProposalState",
          "name": "",
          "type": "uint8"
        }
      ],
      "stateMutability": "view",
      "type": "function"
    },
    {
      "inputs": [
        {
          "internalType": "bytes4",
          "name": "interfaceId",
          "type": "bytes4"
        }
      ],
      "name": "supportsInterface",
      "outputs": [
        {
          "internalType": "bool",
          "name": "",
          "type": "bool"
        }
      ],
      "stateMutability": "view",
      "type": "function"
    },
    {
      "inputs": [],
      "name": "timelock",
      "outputs": [
        {
          "internalType": "address",
          "name": "",
          "type": "address"
        }
      ],
      "stateMutability": "view",
      "type": "function"
    },
    {
      "inputs": [],
      "name": "token",
      "outputs": [
        {
          "internalType": "contract ERC20VotesUpgradeable",
          "name": "",
          "type": "address"
        }
      ],
      "stateMutability": "view",
      "type": "function"
    },
    {
      "inputs": [
        {
          "internalType": "address",
          "name": "newOwner",
          "type": "address"
        }
      ],
      "name": "transferOwnership",
      "outputs": [],
      "stateMutability": "nonpayable",
      "type": "function"
    },
    {
      "inputs": [
        {
          "internalType": "uint256",
          "name": "newQuorumNumerator",
          "type": "uint256"
        }
      ],
      "name": "updateQuorumNumerator",
      "outputs": [],
      "stateMutability": "nonpayable",
      "type": "function"
    },
    {
      "inputs": [
        {
          "internalType": "contract TimelockControllerUpgradeable",
          "name": "newTimelock",
          "type": "address"
        }
      ],
      "name": "updateTimelock",
      "outputs": [],
      "stateMutability": "nonpayable",
      "type": "function"
    },
    {
      "inputs": [
        {
          "internalType": "address",
          "name": "newImplementation",
          "type": "address"
        }
      ],
      "name": "upgradeTo",
      "outputs": [],
      "stateMutability": "nonpayable",
      "type": "function"
    },
    {
      "inputs": [
        {
          "internalType": "address",
          "name": "newImplementation",
          "type": "address"
        },
        {
          "internalType": "bytes",
          "name": "data",
          "type": "bytes"
        }
      ],
      "name": "upgradeToAndCall",
      "outputs": [],
      "stateMutability": "payable",
      "type": "function"
    },
    {
      "inputs": [],
      "name": "version",
      "outputs": [
        {
          "internalType": "string",
          "name": "",
          "type": "string"
        }
      ],
      "stateMutability": "view",
      "type": "function"
    },
    {
      "inputs": [],
      "name": "votingDelay",
      "outputs": [
        {
          "internalType": "uint256",
          "name": "",
          "type": "uint256"
        }
      ],
      "stateMutability": "view",
      "type": "function"
    },
    {
      "inputs": [],
      "name": "votingPeriod",
      "outputs": [
        {
          "internalType": "uint256",
          "name": "",
          "type": "uint256"
        }
      ],
      "stateMutability": "view",
      "type": "function"
    },
    {
      "stateMutability": "payable",
      "type": "receive"
    }
  ],
  "transactionHash": "0x8eb31a21f73ba6cc868fdc2ab5f60a873dd91e6cab6a57509eebf120b2d621f7",
  "args": [],
  "numDeployments": 1,
  "solcInputHash": "4d3e56af63bf54cf90ac1bc35cfb9eec",
  "bytecode": "0x60a0604052306080523480156200001557600080fd5b50600054610100900460ff16620000335760005460ff16156200003d565b6200003d620000e2565b620000a55760405162461bcd60e51b815260206004820152602e60248201527f496e697469616c697a61626c653a20636f6e747261637420697320616c72656160448201526d191e481a5b9a5d1a585b1a5e995960921b606482015260840160405180910390fd5b600054610100900460ff16158015620000c8576000805461ffff19166101011790555b8015620000db576000805461ff00191690555b5062000106565b6000620000fa306200010060201b620022881760201c565b15905090565b3b151590565b6080516151b56200013760003960008181611260015281816112a0015281816116ea015261172a01526151b56000f3fe6080604052600436106102975760003560e01c80638da5cb5b1161015a578063dd4e2ba5116100c1578063eb9019d41161007a578063eb9019d41461096d578063ece40cc11461098d578063f2fde38b146109ad578063f8ce560a146109cd578063fc0c546a146109ed578063fe0d94c114610a0e57600080fd5b8063dd4e2ba5146107c8578063ddf0b0091461080e578063deaaa7cc1461082e578063e23a9a5214610862578063e6bfbfd81461092d578063ea0217cf1461094d57600080fd5b8063b58131b011610113578063b58131b014610714578063c01f9e3714610729578063c59057e414610749578063cf93d92f14610769578063d33219b414610789578063da95691a146107a857600080fd5b80638da5cb5b1461064657806397c3d33414610679578063a7713a701461068d578063a890c910146106a3578063a9b4563c146106c3578063ab58fb8e146106f457600080fd5b80633932abb1116101fe57806354fd4d50116101b757806354fd4d501461058757806356781388146105b157806370b0f660146105d1578063715018a6146105f15780637b3c71d3146106065780637d5e81e21461062657600080fd5b80633932abb1146104a75780633bccf4fd146104bc5780633e4f49e6146104dc57806340e58ee51461050957806343859632146105295780634f1ef2861461057457600080fd5b806324bc1a641161025057806324bc1a64146103ef5780632656227d1461040457806329068c43146104175780632d63f69314610437578063328dd982146104575780633659cfe61461048757600080fd5b8063013cf08b146102bf57806301ffc9a71461033a57806302a251a31461036a57806306f3f9e61461038d57806306fdde03146103ad578063160cbed7146103cf57600080fd5b366102ba57306102a5610a21565b6001600160a01b0316146102b857600080fd5b005b600080fd5b3480156102cb57600080fd5b506102df6102da36600461430a565b610a3b565b604080519a8b526001600160a01b0390991660208b0152978901969096526060880194909452608087019290925260a086015260c085015260e084015215156101008301521515610120820152610140015b60405180910390f35b34801561034657600080fd5b5061035a610355366004614323565b610ae5565b6040519015158152602001610331565b34801561037657600080fd5b5061037f610af6565b604051908152602001610331565b34801561039957600080fd5b506102b86103a836600461430a565b610b02565b3480156103b957600080fd5b506103c2610b4f565b60405161033191906143a9565b3480156103db57600080fd5b5061037f6103ea3660046145f7565b610be2565b3480156103fb57600080fd5b5061037f610de7565b61037f6104123660046145f7565b610df7565b34801561042357600080fd5b506102b8610432366004614686565b610ed0565b34801561044357600080fd5b5061037f61045236600461430a565b610f8b565b34801561046357600080fd5b5061047761047236600461430a565b610fc3565b6040516103319493929190614786565b34801561049357600080fd5b506102b86104a23660046147d3565b611255565b3480156104b357600080fd5b5061037f61131b565b3480156104c857600080fd5b5061037f6104d7366004614806565b611327565b3480156104e857600080fd5b506104fc6104f736600461430a565b6113bb565b604051610331919061486a565b34801561051557600080fd5b506102b861052436600461430a565b6113c6565b34801561053557600080fd5b5061035a610544366004614892565b6000828152610193602090815260408083206001600160a01b038516845260080190915290205460ff1692915050565b6102b86105823660046148c2565b6116df565b34801561059357600080fd5b506040805180820190915260018152603160f81b60208201526103c2565b3480156105bd57600080fd5b5061037f6105cc366004614911565b611799565b3480156105dd57600080fd5b506102b86105ec36600461430a565b6117c2565b3480156105fd57600080fd5b506102b8611803565b34801561061257600080fd5b5061037f61062136600461493d565b61183a565b34801561063257600080fd5b5061037f6106413660046149c3565b61188c565b34801561065257600080fd5b5061025c546001600160a01b03165b6040516001600160a01b039091168152602001610331565b34801561068557600080fd5b50606461037f565b34801561069957600080fd5b506101f85461037f565b3480156106af57600080fd5b506102b86106be3660046147d3565b6118d6565b3480156106cf57600080fd5b5061035a6106de3660046147d3565b6102f36020526000908152604090205460ff1681565b34801561070057600080fd5b5061037f61070f36600461430a565b611917565b34801561072057600080fd5b5061037f6119b4565b34801561073557600080fd5b5061037f61074436600461430a565b6119c0565b34801561075557600080fd5b5061037f6107643660046145f7565b6119f0565b34801561077557600080fd5b506102b8610784366004614686565b611a2a565b34801561079557600080fd5b5061022a546001600160a01b0316610661565b3480156107b457600080fd5b5061037f6107c3366004614a6f565b611ad9565b3480156107d457600080fd5b5060408051808201909152601a81527f737570706f72743d627261766f2671756f72756d3d627261766f00000000000060208201526103c2565b34801561081a57600080fd5b506102b861082936600461430a565b611b1b565b34801561083a57600080fd5b5061037f7f150214d74d59b7d1e90c73fc22ef3d991dd0a76b046543d4d80ab92d2a50328f81565b34801561086e57600080fd5b506108fd61087d366004614892565b6040805160608101825260008082526020820181905291810191909152506000918252610193602090815260408084206001600160a01b0393909316845260089092018152918190208151606081018352905460ff8082161515835261010082041693820193909352620100009092046001600160601b03169082015290565b6040805182511515815260208084015160ff1690820152918101516001600160601b031690820152606001610331565b34801561093957600080fd5b506102b8610948366004614b40565b611d8a565b34801561095957600080fd5b506102b861096836600461430a565b611ee7565b34801561097957600080fd5b5061037f610988366004614ba8565b611f28565b34801561099957600080fd5b506102b86109a836600461430a565b611f34565b3480156109b957600080fd5b506102b86109c83660046147d3565b611f75565b3480156109d957600080fd5b5061037f6109e836600461430a565b61200e565b3480156109f957600080fd5b506101c554610661906001600160a01b031681565b6102b8610a1c36600461430a565b612019565b6000610a3661022a546001600160a01b031690565b905090565b8060008080808080808080610a4f8a611917565b9750610a5a8b610f8b565b9650610a658b6119c0565b60008c81526101936020526040812080546005820154600683015460078401546001600160a01b039093169e50949a509850929650919450610aa68d6113bb565b90506002816007811115610abc57610abc614854565b1493506007816007811115610ad357610ad3614854565b14925050509193959799509193959799565b6000610af08261228e565b92915050565b6000610a366101625490565b610b0a610a21565b6001600160a01b0316336001600160a01b031614610b435760405162461bcd60e51b8152600401610b3a90614bd4565b60405180910390fd5b610b4c816122b3565b50565b606061012f8054610b5f90614c0b565b80601f0160208091040260200160405190810160405280929190818152602001828054610b8b90614c0b565b8015610bd85780601f10610bad57610100808354040283529160200191610bd8565b820191906000526020600020905b815481529060010190602001808311610bbb57829003601f168201915b5050505050905090565b600080610bf1868686866119f0565b90506004610bfe826113bb565b6007811115610c0f57610c0f614854565b14610c2c5760405162461bcd60e51b8152600401610b3a90614c40565b61022a546040805163793d064960e11b815290516000926001600160a01b03169163f27a0c929160048083019260209291908290030181865afa158015610c77573d6000803e3d6000fd5b505050506040513d601f19601f82011682018060405250810190610c9b9190614c81565b61022a5460405163b1c5f42760e01b81529192506001600160a01b03169063b1c5f42790610cd6908a908a908a906000908b90600401614c9a565b602060405180830381865afa158015610cf3573d6000803e3d6000fd5b505050506040513d601f19601f82011682018060405250810190610d179190614c81565b600083815261022b60205260408082209290925561022a5491516308f2a0bb60e41b81526001600160a01b0390921691638f2a0bb091610d64918b918b918b91908b908990600401614ce8565b600060405180830381600087803b158015610d7e57600080fd5b505af1158015610d92573d6000803e3d6000fd5b505050507f9a2e42fd6722813d69113e7d0079d3d940171428df7373df9c7f7617cfda2892828242610dc49190614d56565b604080519283526020830191909152015b60405180910390a15095945050505050565b6000610a366109e8600143614d6e565b600080610e06868686866119f0565b90506000610e13826113bb565b90506004816007811115610e2957610e29614854565b1480610e4657506005816007811115610e4457610e44614854565b145b610e625760405162461bcd60e51b8152600401610b3a90614c40565b6000828152610130602052604090819020600201805460ff19166001179055517f712ae1383f79ac853f8d882153778e0260ef8f03b504e2866e0593e04d2b291f90610eb19084815260200190565b60405180910390a1610ec68288888888612375565b5095945050505050565b6102f2546001600160a01b03163314610ee857600080fd5b805160005b818114610f4f5760006102f36000858481518110610f0d57610f0d614d85565b6020908102919091018101516001600160a01b03168252810191909152604001600020805460ff1916911515919091179055610f4881614d9b565b9050610eed565b507f4bad8be77df8a09ee0726f83f630d301d091cb04bb10666cd521d5b68f1e3eab82604051610f7f9190614db6565b60405180910390a15050565b6000818152610130602090815260408083208151928301909152546001600160401b0316908190525b6001600160401b031692915050565b606080606080600061019360008781526020019081526020016000209050806001018160020182600301836004018380548060200260200160405190810160405280929190818152602001828054801561104657602002820191906000526020600020905b81546001600160a01b03168152600190910190602001808311611028575b505050505093508280548060200260200160405190810160405280929190818152602001828054801561109857602002820191906000526020600020905b815481526020019060010190808311611084575b5050505050925081805480602002602001604051908101604052809291908181526020016000905b8282101561116c5783829060005260206000200180546110df90614c0b565b80601f016020809104026020016040519081016040528092919081815260200182805461110b90614c0b565b80156111585780601f1061112d57610100808354040283529160200191611158565b820191906000526020600020905b81548152906001019060200180831161113b57829003601f168201915b5050505050815260200190600101906110c0565b50505050915080805480602002602001604051908101604052809291908181526020016000905b8282101561123f5783829060005260206000200180546111b290614c0b565b80601f01602080910402602001604051908101604052809291908181526020018280546111de90614c0b565b801561122b5780601f106112005761010080835404028352916020019161122b565b820191906000526020600020905b81548152906001019060200180831161120e57829003601f168201915b505050505081526020019060010190611193565b5050505090509450945094509450509193509193565b306001600160a01b037f000000000000000000000000000000000000000000000000000000000000000016141561129e5760405162461bcd60e51b8152600401610b3a90614dc9565b7f00000000000000000000000000000000000000000000000000000000000000006001600160a01b03166112d0612382565b6001600160a01b0316146112f65760405162461bcd60e51b8152600401610b3a90614e15565b6112ff816123b0565b60408051600080825260208201909252610b4c918391906123db565b6000610a366101615490565b604080517f150214d74d59b7d1e90c73fc22ef3d991dd0a76b046543d4d80ab92d2a50328f602082015290810186905260ff8516606082015260009081906113939061138b906080016040516020818303038152906040528051906020012061251f565b86868661256d565b90506113b08782886040518060200160405280600081525061258b565b979650505050505050565b6000610af082612606565b60008181526101936020526040902080546001600160a01b0316336001600160a01b0316148061141557506113f96119b4565b8154611413906001600160a01b0316610988600143614d6e565b105b6114715760405162461bcd60e51b815260206004820152602760248201527f476f7665726e6f72427261766f3a2070726f706f7365722061626f76652074686044820152661c995cda1bdb1960ca1b6064820152608401610b3a565b6116da816001018054806020026020016040519081016040528092919081815260200182805480156114cc57602002820191906000526020600020905b81546001600160a01b031681526001909101906020018083116114ae575b50505050508260020180548060200260200160405190810160405280929190818152602001828054801561151f57602002820191906000526020600020905b81548152602001906001019080831161150b575b50505050506116d084600301805480602002602001604051908101604052809291908181526020016000905b828210156115f757838290600052602060002001805461156a90614c0b565b80601f016020809104026020016040519081016040528092919081815260200182805461159690614c0b565b80156115e35780601f106115b8576101008083540402835291602001916115e3565b820191906000526020600020905b8154815290600101906020018083116115c657829003601f168201915b50505050508152602001906001019061154b565b50505060048701805460408051602080840282018101909252828152935060009084015b828210156116c757838290600052602060002001805461163a90614c0b565b80601f016020809104026020016040519081016040528092919081815260200182805461166690614c0b565b80156116b35780601f10611688576101008083540402835291602001916116b3565b820191906000526020600020905b81548152906001019060200180831161169657829003601f168201915b50505050508152602001906001019061161b565b505050506126d6565b8460090154612808565b505050565b306001600160a01b037f00000000000000000000000000000000000000000000000000000000000000001614156117285760405162461bcd60e51b8152600401610b3a90614dc9565b7f00000000000000000000000000000000000000000000000000000000000000006001600160a01b031661175a612382565b6001600160a01b0316146117805760405162461bcd60e51b8152600401610b3a90614e15565b611789826123b0565b611795828260016123db565b5050565b6000803390506117ba8482856040518060200160405280600081525061258b565b949350505050565b6117ca610a21565b6001600160a01b0316336001600160a01b0316146117fa5760405162461bcd60e51b8152600401610b3a90614bd4565b610b4c81612879565b61025c546001600160a01b0316331461182e5760405162461bcd60e51b8152600401610b3a90614e61565b61183860006128bc565b565b60008033905061188286828787878080601f01602080910402602001604051908101604052809392919081815260200183838082843760009201919091525061258b92505050565b9695505050505050565b3360009081526102f3602052604081205460ff1615156001146118c15760405162461bcd60e51b8152600401610b3a90614e96565b6118cd8585858561290f565b95945050505050565b6118de610a21565b6001600160a01b0316336001600160a01b03161461190e5760405162461bcd60e51b8152600401610b3a90614bd4565b610b4c81612977565b61022a54600082815261022b602052604080822054905163d45c443560e01b81526004810191909152909182916001600160a01b039091169063d45c443590602401602060405180830381865afa158015611976573d6000803e3d6000fd5b505050506040513d601f19601f8201168201806040525081019061199a9190614c81565b9050806001146119aa57806119ad565b60005b9392505050565b6000610a366101635490565b6000818152610130602090815260408083208151928301909152600101546001600160401b031690819052610fb4565b600084848484604051602001611a099493929190614edb565b60408051601f19818403018152919052805160209091012095945050505050565b6102f2546001600160a01b03163314611a4257600080fd5b805160005b818114611aa95760016102f36000858481518110611a6757611a67614d85565b6020908102919091018101516001600160a01b03168252810191909152604001600020805460ff1916911515919091179055611aa281614d9b565b9050611a47565b507f6f611f4868ca70db690fcedee54f8c060aea0e7bbd24052e07a3cc7a1ef151ca82604051610f7f9190614db6565b3360009081526102f3602052604081205460ff161515600114611b0e5760405162461bcd60e51b8152600401610b3a90614e96565b61188286868686866129e2565b6000818152610193602090815260409182902060018101805484518185028101850190955280855291936116da93909290830182828015611b8557602002820191906000526020600020905b81546001600160a01b03168152600190910190602001808311611b67575b505050505082600201805480602002602001604051908101604052809291908181526020018280548015611bd857602002820191906000526020600020905b815481526020019060010190808311611bc4575b5050505050611d8084600301805480602002602001604051908101604052809291908181526020016000905b82821015611cb0578382906000526020600020018054611c2390614c0b565b80601f0160208091040260200160405190810160405280929190818152602001828054611c4f90614c0b565b8015611c9c5780601f10611c7157610100808354040283529160200191611c9c565b820191906000526020600020905b815481529060010190602001808311611c7f57829003601f168201915b505050505081526020019060010190611c04565b50505060048701805460408051602080840282018101909252828152935060009084015b828210156116c7578382906000526020600020018054611cf390614c0b565b80601f0160208091040260200160405190810160405280929190818152602001828054611d1f90614c0b565b8015611d6c5780601f10611d4157610100808354040283529160200191611d6c565b820191906000526020600020905b815481529060010190602001808311611d4f57829003601f168201915b505050505081526020019060010190611cd4565b8460090154610be2565b600054610100900460ff16611da55760005460ff1615611da9565b303b155b611e0c5760405162461bcd60e51b815260206004820152602e60248201527f496e697469616c697a61626c653a20636f6e747261637420697320616c72656160448201526d191e481a5b9a5d1a585b1a5e995960921b6064820152608401610b3a565b600054610100900460ff16158015611e2e576000805461ffff19166101011790555b611e5e6040518060400160405280600f81526020016e5374656572476f7665726e616e636560881b815250612a07565b611e75600161b2fa68056bc75e2d63100000612a76565b611e7d612ac0565b611e8685612b17565b611e906028612b5f565b611e9984612ba7565b611ea1612bf7565b611ea9612c2e565b6102f280546001600160a01b0319166001600160a01b038516179055611ece82612c55565b8015611ee0576000805461ff00191690555b5050505050565b611eef610a21565b6001600160a01b0316336001600160a01b031614611f1f5760405162461bcd60e51b8152600401610b3a90614bd4565b610b4c81612cbc565b60006119ad8383612d5f565b611f3c610a21565b6001600160a01b0316336001600160a01b031614611f6c5760405162461bcd60e51b8152600401610b3a90614bd4565b610b4c81612dd6565b61025c546001600160a01b03163314611fa05760405162461bcd60e51b8152600401610b3a90614e61565b6001600160a01b0381166120055760405162461bcd60e51b815260206004820152602660248201527f4f776e61626c653a206e6577206f776e657220697320746865207a65726f206160448201526564647265737360d01b6064820152608401610b3a565b610b4c816128bc565b6000610af082612e19565b6000818152610193602090815260409182902060018101805484518185028101850190955280855291936116da9390929083018282801561208357602002820191906000526020600020905b81546001600160a01b03168152600190910190602001808311612065575b5050505050826002018054806020026020016040519081016040528092919081815260200182805480156120d657602002820191906000526020600020905b8154815260200190600101908083116120c2575b505050505061227e84600301805480602002602001604051908101604052809291908181526020016000905b828210156121ae57838290600052602060002001805461212190614c0b565b80601f016020809104026020016040519081016040528092919081815260200182805461214d90614c0b565b801561219a5780601f1061216f5761010080835404028352916020019161219a565b820191906000526020600020905b81548152906001019060200180831161217d57829003601f168201915b505050505081526020019060010190612102565b50505060048701805460408051602080840282018101909252828152935060009084015b828210156116c75783829060005260206000200180546121f190614c0b565b80601f016020809104026020016040519081016040528092919081815260200182805461221d90614c0b565b801561226a5780601f1061223f5761010080835404028352916020019161226a565b820191906000526020600020905b81548152906001019060200180831161224d57829003601f168201915b5050505050815260200190600101906121d2565b8460090154610df7565b3b151590565b60006001600160e01b03198216636e665ced60e01b1480610af05750610af082612ea3565b60648111156123365760405162461bcd60e51b815260206004820152604360248201527f476f7665726e6f72566f74657351756f72756d4672616374696f6e3a2071756f60448201527f72756d4e756d657261746f72206f7665722071756f72756d44656e6f6d696e616064820152623a37b960e91b608482015260a401610b3a565b6101f880549082905560408051828152602081018490527f0553476bf02ef2726e8ce5ced78d63e26e602e4a2257b1f559418e24b46339979101610f7f565b611ee08585858585612ed8565b7f360894a13ba1a3210667c828492db98dca3e2076cc3735a920a3ca505d382bbc546001600160a01b031690565b61025c546001600160a01b03163314610b4c5760405162461bcd60e51b8152600401610b3a90614e61565b60006123e5612382565b90506123f084612f4d565b6000835111806123fd5750815b1561240e5761240c8484612ff2565b505b7f4910fdfa16fed3260ed0e7147f7cc6da11a60208b5b9406d12a635614ffd9143805460ff16611ee057805460ff191660011781556040516001600160a01b038316602482015261248d90869060440160408051601f198184030181529190526020810180516001600160e01b0316631b2ce7f360e11b179052612ff2565b50805460ff1916815561249e612382565b6001600160a01b0316826001600160a01b0316146125165760405162461bcd60e51b815260206004820152602f60248201527f45524331393637557067726164653a207570677261646520627265616b73206660448201526e75727468657220757067726164657360881b6064820152608401610b3a565b611ee0856130d4565b6000610af061252c613114565b8360405161190160f01b6020820152602281018390526042810182905260009060620160405160208183030381529060405280519060200120905092915050565b600080600061257e8787878761318f565b91509150610ec68161327c565b3360009081526102f3602052604081205460ff1615156001146125fa5760405162461bcd60e51b815260206004820152602160248201527f596f7520646f6e2774206861766520706f77657220746f206361737420766f746044820152606560f81b6064820152608401610b3a565b6118cd85858585613437565b60008061261283613542565b9050600481600781111561262857612628614854565b146126335792915050565b600083815261022b60205260409020548061264f575092915050565b61022a54604051632ab0f52960e01b8152600481018390526001600160a01b0390911690632ab0f52990602401602060405180830381865afa158015612699573d6000803e3d6000fd5b505050506040513d601f19601f820116820180604052508101906126bd9190614f26565b156126cc575060079392505050565b5060059392505050565b6060600082516001600160401b038111156126f3576126f36143bc565b60405190808252806020026020018201604052801561272657816020015b60608152602001906001900390816127115790505b50905060005b84518110156128005784818151811061274757612747614d85565b6020026020010151516000146127b75784818151811061276957612769614d85565b60200260200101518051906020012084828151811061278a5761278a614d85565b60200260200101516040516020016127a3929190614f48565b6040516020818303038152906040526127d2565b8381815181106127c9576127c9614d85565b60200260200101515b8282815181106127e4576127e4614d85565b6020026020010181905250806127f990614d9b565b905061272c565b509392505050565b3360009081526102f3602052604081205460ff16151560011461286d5760405162461bcd60e51b815260206004820152601e60248201527f596f7520646f6e2774206861766520706f77657220746f2063616e63656c00006044820152606401610b3a565b6118cd858585856136ab565b6101615460408051918252602082018390527fc565b045403dc03c2eea82b81a0465edad9e2e7fc4d97e11421c209da93d7a93910160405180910390a161016155565b61025c80546001600160a01b038381166001600160a01b0319831681179093556040519116919082907f8be0079c531659141344cd1fd0a4f28419497f9722a3daafe3b4186f6b6457e090600090a35050565b600061296b33868686516001600160401b03811115612930576129306143bc565b60405190808252806020026020018201604052801561296357816020015b606081526020019060019003908161294e5790505b508787613761565b6118cd8585858561381f565b61022a54604080516001600160a01b03928316815291831660208301527f08f74ea46ef7894f65eabfb5e6e695de773a000b47c529ab559178069b226401910160405180910390a161022a80546001600160a01b0319166001600160a01b0392909216919091179055565b60006129f2338787878787613761565b6118828686612a0187876126d6565b8561188c565b600054610100900460ff16612a2e5760405162461bcd60e51b8152600401610b3a90614f79565b612a36613afb565b612a3e613afb565b612a6581612a606040805180820190915260018152603160f81b602082015290565b613b22565b612a6d613afb565b610b4c81613b63565b600054610100900460ff16612a9d5760405162461bcd60e51b8152600401610b3a90614f79565b612aa5613afb565b612aad613afb565b612ab5613afb565b6116da838383613b9e565b600054610100900460ff16612ae75760405162461bcd60e51b8152600401610b3a90614f79565b612aef613afb565b612af7613afb565b612aff613afb565b612b07613afb565b612b0f613afb565b611838613afb565b600054610100900460ff16612b3e5760405162461bcd60e51b8152600401610b3a90614f79565b612b46613afb565b612b4e613afb565b612b56613afb565b610b4c81613be0565b600054610100900460ff16612b865760405162461bcd60e51b8152600401610b3a90614f79565b612b8e613afb565b612b96613afb565b612b9e613afb565b610b4c81613c2a565b600054610100900460ff16612bce5760405162461bcd60e51b8152600401610b3a90614f79565b612bd6613afb565b612bde613afb565b612be6613afb565b612bee613afb565b610b4c81613c51565b600054610100900460ff16612c1e5760405162461bcd60e51b8152600401610b3a90614f79565b612c26613afb565b611838613c78565b600054610100900460ff16612b075760405162461bcd60e51b8152600401610b3a90614f79565b805160005b818114611aa95760016102f36000858481518110612c7a57612c7a614d85565b6020908102919091018101516001600160a01b03168252810191909152604001600020805460ff1916911515919091179055612cb581614d9b565b9050612c5a565b60008111612d1c5760405162461bcd60e51b815260206004820152602760248201527f476f7665726e6f7253657474696e67733a20766f74696e6720706572696f6420604482015266746f6f206c6f7760c81b6064820152608401610b3a565b6101625460408051918252602082018390527f7e3f7f0708a84de9203036abaa450dccc85ad5ff52f78c170f3edb55cf5e8828910160405180910390a161016255565b6101c554604051630748d63560e31b81526001600160a01b038481166004830152602482018490526000921690633a46b1a890604401602060405180830381865afa158015612db2573d6000803e3d6000fd5b505050506040513d601f19601f820116820180604052508101906119ad9190614c81565b6101635460408051918252602082018390527fccb45da8d5717e6c4544694297c4ba5cf151d455c9bb0ed4fc7a38411bc05461910160405180910390a161016355565b600060646101f8546101c554604051632394e7a360e21b8152600481018690526001600160a01b0390911690638e539e8c90602401602060405180830381865afa158015612e6b573d6000803e3d6000fd5b505050506040513d601f19601f82011682018060405250810190612e8f9190614c81565b612e999190614fc4565b610af09190614fe3565b60006001600160e01b0319821663bf26d89760e01b1480610af057506301ffc9a760e01b6001600160e01b0319831614610af0565b61022a5460405163e38335e560e01b81526001600160a01b039091169063e38335e5903490612f14908890889088906000908990600401614c9a565b6000604051808303818588803b158015612f2d57600080fd5b505af1158015612f41573d6000803e3d6000fd5b50505050505050505050565b803b612fb15760405162461bcd60e51b815260206004820152602d60248201527f455243313936373a206e657720696d706c656d656e746174696f6e206973206e60448201526c1bdd08184818dbdb9d1c9858dd609a1b6064820152608401610b3a565b7f360894a13ba1a3210667c828492db98dca3e2076cc3735a920a3ca505d382bbc80546001600160a01b0319166001600160a01b0392909216919091179055565b6060823b6130515760405162461bcd60e51b815260206004820152602660248201527f416464726573733a2064656c65676174652063616c6c20746f206e6f6e2d636f6044820152651b9d1c9858dd60d21b6064820152608401610b3a565b600080846001600160a01b03168460405161306c9190615005565b600060405180830381855af49150503d80600081146130a7576040519150601f19603f3d011682016040523d82523d6000602084013e6130ac565b606091505b50915091506118cd828260405180606001604052806027815260200161515960279139613ca8565b6130dd81612f4d565b6040516001600160a01b038216907fbc7cd75a20ee27fd9adebab32041f755214dbc6bffa90cc0225b39da2e5c2d3b90600090a250565b6000610a367f8b73c3c69bb8fe3d512ecc4cf759cc79239f7b179b0ffacaa9a75d522b39400f61314360655490565b6066546040805160208101859052908101839052606081018290524660808201523060a082015260009060c0016040516020818303038152906040528051906020012090509392505050565b6000807f7fffffffffffffffffffffffffffffff5d576e7357a4501ddfe92f46681b20a08311156131c65750600090506003613273565b8460ff16601b141580156131de57508460ff16601c14155b156131ef5750600090506004613273565b6040805160008082526020820180845289905260ff881692820192909252606081018690526080810185905260019060a0016020604051602081039080840390855afa158015613243573d6000803e3d6000fd5b5050604051601f1901519150506001600160a01b03811661326c57600060019250925050613273565b9150600090505b94509492505050565b600081600481111561329057613290614854565b14156132995750565b60018160048111156132ad576132ad614854565b14156132fb5760405162461bcd60e51b815260206004820152601860248201527f45434453413a20696e76616c6964207369676e617475726500000000000000006044820152606401610b3a565b600281600481111561330f5761330f614854565b141561335d5760405162461bcd60e51b815260206004820152601f60248201527f45434453413a20696e76616c6964207369676e6174757265206c656e677468006044820152606401610b3a565b600381600481111561337157613371614854565b14156133ca5760405162461bcd60e51b815260206004820152602260248201527f45434453413a20696e76616c6964207369676e6174757265202773272076616c604482015261756560f01b6064820152608401610b3a565b60048160048111156133de576133de614854565b1415610b4c5760405162461bcd60e51b815260206004820152602260248201527f45434453413a20696e76616c6964207369676e6174757265202776272076616c604482015261756560f01b6064820152608401610b3a565b6000848152610130602052604081206001613451876113bb565b600781111561346257613462614854565b146134bb5760405162461bcd60e51b815260206004820152602360248201527f476f7665726e6f723a20766f7465206e6f742063757272656e746c792061637460448201526269766560e81b6064820152608401610b3a565b604080516020810190915281546001600160401b0316908190526000906134e3908790611f28565b90506134f187878784613ce1565b856001600160a01b03167fb8e138887d0aa13bab447e82de9d5c1777041ecd21ca36ba824ff1e6c07ddda4888784886040516135309493929190615021565b60405180910390a29695505050505050565b600081815261013060209081526040808320815160a08101835281546001600160401b039081166080830190815282528351808601855260018401549091168152938101939093526002015460ff8082161580159385019390935261010090910416151560608301526135b85750600792915050565b8060600151156135cb5750600292915050565b80515143906001600160401b0316106135e75750600092915050565b436135f482602001515190565b6001600160401b03161061360b5750600192915050565b6136188160200151613e87565b1561365d5761362683613eb6565b801561364957506000838152610193602052604090206006810154600590910154115b6136545760036119ad565b60049392505050565b60405162461bcd60e51b815260206004820152601d60248201527f476f7665726e6f723a20756e6b6e6f776e2070726f706f73616c2069640000006044820152606401610b3a565b50919050565b6000806136ba86868686613edf565b600081815261022b6020526040902054909150156118cd5761022a54600082815261022b60205260409081902054905163c4d252f560e01b81526001600160a01b039092169163c4d252f5916137169160040190815260200190565b600060405180830381600087803b15801561373057600080fd5b505af1158015613744573d6000803e3d6000fd5b505050600082815261022b60205260408120555095945050505050565b80516020820120600061377f878761377988886126d6565b856119f0565b6000818152610193602052604090206009810154919250906138145780546001600160a01b0319166001600160a01b038a1617815587516137c990600183019060208b01906140c0565b5086516137df90600283019060208a0190614121565b5085516137f5906003830190602089019061415c565b50845161380b90600483019060208801906141b5565b50600981018390555b505050505050505050565b60006138296119b4565b61383833610988600143614d6e565b10156138b85760405162461bcd60e51b815260206004820152604360248201527f476f7665726e6f72436f6d7061746962696c697479427261766f3a2070726f7060448201527f6f73657220766f7465732062656c6f772070726f706f73616c207468726573686064820152621bdb1960ea1b608482015260a401610b3a565b60006138cd86868686805190602001206119f0565b905084518651146138f05760405162461bcd60e51b8152600401610b3a90615049565b83518651146139115760405162461bcd60e51b8152600401610b3a90615049565b60008651116139625760405162461bcd60e51b815260206004820152601860248201527f476f7665726e6f723a20656d7074792070726f706f73616c00000000000000006044820152606401610b3a565b60008181526101306020908152604091829020825191820190925281546001600160401b031690819052156139e35760405162461bcd60e51b815260206004820152602160248201527f476f7665726e6f723a2070726f706f73616c20616c72656164792065786973746044820152607360f81b6064820152608401610b3a565b60006139f56139f061131b565b613fec565b6139fe43613fec565b613a08919061508a565b90506000613a176139f0610af6565b613a21908361508a565b835467ffffffffffffffff19166001600160401b038416178455905060018301805467ffffffffffffffff19166001600160401b0383161790557f7d84a6263ae0d98d3329bd7b46bb4e8d6f98cd35a7adb45c274c8b7fd5ebd5e084338b8b8d516001600160401b03811115613a9957613a996143bc565b604051908082528060200260200182016040528015613acc57816020015b6060815260200190600190039081613ab75790505b508c88888e604051613ae6999897969594939291906150b5565b60405180910390a15091979650505050505050565b600054610100900460ff166118385760405162461bcd60e51b8152600401610b3a90614f79565b600054610100900460ff16613b495760405162461bcd60e51b8152600401610b3a90614f79565b815160209283012081519190920120606591909155606655565b600054610100900460ff16613b8a5760405162461bcd60e51b8152600401610b3a90614f79565b80516117959061012f90602084019061420e565b600054610100900460ff16613bc55760405162461bcd60e51b8152600401610b3a90614f79565b613bce83612879565b613bd782612cbc565b6116da81612dd6565b600054610100900460ff16613c075760405162461bcd60e51b8152600401610b3a90614f79565b6101c580546001600160a01b0319166001600160a01b0392909216919091179055565b600054610100900460ff16610b435760405162461bcd60e51b8152600401610b3a90614f79565b600054610100900460ff1661190e5760405162461bcd60e51b8152600401610b3a90614f79565b600054610100900460ff16613c9f5760405162461bcd60e51b8152600401610b3a90614f79565b611838336128bc565b60608315613cb75750816119ad565b825115613cc75782518084602001fd5b8160405162461bcd60e51b8152600401610b3a91906143a9565b6000848152610193602090815260408083206001600160a01b038716845260088101909252909120805460ff1615613d715760405162461bcd60e51b815260206004820152602d60248201527f476f7665726e6f72436f6d7061746962696c697479427261766f3a20766f746560448201526c08185b1c9958591e4818d85cdd609a1b6064820152608401610b3a565b805460ff85166101000261ffff19909116176001178155613d9183614058565b81546001600160601b039190911662010000026dffffffffffffffffffffffff00001990911617815560ff8416613de15782826006016000828254613dd69190614d56565b90915550613e7f9050565b60ff841660011415613e015782826005016000828254613dd69190614d56565b60ff841660021415613e215782826007016000828254613dd69190614d56565b60405162461bcd60e51b815260206004820152602d60248201527f476f7665726e6f72436f6d7061746962696c697479427261766f3a20696e766160448201526c6c696420766f7465207479706560981b6064820152608401610b3a565b505050505050565b6000613e9c82516001600160401b0316151590565b8015610af057505051436001600160401b03909116111590565b6000818152610193602052604081206005810154613ed66109e885610f8b565b11159392505050565b600080613eee868686866119f0565b90506000613efb826113bb565b90506002816007811115613f1157613f11614854565b14158015613f3157506006816007811115613f2e57613f2e614854565b14155b8015613f4f57506007816007811115613f4c57613f4c614854565b14155b613f9b5760405162461bcd60e51b815260206004820152601d60248201527f476f7665726e6f723a2070726f706f73616c206e6f74206163746976650000006044820152606401610b3a565b6000828152610130602052604090819020600201805461ff001916610100179055517f789cf55be980739dad1d0699b93b58e806b51c9d96619bfa8fe0a28abaa7b30c90610dd59084815260200190565b60006001600160401b038211156140545760405162461bcd60e51b815260206004820152602660248201527f53616665436173743a2076616c756520646f65736e27742066697420696e203660448201526534206269747360d01b6064820152608401610b3a565b5090565b60006001600160601b038211156140545760405162461bcd60e51b815260206004820152602660248201527f53616665436173743a2076616c756520646f65736e27742066697420696e203960448201526536206269747360d01b6064820152608401610b3a565b828054828255906000526020600020908101928215614115579160200282015b8281111561411557825182546001600160a01b0319166001600160a01b039091161782556020909201916001909101906140e0565b50614054929150614281565b828054828255906000526020600020908101928215614115579160200282015b82811115614115578251825591602001919060010190614141565b8280548282559060005260206000209081019282156141a9579160200282015b828111156141a9578251805161419991849160209091019061420e565b509160200191906001019061417c565b50614054929150614296565b828054828255906000526020600020908101928215614202579160200282015b8281111561420257825180516141f291849160209091019061420e565b50916020019190600101906141d5565b506140549291506142b3565b82805461421a90614c0b565b90600052602060002090601f01602090048101928261423c5760008555614115565b82601f1061425557805160ff1916838001178555614115565b828001600101855582156141155791820182811115614115578251825591602001919060010190614141565b5b808211156140545760008155600101614282565b808211156140545760006142aa82826142d0565b50600101614296565b808211156140545760006142c782826142d0565b506001016142b3565b5080546142dc90614c0b565b6000825580601f106142ec575050565b601f016020900490600052602060002090810190610b4c9190614281565b60006020828403121561431c57600080fd5b5035919050565b60006020828403121561433557600080fd5b81356001600160e01b0319811681146119ad57600080fd5b60005b83811015614368578181015183820152602001614350565b83811115614377576000848401525b50505050565b6000815180845261439581602086016020860161434d565b601f01601f19169290920160200192915050565b6020815260006119ad602083018461437d565b634e487b7160e01b600052604160045260246000fd5b604051601f8201601f191681016001600160401b03811182821017156143fa576143fa6143bc565b604052919050565b60006001600160401b0382111561441b5761441b6143bc565b5060051b60200190565b6001600160a01b0381168114610b4c57600080fd5b600082601f83011261444b57600080fd5b8135602061446061445b83614402565b6143d2565b82815260059290921b8401810191818101908684111561447f57600080fd5b8286015b848110156144a357803561449681614425565b8352918301918301614483565b509695505050505050565b600082601f8301126144bf57600080fd5b813560206144cf61445b83614402565b82815260059290921b840181019181810190868411156144ee57600080fd5b8286015b848110156144a357803583529183019183016144f2565b600082601f83011261451a57600080fd5b81356001600160401b03811115614533576145336143bc565b614546601f8201601f19166020016143d2565b81815284602083860101111561455b57600080fd5b816020850160208301376000918101602001919091529392505050565b600082601f83011261458957600080fd5b8135602061459961445b83614402565b82815260059290921b840181019181810190868411156145b857600080fd5b8286015b848110156144a35780356001600160401b038111156145db5760008081fd5b6145e98986838b0101614509565b8452509183019183016145bc565b6000806000806080858703121561460d57600080fd5b84356001600160401b038082111561462457600080fd5b6146308883890161443a565b9550602087013591508082111561464657600080fd5b614652888389016144ae565b9450604087013591508082111561466857600080fd5b5061467587828801614578565b949793965093946060013593505050565b60006020828403121561469857600080fd5b81356001600160401b038111156146ae57600080fd5b6117ba8482850161443a565b600081518084526020808501945080840160005b838110156146f35781516001600160a01b0316875295820195908201906001016146ce565b509495945050505050565b600081518084526020808501945080840160005b838110156146f357815187529582019590820190600101614712565b600082825180855260208086019550808260051b84010181860160005b8481101561477957601f1986840301895261476783835161437d565b9884019892509083019060010161474b565b5090979650505050505050565b60808152600061479960808301876146ba565b82810360208401526147ab81876146fe565b905082810360408401526147bf818661472e565b905082810360608401526113b0818561472e565b6000602082840312156147e557600080fd5b81356119ad81614425565b803560ff8116811461480157600080fd5b919050565b600080600080600060a0868803121561481e57600080fd5b8535945061482e602087016147f0565b935061483c604087016147f0565b94979396509394606081013594506080013592915050565b634e487b7160e01b600052602160045260246000fd5b602081016008831061488c57634e487b7160e01b600052602160045260246000fd5b91905290565b600080604083850312156148a557600080fd5b8235915060208301356148b781614425565b809150509250929050565b600080604083850312156148d557600080fd5b82356148e081614425565b915060208301356001600160401b038111156148fb57600080fd5b61490785828601614509565b9150509250929050565b6000806040838503121561492457600080fd5b82359150614934602084016147f0565b90509250929050565b6000806000806060858703121561495357600080fd5b84359350614963602086016147f0565b925060408501356001600160401b038082111561497f57600080fd5b818701915087601f83011261499357600080fd5b8135818111156149a257600080fd5b8860208285010111156149b457600080fd5b95989497505060200194505050565b600080600080608085870312156149d957600080fd5b84356001600160401b03808211156149f057600080fd5b6149fc8883890161443a565b95506020870135915080821115614a1257600080fd5b614a1e888389016144ae565b94506040870135915080821115614a3457600080fd5b614a4088838901614578565b93506060870135915080821115614a5657600080fd5b50614a6387828801614509565b91505092959194509250565b600080600080600060a08688031215614a8757600080fd5b85356001600160401b0380821115614a9e57600080fd5b614aaa89838a0161443a565b96506020880135915080821115614ac057600080fd5b614acc89838a016144ae565b95506040880135915080821115614ae257600080fd5b614aee89838a01614578565b94506060880135915080821115614b0457600080fd5b614b1089838a01614578565b93506080880135915080821115614b2657600080fd5b50614b3388828901614509565b9150509295509295909350565b60008060008060808587031215614b5657600080fd5b8435614b6181614425565b93506020850135614b7181614425565b92506040850135614b8181614425565b915060608501356001600160401b03811115614b9c57600080fd5b614a638782880161443a565b60008060408385031215614bbb57600080fd5b8235614bc681614425565b946020939093013593505050565b60208082526018908201527f476f7665726e6f723a206f6e6c79476f7665726e616e63650000000000000000604082015260600190565b600181811c90821680614c1f57607f821691505b602082108114156136a557634e487b7160e01b600052602260045260246000fd5b60208082526021908201527f476f7665726e6f723a2070726f706f73616c206e6f74207375636365737366756040820152601b60fa1b606082015260800190565b600060208284031215614c9357600080fd5b5051919050565b60a081526000614cad60a08301886146ba565b8281036020840152614cbf81886146fe565b90508281036040840152614cd3818761472e565b60608401959095525050608001529392505050565b60c081526000614cfb60c08301896146ba565b8281036020840152614d0d81896146fe565b90508281036040840152614d21818861472e565b60608401969096525050608081019290925260a0909101529392505050565b634e487b7160e01b600052601160045260246000fd5b60008219821115614d6957614d69614d40565b500190565b600082821015614d8057614d80614d40565b500390565b634e487b7160e01b600052603260045260246000fd5b6000600019821415614daf57614daf614d40565b5060010190565b6020815260006119ad60208301846146ba565b6020808252602c908201527f46756e6374696f6e206d7573742062652063616c6c6564207468726f7567682060408201526b19195b1959d85d1958d85b1b60a21b606082015260800190565b6020808252602c908201527f46756e6374696f6e206d7573742062652063616c6c6564207468726f7567682060408201526b6163746976652070726f787960a01b606082015260800190565b6020808252818101527f4f776e61626c653a2063616c6c6572206973206e6f7420746865206f776e6572604082015260600190565b60208082526025908201527f596f7520646f6e2774206861766520706f77657220746f206d616b652070726f6040820152641c1bdcd85b60da1b606082015260800190565b608081526000614eee60808301876146ba565b8281036020840152614f0081876146fe565b90508281036040840152614f14818661472e565b91505082606083015295945050505050565b600060208284031215614f3857600080fd5b815180151581146119ad57600080fd5b6001600160e01b0319831681528151600090614f6b81600485016020870161434d565b919091016004019392505050565b6020808252602b908201527f496e697469616c697a61626c653a20636f6e7472616374206973206e6f74206960408201526a6e697469616c697a696e6760a81b606082015260800190565b6000816000190483118215151615614fde57614fde614d40565b500290565b60008261500057634e487b7160e01b600052601260045260246000fd5b500490565b6000825161501781846020870161434d565b9190910192915050565b84815260ff84166020820152826040820152608060608201526000611882608083018461437d565b60208082526021908201527f476f7665726e6f723a20696e76616c69642070726f706f73616c206c656e67746040820152600d60fb1b606082015260800190565b60006001600160401b038083168185168083038211156150ac576150ac614d40565b01949350505050565b8981526001600160a01b0389166020820152610120604082018190526000906150e08382018b6146ba565b905082810360608401526150f4818a6146fe565b90508281036080840152615108818961472e565b905082810360a084015261511c818861472e565b6001600160401b0387811660c0860152861660e08501528381036101008501529050615148818561437d565b9c9b50505050505050505050505056fe416464726573733a206c6f772d6c6576656c2064656c65676174652063616c6c206661696c6564a2646970667358221220a36910bcc80a136f5ad7bb22b69b6408c5105483bd93e33aeaf4d20c95980a8a64736f6c634300080c0033",
  "devdoc": {
    "kind": "dev",
    "methods": {
      "COUNTING_MODE()": {
        "details": "A description of the possible `support` values for {castVote} and the way these votes are counted, meant to be consumed by UIs to show correct vote options and interpret the results. The string is a URL-encoded sequence of key-value pairs that each describe one aspect, for example `support=bravo&quorum=for,abstain`. There are 2 standard keys: `support` and `quorum`. - `support=bravo` refers to the vote options 0 = Against, 1 = For, 2 = Abstain, as in `GovernorBravo`. - `quorum=bravo` means that only For votes are counted towards quorum. - `quorum=for,abstain` means that both For and Abstain votes are counted towards quorum. NOTE: The string can be decoded by the standard https://developer.mozilla.org/en-US/docs/Web/API/URLSearchParams[`URLSearchParams`] JavaScript class."
      },
      "cancel(uint256)": {
        "details": "Cancels a proposal only if sender is the proposer, or proposer delegates dropped below proposal threshold."
      },
      "castVote(uint256,uint8)": {
        "details": "See {IGovernor-castVote}."
      },
      "castVoteBySig(uint256,uint8,uint8,bytes32,bytes32)": {
        "details": "See {IGovernor-castVoteBySig}."
      },
      "castVoteWithReason(uint256,uint8,string)": {
        "details": "See {IGovernor-castVoteWithReason}."
      },
      "execute(address[],uint256[],bytes[],bytes32)": {
        "details": "See {IGovernor-execute}."
      },
      "execute(uint256)": {
        "details": "See {IGovernorCompatibilityBravo-execute}."
      },
      "getActions(uint256)": {
        "details": "See {IGovernorCompatibilityBravo-getActions}."
      },
      "getReceipt(uint256,address)": {
        "details": "See {IGovernorCompatibilityBravo-getReceipt}."
      },
      "giveVotingPower(address[])": {
        "details": "Use this function to give the ability to vote in the proposals made in this contract.Only Steer Governance Timelock can call this function.",
        "params": {
          "_recipients": "is the array of addresses that should be given the ability to vote."
        }
      },
      "hasVoted(uint256,address)": {
        "details": "See {IGovernor-hasVoted}."
      },
      "hashProposal(address[],uint256[],bytes[],bytes32)": {
        "details": "See {IGovernor-hashProposal}. The proposal id is produced by hashing the RLC encoded `targets` array, the `values` array, the `calldatas` array and the descriptionHash (bytes32 which itself is the keccak256 hash of the description string). This proposal id can be produced from the proposal data which is part of the {ProposalCreated} event. It can even be computed in advance, before the proposal is submitted. Note that the chainId and the governor address are not part of the proposal id computation. Consequently, the same proposal (with same operation and same description) will have the same id if submitted on multiple governors accross multiple networks. This also means that in order to execute the same operation twice (on the same governor) the proposer will have to change the description in order to avoid proposal id conflicts."
      },
      "name()": {
        "details": "See {IGovernor-name}."
      },
      "owner()": {
        "details": "Returns the address of the current owner."
      },
      "proposalDeadline(uint256)": {
        "details": "See {IGovernor-proposalDeadline}."
      },
      "proposalEta(uint256)": {
        "details": "Public accessor to check the eta of a queued proposal"
      },
      "proposalSnapshot(uint256)": {
        "details": "See {IGovernor-proposalSnapshot}."
      },
      "proposals(uint256)": {
        "details": "See {IGovernorCompatibilityBravo-proposals}."
      },
      "propose(address[],uint256[],bytes[],string)": {
        "details": "propose a new governance action.",
        "params": {
          "calldatas": "the calldata of each proposed action.",
          "description": "the description of this governance action.",
          "targets": "the target address of each proposed action.",
          "values": "the ETH value of each proposed action."
        }
      },
      "propose(address[],uint256[],string[],bytes[],string)": {
        "details": "propose a new governance action, with signatures from other signers",
        "params": {
          "calldatas": "the calldata of each proposed action.",
          "description": "the description of this governance action.",
          "signatures": "extra signatures for bravo governance",
          "targets": "the target address of each proposed action.",
          "values": "the ETH value of each proposed action."
        }
      },
      "queue(address[],uint256[],bytes[],bytes32)": {
        "details": "Function to queue a proposal to the timelock."
      },
      "queue(uint256)": {
        "details": "See {IGovernorCompatibilityBravo-queue}."
      },
      "quorumVotes()": {
        "details": "See {IGovernorCompatibilityBravo-quorumVotes}."
      },
      "removeVotingPower(address[])": {
        "details": "Use this function to remove the ability to vote in the proposals made in this contract.Only Steer Governance Timelock can call this function.",
        "params": {
          "_recipients": "is the array of addresses whose ability to vote should be removed."
        }
      },
      "renounceOwnership()": {
        "details": "Leaves the contract without owner. It will not be possible to call `onlyOwner` functions anymore. Can only be called by the current owner. NOTE: Renouncing ownership will leave the contract without an owner, thereby removing any functionality that is only available to the owner."
      },
      "setProposalThreshold(uint256)": {
        "details": "Update the proposal threshold. This operation can only be performed through a governance proposal. Emits a {ProposalThresholdSet} event."
      },
      "setVotingDelay(uint256)": {
        "details": "Update the voting delay. This operation can only be performed through a governance proposal. Emits a {VotingDelaySet} event."
      },
      "setVotingPeriod(uint256)": {
        "details": "Update the voting period. This operation can only be performed through a governance proposal. Emits a {VotingPeriodSet} event."
      },
      "timelock()": {
        "details": "Public accessor to check the address of the timelock"
      },
      "transferOwnership(address)": {
        "details": "Transfers ownership of the contract to a new account (`newOwner`). Can only be called by the current owner."
      },
      "updateTimelock(address)": {
        "details": "Public endpoint to update the underlying timelock instance. Restricted to the timelock itself, so updates must be proposed, scheduled and executed using the {Governor} workflow."
      },
      "upgradeTo(address)": {
        "details": "Upgrade the implementation of the proxy to `newImplementation`. Calls {_authorizeUpgrade}. Emits an {Upgraded} event."
      },
      "upgradeToAndCall(address,bytes)": {
        "details": "Upgrade the implementation of the proxy to `newImplementation`, and subsequently execute the function call encoded in `data`. Calls {_authorizeUpgrade}. Emits an {Upgraded} event."
      },
      "version()": {
        "details": "See {IGovernor-version}."
      }
    },
    "stateVariables": {
      "steerTimelock": {
        "custom:oz-upgrades-unsafe-allow": "constructor"
      }
    },
    "version": 1
  },
  "userdoc": {
    "kind": "user",
    "methods": {
      "COUNTING_MODE()": {
        "notice": "module:voting"
      }
    },
    "version": 1
  },
  "storageLayout": {
    "storage": [
      {
        "astId": 4904,
        "contract": "contracts/InternalGovernance.sol:InternalGovernance",
        "label": "_initialized",
        "offset": 0,
        "slot": "0",
        "type": "t_bool"
      },
      {
        "astId": 4907,
        "contract": "contracts/InternalGovernance.sol:InternalGovernance",
        "label": "_initializing",
        "offset": 1,
        "slot": "0",
        "type": "t_bool"
      },
      {
        "astId": 9281,
        "contract": "contracts/InternalGovernance.sol:InternalGovernance",
        "label": "__gap",
        "offset": 0,
        "slot": "1",
        "type": "t_array(t_uint256)50_storage"
      },
      {
        "astId": 10707,
        "contract": "contracts/InternalGovernance.sol:InternalGovernance",
        "label": "__gap",
        "offset": 0,
        "slot": "51",
        "type": "t_array(t_uint256)50_storage"
      },
      {
        "astId": 10320,
        "contract": "contracts/InternalGovernance.sol:InternalGovernance",
        "label": "_HASHED_NAME",
        "offset": 0,
        "slot": "101",
        "type": "t_bytes32"
      },
      {
        "astId": 10322,
        "contract": "contracts/InternalGovernance.sol:InternalGovernance",
        "label": "_HASHED_VERSION",
        "offset": 0,
        "slot": "102",
        "type": "t_bytes32"
      },
      {
        "astId": 10459,
        "contract": "contracts/InternalGovernance.sol:InternalGovernance",
        "label": "__gap",
        "offset": 0,
        "slot": "103",
        "type": "t_array(t_uint256)50_storage"
      },
      {
        "astId": 1650,
        "contract": "contracts/InternalGovernance.sol:InternalGovernance",
        "label": "__gap",
        "offset": 0,
        "slot": "153",
        "type": "t_array(t_uint256)50_storage"
      },
      {
        "astId": 4346,
        "contract": "contracts/InternalGovernance.sol:InternalGovernance",
        "label": "__gap",
        "offset": 0,
        "slot": "203",
        "type": "t_array(t_uint256)50_storage"
      },
      {
        "astId": 3461,
        "contract": "contracts/InternalGovernance.sol:InternalGovernance",
        "label": "__gap",
        "offset": 0,
        "slot": "253",
        "type": "t_array(t_uint256)50_storage"
      },
      {
        "astId": 582,
        "contract": "contracts/InternalGovernance.sol:InternalGovernance",
        "label": "_name",
        "offset": 0,
        "slot": "303",
        "type": "t_string_storage"
      },
      {
        "astId": 587,
        "contract": "contracts/InternalGovernance.sol:InternalGovernance",
        "label": "_proposals",
        "offset": 0,
        "slot": "304",
        "type": "t_mapping(t_uint256,t_struct(ProposalCore)580_storage)"
      },
      {
        "astId": 1392,
        "contract": "contracts/InternalGovernance.sol:InternalGovernance",
        "label": "__gap",
        "offset": 0,
        "slot": "305",
        "type": "t_array(t_uint256)48_storage"
      },
      {
        "astId": 3473,
        "contract": "contracts/InternalGovernance.sol:InternalGovernance",
        "label": "_votingDelay",
        "offset": 0,
        "slot": "353",
        "type": "t_uint256"
      },
      {
        "astId": 3475,
        "contract": "contracts/InternalGovernance.sol:InternalGovernance",
        "label": "_votingPeriod",
        "offset": 0,
        "slot": "354",
        "type": "t_uint256"
      },
      {
        "astId": 3477,
        "contract": "contracts/InternalGovernance.sol:InternalGovernance",
        "label": "_proposalThreshold",
        "offset": 0,
        "slot": "355",
        "type": "t_uint256"
      },
      {
        "astId": 3675,
        "contract": "contracts/InternalGovernance.sol:InternalGovernance",
        "label": "__gap",
        "offset": 0,
        "slot": "356",
        "type": "t_array(t_uint256)47_storage"
      },
      {
        "astId": 2560,
        "contract": "contracts/InternalGovernance.sol:InternalGovernance",
        "label": "_proposalDetails",
        "offset": 0,
        "slot": "403",
        "type": "t_mapping(t_uint256,t_struct(ProposalDetails)2555_storage)"
      },
      {
        "astId": 3285,
        "contract": "contracts/InternalGovernance.sol:InternalGovernance",
        "label": "__gap",
        "offset": 0,
        "slot": "404",
        "type": "t_array(t_uint256)49_storage"
      },
      {
        "astId": 4223,
        "contract": "contracts/InternalGovernance.sol:InternalGovernance",
        "label": "token",
        "offset": 0,
        "slot": "453",
        "type": "t_contract(ERC20VotesUpgradeable)6783"
      },
      {
        "astId": 4280,
        "contract": "contracts/InternalGovernance.sol:InternalGovernance",
        "label": "__gap",
        "offset": 0,
        "slot": "454",
        "type": "t_array(t_uint256)50_storage"
      },
      {
        "astId": 4089,
        "contract": "contracts/InternalGovernance.sol:InternalGovernance",
        "label": "_quorumNumerator",
        "offset": 0,
        "slot": "504",
        "type": "t_uint256"
      },
      {
        "astId": 4208,
        "contract": "contracts/InternalGovernance.sol:InternalGovernance",
        "label": "__gap",
        "offset": 0,
        "slot": "505",
        "type": "t_array(t_uint256)49_storage"
      },
      {
        "astId": 3692,
        "contract": "contracts/InternalGovernance.sol:InternalGovernance",
        "label": "_timelock",
        "offset": 0,
        "slot": "554",
        "type": "t_contract(TimelockControllerUpgradeable)2468"
      },
      {
        "astId": 3696,
        "contract": "contracts/InternalGovernance.sol:InternalGovernance",
        "label": "_timelockIds",
        "offset": 0,
        "slot": "555",
        "type": "t_mapping(t_uint256,t_bytes32)"
      },
      {
        "astId": 4077,
        "contract": "contracts/InternalGovernance.sol:InternalGovernance",
        "label": "__gap",
        "offset": 0,
        "slot": "556",
        "type": "t_array(t_uint256)48_storage"
      },
      {
        "astId": 420,
        "contract": "contracts/InternalGovernance.sol:InternalGovernance",
        "label": "_owner",
        "offset": 0,
        "slot": "604",
        "type": "t_address"
      },
      {
        "astId": 534,
        "contract": "contracts/InternalGovernance.sol:InternalGovernance",
        "label": "__gap",
        "offset": 0,
        "slot": "605",
        "type": "t_array(t_uint256)49_storage"
      },
      {
        "astId": 4886,
        "contract": "contracts/InternalGovernance.sol:InternalGovernance",
        "label": "__gap",
        "offset": 0,
        "slot": "654",
        "type": "t_array(t_uint256)50_storage"
      },
      {
        "astId": 5081,
        "contract": "contracts/InternalGovernance.sol:InternalGovernance",
        "label": "__gap",
        "offset": 0,
        "slot": "704",
        "type": "t_array(t_uint256)50_storage"
      },
      {
        "astId": 16495,
        "contract": "contracts/InternalGovernance.sol:InternalGovernance",
        "label": "steerTimelock",
        "offset": 0,
        "slot": "754",
        "type": "t_address"
      },
      {
        "astId": 16499,
        "contract": "contracts/InternalGovernance.sol:InternalGovernance",
        "label": "hasVotingPower",
        "offset": 0,
        "slot": "755",
        "type": "t_mapping(t_address,t_bool)"
      }
    ],
    "types": {
      "t_address": {
        "encoding": "inplace",
        "label": "address",
        "numberOfBytes": "20"
      },
      "t_array(t_address)dyn_storage": {
        "base": "t_address",
        "encoding": "dynamic_array",
        "label": "address[]",
        "numberOfBytes": "32"
      },
      "t_array(t_bytes_storage)dyn_storage": {
        "base": "t_bytes_storage",
        "encoding": "dynamic_array",
        "label": "bytes[]",
        "numberOfBytes": "32"
      },
      "t_array(t_string_storage)dyn_storage": {
        "base": "t_string_storage",
        "encoding": "dynamic_array",
        "label": "string[]",
        "numberOfBytes": "32"
      },
      "t_array(t_uint256)47_storage": {
        "base": "t_uint256",
        "encoding": "inplace",
        "label": "uint256[47]",
        "numberOfBytes": "1504"
      },
      "t_array(t_uint256)48_storage": {
        "base": "t_uint256",
        "encoding": "inplace",
        "label": "uint256[48]",
        "numberOfBytes": "1536"
      },
      "t_array(t_uint256)49_storage": {
        "base": "t_uint256",
        "encoding": "inplace",
        "label": "uint256[49]",
        "numberOfBytes": "1568"
      },
      "t_array(t_uint256)50_storage": {
        "base": "t_uint256",
        "encoding": "inplace",
        "label": "uint256[50]",
        "numberOfBytes": "1600"
      },
      "t_array(t_uint256)dyn_storage": {
        "base": "t_uint256",
        "encoding": "dynamic_array",
        "label": "uint256[]",
        "numberOfBytes": "32"
      },
      "t_bool": {
        "encoding": "inplace",
        "label": "bool",
        "numberOfBytes": "1"
      },
      "t_bytes32": {
        "encoding": "inplace",
        "label": "bytes32",
        "numberOfBytes": "32"
      },
      "t_bytes_storage": {
        "encoding": "bytes",
        "label": "bytes",
        "numberOfBytes": "32"
      },
      "t_contract(ERC20VotesUpgradeable)6783": {
        "encoding": "inplace",
        "label": "contract ERC20VotesUpgradeable",
        "numberOfBytes": "20"
      },
      "t_contract(TimelockControllerUpgradeable)2468": {
        "encoding": "inplace",
        "label": "contract TimelockControllerUpgradeable",
        "numberOfBytes": "20"
      },
      "t_mapping(t_address,t_bool)": {
        "encoding": "mapping",
        "key": "t_address",
        "label": "mapping(address => bool)",
        "numberOfBytes": "32",
        "value": "t_bool"
      },
      "t_mapping(t_address,t_struct(Receipt)3358_storage)": {
        "encoding": "mapping",
        "key": "t_address",
        "label": "mapping(address => struct IGovernorCompatibilityBravoUpgradeable.Receipt)",
        "numberOfBytes": "32",
        "value": "t_struct(Receipt)3358_storage"
      },
      "t_mapping(t_uint256,t_bytes32)": {
        "encoding": "mapping",
        "key": "t_uint256",
        "label": "mapping(uint256 => bytes32)",
        "numberOfBytes": "32",
        "value": "t_bytes32"
      },
      "t_mapping(t_uint256,t_struct(ProposalCore)580_storage)": {
        "encoding": "mapping",
        "key": "t_uint256",
        "label": "mapping(uint256 => struct GovernorUpgradeable.ProposalCore)",
        "numberOfBytes": "32",
        "value": "t_struct(ProposalCore)580_storage"
      },
      "t_mapping(t_uint256,t_struct(ProposalDetails)2555_storage)": {
        "encoding": "mapping",
        "key": "t_uint256",
        "label": "mapping(uint256 => struct GovernorCompatibilityBravoUpgradeable.ProposalDetails)",
        "numberOfBytes": "32",
        "value": "t_struct(ProposalDetails)2555_storage"
      },
      "t_string_storage": {
        "encoding": "bytes",
        "label": "string",
        "numberOfBytes": "32"
      },
      "t_struct(BlockNumber)9730_storage": {
        "encoding": "inplace",
        "label": "struct TimersUpgradeable.BlockNumber",
        "members": [
          {
            "astId": 9729,
            "contract": "contracts/InternalGovernance.sol:InternalGovernance",
            "label": "_deadline",
            "offset": 0,
            "slot": "0",
            "type": "t_uint64"
          }
        ],
        "numberOfBytes": "32"
      },
      "t_struct(ProposalCore)580_storage": {
        "encoding": "inplace",
        "label": "struct GovernorUpgradeable.ProposalCore",
        "members": [
          {
            "astId": 572,
            "contract": "contracts/InternalGovernance.sol:InternalGovernance",
            "label": "voteStart",
            "offset": 0,
            "slot": "0",
            "type": "t_struct(BlockNumber)9730_storage"
          },
          {
            "astId": 575,
            "contract": "contracts/InternalGovernance.sol:InternalGovernance",
            "label": "voteEnd",
            "offset": 0,
            "slot": "1",
            "type": "t_struct(BlockNumber)9730_storage"
          },
          {
            "astId": 577,
            "contract": "contracts/InternalGovernance.sol:InternalGovernance",
            "label": "executed",
            "offset": 0,
            "slot": "2",
            "type": "t_bool"
          },
          {
            "astId": 579,
            "contract": "contracts/InternalGovernance.sol:InternalGovernance",
            "label": "canceled",
            "offset": 1,
            "slot": "2",
            "type": "t_bool"
          }
        ],
        "numberOfBytes": "96"
      },
      "t_struct(ProposalDetails)2555_storage": {
        "encoding": "inplace",
        "label": "struct GovernorCompatibilityBravoUpgradeable.ProposalDetails",
        "members": [
          {
            "astId": 2529,
            "contract": "contracts/InternalGovernance.sol:InternalGovernance",
            "label": "proposer",
            "offset": 0,
            "slot": "0",
            "type": "t_address"
          },
          {
            "astId": 2532,
            "contract": "contracts/InternalGovernance.sol:InternalGovernance",
            "label": "targets",
            "offset": 0,
            "slot": "1",
            "type": "t_array(t_address)dyn_storage"
          },
          {
            "astId": 2535,
            "contract": "contracts/InternalGovernance.sol:InternalGovernance",
            "label": "values",
            "offset": 0,
            "slot": "2",
            "type": "t_array(t_uint256)dyn_storage"
          },
          {
            "astId": 2538,
            "contract": "contracts/InternalGovernance.sol:InternalGovernance",
            "label": "signatures",
            "offset": 0,
            "slot": "3",
            "type": "t_array(t_string_storage)dyn_storage"
          },
          {
            "astId": 2541,
            "contract": "contracts/InternalGovernance.sol:InternalGovernance",
            "label": "calldatas",
            "offset": 0,
            "slot": "4",
            "type": "t_array(t_bytes_storage)dyn_storage"
          },
          {
            "astId": 2543,
            "contract": "contracts/InternalGovernance.sol:InternalGovernance",
            "label": "forVotes",
            "offset": 0,
            "slot": "5",
            "type": "t_uint256"
          },
          {
            "astId": 2545,
            "contract": "contracts/InternalGovernance.sol:InternalGovernance",
            "label": "againstVotes",
            "offset": 0,
            "slot": "6",
            "type": "t_uint256"
          },
          {
            "astId": 2547,
            "contract": "contracts/InternalGovernance.sol:InternalGovernance",
            "label": "abstainVotes",
            "offset": 0,
            "slot": "7",
            "type": "t_uint256"
          },
          {
            "astId": 2552,
            "contract": "contracts/InternalGovernance.sol:InternalGovernance",
            "label": "receipts",
            "offset": 0,
            "slot": "8",
            "type": "t_mapping(t_address,t_struct(Receipt)3358_storage)"
          },
          {
            "astId": 2554,
            "contract": "contracts/InternalGovernance.sol:InternalGovernance",
            "label": "descriptionHash",
            "offset": 0,
            "slot": "9",
            "type": "t_bytes32"
          }
        ],
        "numberOfBytes": "320"
      },
      "t_struct(Receipt)3358_storage": {
        "encoding": "inplace",
        "label": "struct IGovernorCompatibilityBravoUpgradeable.Receipt",
        "members": [
          {
            "astId": 3353,
            "contract": "contracts/InternalGovernance.sol:InternalGovernance",
            "label": "hasVoted",
            "offset": 0,
            "slot": "0",
            "type": "t_bool"
          },
          {
            "astId": 3355,
            "contract": "contracts/InternalGovernance.sol:InternalGovernance",
            "label": "support",
            "offset": 1,
            "slot": "0",
            "type": "t_uint8"
          },
          {
            "astId": 3357,
            "contract": "contracts/InternalGovernance.sol:InternalGovernance",
            "label": "votes",
            "offset": 2,
            "slot": "0",
            "type": "t_uint96"
          }
        ],
        "numberOfBytes": "32"
      },
      "t_uint256": {
        "encoding": "inplace",
        "label": "uint256",
        "numberOfBytes": "32"
      },
      "t_uint64": {
        "encoding": "inplace",
        "label": "uint64",
        "numberOfBytes": "8"
      },
      "t_uint8": {
        "encoding": "inplace",
        "label": "uint8",
        "numberOfBytes": "1"
      },
      "t_uint96": {
        "encoding": "inplace",
        "label": "uint96",
        "numberOfBytes": "12"
      }
    }
  }
}