{
  "address": "0xbe7cC9752725cEAdCc8a74878c40b553bFe4497C",
  "abi": [
    {
      "inputs": [],
      "stateMutability": "nonpayable",
      "type": "constructor"
    },
    {
      "anonymous": false,
      "inputs": [
        {
          "indexed": false,
          "internalType": "address",
          "name": "previousAdmin",
          "type": "address"
        },
        {
          "indexed": false,
          "internalType": "address",
          "name": "newAdmin",
          "type": "address"
        }
      ],
      "name": "AdminChanged",
      "type": "event"
    },
    {
      "anonymous": false,
      "inputs": [
        {
          "indexed": true,
          "internalType": "address",
          "name": "beacon",
          "type": "address"
        }
      ],
      "name": "BeaconUpgraded",
      "type": "event"
    },
    {
      "anonymous": false,
      "inputs": [
        {
          "indexed": true,
          "internalType": "address",
          "name": "keeper",
          "type": "address"
        },
        {
          "indexed": false,
          "internalType": "uint256",
          "name": "leaveTimestamp",
          "type": "uint256"
        }
      ],
      "name": "LeaveQueued",
      "type": "event"
    },
    {
      "anonymous": false,
      "inputs": [
        {
          "indexed": true,
          "internalType": "address",
          "name": "previousOwner",
          "type": "address"
        },
        {
          "indexed": true,
          "internalType": "address",
          "name": "newOwner",
          "type": "address"
        }
      ],
      "name": "OwnershipTransferred",
      "type": "event"
    },
    {
      "anonymous": false,
      "inputs": [
        {
          "indexed": true,
          "internalType": "address",
          "name": "_subject",
          "type": "address"
        },
        {
          "indexed": true,
          "internalType": "enum IKeeperRegistry.permissionType",
          "name": "_permissionType",
          "type": "uint8"
        }
      ],
      "name": "PermissionChanged",
      "type": "event"
    },
    {
      "anonymous": false,
      "inputs": [
        {
          "indexed": true,
          "internalType": "address",
          "name": "implementation",
          "type": "address"
        }
      ],
      "name": "Upgraded",
      "type": "event"
    },
    {
      "inputs": [],
      "name": "bondAmount",
      "outputs": [
        {
          "internalType": "uint256",
          "name": "",
          "type": "uint256"
        }
      ],
      "stateMutability": "view",
      "type": "function"
    },
    {
      "inputs": [],
      "name": "bondCoin",
      "outputs": [
        {
          "internalType": "contract IERC20",
          "name": "",
          "type": "address"
        }
      ],
      "stateMutability": "view",
      "type": "function"
    },
    {
      "inputs": [
        {
          "internalType": "uint256",
          "name": "amount",
          "type": "uint256"
        }
      ],
      "name": "changeBondAmount",
      "outputs": [],
      "stateMutability": "nonpayable",
      "type": "function"
    },
    {
      "inputs": [
        {
          "internalType": "uint16",
          "name": "newNumKeepers",
          "type": "uint16"
        }
      ],
      "name": "changeMaxKeepers",
      "outputs": [],
      "stateMutability": "nonpayable",
      "type": "function"
    },
    {
      "inputs": [
        {
          "internalType": "address",
          "name": "targetAddress",
          "type": "address"
        }
      ],
      "name": "checkLicense",
      "outputs": [
        {
          "internalType": "uint256",
          "name": "licenseNumber",
          "type": "uint256"
        }
      ],
      "stateMutability": "view",
      "type": "function"
    },
    {
      "inputs": [],
      "name": "currentNumKeepers",
      "outputs": [
        {
          "internalType": "uint256",
          "name": "",
          "type": "uint256"
        }
      ],
      "stateMutability": "view",
      "type": "function"
    },
    {
      "inputs": [
        {
          "internalType": "address",
          "name": "targetKeeper",
          "type": "address"
        },
        {
          "internalType": "uint256",
          "name": "amount",
          "type": "uint256"
        }
      ],
      "name": "denounce",
      "outputs": [],
      "stateMutability": "nonpayable",
      "type": "function"
    },
    {
      "inputs": [],
      "name": "freeCoin",
      "outputs": [
        {
          "internalType": "uint256",
          "name": "",
          "type": "uint256"
        }
      ],
      "stateMutability": "view",
      "type": "function"
    },
    {
      "inputs": [
        {
          "internalType": "address",
          "name": "coinAddress",
          "type": "address"
        },
        {
          "internalType": "uint256",
          "name": "keeperTransferDelay",
          "type": "uint256"
        },
        {
          "internalType": "uint256",
          "name": "maxKeepers",
          "type": "uint256"
        },
        {
          "internalType": "uint256",
          "name": "bondSize",
          "type": "uint256"
        }
      ],
      "name": "initialize",
      "outputs": [],
      "stateMutability": "nonpayable",
      "type": "function"
    },
    {
      "inputs": [
        {
          "internalType": "uint256",
          "name": "licenseNumber",
          "type": "uint256"
        },
        {
          "internalType": "uint256",
          "name": "amount",
          "type": "uint256"
        }
      ],
      "name": "join",
      "outputs": [],
      "stateMutability": "nonpayable",
      "type": "function"
    },
    {
      "inputs": [
        {
          "internalType": "address[]",
          "name": "joiners",
          "type": "address[]"
        }
      ],
      "name": "joiningForOwner",
      "outputs": [],
      "stateMutability": "nonpayable",
      "type": "function"
    },
    {
      "inputs": [
        {
          "internalType": "uint256",
          "name": "",
          "type": "uint256"
        }
      ],
      "name": "keeperLicenses",
      "outputs": [
        {
          "internalType": "address",
          "name": "",
          "type": "address"
        }
      ],
      "stateMutability": "view",
      "type": "function"
    },
    {
      "inputs": [],
      "name": "leave",
      "outputs": [],
      "stateMutability": "nonpayable",
      "type": "function"
    },
    {
      "inputs": [],
      "name": "maxNumKeepers",
      "outputs": [
        {
          "internalType": "uint256",
          "name": "",
          "type": "uint256"
        }
      ],
      "stateMutability": "view",
      "type": "function"
    },
    {
      "inputs": [],
      "name": "owner",
      "outputs": [
        {
          "internalType": "address",
          "name": "",
          "type": "address"
        }
      ],
      "stateMutability": "view",
      "type": "function"
    },
    {
      "inputs": [],
      "name": "queueToLeave",
      "outputs": [],
      "stateMutability": "nonpayable",
      "type": "function"
    },
    {
      "inputs": [
        {
          "internalType": "address",
          "name": "",
          "type": "address"
        }
      ],
      "name": "registry",
      "outputs": [
        {
          "internalType": "uint256",
          "name": "bondHeld",
          "type": "uint256"
        },
        {
          "internalType": "uint256",
          "name": "licenseNumber",
          "type": "uint256"
        },
        {
          "internalType": "uint256",
          "name": "leaveTimestamp",
          "type": "uint256"
        }
      ],
      "stateMutability": "view",
      "type": "function"
    },
    {
      "inputs": [],
      "name": "renounceOwnership",
      "outputs": [],
      "stateMutability": "nonpayable",
      "type": "function"
    },
    {
      "inputs": [],
      "name": "transferDelay",
      "outputs": [
        {
          "internalType": "uint256",
          "name": "",
          "type": "uint256"
        }
      ],
      "stateMutability": "view",
      "type": "function"
    },
    {
      "inputs": [
        {
          "internalType": "address",
          "name": "newOwner",
          "type": "address"
        }
      ],
      "name": "transferOwnership",
      "outputs": [],
      "stateMutability": "nonpayable",
      "type": "function"
    },
    {
      "inputs": [
        {
          "internalType": "address",
          "name": "newImplementation",
          "type": "address"
        }
      ],
      "name": "upgradeTo",
      "outputs": [],
      "stateMutability": "nonpayable",
      "type": "function"
    },
    {
      "inputs": [
        {
          "internalType": "address",
          "name": "newImplementation",
          "type": "address"
        },
        {
          "internalType": "bytes",
          "name": "data",
          "type": "bytes"
        }
      ],
      "name": "upgradeToAndCall",
      "outputs": [],
      "stateMutability": "payable",
      "type": "function"
    },
    {
      "inputs": [
        {
          "internalType": "uint256",
          "name": "amount",
          "type": "uint256"
        },
        {
          "internalType": "address",
          "name": "targetAddress",
          "type": "address"
        }
      ],
      "name": "withdrawFreeCoin",
      "outputs": [],
      "stateMutability": "nonpayable",
      "type": "function"
    }
  ],
  "transactionHash": "0xf3ad2aae2c86c4ab86888f2bc7e9cbe31c6acaba5dc1cb2a9f0fbedaa55fccdb",
  "args": [],
  "numDeployments": 1,
  "solcInputHash": "412a8f2cb6c64662ec4ec37c56f333b9",
  "bytecode": "0x60a0604052306080523480156200001557600080fd5b50600054610100900460ff16620000335760005460ff16156200003d565b6200003d620000e2565b620000a55760405162461bcd60e51b815260206004820152602e60248201527f496e697469616c697a61626c653a20636f6e747261637420697320616c72656160448201526d191e481a5b9a5d1a585b1a5e995960921b606482015260840160405180910390fd5b600054610100900460ff16158015620000c8576000805461ffff19166101011790555b8015620000db576000805461ff00191690555b5062000106565b6000620000fa306200010060201b620011621760201c565b15905090565b3b151590565b608051611e03620001376000396000818161053d0152818161057d0152818161087901526108b90152611e036000f3fe6080604052600436106101405760003560e01c8063715018a6116100b6578063d66d9e191161006f578063d66d9e1914610392578063d8c3ff0d146103a7578063df82e0bd146103c7578063eec7b735146103e7578063f2fde38b146103fd578063fa4e99531461041d57600080fd5b8063715018a6146102bb57806379e66b46146102d057806380f323a7146102f057806388b0ff48146103065780638da5cb5b1461033e5780638f23982e1461035c57600080fd5b806320f600ee1161010857806320f600ee1461021d5780633659cfe61461023d57806339b5aac21461025d5780634ec81af1146102725780634f1ef286146102925780635bc38359146102a557600080fd5b806301a5024b14610145578063038defd71461016757806303a7c9e4146101c35780630a702e8d146101f157806314b8055314610207575b600080fd5b34801561015157600080fd5b506101656101603660046118ef565b61043d565b005b34801561017357600080fd5b506101a361018236600461191b565b60d06020526000908152604090208054600182015460029092015490919083565b604080519384526020840192909252908201526060015b60405180910390f35b3480156101cf57600080fd5b506101e36101de36600461191b565b6104a2565b6040519081526020016101ba565b3480156101fd57600080fd5b506101e360ce5481565b34801561021357600080fd5b506101e360c95481565b34801561022957600080fd5b50610165610238366004611936565b6104ff565b34801561024957600080fd5b5061016561025836600461191b565b610532565b34801561026957600080fd5b506101656105fb565b34801561027e57600080fd5b5061016561028d36600461195a565b610741565b6101656102a03660046119a9565b61086e565b3480156102b157600080fd5b506101e360cd5481565b3480156102c757600080fd5b50610165610924565b3480156102dc57600080fd5b506101656102eb366004611a6b565b61095a565b3480156102fc57600080fd5b506101e360cc5481565b34801561031257600080fd5b5060cb54610326906001600160a01b031681565b6040516001600160a01b0390911681526020016101ba565b34801561034a57600080fd5b506033546001600160a01b0316610326565b34801561036857600080fd5b50610326610377366004611a8d565b60cf602052600090815260409020546001600160a01b031681565b34801561039e57600080fd5b50610165610bbc565b3480156103b357600080fd5b506101656103c2366004611aa6565b610cc4565b3480156103d357600080fd5b506101656103e2366004611b1b565b610f0d565b3480156103f357600080fd5b506101e360ca5481565b34801561040957600080fd5b5061016561041836600461191b565b61109b565b34801561042957600080fd5b50610165610438366004611a8d565b611133565b6033546001600160a01b031633146104705760405162461bcd60e51b815260040161046790611b45565b60405180910390fd5b8160cd60008282546104829190611b90565b909155505060cb5461049e906001600160a01b03168284611168565b5050565b6001600160a01b038116600090815260d06020526040902060010154806104fa5760405162461bcd60e51b815260206004820152600c60248201526b2727aa2fa0afa5a2a2a822a960a11b6044820152606401610467565b919050565b6033546001600160a01b031633146105295760405162461bcd60e51b815260040161046790611b45565b61ffff1660c955565b306001600160a01b037f000000000000000000000000000000000000000000000000000000000000000016141561057b5760405162461bcd60e51b815260040161046790611ba7565b7f00000000000000000000000000000000000000000000000000000000000000006001600160a01b03166105ad6111cb565b6001600160a01b0316146105d35760405162461bcd60e51b815260040161046790611bf3565b6105dc816111f9565b604080516000808252602082019092526105f891839190611223565b50565b33600090815260d0602090815260409182902082516060810184528154815260018201549281018390526002909101549281019290925261068a5760405162461bcd60e51b815260206004820152602360248201527f6d73672e73656e64657220697320616c7265616479206e6f742061206b65657060448201526232b91760e91b6064820152608401610467565b6040518060600160405280826000015181526020016000815260200160ce54426106b49190611c3f565b905233600090815260d060209081526040808320845181558483015160018201559381015160029094019390935583810151825260cf905290812080546001600160a01b031916905560ca805490919061070d90611c57565b90915550600060405133907f02ab42f6b82517d797a585d5319a95696ea5167a6fbb0e0322c9ee66edec682c90600090a350565b600054610100900460ff1661075c5760005460ff1615610760565b303b155b6107c35760405162461bcd60e51b815260206004820152602e60248201527f496e697469616c697a61626c653a20636f6e747261637420697320616c72656160448201526d191e481a5b9a5d1a585b1a5e995960921b6064820152608401610467565b600054610100900460ff161580156107e5576000805461ffff19166101011790555b6107ed611367565b6107f561139e565b60cb80546001600160a01b0319166001600160a01b03871617905560ce84905560c9839055816108505760405162461bcd60e51b81526004016104679060208082526004908201526353495a4560e01b604082015260600190565b60cc8290558015610867576000805461ff00191690555b5050505050565b306001600160a01b037f00000000000000000000000000000000000000000000000000000000000000001614156108b75760405162461bcd60e51b815260040161046790611ba7565b7f00000000000000000000000000000000000000000000000000000000000000006001600160a01b03166108e96111cb565b6001600160a01b03161461090f5760405162461bcd60e51b815260040161046790611bf3565b610918826111f9565b61049e82826001611223565b6033546001600160a01b0316331461094e5760405162461bcd60e51b815260040161046790611b45565b61095860006113d5565b565b80156109785760cb54610978906001600160a01b0316333084611427565b33600090815260d06020908152604091829020825160608101845281548152600182015492810183905260029091015492810192909252156109d65780516109c1908390611c3f565b33600090815260d06020526040902055505050565b600083815260cf60205260409020546001600160a01b031615610a345760405162461bcd60e51b81526020600482015260166024820152752634b1b2b739b2903737ba1030bb30b4b630b136329760511b6044820152606401610467565b60008311610a755760405162461bcd60e51b815260206004820152600e60248201526d2624a1a2a729a2afa72aa6a122a960911b6044820152606401610467565b60c954831115610ab85760405162461bcd60e51b815260206004820152600e60248201526d2624a1a2a729a2afa72aa6a122a960911b6044820152606401610467565b8051600090610ac8908490611c3f565b905060cc54811015610b1c5760405162461bcd60e51b815260206004820152601960248201527f496e73756666696369656e7420626f6e6420616d6f756e742e000000000000006044820152606401610467565b60ca60008154610b2b90611c6e565b9091555060408051606081018252828152602080820187815260008385018181523380835260d08552868320955186559251600180870191909155905160029095019490945588815260cf90925283822080546001600160a01b0319168217905592519192917f02ab42f6b82517d797a585d5319a95696ea5167a6fbb0e0322c9ee66edec682c9190a3505b505050565b33600090815260d060209081526040918290208251606081018452815481526001820154928101929092526002015491810182905290610c355760405162461bcd60e51b81526020600482015260146024820152732737ba1038bab2bab2b2103a37903632b0bb329760611b6044820152606401610467565b42816040015110610c885760405162461bcd60e51b815260206004820152601a60248201527f5472616e736665722064656c6179206e6f74207061737365642e0000000000006044820152606401610467565b805160cb54610ca4916001600160a01b03909116903390611168565b5033600090815260d0602052604081208181556001810182905560020155565b6033546001600160a01b03163314610cee5760405162461bcd60e51b815260040161046790611b45565b8080610d265760405162461bcd60e51b81526020600482015260076024820152664a4f494e45525360c81b6044820152606401610467565b6000610d33826001611c3f565b60cc54909150610d5c3330610d488685611c89565b60cb546001600160a01b0316929190611427565b60c954831115610d9c5760405162461bcd60e51b815260206004820152600b60248201526a4d41585f4b45455045525360a81b6044820152606401610467565b60015b828114610eee57600081815260cf60205260409020546001600160a01b031615610dfe5760405162461bcd60e51b815260206004820152601060248201526f20b2323932b9b9903737ba103732bb9760811b6044820152606401610467565b8585610e0b600184611b90565b818110610e1a57610e1a611ca8565b9050602002016020810190610e2f919061191b565b600082815260cf6020908152604080832080546001600160a01b0319166001600160a01b039590951694909417909355825160608101845285815290810184905291820181905260d0908888610e86600187611b90565b818110610e9557610e95611ca8565b9050602002016020810190610eaa919061191b565b6001600160a01b031681526020808201929092526040908101600020835181559183015160018301559190910151600290910155610ee781611c6e565b9050610d9f565b508260ca6000828254610f019190611c3f565b90915550505050505050565b6033546001600160a01b03163314610f375760405162461bcd60e51b815260040161046790611b45565b6001600160a01b038216600090815260d06020908152604091829020825160608101845281548082526001830154938201939093526002909101549281019290925282811015610f85578092505b6000610f918483611b90565b90508360cd6000828254610fa59190611c3f565b909155505060cc5481108015610fbf575060008360200151115b1561104257602080840151600090815260cf8252604080822080546001600160a01b03191690556001600160a01b038816825260d090925290812060010181905560ca805490919061101090611c57565b909155506001600160a01b03808616600090815260d0602052604081205560cb5461103d91168683611168565b61105e565b6001600160a01b038516600090815260d0602052604090208190555b60026040516001600160a01b038716907f02ab42f6b82517d797a585d5319a95696ea5167a6fbb0e0322c9ee66edec682c90600090a35050505050565b6033546001600160a01b031633146110c55760405162461bcd60e51b815260040161046790611b45565b6001600160a01b03811661112a5760405162461bcd60e51b815260206004820152602660248201527f4f776e61626c653a206e6577206f776e657220697320746865207a65726f206160448201526564647265737360d01b6064820152608401610467565b6105f8816113d5565b6033546001600160a01b0316331461115d5760405162461bcd60e51b815260040161046790611b45565b60cc55565b3b151590565b6040516001600160a01b038316602482015260448101829052610bb790849063a9059cbb60e01b906064015b60408051601f198184030181529190526020810180516001600160e01b03166001600160e01b031990931692909217909152611465565b7f360894a13ba1a3210667c828492db98dca3e2076cc3735a920a3ca505d382bbc546001600160a01b031690565b6033546001600160a01b031633146105f85760405162461bcd60e51b815260040161046790611b45565b600061122d6111cb565b905061123884611537565b6000835111806112455750815b156112565761125484846115dc565b505b7f4910fdfa16fed3260ed0e7147f7cc6da11a60208b5b9406d12a635614ffd9143805460ff1661086757805460ff191660011781556040516001600160a01b03831660248201526112d590869060440160408051601f198184030181529190526020810180516001600160e01b0316631b2ce7f360e11b1790526115dc565b50805460ff191681556112e66111cb565b6001600160a01b0316826001600160a01b03161461135e5760405162461bcd60e51b815260206004820152602f60248201527f45524331393637557067726164653a207570677261646520627265616b73206660448201526e75727468657220757067726164657360881b6064820152608401610467565b610867856116c7565b600054610100900460ff1661138e5760405162461bcd60e51b815260040161046790611cbe565b611396611707565b610958611707565b600054610100900460ff166113c55760405162461bcd60e51b815260040161046790611cbe565b6113cd611707565b61095861172e565b603380546001600160a01b038381166001600160a01b0319831681179093556040519116919082907f8be0079c531659141344cd1fd0a4f28419497f9722a3daafe3b4186f6b6457e090600090a35050565b6040516001600160a01b038085166024830152831660448201526064810182905261145f9085906323b872dd60e01b90608401611194565b50505050565b60006114ba826040518060400160405280602081526020017f5361666545524332303a206c6f772d6c6576656c2063616c6c206661696c6564815250856001600160a01b031661175e9092919063ffffffff16565b805190915015610bb757808060200190518101906114d89190611d09565b610bb75760405162461bcd60e51b815260206004820152602a60248201527f5361666545524332303a204552433230206f7065726174696f6e20646964206e6044820152691bdd081cdd58d8d9595960b21b6064820152608401610467565b803b61159b5760405162461bcd60e51b815260206004820152602d60248201527f455243313936373a206e657720696d706c656d656e746174696f6e206973206e60448201526c1bdd08184818dbdb9d1c9858dd609a1b6064820152608401610467565b7f360894a13ba1a3210667c828492db98dca3e2076cc3735a920a3ca505d382bbc80546001600160a01b0319166001600160a01b0392909216919091179055565b6060823b61163b5760405162461bcd60e51b815260206004820152602660248201527f416464726573733a2064656c65676174652063616c6c20746f206e6f6e2d636f6044820152651b9d1c9858dd60d21b6064820152608401610467565b600080846001600160a01b0316846040516116569190611d57565b600060405180830381855af49150503d8060008114611691576040519150601f19603f3d011682016040523d82523d6000602084013e611696565b606091505b50915091506116be8282604051806060016040528060278152602001611da760279139611777565b95945050505050565b6116d081611537565b6040516001600160a01b038216907fbc7cd75a20ee27fd9adebab32041f755214dbc6bffa90cc0225b39da2e5c2d3b90600090a250565b600054610100900460ff166109585760405162461bcd60e51b815260040161046790611cbe565b600054610100900460ff166117555760405162461bcd60e51b815260040161046790611cbe565b610958336113d5565b606061176d84846000856117b0565b90505b9392505050565b60608315611786575081611770565b8251156117965782518084602001fd5b8160405162461bcd60e51b81526004016104679190611d73565b6060824710156118115760405162461bcd60e51b815260206004820152602660248201527f416464726573733a20696e73756666696369656e742062616c616e636520666f6044820152651c8818d85b1b60d21b6064820152608401610467565b843b61185f5760405162461bcd60e51b815260206004820152601d60248201527f416464726573733a2063616c6c20746f206e6f6e2d636f6e74726163740000006044820152606401610467565b600080866001600160a01b0316858760405161187b9190611d57565b60006040518083038185875af1925050503d80600081146118b8576040519150601f19603f3d011682016040523d82523d6000602084013e6118bd565b606091505b50915091506118cd828286611777565b979650505050505050565b80356001600160a01b03811681146104fa57600080fd5b6000806040838503121561190257600080fd5b82359150611912602084016118d8565b90509250929050565b60006020828403121561192d57600080fd5b611770826118d8565b60006020828403121561194857600080fd5b813561ffff8116811461177057600080fd5b6000806000806080858703121561197057600080fd5b611979856118d8565b966020860135965060408601359560600135945092505050565b634e487b7160e01b600052604160045260246000fd5b600080604083850312156119bc57600080fd5b6119c5836118d8565b9150602083013567ffffffffffffffff808211156119e257600080fd5b818501915085601f8301126119f657600080fd5b813581811115611a0857611a08611993565b604051601f8201601f19908116603f01168101908382118183101715611a3057611a30611993565b81604052828152886020848701011115611a4957600080fd5b8260208601602083013760006020848301015280955050505050509250929050565b60008060408385031215611a7e57600080fd5b50508035926020909101359150565b600060208284031215611a9f57600080fd5b5035919050565b60008060208385031215611ab957600080fd5b823567ffffffffffffffff80821115611ad157600080fd5b818501915085601f830112611ae557600080fd5b813581811115611af457600080fd5b8660208260051b8501011115611b0957600080fd5b60209290920196919550909350505050565b60008060408385031215611b2e57600080fd5b611b37836118d8565b946020939093013593505050565b6020808252818101527f4f776e61626c653a2063616c6c6572206973206e6f7420746865206f776e6572604082015260600190565b634e487b7160e01b600052601160045260246000fd5b600082821015611ba257611ba2611b7a565b500390565b6020808252602c908201527f46756e6374696f6e206d7573742062652063616c6c6564207468726f7567682060408201526b19195b1959d85d1958d85b1b60a21b606082015260800190565b6020808252602c908201527f46756e6374696f6e206d7573742062652063616c6c6564207468726f7567682060408201526b6163746976652070726f787960a01b606082015260800190565b60008219821115611c5257611c52611b7a565b500190565b600081611c6657611c66611b7a565b506000190190565b6000600019821415611c8257611c82611b7a565b5060010190565b6000816000190483118215151615611ca357611ca3611b7a565b500290565b634e487b7160e01b600052603260045260246000fd5b6020808252602b908201527f496e697469616c697a61626c653a20636f6e7472616374206973206e6f74206960408201526a6e697469616c697a696e6760a81b606082015260800190565b600060208284031215611d1b57600080fd5b8151801515811461177057600080fd5b60005b83811015611d46578181015183820152602001611d2e565b8381111561145f5750506000910152565b60008251611d69818460208701611d2b565b9190910192915050565b6020815260008251806020840152611d92816040850160208701611d2b565b601f01601f1916919091016040019291505056fe416464726573733a206c6f772d6c6576656c2064656c65676174652063616c6c206661696c6564a2646970667358221220dad6b668c6b43f146916f633701595060a9ff8406a44b94ac66e9ff206c333d864736f6c634300080c0033",
  "devdoc": {
    "details": "owned by governance contract",
    "kind": "dev",
    "methods": {
      "changeBondAmount(uint256)": {
        "details": "change bondAmount to a new value.Does not change existing keeper permissions. If the bondAmount is being increased, existing keepers will not be slashed or removed.  note, they will still be able to vote until they are slashed.",
        "params": {
          "amount": "new bondAmount."
        }
      },
      "changeMaxKeepers(uint16)": {
        "details": "change numKeepers to a new value. If numKeepers is being reduced, this will not remove any keepers, nor will it change orchestrator requirements. However, it will render keeper licenses > maxNumKeepers invalid and their votes will stop counting."
      },
      "checkLicense(address)": {
        "details": "returns true if the given address has the power to vote, reverts otherwise. This function is built to be called by the orchestrator.",
        "params": {
          "targetAddress": "address to check"
        },
        "returns": {
          "licenseNumber": "true if the given address has the power to vote, reverts otherwise."
        }
      },
      "constructor": {
        "custom:oz-upgrades-unsafe-allow": "constructor"
      },
      "denounce(address,uint256)": {
        "details": "slashes a keeper, removing their permissions and forfeiting their bond.",
        "params": {
          "amount": "amount of bondCoin to slash note that the keeper will only lose their license if, post-slash, their bond held is less than bondAmount.",
          "targetKeeper": "keeper to denounce"
        }
      },
      "initialize(address,uint256,uint256,uint256)": {
        "params": {
          "coinAddress": "the address of the ERC20 which will be used for bonds; intended to be Steer token.",
          "keeperTransferDelay": "the amount of time (in seconds) between when a keeper relinquishes their license and when they can withdraw their funds. Intended to be 2 weeks - 1 month."
        }
      },
      "join(uint256,uint256)": {
        "details": "this function has three uses: 1. If the caller is a keeper, they can increase their bondHeld by amount. This helps to avoid slashing. 2. If the caller is not a keeper or former keeper, they can attempt to claim a keeper license and become a keeper. 3. If the caller is a former keeper, they can attempt to cancel their leave request, claim a keeper license, and become a keeper. In all 3 cases registry[msg.sender].bondHeld is increased by amount. In the latter 2, msg.sender's bondHeld after the transaction must be >= bondAmount.",
        "params": {
          "amount": "Amount of bondCoin to be deposited."
        }
      },
      "joiningForOwner(address[])": {
        "details": "setup utility function for owner to add initial keepers. Addresses must each be unique and not hold any bondToken.",
        "params": {
          "joiners": "array of addresses to become keepers. note that this function will pull bondToken from the owner equal to bondAmount * numJoiners. note that this function assumes that the keeper registry currently has no keepers. It will revert if this assumption fails."
        }
      },
      "leave()": {
        "details": "addresses call this after they have queued to leave and waited the requisite amount of time."
      },
      "owner()": {
        "details": "Returns the address of the current owner."
      },
      "queueToLeave()": {
        "details": "Allows keepers to queue to leave the registry. Their elevated permissions are immediately revoked, and their funds can be retrieved once the transferDelay has passed. note that this function can only be called by keepers (or, in rare cases, former keepers whose licenses were revoked by a decrease in maxNumKeepers) emits a permissionChanged event if the call succeeds."
      },
      "renounceOwnership()": {
        "details": "Leaves the contract without owner. It will not be possible to call `onlyOwner` functions anymore. Can only be called by the current owner. NOTE: Renouncing ownership will leave the contract without an owner, thereby removing any functionality that is only available to the owner."
      },
      "transferOwnership(address)": {
        "details": "Transfers ownership of the contract to a new account (`newOwner`). Can only be called by the current owner."
      },
      "upgradeTo(address)": {
        "details": "Upgrade the implementation of the proxy to `newImplementation`. Calls {_authorizeUpgrade}. Emits an {Upgraded} event."
      },
      "upgradeToAndCall(address,bytes)": {
        "details": "Upgrade the implementation of the proxy to `newImplementation`, and subsequently execute the function call encoded in `data`. Calls {_authorizeUpgrade}. Emits an {Upgraded} event."
      },
      "withdrawFreeCoin(uint256,address)": {
        "details": "withdraws slashed tokens from the vault and sends them to targetAddress.",
        "params": {
          "amount": "amount of bondCoin to withdraw",
          "targetAddress": "address receiving the tokens"
        }
      }
    },
    "version": 1
  },
  "userdoc": {
    "kind": "user",
    "methods": {
      "transferDelay()": {
        "notice": "Slash safety period--if a keeper leaves, this is the amount of time (in seconds) they must  wait before they can withdraw their bond."
      }
    },
    "version": 1
  },
  "storageLayout": {
    "storage": [
      {
        "astId": 1030,
        "contract": "contracts/KeeperRegistry.sol:KeeperRegistry",
        "label": "_initialized",
        "offset": 0,
        "slot": "0",
        "type": "t_bool"
      },
      {
        "astId": 1033,
        "contract": "contracts/KeeperRegistry.sol:KeeperRegistry",
        "label": "_initializing",
        "offset": 1,
        "slot": "0",
        "type": "t_bool"
      },
      {
        "astId": 5274,
        "contract": "contracts/KeeperRegistry.sol:KeeperRegistry",
        "label": "__gap",
        "offset": 0,
        "slot": "1",
        "type": "t_array(t_uint256)50_storage"
      },
      {
        "astId": 420,
        "contract": "contracts/KeeperRegistry.sol:KeeperRegistry",
        "label": "_owner",
        "offset": 0,
        "slot": "51",
        "type": "t_address"
      },
      {
        "astId": 534,
        "contract": "contracts/KeeperRegistry.sol:KeeperRegistry",
        "label": "__gap",
        "offset": 0,
        "slot": "52",
        "type": "t_array(t_uint256)49_storage"
      },
      {
        "astId": 1012,
        "contract": "contracts/KeeperRegistry.sol:KeeperRegistry",
        "label": "__gap",
        "offset": 0,
        "slot": "101",
        "type": "t_array(t_uint256)50_storage"
      },
      {
        "astId": 1207,
        "contract": "contracts/KeeperRegistry.sol:KeeperRegistry",
        "label": "__gap",
        "offset": 0,
        "slot": "151",
        "type": "t_array(t_uint256)50_storage"
      },
      {
        "astId": 9902,
        "contract": "contracts/KeeperRegistry.sol:KeeperRegistry",
        "label": "maxNumKeepers",
        "offset": 0,
        "slot": "201",
        "type": "t_uint256"
      },
      {
        "astId": 9904,
        "contract": "contracts/KeeperRegistry.sol:KeeperRegistry",
        "label": "currentNumKeepers",
        "offset": 0,
        "slot": "202",
        "type": "t_uint256"
      },
      {
        "astId": 9907,
        "contract": "contracts/KeeperRegistry.sol:KeeperRegistry",
        "label": "bondCoin",
        "offset": 0,
        "slot": "203",
        "type": "t_contract(IERC20)7659"
      },
      {
        "astId": 9909,
        "contract": "contracts/KeeperRegistry.sol:KeeperRegistry",
        "label": "bondAmount",
        "offset": 0,
        "slot": "204",
        "type": "t_uint256"
      },
      {
        "astId": 9911,
        "contract": "contracts/KeeperRegistry.sol:KeeperRegistry",
        "label": "freeCoin",
        "offset": 0,
        "slot": "205",
        "type": "t_uint256"
      },
      {
        "astId": 9914,
        "contract": "contracts/KeeperRegistry.sol:KeeperRegistry",
        "label": "transferDelay",
        "offset": 0,
        "slot": "206",
        "type": "t_uint256"
      },
      {
        "astId": 9918,
        "contract": "contracts/KeeperRegistry.sol:KeeperRegistry",
        "label": "keeperLicenses",
        "offset": 0,
        "slot": "207",
        "type": "t_mapping(t_uint256,t_address)"
      },
      {
        "astId": 9923,
        "contract": "contracts/KeeperRegistry.sol:KeeperRegistry",
        "label": "registry",
        "offset": 0,
        "slot": "208",
        "type": "t_mapping(t_address,t_struct(WorkerDetails)15195_storage)"
      }
    ],
    "types": {
      "t_address": {
        "encoding": "inplace",
        "label": "address",
        "numberOfBytes": "20"
      },
      "t_array(t_uint256)49_storage": {
        "base": "t_uint256",
        "encoding": "inplace",
        "label": "uint256[49]",
        "numberOfBytes": "1568"
      },
      "t_array(t_uint256)50_storage": {
        "base": "t_uint256",
        "encoding": "inplace",
        "label": "uint256[50]",
        "numberOfBytes": "1600"
      },
      "t_bool": {
        "encoding": "inplace",
        "label": "bool",
        "numberOfBytes": "1"
      },
      "t_contract(IERC20)7659": {
        "encoding": "inplace",
        "label": "contract IERC20",
        "numberOfBytes": "20"
      },
      "t_mapping(t_address,t_struct(WorkerDetails)15195_storage)": {
        "encoding": "mapping",
        "key": "t_address",
        "label": "mapping(address => struct IKeeperRegistry.WorkerDetails)",
        "numberOfBytes": "32",
        "value": "t_struct(WorkerDetails)15195_storage"
      },
      "t_mapping(t_uint256,t_address)": {
        "encoding": "mapping",
        "key": "t_uint256",
        "label": "mapping(uint256 => address)",
        "numberOfBytes": "32",
        "value": "t_address"
      },
      "t_struct(WorkerDetails)15195_storage": {
        "encoding": "inplace",
        "label": "struct IKeeperRegistry.WorkerDetails",
        "members": [
          {
            "astId": 15190,
            "contract": "contracts/KeeperRegistry.sol:KeeperRegistry",
            "label": "bondHeld",
            "offset": 0,
            "slot": "0",
            "type": "t_uint256"
          },
          {
            "astId": 15192,
            "contract": "contracts/KeeperRegistry.sol:KeeperRegistry",
            "label": "licenseNumber",
            "offset": 0,
            "slot": "1",
            "type": "t_uint256"
          },
          {
            "astId": 15194,
            "contract": "contracts/KeeperRegistry.sol:KeeperRegistry",
            "label": "leaveTimestamp",
            "offset": 0,
            "slot": "2",
            "type": "t_uint256"
          }
        ],
        "numberOfBytes": "96"
      },
      "t_uint256": {
        "encoding": "inplace",
        "label": "uint256",
        "numberOfBytes": "32"
      }
    }
  }
}