{
  "address": "0x22Ee5c43031F045f792cCd81c8fEcf70e51B1011",
  "abi": [
    {
      "anonymous": false,
      "inputs": [
        {
          "indexed": true,
          "internalType": "address",
          "name": "owner",
          "type": "address"
        },
        {
          "indexed": true,
          "internalType": "address",
          "name": "spender",
          "type": "address"
        },
        {
          "indexed": false,
          "internalType": "uint256",
          "name": "value",
          "type": "uint256"
        }
      ],
      "name": "Approval",
      "type": "event"
    },
    {
      "anonymous": false,
      "inputs": [
        {
          "indexed": true,
          "internalType": "address",
          "name": "sender",
          "type": "address"
        },
        {
          "indexed": true,
          "internalType": "address",
          "name": "to",
          "type": "address"
        },
        {
          "indexed": false,
          "internalType": "uint256",
          "name": "shares",
          "type": "uint256"
        },
        {
          "indexed": false,
          "internalType": "uint256",
          "name": "amount0",
          "type": "uint256"
        },
        {
          "indexed": false,
          "internalType": "uint256",
          "name": "amount1",
          "type": "uint256"
        }
      ],
      "name": "Deposit",
      "type": "event"
    },
    {
      "anonymous": false,
      "inputs": [
        {
          "indexed": false,
          "internalType": "uint256",
          "name": "amount0Earned",
          "type": "uint256"
        },
        {
          "indexed": false,
          "internalType": "uint256",
          "name": "amount1Earned",
          "type": "uint256"
        }
      ],
      "name": "FeesEarned",
      "type": "event"
    },
    {
      "anonymous": false,
      "inputs": [
        {
          "indexed": false,
          "internalType": "address",
          "name": "account",
          "type": "address"
        }
      ],
      "name": "Paused",
      "type": "event"
    },
    {
      "anonymous": false,
      "inputs": [
        {
          "indexed": true,
          "internalType": "bytes32",
          "name": "role",
          "type": "bytes32"
        },
        {
          "indexed": true,
          "internalType": "bytes32",
          "name": "previousAdminRole",
          "type": "bytes32"
        },
        {
          "indexed": true,
          "internalType": "bytes32",
          "name": "newAdminRole",
          "type": "bytes32"
        }
      ],
      "name": "RoleAdminChanged",
      "type": "event"
    },
    {
      "anonymous": false,
      "inputs": [
        {
          "indexed": true,
          "internalType": "bytes32",
          "name": "role",
          "type": "bytes32"
        },
        {
          "indexed": true,
          "internalType": "address",
          "name": "account",
          "type": "address"
        },
        {
          "indexed": true,
          "internalType": "address",
          "name": "sender",
          "type": "address"
        }
      ],
      "name": "RoleGranted",
      "type": "event"
    },
    {
      "anonymous": false,
      "inputs": [
        {
          "indexed": true,
          "internalType": "bytes32",
          "name": "role",
          "type": "bytes32"
        },
        {
          "indexed": true,
          "internalType": "address",
          "name": "account",
          "type": "address"
        },
        {
          "indexed": true,
          "internalType": "address",
          "name": "sender",
          "type": "address"
        }
      ],
      "name": "RoleRevoked",
      "type": "event"
    },
    {
      "anonymous": false,
      "inputs": [
        {
          "indexed": false,
          "internalType": "uint160",
          "name": "sqrtPriceX96",
          "type": "uint160"
        },
        {
          "indexed": false,
          "internalType": "uint256",
          "name": "totalAmount0",
          "type": "uint256"
        },
        {
          "indexed": false,
          "internalType": "uint256",
          "name": "totalAmount1",
          "type": "uint256"
        },
        {
          "indexed": false,
          "internalType": "uint256",
          "name": "totalSupply",
          "type": "uint256"
        }
      ],
      "name": "Snapshot",
      "type": "event"
    },
    {
      "anonymous": false,
      "inputs": [
        {
          "indexed": true,
          "internalType": "address",
          "name": "from",
          "type": "address"
        },
        {
          "indexed": true,
          "internalType": "address",
          "name": "to",
          "type": "address"
        },
        {
          "indexed": false,
          "internalType": "uint256",
          "name": "value",
          "type": "uint256"
        }
      ],
      "name": "Transfer",
      "type": "event"
    },
    {
      "anonymous": false,
      "inputs": [
        {
          "indexed": false,
          "internalType": "address",
          "name": "account",
          "type": "address"
        }
      ],
      "name": "Unpaused",
      "type": "event"
    },
    {
      "anonymous": false,
      "inputs": [
        {
          "indexed": true,
          "internalType": "address",
          "name": "sender",
          "type": "address"
        },
        {
          "indexed": true,
          "internalType": "address",
          "name": "to",
          "type": "address"
        },
        {
          "indexed": false,
          "internalType": "uint256",
          "name": "shares",
          "type": "uint256"
        },
        {
          "indexed": false,
          "internalType": "uint256",
          "name": "amount0",
          "type": "uint256"
        },
        {
          "indexed": false,
          "internalType": "uint256",
          "name": "amount1",
          "type": "uint256"
        }
      ],
      "name": "Withdraw",
      "type": "event"
    },
    {
      "inputs": [],
      "name": "DEFAULT_ADMIN_ROLE",
      "outputs": [
        {
          "internalType": "bytes32",
          "name": "",
          "type": "bytes32"
        }
      ],
      "stateMutability": "view",
      "type": "function"
    },
    {
      "inputs": [],
      "name": "STEER_FRACTION_OF_FEE",
      "outputs": [
        {
          "internalType": "uint256",
          "name": "",
          "type": "uint256"
        }
      ],
      "stateMutability": "view",
      "type": "function"
    },
    {
      "inputs": [],
      "name": "TOTAL_FEE",
      "outputs": [
        {
          "internalType": "uint256",
          "name": "",
          "type": "uint256"
        }
      ],
      "stateMutability": "view",
      "type": "function"
    },
    {
      "inputs": [],
      "name": "accruedSteerFees0",
      "outputs": [
        {
          "internalType": "uint256",
          "name": "",
          "type": "uint256"
        }
      ],
      "stateMutability": "view",
      "type": "function"
    },
    {
      "inputs": [],
      "name": "accruedSteerFees1",
      "outputs": [
        {
          "internalType": "uint256",
          "name": "",
          "type": "uint256"
        }
      ],
      "stateMutability": "view",
      "type": "function"
    },
    {
      "inputs": [],
      "name": "accruedStrategistFees0",
      "outputs": [
        {
          "internalType": "uint256",
          "name": "",
          "type": "uint256"
        }
      ],
      "stateMutability": "view",
      "type": "function"
    },
    {
      "inputs": [],
      "name": "accruedStrategistFees1",
      "outputs": [
        {
          "internalType": "uint256",
          "name": "",
          "type": "uint256"
        }
      ],
      "stateMutability": "view",
      "type": "function"
    },
    {
      "inputs": [
        {
          "internalType": "address",
          "name": "owner",
          "type": "address"
        },
        {
          "internalType": "address",
          "name": "spender",
          "type": "address"
        }
      ],
      "name": "allowance",
      "outputs": [
        {
          "internalType": "uint256",
          "name": "",
          "type": "uint256"
        }
      ],
      "stateMutability": "view",
      "type": "function"
    },
    {
      "inputs": [
        {
          "internalType": "address",
          "name": "spender",
          "type": "address"
        },
        {
          "internalType": "uint256",
          "name": "amount",
          "type": "uint256"
        }
      ],
      "name": "approve",
      "outputs": [
        {
          "internalType": "bool",
          "name": "",
          "type": "bool"
        }
      ],
      "stateMutability": "nonpayable",
      "type": "function"
    },
    {
      "inputs": [
        {
          "internalType": "address",
          "name": "account",
          "type": "address"
        }
      ],
      "name": "balanceOf",
      "outputs": [
        {
          "internalType": "uint256",
          "name": "",
          "type": "uint256"
        }
      ],
      "stateMutability": "view",
      "type": "function"
    },
    {
      "inputs": [],
      "name": "decimals",
      "outputs": [
        {
          "internalType": "uint8",
          "name": "",
          "type": "uint8"
        }
      ],
      "stateMutability": "view",
      "type": "function"
    },
    {
      "inputs": [
        {
          "internalType": "address",
          "name": "spender",
          "type": "address"
        },
        {
          "internalType": "uint256",
          "name": "subtractedValue",
          "type": "uint256"
        }
      ],
      "name": "decreaseAllowance",
      "outputs": [
        {
          "internalType": "bool",
          "name": "",
          "type": "bool"
        }
      ],
      "stateMutability": "nonpayable",
      "type": "function"
    },
    {
      "inputs": [
        {
          "internalType": "uint256",
          "name": "amount0Desired",
          "type": "uint256"
        },
        {
          "internalType": "uint256",
          "name": "amount1Desired",
          "type": "uint256"
        },
        {
          "internalType": "uint256",
          "name": "amount0Min",
          "type": "uint256"
        },
        {
          "internalType": "uint256",
          "name": "amount1Min",
          "type": "uint256"
        },
        {
          "internalType": "address",
          "name": "to",
          "type": "address"
        }
      ],
      "name": "deposit",
      "outputs": [
        {
          "internalType": "uint256",
          "name": "shares",
          "type": "uint256"
        },
        {
          "internalType": "uint256",
          "name": "amount0Used",
          "type": "uint256"
        },
        {
          "internalType": "uint256",
          "name": "amount1Used",
          "type": "uint256"
        }
      ],
      "stateMutability": "nonpayable",
      "type": "function"
    },
    {
      "inputs": [
        {
          "internalType": "int24",
          "name": "tickLower",
          "type": "int24"
        },
        {
          "internalType": "int24",
          "name": "tickUpper",
          "type": "int24"
        },
        {
          "internalType": "uint128",
          "name": "liquidity",
          "type": "uint128"
        }
      ],
      "name": "emergencyBurn",
      "outputs": [
        {
          "internalType": "uint256",
          "name": "amount0",
          "type": "uint256"
        },
        {
          "internalType": "uint256",
          "name": "amount1",
          "type": "uint256"
        }
      ],
      "stateMutability": "nonpayable",
      "type": "function"
    },
    {
      "inputs": [],
      "name": "getPositions",
      "outputs": [
        {
          "internalType": "int24[]",
          "name": "",
          "type": "int24[]"
        },
        {
          "internalType": "int24[]",
          "name": "",
          "type": "int24[]"
        },
        {
          "internalType": "uint16[]",
          "name": "",
          "type": "uint16[]"
        }
      ],
      "stateMutability": "view",
      "type": "function"
    },
    {
      "inputs": [
        {
          "internalType": "bytes32",
          "name": "role",
          "type": "bytes32"
        }
      ],
      "name": "getRoleAdmin",
      "outputs": [
        {
          "internalType": "bytes32",
          "name": "",
          "type": "bytes32"
        }
      ],
      "stateMutability": "view",
      "type": "function"
    },
    {
      "inputs": [
        {
          "internalType": "bytes32",
          "name": "role",
          "type": "bytes32"
        },
        {
          "internalType": "uint256",
          "name": "index",
          "type": "uint256"
        }
      ],
      "name": "getRoleMember",
      "outputs": [
        {
          "internalType": "address",
          "name": "",
          "type": "address"
        }
      ],
      "stateMutability": "view",
      "type": "function"
    },
    {
      "inputs": [
        {
          "internalType": "bytes32",
          "name": "role",
          "type": "bytes32"
        }
      ],
      "name": "getRoleMemberCount",
      "outputs": [
        {
          "internalType": "uint256",
          "name": "",
          "type": "uint256"
        }
      ],
      "stateMutability": "view",
      "type": "function"
    },
    {
      "inputs": [],
      "name": "getTotalAmounts",
      "outputs": [
        {
          "internalType": "uint256",
          "name": "total0",
          "type": "uint256"
        },
        {
          "internalType": "uint256",
          "name": "total1",
          "type": "uint256"
        }
      ],
      "stateMutability": "view",
      "type": "function"
    },
    {
      "inputs": [
        {
          "internalType": "bytes32",
          "name": "role",
          "type": "bytes32"
        },
        {
          "internalType": "address",
          "name": "account",
          "type": "address"
        }
      ],
      "name": "grantRole",
      "outputs": [],
      "stateMutability": "nonpayable",
      "type": "function"
    },
    {
      "inputs": [
        {
          "internalType": "bytes32",
          "name": "role",
          "type": "bytes32"
        },
        {
          "internalType": "address",
          "name": "account",
          "type": "address"
        }
      ],
      "name": "hasRole",
      "outputs": [
        {
          "internalType": "bool",
          "name": "",
          "type": "bool"
        }
      ],
      "stateMutability": "view",
      "type": "function"
    },
    {
      "inputs": [
        {
          "internalType": "address",
          "name": "spender",
          "type": "address"
        },
        {
          "internalType": "uint256",
          "name": "addedValue",
          "type": "uint256"
        }
      ],
      "name": "increaseAllowance",
      "outputs": [
        {
          "internalType": "bool",
          "name": "",
          "type": "bool"
        }
      ],
      "stateMutability": "nonpayable",
      "type": "function"
    },
    {
      "inputs": [
        {
          "internalType": "address",
          "name": "_vaultManager",
          "type": "address"
        },
        {
          "internalType": "address",
          "name": "",
          "type": "address"
        },
        {
          "internalType": "address",
          "name": "_steer",
          "type": "address"
        },
        {
          "internalType": "bytes",
          "name": "_params",
          "type": "bytes"
        }
      ],
      "name": "initialize",
      "outputs": [],
      "stateMutability": "nonpayable",
      "type": "function"
    },
    {
      "inputs": [],
      "name": "maxTickChange",
      "outputs": [
        {
          "internalType": "int24",
          "name": "",
          "type": "int24"
        }
      ],
      "stateMutability": "view",
      "type": "function"
    },
    {
      "inputs": [],
      "name": "name",
      "outputs": [
        {
          "internalType": "string",
          "name": "",
          "type": "string"
        }
      ],
      "stateMutability": "view",
      "type": "function"
    },
    {
      "inputs": [],
      "name": "pause",
      "outputs": [],
      "stateMutability": "nonpayable",
      "type": "function"
    },
    {
      "inputs": [],
      "name": "paused",
      "outputs": [
        {
          "internalType": "bool",
          "name": "",
          "type": "bool"
        }
      ],
      "stateMutability": "view",
      "type": "function"
    },
    {
      "inputs": [],
      "name": "poke",
      "outputs": [],
      "stateMutability": "nonpayable",
      "type": "function"
    },
    {
      "inputs": [],
      "name": "pool",
      "outputs": [
        {
          "internalType": "contract IUniswapV3Pool",
          "name": "",
          "type": "address"
        }
      ],
      "stateMutability": "view",
      "type": "function"
    },
    {
      "inputs": [
        {
          "internalType": "bytes32",
          "name": "role",
          "type": "bytes32"
        },
        {
          "internalType": "address",
          "name": "account",
          "type": "address"
        }
      ],
      "name": "renounceRole",
      "outputs": [],
      "stateMutability": "nonpayable",
      "type": "function"
    },
    {
      "inputs": [
        {
          "internalType": "bytes32",
          "name": "role",
          "type": "bytes32"
        },
        {
          "internalType": "address",
          "name": "account",
          "type": "address"
        }
      ],
      "name": "revokeRole",
      "outputs": [],
      "stateMutability": "nonpayable",
      "type": "function"
    },
    {
      "inputs": [
        {
          "internalType": "uint256",
          "name": "amount0",
          "type": "uint256"
        },
        {
          "internalType": "uint256",
          "name": "amount1",
          "type": "uint256"
        },
        {
          "internalType": "address",
          "name": "to",
          "type": "address"
        }
      ],
      "name": "steerCollectFees",
      "outputs": [],
      "stateMutability": "nonpayable",
      "type": "function"
    },
    {
      "inputs": [
        {
          "internalType": "uint256",
          "name": "amount0",
          "type": "uint256"
        },
        {
          "internalType": "uint256",
          "name": "amount1",
          "type": "uint256"
        },
        {
          "internalType": "address",
          "name": "to",
          "type": "address"
        }
      ],
      "name": "strategistCollectFees",
      "outputs": [],
      "stateMutability": "nonpayable",
      "type": "function"
    },
    {
      "inputs": [
        {
          "internalType": "bytes4",
          "name": "interfaceId",
          "type": "bytes4"
        }
      ],
      "name": "supportsInterface",
      "outputs": [
        {
          "internalType": "bool",
          "name": "",
          "type": "bool"
        }
      ],
      "stateMutability": "view",
      "type": "function"
    },
    {
      "inputs": [],
      "name": "symbol",
      "outputs": [
        {
          "internalType": "string",
          "name": "",
          "type": "string"
        }
      ],
      "stateMutability": "view",
      "type": "function"
    },
    {
      "inputs": [
        {
          "internalType": "uint256",
          "name": "totalWeight",
          "type": "uint256"
        },
        {
          "components": [
            {
              "internalType": "int24[]",
              "name": "lowerTick",
              "type": "int24[]"
            },
            {
              "internalType": "int24[]",
              "name": "upperTick",
              "type": "int24[]"
            },
            {
              "internalType": "uint16[]",
              "name": "relativeWeight",
              "type": "uint16[]"
            }
          ],
          "internalType": "struct MultiPositionLiquidityManager.LiquidityPositions",
          "name": "newPositions",
          "type": "tuple"
        },
        {
          "internalType": "bytes",
          "name": "timeSensitiveData",
          "type": "bytes"
        }
      ],
      "name": "tend",
      "outputs": [],
      "stateMutability": "nonpayable",
      "type": "function"
    },
    {
      "inputs": [],
      "name": "token0",
      "outputs": [
        {
          "internalType": "contract IERC20",
          "name": "",
          "type": "address"
        }
      ],
      "stateMutability": "view",
      "type": "function"
    },
    {
      "inputs": [],
      "name": "token1",
      "outputs": [
        {
          "internalType": "contract IERC20",
          "name": "",
          "type": "address"
        }
      ],
      "stateMutability": "view",
      "type": "function"
    },
    {
      "inputs": [],
      "name": "totalSupply",
      "outputs": [
        {
          "internalType": "uint256",
          "name": "",
          "type": "uint256"
        }
      ],
      "stateMutability": "view",
      "type": "function"
    },
    {
      "inputs": [
        {
          "internalType": "address",
          "name": "recipient",
          "type": "address"
        },
        {
          "internalType": "uint256",
          "name": "amount",
          "type": "uint256"
        }
      ],
      "name": "transfer",
      "outputs": [
        {
          "internalType": "bool",
          "name": "",
          "type": "bool"
        }
      ],
      "stateMutability": "nonpayable",
      "type": "function"
    },
    {
      "inputs": [
        {
          "internalType": "address",
          "name": "sender",
          "type": "address"
        },
        {
          "internalType": "address",
          "name": "recipient",
          "type": "address"
        },
        {
          "internalType": "uint256",
          "name": "amount",
          "type": "uint256"
        }
      ],
      "name": "transferFrom",
      "outputs": [
        {
          "internalType": "bool",
          "name": "",
          "type": "bool"
        }
      ],
      "stateMutability": "nonpayable",
      "type": "function"
    },
    {
      "inputs": [],
      "name": "twapInterval",
      "outputs": [
        {
          "internalType": "uint32",
          "name": "",
          "type": "uint32"
        }
      ],
      "stateMutability": "view",
      "type": "function"
    },
    {
      "inputs": [
        {
          "internalType": "uint256",
          "name": "amount0",
          "type": "uint256"
        },
        {
          "internalType": "uint256",
          "name": "amount1",
          "type": "uint256"
        },
        {
          "internalType": "bytes",
          "name": "",
          "type": "bytes"
        }
      ],
      "name": "uniswapV3MintCallback",
      "outputs": [],
      "stateMutability": "nonpayable",
      "type": "function"
    },
    {
      "inputs": [
        {
          "internalType": "int256",
          "name": "amount0Wanted",
          "type": "int256"
        },
        {
          "internalType": "int256",
          "name": "amount1Wanted",
          "type": "int256"
        },
        {
          "internalType": "bytes",
          "name": "",
          "type": "bytes"
        }
      ],
      "name": "uniswapV3SwapCallback",
      "outputs": [],
      "stateMutability": "nonpayable",
      "type": "function"
    },
    {
      "inputs": [],
      "name": "unpause",
      "outputs": [],
      "stateMutability": "nonpayable",
      "type": "function"
    },
    {
      "inputs": [
        {
          "internalType": "uint256",
          "name": "shares",
          "type": "uint256"
        },
        {
          "internalType": "uint256",
          "name": "amount0Min",
          "type": "uint256"
        },
        {
          "internalType": "uint256",
          "name": "amount1Min",
          "type": "uint256"
        },
        {
          "internalType": "address",
          "name": "to",
          "type": "address"
        }
      ],
      "name": "withdraw",
      "outputs": [
        {
          "internalType": "uint256",
          "name": "amount0",
          "type": "uint256"
        },
        {
          "internalType": "uint256",
          "name": "amount1",
          "type": "uint256"
        }
      ],
      "stateMutability": "nonpayable",
      "type": "function"
    }
  ],
  "transactionHash": "0xdf747e31eb781bf8d7b99a6c168bc7f5a187f2e7f333c4b11a4c0afe353d35e1",
  "args": [],
  "numDeployments": 1,
  "solcInputHash": "622bf9933a2727a1e5785fdccb2c70b6",
  "bytecode": "0x60806040523480156200001157600080fd5b50600054610100900460ff16806200002e57506200002e620000c0565b806200003d575060005460ff16155b6200007a5760405162461bcd60e51b815260040180806020018281038252602e81526020018062005d0d602e913960400191505060405180910390fd5b600054610100900460ff16158015620000a6576000805460ff1961ff0019909116610100171660011790555b8015620000b9576000805461ff00191690555b50620000e4565b6000620000d830620000de60201b620020611760201c565b15905090565b3b151590565b615c1980620000f46000396000f3fe608060405234801561001057600080fd5b506004361061028a5760003560e01c80635c975abb1161015c578063a457c2d7116100ce578063d331bef711610087578063d331bef714610532578063d348799714610545578063d547741f14610558578063dd62ed3e1461056b578063ef94c2791461057e578063fa461e33146105865761028a565b8063a457c2d7146104c8578063a9059cbb146104db578063abbffcb9146104ee578063c4a7761e1461050f578063ca15c87314610517578063d21220a71461052a5761028a565b80638ea234cb116101205780638ea234cb1461046c5780638f747bb81461047f5780639010d07c1461049257806391d14854146104a557806395d89b41146104b8578063a217fddf146104c05761028a565b80635c975abb1461042a57806363db7eae1461043257806370a082311461043a578063802758601461044d5780638456cb59146104645761028a565b8063246581f711610200578063365d0ed7116101b9578063365d0ed7146103c8578063366e897b146103ea57806339509351146103f25780633c1d5df0146104055780633f2218f11461041a5780633f4ba83a146104225761028a565b8063246581f714610354578063248a9ca3146103675780632b528d331461037a5780632f2ff15d1461038d578063313ce567146103a057806336568abe146103b55761028a565b80631053f871116102525780631053f8711461030a57806316f0115b1461031f57806318160ddd14610327578063181783581461032f5780631c1f19361461033957806323b872dd146103415761028a565b806301ffc9a71461028f57806302bcd6ca146102b857806306fdde03146102cd578063095ea7b3146102e25780630dfe1681146102f5575b600080fd5b6102a261029d366004614fe4565b610599565b6040516102af9190615674565b60405180910390f35b6102c0610622565b6040516102af919061567f565b6102d5610628565b6040516102af91906156d1565b6102a26102f0366004614e7a565b6106be565b6102fd6106dc565b6040516102af91906154c9565b6103126106eb565b6040516102af919061569d565b6102fd6106fb565b6102c061070a565b610337610710565b005b6102c06109b9565b6102a261034f366004614e3a565b6109bf565b610337610362366004614d8f565b610a47565b6102c0610375366004614f87565b610ded565b6103376103883660046153a7565b610e02565b61033761039b366004614f9f565b610f08565b6103a8610f6f565b6040516102af9190615849565b6103376103c3366004614f9f565b610f78565b6103db6103d6366004615414565b610fd9565b6040516102af93929190615822565b6102c06111f8565b6102a2610400366004614e7a565b6111fe565b61040d61124c565b6040516102af9190615838565b6102c061125f565b610337611265565b6102a26112a5565b6102c06112ae565b6102c0610448366004614c9c565b6112b4565b6104556112cf565b6040516102af939291906155be565b61033761147a565b61033761047a3660046153a7565b6114b7565b61033761048d3660046152c2565b611556565b6102fd6104a0366004614fc3565b6118c5565b6102a26104b3366004614f9f565b6118dd565b6102d56118f5565b6102c0611956565b6102a26104d6366004614e7a565b61195b565b6102a26104e9366004614e7a565b6119c3565b6105016104fc36600461500c565b6119d7565b6040516102af929190615814565b610501611b33565b6102c0610525366004614f87565b611e41565b6102fd611e58565b6105016105403660046153d4565b611e67565b610337610553366004615079565b611f58565b610337610566366004614f9f565b611f80565b6102c0610579366004614d57565b611fd9565b6102c0612004565b610337610594366004615079565b61200a565b60c95460405163ab8b2a7360e01b81526000916001600160a01b03169063ab8b2a73906105ca908590600401615688565b60206040518083038186803b1580156105e257600080fd5b505afa1580156105f6573d6000803e3d6000fd5b505050506040513d601f19601f8201168201806040525081019061061a9190614f6d565b90505b919050565b60cd5481565b60368054604080516020601f60026000196101006001881615020190951694909404938401819004810282018101909252828152606093909290918301828280156106b45780601f10610689576101008083540402835291602001916106b4565b820191906000526020600020905b81548152906001019060200180831161069757829003601f168201915b5050505050905090565b60006106d26106cb612067565b848461206b565b5060015b92915050565b60ca546001600160a01b031681565b60d054600160a01b900460020b81565b60d0546001600160a01b031681565b60355490565b6040805160f9805460806020820284018101909452606083018181526000948492849184018282801561078857602002820191906000526020600020906000905b82829054906101000a900460020b60020b815260200190600301906020826002010492830192600103820291508084116107515790505b505050505081526020016001820180548060200260200160405190810160405280929190818152602001828054801561080657602002820191906000526020600020906000905b82829054906101000a900460020b60020b815260200190600301906020826002010492830192600103820291508084116107cf5790505b505050505081526020016002820180548060200260200160405190810160405280929190818152602001828054801561088657602002820191906000526020600020906000905b82829054906101000a900461ffff1661ffff168152602001906002019060208260010104928301926001038202915080841161084d5790505b505050919092525050815151919250600090505b8181146109b45760006108db846000015183815181106108b657fe5b6020026020010151856020015184815181106108ce57fe5b6020026020010151612157565b5050505090506000816001600160801b031611156109ab5760d054845180516001600160a01b039092169163a34123a791908590811061091757fe5b60200260200101518660200151858151811061092f57fe5b602002602001015160006040518463ffffffff1660e01b8152600401610957939291906156ab565b6040805180830381600087803b15801561097057600080fd5b505af1158015610984573d6000803e3d6000fd5b505050506040513d601f19601f820116820180604052508101906109a89190615056565b50505b5060010161089a565b505050565b611a0b81565b60006109cc8484846121fd565b610a3c846109d8612067565b610a3785604051806060016040528060288152602001615ab4602891396001600160a01b038a16600090815260346020526040812090610a16612067565b6001600160a01b03168152602081019190915260400160002054919061235a565b61206b565b5060015b9392505050565b600054610100900460ff1680610a605750610a606123f1565b80610a6e575060005460ff16155b610aa95760405162461bcd60e51b815260040180806020018281038252602e815260200180615a65602e913960400191505060405180910390fd5b600054610100900460ff16158015610ad4576000805460ff1961ff0019909116610100171660011790555b600080600080600086806020019051810190610af09190614cd4565b9450945094509450945060098260020b138015610b1157506107d18260020b125b610b1a57600080fd5b60058163ffffffff16118015610b3757506102588163ffffffff16105b610b4057600080fd5b836001600160a01b0316856001600160a01b031610610b7a5760405162461bcd60e51b8152600401610b7190615767565b60405180910390fd5b60c98054336001600160a01b03199182161790915560ca805482166001600160a01b038881169190911790915560cb8054909216908616179055604051630b4c774160e11b815260009073b656da17129e7eb733a557f4ebc57b76cfbb5d1090631698ee8290610bf2908990899089906004016154dd565b60206040518083038186803b158015610c0a57600080fd5b505afa158015610c1e573d6000803e3d6000fd5b505050506040513d601f19601f82011682018060405250810190610c429190614cb8565b90506001600160a01b038116610c5757600080fd5b60d080546001600160a01b0319166001600160a01b03831617905560408051633811936960e01b81529051600091610cf09133916338119369916004808301926020929190829003018186803b158015610cb057600080fd5b505afa158015610cc4573d6000803e3d6000fd5b505050506040513d601f19601f82011682018060405250810190610ce891906152aa565b600101612402565b9050610d3a81604051602001610d06919061548f565b60405160208183030381529060405282604051602001610d26919061548f565b6040516020818303038152906040526124dd565b610d42612592565b610d4a612643565b610d62600080516020615b708339815191528b610f61565b610d8c7f241ecf16d79d0f8dbfb92cbc07fe17840425976cf0667f022fe9877caa831b088d610f61565b505060d0805463ffffffff909216600160b81b0263ffffffff60b81b1960029490940b62ffffff16600160a01b0262ffffff60a01b199093169290921792909216179055505081159050610de6576000805461ff00191690555b5050505050565b60009081526097602052604090206002015490565b610e0a6112a5565b15610e4f576040805162461bcd60e51b815260206004820152601060248201526f14185d5cd8589b194e881c185d5cd95960821b604482015290519081900360640190fd5b60c95460405163015a1d6760e31b81526001600160a01b0390911690630ad0eb3890610e7f9030906004016154c9565b60206040518083038186803b158015610e9757600080fd5b505afa158015610eab573d6000803e3d6000fd5b505050506040513d601f19601f82011682018060405250810190610ecf9190614cb8565b6001600160a01b0316336001600160a01b031614610eec57600080fd5b610efd8160ce5460cf5486866126e0565b60cf5560ce55505050565b600082815260976020526040902060020154610f26906104b3612067565b610f615760405162461bcd60e51b815260040180806020018281038252602f815260200180615976602f913960400191505060405180910390fd5b610f6b8282612752565b5050565b60385460ff1690565b610f80612067565b6001600160a01b0316816001600160a01b031614610fcf5760405162461bcd60e51b815260040180806020018281038252602f815260200180615bb5602f913960400191505060405180910390fd5b610f6b82826127bb565b6000806000610fe66112a5565b1561102b576040805162461bcd60e51b815260206004820152601060248201526f14185d5cd8589b194e881c185d5cd95960821b604482015290519081900360640190fd5b60c9546040516367a44ca360e01b81526000916001600160a01b0316906367a44ca39061105c9030906004016154c9565b60006040518083038186803b15801561107457600080fd5b505afa158015611088573d6000803e3d6000fd5b505050506040513d6000823e601f3d908101601f191682016040526110b091908101906150ca565b51905060018160048111156110c157fe5b14806110d8575060038160048111156110d657fe5b145b6110f45760405162461bcd60e51b8152600401610b719061573a565b6110fc610710565b6111068989612824565b919550935091508361111757600080fd5b868310156111375760405162461bcd60e51b8152600401610b719061571f565b858210156111575760405162461bcd60e51b8152600401610b719061579d565b82156111755760ca54611175906001600160a01b031633308661294d565b81156111935760cb54611193906001600160a01b031633308561294d565b61119d85856129a7565b846001600160a01b0316336001600160a01b03167f4e2ca0515ed1aef1395f66b5303bb5d6f1bf9d61a353fa53f73f8ac9973fa9f68686866040516111e493929190615822565b60405180910390a350955095509592505050565b60cf5481565b60006106d261120b612067565b84610a37856034600061121c612067565b6001600160a01b03908116825260208083019390935260409182016000908120918c168152925290205490612a99565b60d054600160b81b900463ffffffff1681565b60ce5481565b600080516020615b7083398151915261127e81336118dd565b61129a5760405162461bcd60e51b8152600401610b71906157b8565b6112a2612af3565b50565b60655460ff1690565b6105dc81565b6001600160a01b031660009081526033602052604090205490565b6060806060600060f96040518060600160405290816000820180548060200260200160405190810160405280929190818152602001828054801561135857602002820191906000526020600020906000905b82829054906101000a900460020b60020b815260200190600301906020826002010492830192600103820291508084116113215790505b50505050508152602001600182018054806020026020016040519081016040528092919081815260200182805480156113d657602002820191906000526020600020906000905b82829054906101000a900460020b60020b8152602001906003019060208260020104928301926001038202915080841161139f5790505b505050505081526020016002820180548060200260200160405190810160405280929190818152602001828054801561145657602002820191906000526020600020906000905b82829054906101000a900461ffff1661ffff168152602001906002019060208260010104928301926001038202915080841161141d5790505b50505091909252505081516020830151604090930151909792965094509092505050565b600080516020615b7083398151915261149381336118dd565b6114af5760405162461bcd60e51b8152600401610b71906157b8565b6112a2612b93565b600080516020615b708339815191526114d081336118dd565b6114ec5760405162461bcd60e51b8152600401610b71906157b8565b6114f46112a5565b15611539576040805162461bcd60e51b815260206004820152601060248201526f14185d5cd8589b194e881c185d5cd95960821b604482015290519081900360640190fd5b61154a8260cc5460cd5487876126e0565b60cd5560cc5550505050565b7f241ecf16d79d0f8dbfb92cbc07fe17840425976cf0667f022fe9877caa831b0861158181336118dd565b61159d5760405162461bcd60e51b8152600401610b71906157b8565b6115a56112a5565b156115ea576040805162461bcd60e51b815260206004820152601060248201526f14185d5cd8589b194e881c185d5cd95960821b604482015290519081900360640190fd5b6000806115f984860186614f9f565b9150915060008060d060009054906101000a90046001600160a01b03166001600160a01b0316633850c7bd6040518163ffffffff1660e01b815260040160e06040518083038186803b15801561164e57600080fd5b505afa158015611662573d6000803e3d6000fd5b505050506040513d601f19601f82011682018060405250810190611686919061520f565b50505050509150915061169881612c16565b6116a3600180612d84565b5050875151156117005787518051899160f9916116c79183916020909101906148d6565b5060208281015180516116e092600185019201906148d6565b50604082015180516116fc916002840191602090910190614985565b5050505b83156118325760d05460008513906001600160a01b031663128acb0830838061172c578860000361172e565b885b886040518563ffffffff1660e01b815260040161174e9493929190615505565b6040805180830381600087803b15801561176757600080fd5b505af115801561177b573d6000803e3d6000fd5b505050506040513d601f19601f8201168201806040525081019061179f9190615056565b505060d060009054906101000a90046001600160a01b03166001600160a01b0316633850c7bd6040518163ffffffff1660e01b815260040160e06040518083038186803b1580156117ef57600080fd5b505afa158015611803573d6000803e3d6000fd5b505050506040513d601f19601f82011682018060405250810190611827919061520f565b509497505050505050505b600061183c613216565b905060006118486132ae565b90507f2fd4737bac0995700ade358ae308c92f20ee63884dfbe658bf55d2f99f60f07784838361187661070a565b60405161188694939291906157ee565b60405180910390a18a156118b8576118b8846118a5848e6127106132eb565b6118b2848f6127106132eb565b89613396565b5050505050505050505050565b6000828152609760205260408120610a409083613909565b6000828152609760205260408120610a409083613915565b60378054604080516020601f60026000196101006001881615020190951694909404938401819004810282018101909252828152606093909290918301828280156106b45780601f10610689576101008083540402835291602001916106b4565b600081565b60006106d2611968612067565b84610a3785604051806060016040528060258152602001615b906025913960346000611992612067565b6001600160a01b03908116825260208083019390935260409182016000908120918d1681529252902054919061235a565b60006106d26119d0612067565b84846121fd565b600080600080516020615b708339815191526119f381336118dd565b611a0f5760405162461bcd60e51b8152600401610b71906157b8565b60d05460405163a34123a760e01b81526001600160a01b039091169063a34123a790611a43908990899089906004016156ab565b6040805180830381600087803b158015611a5c57600080fd5b505af1158015611a70573d6000803e3d6000fd5b505050506040513d601f19601f82011682018060405250810190611a949190615056565b60d0546040516309e3d67b60e31b81529295509093506001600160a01b031690634f1eb3d890611ad79030908a908a906001600160801b03908190600401615581565b6040805180830381600087803b158015611af057600080fd5b505af1158015611b04573d6000803e3d6000fd5b505050506040513d601f19601f82011682018060405250810190611b28919061518e565b505050935093915050565b600080611b3e613216565b9150611b486132ae565b9050600080600060f960405180606001604052908160008201805480602002602001604051908101604052809291908181526020018280548015611bd157602002820191906000526020600020906000905b82829054906101000a900460020b60020b81526020019060030190602082600201049283019260010382029150808411611b9a5790505b5050505050815260200160018201805480602002602001604051908101604052809291908181526020018280548015611c4f57602002820191906000526020600020906000905b82829054906101000a900460020b60020b81526020019060030190602082600201049283019260010382029150808411611c185790505b5050505050815260200160028201805480602002602001604051908101604052809291908181526020018280548015611ccf57602002820191906000526020600020906000905b82829054906101000a900461ffff1661ffff1681526020019060020190602082600101049283019260010382029150808411611c965790505b5050505050815250509050600060d060009054906101000a90046001600160a01b03166001600160a01b0316633850c7bd6040518163ffffffff1660e01b815260040160e06040518083038186803b158015611d2a57600080fd5b505afa158015611d3e573d6000803e3d6000fd5b505050506040513d601f19601f82011682018060405250810190611d62919061520f565b5050865151949550600093505050505b818114611e0157600080600080611db88789600001518781518110611d9357fe5b60200260200101518a602001518881518110611dab57fe5b602002602001015161392a565b92965090945092509050611dcc8c85612a99565b9b50611dd88b84612a99565b9a50611de48a83612a99565b9950611df08982612a99565b985050505050806001019050611d72565b50611e1b611e14866121346127106132eb565b8890612a99565b9650611e36611e2f856121346127106132eb565b8790612a99565b955050505050509091565b600081815260976020526040812061061a90613981565b60cb546001600160a01b031681565b60008060008611611e7757600080fd5b6000611e8161070a565b9050611e8d338861398c565b611e9f611e98613216565b88836132eb565b9250611eac611e986132ae565b9150600080611ebb8984612d84565b9092509050611eca8583612a99565b9450611ed68482612a99565b935087851015611ee557600080fd5b86841015611ef257600080fd5b611efd868686613a88565b856001600160a01b0316336001600160a01b03167febff2602b3f468259e1e99f613fed6691f3a6526effe6ef3e768ba7ae7a36c4f8b8888604051611f4493929190615822565b60405180910390a350505094509492505050565b60d0546001600160a01b03163314611f6f57600080fd5b611f7a338585613a88565b50505050565b600082815260976020526040902060020154611f9e906104b3612067565b610fcf5760405162461bcd60e51b8152600401808060200182810382526030815260200180615a356030913960400191505060405180910390fd5b6001600160a01b03918216600090815260346020908152604080832093909416825291909152205490565b60cc5481565b60d0546001600160a01b0316331461202157600080fd5b60008413156120415760ca54612041906001600160a01b03163386613abe565b6000831315611f7a5760cb54611f7a906001600160a01b03163385613abe565b3b151590565b3390565b6001600160a01b0383166120b05760405162461bcd60e51b8152600401808060200182810382526024815260200180615b226024913960400191505060405180910390fd5b6001600160a01b0382166120f55760405162461bcd60e51b81526004018080602001828103825260228152602001806159c76022913960400191505060405180910390fd5b6001600160a01b03808416600081815260346020908152604080832094871680845294825291829020859055815185815291517f8c5be1e5ebec7d5bd14f71427d1e84f3dd0314c0f7b2291e5b200ac8c7c3b9259281900390910190a3505050565b60d05460009081908190819081906001600160a01b031663514ea4bf61217e308a8a613b10565b6040518263ffffffff1660e01b815260040161219a919061567f565b60a06040518083038186803b1580156121b257600080fd5b505afa1580156121c6573d6000803e3d6000fd5b505050506040513d601f19601f820116820180604052508101906121ea91906151bc565b939b929a50909850965090945092505050565b6001600160a01b0383166122425760405162461bcd60e51b8152600401808060200182810382526025815260200180615afd6025913960400191505060405180910390fd5b6001600160a01b0382166122875760405162461bcd60e51b81526004018080602001828103825260238152602001806159536023913960400191505060405180910390fd5b6122928383836109b4565b6122cf816040518060600160405280602681526020016159e9602691396001600160a01b038616600090815260336020526040902054919061235a565b6001600160a01b0380851660009081526033602052604080822093909355908416815220546122fe9082612a99565b6001600160a01b0380841660008181526033602090815260409182902094909455805185815290519193928716927fddf252ad1be2c89b69c2b068fc378daa952ba7f163c4a11628f55a4df523b3ef92918290030190a3505050565b600081848411156123e95760405162461bcd60e51b81526004018080602001828103825283818151815260200191508051906020019080838360005b838110156123ae578181015183820152602001612396565b50505050905090810190601f1680156123db5780820380516001836020036101000a031916815260200191505b509250505060405180910390fd5b505050900390565b60006123fc30612061565b15905090565b60608161242757506040805180820190915260018152600360fc1b602082015261061d565b8160005b811561243f57600101600a8204915061242b565b60008167ffffffffffffffff8111801561245857600080fd5b506040519080825280601f01601f191660200182016040528015612483576020820181803683370190505b50859350905060001982015b83156124d457600a840660300160f81b828280600190039350815181106124b257fe5b60200101906001600160f81b031916908160001a905350600a8404935061248f565b50949350505050565b600054610100900460ff16806124f657506124f66123f1565b80612504575060005460ff16155b61253f5760405162461bcd60e51b815260040180806020018281038252602e815260200180615a65602e913960400191505060405180910390fd5b600054610100900460ff1615801561256a576000805460ff1961ff0019909116610100171660011790555b612572613b66565b61257c8383613c06565b80156109b4576000805461ff0019169055505050565b600054610100900460ff16806125ab57506125ab6123f1565b806125b9575060005460ff16155b6125f45760405162461bcd60e51b815260040180806020018281038252602e815260200180615a65602e913960400191505060405180910390fd5b600054610100900460ff1615801561261f576000805460ff1961ff0019909116610100171660011790555b612627613b66565b61262f613cde565b80156112a2576000805461ff001916905550565b600054610100900460ff168061265c575061265c6123f1565b8061266a575060005460ff16155b6126a55760405162461bcd60e51b815260040180806020018281038252602e815260200180615a65602e913960400191505060405180910390fd5b600054610100900460ff161580156126d0576000805460ff1961ff0019909116610100171660011790555b6126d8613b66565b61262f613b66565b6000808315612712576126f38685613d89565b60ca5490925061270d906001600160a01b03168886613abe565b612716565b8591505b8215612745576127268584613d89565b60cb54909150612740906001600160a01b03168885613abe565b612748565b50835b9550959350505050565b600082815260976020526040902061276a9082613de6565b15610f6b57612777612067565b6001600160a01b0316816001600160a01b0316837f2f8788117e7eff1d82e926ec794901d17c78024a50270940304540a733656f0d60405160405180910390a45050565b60008281526097602052604090206127d39082613dfb565b15610f6b576127e0612067565b6001600160a01b0316816001600160a01b0316837ff6391f5c32d9c69d2a47ea670b442974b53935d1edc7fd64eb21e047a839171b60405160405180910390a45050565b60008060008061283261070a565b905060008061283f611b33565b9150915082600014806128525750600082115b8061285d5750600081115b61286357fe5b8261287f578794508693506128788585613e10565b9550612943565b816128a35761288f8784836132eb565b955061289c868285613e27565b9350612943565b806128c7576128b38884846132eb565b95506128c0868385613e27565b9450612943565b60006128e56128d68a84613e61565b6128e08a86613e61565b613eba565b9050600081116129075760405162461bcd60e51b8152600401610b7190615704565b81600182038161291357fe5b04600101955082600182038161292557fe5b046001019450816129378286866132eb565b8161293e57fe5b049650505b5050509250925092565b604080516001600160a01b0380861660248301528416604482015260648082018490528251808303909101815260849091019091526020810180516001600160e01b03166323b872dd60e01b179052611f7a908590613ec9565b6001600160a01b038216612a02576040805162461bcd60e51b815260206004820152601f60248201527f45524332303a206d696e7420746f20746865207a65726f206164647265737300604482015290519081900360640190fd5b612a0e600083836109b4565b603554612a1b9082612a99565b6035556001600160a01b038216600090815260336020526040902054612a419082612a99565b6001600160a01b03831660008181526033602090815260408083209490945583518581529351929391927fddf252ad1be2c89b69c2b068fc378daa952ba7f163c4a11628f55a4df523b3ef9281900390910190a35050565b600082820183811015610a40576040805162461bcd60e51b815260206004820152601b60248201527f536166654d6174683a206164646974696f6e206f766572666c6f770000000000604482015290519081900360640190fd5b612afb6112a5565b612b43576040805162461bcd60e51b815260206004820152601460248201527314185d5cd8589b194e881b9bdd081c185d5cd95960621b604482015290519081900360640190fd5b6065805460ff191690557f5db9ee0a495bf2e6ff9c91a7834c1ba4fdd244a5e8aa4e537bd38aeae4b073aa612b76612067565b604080516001600160a01b039092168252519081900360200190a1565b612b9b6112a5565b15612be0576040805162461bcd60e51b815260206004820152601060248201526f14185d5cd8589b194e881c185d5cd95960821b604482015290519081900360640190fd5b6065805460ff191660011790557f62e78cea01bee320cd4e420270b5ea74000d11b0c9f74754ebdbfc544b05a258612b76612067565b60d05460408051600280825260608201835263ffffffff600160b81b85041693600160a01b9004810b9260009291906020830190803683370190505090508281600081518110612c6257fe5b63ffffffff9092166020928302919091019091015260d05460405163883bdbfd60e01b81526000916001600160a01b03169063883bdbfd90612ca890859060040161562a565b60006040518083038186803b158015612cc057600080fd5b505afa158015612cd4573d6000803e3d6000fd5b505050506040513d6000823e601f3d908101601f19168201604052612cfc9190810190614ea5565b50905060008463ffffffff1682600081518110612d1557fe5b602002602001015183600181518110612d2a57fe5b60200260200101510360060b81612d3d57fe5b05905083810160020b8660020b13158015612d60575083810360020b8660020b12155b612d7c5760405162461bcd60e51b8152600401610b71906157d3565b505050505050565b600080600060f960405180606001604052908160008201805480602002602001604051908101604052809291908181526020018280548015612e0b57602002820191906000526020600020906000905b82829054906101000a900460020b60020b81526020019060030190602082600201049283019260010382029150808411612dd45790505b5050505050815260200160018201805480602002602001604051908101604052809291908181526020018280548015612e8957602002820191906000526020600020906000905b82829054906101000a900460020b60020b81526020019060030190602082600201049283019260010382029150808411612e525790505b5050505050815260200160028201805480602002602001604051908101604052809291908181526020018280548015612f0957602002820191906000526020600020906000905b82829054906101000a900461ffff1661ffff1681526020019060020190602082600101049283019260010382029150808411612ed05790505b505050919092525050815151919250600091829150815b8181146130fc57600085600001518281518110612f3957fe5b60200260200101519050600086602001518381518110612f5557fe5b60200260200101519050600080612f6c8484612157565b505050509050612f86816001600160801b03168e8e6132eb565b9150506001600160801b038116156130ee5760d05460405163a34123a760e01b815260009182916001600160a01b039091169063a34123a790612fd1908890889088906004016156ab565b6040805180830381600087803b158015612fea57600080fd5b505af1158015612ffe573d6000803e3d6000fd5b505050506040513d601f19601f820116820180604052508101906130229190615056565b60d0546040516309e3d67b60e31b815292945090925060009182916001600160a01b031690634f1eb3d89061306a9030908b908b906001600160801b03908190600401615581565b6040805180830381600087803b15801561308357600080fd5b505af1158015613097573d6000803e3d6000fd5b505050506040513d601f19601f820116820180604052508101906130bb919061518e565b6001600160801b031691506001600160801b03169150838e019d50828d019c508382038b019a508281038a019950505050505b505050806001019050612f20565b507fc28ad1de9c0c32e5394ba60323e44d8d9536312236a47231772e448a3e49de42838360405161312e929190615814565b60405180910390a1821561318d57600061314d846105dc6127106132eb565b90508084039350600061316582611a0b6127106132eb565b60cc549091506131759082612a99565b60cc5560ce5461318790828403612a99565b60ce5550505b81156131e45760006131a4836105dc6127106132eb565b9050808303925060006131bc82611a0b6127106132eb565b60cd549091506131cc9082612a99565b60cd5560cf546131de90828403612a99565b60cf5550505b6131f2611e2f848a8a6132eb565b9550613209613202838a8a6132eb565b8690612a99565b9450505050509250929050565b60ce5460cc5460ca546040516370a0823160e01b81526000936132a99301916001600160a01b0316906370a08231906132539030906004016154c9565b60206040518083038186803b15801561326b57600080fd5b505afa15801561327f573d6000803e3d6000fd5b505050506040513d601f19601f820116820180604052508101906132a391906152aa565b90613d89565b905090565b60cf5460cd5460cb546040516370a0823160e01b81526000936132a99301916001600160a01b0316906370a08231906132539030906004016154c9565b6000808060001985870986860292508281109083900303905080613321576000841161331657600080fd5b508290049050610a40565b80841161332d57600080fd5b60008486880960026001871981018816978890046003810283188082028403028082028403028082028403028082028403028082028403029081029092039091026000889003889004909101858311909403939093029303949094049190911702949350505050565b6040805160f9805460806020820284018101909452606083018181526000948492849184018282801561340e57602002820191906000526020600020906000905b82829054906101000a900460020b60020b815260200190600301906020826002010492830192600103820291508084116133d75790505b505050505081526020016001820180548060200260200160405190810160405280929190818152602001828054801561348c57602002820191906000526020600020906000905b82829054906101000a900460020b60020b815260200190600301906020826002010492830192600103820291508084116134555790505b505050505081526020016002820180548060200260200160405190810160405280929190818152602001828054801561350c57602002820191906000526020600020906000905b82829054906101000a900461ffff1661ffff16815260200190600201906020826001010492830192600103820291508084116134d35790505b5050505050815250509050606080600080600085600001515190508067ffffffffffffffff8111801561353e57600080fd5b50604051908082528060200260200182016040528015613568578160200160208202803683370190505b5094508067ffffffffffffffff8111801561358257600080fd5b506040519080825280602002602001820160405280156135ac578160200160208202803683370190505b50935060005b8181146136f057600181106136465786518051829081106135cf57fe5b602002602001015160020b876000015160018303815181106135ed57fe5b602002602001015160020b131561360357600080fd5b8660200151818151811061361357fe5b602002602001015160020b8760200151600183038151811061363157fe5b602002602001015160020b1261364657600080fd5b6000806136ab8d61366d8b60000151868151811061366057fe5b6020026020010151613f7a565b6136808c60200151878151811061366057fe5b8c60400151878151811061369057fe5b602002602001015161ffff16670de0b6b3a7640000026142ac565b91509150818884815181106136bc57fe5b602002602001018181525050808784815181106136d557fe5b602090810291909101015294019392909201916001016135b2565b5060005b81811461388d5760008085156137255761372288848151811061371357fe5b60200260200101518d886132eb565b91505b841561374c5761374987848151811061373a57fe5b60200260200101518c876132eb565b90505b600061377f8e6137658c60000151878151811061366057fe5b6137788d60200151888151811061366057fe5b8686614348565b90506001600160801b0381161561387f5760d05460f980546001600160a01b0390921691633c8a7d8d913091889081106137b557fe5b90600052602060002090600a91828204019190066003029054906101000a900460020b60f960010188815481106137e857fe5b90600052602060002090600a91828204019190066003029054906101000a900460020b856040518563ffffffff1660e01b815260040161382b949392919061553f565b6040805180830381600087803b15801561384457600080fd5b505af1158015613858573d6000803e3d6000fd5b505050506040513d601f19601f8201168201806040525081019061387c9190615056565b50505b5050508060010190506136f4565b5060008713156138c857606460058902046138a66132ae565b106138c35760405162461bcd60e51b8152600401610b7190615782565b6138fd565b60008712156138fd57606460058a02046138e0613216565b106138fd5760405162461bcd60e51b8152600401610b7190615782565b50505050505050505050565b6000610a40838361440c565b6000610a40836001600160a01b038416614470565b600080600080600061393c8787612157565b6001600160801b03918216975016945091925061396f915089905061396089613f7a565b61396989613f7a565b846142ac565b80955081965050505093509350935093565b600061061a82614488565b6001600160a01b0382166139d15760405162461bcd60e51b8152600401808060200182810382526021815260200180615adc6021913960400191505060405180910390fd5b6139dd826000836109b4565b613a1a816040518060600160405280602281526020016159a5602291396001600160a01b038516600090815260336020526040902054919061235a565b6001600160a01b038316600090815260336020526040902055603554613a409082613d89565b6035556040805182815290516000916001600160a01b038516917fddf252ad1be2c89b69c2b068fc378daa952ba7f163c4a11628f55a4df523b3ef9181900360200190a35050565b8115613aa55760ca54613aa5906001600160a01b03168484613abe565b80156109b45760cb546109b4906001600160a01b031684835b604080516001600160a01b038416602482015260448082018490528251808303909101815260649091019091526020810180516001600160e01b031663a9059cbb60e01b1790526109b4908490613ec9565b6040805160609490941b6bffffffffffffffffffffffff1916602080860191909152600293840b60e890811b60348701529290930b90911b60378401528051808403601a018152603a9093019052815191012090565b600054610100900460ff1680613b7f5750613b7f6123f1565b80613b8d575060005460ff16155b613bc85760405162461bcd60e51b815260040180806020018281038252602e815260200180615a65602e913960400191505060405180910390fd5b600054610100900460ff1615801561262f576000805460ff1961ff00199091166101001716600117905580156112a2576000805461ff001916905550565b600054610100900460ff1680613c1f5750613c1f6123f1565b80613c2d575060005460ff16155b613c685760405162461bcd60e51b815260040180806020018281038252602e815260200180615a65602e913960400191505060405180910390fd5b600054610100900460ff16158015613c93576000805460ff1961ff0019909116610100171660011790555b8251613ca6906036906020860190614a1c565b508151613cba906037906020850190614a1c565b506038805460ff1916601217905580156109b4576000805461ff0019169055505050565b600054610100900460ff1680613cf75750613cf76123f1565b80613d05575060005460ff16155b613d405760405162461bcd60e51b815260040180806020018281038252602e815260200180615a65602e913960400191505060405180910390fd5b600054610100900460ff16158015613d6b576000805460ff1961ff0019909116610100171660011790555b6065805460ff1916905580156112a2576000805461ff001916905550565b600082821115613de0576040805162461bcd60e51b815260206004820152601e60248201527f536166654d6174683a207375627472616374696f6e206f766572666c6f770000604482015290519081900360640190fd5b50900390565b6000610a40836001600160a01b03841661448c565b6000610a40836001600160a01b0384166144d6565b600081831015613e205781610a40565b5090919050565b6000613e348484846132eb565b905060008280613e4057fe5b8486091115610a40576000198110613e5757600080fd5b6001019392505050565b600082613e70575060006106d6565b82820282848281613e7d57fe5b0414610a405760405162461bcd60e51b8152600401808060200182810382526021815260200180615a936021913960400191505060405180910390fd5b6000818310613e205781610a40565b6000613f1e826040518060400160405280602081526020017f5361666545524332303a206c6f772d6c6576656c2063616c6c206661696c6564815250856001600160a01b031661459c9092919063ffffffff16565b8051909150156109b457808060200190516020811015613f3d57600080fd5b50516109b45760405162461bcd60e51b815260040180806020018281038252602a815260200180615b46602a913960400191505060405180910390fd5b60008060008360020b12613f91578260020b613f99565b8260020b6000035b9050620d89e8811115613fd7576040805162461bcd60e51b81526020600482015260016024820152601560fa1b604482015290519081900360640190fd5b600060018216613feb57600160801b613ffd565b6ffffcb933bd6fad37aa2d162d1a5940015b70ffffffffffffffffffffffffffffffffff1690506002821615614031576ffff97272373d413259a46990580e213a0260801c5b6004821615614050576ffff2e50f5f656932ef12357cf3c7fdcc0260801c5b600882161561406f576fffe5caca7e10e4e61c3624eaa0941cd00260801c5b601082161561408e576fffcb9843d60f6159c9db58835c9266440260801c5b60208216156140ad576fff973b41fa98c081472e6896dfb254c00260801c5b60408216156140cc576fff2ea16466c96a3843ec78b326b528610260801c5b60808216156140eb576ffe5dee046a99a2a811c461f1969c30530260801c5b61010082161561410b576ffcbe86c7900a88aedcffc83b479aa3a40260801c5b61020082161561412b576ff987a7253ac413176f2b074cf7815e540260801c5b61040082161561414b576ff3392b0822b70005940c7a398e4b70f30260801c5b61080082161561416b576fe7159475a2c29b7443b29c7fa6e889d90260801c5b61100082161561418b576fd097f3bdfd2022b8845ad8f792aa58250260801c5b6120008216156141ab576fa9f746462d870fdf8a65dc1f90e061e50260801c5b6140008216156141cb576f70d869a156d2a1b890bb3df62baf32f70260801c5b6180008216156141eb576f31be135f97d08fd981231505542fcfa60260801c5b6201000082161561420c576f09aa508b5b7a84e1c677de54f3e99bc90260801c5b6202000082161561422c576e5d6af8dedb81196699c329225ee6040260801c5b6204000082161561424b576d2216e584f5fa1ea926041bedfe980260801c5b62080000821615614268576b048a170391f7dc42444e8fa20260801c5b60008460020b131561428357806000198161427f57fe5b0490505b64010000000081061561429757600161429a565b60005b60ff16602082901c0192505050919050565b600080836001600160a01b0316856001600160a01b031611156142cd579293925b846001600160a01b0316866001600160a01b0316116142f8576142f18585856145b3565b915061433f565b836001600160a01b0316866001600160a01b031610156143315761431d8685856145b3565b915061432a85878561461c565b905061433f565b61433c85858561461c565b90505b94509492505050565b6000836001600160a01b0316856001600160a01b03161115614368579293925b846001600160a01b0316866001600160a01b0316116143935761438c85858561465f565b9050614403565b836001600160a01b0316866001600160a01b031610156143f55760006143ba87868661465f565b905060006143c98789866146c2565b9050806001600160801b0316826001600160801b0316106143ea57806143ec565b815b92505050614403565b6144008585846146c2565b90505b95945050505050565b8154600090821061444e5760405162461bcd60e51b81526004018080602001828103825260228152602001806159316022913960400191505060405180910390fd5b82600001828154811061445d57fe5b9060005260206000200154905092915050565b60009081526001919091016020526040902054151590565b5490565b60006144988383614470565b6144ce575081546001818101845560008481526020808220909301849055845484825282860190935260409020919091556106d6565b5060006106d6565b60008181526001830160205260408120548015614592578354600019808301919081019060009087908390811061450957fe5b906000526020600020015490508087600001848154811061452657fe5b60009182526020808320909101929092558281526001898101909252604090209084019055865487908061455657fe5b600190038181906000526020600020016000905590558660010160008781526020019081526020016000206000905560019450505050506106d6565b60009150506106d6565b60606145ab84846000856146ff565b949350505050565b6000826001600160a01b0316846001600160a01b031611156145d3579192915b836001600160a01b031661460c606060ff16846001600160801b0316901b8686036001600160a01b0316866001600160a01b03166132eb565b8161461357fe5b04949350505050565b6000826001600160a01b0316846001600160a01b0316111561463c579192915b6145ab826001600160801b03168585036001600160a01b0316600160601b6132eb565b6000826001600160a01b0316846001600160a01b0316111561467f579192915b60006146a2856001600160a01b0316856001600160a01b0316600160601b6132eb565b90506144036146bd84838888036001600160a01b03166132eb565b61485a565b6000826001600160a01b0316846001600160a01b031611156146e2579192915b6145ab6146bd83600160601b8787036001600160a01b03166132eb565b6060824710156147405760405162461bcd60e51b8152600401808060200182810382526026815260200180615a0f6026913960400191505060405180910390fd5b61474985612061565b61479a576040805162461bcd60e51b815260206004820152601d60248201527f416464726573733a2063616c6c20746f206e6f6e2d636f6e7472616374000000604482015290519081900360640190fd5b600080866001600160a01b031685876040518082805190602001908083835b602083106147d85780518252601f1990920191602091820191016147b9565b6001836020036101000a03801982511681845116808217855250505050505090500191505060006040518083038185875af1925050503d806000811461483a576040519150601f19603f3d011682016040523d82523d6000602084013e61483f565b606091505b509150915061484f828286614870565b979650505050505050565b806001600160801b038116811461061d57600080fd5b6060831561487f575081610a40565b82511561488f5782518084602001fd5b60405162461bcd60e51b81526020600482018181528451602484015284518593919283926044019190850190808383600083156123ae578181015183820152602001612396565b82805482825590600052602060002090600901600a900481019282156149755791602002820160005b8382111561494457835183826101000a81548162ffffff021916908360020b62ffffff16021790555092602001926003016020816002010492830192600103026148ff565b80156149735782816101000a81549062ffffff0219169055600301602081600201049283019260010302614944565b505b50614981929150614a98565b5090565b82805482825590600052602060002090600f016010900481019282156149755791602002820160005b838211156149ee57835183826101000a81548161ffff021916908361ffff16021790555092602001926002016020816001010492830192600103026149ae565b80156149735782816101000a81549061ffff02191690556002016020816001010492830192600103026149ee565b828054600181600116156101000203166002900490600052602060002090601f016020900481019282614a525760008555614975565b82601f10614a6b57805160ff1916838001178555614975565b82800160010185558215614975579182015b82811115614975578251825591602001919060010190614a7d565b5b808211156149815760008155600101614a99565b805161061d816158e7565b600082601f830112614ac8578081fd5b81356020614add614ad88361587b565b615857565b8281528181019085830183850287018401881015614af9578586fd5b855b85811015614b20578135614b0e816158fc565b84529284019290840190600101614afb565b5090979650505050505050565b600082601f830112614b3d578081fd5b81516020614b4d614ad88361587b565b8281528181019085830183850287018401881015614b69578586fd5b855b85811015614b20578151614b7e816158e7565b84529284019290840190600101614b6b565b600082601f830112614ba0578081fd5b81356020614bb0614ad88361587b565b8281528181019085830183850287018401881015614bcc578586fd5b855b85811015614b20578135614be181615920565b84529284019290840190600101614bce565b8051801515811461061d57600080fd5b60008083601f840112614c14578182fd5b50813567ffffffffffffffff811115614c2b578182fd5b602083019150836020828501011115614c4357600080fd5b9250929050565b80516005811061061d57600080fd5b600082601f830112614c69578081fd5b8151614c77614ad882615899565b818152846020838601011115614c8b578283fd5b6145ab8260208301602087016158bb565b600060208284031215614cad578081fd5b8135610a40816158e7565b600060208284031215614cc9578081fd5b8151610a40816158e7565b600080600080600060a08688031215614ceb578081fd5b8551614cf6816158e7565b6020870151909550614d07816158e7565b604087015190945062ffffff81168114614d1f578182fd5b6060870151909350614d30816158fc565b608087015190925063ffffffff81168114614d49578182fd5b809150509295509295909350565b60008060408385031215614d69578182fd5b8235614d74816158e7565b91506020830135614d84816158e7565b809150509250929050565b60008060008060808587031215614da4578182fd5b8435614daf816158e7565b93506020850135614dbf816158e7565b92506040850135614dcf816158e7565b9150606085013567ffffffffffffffff811115614dea578182fd5b8501601f81018713614dfa578182fd5b8035614e08614ad882615899565b818152886020838501011115614e1c578384fd5b81602084016020830137908101602001929092525092959194509250565b600080600060608486031215614e4e578081fd5b8335614e59816158e7565b92506020840135614e69816158e7565b929592945050506040919091013590565b60008060408385031215614e8c578182fd5b8235614e97816158e7565b946020939093013593505050565b60008060408385031215614eb7578182fd5b825167ffffffffffffffff80821115614ece578384fd5b818501915085601f830112614ee1578384fd5b81516020614ef1614ad88361587b565b82815281810190858301838502870184018b1015614f0d578889fd5b8896505b84871015614f3d5780518060060b8114614f2957898afd5b835260019690960195918301918301614f11565b5091880151919650909350505080821115614f56578283fd5b50614f6385828601614b2d565b9150509250929050565b600060208284031215614f7e578081fd5b610a4082614bf3565b600060208284031215614f98578081fd5b5035919050565b60008060408385031215614fb1578182fd5b823591506020830135614d84816158e7565b60008060408385031215614fd5578182fd5b50508035926020909101359150565b600060208284031215614ff5578081fd5b81356001600160e01b031981168114610a40578182fd5b600080600060608486031215615020578081fd5b833561502b816158fc565b9250602084013561503b816158fc565b9150604084013561504b8161590b565b809150509250925092565b60008060408385031215615068578182fd5b505080516020909101519092909150565b6000806000806060858703121561508e578182fd5b8435935060208501359250604085013567ffffffffffffffff8111156150b2578283fd5b6150be87828801614c03565b95989497509550505050565b6000602082840312156150db578081fd5b815167ffffffffffffffff808211156150f2578283fd5b9083019060c08286031215615105578283fd5b61510f60c0615857565b61511883614c4a565b8152602083015160208201526040830151604082015260608301518281111561513f578485fd5b61514b87828601614c59565b60608301525061515d60808401614aad565b608082015260a083015182811115615173578485fd5b61517f87828601614c59565b60a08301525095945050505050565b600080604083850312156151a0578182fd5b82516151ab8161590b565b6020840151909250614d848161590b565b600080600080600060a086880312156151d3578283fd5b85516151de8161590b565b80955050602086015193506040860151925060608601516151fe8161590b565b6080870151909250614d498161590b565b600080600080600080600060e0888a031215615229578485fd5b8751615234816158e7565b6020890151909750615245816158fc565b604089015190965061525681615920565b606089015190955061526781615920565b608089015190945061527881615920565b60a089015190935060ff8116811461528e578283fd5b915061529c60c08901614bf3565b905092959891949750929550565b6000602082840312156152bb578081fd5b5051919050565b600080600080606085870312156152d7578182fd5b84359350602085013567ffffffffffffffff808211156152f5578384fd5b9086019060608289031215615308578384fd5b60405160608101818110838211171561531d57fe5b60405282358281111561532e578586fd5b61533a8a828601614ab8565b82525060208301358281111561534e578586fd5b61535a8a828601614ab8565b602083015250604083013582811115615371578586fd5b61537d8a828601614b90565b60408301525080955050604087013591508082111561539a578384fd5b506150be87828801614c03565b6000806000606084860312156153bb578081fd5b8335925060208401359150604084013561504b816158e7565b600080600080608085870312156153e9578182fd5b8435935060208501359250604085013591506060850135615409816158e7565b939692955090935050565b600080600080600060a0868803121561542b578283fd5b853594506020860135935060408601359250606086013591506080860135614d49816158e7565b6000815180845260208085019450808401835b8381101561548457815160020b87529582019590820190600101615465565b509495945050505050565b60007153544545525f554e4956335f5641554c545f60701b825282516154bc8160128501602087016158bb565b9190910160120192915050565b6001600160a01b0391909116815260200190565b6001600160a01b03938416815291909216602082015262ffffff909116604082015260600190565b6001600160a01b03948516815292151560208401526040830191909152909116606082015260a06080820181905260009082015260c00190565b6001600160a01b03949094168452600292830b6020850152910b60408301526001600160801b0316606082015260a06080820181905260009082015260c00190565b6001600160a01b03959095168552600293840b60208601529190920b60408401526001600160801b03918216606084015216608082015260a00190565b6000606082526155d16060830186615452565b6020838203818501526155e48287615452565b84810360408601528551808252828701935090820190845b8181101561561c57845161ffff16835293830193918301916001016155fc565b509098975050505050505050565b6020808252825182820181905260009190848201906040850190845b8181101561566857835163ffffffff1683529284019291840191600101615646565b50909695505050505050565b901515815260200190565b90815260200190565b6001600160e01b031991909116815260200190565b60029190910b815260200190565b600293840b81529190920b60208201526001600160801b03909116604082015260600190565b60006020825282518060208401526156f08160408501602087016158bb565b601f01601f19169190910160400192915050565b6020808252600190820152604360f81b604082015260600190565b6020808252600190820152600360fc1b604082015260600190565b602080825260139082015272496e76616c6964205661756c7420537461746560681b604082015260600190565b6020808252600190820152601560fa1b604082015260600190565b6020808252600190820152605360f81b604082015260600190565b6020808252600190820152603160f81b604082015260600190565b6020808252600190820152602960f91b604082015260600190565b6020808252600190820152602b60f91b604082015260600190565b6001600160a01b0394909416845260208401929092526040830152606082015260800190565b918252602082015260400190565b9283526020830191909152604082015260600190565b63ffffffff91909116815260200190565b60ff91909116815260200190565b60405181810167ffffffffffffffff8111828210171561587357fe5b604052919050565b600067ffffffffffffffff82111561588f57fe5b5060209081020190565b600067ffffffffffffffff8211156158ad57fe5b50601f01601f191660200190565b60005b838110156158d65781810151838201526020016158be565b83811115611f7a5750506000910152565b6001600160a01b03811681146112a257600080fd5b8060020b81146112a257600080fd5b6001600160801b03811681146112a257600080fd5b61ffff811681146112a257600080fdfe456e756d657261626c655365743a20696e646578206f7574206f6620626f756e647345524332303a207472616e7366657220746f20746865207a65726f2061646472657373416363657373436f6e74726f6c3a2073656e646572206d75737420626520616e2061646d696e20746f206772616e7445524332303a206275726e20616d6f756e7420657863656564732062616c616e636545524332303a20617070726f766520746f20746865207a65726f206164647265737345524332303a207472616e7366657220616d6f756e7420657863656564732062616c616e6365416464726573733a20696e73756666696369656e742062616c616e636520666f722063616c6c416363657373436f6e74726f6c3a2073656e646572206d75737420626520616e2061646d696e20746f207265766f6b65496e697469616c697a61626c653a20636f6e747261637420697320616c726561647920696e697469616c697a6564536166654d6174683a206d756c7469706c69636174696f6e206f766572666c6f7745524332303a207472616e7366657220616d6f756e74206578636565647320616c6c6f77616e636545524332303a206275726e2066726f6d20746865207a65726f206164647265737345524332303a207472616e736665722066726f6d20746865207a65726f206164647265737345524332303a20617070726f76652066726f6d20746865207a65726f20616464726573735361666545524332303a204552433230206f7065726174696f6e20646964206e6f742073756363656564c62a261ff212893ed0a2ac422d821462bb04a4b5c153a746ad6a15108fb4f95145524332303a2064656372656173656420616c6c6f77616e63652062656c6f77207a65726f416363657373436f6e74726f6c3a2063616e206f6e6c792072656e6f756e636520726f6c657320666f722073656c66a2646970667358221220f7172e9ba9aaceac638a7c9d1e0a9bfa0df6f06641f26c97cdc0c3dc3842a69264736f6c63430007060033496e697469616c697a61626c653a20636f6e747261637420697320616c726561647920696e697469616c697a6564",
  "devdoc": {
    "kind": "dev",
    "methods": {
      "allowance(address,address)": {
        "details": "See {IERC20-allowance}."
      },
      "approve(address,uint256)": {
        "details": "See {IERC20-approve}. Requirements: - `spender` cannot be the zero address."
      },
      "balanceOf(address)": {
        "details": "See {IERC20-balanceOf}."
      },
      "decimals()": {
        "details": "Returns the number of decimals used to get its user representation. For example, if `decimals` equals `2`, a balance of `505` tokens should be displayed to a user as `5,05` (`505 / 10 ** 2`). Tokens usually opt for a value of 18, imitating the relationship between Ether and Wei. This is the value {ERC20} uses, unless {_setupDecimals} is called. NOTE: This information is only used for _display_ purposes: it in no way affects any of the arithmetic of the contract, including {IERC20-balanceOf} and {IERC20-transfer}."
      },
      "decreaseAllowance(address,uint256)": {
        "details": "Atomically decreases the allowance granted to `spender` by the caller. This is an alternative to {approve} that can be used as a mitigation for problems described in {IERC20-approve}. Emits an {Approval} event indicating the updated allowance. Requirements: - `spender` cannot be the zero address. - `spender` must have allowance for the caller of at least `subtractedValue`."
      },
      "deposit(uint256,uint256,uint256,uint256,address)": {
        "details": "These tokens sit in the vault and are not used for liquidity on      Uniswap until the next rebalance.      function requirements:        Either amount0Desired or amount1Desired must be > 0 or it will revert with 'CROSS'",
        "params": {
          "amount0Desired": "Max amount of token0 to deposit",
          "amount0Min": "Revert if resulting amount0Used is less than this",
          "amount1Desired": "Max amount of token1 to deposit",
          "amount1Min": "Revert if resulting amount1Used is less than this",
          "to": "Recipient of shares"
        },
        "returns": {
          "amount0Used": "Amount of token0 deposited",
          "amount1Used": "Amount of token1 deposited",
          "shares": "Number of shares minted"
        }
      },
      "getPositions()": {
        "details": "Get current positions held by the vault"
      },
      "getRoleAdmin(bytes32)": {
        "details": "Returns the admin role that controls `role`. See {grantRole} and {revokeRole}. To change a role's admin, use {_setRoleAdmin}."
      },
      "getRoleMember(bytes32,uint256)": {
        "details": "Returns one of the accounts that have `role`. `index` must be a value between 0 and {getRoleMemberCount}, non-inclusive. Role bearers are not sorted in any particular way, and their ordering may change at any point. WARNING: When using {getRoleMember} and {getRoleMemberCount}, make sure you perform all queries on the same block. See the following https://forum.openzeppelin.com/t/iterating-over-elements-on-enumerableset-in-openzeppelin-contracts/2296[forum post] for more information."
      },
      "getRoleMemberCount(bytes32)": {
        "details": "Returns the number of accounts that have `role`. Can be used together with {getRoleMember} to enumerate all bearers of a role."
      },
      "getTotalAmounts()": {
        "details": "Calculates the vault's total holdings of token0 and token1.      in other words, how much of each token the vault would hold if it withdrew      all its liquidity from Uniswap.      This function DOES NOT include fees earned since the last burn.      To include fees, first poke() and then call getTotalAmounts.      There's a function inside the periphery to do so."
      },
      "grantRole(bytes32,address)": {
        "details": "Grants `role` to `account`. If `account` had not been already granted `role`, emits a {RoleGranted} event. Requirements: - the caller must have ``role``'s admin role."
      },
      "hasRole(bytes32,address)": {
        "details": "Returns `true` if `account` has been granted `role`."
      },
      "increaseAllowance(address,uint256)": {
        "details": "Atomically increases the allowance granted to `spender` by the caller. This is an alternative to {approve} that can be used as a mitigation for problems described in {IERC20-approve}. Emits an {Approval} event indicating the updated allowance. Requirements: - `spender` cannot be the zero address."
      },
      "initialize(address,address,address,bytes)": {
        "details": "Initializes vault",
        "params": {
          "_params": "All other parameters this vault will use",
          "_steer": "The steer multisig address, responsible for some governance functions.",
          "_vaultManager": "is the address which will manage the vault being created, pass orchestrator address if the vault is meant to be managed by the orchestrator"
        }
      },
      "name()": {
        "details": "Returns the name of the token."
      },
      "pause()": {
        "details": "Pause and unpause"
      },
      "paused()": {
        "details": "Returns true if the contract is paused, and false otherwise."
      },
      "poke()": {
        "details": "burns each vault position which contains liquidity, updating fees owed to that position.      Call this before calling getTotalAmounts if total amounts must include fees.      There's a function in the periphery to do so through a static call."
      },
      "renounceRole(bytes32,address)": {
        "details": "Revokes `role` from the calling account. Roles are often managed via {grantRole} and {revokeRole}: this function's purpose is to provide a mechanism for accounts to lose their privileges if they are compromised (such as when a trusted device is misplaced). If the calling account had been granted `role`, emits a {RoleRevoked} event. Requirements: - the caller must be `account`."
      },
      "revokeRole(bytes32,address)": {
        "details": "Revokes `role` from `account`. If `account` had been granted `role`, emits a {RoleRevoked} event. Requirements: - the caller must have ``role``'s admin role."
      },
      "symbol()": {
        "details": "Returns the symbol of the token, usually a shorter version of the name."
      },
      "tend(uint256,(int24[],int24[],uint16[]),bytes)": {
        "details": "Internal function to pull funds from pool.      Update positions if necessary, then deposit funds into pool.      Reverts if the vault does not own any liquidity or tokens.      newPositions requirements:        Each lowerTick must be lower than its corresponding upperTick        Each lowerTick must be greater than or equal to the tick min (-887272)        Each upperTick must be less than or equal to the tick max (887272)        All lowerTicks and upperTicks must be divisible by the pool tickSpacing--      A 0.05% fee pool has tick spacing of 10, 0.3% has tick spacing 60.      And 1% has tick spacing 200.",
        "params": {
          "newPositions": "The info of each new position to be set.           newPositions.lowerTick[] is an array, in order, of the lower ticks of each position           newPositions.upperTick[] is an array, in order, of the upper ticks of each position           newPositions.relativeWeight[] is an array, in order, of the relative weights of each position           So if for example newPositions is called with lowerTick = [-120, 0],           upperTick = [-60, 60], and relativeWeight = [1, 5],           then the positions would be -120 to -60 with a weight of 1,           and 0 to 60 with a weight of 5.           The weight differences roughly correspond to what           proportion of the liquidity is added to each position.",
          "timeSensitiveData": "Encoded info of the swapAmount and sqrtPriceLimitX96.           It must be encoded as bytes so that it the data is placed after           the newPositions, which is also a dynamic data type.        timeSensitiveData.swapAmount: the amount to be swapped from one token to another this tend. zeroForOne if positive, oneForZero if negative.        timeSensitiveData.sqrtPriceLimitX96: the slippage limit of the swap. Protections elsewhere prevent extreme slippage if the keeper calling this        function is malicious, but this is the first line of defense against MEV attacks.",
          "totalWeight": "The share of liquidity we want deposited, multiplied by 10,000.           A value of 10,000 means we want to deposit all tokens into uniswap.           A value of 0 means we just want all the liquidity out.           Note that values above 10,000 are not explicitly prohibited           but will generally cause the tend to fail."
        }
      },
      "totalSupply()": {
        "details": "See {IERC20-totalSupply}."
      },
      "transfer(address,uint256)": {
        "details": "See {IERC20-transfer}. Requirements: - `recipient` cannot be the zero address. - the caller must have a balance of at least `amount`."
      },
      "transferFrom(address,address,uint256)": {
        "details": "See {IERC20-transferFrom}. Emits an {Approval} event indicating the updated allowance. This is not required by the EIP. See the note at the beginning of {ERC20}. Requirements: - `sender` and `recipient` cannot be the zero address. - `sender` must have a balance of at least `amount`. - the caller must have allowance for ``sender``'s tokens of at least `amount`."
      },
      "uniswapV3MintCallback(uint256,uint256,bytes)": {
        "details": "Callback for Uniswap V3 pool."
      },
      "uniswapV3SwapCallback(int256,int256,bytes)": {
        "details": "Callback for Uniswap V3 pool."
      },
      "withdraw(uint256,uint256,uint256,address)": {
        "params": {
          "amount0Min": "Revert if resulting `amount0` is smaller than this",
          "amount1Min": "Revert if resulting `amount1` is smaller than this",
          "shares": "Shares burned by sender",
          "to": "Recipient of tokens"
        },
        "returns": {
          "amount0": "Amount of token0 sent to recipient",
          "amount1": "Amount of token1 sent to recipient"
        }
      }
    },
    "version": 1
  },
  "userdoc": {
    "kind": "user",
    "methods": {
      "TOTAL_FEE()": {
        "notice": "Fee info"
      },
      "deposit(uint256,uint256,uint256,uint256,address)": {
        "notice": "Deposits tokens in proportion to the vault's current holdings."
      },
      "emergencyBurn(int24,int24,uint128)": {
        "notice": "Removes liquidity in case of emergency."
      },
      "pool()": {
        "notice": "Address of Uniswap V3 pool"
      },
      "steerCollectFees(uint256,uint256,address)": {
        "notice": "Used to collect accumulated protocol fees."
      },
      "strategistCollectFees(uint256,uint256,address)": {
        "notice": "Used to collect accumulated protocol fees."
      },
      "supportsInterface(bytes4)": {
        "notice": "Used by periphery to verify vault is depositable."
      },
      "token0()": {
        "notice": "Addresses of Token0 and Token1"
      },
      "withdraw(uint256,uint256,uint256,address)": {
        "notice": "Withdraws tokens in proportion to the vault's holdings."
      }
    },
    "version": 1
  },
  "storageLayout": {
    "storage": [
      {
        "astId": 1994,
        "contract": "contracts/vault-types/UniLiquidityManager/MultiPositionLiquidityManager.sol:MultiPositionLiquidityManager",
        "label": "_initialized",
        "offset": 0,
        "slot": "0",
        "type": "t_bool"
      },
      {
        "astId": 1997,
        "contract": "contracts/vault-types/UniLiquidityManager/MultiPositionLiquidityManager.sol:MultiPositionLiquidityManager",
        "label": "_initializing",
        "offset": 1,
        "slot": "0",
        "type": "t_bool"
      },
      {
        "astId": 2949,
        "contract": "contracts/vault-types/UniLiquidityManager/MultiPositionLiquidityManager.sol:MultiPositionLiquidityManager",
        "label": "__gap",
        "offset": 0,
        "slot": "1",
        "type": "t_array(t_uint256)50_storage"
      },
      {
        "astId": 2073,
        "contract": "contracts/vault-types/UniLiquidityManager/MultiPositionLiquidityManager.sol:MultiPositionLiquidityManager",
        "label": "_balances",
        "offset": 0,
        "slot": "51",
        "type": "t_mapping(t_address,t_uint256)"
      },
      {
        "astId": 2079,
        "contract": "contracts/vault-types/UniLiquidityManager/MultiPositionLiquidityManager.sol:MultiPositionLiquidityManager",
        "label": "_allowances",
        "offset": 0,
        "slot": "52",
        "type": "t_mapping(t_address,t_mapping(t_address,t_uint256))"
      },
      {
        "astId": 2081,
        "contract": "contracts/vault-types/UniLiquidityManager/MultiPositionLiquidityManager.sol:MultiPositionLiquidityManager",
        "label": "_totalSupply",
        "offset": 0,
        "slot": "53",
        "type": "t_uint256"
      },
      {
        "astId": 2083,
        "contract": "contracts/vault-types/UniLiquidityManager/MultiPositionLiquidityManager.sol:MultiPositionLiquidityManager",
        "label": "_name",
        "offset": 0,
        "slot": "54",
        "type": "t_string_storage"
      },
      {
        "astId": 2085,
        "contract": "contracts/vault-types/UniLiquidityManager/MultiPositionLiquidityManager.sol:MultiPositionLiquidityManager",
        "label": "_symbol",
        "offset": 0,
        "slot": "55",
        "type": "t_string_storage"
      },
      {
        "astId": 2087,
        "contract": "contracts/vault-types/UniLiquidityManager/MultiPositionLiquidityManager.sol:MultiPositionLiquidityManager",
        "label": "_decimals",
        "offset": 0,
        "slot": "56",
        "type": "t_uint8"
      },
      {
        "astId": 2582,
        "contract": "contracts/vault-types/UniLiquidityManager/MultiPositionLiquidityManager.sol:MultiPositionLiquidityManager",
        "label": "__gap",
        "offset": 0,
        "slot": "57",
        "type": "t_array(t_uint256)44_storage"
      },
      {
        "astId": 3463,
        "contract": "contracts/vault-types/UniLiquidityManager/MultiPositionLiquidityManager.sol:MultiPositionLiquidityManager",
        "label": "_paused",
        "offset": 0,
        "slot": "101",
        "type": "t_bool"
      },
      {
        "astId": 3554,
        "contract": "contracts/vault-types/UniLiquidityManager/MultiPositionLiquidityManager.sol:MultiPositionLiquidityManager",
        "label": "__gap",
        "offset": 0,
        "slot": "102",
        "type": "t_array(t_uint256)49_storage"
      },
      {
        "astId": 1237,
        "contract": "contracts/vault-types/UniLiquidityManager/MultiPositionLiquidityManager.sol:MultiPositionLiquidityManager",
        "label": "_roles",
        "offset": 0,
        "slot": "151",
        "type": "t_mapping(t_bytes32,t_struct(RoleData)1233_storage)"
      },
      {
        "astId": 1500,
        "contract": "contracts/vault-types/UniLiquidityManager/MultiPositionLiquidityManager.sol:MultiPositionLiquidityManager",
        "label": "__gap",
        "offset": 0,
        "slot": "152",
        "type": "t_array(t_uint256)49_storage"
      },
      {
        "astId": 11461,
        "contract": "contracts/vault-types/UniLiquidityManager/MultiPositionLiquidityManager.sol:MultiPositionLiquidityManager",
        "label": "vaultRegistry",
        "offset": 0,
        "slot": "201",
        "type": "t_address"
      },
      {
        "astId": 11464,
        "contract": "contracts/vault-types/UniLiquidityManager/MultiPositionLiquidityManager.sol:MultiPositionLiquidityManager",
        "label": "token0",
        "offset": 0,
        "slot": "202",
        "type": "t_contract(IERC20)684"
      },
      {
        "astId": 11466,
        "contract": "contracts/vault-types/UniLiquidityManager/MultiPositionLiquidityManager.sol:MultiPositionLiquidityManager",
        "label": "token1",
        "offset": 0,
        "slot": "203",
        "type": "t_contract(IERC20)684"
      },
      {
        "astId": 11469,
        "contract": "contracts/vault-types/UniLiquidityManager/MultiPositionLiquidityManager.sol:MultiPositionLiquidityManager",
        "label": "accruedSteerFees0",
        "offset": 0,
        "slot": "204",
        "type": "t_uint256"
      },
      {
        "astId": 11471,
        "contract": "contracts/vault-types/UniLiquidityManager/MultiPositionLiquidityManager.sol:MultiPositionLiquidityManager",
        "label": "accruedSteerFees1",
        "offset": 0,
        "slot": "205",
        "type": "t_uint256"
      },
      {
        "astId": 11474,
        "contract": "contracts/vault-types/UniLiquidityManager/MultiPositionLiquidityManager.sol:MultiPositionLiquidityManager",
        "label": "accruedStrategistFees0",
        "offset": 0,
        "slot": "206",
        "type": "t_uint256"
      },
      {
        "astId": 11476,
        "contract": "contracts/vault-types/UniLiquidityManager/MultiPositionLiquidityManager.sol:MultiPositionLiquidityManager",
        "label": "accruedStrategistFees1",
        "offset": 0,
        "slot": "207",
        "type": "t_uint256"
      },
      {
        "astId": 11479,
        "contract": "contracts/vault-types/UniLiquidityManager/MultiPositionLiquidityManager.sol:MultiPositionLiquidityManager",
        "label": "pool",
        "offset": 0,
        "slot": "208",
        "type": "t_contract(IUniswapV3Pool)3747"
      },
      {
        "astId": 11482,
        "contract": "contracts/vault-types/UniLiquidityManager/MultiPositionLiquidityManager.sol:MultiPositionLiquidityManager",
        "label": "maxTickChange",
        "offset": 20,
        "slot": "208",
        "type": "t_int24"
      },
      {
        "astId": 11485,
        "contract": "contracts/vault-types/UniLiquidityManager/MultiPositionLiquidityManager.sol:MultiPositionLiquidityManager",
        "label": "twapInterval",
        "offset": 23,
        "slot": "208",
        "type": "t_uint32"
      },
      {
        "astId": 12679,
        "contract": "contracts/vault-types/UniLiquidityManager/MultiPositionLiquidityManager.sol:MultiPositionLiquidityManager",
        "label": "gap",
        "offset": 0,
        "slot": "209",
        "type": "t_array(t_uint256)40_storage"
      },
      {
        "astId": 12694,
        "contract": "contracts/vault-types/UniLiquidityManager/MultiPositionLiquidityManager.sol:MultiPositionLiquidityManager",
        "label": "positions",
        "offset": 0,
        "slot": "249",
        "type": "t_struct(LiquidityPositions)12704_storage"
      }
    ],
    "types": {
      "t_address": {
        "encoding": "inplace",
        "label": "address",
        "numberOfBytes": "20"
      },
      "t_array(t_bytes32)dyn_storage": {
        "base": "t_bytes32",
        "encoding": "dynamic_array",
        "label": "bytes32[]",
        "numberOfBytes": "32"
      },
      "t_array(t_int24)dyn_storage": {
        "base": "t_int24",
        "encoding": "dynamic_array",
        "label": "int24[]",
        "numberOfBytes": "32"
      },
      "t_array(t_uint16)dyn_storage": {
        "base": "t_uint16",
        "encoding": "dynamic_array",
        "label": "uint16[]",
        "numberOfBytes": "32"
      },
      "t_array(t_uint256)40_storage": {
        "base": "t_uint256",
        "encoding": "inplace",
        "label": "uint256[40]",
        "numberOfBytes": "1280"
      },
      "t_array(t_uint256)44_storage": {
        "base": "t_uint256",
        "encoding": "inplace",
        "label": "uint256[44]",
        "numberOfBytes": "1408"
      },
      "t_array(t_uint256)49_storage": {
        "base": "t_uint256",
        "encoding": "inplace",
        "label": "uint256[49]",
        "numberOfBytes": "1568"
      },
      "t_array(t_uint256)50_storage": {
        "base": "t_uint256",
        "encoding": "inplace",
        "label": "uint256[50]",
        "numberOfBytes": "1600"
      },
      "t_bool": {
        "encoding": "inplace",
        "label": "bool",
        "numberOfBytes": "1"
      },
      "t_bytes32": {
        "encoding": "inplace",
        "label": "bytes32",
        "numberOfBytes": "32"
      },
      "t_contract(IERC20)684": {
        "encoding": "inplace",
        "label": "contract IERC20",
        "numberOfBytes": "20"
      },
      "t_contract(IUniswapV3Pool)3747": {
        "encoding": "inplace",
        "label": "contract IUniswapV3Pool",
        "numberOfBytes": "20"
      },
      "t_int24": {
        "encoding": "inplace",
        "label": "int24",
        "numberOfBytes": "3"
      },
      "t_mapping(t_address,t_mapping(t_address,t_uint256))": {
        "encoding": "mapping",
        "key": "t_address",
        "label": "mapping(address => mapping(address => uint256))",
        "numberOfBytes": "32",
        "value": "t_mapping(t_address,t_uint256)"
      },
      "t_mapping(t_address,t_uint256)": {
        "encoding": "mapping",
        "key": "t_address",
        "label": "mapping(address => uint256)",
        "numberOfBytes": "32",
        "value": "t_uint256"
      },
      "t_mapping(t_bytes32,t_struct(RoleData)1233_storage)": {
        "encoding": "mapping",
        "key": "t_bytes32",
        "label": "mapping(bytes32 => struct AccessControlUpgradeable.RoleData)",
        "numberOfBytes": "32",
        "value": "t_struct(RoleData)1233_storage"
      },
      "t_mapping(t_bytes32,t_uint256)": {
        "encoding": "mapping",
        "key": "t_bytes32",
        "label": "mapping(bytes32 => uint256)",
        "numberOfBytes": "32",
        "value": "t_uint256"
      },
      "t_string_storage": {
        "encoding": "bytes",
        "label": "string",
        "numberOfBytes": "32"
      },
      "t_struct(AddressSet)3226_storage": {
        "encoding": "inplace",
        "label": "struct EnumerableSetUpgradeable.AddressSet",
        "members": [
          {
            "astId": 3225,
            "contract": "contracts/vault-types/UniLiquidityManager/MultiPositionLiquidityManager.sol:MultiPositionLiquidityManager",
            "label": "_inner",
            "offset": 0,
            "slot": "0",
            "type": "t_struct(Set)2961_storage"
          }
        ],
        "numberOfBytes": "64"
      },
      "t_struct(LiquidityPositions)12704_storage": {
        "encoding": "inplace",
        "label": "struct MultiPositionLiquidityManager.LiquidityPositions",
        "members": [
          {
            "astId": 12697,
            "contract": "contracts/vault-types/UniLiquidityManager/MultiPositionLiquidityManager.sol:MultiPositionLiquidityManager",
            "label": "lowerTick",
            "offset": 0,
            "slot": "0",
            "type": "t_array(t_int24)dyn_storage"
          },
          {
            "astId": 12700,
            "contract": "contracts/vault-types/UniLiquidityManager/MultiPositionLiquidityManager.sol:MultiPositionLiquidityManager",
            "label": "upperTick",
            "offset": 0,
            "slot": "1",
            "type": "t_array(t_int24)dyn_storage"
          },
          {
            "astId": 12703,
            "contract": "contracts/vault-types/UniLiquidityManager/MultiPositionLiquidityManager.sol:MultiPositionLiquidityManager",
            "label": "relativeWeight",
            "offset": 0,
            "slot": "2",
            "type": "t_array(t_uint16)dyn_storage"
          }
        ],
        "numberOfBytes": "96"
      },
      "t_struct(RoleData)1233_storage": {
        "encoding": "inplace",
        "label": "struct AccessControlUpgradeable.RoleData",
        "members": [
          {
            "astId": 1230,
            "contract": "contracts/vault-types/UniLiquidityManager/MultiPositionLiquidityManager.sol:MultiPositionLiquidityManager",
            "label": "members",
            "offset": 0,
            "slot": "0",
            "type": "t_struct(AddressSet)3226_storage"
          },
          {
            "astId": 1232,
            "contract": "contracts/vault-types/UniLiquidityManager/MultiPositionLiquidityManager.sol:MultiPositionLiquidityManager",
            "label": "adminRole",
            "offset": 0,
            "slot": "2",
            "type": "t_bytes32"
          }
        ],
        "numberOfBytes": "96"
      },
      "t_struct(Set)2961_storage": {
        "encoding": "inplace",
        "label": "struct EnumerableSetUpgradeable.Set",
        "members": [
          {
            "astId": 2956,
            "contract": "contracts/vault-types/UniLiquidityManager/MultiPositionLiquidityManager.sol:MultiPositionLiquidityManager",
            "label": "_values",
            "offset": 0,
            "slot": "0",
            "type": "t_array(t_bytes32)dyn_storage"
          },
          {
            "astId": 2960,
            "contract": "contracts/vault-types/UniLiquidityManager/MultiPositionLiquidityManager.sol:MultiPositionLiquidityManager",
            "label": "_indexes",
            "offset": 0,
            "slot": "1",
            "type": "t_mapping(t_bytes32,t_uint256)"
          }
        ],
        "numberOfBytes": "64"
      },
      "t_uint16": {
        "encoding": "inplace",
        "label": "uint16",
        "numberOfBytes": "2"
      },
      "t_uint256": {
        "encoding": "inplace",
        "label": "uint256",
        "numberOfBytes": "32"
      },
      "t_uint32": {
        "encoding": "inplace",
        "label": "uint32",
        "numberOfBytes": "4"
      },
      "t_uint8": {
        "encoding": "inplace",
        "label": "uint8",
        "numberOfBytes": "1"
      }
    }
  }
}