{
  "address": "0xD3496B998A9841FB27b2f51eeFF8d1b46eecaB45",
  "abi": [
    {
      "inputs": [],
      "stateMutability": "nonpayable",
      "type": "constructor"
    },
    {
      "anonymous": false,
      "inputs": [
        {
          "indexed": true,
          "internalType": "bytes32",
          "name": "actionHash",
          "type": "bytes32"
        },
        {
          "indexed": false,
          "internalType": "address",
          "name": "from",
          "type": "address"
        },
        {
          "indexed": false,
          "internalType": "uint256",
          "name": "rewardPerAction",
          "type": "uint256"
        }
      ],
      "name": "ActionExecuted",
      "type": "event"
    },
    {
      "anonymous": false,
      "inputs": [
        {
          "indexed": true,
          "internalType": "bytes32",
          "name": "actionHash",
          "type": "bytes32"
        }
      ],
      "name": "ActionFailed",
      "type": "event"
    },
    {
      "anonymous": false,
      "inputs": [
        {
          "indexed": false,
          "internalType": "address",
          "name": "previousAdmin",
          "type": "address"
        },
        {
          "indexed": false,
          "internalType": "address",
          "name": "newAdmin",
          "type": "address"
        }
      ],
      "name": "AdminChanged",
      "type": "event"
    },
    {
      "anonymous": false,
      "inputs": [
        {
          "indexed": true,
          "internalType": "address",
          "name": "beacon",
          "type": "address"
        }
      ],
      "name": "BeaconUpgraded",
      "type": "event"
    },
    {
      "anonymous": false,
      "inputs": [
        {
          "indexed": true,
          "internalType": "address",
          "name": "previousOwner",
          "type": "address"
        },
        {
          "indexed": true,
          "internalType": "address",
          "name": "newOwner",
          "type": "address"
        }
      ],
      "name": "OwnershipTransferred",
      "type": "event"
    },
    {
      "anonymous": false,
      "inputs": [
        {
          "indexed": true,
          "internalType": "address",
          "name": "implementation",
          "type": "address"
        }
      ],
      "name": "Upgraded",
      "type": "event"
    },
    {
      "anonymous": false,
      "inputs": [
        {
          "indexed": true,
          "internalType": "bytes32",
          "name": "actionHash",
          "type": "bytes32"
        },
        {
          "indexed": true,
          "internalType": "address",
          "name": "from",
          "type": "address"
        },
        {
          "indexed": false,
          "internalType": "bool",
          "name": "approved",
          "type": "bool"
        }
      ],
      "name": "Vote",
      "type": "event"
    },
    {
      "inputs": [
        {
          "internalType": "address",
          "name": "targetAddress",
          "type": "address"
        },
        {
          "internalType": "bytes[]",
          "name": "calldatas",
          "type": "bytes[]"
        }
      ],
      "name": "_executeAction",
      "outputs": [],
      "stateMutability": "nonpayable",
      "type": "function"
    },
    {
      "inputs": [
        {
          "internalType": "bytes32",
          "name": "actionHash",
          "type": "bytes32"
        }
      ],
      "name": "actionApprovalStatus",
      "outputs": [
        {
          "internalType": "bool",
          "name": "",
          "type": "bool"
        }
      ],
      "stateMutability": "view",
      "type": "function"
    },
    {
      "inputs": [],
      "name": "actionThresholdPercent",
      "outputs": [
        {
          "internalType": "uint256",
          "name": "",
          "type": "uint256"
        }
      ],
      "stateMutability": "view",
      "type": "function"
    },
    {
      "inputs": [
        {
          "internalType": "bytes32",
          "name": "",
          "type": "bytes32"
        }
      ],
      "name": "actions",
      "outputs": [
        {
          "internalType": "enum IOrchestrator.ActionState",
          "name": "",
          "type": "uint8"
        }
      ],
      "stateMutability": "view",
      "type": "function"
    },
    {
      "inputs": [
        {
          "internalType": "address",
          "name": "targetAddress",
          "type": "address"
        },
        {
          "internalType": "uint256",
          "name": "jobEpoch",
          "type": "uint256"
        },
        {
          "internalType": "bytes[]",
          "name": "calldatas",
          "type": "bytes[]"
        },
        {
          "internalType": "uint256[]",
          "name": "timeIndependentLengths",
          "type": "uint256[]"
        },
        {
          "internalType": "bytes32",
          "name": "jobHash",
          "type": "bytes32"
        }
      ],
      "name": "executeAction",
      "outputs": [
        {
          "internalType": "enum IOrchestrator.ActionState",
          "name": "",
          "type": "uint8"
        }
      ],
      "stateMutability": "nonpayable",
      "type": "function"
    },
    {
      "inputs": [],
      "name": "gasVault",
      "outputs": [
        {
          "internalType": "address",
          "name": "",
          "type": "address"
        }
      ],
      "stateMutability": "view",
      "type": "function"
    },
    {
      "inputs": [
        {
          "internalType": "address",
          "name": "_keeperRegistry",
          "type": "address"
        },
        {
          "internalType": "uint256",
          "name": "_rewardPerAction",
          "type": "uint256"
        }
      ],
      "name": "initialize",
      "outputs": [],
      "stateMutability": "nonpayable",
      "type": "function"
    },
    {
      "inputs": [],
      "name": "keeperRegistry",
      "outputs": [
        {
          "internalType": "address",
          "name": "",
          "type": "address"
        }
      ],
      "stateMutability": "view",
      "type": "function"
    },
    {
      "inputs": [],
      "name": "owner",
      "outputs": [
        {
          "internalType": "address",
          "name": "",
          "type": "address"
        }
      ],
      "stateMutability": "view",
      "type": "function"
    },
    {
      "inputs": [],
      "name": "renounceOwnership",
      "outputs": [],
      "stateMutability": "nonpayable",
      "type": "function"
    },
    {
      "inputs": [],
      "name": "rewardPerAction",
      "outputs": [
        {
          "internalType": "uint256",
          "name": "",
          "type": "uint256"
        }
      ],
      "stateMutability": "view",
      "type": "function"
    },
    {
      "inputs": [
        {
          "internalType": "address",
          "name": "_gasVault",
          "type": "address"
        }
      ],
      "name": "setGasVault",
      "outputs": [],
      "stateMutability": "nonpayable",
      "type": "function"
    },
    {
      "inputs": [
        {
          "internalType": "uint256",
          "name": "_rewardPerAction",
          "type": "uint256"
        }
      ],
      "name": "setRewardPerAction",
      "outputs": [],
      "stateMutability": "nonpayable",
      "type": "function"
    },
    {
      "inputs": [
        {
          "internalType": "address",
          "name": "newOwner",
          "type": "address"
        }
      ],
      "name": "transferOwnership",
      "outputs": [],
      "stateMutability": "nonpayable",
      "type": "function"
    },
    {
      "inputs": [
        {
          "internalType": "address",
          "name": "newImplementation",
          "type": "address"
        }
      ],
      "name": "upgradeTo",
      "outputs": [],
      "stateMutability": "nonpayable",
      "type": "function"
    },
    {
      "inputs": [
        {
          "internalType": "address",
          "name": "newImplementation",
          "type": "address"
        },
        {
          "internalType": "bytes",
          "name": "data",
          "type": "bytes"
        }
      ],
      "name": "upgradeToAndCall",
      "outputs": [],
      "stateMutability": "payable",
      "type": "function"
    },
    {
      "inputs": [
        {
          "internalType": "bytes32",
          "name": "",
          "type": "bytes32"
        }
      ],
      "name": "voteBitmaps",
      "outputs": [
        {
          "internalType": "uint256",
          "name": "",
          "type": "uint256"
        }
      ],
      "stateMutability": "view",
      "type": "function"
    },
    {
      "inputs": [
        {
          "internalType": "bytes32",
          "name": "actionHash",
          "type": "bytes32"
        },
        {
          "internalType": "bool",
          "name": "vote",
          "type": "bool"
        }
      ],
      "name": "voteOnAction",
      "outputs": [],
      "stateMutability": "nonpayable",
      "type": "function"
    }
  ],
  "transactionHash": "0x0fd37d522a0db111f0071bc29264edd092973a7d29a8471ddb4713bfe0a189b7",
  "args": [],
  "numDeployments": 1,
  "solcInputHash": "de4128423a4eb3f1b17d57738cf295f0",
  "bytecode": "0x60a0604052306080523480156200001557600080fd5b50600054610100900460ff16620000335760005460ff16156200003d565b6200003d620000e2565b620000a55760405162461bcd60e51b815260206004820152602e60248201527f496e697469616c697a61626c653a20636f6e747261637420697320616c72656160448201526d191e481a5b9a5d1a585b1a5e995960921b606482015260840160405180910390fd5b600054610100900460ff16158015620000c8576000805461ffff19166101011790555b8015620000db576000805461ff00191690555b5062000106565b6000620000fa306200010060201b6200109e1760201c565b15905090565b3b151590565b608051611d316200013760003960008181610391015281816103da0152818161046301526104a30152611d316000f3fe6080604052600436106101095760003560e01c806397459e0d11610095578063cd6dc68711610064578063cd6dc687146102d6578063d41b730c146102f6578063e29a4c4214610316578063f2fde38b14610336578063f3abde321461035657600080fd5b806397459e0d146102615780639b39163614610281578063a6f4724f14610296578063b6d70dc6146102b657600080fd5b8063715018a6116100dc578063715018a61461019957806379bb69d3146101ae57806383e22774146101de5780638b235713146102165780638da5cb5b1461024357600080fd5b80630d98f7f81461010e5780633659cfe6146101375780634f1ef28614610159578063570e73021461016c575b600080fd5b34801561011a57600080fd5b5061012460cb5481565b6040519081526020015b60405180910390f35b34801561014357600080fd5b5061015761015236600461158a565b610386565b005b6101576101673660046115bb565b610458565b34801561017857600080fd5b5061012461018736600461167d565b60cd6020526000908152604090205481565b3480156101a557600080fd5b50610157610512565b3480156101ba57600080fd5b506101ce6101c936600461167d565b610548565b604051901515815260200161012e565b3480156101ea57600080fd5b5060ca546101fe906001600160a01b031681565b6040516001600160a01b03909116815260200161012e565b34801561022257600080fd5b506102366102313660046116e2565b6106ae565b60405161012e919061178b565b34801561024f57600080fd5b506033546001600160a01b03166101fe565b34801561026d57600080fd5b5061015761027c36600461158a565b610c22565b34801561028d57600080fd5b50610124603381565b3480156102a257600080fd5b5060c9546101fe906001600160a01b031681565b3480156102c257600080fd5b506101576102d13660046117b3565b610cb1565b3480156102e257600080fd5b506101576102f13660046117e8565b610d97565b34801561030257600080fd5b5061015761031136600461167d565b610ec5565b34801561032257600080fd5b50610157610331366004611812565b610ef4565b34801561034257600080fd5b5061015761035136600461158a565b611006565b34801561036257600080fd5b5061023661037136600461167d565b60cc6020526000908152604090205460ff1681565b306001600160a01b037f00000000000000000000000000000000000000000000000000000000000000001614156103d85760405162461bcd60e51b81526004016103cf90611865565b60405180910390fd5b7f00000000000000000000000000000000000000000000000000000000000000006001600160a01b031661040a6110a4565b6001600160a01b0316146104305760405162461bcd60e51b81526004016103cf906118b1565b610439816110d2565b60408051600080825260208201909252610455918391906110fc565b50565b306001600160a01b037f00000000000000000000000000000000000000000000000000000000000000001614156104a15760405162461bcd60e51b81526004016103cf90611865565b7f00000000000000000000000000000000000000000000000000000000000000006001600160a01b03166104d36110a4565b6001600160a01b0316146104f95760405162461bcd60e51b81526004016103cf906118b1565b610502826110d2565b61050e828260016110fc565b5050565b6033546001600160a01b0316331461053c5760405162461bcd60e51b81526004016103cf906118fd565b6105466000611247565b565b60008060ca60009054906101000a90046001600160a01b03166001600160a01b03166314b805536040518163ffffffff1660e01b8152600401602060405180830381865afa15801561059e573d6000803e3d6000fd5b505050506040513d601f19601f820116820180604052508101906105c29190611932565b6105cd906001611961565b600084815260cd602052604081205491925090819060015b848114610618576001811b92508183168314156106085761060584611979565b93505b61061181611979565b90506105e5565b5060ca546040805163eec7b73560e01b815290516000926001600160a01b03169163eec7b7359160048083019260209291908290030181865afa158015610663573d6000803e3d6000fd5b505050506040513d601f19601f820116820180604052508101906106879190611932565b9050603381610697866064611994565b6106a191906119b3565b1015979650505050505050565b600080836106ea57888888886040516020016106cd9493929190611a8f565b604051602081830303815290604052805190602001209050610844565b8360008167ffffffffffffffff811115610706576107066115a5565b60405190808252806020026020018201604052801561073957816020015b60608152602001906001900390816107245790505b50905060005b8281146107f75789898281811061075857610758611ac1565b905060200281019061076a9190611ad7565b6000908a8a8581811061077f5761077f611ac1565b905060200201359261079393929190611b1e565b8080601f01602080910402602001604051908101604052809392919081815260200183838082843760009201919091525050845185925084915081106107db576107db611ac1565b6020026020010181905250806107f090611979565b905061073f565b508a8a8260405180604001604052806002815260200161090960f21b8152506040516020016108299493929190611ba4565b60405160208183030381529060405280519060200120925050505b600081815260cc602052604081205460ff16600181111561086757610867611775565b146108b45760405162461bcd60e51b815260206004820152601760248201527f416374696f6e20616c726561647920657865637574656400000000000000000060448201526064016103cf565b6001600160a01b0389163014156109065760405162461bcd60e51b8152602060048201526016602482015275496e76616c696420746172676574206164647265737360501b60448201526064016103cf565b60c9546001600160a01b038a81169116141561095d5760405162461bcd60e51b8152602060048201526016602482015275496e76616c696420746172676574206164647265737360501b60448201526064016103cf565b600081815260cc60205260409020805460ff19166001908117909155610984908290610cb1565b600061098f82610548565b90508015610bc45760005a60c9546040516366d0460b60e11b81526001600160a01b038e811660048301529293506000923092169063cda08c1690602401602060405180830381865afa1580156109ea573d6000803e3d6000fd5b505050506040513d601f19601f82011682018060405250810190610a0e9190611932565b8d8c8c604051602401610a2393929190611c25565b60408051601f198184030181529181526020820180516001600160e01b031663714d262160e11b17905251610a589190611c4a565b60006040518083038160008787f1925050503d8060008114610a96576040519150601f19603f3d011682016040523d82523d6000602084013e610a9b565b606091505b505060c9549091506001600160a01b031663b6e1b3e98d848915610abf5789610ac1565b875b6040516001600160e01b031960e086901b1681526001600160a01b03909316600484015260248301919091526044820152606401600060405180830381600087803b158015610b0f57600080fd5b505af1158015610b23573d6000803e3d6000fd5b505050508015610b795760cb54604080513381526020810192909252805186927f11980f814067eacb54ed739e4c2e73e9f666a5bc08f112a49a45f9effcff747f92908290030190a26001945050505050610c17565b60405184907f2c78ac62862c73cca55d4f95dc9959a9ad6032e0de9b03f9dbd910d5f278946590600090a2505050600090815260cc60205260408120805460ff191690559050610c17565b60405162461bcd60e51b815260206004820152602260248201527f566f746573206c61636b696e673b207374617465207374696c6c2070656e64696044820152616e6760f01b60648201526084016103cf565b979650505050505050565b6033546001600160a01b03163314610c4c5760405162461bcd60e51b81526004016103cf906118fd565b6001600160a01b038116610c8f5760405162461bcd60e51b815260206004820152600a6024820152696164647265737328302960b01b60448201526064016103cf565b60c980546001600160a01b0319166001600160a01b0392909216919091179055565b60ca5460405162e9f27960e21b81523360048201526000916001600160a01b0316906303a7c9e490602401602060405180830381865afa158015610cf9573d6000803e3d6000fd5b505050506040513d601f19601f82011682018060405250810190610d1d9190611932565b90506001811b8215610d4257600084815260cd60205260409020805482179055610d58565b600084815260cd60205260409020805482191690555b6040518315158152339085907f944c79506d32f6865105a074d54edc0b6ed7d59ccad3903893134878345c23529060200160405180910390a350505050565b600054610100900460ff16610db25760005460ff1615610db6565b303b155b610e195760405162461bcd60e51b815260206004820152602e60248201527f496e697469616c697a61626c653a20636f6e747261637420697320616c72656160448201526d191e481a5b9a5d1a585b1a5e995960921b60648201526084016103cf565b600054610100900460ff16158015610e3b576000805461ffff19166101011790555b610e43611299565b610e4b6112d0565b6001600160a01b038316610e8e5760405162461bcd60e51b815260206004820152600a6024820152696164647265737328302960b01b60448201526064016103cf565b60ca80546001600160a01b0319166001600160a01b03851617905560cb8290558015610ec0576000805461ff00191690555b505050565b6033546001600160a01b03163314610eef5760405162461bcd60e51b81526004016103cf906118fd565b60cb55565b333014610f545760405162461bcd60e51b815260206004820152602860248201527f4f6e6c79204f7263686573747261746f722063616e2063616c6c207468697320604482015267333ab731ba34b7b760c11b60648201526084016103cf565b600081815b818114610ffe57856001600160a01b0316858583818110610f7c57610f7c611ac1565b9050602002810190610f8e9190611ad7565b604051610f9c929190611c66565b6000604051808303816000865af19150503d8060008114610fd9576040519150601f19603f3d011682016040523d82523d6000602084013e610fde565b606091505b50508093505082610fee57600080fd5b610ff781611979565b9050610f59565b505050505050565b6033546001600160a01b031633146110305760405162461bcd60e51b81526004016103cf906118fd565b6001600160a01b0381166110955760405162461bcd60e51b815260206004820152602660248201527f4f776e61626c653a206e6577206f776e657220697320746865207a65726f206160448201526564647265737360d01b60648201526084016103cf565b61045581611247565b3b151590565b7f360894a13ba1a3210667c828492db98dca3e2076cc3735a920a3ca505d382bbc546001600160a01b031690565b6033546001600160a01b031633146104555760405162461bcd60e51b81526004016103cf906118fd565b60006111066110a4565b905061111184611307565b60008351118061111e5750815b1561112f5761112d84846113ac565b505b7f4910fdfa16fed3260ed0e7147f7cc6da11a60208b5b9406d12a635614ffd9143805460ff1661124057805460ff191660011781556040516001600160a01b03831660248201526111ae90869060440160408051601f198184030181529190526020810180516001600160e01b0316631b2ce7f360e11b1790526113ac565b50805460ff191681556111bf6110a4565b6001600160a01b0316826001600160a01b0316146112375760405162461bcd60e51b815260206004820152602f60248201527f45524331393637557067726164653a207570677261646520627265616b73206660448201526e75727468657220757067726164657360881b60648201526084016103cf565b61124085611497565b5050505050565b603380546001600160a01b038381166001600160a01b0319831681179093556040519116919082907f8be0079c531659141344cd1fd0a4f28419497f9722a3daafe3b4186f6b6457e090600090a35050565b600054610100900460ff166112c05760405162461bcd60e51b81526004016103cf90611c76565b6112c86114d7565b6105466114fe565b600054610100900460ff166112f75760405162461bcd60e51b81526004016103cf90611c76565b6112ff6114d7565b6105466114d7565b803b61136b5760405162461bcd60e51b815260206004820152602d60248201527f455243313936373a206e657720696d706c656d656e746174696f6e206973206e60448201526c1bdd08184818dbdb9d1c9858dd609a1b60648201526084016103cf565b7f360894a13ba1a3210667c828492db98dca3e2076cc3735a920a3ca505d382bbc80546001600160a01b0319166001600160a01b0392909216919091179055565b6060823b61140b5760405162461bcd60e51b815260206004820152602660248201527f416464726573733a2064656c65676174652063616c6c20746f206e6f6e2d636f6044820152651b9d1c9858dd60d21b60648201526084016103cf565b600080846001600160a01b0316846040516114269190611c4a565b600060405180830381855af49150503d8060008114611461576040519150601f19603f3d011682016040523d82523d6000602084013e611466565b606091505b509150915061148e8282604051806060016040528060278152602001611cd56027913961152e565b95945050505050565b6114a081611307565b6040516001600160a01b038216907fbc7cd75a20ee27fd9adebab32041f755214dbc6bffa90cc0225b39da2e5c2d3b90600090a250565b600054610100900460ff166105465760405162461bcd60e51b81526004016103cf90611c76565b600054610100900460ff166115255760405162461bcd60e51b81526004016103cf90611c76565b61054633611247565b6060831561153d575081611567565b82511561154d5782518084602001fd5b8160405162461bcd60e51b81526004016103cf9190611cc1565b9392505050565b80356001600160a01b038116811461158557600080fd5b919050565b60006020828403121561159c57600080fd5b6115678261156e565b634e487b7160e01b600052604160045260246000fd5b600080604083850312156115ce57600080fd5b6115d78361156e565b9150602083013567ffffffffffffffff808211156115f457600080fd5b818501915085601f83011261160857600080fd5b81358181111561161a5761161a6115a5565b604051601f8201601f19908116603f01168101908382118183101715611642576116426115a5565b8160405282815288602084870101111561165b57600080fd5b8260208601602083013760006020848301015280955050505050509250929050565b60006020828403121561168f57600080fd5b5035919050565b60008083601f8401126116a857600080fd5b50813567ffffffffffffffff8111156116c057600080fd5b6020830191508360208260051b85010111156116db57600080fd5b9250929050565b600080600080600080600060a0888a0312156116fd57600080fd5b6117068861156e565b965060208801359550604088013567ffffffffffffffff8082111561172a57600080fd5b6117368b838c01611696565b909750955060608a013591508082111561174f57600080fd5b5061175c8a828b01611696565b989b979a50959894979596608090950135949350505050565b634e487b7160e01b600052602160045260246000fd5b60208101600283106117ad57634e487b7160e01b600052602160045260246000fd5b91905290565b600080604083850312156117c657600080fd5b82359150602083013580151581146117dd57600080fd5b809150509250929050565b600080604083850312156117fb57600080fd5b6118048361156e565b946020939093013593505050565b60008060006040848603121561182757600080fd5b6118308461156e565b9250602084013567ffffffffffffffff81111561184c57600080fd5b61185886828701611696565b9497909650939450505050565b6020808252602c908201527f46756e6374696f6e206d7573742062652063616c6c6564207468726f7567682060408201526b19195b1959d85d1958d85b1b60a21b606082015260800190565b6020808252602c908201527f46756e6374696f6e206d7573742062652063616c6c6564207468726f7567682060408201526b6163746976652070726f787960a01b606082015260800190565b6020808252818101527f4f776e61626c653a2063616c6c6572206973206e6f7420746865206f776e6572604082015260600190565b60006020828403121561194457600080fd5b5051919050565b634e487b7160e01b600052601160045260246000fd5b600082198211156119745761197461194b565b500190565b600060001982141561198d5761198d61194b565b5060010190565b60008160001904831182151516156119ae576119ae61194b565b500290565b6000826119d057634e487b7160e01b600052601260045260246000fd5b500490565b81835281816020850137506000828201602090810191909152601f909101601f19169091010190565b81835260006020808501808196508560051b810191508460005b87811015611a825782840389528135601e19883603018112611a3957600080fd5b8701803567ffffffffffffffff811115611a5257600080fd5b803603891315611a6157600080fd5b611a6e86828985016119d5565b9a87019a9550505090840190600101611a18565b5091979650505050505050565b60018060a01b0385168152836020820152606060408201526000611ab76060830184866119fe565b9695505050505050565b634e487b7160e01b600052603260045260246000fd5b6000808335601e19843603018112611aee57600080fd5b83018035915067ffffffffffffffff821115611b0957600080fd5b6020019150368190038213156116db57600080fd5b60008085851115611b2e57600080fd5b83861115611b3b57600080fd5b5050820193919092039150565b60005b83811015611b63578181015183820152602001611b4b565b83811115611b72576000848401525b50505050565b60008151808452611b90816020860160208601611b48565b601f01601f19169290920160200192915050565b60006080820160018060a01b0387168352602086818501526080604085015281865180845260a08601915060a08160051b870101935082880160005b82811015611c0e57609f19888703018452611bfc868351611b78565b95509284019290840190600101611be0565b50505050508281036060840152610c178185611b78565b6001600160a01b038416815260406020820181905260009061148e90830184866119fe565b60008251611c5c818460208701611b48565b9190910192915050565b8183823760009101908152919050565b6020808252602b908201527f496e697469616c697a61626c653a20636f6e7472616374206973206e6f74206960408201526a6e697469616c697a696e6760a81b606082015260800190565b6020815260006115676020830184611b7856fe416464726573733a206c6f772d6c6576656c2064656c65676174652063616c6c206661696c6564a2646970667358221220036cb09c1a958d88f386d635754936a072b2cd5100ce32ee4b8df61265784e3564736f6c634300080c0033",
  "devdoc": {
    "kind": "dev",
    "methods": {
      "actionApprovalStatus(bytes32)": {
        "details": "Returns true if an action with given `actionId` is approved by all existing members of the group. Its up to the contract creators to decide if this method should look at majority votes (based on ownership) or if it should ask consent of all the users irrespective of their ownerships."
      },
      "constructor": {
        "custom:oz-upgrades-unsafe-allow": "constructor"
      },
      "executeAction(address,uint256,bytes[],uint256[],bytes32)": {
        "details": "Executes the action referenced by the given `actionId` as long as it is approved actionThresholdPercent of group. The executeAction executes all methods as part of given action in an atomic way (either all should succeed or none should succeed). Once executed, the action should be set as executed (state=3) so that it cannot be executed again.",
        "params": {
          "calldatas": "is the COMPLETE calldata of each method to be called note that the hash is created using the sliced calldata, but here it must be complete or the method will revert.",
          "jobEpoch": "is the job epoch of this action.",
          "jobHash": "is the identifier for the job this action is related to. This is used for DynamicJobs to identify separate jobs to the subgraph.",
          "targetAddress": "is the address which will be receiving the action's calls.",
          "timeIndependentLengths": "--For each calldata, the number of bytes that is NOT time-sensitive. If no calldatas are time-sensitive, just pass an empty array."
        },
        "returns": {
          "_0": "actionState corresponding to post-execution action state. Pending if execution failed, Completed if execution succeeded."
        }
      },
      "initialize(address,uint256)": {
        "details": "initialize the Orchestrator",
        "params": {
          "_keeperRegistry": "address of the keeper registry",
          "_rewardPerAction": "is # of SteerToken to give to operator nodes for each completed action (currently unused)"
        }
      },
      "owner()": {
        "details": "Returns the address of the current owner."
      },
      "renounceOwnership()": {
        "details": "Leaves the contract without owner. It will not be possible to call `onlyOwner` functions anymore. Can only be called by the current owner. NOTE: Renouncing ownership will leave the contract without an owner, thereby removing any functionality that is only available to the owner."
      },
      "setGasVault(address)": {
        "details": "allows owner to set/update gas vault address. Mainly used to resolve mutual dependency."
      },
      "setRewardPerAction(uint256)": {
        "details": "set the reward given to operator nodes for their participation in a strategy calculation",
        "params": {
          "_rewardPerAction": "is amount of steer token to be earned as a reward, per participating operator node per action."
        }
      },
      "transferOwnership(address)": {
        "details": "Transfers ownership of the contract to a new account (`newOwner`). Can only be called by the current owner."
      },
      "upgradeTo(address)": {
        "details": "Upgrade the implementation of the proxy to `newImplementation`. Calls {_authorizeUpgrade}. Emits an {Upgraded} event."
      },
      "upgradeToAndCall(address,bytes)": {
        "details": "Upgrade the implementation of the proxy to `newImplementation`, and subsequently execute the function call encoded in `data`. Calls {_authorizeUpgrade}. Emits an {Upgraded} event."
      },
      "voteOnAction(bytes32,bool)": {
        "details": "vote (if you are a keeper) on a given action proposal",
        "params": {
          "actionHash": "is the hash of the action to be voted on",
          "vote": "is the vote to be cast. false: reject, true: approve. false only has an effect if the keeper previously voted true. It resets their vote to false."
        }
      }
    },
    "version": 1
  },
  "userdoc": {
    "kind": "user",
    "methods": {},
    "version": 1
  },
  "storageLayout": {
    "storage": [
      {
        "astId": 4834,
        "contract": "contracts/Orchestrator.sol:Orchestrator",
        "label": "_initialized",
        "offset": 0,
        "slot": "0",
        "type": "t_bool"
      },
      {
        "astId": 4837,
        "contract": "contracts/Orchestrator.sol:Orchestrator",
        "label": "_initializing",
        "offset": 1,
        "slot": "0",
        "type": "t_bool"
      },
      {
        "astId": 8682,
        "contract": "contracts/Orchestrator.sol:Orchestrator",
        "label": "__gap",
        "offset": 0,
        "slot": "1",
        "type": "t_array(t_uint256)50_storage"
      },
      {
        "astId": 420,
        "contract": "contracts/Orchestrator.sol:Orchestrator",
        "label": "_owner",
        "offset": 0,
        "slot": "51",
        "type": "t_address"
      },
      {
        "astId": 534,
        "contract": "contracts/Orchestrator.sol:Orchestrator",
        "label": "__gap",
        "offset": 0,
        "slot": "52",
        "type": "t_array(t_uint256)49_storage"
      },
      {
        "astId": 4816,
        "contract": "contracts/Orchestrator.sol:Orchestrator",
        "label": "__gap",
        "offset": 0,
        "slot": "101",
        "type": "t_array(t_uint256)50_storage"
      },
      {
        "astId": 5011,
        "contract": "contracts/Orchestrator.sol:Orchestrator",
        "label": "__gap",
        "offset": 0,
        "slot": "151",
        "type": "t_array(t_uint256)50_storage"
      },
      {
        "astId": 14153,
        "contract": "contracts/Orchestrator.sol:Orchestrator",
        "label": "gasVault",
        "offset": 0,
        "slot": "201",
        "type": "t_address"
      },
      {
        "astId": 14155,
        "contract": "contracts/Orchestrator.sol:Orchestrator",
        "label": "keeperRegistry",
        "offset": 0,
        "slot": "202",
        "type": "t_address"
      },
      {
        "astId": 14157,
        "contract": "contracts/Orchestrator.sol:Orchestrator",
        "label": "rewardPerAction",
        "offset": 0,
        "slot": "203",
        "type": "t_uint256"
      },
      {
        "astId": 14162,
        "contract": "contracts/Orchestrator.sol:Orchestrator",
        "label": "actions",
        "offset": 0,
        "slot": "204",
        "type": "t_mapping(t_bytes32,t_enum(ActionState)17771)"
      },
      {
        "astId": 14166,
        "contract": "contracts/Orchestrator.sol:Orchestrator",
        "label": "voteBitmaps",
        "offset": 0,
        "slot": "205",
        "type": "t_mapping(t_bytes32,t_uint256)"
      }
    ],
    "types": {
      "t_address": {
        "encoding": "inplace",
        "label": "address",
        "numberOfBytes": "20"
      },
      "t_array(t_uint256)49_storage": {
        "base": "t_uint256",
        "encoding": "inplace",
        "label": "uint256[49]",
        "numberOfBytes": "1568"
      },
      "t_array(t_uint256)50_storage": {
        "base": "t_uint256",
        "encoding": "inplace",
        "label": "uint256[50]",
        "numberOfBytes": "1600"
      },
      "t_bool": {
        "encoding": "inplace",
        "label": "bool",
        "numberOfBytes": "1"
      },
      "t_bytes32": {
        "encoding": "inplace",
        "label": "bytes32",
        "numberOfBytes": "32"
      },
      "t_enum(ActionState)17771": {
        "encoding": "inplace",
        "label": "enum IOrchestrator.ActionState",
        "numberOfBytes": "1"
      },
      "t_mapping(t_bytes32,t_enum(ActionState)17771)": {
        "encoding": "mapping",
        "key": "t_bytes32",
        "label": "mapping(bytes32 => enum IOrchestrator.ActionState)",
        "numberOfBytes": "32",
        "value": "t_enum(ActionState)17771"
      },
      "t_mapping(t_bytes32,t_uint256)": {
        "encoding": "mapping",
        "key": "t_bytes32",
        "label": "mapping(bytes32 => uint256)",
        "numberOfBytes": "32",
        "value": "t_uint256"
      },
      "t_uint256": {
        "encoding": "inplace",
        "label": "uint256",
        "numberOfBytes": "32"
      }
    }
  }
}