{
  "address": "0x795BF9303441ef0b1134220d9142A49d8212260C",
  "abi": [
    {
      "inputs": [],
      "stateMutability": "nonpayable",
      "type": "constructor"
    },
    {
      "anonymous": false,
      "inputs": [
        {
          "indexed": false,
          "internalType": "address",
          "name": "previousAdmin",
          "type": "address"
        },
        {
          "indexed": false,
          "internalType": "address",
          "name": "newAdmin",
          "type": "address"
        }
      ],
      "name": "AdminChanged",
      "type": "event"
    },
    {
      "anonymous": false,
      "inputs": [
        {
          "indexed": true,
          "internalType": "address",
          "name": "beacon",
          "type": "address"
        }
      ],
      "name": "BeaconUpgraded",
      "type": "event"
    },
    {
      "anonymous": false,
      "inputs": [
        {
          "indexed": true,
          "internalType": "address",
          "name": "previousOwner",
          "type": "address"
        },
        {
          "indexed": true,
          "internalType": "address",
          "name": "newOwner",
          "type": "address"
        }
      ],
      "name": "OwnershipTransferred",
      "type": "event"
    },
    {
      "anonymous": false,
      "inputs": [
        {
          "indexed": true,
          "internalType": "address",
          "name": "user",
          "type": "address"
        },
        {
          "indexed": false,
          "internalType": "uint256",
          "name": "poolId",
          "type": "uint256"
        },
        {
          "indexed": false,
          "internalType": "uint256",
          "name": "reward",
          "type": "uint256"
        }
      ],
      "name": "RewardPaid",
      "type": "event"
    },
    {
      "anonymous": false,
      "inputs": [
        {
          "indexed": false,
          "internalType": "address",
          "name": "depositor",
          "type": "address"
        },
        {
          "indexed": false,
          "internalType": "uint256",
          "name": "poolId",
          "type": "uint256"
        },
        {
          "indexed": false,
          "internalType": "uint256",
          "name": "amount",
          "type": "uint256"
        }
      ],
      "name": "RewardsDeposited",
      "type": "event"
    },
    {
      "anonymous": false,
      "inputs": [
        {
          "indexed": false,
          "internalType": "uint256",
          "name": "amount",
          "type": "uint256"
        },
        {
          "indexed": false,
          "internalType": "uint256",
          "name": "poolId",
          "type": "uint256"
        }
      ],
      "name": "RewardsWithdrawn",
      "type": "event"
    },
    {
      "anonymous": false,
      "inputs": [
        {
          "indexed": true,
          "internalType": "address",
          "name": "user",
          "type": "address"
        },
        {
          "indexed": false,
          "internalType": "uint256",
          "name": "amount",
          "type": "uint256"
        },
        {
          "indexed": false,
          "internalType": "uint256",
          "name": "poolId",
          "type": "uint256"
        }
      ],
      "name": "Staked",
      "type": "event"
    },
    {
      "anonymous": false,
      "inputs": [
        {
          "indexed": true,
          "internalType": "address",
          "name": "implementation",
          "type": "address"
        }
      ],
      "name": "Upgraded",
      "type": "event"
    },
    {
      "anonymous": false,
      "inputs": [
        {
          "indexed": true,
          "internalType": "address",
          "name": "user",
          "type": "address"
        },
        {
          "indexed": false,
          "internalType": "uint256",
          "name": "amount",
          "type": "uint256"
        },
        {
          "indexed": false,
          "internalType": "uint256",
          "name": "poolId",
          "type": "uint256"
        }
      ],
      "name": "Withdrawn",
      "type": "event"
    },
    {
      "inputs": [],
      "name": "PRECISION",
      "outputs": [
        {
          "internalType": "uint256",
          "name": "",
          "type": "uint256"
        }
      ],
      "stateMutability": "view",
      "type": "function"
    },
    {
      "inputs": [],
      "name": "RATE_PRECISION",
      "outputs": [
        {
          "internalType": "uint256",
          "name": "",
          "type": "uint256"
        }
      ],
      "stateMutability": "view",
      "type": "function"
    },
    {
      "inputs": [],
      "name": "SECONDS_IN_YEAR",
      "outputs": [
        {
          "internalType": "uint256",
          "name": "",
          "type": "uint256"
        }
      ],
      "stateMutability": "view",
      "type": "function"
    },
    {
      "inputs": [
        {
          "internalType": "uint256",
          "name": "poolId",
          "type": "uint256"
        }
      ],
      "name": "claimPendingRewards",
      "outputs": [],
      "stateMutability": "nonpayable",
      "type": "function"
    },
    {
      "inputs": [
        {
          "internalType": "address",
          "name": "stakingToken",
          "type": "address"
        },
        {
          "internalType": "address",
          "name": "rewardToken",
          "type": "address"
        },
        {
          "internalType": "uint256",
          "name": "rewardRate",
          "type": "uint256"
        },
        {
          "internalType": "uint256",
          "name": "start",
          "type": "uint256"
        },
        {
          "internalType": "uint256",
          "name": "end",
          "type": "uint256"
        }
      ],
      "name": "createPool",
      "outputs": [],
      "stateMutability": "nonpayable",
      "type": "function"
    },
    {
      "inputs": [
        {
          "internalType": "uint256",
          "name": "poolId",
          "type": "uint256"
        },
        {
          "internalType": "uint256",
          "name": "amount",
          "type": "uint256"
        }
      ],
      "name": "depositRewards",
      "outputs": [],
      "stateMutability": "nonpayable",
      "type": "function"
    },
    {
      "inputs": [
        {
          "internalType": "address",
          "name": "user",
          "type": "address"
        }
      ],
      "name": "getBalances",
      "outputs": [
        {
          "internalType": "uint256[]",
          "name": "",
          "type": "uint256[]"
        }
      ],
      "stateMutability": "view",
      "type": "function"
    },
    {
      "inputs": [
        {
          "internalType": "uint256",
          "name": "poolId",
          "type": "uint256"
        }
      ],
      "name": "getPool",
      "outputs": [
        {
          "components": [
            {
              "internalType": "address",
              "name": "stakingToken",
              "type": "address"
            },
            {
              "internalType": "address",
              "name": "rewardToken",
              "type": "address"
            },
            {
              "internalType": "uint256",
              "name": "rewardRate",
              "type": "uint256"
            },
            {
              "internalType": "uint256",
              "name": "totalAmount",
              "type": "uint256"
            },
            {
              "internalType": "uint256",
              "name": "start",
              "type": "uint256"
            },
            {
              "internalType": "uint256",
              "name": "end",
              "type": "uint256"
            }
          ],
          "internalType": "struct IStakingRewards.Pool",
          "name": "",
          "type": "tuple"
        }
      ],
      "stateMutability": "view",
      "type": "function"
    },
    {
      "inputs": [],
      "name": "getPools",
      "outputs": [
        {
          "components": [
            {
              "internalType": "address",
              "name": "stakingToken",
              "type": "address"
            },
            {
              "internalType": "address",
              "name": "rewardToken",
              "type": "address"
            },
            {
              "internalType": "uint256",
              "name": "rewardRate",
              "type": "uint256"
            },
            {
              "internalType": "uint256",
              "name": "totalAmount",
              "type": "uint256"
            },
            {
              "internalType": "uint256",
              "name": "start",
              "type": "uint256"
            },
            {
              "internalType": "uint256",
              "name": "end",
              "type": "uint256"
            }
          ],
          "internalType": "struct IStakingRewards.Pool[]",
          "name": "",
          "type": "tuple[]"
        },
        {
          "internalType": "string[]",
          "name": "",
          "type": "string[]"
        }
      ],
      "stateMutability": "view",
      "type": "function"
    },
    {
      "inputs": [
        {
          "internalType": "address",
          "name": "account",
          "type": "address"
        },
        {
          "internalType": "uint256",
          "name": "poolId",
          "type": "uint256"
        }
      ],
      "name": "getRewardsForAPool",
      "outputs": [
        {
          "internalType": "uint256",
          "name": "",
          "type": "uint256"
        }
      ],
      "stateMutability": "view",
      "type": "function"
    },
    {
      "inputs": [],
      "name": "initialize",
      "outputs": [],
      "stateMutability": "nonpayable",
      "type": "function"
    },
    {
      "inputs": [
        {
          "internalType": "uint256",
          "name": "",
          "type": "uint256"
        }
      ],
      "name": "isPaused",
      "outputs": [
        {
          "internalType": "bool",
          "name": "",
          "type": "bool"
        }
      ],
      "stateMutability": "view",
      "type": "function"
    },
    {
      "inputs": [],
      "name": "owner",
      "outputs": [
        {
          "internalType": "address",
          "name": "",
          "type": "address"
        }
      ],
      "stateMutability": "view",
      "type": "function"
    },
    {
      "inputs": [
        {
          "internalType": "address",
          "name": "",
          "type": "address"
        },
        {
          "internalType": "uint256",
          "name": "",
          "type": "uint256"
        }
      ],
      "name": "pendingRewards",
      "outputs": [
        {
          "internalType": "uint256",
          "name": "",
          "type": "uint256"
        }
      ],
      "stateMutability": "view",
      "type": "function"
    },
    {
      "inputs": [
        {
          "internalType": "uint256",
          "name": "",
          "type": "uint256"
        }
      ],
      "name": "pools",
      "outputs": [
        {
          "internalType": "address",
          "name": "stakingToken",
          "type": "address"
        },
        {
          "internalType": "address",
          "name": "rewardToken",
          "type": "address"
        },
        {
          "internalType": "uint256",
          "name": "rewardRate",
          "type": "uint256"
        },
        {
          "internalType": "uint256",
          "name": "totalAmount",
          "type": "uint256"
        },
        {
          "internalType": "uint256",
          "name": "start",
          "type": "uint256"
        },
        {
          "internalType": "uint256",
          "name": "end",
          "type": "uint256"
        }
      ],
      "stateMutability": "view",
      "type": "function"
    },
    {
      "inputs": [],
      "name": "renounceOwnership",
      "outputs": [],
      "stateMutability": "nonpayable",
      "type": "function"
    },
    {
      "inputs": [
        {
          "internalType": "uint256",
          "name": "poolId",
          "type": "uint256"
        },
        {
          "internalType": "bool",
          "name": "pause",
          "type": "bool"
        }
      ],
      "name": "setJobState",
      "outputs": [],
      "stateMutability": "nonpayable",
      "type": "function"
    },
    {
      "inputs": [
        {
          "internalType": "uint256",
          "name": "amount",
          "type": "uint256"
        },
        {
          "internalType": "uint256",
          "name": "poolId",
          "type": "uint256"
        }
      ],
      "name": "stake",
      "outputs": [],
      "stateMutability": "nonpayable",
      "type": "function"
    },
    {
      "inputs": [
        {
          "internalType": "address",
          "name": "user",
          "type": "address"
        },
        {
          "internalType": "uint256",
          "name": "amount",
          "type": "uint256"
        },
        {
          "internalType": "uint256",
          "name": "poolId",
          "type": "uint256"
        }
      ],
      "name": "stakeFor",
      "outputs": [],
      "stateMutability": "nonpayable",
      "type": "function"
    },
    {
      "inputs": [],
      "name": "totalPools",
      "outputs": [
        {
          "internalType": "uint256",
          "name": "",
          "type": "uint256"
        }
      ],
      "stateMutability": "view",
      "type": "function"
    },
    {
      "inputs": [
        {
          "internalType": "uint256",
          "name": "",
          "type": "uint256"
        }
      ],
      "name": "totalRewardsPerPool",
      "outputs": [
        {
          "internalType": "uint256",
          "name": "",
          "type": "uint256"
        }
      ],
      "stateMutability": "view",
      "type": "function"
    },
    {
      "inputs": [
        {
          "internalType": "address",
          "name": "newOwner",
          "type": "address"
        }
      ],
      "name": "transferOwnership",
      "outputs": [],
      "stateMutability": "nonpayable",
      "type": "function"
    },
    {
      "inputs": [
        {
          "internalType": "uint256",
          "name": "poolId",
          "type": "uint256"
        }
      ],
      "name": "unstake",
      "outputs": [],
      "stateMutability": "nonpayable",
      "type": "function"
    },
    {
      "inputs": [
        {
          "internalType": "address",
          "name": "newImplementation",
          "type": "address"
        }
      ],
      "name": "upgradeTo",
      "outputs": [],
      "stateMutability": "nonpayable",
      "type": "function"
    },
    {
      "inputs": [
        {
          "internalType": "address",
          "name": "newImplementation",
          "type": "address"
        },
        {
          "internalType": "bytes",
          "name": "data",
          "type": "bytes"
        }
      ],
      "name": "upgradeToAndCall",
      "outputs": [],
      "stateMutability": "payable",
      "type": "function"
    },
    {
      "inputs": [
        {
          "internalType": "uint256",
          "name": "",
          "type": "uint256"
        },
        {
          "internalType": "address",
          "name": "",
          "type": "address"
        }
      ],
      "name": "userInfoPerPool",
      "outputs": [
        {
          "internalType": "uint256",
          "name": "balance",
          "type": "uint256"
        },
        {
          "internalType": "uint256",
          "name": "lastRewarded",
          "type": "uint256"
        },
        {
          "internalType": "uint256",
          "name": "rewards",
          "type": "uint256"
        }
      ],
      "stateMutability": "view",
      "type": "function"
    },
    {
      "inputs": [
        {
          "internalType": "uint256",
          "name": "poolId",
          "type": "uint256"
        },
        {
          "internalType": "uint256",
          "name": "amount",
          "type": "uint256"
        },
        {
          "internalType": "address",
          "name": "receiver",
          "type": "address"
        }
      ],
      "name": "withdrawRewards",
      "outputs": [],
      "stateMutability": "nonpayable",
      "type": "function"
    }
  ],
  "transactionHash": "0x48e0d1c94d1c2cfeca0534856aaa0ffd602166e4f48b6f62e3be804e442fd4ed",
  "args": [],
  "numDeployments": 1,
  "solcInputHash": "412a8f2cb6c64662ec4ec37c56f333b9",
  "bytecode": "0x60a0604052306080523480156200001557600080fd5b50600054610100900460ff16620000335760005460ff16156200003d565b6200003d620000e2565b620000a55760405162461bcd60e51b815260206004820152602e60248201527f496e697469616c697a61626c653a20636f6e747261637420697320616c72656160448201526d191e481a5b9a5d1a585b1a5e995960921b606482015260840160405180910390fd5b600054610100900460ff16158015620000c8576000805461ffff19166101011790555b8015620000db576000805461ff00191690555b5062000106565b6000620000fa306200010060201b620012e21760201c565b15905090565b3b151590565b608051612643620001376000396000818161090701528181610947015281816109d00152610a1001526126436000f3fe60806040526004361061019c5760003560e01c8063715018a6116100ec578063ab3c7e521161008a578063bdf2a43c11610064578063bdf2a43c1461054b578063c84aae171461058b578063d68f265f146105b8578063f2fde38b146105d857600080fd5b8063ab3c7e5214610480578063ac4afa3814610496578063bdd071fb1461052b57600080fd5b80638129fc1c116100c65780638129fc1c1461040757806385ac165a1461041c5780638da5cb5b1461043c578063aaf5eb681461046457600080fd5b8063715018a6146103b2578063716f02c0146103c75780637b0472f0146103e757600080fd5b806358e9a815116101595780636099ecb2116101335780636099ecb2146102d5578063667832501461030d578063673a2a1f1461036f57806367c041e31461039257600080fd5b806358e9a815146102705780635dcc939114610290578063602ae8a8146102a857600080fd5b8063068bcd8d146101a157806308b1e6b9146101d75780632b3ba681146102055780632e17de781461021b5780633659cfe61461023d5780634f1ef2861461025d575b600080fd5b3480156101ad57600080fd5b506101c16101bc366004611ed5565b6105f8565b6040516101ce9190611f33565b60405180910390f35b3480156101e357600080fd5b506101f76101f2366004611f5d565b610665565b6040519081526020016101ce565b34801561021157600080fd5b506101f761271081565b34801561022757600080fd5b5061023b610236366004611ed5565b6107a5565b005b34801561024957600080fd5b5061023b610258366004611f87565b6108fc565b61023b61026b366004612011565b6109c5565b34801561027c57600080fd5b5061023b61028b3660046120a2565b610a7f565b34801561029c57600080fd5b506101f76301e1338081565b3480156102b457600080fd5b506101f76102c3366004611ed5565b60cc6020526000908152604090205481565b3480156102e157600080fd5b506101f76102f0366004611f5d565b60ce60209081526000928352604080842090915290825290205481565b34801561031957600080fd5b506103546103283660046120d5565b60cb60209081526000928352604080842090915290825290208054600182015460029092015490919083565b604080519384526020840192909252908201526060016101ce565b34801561037b57600080fd5b50610384610a8f565b6040516101ce929190612159565b34801561039e57600080fd5b5061023b6103ad366004612209565b610d34565b3480156103be57600080fd5b5061023b610d7e565b3480156103d357600080fd5b5061023b6103e2366004611ed5565b610db4565b3480156103f357600080fd5b5061023b610402366004612239565b610e17565b34801561041357600080fd5b5061023b610e22565b34801561042857600080fd5b5061023b61043736600461225b565b610eea565b34801561044857600080fd5b506033546040516001600160a01b0390911681526020016101ce565b34801561047057600080fd5b506101f7670de0b6b3a764000081565b34801561048c57600080fd5b506101f760ca5481565b3480156104a257600080fd5b506104f36104b1366004611ed5565b60c9602052600090815260409020805460018201546002830154600384015460048501546005909501546001600160a01b039485169593909416939192909186565b604080516001600160a01b039788168152969095166020870152938501929092526060840152608083015260a082015260c0016101ce565b34801561053757600080fd5b5061023b610546366004612239565b611062565b34801561055757600080fd5b5061057b610566366004611ed5565b60cd6020526000908152604090205460ff1681565b60405190151581526020016101ce565b34801561059757600080fd5b506105ab6105a6366004611f87565b6110ed565b6040516101ce91906122a8565b3480156105c457600080fd5b5061023b6105d33660046122ec565b61119e565b3480156105e457600080fd5b5061023b6105f3366004611f87565b61124a565b610600611e8d565b50600090815260c96020908152604091829020825160c08101845281546001600160a01b03908116825260018301541692810192909252600281015492820192909252600382015460608201526004820154608082015260059091015460a082015290565b600081815260c960209081526040808320815160c08101835281546001600160a01b0390811682526001808401548216838701526002808501548487015260038501546060808601919091526004860154608086015260059095015460a0850190815289895260cb8852868920938b16895292875285882086519586018752805486529182015496850196909652909401549282019290925291519091908390421115610717575060a082015161071a565b50425b6000670de0b6b3a76400006107356301e13380612710612337565b670de0b6b3a7640000866040015161074d9190612337565b602086015161075c9086612356565b6107669190612337565b610770919061236d565b845161077c9190612337565b610786919061236d565b9050826040015181610798919061238f565b9450505050505b92915050565b600081815260c960209081526040808320815160c08101835281546001600160a01b03908116825260018301541681850152600282015481840152600382015460608201526004820154608082015260059091015460a082015284845260cb83528184203385529092529091208054806108505760405162461bcd60e51b815260206004820152600760248201526630205374616b6560c81b60448201526064015b60405180910390fd5b600084815260c9602052604081206003018054839290610871908490612356565b909155505060a08301514211156108925761088d8484846112e8565b6108a5565b6000600183018190556002830181905582555b82516108bb906001600160a01b03163383611425565b604080518281526020810186905233917f92ccf450a286a957af52509bc1c9939d1a6a481783e142e41e2499f0bb66ebc6910160405180910390a250505050565b306001600160a01b037f00000000000000000000000000000000000000000000000000000000000000001614156109455760405162461bcd60e51b8152600401610847906123a7565b7f00000000000000000000000000000000000000000000000000000000000000006001600160a01b0316610977611488565b6001600160a01b03161461099d5760405162461bcd60e51b8152600401610847906123f3565b6109a6816114b6565b604080516000808252602082019092526109c2918391906114e0565b50565b306001600160a01b037f0000000000000000000000000000000000000000000000000000000000000000161415610a0e5760405162461bcd60e51b8152600401610847906123a7565b7f00000000000000000000000000000000000000000000000000000000000000006001600160a01b0316610a40611488565b6001600160a01b031614610a665760405162461bcd60e51b8152600401610847906123f3565b610a6f826114b6565b610a7b828260016114e0565b5050565b610a8a838383611624565b505050565b60ca54606090819060008167ffffffffffffffff811115610ab257610ab2611fa2565b604051908082528060200260200182016040528015610aeb57816020015b610ad8611e8d565b815260200190600190039081610ad05790505b50905060008267ffffffffffffffff811115610b0957610b09611fa2565b604051908082528060200260200182016040528015610b3c57816020015b6060815260200190600190039081610b275790505b50905060005b838114610d2957600081815260c96020908152604091829020825160c08101845281546001600160a01b03908116825260018301541692810192909252600281015492820192909252600382015460608201526004820154608082015260059091015460a08201528351849083908110610bbe57610bbe61243f565b60200260200101819052506000838281518110610bdd57610bdd61243f565b6020026020010151600001516001600160a01b03166395d89b416040518163ffffffff1660e01b8152600401600060405180830381865afa158015610c26573d6000803e3d6000fd5b505050506040513d6000823e601f3d908101601f19168201604052610c4e9190810190612455565b90506000848381518110610c6457610c6461243f565b6020026020010151602001516001600160a01b03166395d89b416040518163ffffffff1660e01b8152600401600060405180830381865afa158015610cad573d6000803e3d6000fd5b505050506040513d6000823e601f3d908101601f19168201604052610cd59190810190612455565b90508181604051602001610cea9291906124c3565b604051602081830303815290604052848481518110610d0b57610d0b61243f565b6020026020010181905250505080610d22906124ff565b9050610b42565b509094909350915050565b6033546001600160a01b03163314610d5e5760405162461bcd60e51b81526004016108479061251a565b600091825260cd6020526040909120805460ff1916911515919091179055565b6033546001600160a01b03163314610da85760405162461bcd60e51b81526004016108479061251a565b610db26000611867565b565b33600090815260ce60209081526040808320848452825280832080549084905560cc9092528220805491928392610dec908490612356565b9091555050600082815260c96020526040902060010154610a7b906001600160a01b03163383611425565b610a7b338383611624565b600054610100900460ff16610e3d5760005460ff1615610e41565b303b155b610ea45760405162461bcd60e51b815260206004820152602e60248201527f496e697469616c697a61626c653a20636f6e747261637420697320616c72656160448201526d191e481a5b9a5d1a585b1a5e995960921b6064820152608401610847565b600054610100900460ff16158015610ec6576000805461ffff19166101011790555b610ece6118b9565b610ed66118f0565b80156109c2576000805461ff001916905550565b6033546001600160a01b03163314610f145760405162461bcd60e51b81526004016108479061251a565b60ca54818310610f4f5760405162461bcd60e51b81526004016108479060208082526004908201526354494d4560e01b604082015260600190565b846001600160a01b0316866001600160a01b03161415610f9a5760405162461bcd60e51b81526004016108479060208082526004908201526353414d4560e01b604082015260600190565b6040805160c0810182526001600160a01b03808916825287166020820152908101610fc6866064612337565b8152600060208083018290526040808401889052606093840187905285835260c9825291829020845181546001600160a01b039182166001600160a01b0319918216178355928601516001808401805492909316919094161790559184015160028301559183015160038201556080830151600482015560a09092015160059092019190915561105790829061238f565b60ca55505050505050565b600082815260cc60205260408120805483929061108090849061238f565b909155505060408051338152602081018490529081018290527f6e8a19c7bcac2f8ca75d80a333a2cfffd851001c55ba805c58cc66c70d92bd749060600160405180910390a1600082815260c96020526040902060010154610a7b906001600160a01b0316333084611927565b60ca5460609060008167ffffffffffffffff81111561110e5761110e611fa2565b604051908082528060200260200182016040528015611137578160200160208202803683370190505b50905060005b82811461119657600081815260cb602090815260408083206001600160a01b0389168452909152902054825183908390811061117b5761117b61243f565b602090810291909101015261118f816124ff565b905061113d565b509392505050565b6033546001600160a01b031633146111c85760405162461bcd60e51b81526004016108479061251a565b600083815260cc6020526040812080548492906111e6908490612356565b909155505060408051838152602081018590527f630af8b49bb398089a74eacdb08106c528436090bdb35d7302152dc5117df9bd910160405180910390a1600083815260c96020526040902060010154610a8a906001600160a01b03168284611425565b6033546001600160a01b031633146112745760405162461bcd60e51b81526004016108479061251a565b6001600160a01b0381166112d95760405162461bcd60e51b815260206004820152602660248201527f4f776e61626c653a206e6577206f776e657220697320746865207a65726f206160448201526564647265737360d01b6064820152608401610847565b6109c281611867565b3b151590565b6112f28282611965565b6002810180546000918290558183556001830182905584825260cc602052604090912054818110611393576113278282612356565b600086815260cc602090815260409182902092909255805187815291820184905233917fd6f2c8500df5b44f11e9e48b91ff9f1b9d81bc496d55570c2b1b75bf65243f51910160405180910390a2602084015161138e906001600160a01b03163384611425565b61141e565b61139d8183612356565b33600081815260ce602090815260408083208a845282528083209490945560cc90528281205590517fd6f2c8500df5b44f11e9e48b91ff9f1b9d81bc496d55570c2b1b75bf65243f51906113fd9088908590918252602082015260400190565b60405180910390a2602084015161141e906001600160a01b03163383611425565b5050505050565b6040516001600160a01b038316602482015260448101829052610a8a90849063a9059cbb60e01b906064015b60408051601f198184030181529190526020810180516001600160e01b03166001600160e01b031990931692909217909152611a1a565b7f360894a13ba1a3210667c828492db98dca3e2076cc3735a920a3ca505d382bbc546001600160a01b031690565b6033546001600160a01b031633146109c25760405162461bcd60e51b81526004016108479061251a565b60006114ea611488565b90506114f584611aec565b6000835111806115025750815b15611513576115118484611b91565b505b7f4910fdfa16fed3260ed0e7147f7cc6da11a60208b5b9406d12a635614ffd9143805460ff1661141e57805460ff191660011781556040516001600160a01b038316602482015261159290869060440160408051601f198184030181529190526020810180516001600160e01b0316631b2ce7f360e11b179052611b91565b50805460ff191681556115a3611488565b6001600160a01b0316826001600160a01b03161461161b5760405162461bcd60e51b815260206004820152602f60248201527f45524331393637557067726164653a207570677261646520627265616b73206660448201526e75727468657220757067726164657360881b6064820152608401610847565b61141e85611c7c565b600082116116655760405162461bcd60e51b815260206004820152600e60248201526d043616e6e6f74207374616b6520360941b6044820152606401610847565b600081815260c960209081526040808320815160c08101835281546001600160a01b03908116825260018301548116828601526002830154828501526003830154606083015260048301546080830190815260059093015460a083015286865260cb85528386209089168652909352922091519091904210156117205760405162461bcd60e51b815260206004820152601360248201527214dd185ada5b99c81b9bdd081cdd185c9d1959606a1b6044820152606401610847565b600083815260cd602052604090205460ff16156117705760405162461bcd60e51b815260206004820152600e60248201526d14dd185ada5b99c814185d5cd95960921b6044820152606401610847565b8160a0015142106117bc5760405162461bcd60e51b815260206004820152601660248201527529ba30b5b4b733902832b934b7b21034b99037bb32b960511b6044820152606401610847565b6117c68282611965565b838160000160008282546117da919061238f565b9091555050600083815260c960205260408120600301805486929061180090849061238f565b9091555050815161181c906001600160a01b0316333087611927565b60408051858152602081018590526001600160a01b038716917f1449c6dd7851abc30abf37f57715f492010519147cc2652fbc38202c18a6ee90910160405180910390a25050505050565b603380546001600160a01b038381166001600160a01b0319831681179093556040519116919082907f8be0079c531659141344cd1fd0a4f28419497f9722a3daafe3b4186f6b6457e090600090a35050565b600054610100900460ff166118e05760405162461bcd60e51b81526004016108479061254f565b6118e8611cbc565b610db2611cbc565b600054610100900460ff166119175760405162461bcd60e51b81526004016108479061254f565b61191f611cbc565b610db2611ce3565b6040516001600160a01b038085166024830152831660448201526064810182905261195f9085906323b872dd60e01b90608401611451565b50505050565b60008260a0015142111561197e575060a0820151611981565b50425b815460008115611a0f57670de0b6b3a76400006119a46301e13380612710612337565b670de0b6b3a764000087604001516119bc9190612337565b60018701546119cb9087612356565b6119d59190612337565b6119df919061236d565b6119e99084612337565b6119f3919061236d565b905080846002016000828254611a09919061238f565b90915550505b505060019091015550565b6000611a6f826040518060400160405280602081526020017f5361666545524332303a206c6f772d6c6576656c2063616c6c206661696c6564815250856001600160a01b0316611d139092919063ffffffff16565b805190915015610a8a5780806020019051810190611a8d919061259a565b610a8a5760405162461bcd60e51b815260206004820152602a60248201527f5361666545524332303a204552433230206f7065726174696f6e20646964206e6044820152691bdd081cdd58d8d9595960b21b6064820152608401610847565b803b611b505760405162461bcd60e51b815260206004820152602d60248201527f455243313936373a206e657720696d706c656d656e746174696f6e206973206e60448201526c1bdd08184818dbdb9d1c9858dd609a1b6064820152608401610847565b7f360894a13ba1a3210667c828492db98dca3e2076cc3735a920a3ca505d382bbc80546001600160a01b0319166001600160a01b0392909216919091179055565b6060823b611bf05760405162461bcd60e51b815260206004820152602660248201527f416464726573733a2064656c65676174652063616c6c20746f206e6f6e2d636f6044820152651b9d1c9858dd60d21b6064820152608401610847565b600080846001600160a01b031684604051611c0b91906125b7565b600060405180830381855af49150503d8060008114611c46576040519150601f19603f3d011682016040523d82523d6000602084013e611c4b565b606091505b5091509150611c7382826040518060600160405280602781526020016125e760279139611d2c565b95945050505050565b611c8581611aec565b6040516001600160a01b038216907fbc7cd75a20ee27fd9adebab32041f755214dbc6bffa90cc0225b39da2e5c2d3b90600090a250565b600054610100900460ff16610db25760405162461bcd60e51b81526004016108479061254f565b600054610100900460ff16611d0a5760405162461bcd60e51b81526004016108479061254f565b610db233611867565b6060611d228484600085611d65565b90505b9392505050565b60608315611d3b575081611d25565b825115611d4b5782518084602001fd5b8160405162461bcd60e51b815260040161084791906125d3565b606082471015611dc65760405162461bcd60e51b815260206004820152602660248201527f416464726573733a20696e73756666696369656e742062616c616e636520666f6044820152651c8818d85b1b60d21b6064820152608401610847565b843b611e145760405162461bcd60e51b815260206004820152601d60248201527f416464726573733a2063616c6c20746f206e6f6e2d636f6e74726163740000006044820152606401610847565b600080866001600160a01b03168587604051611e3091906125b7565b60006040518083038185875af1925050503d8060008114611e6d576040519150601f19603f3d011682016040523d82523d6000602084013e611e72565b606091505b5091509150611e82828286611d2c565b979650505050505050565b6040518060c0016040528060006001600160a01b0316815260200160006001600160a01b03168152602001600081526020016000815260200160008152602001600081525090565b600060208284031215611ee757600080fd5b5035919050565b80516001600160a01b0390811683526020808301519091169083015260408082015190830152606080820151908301526080808201519083015260a090810151910152565b60c0810161079f8284611eee565b80356001600160a01b0381168114611f5857600080fd5b919050565b60008060408385031215611f7057600080fd5b611f7983611f41565b946020939093013593505050565b600060208284031215611f9957600080fd5b611d2582611f41565b634e487b7160e01b600052604160045260246000fd5b604051601f8201601f1916810167ffffffffffffffff81118282101715611fe157611fe1611fa2565b604052919050565b600067ffffffffffffffff82111561200357612003611fa2565b50601f01601f191660200190565b6000806040838503121561202457600080fd5b61202d83611f41565b9150602083013567ffffffffffffffff81111561204957600080fd5b8301601f8101851361205a57600080fd5b803561206d61206882611fe9565b611fb8565b81815286602083850101111561208257600080fd5b816020840160208301376000602083830101528093505050509250929050565b6000806000606084860312156120b757600080fd5b6120c084611f41565b95602085013595506040909401359392505050565b600080604083850312156120e857600080fd5b823591506120f860208401611f41565b90509250929050565b60005b8381101561211c578181015183820152602001612104565b8381111561195f5750506000910152565b60008151808452612145816020860160208601612101565b601f01601f19169290920160200192915050565b604080825283519082018190526000906020906060840190828701845b8281101561219c57612189848351611eee565b60c0939093019290840190600101612176565b50505083810382850152845180825282820190600581901b8301840187850160005b838110156121ec57601f198684030185526121da83835161212d565b948701949250908601906001016121be565b50909998505050505050505050565b80151581146109c257600080fd5b6000806040838503121561221c57600080fd5b82359150602083013561222e816121fb565b809150509250929050565b6000806040838503121561224c57600080fd5b50508035926020909101359150565b600080600080600060a0868803121561227357600080fd5b61227c86611f41565b945061228a60208701611f41565b94979496505050506040830135926060810135926080909101359150565b6020808252825182820181905260009190848201906040850190845b818110156122e0578351835292840192918401916001016122c4565b50909695505050505050565b60008060006060848603121561230157600080fd5b833592506020840135915061231860408501611f41565b90509250925092565b634e487b7160e01b600052601160045260246000fd5b600081600019048311821515161561235157612351612321565b500290565b60008282101561236857612368612321565b500390565b60008261238a57634e487b7160e01b600052601260045260246000fd5b500490565b600082198211156123a2576123a2612321565b500190565b6020808252602c908201527f46756e6374696f6e206d7573742062652063616c6c6564207468726f7567682060408201526b19195b1959d85d1958d85b1b60a21b606082015260800190565b6020808252602c908201527f46756e6374696f6e206d7573742062652063616c6c6564207468726f7567682060408201526b6163746976652070726f787960a01b606082015260800190565b634e487b7160e01b600052603260045260246000fd5b60006020828403121561246757600080fd5b815167ffffffffffffffff81111561247e57600080fd5b8201601f8101841361248f57600080fd5b805161249d61206882611fe9565b8181528560208385010111156124b257600080fd5b611c73826020830160208601612101565b600083516124d5818460208801612101565b602f60f81b90830190815283516124f3816001840160208801612101565b01600101949350505050565b600060001982141561251357612513612321565b5060010190565b6020808252818101527f4f776e61626c653a2063616c6c6572206973206e6f7420746865206f776e6572604082015260600190565b6020808252602b908201527f496e697469616c697a61626c653a20636f6e7472616374206973206e6f74206960408201526a6e697469616c697a696e6760a81b606082015260800190565b6000602082840312156125ac57600080fd5b8151611d25816121fb565b600082516125c9818460208701612101565b9190910192915050565b602081526000611d25602083018461212d56fe416464726573733a206c6f772d6c6576656c2064656c65676174652063616c6c206661696c6564a2646970667358221220406b47e08a8cc7d2e8fe253363446edb5af00ca4cdf03321c9fadbf820f6955664736f6c634300080c0033",
  "devdoc": {
    "author": "Steer Protocol",
    "details": "This contract is used to reward stakers for their staking time.",
    "kind": "dev",
    "methods": {
      "claimPendingRewards(uint256)": {
        "details": "To claim the pending rewards",
        "params": {
          "poolId": "The id of the pool from which the pending rewards should be claimed"
        }
      },
      "constructor": {
        "custom:oz-upgrades-unsafe-allow": "constructor"
      },
      "createPool(address,address,uint256,uint256,uint256)": {
        "details": "To create a staking pool",
        "params": {
          "end": "Ending time for the staking pool",
          "rewardRate": "Rate at which the rewards will be calculated yearly and then multiplied by 100",
          "rewardToken": "Address of the token that will be given as reward",
          "stakingToken": "Address of the token that will be staked",
          "start": "Start time of the staking pool"
        }
      },
      "depositRewards(uint256,uint256)": {
        "details": "To deposit reward tokens that will be given to the stakers.",
        "params": {
          "amount": "The value of tokens that should be added to give out as rewards.",
          "poolId": "The id of the pool in which rewards should be allocated"
        }
      },
      "getPool(uint256)": {
        "details": "To get the pool for given id",
        "returns": {
          "_0": "Pool which has the details for every pool"
        }
      },
      "getPools()": {
        "details": "To get the details for all pools",
        "returns": {
          "_0": "pools which has the details for every pool"
        }
      },
      "getRewardsForAPool(address,uint256)": {
        "details": "To get rewards for a particular address for a particular pool",
        "params": {
          "account": "The address of the account whose reward is to be fetched",
          "poolId": "The id of the pool from which rewards for the account needs to be fetched"
        }
      },
      "owner()": {
        "details": "Returns the address of the current owner."
      },
      "renounceOwnership()": {
        "details": "Leaves the contract without owner. It will not be possible to call `onlyOwner` functions anymore. Can only be called by the current owner. NOTE: Renouncing ownership will leave the contract without an owner, thereby removing any functionality that is only available to the owner."
      },
      "setJobState(uint256,bool)": {
        "details": "To pause or resume a particular staking pool",
        "params": {
          "pause": "The boolean where passing true means pause the pool              and passing false means resume the pool",
          "poolId": "The id of the staking pool that should be paused or resumed"
        }
      },
      "stake(uint256,uint256)": {
        "details": "To stake tokens",
        "params": {
          "amount": "The number of tokens to be staked.",
          "poolId": "The id of the pool in which tokens should be staked."
        }
      },
      "stakeFor(address,uint256,uint256)": {
        "details": "To stake tokens",
        "params": {
          "amount": "The number of tokens to be staked.",
          "poolId": "The id of the pool in which tokens should be staked.",
          "user": "The address that stake tokens for."
        }
      },
      "transferOwnership(address)": {
        "details": "Transfers ownership of the contract to a new account (`newOwner`). Can only be called by the current owner."
      },
      "unstake(uint256)": {
        "details": "To unstake staked tokens.",
        "params": {
          "poolId": "The id of pool from which the tokens whould be unstaked."
        }
      },
      "upgradeTo(address)": {
        "details": "Upgrade the implementation of the proxy to `newImplementation`. Calls {_authorizeUpgrade}. Emits an {Upgraded} event."
      },
      "upgradeToAndCall(address,bytes)": {
        "details": "Upgrade the implementation of the proxy to `newImplementation`, and subsequently execute the function call encoded in `data`. Calls {_authorizeUpgrade}. Emits an {Upgraded} event."
      },
      "withdrawRewards(uint256,uint256,address)": {
        "details": "To withdraw the extra rewards that remains on the contract      and can only be called by owner of this contract.",
        "params": {
          "amount": "The value of tokens that should be removed from the contract.",
          "poolId": "The id of the pool in which rewards should be withdrawn",
          "receiver": "The address where the withdrawn tokens should be sent"
        }
      }
    },
    "title": "Staking reward contract",
    "version": 1
  },
  "userdoc": {
    "kind": "user",
    "methods": {},
    "version": 1
  },
  "storageLayout": {
    "storage": [
      {
        "astId": 1030,
        "contract": "contracts/StakingRewards.sol:StakingRewards",
        "label": "_initialized",
        "offset": 0,
        "slot": "0",
        "type": "t_bool"
      },
      {
        "astId": 1033,
        "contract": "contracts/StakingRewards.sol:StakingRewards",
        "label": "_initializing",
        "offset": 1,
        "slot": "0",
        "type": "t_bool"
      },
      {
        "astId": 5274,
        "contract": "contracts/StakingRewards.sol:StakingRewards",
        "label": "__gap",
        "offset": 0,
        "slot": "1",
        "type": "t_array(t_uint256)50_storage"
      },
      {
        "astId": 420,
        "contract": "contracts/StakingRewards.sol:StakingRewards",
        "label": "_owner",
        "offset": 0,
        "slot": "51",
        "type": "t_address"
      },
      {
        "astId": 534,
        "contract": "contracts/StakingRewards.sol:StakingRewards",
        "label": "__gap",
        "offset": 0,
        "slot": "52",
        "type": "t_array(t_uint256)49_storage"
      },
      {
        "astId": 1012,
        "contract": "contracts/StakingRewards.sol:StakingRewards",
        "label": "__gap",
        "offset": 0,
        "slot": "101",
        "type": "t_array(t_uint256)50_storage"
      },
      {
        "astId": 1207,
        "contract": "contracts/StakingRewards.sol:StakingRewards",
        "label": "__gap",
        "offset": 0,
        "slot": "151",
        "type": "t_array(t_uint256)50_storage"
      },
      {
        "astId": 11779,
        "contract": "contracts/StakingRewards.sol:StakingRewards",
        "label": "pools",
        "offset": 0,
        "slot": "201",
        "type": "t_mapping(t_uint256,t_struct(Pool)15725_storage)"
      },
      {
        "astId": 11781,
        "contract": "contracts/StakingRewards.sol:StakingRewards",
        "label": "totalPools",
        "offset": 0,
        "slot": "202",
        "type": "t_uint256"
      },
      {
        "astId": 11788,
        "contract": "contracts/StakingRewards.sol:StakingRewards",
        "label": "userInfoPerPool",
        "offset": 0,
        "slot": "203",
        "type": "t_mapping(t_uint256,t_mapping(t_address,t_struct(UserInfo)15732_storage))"
      },
      {
        "astId": 11792,
        "contract": "contracts/StakingRewards.sol:StakingRewards",
        "label": "totalRewardsPerPool",
        "offset": 0,
        "slot": "204",
        "type": "t_mapping(t_uint256,t_uint256)"
      },
      {
        "astId": 11796,
        "contract": "contracts/StakingRewards.sol:StakingRewards",
        "label": "isPaused",
        "offset": 0,
        "slot": "205",
        "type": "t_mapping(t_uint256,t_bool)"
      },
      {
        "astId": 11802,
        "contract": "contracts/StakingRewards.sol:StakingRewards",
        "label": "pendingRewards",
        "offset": 0,
        "slot": "206",
        "type": "t_mapping(t_address,t_mapping(t_uint256,t_uint256))"
      }
    ],
    "types": {
      "t_address": {
        "encoding": "inplace",
        "label": "address",
        "numberOfBytes": "20"
      },
      "t_array(t_uint256)49_storage": {
        "base": "t_uint256",
        "encoding": "inplace",
        "label": "uint256[49]",
        "numberOfBytes": "1568"
      },
      "t_array(t_uint256)50_storage": {
        "base": "t_uint256",
        "encoding": "inplace",
        "label": "uint256[50]",
        "numberOfBytes": "1600"
      },
      "t_bool": {
        "encoding": "inplace",
        "label": "bool",
        "numberOfBytes": "1"
      },
      "t_mapping(t_address,t_mapping(t_uint256,t_uint256))": {
        "encoding": "mapping",
        "key": "t_address",
        "label": "mapping(address => mapping(uint256 => uint256))",
        "numberOfBytes": "32",
        "value": "t_mapping(t_uint256,t_uint256)"
      },
      "t_mapping(t_address,t_struct(UserInfo)15732_storage)": {
        "encoding": "mapping",
        "key": "t_address",
        "label": "mapping(address => struct IStakingRewards.UserInfo)",
        "numberOfBytes": "32",
        "value": "t_struct(UserInfo)15732_storage"
      },
      "t_mapping(t_uint256,t_bool)": {
        "encoding": "mapping",
        "key": "t_uint256",
        "label": "mapping(uint256 => bool)",
        "numberOfBytes": "32",
        "value": "t_bool"
      },
      "t_mapping(t_uint256,t_mapping(t_address,t_struct(UserInfo)15732_storage))": {
        "encoding": "mapping",
        "key": "t_uint256",
        "label": "mapping(uint256 => mapping(address => struct IStakingRewards.UserInfo))",
        "numberOfBytes": "32",
        "value": "t_mapping(t_address,t_struct(UserInfo)15732_storage)"
      },
      "t_mapping(t_uint256,t_struct(Pool)15725_storage)": {
        "encoding": "mapping",
        "key": "t_uint256",
        "label": "mapping(uint256 => struct IStakingRewards.Pool)",
        "numberOfBytes": "32",
        "value": "t_struct(Pool)15725_storage"
      },
      "t_mapping(t_uint256,t_uint256)": {
        "encoding": "mapping",
        "key": "t_uint256",
        "label": "mapping(uint256 => uint256)",
        "numberOfBytes": "32",
        "value": "t_uint256"
      },
      "t_struct(Pool)15725_storage": {
        "encoding": "inplace",
        "label": "struct IStakingRewards.Pool",
        "members": [
          {
            "astId": 15714,
            "contract": "contracts/StakingRewards.sol:StakingRewards",
            "label": "stakingToken",
            "offset": 0,
            "slot": "0",
            "type": "t_address"
          },
          {
            "astId": 15716,
            "contract": "contracts/StakingRewards.sol:StakingRewards",
            "label": "rewardToken",
            "offset": 0,
            "slot": "1",
            "type": "t_address"
          },
          {
            "astId": 15718,
            "contract": "contracts/StakingRewards.sol:StakingRewards",
            "label": "rewardRate",
            "offset": 0,
            "slot": "2",
            "type": "t_uint256"
          },
          {
            "astId": 15720,
            "contract": "contracts/StakingRewards.sol:StakingRewards",
            "label": "totalAmount",
            "offset": 0,
            "slot": "3",
            "type": "t_uint256"
          },
          {
            "astId": 15722,
            "contract": "contracts/StakingRewards.sol:StakingRewards",
            "label": "start",
            "offset": 0,
            "slot": "4",
            "type": "t_uint256"
          },
          {
            "astId": 15724,
            "contract": "contracts/StakingRewards.sol:StakingRewards",
            "label": "end",
            "offset": 0,
            "slot": "5",
            "type": "t_uint256"
          }
        ],
        "numberOfBytes": "192"
      },
      "t_struct(UserInfo)15732_storage": {
        "encoding": "inplace",
        "label": "struct IStakingRewards.UserInfo",
        "members": [
          {
            "astId": 15727,
            "contract": "contracts/StakingRewards.sol:StakingRewards",
            "label": "balance",
            "offset": 0,
            "slot": "0",
            "type": "t_uint256"
          },
          {
            "astId": 15729,
            "contract": "contracts/StakingRewards.sol:StakingRewards",
            "label": "lastRewarded",
            "offset": 0,
            "slot": "1",
            "type": "t_uint256"
          },
          {
            "astId": 15731,
            "contract": "contracts/StakingRewards.sol:StakingRewards",
            "label": "rewards",
            "offset": 0,
            "slot": "2",
            "type": "t_uint256"
          }
        ],
        "numberOfBytes": "96"
      },
      "t_uint256": {
        "encoding": "inplace",
        "label": "uint256",
        "numberOfBytes": "32"
      }
    }
  }
}