{
  "address": "0x57434b506F6b56d4Bb2Ae39925D9003e5715DDfD",
  "abi": [
    {
      "inputs": [],
      "stateMutability": "nonpayable",
      "type": "constructor"
    },
    {
      "anonymous": false,
      "inputs": [
        {
          "indexed": false,
          "internalType": "address",
          "name": "previousAdmin",
          "type": "address"
        },
        {
          "indexed": false,
          "internalType": "address",
          "name": "newAdmin",
          "type": "address"
        }
      ],
      "name": "AdminChanged",
      "type": "event"
    },
    {
      "anonymous": false,
      "inputs": [
        {
          "indexed": true,
          "internalType": "address",
          "name": "beacon",
          "type": "address"
        }
      ],
      "name": "BeaconUpgraded",
      "type": "event"
    },
    {
      "anonymous": false,
      "inputs": [
        {
          "indexed": true,
          "internalType": "address",
          "name": "previousOwner",
          "type": "address"
        },
        {
          "indexed": true,
          "internalType": "address",
          "name": "newOwner",
          "type": "address"
        }
      ],
      "name": "OwnershipTransferred",
      "type": "event"
    },
    {
      "anonymous": false,
      "inputs": [
        {
          "indexed": true,
          "internalType": "address",
          "name": "implementation",
          "type": "address"
        }
      ],
      "name": "Upgraded",
      "type": "event"
    },
    {
      "inputs": [
        {
          "components": [
            {
              "internalType": "uint256",
              "name": "tokenId",
              "type": "uint256"
            },
            {
              "internalType": "bytes",
              "name": "params",
              "type": "bytes"
            },
            {
              "internalType": "string",
              "name": "beaconName",
              "type": "string"
            },
            {
              "internalType": "address",
              "name": "vaultManager",
              "type": "address"
            },
            {
              "internalType": "string",
              "name": "payloadIpfs",
              "type": "string"
            }
          ],
          "internalType": "struct ISteerPeriphery.CVDGParams",
          "name": "cvdgParams",
          "type": "tuple"
        }
      ],
      "name": "createVaultAndDepositGas",
      "outputs": [
        {
          "internalType": "address",
          "name": "newVault",
          "type": "address"
        }
      ],
      "stateMutability": "payable",
      "type": "function"
    },
    {
      "inputs": [
        {
          "components": [
            {
              "internalType": "address",
              "name": "strategyCreator",
              "type": "address"
            },
            {
              "internalType": "string",
              "name": "name",
              "type": "string"
            },
            {
              "internalType": "string",
              "name": "execBundle",
              "type": "string"
            },
            {
              "internalType": "uint128",
              "name": "maxGasCost",
              "type": "uint128"
            },
            {
              "internalType": "uint128",
              "name": "maxGasPerAction",
              "type": "uint128"
            },
            {
              "internalType": "bytes",
              "name": "params",
              "type": "bytes"
            },
            {
              "internalType": "string",
              "name": "beaconName",
              "type": "string"
            },
            {
              "internalType": "address",
              "name": "vaultManager",
              "type": "address"
            },
            {
              "internalType": "string",
              "name": "payloadIpfs",
              "type": "string"
            }
          ],
          "internalType": "struct ISteerPeriphery.CVSParams",
          "name": "cvsParams",
          "type": "tuple"
        }
      ],
      "name": "createVaultAndStrategy",
      "outputs": [
        {
          "internalType": "uint256",
          "name": "tokenId",
          "type": "uint256"
        },
        {
          "internalType": "address",
          "name": "newVault",
          "type": "address"
        }
      ],
      "stateMutability": "payable",
      "type": "function"
    },
    {
      "inputs": [
        {
          "components": [
            {
              "internalType": "address",
              "name": "strategyCreator",
              "type": "address"
            },
            {
              "internalType": "string",
              "name": "name",
              "type": "string"
            },
            {
              "internalType": "string",
              "name": "execBundle",
              "type": "string"
            },
            {
              "internalType": "uint128",
              "name": "maxGasCost",
              "type": "uint128"
            },
            {
              "internalType": "uint128",
              "name": "maxGasPerAction",
              "type": "uint128"
            },
            {
              "internalType": "bytes",
              "name": "jobInitParams",
              "type": "bytes"
            },
            {
              "internalType": "string",
              "name": "beaconName",
              "type": "string"
            },
            {
              "internalType": "address",
              "name": "vaultManager",
              "type": "address"
            },
            {
              "internalType": "string",
              "name": "payloadIpfs",
              "type": "string"
            },
            {
              "internalType": "bytes[]",
              "name": "userProvidedData",
              "type": "bytes[]"
            },
            {
              "internalType": "address[]",
              "name": "targetAddresses",
              "type": "address[]"
            },
            {
              "internalType": "string",
              "name": "jobName",
              "type": "string"
            },
            {
              "internalType": "string",
              "name": "ipfsForJobDetails",
              "type": "string"
            }
          ],
          "internalType": "struct ISteerPeriphery.CVSRJParams",
          "name": "cvsrjParams",
          "type": "tuple"
        }
      ],
      "name": "createVaultStrategyAndRegisterJob",
      "outputs": [
        {
          "internalType": "uint256",
          "name": "tokenId",
          "type": "uint256"
        },
        {
          "internalType": "address",
          "name": "newVault",
          "type": "address"
        }
      ],
      "stateMutability": "payable",
      "type": "function"
    },
    {
      "inputs": [
        {
          "internalType": "address",
          "name": "vaultAddress",
          "type": "address"
        },
        {
          "internalType": "uint256",
          "name": "amount0Desired",
          "type": "uint256"
        },
        {
          "internalType": "uint256",
          "name": "amount1Desired",
          "type": "uint256"
        },
        {
          "internalType": "uint256",
          "name": "amount0Min",
          "type": "uint256"
        },
        {
          "internalType": "uint256",
          "name": "amount1Min",
          "type": "uint256"
        },
        {
          "internalType": "address",
          "name": "to",
          "type": "address"
        }
      ],
      "name": "deposit",
      "outputs": [],
      "stateMutability": "nonpayable",
      "type": "function"
    },
    {
      "inputs": [
        {
          "internalType": "address",
          "name": "vaultAddress",
          "type": "address"
        },
        {
          "internalType": "uint256",
          "name": "amount0Desired",
          "type": "uint256"
        },
        {
          "internalType": "uint256",
          "name": "amount1Desired",
          "type": "uint256"
        },
        {
          "internalType": "uint256",
          "name": "amount0Min",
          "type": "uint256"
        },
        {
          "internalType": "uint256",
          "name": "amount1Min",
          "type": "uint256"
        },
        {
          "internalType": "uint256",
          "name": "poolId",
          "type": "uint256"
        }
      ],
      "name": "depositAndStake",
      "outputs": [],
      "stateMutability": "nonpayable",
      "type": "function"
    },
    {
      "inputs": [
        {
          "internalType": "address",
          "name": "_strategyRegistry",
          "type": "address"
        },
        {
          "internalType": "address",
          "name": "_vaultRegistry",
          "type": "address"
        },
        {
          "internalType": "address",
          "name": "_gasVault",
          "type": "address"
        },
        {
          "internalType": "address",
          "name": "_stakingRewards",
          "type": "address"
        },
        {
          "internalType": "string",
          "name": "_nodeConfig",
          "type": "string"
        }
      ],
      "name": "initialize",
      "outputs": [],
      "stateMutability": "nonpayable",
      "type": "function"
    },
    {
      "inputs": [],
      "name": "nodeConfig",
      "outputs": [
        {
          "internalType": "string",
          "name": "",
          "type": "string"
        }
      ],
      "stateMutability": "view",
      "type": "function"
    },
    {
      "inputs": [],
      "name": "owner",
      "outputs": [
        {
          "internalType": "address",
          "name": "",
          "type": "address"
        }
      ],
      "stateMutability": "view",
      "type": "function"
    },
    {
      "inputs": [],
      "name": "renounceOwnership",
      "outputs": [],
      "stateMutability": "nonpayable",
      "type": "function"
    },
    {
      "inputs": [
        {
          "internalType": "string",
          "name": "_nodeConfig",
          "type": "string"
        }
      ],
      "name": "setNodeConfig",
      "outputs": [],
      "stateMutability": "nonpayable",
      "type": "function"
    },
    {
      "inputs": [
        {
          "internalType": "address",
          "name": "creator",
          "type": "address"
        }
      ],
      "name": "strategiesByCreator",
      "outputs": [
        {
          "components": [
            {
              "internalType": "uint256",
              "name": "id",
              "type": "uint256"
            },
            {
              "internalType": "string",
              "name": "name",
              "type": "string"
            },
            {
              "internalType": "address",
              "name": "owner",
              "type": "address"
            },
            {
              "internalType": "string",
              "name": "execBundle",
              "type": "string"
            },
            {
              "internalType": "uint128",
              "name": "maxGasCost",
              "type": "uint128"
            },
            {
              "internalType": "uint128",
              "name": "maxGasPerAction",
              "type": "uint128"
            }
          ],
          "internalType": "struct IStrategyRegistry.RegisteredStrategy[]",
          "name": "",
          "type": "tuple[]"
        }
      ],
      "stateMutability": "view",
      "type": "function"
    },
    {
      "inputs": [
        {
          "internalType": "address",
          "name": "newOwner",
          "type": "address"
        }
      ],
      "name": "transferOwnership",
      "outputs": [],
      "stateMutability": "nonpayable",
      "type": "function"
    },
    {
      "inputs": [
        {
          "internalType": "address",
          "name": "newImplementation",
          "type": "address"
        }
      ],
      "name": "upgradeTo",
      "outputs": [],
      "stateMutability": "nonpayable",
      "type": "function"
    },
    {
      "inputs": [
        {
          "internalType": "address",
          "name": "newImplementation",
          "type": "address"
        },
        {
          "internalType": "bytes",
          "name": "data",
          "type": "bytes"
        }
      ],
      "name": "upgradeToAndCall",
      "outputs": [],
      "stateMutability": "payable",
      "type": "function"
    },
    {
      "inputs": [
        {
          "internalType": "address",
          "name": "vault",
          "type": "address"
        }
      ],
      "name": "vaultBalancesByAddressWithFees",
      "outputs": [
        {
          "components": [
            {
              "internalType": "uint256",
              "name": "amountToken0",
              "type": "uint256"
            },
            {
              "internalType": "uint256",
              "name": "amountToken1",
              "type": "uint256"
            }
          ],
          "internalType": "struct IMultiPositionManager.VaultBalance",
          "name": "balances",
          "type": "tuple"
        }
      ],
      "stateMutability": "nonpayable",
      "type": "function"
    },
    {
      "inputs": [
        {
          "internalType": "address",
          "name": "vault",
          "type": "address"
        }
      ],
      "name": "vaultDetailsByAddress",
      "outputs": [
        {
          "components": [
            {
              "internalType": "string",
              "name": "vaultType",
              "type": "string"
            },
            {
              "internalType": "address",
              "name": "token0",
              "type": "address"
            },
            {
              "internalType": "address",
              "name": "token1",
              "type": "address"
            },
            {
              "internalType": "string",
              "name": "name",
              "type": "string"
            },
            {
              "internalType": "string",
              "name": "symbol",
              "type": "string"
            },
            {
              "internalType": "uint256",
              "name": "decimals",
              "type": "uint256"
            },
            {
              "internalType": "string",
              "name": "token0Name",
              "type": "string"
            },
            {
              "internalType": "string",
              "name": "token1Name",
              "type": "string"
            },
            {
              "internalType": "string",
              "name": "token0Symbol",
              "type": "string"
            },
            {
              "internalType": "string",
              "name": "token1Symbol",
              "type": "string"
            },
            {
              "internalType": "uint256",
              "name": "token0Decimals",
              "type": "uint256"
            },
            {
              "internalType": "uint256",
              "name": "token1Decimals",
              "type": "uint256"
            },
            {
              "internalType": "uint256",
              "name": "feeTier",
              "type": "uint256"
            },
            {
              "internalType": "uint256",
              "name": "totalLPTokensIssued",
              "type": "uint256"
            },
            {
              "internalType": "uint256",
              "name": "token0Balance",
              "type": "uint256"
            },
            {
              "internalType": "uint256",
              "name": "token1Balance",
              "type": "uint256"
            },
            {
              "internalType": "address",
              "name": "vaultCreator",
              "type": "address"
            }
          ],
          "internalType": "struct IMultiPositionManager.VaultDetails",
          "name": "details",
          "type": "tuple"
        }
      ],
      "stateMutability": "view",
      "type": "function"
    },
    {
      "inputs": [
        {
          "internalType": "uint256",
          "name": "strategyId",
          "type": "uint256"
        }
      ],
      "name": "vaultsByStrategy",
      "outputs": [
        {
          "components": [
            {
              "internalType": "enum IVaultRegistry.VaultState",
              "name": "state",
              "type": "uint8"
            },
            {
              "internalType": "uint256",
              "name": "tokenId",
              "type": "uint256"
            },
            {
              "internalType": "uint256",
              "name": "vaultID",
              "type": "uint256"
            },
            {
              "internalType": "string",
              "name": "payloadIpfs",
              "type": "string"
            },
            {
              "internalType": "address",
              "name": "vaultAddress",
              "type": "address"
            },
            {
              "internalType": "string",
              "name": "beaconName",
              "type": "string"
            }
          ],
          "internalType": "struct IVaultRegistry.VaultData[]",
          "name": "",
          "type": "tuple[]"
        }
      ],
      "stateMutability": "view",
      "type": "function"
    }
  ],
  "transactionHash": "0xcbfb7d0ce314230dd277db7204d322c0668b7d12bb3256dffccb7b3a42fff2df",
  "args": [],
  "numDeployments": 1,
  "solcInputHash": "de4128423a4eb3f1b17d57738cf295f0",
  "bytecode": "0x60a0604052306080523480156200001557600080fd5b50600054610100900460ff16620000335760005460ff16156200003d565b6200003d620000e2565b620000a55760405162461bcd60e51b815260206004820152602e60248201527f496e697469616c697a61626c653a20636f6e747261637420697320616c72656160448201526d191e481a5b9a5d1a585b1a5e995960921b606482015260840160405180910390fd5b600054610100900460ff16158015620000c8576000805461ffff19166101011790555b8015620000db576000805461ff00191690555b5062000106565b6000620000fa306200010060201b62001c0f1760201c565b15905090565b3b151590565b6080516139b46200013760003960008181610498015281816104d801528181610dbc0152610dfc01526139b46000f3fe6080604052600436106100fe5760003560e01c80638da5cb5b11610095578063c934b34111610064578063c934b34114610298578063d3007526146102d3578063da9807de146102f5578063e93acea414610322578063f2fde38b1461034257600080fd5b80638da5cb5b1461022057806392af41bd146102525780639326337414610265578063a8efdf4f1461028557600080fd5b80636505e65e116100d15780636505e65e1461018e578063715018a6146101ae5780637baa67c0146101c35780638b471808146101f057600080fd5b80632fb3b361146101035780633659cfe6146101255780634d593245146101455780634f1ef2861461017b575b600080fd5b34801561010f57600080fd5b5061012361011e3660046129b0565b610362565b005b34801561013157600080fd5b50610123610140366004612a6b565b61048d565b34801561015157600080fd5b50610165610160366004612a6b565b610556565b6040516101729190612ae0565b60405180910390f35b610123610189366004612d2d565b610db1565b34801561019a57600080fd5b506101236101a9366004612d90565b610e6b565b3480156101ba57600080fd5b50610123610e79565b3480156101cf57600080fd5b506101e36101de366004612a6b565b610eaf565b6040516101729190612dee565b6102036101fe366004612eb8565b6110f9565b604080519283526001600160a01b03909116602083015201610172565b34801561022c57600080fd5b506033546001600160a01b03165b6040516001600160a01b039091168152602001610172565b61023a610260366004612ef3565b611376565b34801561027157600080fd5b50610123610280366004612f2d565b611491565b610203610293366004612f79565b61165d565b3480156102a457600080fd5b506102b86102b3366004612a6b565b61183b565b60408051825181526020928301519281019290925201610172565b3480156102df57600080fd5b506102e8611926565b6040516101729190612fb4565b34801561030157600080fd5b50610315610310366004612fc7565b6119b4565b6040516101729190612fe0565b34801561032e57600080fd5b5061012361033d3660046130c1565b611b3a565b34801561034e57600080fd5b5061012361035d366004612a6b565b611b77565b600054610100900460ff1661037d5760005460ff1615610381565b303b155b6103e95760405162461bcd60e51b815260206004820152602e60248201527f496e697469616c697a61626c653a20636f6e747261637420697320616c72656160448201526d191e481a5b9a5d1a585b1a5e995960921b60648201526084015b60405180910390fd5b600054610100900460ff1615801561040b576000805461ffff19166101011790555b610413611c15565b61041b611c4c565b60c980546001600160a01b03808a166001600160a01b03199283161790925560ca805489841690831617905560cc805488841690831617905560cb80549287169290911691909117905561047160cd848461284e565b508015610484576000805461ff00191690555b50505050505050565b306001600160a01b037f00000000000000000000000000000000000000000000000000000000000000001614156104d65760405162461bcd60e51b81526004016103e090613109565b7f00000000000000000000000000000000000000000000000000000000000000006001600160a01b0316610508611c83565b6001600160a01b03161461052e5760405162461bcd60e51b81526004016103e090613155565b61053781611cb1565b6040805160008082526020820190925261055391839190611cdb565b50565b6105f86040518061022001604052806060815260200160006001600160a01b0316815260200160006001600160a01b031681526020016060815260200160608152602001600081526020016060815260200160608152602001606081526020016060815260200160008152602001600081526020016000815260200160008152602001600081526020016000815260200160006001600160a01b031681525090565b60008290506000816001600160a01b0316630dfe16816040518163ffffffff1660e01b8152600401602060405180830381865afa15801561063d573d6000803e3d6000fd5b505050506040513d601f19601f8201168201806040525081019061066191906131b1565b90506000826001600160a01b031663d21220a76040518163ffffffff1660e01b8152600401602060405180830381865afa1580156106a3573d6000803e3d6000fd5b505050506040513d601f19601f820116820180604052508101906106c791906131b1565b9050600080846001600160a01b031663c4a7761e6040518163ffffffff1660e01b81526004016040805180830381865afa158015610709573d6000803e3d6000fd5b505050506040513d601f19601f8201168201806040525081019061072d91906131ce565b6040805161022081019182905260ca546321bbc1eb60e11b9092526001600160a01b038b8116610224830152939550919350909182911663437783d66102448301600060405180830381865afa15801561078b573d6000803e3d6000fd5b505050506040513d6000823e601f3d908101601f191682016040526107b39190810190613237565b8152602001866001600160a01b0316630dfe16816040518163ffffffff1660e01b8152600401602060405180830381865afa1580156107f6573d6000803e3d6000fd5b505050506040513d601f19601f8201168201806040525081019061081a91906131b1565b6001600160a01b03168152602001866001600160a01b031663d21220a76040518163ffffffff1660e01b8152600401602060405180830381865afa158015610866573d6000803e3d6000fd5b505050506040513d601f19601f8201168201806040525081019061088a91906131b1565b6001600160a01b03168152602001886001600160a01b03166306fdde036040518163ffffffff1660e01b8152600401600060405180830381865afa1580156108d6573d6000803e3d6000fd5b505050506040513d6000823e601f3d908101601f191682016040526108fe9190810190613237565b8152602001886001600160a01b03166395d89b416040518163ffffffff1660e01b8152600401600060405180830381865afa158015610941573d6000803e3d6000fd5b505050506040513d6000823e601f3d908101601f191682016040526109699190810190613237565b8152602001886001600160a01b031663313ce5676040518163ffffffff1660e01b8152600401602060405180830381865afa1580156109ac573d6000803e3d6000fd5b505050506040513d601f19601f820116820180604052508101906109d0919061326b565b60ff168152602001856001600160a01b03166306fdde036040518163ffffffff1660e01b8152600401600060405180830381865afa158015610a16573d6000803e3d6000fd5b505050506040513d6000823e601f3d908101601f19168201604052610a3e9190810190613237565b8152602001846001600160a01b03166306fdde036040518163ffffffff1660e01b8152600401600060405180830381865afa158015610a81573d6000803e3d6000fd5b505050506040513d6000823e601f3d908101601f19168201604052610aa99190810190613237565b8152602001856001600160a01b03166395d89b416040518163ffffffff1660e01b8152600401600060405180830381865afa158015610aec573d6000803e3d6000fd5b505050506040513d6000823e601f3d908101601f19168201604052610b149190810190613237565b8152602001846001600160a01b03166395d89b416040518163ffffffff1660e01b8152600401600060405180830381865afa158015610b57573d6000803e3d6000fd5b505050506040513d6000823e601f3d908101601f19168201604052610b7f9190810190613237565b8152602001856001600160a01b031663313ce5676040518163ffffffff1660e01b8152600401602060405180830381865afa158015610bc2573d6000803e3d6000fd5b505050506040513d601f19601f82011682018060405250810190610be6919061326b565b60ff168152602001846001600160a01b031663313ce5676040518163ffffffff1660e01b8152600401602060405180830381865afa158015610c2c573d6000803e3d6000fd5b505050506040513d601f19601f82011682018060405250810190610c50919061326b565b60ff168152602001866001600160a01b03166316f0115b6040518163ffffffff1660e01b8152600401602060405180830381865afa158015610c96573d6000803e3d6000fd5b505050506040513d601f19601f82011682018060405250810190610cba91906131b1565b6001600160a01b031663ddca3f436040518163ffffffff1660e01b8152600401602060405180830381865afa158015610cf7573d6000803e3d6000fd5b505050506040513d601f19601f82011682018060405250810190610d1b919061328e565b62ffffff168152602001866001600160a01b03166318160ddd6040518163ffffffff1660e01b8152600401602060405180830381865afa158015610d63573d6000803e3d6000fd5b505050506040513d601f19601f82011682018060405250810190610d8791906132b3565b8152602001838152602001828152602001886001600160a01b031681525095505050505050919050565b306001600160a01b037f0000000000000000000000000000000000000000000000000000000000000000161415610dfa5760405162461bcd60e51b81526004016103e090613109565b7f00000000000000000000000000000000000000000000000000000000000000006001600160a01b0316610e2c611c83565b6001600160a01b031614610e525760405162461bcd60e51b81526004016103e090613155565b610e5b82611cb1565b610e6782826001611cdb565b5050565b610484868686868686611e26565b6033546001600160a01b03163314610ea35760405162461bcd60e51b81526004016103e0906132cc565b610ead60006122de565b565b60c9546040516370a0823160e01b81526001600160a01b0383811660048301526060926000929116906370a0823190602401602060405180830381865afa158015610efe573d6000803e3d6000fd5b505050506040513d601f19601f82011682018060405250810190610f2291906132b3565b90506000816001600160401b03811115610f3e57610f3e612c5a565b604051908082528060200260200182016040528015610fc357816020015b610fb06040518060c00160405280600081526020016060815260200160006001600160a01b031681526020016060815260200160006001600160801b0316815260200160006001600160801b031681525090565b815260200190600190039081610f5c5790505b5090506000805b8381146110ef5760c954604051632f745c5960e01b81526001600160a01b0388811660048301526024820184905290911690632f745c5990604401602060405180830381865afa158015611022573d6000803e3d6000fd5b505050506040513d601f19601f8201168201806040525081019061104691906132b3565b60c95460405163f1eb1a2b60e01b8152600481018390529193506000916001600160a01b039091169063f1eb1a2b90602401600060405180830381865afa158015611095573d6000803e3d6000fd5b505050506040513d6000823e601f3d908101601f191682016040526110bd9190810190613321565b9050808483815181106110d2576110d26133ee565b602002602001018190525050806110e89061341a565b9050610fca565b5090949350505050565b60c95460009081906001600160a01b031663125c424061111c6020860186612a6b565b6111296020870187613435565b6111366040890189613435565b61114660808b0160608c01613482565b61115660a08c0160808d01613482565b6040518863ffffffff1660e01b815260040161117897969594939291906134c8565b6020604051808303816000875af1158015611197573d6000803e3d6000fd5b505050506040513d601f19601f820116820180604052508101906111bb91906132b3565b60ca549092506001600160a01b031663456b79c76111dc60a0860186613435565b856111ea60c0890189613435565b6111fb6101008b0160e08c01612a6b565b6112096101008c018c613435565b6040518963ffffffff1660e01b815260040161122c989796959493929190613528565b6020604051808303816000875af115801561124b573d6000803e3d6000fd5b505050506040513d601f19601f8201168201806040525081019061126f91906131b1565b60cc5460405163f340fa0160e01b81526001600160a01b03808416600483015292935091169063f340fa019034906024016000604051808303818588803b1580156112b957600080fd5b505af11580156112cd573d6000803e3d6000fd5b5050505050806001600160a01b031663e489cc56848061012001906112f29190613588565b611300610140880188613588565b61130e6101608a018a613435565b61131c6101808c018c613435565b6040518963ffffffff1660e01b815260040161133f98979695949392919061361a565b600060405180830381600087803b15801561135957600080fd5b505af115801561136d573d6000803e3d6000fd5b50505050915091565b60ca546000906001600160a01b031663456b79c76113976020850185613435565b85356113a66040880188613435565b6113b660808a0160608b01612a6b565b6113c360808b018b613435565b6040518963ffffffff1660e01b81526004016113e6989796959493929190613528565b6020604051808303816000875af1158015611405573d6000803e3d6000fd5b505050506040513d601f19601f8201168201806040525081019061142991906131b1565b60cc5460405163f340fa0160e01b81526001600160a01b03808416600483015292935091169063f340fa019034906024016000604051808303818588803b15801561147357600080fd5b505af1158015611487573d6000803e3d6000fd5b5050505050919050565b6001600160a01b0386161580159061151f575060cb5460405163068bcd8d60e01b8152600481018390526001600160a01b0388811692169063068bcd8d9060240160c060405180830381865afa1580156114ef573d6000803e3d6000fd5b505050506040513d601f19601f8201168201806040525081019061151391906136ee565b516001600160a01b0316145b61155f5760405162461bcd60e51b8152602060048201526011602482015270125b98dbdc9c9958dd081c1bdbdb081a59607a1b60448201526064016103e0565b600061156f878787878730611e26565b60cb5460405163095ea7b360e01b81526001600160a01b0391821660048201526024810183905291925088169063095ea7b3906044016020604051808303816000875af11580156115c4573d6000803e3d6000fd5b505050506040513d601f19601f820116820180604052508101906115e89190613779565b5060cb546040516358e9a81560e01b815233600482015260248101839052604481018490526001600160a01b03909116906358e9a81590606401600060405180830381600087803b15801561163c57600080fd5b505af1158015611650573d6000803e3d6000fd5b5050505050505050505050565b60c95460009081906001600160a01b031663125c42406116806020860186612a6b565b61168d6020870187613435565b61169a6040890189613435565b6116aa60808b0160608c01613482565b6116ba60a08c0160808d01613482565b6040518863ffffffff1660e01b81526004016116dc97969594939291906134c8565b6020604051808303816000875af11580156116fb573d6000803e3d6000fd5b505050506040513d601f19601f8201168201806040525081019061171f91906132b3565b60ca549092506001600160a01b031663456b79c761174060a0860186613435565b8561174e60c0890189613435565b61175f6101008b0160e08c01612a6b565b61176d6101008c018c613435565b6040518963ffffffff1660e01b8152600401611790989796959493929190613528565b6020604051808303816000875af11580156117af573d6000803e3d6000fd5b505050506040513d601f19601f820116820180604052508101906117d391906131b1565b60cc5460405163f340fa0160e01b81526001600160a01b03808416600483015292935091169063f340fa019034906024016000604051808303818588803b15801561181d57600080fd5b505af1158015611831573d6000803e3d6000fd5b5050505050915091565b60408051808201909152600080825260208201526000829050806001600160a01b031663181783586040518163ffffffff1660e01b8152600401600060405180830381600087803b15801561188f57600080fd5b505af11580156118a3573d6000803e3d6000fd5b50505050600080826001600160a01b031663c4a7761e6040518163ffffffff1660e01b81526004016040805180830381865afa1580156118e7573d6000803e3d6000fd5b505050506040513d601f19601f8201168201806040525081019061190b91906131ce565b60408051808201909152918252602082015295945050505050565b60cd80546119339061379b565b80601f016020809104026020016040519081016040528092919081815260200182805461195f9061379b565b80156119ac5780601f10611981576101008083540402835291602001916119ac565b820191906000526020600020905b81548152906001019060200180831161198f57829003601f168201915b505050505081565b60ca5460405163733ff64160e11b8152600481018390526060916000916001600160a01b039091169063e67fec8290602401602060405180830381865afa158015611a03573d6000803e3d6000fd5b505050506040513d601f19601f82011682018060405250810190611a2791906132b3565b90506000816001600160401b03811115611a4357611a43612c5a565b604051908082528060200260200182016040528015611a7c57816020015b611a696128d2565b815260200190600190039081611a615790505b509050611a876128d2565b60005b8381146110ef5760ca546040516312ec684f60e11b815260048101889052602481018390526001600160a01b03909116906325d8d09e90604401600060405180830381865afa158015611ae1573d6000803e3d6000fd5b505050506040513d6000823e601f3d908101601f19168201604052611b0991908101906137e5565b915081838281518110611b1e57611b1e6133ee565b602002602001018190525080611b339061341a565b9050611a8a565b6033546001600160a01b03163314611b645760405162461bcd60e51b81526004016103e0906132cc565b8051610e679060cd906020840190612912565b6033546001600160a01b03163314611ba15760405162461bcd60e51b81526004016103e0906132cc565b6001600160a01b038116611c065760405162461bcd60e51b815260206004820152602660248201527f4f776e61626c653a206e6577206f776e657220697320746865207a65726f206160448201526564647265737360d01b60648201526084016103e0565b610553816122de565b3b151590565b600054610100900460ff16611c3c5760405162461bcd60e51b81526004016103e0906138ab565b611c44612330565b610ead612330565b600054610100900460ff16611c735760405162461bcd60e51b81526004016103e0906138ab565b611c7b612330565b610ead612357565b7f360894a13ba1a3210667c828492db98dca3e2076cc3735a920a3ca505d382bbc546001600160a01b031690565b6033546001600160a01b031633146105535760405162461bcd60e51b81526004016103e0906132cc565b6000611ce5611c83565b9050611cf084612387565b600083511180611cfd5750815b15611d0e57611d0c848461242c565b505b7f4910fdfa16fed3260ed0e7147f7cc6da11a60208b5b9406d12a635614ffd9143805460ff16611e1f57805460ff191660011781556040516001600160a01b0383166024820152611d8d90869060440160408051601f198184030181529190526020810180516001600160e01b0316631b2ce7f360e11b17905261242c565b50805460ff19168155611d9e611c83565b6001600160a01b0316826001600160a01b031614611e165760405162461bcd60e51b815260206004820152602f60248201527f45524331393637557067726164653a207570677261646520627265616b73206660448201526e75727468657220757067726164657360881b60648201526084016103e0565b611e1f85612517565b5050505050565b60408051600080825260208201928390528151832060ca546321bbc1eb60e11b9094526001600160a01b038a811660248501529193909291169063437783d690604401600060405180830381865afa158015611e86573d6000803e3d6000fd5b505050506040513d6000823e601f3d908101601f19168201604052611eae9190810190613237565b604051602001611ebe91906138f6565b604051602081830303815290604052805190602001201415611f125760405162461bcd60e51b815260206004820152600d60248201526c125b9d985b1a590815985d5b1d609a1b60448201526064016103e0565b60008790506000816001600160a01b0316630dfe16816040518163ffffffff1660e01b8152600401602060405180830381865afa158015611f57573d6000803e3d6000fd5b505050506040513d601f19601f82011682018060405250810190611f7b91906131b1565b90506000826001600160a01b031663d21220a76040518163ffffffff1660e01b8152600401602060405180830381865afa158015611fbd573d6000803e3d6000fd5b505050506040513d601f19601f82011682018060405250810190611fe191906131b1565b90508815611ffe57611ffe6001600160a01b03831633308c612557565b8715612019576120196001600160a01b03821633308b612557565b60405163095ea7b360e01b81526001600160a01b038b81166004830152602482018b905283169063095ea7b3906044016020604051808303816000875af1158015612068573d6000803e3d6000fd5b505050506040513d601f19601f8201168201806040525081019061208c9190613779565b5060405163095ea7b360e01b81526001600160a01b038b81166004830152602482018a905282169063095ea7b3906044016020604051808303816000875af11580156120dc573d6000803e3d6000fd5b505050506040513d601f19601f820116820180604052508101906121009190613779565b5060405163365d0ed760e01b8152600481018a90526024810189905260448101889052606481018790526001600160a01b038681166084830152600091829182919087169063365d0ed79060a4016060604051808303816000875af115801561216d573d6000803e3d6000fd5b505050506040513d601f19601f820116820180604052508101906121919190613912565b925092509250818c11156122325760405163095ea7b360e01b81526001600160a01b038e811660048301526000602483015286169063095ea7b3906044016020604051808303816000875af11580156121ee573d6000803e3d6000fd5b505050506040513d601f19601f820116820180604052508101906122129190613779565b5061223233612221848f613940565b6001600160a01b03881691906125c8565b808b11156122cd5760405163095ea7b360e01b81526001600160a01b038e811660048301526000602483015285169063095ea7b3906044016020604051808303816000875af1158015612289573d6000803e3d6000fd5b505050506040513d601f19601f820116820180604052508101906122ad9190613779565b506122cd336122bc838e613940565b6001600160a01b03871691906125c8565b50909b9a5050505050505050505050565b603380546001600160a01b038381166001600160a01b0319831681179093556040519116919082907f8be0079c531659141344cd1fd0a4f28419497f9722a3daafe3b4186f6b6457e090600090a35050565b600054610100900460ff16610ead5760405162461bcd60e51b81526004016103e0906138ab565b600054610100900460ff1661237e5760405162461bcd60e51b81526004016103e0906138ab565b610ead336122de565b803b6123eb5760405162461bcd60e51b815260206004820152602d60248201527f455243313936373a206e657720696d706c656d656e746174696f6e206973206e60448201526c1bdd08184818dbdb9d1c9858dd609a1b60648201526084016103e0565b7f360894a13ba1a3210667c828492db98dca3e2076cc3735a920a3ca505d382bbc80546001600160a01b0319166001600160a01b0392909216919091179055565b6060823b61248b5760405162461bcd60e51b815260206004820152602660248201527f416464726573733a2064656c65676174652063616c6c20746f206e6f6e2d636f6044820152651b9d1c9858dd60d21b60648201526084016103e0565b600080846001600160a01b0316846040516124a691906138f6565b600060405180830381855af49150503d80600081146124e1576040519150601f19603f3d011682016040523d82523d6000602084013e6124e6565b606091505b509150915061250e8282604051806060016040528060278152602001613958602791396125fd565b95945050505050565b61252081612387565b6040516001600160a01b038216907fbc7cd75a20ee27fd9adebab32041f755214dbc6bffa90cc0225b39da2e5c2d3b90600090a250565b6040516001600160a01b03808516602483015283166044820152606481018290526125c29085906323b872dd60e01b906084015b60408051601f198184030181529190526020810180516001600160e01b03166001600160e01b03199093169290921790915261263d565b50505050565b6040516001600160a01b0383166024820152604481018290526125f890849063a9059cbb60e01b9060640161258b565b505050565b6060831561260c575081612636565b82511561261c5782518084602001fd5b8160405162461bcd60e51b81526004016103e09190612fb4565b9392505050565b6000612692826040518060400160405280602081526020017f5361666545524332303a206c6f772d6c6576656c2063616c6c206661696c6564815250856001600160a01b031661270f9092919063ffffffff16565b8051909150156125f857808060200190518101906126b09190613779565b6125f85760405162461bcd60e51b815260206004820152602a60248201527f5361666545524332303a204552433230206f7065726174696f6e20646964206e6044820152691bdd081cdd58d8d9595960b21b60648201526084016103e0565b606061271e8484600085612726565b949350505050565b6060824710156127875760405162461bcd60e51b815260206004820152602660248201527f416464726573733a20696e73756666696369656e742062616c616e636520666f6044820152651c8818d85b1b60d21b60648201526084016103e0565b843b6127d55760405162461bcd60e51b815260206004820152601d60248201527f416464726573733a2063616c6c20746f206e6f6e2d636f6e747261637400000060448201526064016103e0565b600080866001600160a01b031685876040516127f191906138f6565b60006040518083038185875af1925050503d806000811461282e576040519150601f19603f3d011682016040523d82523d6000602084013e612833565b606091505b50915091506128438282866125fd565b979650505050505050565b82805461285a9061379b565b90600052602060002090601f01602090048101928261287c57600085556128c2565b82601f106128955782800160ff198235161785556128c2565b828001600101855582156128c2579182015b828111156128c25782358255916020019190600101906128a7565b506128ce929150612986565b5090565b6040805160c08101909152806000815260200160008152602001600081526020016060815260200160006001600160a01b03168152602001606081525090565b82805461291e9061379b565b90600052602060002090601f01602090048101928261294057600085556128c2565b82601f1061295957805160ff19168380011785556128c2565b828001600101855582156128c2579182015b828111156128c257825182559160200191906001019061296b565b5b808211156128ce5760008155600101612987565b6001600160a01b038116811461055357600080fd5b60008060008060008060a087890312156129c957600080fd5b86356129d48161299b565b955060208701356129e48161299b565b945060408701356129f48161299b565b93506060870135612a048161299b565b925060808701356001600160401b0380821115612a2057600080fd5b818901915089601f830112612a3457600080fd5b813581811115612a4357600080fd5b8a6020828501011115612a5557600080fd5b6020830194508093505050509295509295509295565b600060208284031215612a7d57600080fd5b81356126368161299b565b60005b83811015612aa3578181015183820152602001612a8b565b838111156125c25750506000910152565b60008151808452612acc816020860160208601612a88565b601f01601f19169290920160200192915050565b6020815260008251610220806020850152612aff610240850183612ab4565b91506020850151612b1b60408601826001600160a01b03169052565b5060408501516001600160a01b0381166060860152506060850151601f1980868503016080870152612b4d8483612ab4565b935060808701519150808685030160a0870152612b6a8483612ab4565b935060a087015160c087015260c08701519150808685030160e0870152612b918483612ab4565b935060e08701519150610100818786030181880152612bb08584612ab4565b945080880151925050610120818786030181880152612bcf8584612ab4565b945080880151925050610140818786030181880152612bee8584612ab4565b9088015161016088810191909152880151610180808901919091528801516101a0808901919091528801516101c0808901919091528801516101e080890191909152880151610200808901919091528801516001600160a01b0381168589015290945091506110ef9050565b634e487b7160e01b600052604160045260246000fd5b60405160c081016001600160401b0381118282101715612c9257612c92612c5a565b60405290565b604051601f8201601f191681016001600160401b0381118282101715612cc057612cc0612c5a565b604052919050565b60006001600160401b03821115612ce157612ce1612c5a565b50601f01601f191660200190565b6000612d02612cfd84612cc8565b612c98565b9050828152838383011115612d1657600080fd5b828260208301376000602084830101529392505050565b60008060408385031215612d4057600080fd5b8235612d4b8161299b565b915060208301356001600160401b03811115612d6657600080fd5b8301601f81018513612d7757600080fd5b612d8685823560208401612cef565b9150509250929050565b60008060008060008060c08789031215612da957600080fd5b8635612db48161299b565b95506020870135945060408701359350606087013592506080870135915060a0870135612de08161299b565b809150509295509295509295565b60006020808301818452808551808352604092508286019150828160051b87010184880160005b83811015612eaa57603f19898403018552815160c08151855288820151818a870152612e4382870182612ab4565b838a01516001600160a01b0316878b0152606080850151888303828a01529193509150612e708382612ab4565b6080858101516001600160801b03908116918a019190915260a0958601511694909701939093525050509386019390860190600101612e15565b509098975050505050505050565b600060208284031215612eca57600080fd5b81356001600160401b03811115612ee057600080fd5b82016101a0818503121561263657600080fd5b600060208284031215612f0557600080fd5b81356001600160401b03811115612f1b57600080fd5b820160a0818503121561263657600080fd5b60008060008060008060c08789031215612f4657600080fd5b8635612f518161299b565b9860208801359850604088013597606081013597506080810135965060a00135945092505050565b600060208284031215612f8b57600080fd5b81356001600160401b03811115612fa157600080fd5b8201610120818503121561263657600080fd5b6020815260006126366020830184612ab4565b600060208284031215612fd957600080fd5b5035919050565b602080825282518282018190526000919060409081850190600581811b8701840188860187805b858110156130b157603f198b8503018752825160c0815187811061303957634e487b7160e01b85526021600452602485fd5b8652818b01518b870152898201518a87015260608083015181880183905261306383890182612ab4565b92505050608080830151613081828901826001600160a01b03169052565b505060a0808301519250868203818801525061309d8183612ab4565b988b01989550505091880191600101613007565b50919a9950505050505050505050565b6000602082840312156130d357600080fd5b81356001600160401b038111156130e957600080fd5b8201601f810184136130fa57600080fd5b61271e84823560208401612cef565b6020808252602c908201527f46756e6374696f6e206d7573742062652063616c6c6564207468726f7567682060408201526b19195b1959d85d1958d85b1b60a21b606082015260800190565b6020808252602c908201527f46756e6374696f6e206d7573742062652063616c6c6564207468726f7567682060408201526b6163746976652070726f787960a01b606082015260800190565b80516131ac8161299b565b919050565b6000602082840312156131c357600080fd5b81516126368161299b565b600080604083850312156131e157600080fd5b505080516020909101519092909150565b600082601f83011261320357600080fd5b8151613211612cfd82612cc8565b81815284602083860101111561322657600080fd5b61271e826020830160208701612a88565b60006020828403121561324957600080fd5b81516001600160401b0381111561325f57600080fd5b61271e848285016131f2565b60006020828403121561327d57600080fd5b815160ff8116811461263657600080fd5b6000602082840312156132a057600080fd5b815162ffffff8116811461263657600080fd5b6000602082840312156132c557600080fd5b5051919050565b6020808252818101527f4f776e61626c653a2063616c6c6572206973206e6f7420746865206f776e6572604082015260600190565b6001600160801b038116811461055357600080fd5b80516131ac81613301565b60006020828403121561333357600080fd5b81516001600160401b038082111561334a57600080fd5b9083019060c0828603121561335e57600080fd5b613366612c70565b8251815260208301518281111561337c57600080fd5b613388878286016131f2565b60208301525061339a604084016131a1565b60408201526060830151828111156133b157600080fd5b6133bd878286016131f2565b6060830152506133cf60808401613316565b60808201526133e060a08401613316565b60a082015295945050505050565b634e487b7160e01b600052603260045260246000fd5b634e487b7160e01b600052601160045260246000fd5b600060001982141561342e5761342e613404565b5060010190565b6000808335601e1984360301811261344c57600080fd5b8301803591506001600160401b0382111561346657600080fd5b60200191503681900382131561347b57600080fd5b9250929050565b60006020828403121561349457600080fd5b813561263681613301565b81835281816020850137506000828201602090810191909152601f909101601f19169091010190565b6001600160a01b038816815260a0602082018190526000906134ed908301888a61349f565b828103604084015261350081878961349f565b9150506001600160801b03808516606084015280841660808401525098975050505050505050565b60a08152600061353c60a083018a8c61349f565b886020840152828103604084015261355581888a61349f565b6001600160a01b03871660608501528381036080850152905061357981858761349f565b9b9a5050505050505050505050565b6000808335601e1984360301811261359f57600080fd5b8301803591506001600160401b038211156135b957600080fd5b6020019150600581901b360382131561347b57600080fd5b8183526000602080850194508260005b8581101561360f5781356135f48161299b565b6001600160a01b0316875295820195908201906001016135e1565b509495945050505050565b6080815260006080820189815260a08301905060a08a60051b8401018b60005b8c8110156136ae57858303609f19018452368e9003601e190182351261365f57600080fd5b8d8235016001600160401b038135111561367857600080fd5b803536038f131561368857600080fd5b6136978482356020840161349f565b60209586019590945092909201915060010161363a565b505083810360208501526136c3818a8c6135d1565b91505082810360408401526136d981878961349f565b9050828103606084015261357981858761349f565b600060c0828403121561370057600080fd5b60405160c081018181106001600160401b038211171561372257613722612c5a565b60405282516137308161299b565b815260208301516137408161299b565b8060208301525060408301516040820152606083015160608201526080830151608082015260a083015160a08201528091505092915050565b60006020828403121561378b57600080fd5b8151801515811461263657600080fd5b600181811c908216806137af57607f821691505b602082108114156137d057634e487b7160e01b600052602260045260246000fd5b50919050565b8051600581106131ac57600080fd5b6000602082840312156137f757600080fd5b81516001600160401b038082111561380e57600080fd5b9083019060c0828603121561382257600080fd5b61382a612c70565b613833836137d6565b8152602083015160208201526040830151604082015260608301518281111561385b57600080fd5b613867878286016131f2565b606083015250613879608084016131a1565b608082015260a08301518281111561389057600080fd5b61389c878286016131f2565b60a08301525095945050505050565b6020808252602b908201527f496e697469616c697a61626c653a20636f6e7472616374206973206e6f74206960408201526a6e697469616c697a696e6760a81b606082015260800190565b60008251613908818460208701612a88565b9190910192915050565b60008060006060848603121561392757600080fd5b8351925060208401519150604084015190509250925092565b60008282101561395257613952613404565b50039056fe416464726573733a206c6f772d6c6576656c2064656c65676174652063616c6c206661696c6564a2646970667358221220be18482f1b57b24e9fb58f929e9b497d06f516e234baaaa3a28133db5c58e75864736f6c634300080c0033",
  "devdoc": {
    "author": "Steer Protocol",
    "details": "You can use this contract to enumerate strategy and vault details but also create, join, and leave vaultsThis contract is not intended to hold any tokens in between two or more transactions, it only hold tokens transiently within a single transaction and transfers the tokens in the same transaction.This function should be used when doing protocol integrations",
    "kind": "dev",
    "methods": {
      "constructor": {
        "custom:oz-upgrades-unsafe-allow": "constructor"
      },
      "deposit(address,uint256,uint256,uint256,uint256,address)": {
        "details": "Deposits tokens in proportion to the vault's current holdings.These tokens sit in the vault and are not used for liquidity on      Uniswap until the next rebalance.",
        "params": {
          "amount0Desired": "Max amount of token0 to deposit",
          "amount0Min": "Revert if resulting `amount0` is less than this",
          "amount1Desired": "Max amount of token1 to deposit",
          "amount1Min": "Revert if resulting `amount1` is less than this",
          "to": "Recipient of shares",
          "vaultAddress": "The address of the vault to deposit to"
        }
      },
      "depositAndStake(address,uint256,uint256,uint256,uint256,uint256)": {
        "details": "Deposits tokens in proportion to the vault's current holdings and stake the share.These tokens sit in the vault and are not used for liquidity on      Uniswap until the next rebalance.",
        "params": {
          "amount0Desired": "Max amount of token0 to deposit",
          "amount0Min": "Revert if resulting `amount0` is less than this",
          "amount1Desired": "Max amount of token1 to deposit",
          "amount1Min": "Revert if resulting `amount1` is less than this",
          "poolId": "The id of the pool in which the share should be staked",
          "vaultAddress": "The address of the vault to deposit to"
        }
      },
      "owner()": {
        "details": "Returns the address of the current owner."
      },
      "renounceOwnership()": {
        "details": "Leaves the contract without owner. It will not be possible to call `onlyOwner` functions anymore. Can only be called by the current owner. NOTE: Renouncing ownership will leave the contract without an owner, thereby removing any functionality that is only available to the owner."
      },
      "setNodeConfig(string)": {
        "details": "Only for ownerSets the config for node"
      },
      "strategiesByCreator(address)": {
        "details": "Get the strategies by creator",
        "params": {
          "creator": "The creator of the strategies"
        },
        "returns": {
          "_0": "The List of strategies created by the creator"
        }
      },
      "transferOwnership(address)": {
        "details": "Transfers ownership of the contract to a new account (`newOwner`). Can only be called by the current owner."
      },
      "upgradeTo(address)": {
        "details": "Upgrade the implementation of the proxy to `newImplementation`. Calls {_authorizeUpgrade}. Emits an {Upgraded} event."
      },
      "upgradeToAndCall(address,bytes)": {
        "details": "Upgrade the implementation of the proxy to `newImplementation`, and subsequently execute the function call encoded in `data`. Calls {_authorizeUpgrade}. Emits an {Upgraded} event."
      },
      "vaultsByStrategy(uint256)": {
        "details": "Get the vaults using a given strategy",
        "params": {
          "strategyId": "The strategyId (ERC-721 tokenId)"
        },
        "returns": {
          "_0": "The List of vault details using the strategy"
        }
      }
    },
    "title": "Periphery contract to facilitate common actions on the protocol",
    "version": 1
  },
  "userdoc": {
    "kind": "user",
    "methods": {
      "nodeConfig()": {
        "notice": "The IPFS reference of the node configuration."
      }
    },
    "version": 1
  },
  "storageLayout": {
    "storage": [
      {
        "astId": 4834,
        "contract": "contracts/SteerPeriphery.sol:SteerPeriphery",
        "label": "_initialized",
        "offset": 0,
        "slot": "0",
        "type": "t_bool"
      },
      {
        "astId": 4837,
        "contract": "contracts/SteerPeriphery.sol:SteerPeriphery",
        "label": "_initializing",
        "offset": 1,
        "slot": "0",
        "type": "t_bool"
      },
      {
        "astId": 8682,
        "contract": "contracts/SteerPeriphery.sol:SteerPeriphery",
        "label": "__gap",
        "offset": 0,
        "slot": "1",
        "type": "t_array(t_uint256)50_storage"
      },
      {
        "astId": 420,
        "contract": "contracts/SteerPeriphery.sol:SteerPeriphery",
        "label": "_owner",
        "offset": 0,
        "slot": "51",
        "type": "t_address"
      },
      {
        "astId": 534,
        "contract": "contracts/SteerPeriphery.sol:SteerPeriphery",
        "label": "__gap",
        "offset": 0,
        "slot": "52",
        "type": "t_array(t_uint256)49_storage"
      },
      {
        "astId": 4816,
        "contract": "contracts/SteerPeriphery.sol:SteerPeriphery",
        "label": "__gap",
        "offset": 0,
        "slot": "101",
        "type": "t_array(t_uint256)50_storage"
      },
      {
        "astId": 5011,
        "contract": "contracts/SteerPeriphery.sol:SteerPeriphery",
        "label": "__gap",
        "offset": 0,
        "slot": "151",
        "type": "t_array(t_uint256)50_storage"
      },
      {
        "astId": 15064,
        "contract": "contracts/SteerPeriphery.sol:SteerPeriphery",
        "label": "strategyRegistry",
        "offset": 0,
        "slot": "201",
        "type": "t_address"
      },
      {
        "astId": 15066,
        "contract": "contracts/SteerPeriphery.sol:SteerPeriphery",
        "label": "vaultRegistry",
        "offset": 0,
        "slot": "202",
        "type": "t_address"
      },
      {
        "astId": 15068,
        "contract": "contracts/SteerPeriphery.sol:SteerPeriphery",
        "label": "stakingRewards",
        "offset": 0,
        "slot": "203",
        "type": "t_address"
      },
      {
        "astId": 15070,
        "contract": "contracts/SteerPeriphery.sol:SteerPeriphery",
        "label": "gasVault",
        "offset": 0,
        "slot": "204",
        "type": "t_address"
      },
      {
        "astId": 15073,
        "contract": "contracts/SteerPeriphery.sol:SteerPeriphery",
        "label": "nodeConfig",
        "offset": 0,
        "slot": "205",
        "type": "t_string_storage"
      }
    ],
    "types": {
      "t_address": {
        "encoding": "inplace",
        "label": "address",
        "numberOfBytes": "20"
      },
      "t_array(t_uint256)49_storage": {
        "base": "t_uint256",
        "encoding": "inplace",
        "label": "uint256[49]",
        "numberOfBytes": "1568"
      },
      "t_array(t_uint256)50_storage": {
        "base": "t_uint256",
        "encoding": "inplace",
        "label": "uint256[50]",
        "numberOfBytes": "1600"
      },
      "t_bool": {
        "encoding": "inplace",
        "label": "bool",
        "numberOfBytes": "1"
      },
      "t_string_storage": {
        "encoding": "bytes",
        "label": "string",
        "numberOfBytes": "32"
      },
      "t_uint256": {
        "encoding": "inplace",
        "label": "uint256",
        "numberOfBytes": "32"
      }
    }
  }
}