{
  "address": "0x083138C4627c1a444e6CB9117d5B15080a7E2928",
  "abi": [
    {
      "anonymous": false,
      "inputs": [
        {
          "indexed": false,
          "internalType": "address",
          "name": "previousAdmin",
          "type": "address"
        },
        {
          "indexed": false,
          "internalType": "address",
          "name": "newAdmin",
          "type": "address"
        }
      ],
      "name": "AdminChanged",
      "type": "event"
    },
    {
      "anonymous": false,
      "inputs": [
        {
          "indexed": true,
          "internalType": "address",
          "name": "owner",
          "type": "address"
        },
        {
          "indexed": true,
          "internalType": "address",
          "name": "spender",
          "type": "address"
        },
        {
          "indexed": false,
          "internalType": "uint256",
          "name": "value",
          "type": "uint256"
        }
      ],
      "name": "Approval",
      "type": "event"
    },
    {
      "anonymous": false,
      "inputs": [
        {
          "indexed": true,
          "internalType": "address",
          "name": "beacon",
          "type": "address"
        }
      ],
      "name": "BeaconUpgraded",
      "type": "event"
    },
    {
      "anonymous": false,
      "inputs": [
        {
          "indexed": true,
          "internalType": "address",
          "name": "delegator",
          "type": "address"
        },
        {
          "indexed": true,
          "internalType": "address",
          "name": "fromDelegate",
          "type": "address"
        },
        {
          "indexed": true,
          "internalType": "address",
          "name": "toDelegate",
          "type": "address"
        }
      ],
      "name": "DelegateChanged",
      "type": "event"
    },
    {
      "anonymous": false,
      "inputs": [
        {
          "indexed": true,
          "internalType": "address",
          "name": "delegate",
          "type": "address"
        },
        {
          "indexed": false,
          "internalType": "uint256",
          "name": "previousBalance",
          "type": "uint256"
        },
        {
          "indexed": false,
          "internalType": "uint256",
          "name": "newBalance",
          "type": "uint256"
        }
      ],
      "name": "DelegateVotesChanged",
      "type": "event"
    },
    {
      "anonymous": false,
      "inputs": [
        {
          "indexed": true,
          "internalType": "address",
          "name": "previousOwner",
          "type": "address"
        },
        {
          "indexed": true,
          "internalType": "address",
          "name": "newOwner",
          "type": "address"
        }
      ],
      "name": "OwnershipTransferred",
      "type": "event"
    },
    {
      "anonymous": false,
      "inputs": [
        {
          "indexed": false,
          "internalType": "address",
          "name": "account",
          "type": "address"
        }
      ],
      "name": "Paused",
      "type": "event"
    },
    {
      "anonymous": false,
      "inputs": [
        {
          "indexed": true,
          "internalType": "address",
          "name": "from",
          "type": "address"
        },
        {
          "indexed": true,
          "internalType": "address",
          "name": "to",
          "type": "address"
        },
        {
          "indexed": false,
          "internalType": "uint256",
          "name": "value",
          "type": "uint256"
        }
      ],
      "name": "Transfer",
      "type": "event"
    },
    {
      "anonymous": false,
      "inputs": [
        {
          "indexed": false,
          "internalType": "address",
          "name": "account",
          "type": "address"
        }
      ],
      "name": "Unpaused",
      "type": "event"
    },
    {
      "anonymous": false,
      "inputs": [
        {
          "indexed": true,
          "internalType": "address",
          "name": "implementation",
          "type": "address"
        }
      ],
      "name": "Upgraded",
      "type": "event"
    },
    {
      "inputs": [],
      "name": "DOMAIN_SEPARATOR",
      "outputs": [
        {
          "internalType": "bytes32",
          "name": "",
          "type": "bytes32"
        }
      ],
      "stateMutability": "view",
      "type": "function"
    },
    {
      "inputs": [
        {
          "internalType": "address",
          "name": "owner",
          "type": "address"
        },
        {
          "internalType": "address",
          "name": "spender",
          "type": "address"
        }
      ],
      "name": "allowance",
      "outputs": [
        {
          "internalType": "uint256",
          "name": "",
          "type": "uint256"
        }
      ],
      "stateMutability": "view",
      "type": "function"
    },
    {
      "inputs": [
        {
          "internalType": "address",
          "name": "spender",
          "type": "address"
        },
        {
          "internalType": "uint256",
          "name": "amount",
          "type": "uint256"
        }
      ],
      "name": "approve",
      "outputs": [
        {
          "internalType": "bool",
          "name": "",
          "type": "bool"
        }
      ],
      "stateMutability": "nonpayable",
      "type": "function"
    },
    {
      "inputs": [
        {
          "internalType": "address",
          "name": "account",
          "type": "address"
        }
      ],
      "name": "balanceOf",
      "outputs": [
        {
          "internalType": "uint256",
          "name": "",
          "type": "uint256"
        }
      ],
      "stateMutability": "view",
      "type": "function"
    },
    {
      "inputs": [
        {
          "internalType": "uint256",
          "name": "amount",
          "type": "uint256"
        }
      ],
      "name": "burn",
      "outputs": [],
      "stateMutability": "nonpayable",
      "type": "function"
    },
    {
      "inputs": [
        {
          "internalType": "address",
          "name": "account",
          "type": "address"
        },
        {
          "internalType": "uint256",
          "name": "amount",
          "type": "uint256"
        }
      ],
      "name": "burnFrom",
      "outputs": [],
      "stateMutability": "nonpayable",
      "type": "function"
    },
    {
      "inputs": [
        {
          "internalType": "address",
          "name": "account",
          "type": "address"
        },
        {
          "internalType": "uint32",
          "name": "pos",
          "type": "uint32"
        }
      ],
      "name": "checkpoints",
      "outputs": [
        {
          "components": [
            {
              "internalType": "uint32",
              "name": "fromBlock",
              "type": "uint32"
            },
            {
              "internalType": "uint224",
              "name": "votes",
              "type": "uint224"
            }
          ],
          "internalType": "struct ERC20VotesUpgradeable.Checkpoint",
          "name": "",
          "type": "tuple"
        }
      ],
      "stateMutability": "view",
      "type": "function"
    },
    {
      "inputs": [],
      "name": "decimals",
      "outputs": [
        {
          "internalType": "uint8",
          "name": "",
          "type": "uint8"
        }
      ],
      "stateMutability": "view",
      "type": "function"
    },
    {
      "inputs": [
        {
          "internalType": "address",
          "name": "spender",
          "type": "address"
        },
        {
          "internalType": "uint256",
          "name": "subtractedValue",
          "type": "uint256"
        }
      ],
      "name": "decreaseAllowance",
      "outputs": [
        {
          "internalType": "bool",
          "name": "",
          "type": "bool"
        }
      ],
      "stateMutability": "nonpayable",
      "type": "function"
    },
    {
      "inputs": [
        {
          "internalType": "address",
          "name": "delegatee",
          "type": "address"
        }
      ],
      "name": "delegate",
      "outputs": [],
      "stateMutability": "nonpayable",
      "type": "function"
    },
    {
      "inputs": [
        {
          "internalType": "address",
          "name": "delegatee",
          "type": "address"
        },
        {
          "internalType": "uint256",
          "name": "nonce",
          "type": "uint256"
        },
        {
          "internalType": "uint256",
          "name": "expiry",
          "type": "uint256"
        },
        {
          "internalType": "uint8",
          "name": "v",
          "type": "uint8"
        },
        {
          "internalType": "bytes32",
          "name": "r",
          "type": "bytes32"
        },
        {
          "internalType": "bytes32",
          "name": "s",
          "type": "bytes32"
        }
      ],
      "name": "delegateBySig",
      "outputs": [],
      "stateMutability": "nonpayable",
      "type": "function"
    },
    {
      "inputs": [
        {
          "internalType": "address",
          "name": "account",
          "type": "address"
        }
      ],
      "name": "delegates",
      "outputs": [
        {
          "internalType": "address",
          "name": "",
          "type": "address"
        }
      ],
      "stateMutability": "view",
      "type": "function"
    },
    {
      "inputs": [
        {
          "internalType": "address",
          "name": "token",
          "type": "address"
        },
        {
          "internalType": "uint256",
          "name": "amount",
          "type": "uint256"
        }
      ],
      "name": "flashFee",
      "outputs": [
        {
          "internalType": "uint256",
          "name": "",
          "type": "uint256"
        }
      ],
      "stateMutability": "view",
      "type": "function"
    },
    {
      "inputs": [
        {
          "internalType": "contract IERC3156FlashBorrowerUpgradeable",
          "name": "receiver",
          "type": "address"
        },
        {
          "internalType": "address",
          "name": "token",
          "type": "address"
        },
        {
          "internalType": "uint256",
          "name": "amount",
          "type": "uint256"
        },
        {
          "internalType": "bytes",
          "name": "data",
          "type": "bytes"
        }
      ],
      "name": "flashLoan",
      "outputs": [
        {
          "internalType": "bool",
          "name": "",
          "type": "bool"
        }
      ],
      "stateMutability": "nonpayable",
      "type": "function"
    },
    {
      "inputs": [
        {
          "internalType": "uint256",
          "name": "blockNumber",
          "type": "uint256"
        }
      ],
      "name": "getPastTotalSupply",
      "outputs": [
        {
          "internalType": "uint256",
          "name": "",
          "type": "uint256"
        }
      ],
      "stateMutability": "view",
      "type": "function"
    },
    {
      "inputs": [
        {
          "internalType": "address",
          "name": "account",
          "type": "address"
        },
        {
          "internalType": "uint256",
          "name": "blockNumber",
          "type": "uint256"
        }
      ],
      "name": "getPastVotes",
      "outputs": [
        {
          "internalType": "uint256",
          "name": "",
          "type": "uint256"
        }
      ],
      "stateMutability": "view",
      "type": "function"
    },
    {
      "inputs": [
        {
          "internalType": "address",
          "name": "account",
          "type": "address"
        }
      ],
      "name": "getVotes",
      "outputs": [
        {
          "internalType": "uint256",
          "name": "",
          "type": "uint256"
        }
      ],
      "stateMutability": "view",
      "type": "function"
    },
    {
      "inputs": [
        {
          "internalType": "address",
          "name": "spender",
          "type": "address"
        },
        {
          "internalType": "uint256",
          "name": "addedValue",
          "type": "uint256"
        }
      ],
      "name": "increaseAllowance",
      "outputs": [
        {
          "internalType": "bool",
          "name": "",
          "type": "bool"
        }
      ],
      "stateMutability": "nonpayable",
      "type": "function"
    },
    {
      "inputs": [
        {
          "internalType": "uint256",
          "name": "initialSupply",
          "type": "uint256"
        }
      ],
      "name": "initialize",
      "outputs": [],
      "stateMutability": "nonpayable",
      "type": "function"
    },
    {
      "inputs": [
        {
          "internalType": "address",
          "name": "token",
          "type": "address"
        }
      ],
      "name": "maxFlashLoan",
      "outputs": [
        {
          "internalType": "uint256",
          "name": "",
          "type": "uint256"
        }
      ],
      "stateMutability": "view",
      "type": "function"
    },
    {
      "inputs": [
        {
          "internalType": "address",
          "name": "_to",
          "type": "address"
        },
        {
          "internalType": "uint256",
          "name": "_amount",
          "type": "uint256"
        }
      ],
      "name": "mint",
      "outputs": [],
      "stateMutability": "nonpayable",
      "type": "function"
    },
    {
      "inputs": [],
      "name": "name",
      "outputs": [
        {
          "internalType": "string",
          "name": "",
          "type": "string"
        }
      ],
      "stateMutability": "view",
      "type": "function"
    },
    {
      "inputs": [
        {
          "internalType": "address",
          "name": "owner",
          "type": "address"
        }
      ],
      "name": "nonces",
      "outputs": [
        {
          "internalType": "uint256",
          "name": "",
          "type": "uint256"
        }
      ],
      "stateMutability": "view",
      "type": "function"
    },
    {
      "inputs": [
        {
          "internalType": "address",
          "name": "account",
          "type": "address"
        }
      ],
      "name": "numCheckpoints",
      "outputs": [
        {
          "internalType": "uint32",
          "name": "",
          "type": "uint32"
        }
      ],
      "stateMutability": "view",
      "type": "function"
    },
    {
      "inputs": [],
      "name": "owner",
      "outputs": [
        {
          "internalType": "address",
          "name": "",
          "type": "address"
        }
      ],
      "stateMutability": "view",
      "type": "function"
    },
    {
      "inputs": [],
      "name": "pause",
      "outputs": [],
      "stateMutability": "nonpayable",
      "type": "function"
    },
    {
      "inputs": [],
      "name": "paused",
      "outputs": [
        {
          "internalType": "bool",
          "name": "",
          "type": "bool"
        }
      ],
      "stateMutability": "view",
      "type": "function"
    },
    {
      "inputs": [
        {
          "internalType": "address",
          "name": "owner",
          "type": "address"
        },
        {
          "internalType": "address",
          "name": "spender",
          "type": "address"
        },
        {
          "internalType": "uint256",
          "name": "value",
          "type": "uint256"
        },
        {
          "internalType": "uint256",
          "name": "deadline",
          "type": "uint256"
        },
        {
          "internalType": "uint8",
          "name": "v",
          "type": "uint8"
        },
        {
          "internalType": "bytes32",
          "name": "r",
          "type": "bytes32"
        },
        {
          "internalType": "bytes32",
          "name": "s",
          "type": "bytes32"
        }
      ],
      "name": "permit",
      "outputs": [],
      "stateMutability": "nonpayable",
      "type": "function"
    },
    {
      "inputs": [],
      "name": "renounceOwnership",
      "outputs": [],
      "stateMutability": "nonpayable",
      "type": "function"
    },
    {
      "inputs": [],
      "name": "symbol",
      "outputs": [
        {
          "internalType": "string",
          "name": "",
          "type": "string"
        }
      ],
      "stateMutability": "view",
      "type": "function"
    },
    {
      "inputs": [],
      "name": "totalSupply",
      "outputs": [
        {
          "internalType": "uint256",
          "name": "",
          "type": "uint256"
        }
      ],
      "stateMutability": "view",
      "type": "function"
    },
    {
      "inputs": [
        {
          "internalType": "address",
          "name": "recipient",
          "type": "address"
        },
        {
          "internalType": "uint256",
          "name": "amount",
          "type": "uint256"
        }
      ],
      "name": "transfer",
      "outputs": [
        {
          "internalType": "bool",
          "name": "",
          "type": "bool"
        }
      ],
      "stateMutability": "nonpayable",
      "type": "function"
    },
    {
      "inputs": [
        {
          "internalType": "address",
          "name": "sender",
          "type": "address"
        },
        {
          "internalType": "address",
          "name": "recipient",
          "type": "address"
        },
        {
          "internalType": "uint256",
          "name": "amount",
          "type": "uint256"
        }
      ],
      "name": "transferFrom",
      "outputs": [
        {
          "internalType": "bool",
          "name": "",
          "type": "bool"
        }
      ],
      "stateMutability": "nonpayable",
      "type": "function"
    },
    {
      "inputs": [
        {
          "internalType": "address",
          "name": "newOwner",
          "type": "address"
        }
      ],
      "name": "transferOwnership",
      "outputs": [],
      "stateMutability": "nonpayable",
      "type": "function"
    },
    {
      "inputs": [],
      "name": "unpause",
      "outputs": [],
      "stateMutability": "nonpayable",
      "type": "function"
    },
    {
      "inputs": [
        {
          "internalType": "address",
          "name": "newImplementation",
          "type": "address"
        }
      ],
      "name": "upgradeTo",
      "outputs": [],
      "stateMutability": "nonpayable",
      "type": "function"
    },
    {
      "inputs": [
        {
          "internalType": "address",
          "name": "newImplementation",
          "type": "address"
        },
        {
          "internalType": "bytes",
          "name": "data",
          "type": "bytes"
        }
      ],
      "name": "upgradeToAndCall",
      "outputs": [],
      "stateMutability": "payable",
      "type": "function"
    }
  ],
  "transactionHash": "0x105661e5e7b6d72632422848be3d986098045707ce009d95a0c564bb275b69a5",
  "args": [],
  "numDeployments": 1,
  "solcInputHash": "4d3e56af63bf54cf90ac1bc35cfb9eec",
  "bytecode": "0x60a06040523060805234801561001457600080fd5b506080516134e0610045600039600081816108aa015281816108ea01528181610a990152610ad901526134e06000f3fe60806040526004361061021a5760003560e01c80636fcfff45116101235780639ab24eb0116100ab578063d9d98ce41161006f578063d9d98ce414610646578063dd62ed3e14610666578063f1127ed8146106ac578063f2fde38b146106f6578063fe4b84df1461071657600080fd5b80639ab24eb0146105a6578063a457c2d7146105c6578063a9059cbb146105e6578063c3cda52014610606578063d505accf1461062657600080fd5b80637ecebe00116100f25780637ecebe001461051e5780638456cb591461053e5780638da5cb5b146105535780638e539e8c1461057157806395d89b411461059157600080fd5b80636fcfff451461047e57806370a08231146104b3578063715018a6146104e957806379cc6790146104fe57600080fd5b80633f4ba83a116101a6578063587cde1e11610175578063587cde1e146103b45780635c19a95c146104065780635c975abb146104265780635cffe9de1461043e578063613255ab1461045e57600080fd5b80633f4ba83a1461034c57806340c10f191461036157806342966c68146103815780634f1ef286146103a157600080fd5b8063313ce567116101ed578063313ce567146102b95780633644e515146102d55780633659cfe6146102ea578063395093511461030c5780633a46b1a81461032c57600080fd5b806306fdde031461021f578063095ea7b31461024a57806318160ddd1461027a57806323b872dd14610299575b600080fd5b34801561022b57600080fd5b50610234610736565b6040516102419190612d4e565b60405180910390f35b34801561025657600080fd5b5061026a610265366004612d96565b6107c8565b6040519015158152602001610241565b34801561028657600080fd5b506035545b604051908152602001610241565b3480156102a557600080fd5b5061026a6102b4366004612dc2565b6107df565b3480156102c557600080fd5b5060405160128152602001610241565b3480156102e157600080fd5b5061028b610890565b3480156102f657600080fd5b5061030a610305366004612e03565b61089f565b005b34801561031857600080fd5b5061026a610327366004612d96565b610968565b34801561033857600080fd5b5061028b610347366004612d96565b6109a4565b34801561035857600080fd5b5061030a610a18565b34801561036d57600080fd5b5061030a61037c366004612d96565b610a4c565b34801561038d57600080fd5b5061030a61039c366004612e20565b610a84565b61030a6103af366004612e4f565b610a8e565b3480156103c057600080fd5b506103ee6103cf366004612e03565b6001600160a01b03908116600090815261016260205260409020541690565b6040516001600160a01b039091168152602001610241565b34801561041257600080fd5b5061030a610421366004612e03565b610b44565b34801561043257600080fd5b5060975460ff1661026a565b34801561044a57600080fd5b5061026a610459366004612f13565b610b4e565b34801561046a57600080fd5b5061028b610479366004612e03565b610d2b565b34801561048a57600080fd5b5061049e610499366004612e03565b610d53565b60405163ffffffff9091168152602001610241565b3480156104bf57600080fd5b5061028b6104ce366004612e03565b6001600160a01b031660009081526033602052604090205490565b3480156104f557600080fd5b5061030a610d76565b34801561050a57600080fd5b5061030a610519366004612d96565b610daa565b34801561052a57600080fd5b5061028b610539366004612e03565b610e30565b34801561054a57600080fd5b5061030a610e4f565b34801561055f57600080fd5b5060c9546001600160a01b03166103ee565b34801561057d57600080fd5b5061028b61058c366004612e20565b610e81565b34801561059d57600080fd5b50610234610ede565b3480156105b257600080fd5b5061028b6105c1366004612e03565b610eed565b3480156105d257600080fd5b5061026a6105e1366004612d96565b610f76565b3480156105f257600080fd5b5061026a610601366004612d96565b61100f565b34801561061257600080fd5b5061030a610621366004612fc8565b61101c565b34801561063257600080fd5b5061030a610641366004613022565b611152565b34801561065257600080fd5b5061028b610661366004612d96565b611299565b34801561067257600080fd5b5061028b610681366004613090565b6001600160a01b03918216600090815260346020908152604080832093909416825291909152205490565b3480156106b857600080fd5b506106cc6106c73660046130c9565b6112fc565b60408051825163ffffffff1681526020928301516001600160e01b03169281019290925201610241565b34801561070257600080fd5b5061030a610711366004612e03565b611381565b34801561072257600080fd5b5061030a610731366004612e20565b611419565b60606036805461074590613100565b80601f016020809104026020016040519081016040528092919081815260200182805461077190613100565b80156107be5780601f10610793576101008083540402835291602001916107be565b820191906000526020600020905b8154815290600101906020018083116107a157829003601f168201915b5050505050905090565b60006107d5338484611595565b5060015b92915050565b60006107ec8484846116b9565b6001600160a01b0384166000908152603460209081526040808320338452909152902054828110156108765760405162461bcd60e51b815260206004820152602860248201527f45524332303a207472616e7366657220616d6f756e74206578636565647320616044820152676c6c6f77616e636560c01b60648201526084015b60405180910390fd5b6108838533858403611595565b60019150505b9392505050565b600061089a61189e565b905090565b306001600160a01b037f00000000000000000000000000000000000000000000000000000000000000001614156108e85760405162461bcd60e51b815260040161086d90613135565b7f00000000000000000000000000000000000000000000000000000000000000006001600160a01b031661091a611919565b6001600160a01b0316146109405760405162461bcd60e51b815260040161086d90613181565b61094981611947565b6040805160008082526020820190925261096591839190611971565b50565b3360008181526034602090815260408083206001600160a01b038716845290915281205490916107d591859061099f9086906131e3565b611595565b60004382106109f55760405162461bcd60e51b815260206004820152601f60248201527f4552433230566f7465733a20626c6f636b206e6f7420796574206d696e656400604482015260640161086d565b6001600160a01b0383166000908152610163602052604090206108899083611abc565b60c9546001600160a01b03163314610a425760405162461bcd60e51b815260040161086d906131fb565b610a4a611b79565b565b60c9546001600160a01b03163314610a765760405162461bcd60e51b815260040161086d906131fb565b610a808282611c0c565b5050565b6109653382611c16565b306001600160a01b037f0000000000000000000000000000000000000000000000000000000000000000161415610ad75760405162461bcd60e51b815260040161086d90613135565b7f00000000000000000000000000000000000000000000000000000000000000006001600160a01b0316610b09611919565b6001600160a01b031614610b2f5760405162461bcd60e51b815260040161086d90613181565b610b3882611947565b610a8082826001611971565b6109653382611c20565b600080610b5b8686611299565b9050610b678786611c0c565b6040516323e30c8b60e01b81527f439148f0bbc682ca079e46d6e2c2f0c1e3b820f1a291b069d8882abf8cf18dd9906001600160a01b038916906323e30c8b90610bbf9033908b908b9088908c908c90600401613230565b6020604051808303816000875af1158015610bde573d6000803e3d6000fd5b505050506040513d601f19601f82011682018060405250810190610c02919061328c565b14610c5b5760405162461bcd60e51b8152602060048201526024808201527f4552433230466c6173684d696e743a20696e76616c69642072657475726e2076604482015263616c756560e01b606482015260840161086d565b6001600160a01b0387166000908152603460209081526040808320308452909152902054610c8982876131e3565b811015610cf05760405162461bcd60e51b815260206004820152602f60248201527f4552433230466c6173684d696e743a20616c6c6f77616e636520646f6573206e60448201526e1bdd08185b1b1bddc81c99599d5b99608a1b606482015260840161086d565b610d0a883084610d008a866132a5565b61099f91906132a5565b610d1d88610d1884896131e3565b611c16565b506001979650505050505050565b60006001600160a01b0382163014610d445760006107d9565b6035546107d9906000196132a5565b6001600160a01b038116600090815261016360205260408120546107d990611c9b565b60c9546001600160a01b03163314610da05760405162461bcd60e51b815260040161086d906131fb565b610a4a6000611d04565b6000610db68333610681565b905081811015610e145760405162461bcd60e51b8152602060048201526024808201527f45524332303a206275726e20616d6f756e74206578636565647320616c6c6f77604482015263616e636560e01b606482015260840161086d565b610e218333848403611595565b610e2b8383611c16565b505050565b6001600160a01b038116600090815261012f60205260408120546107d9565b60c9546001600160a01b03163314610e795760405162461bcd60e51b815260040161086d906131fb565b610a4a611d56565b6000438210610ed25760405162461bcd60e51b815260206004820152601f60248201527f4552433230566f7465733a20626c6f636b206e6f7420796574206d696e656400604482015260640161086d565b6107d961016483611abc565b60606037805461074590613100565b6001600160a01b038116600090815261016360205260408120548015610f63576001600160a01b038316600090815261016360205260409020610f316001836132a5565b81548110610f4157610f416132bc565b60009182526020909120015464010000000090046001600160e01b0316610f66565b60005b6001600160e01b03169392505050565b3360009081526034602090815260408083206001600160a01b038616845290915281205482811015610ff85760405162461bcd60e51b815260206004820152602560248201527f45524332303a2064656372656173656420616c6c6f77616e63652062656c6f77604482015264207a65726f60d81b606482015260840161086d565b6110053385858403611595565b5060019392505050565b60006107d53384846116b9565b8342111561106c5760405162461bcd60e51b815260206004820152601d60248201527f4552433230566f7465733a207369676e61747572652065787069726564000000604482015260640161086d565b604080517fe48329057bfd03d55e49b547132e39cffd9c1820ad7b9d4c5307691425d15adf60208201526001600160a01b0388169181019190915260608101869052608081018590526000906110e6906110de9060a00160405160208183030381529060405280519060200120611dd1565b858585611e1f565b90506110f181611e47565b861461113f5760405162461bcd60e51b815260206004820152601960248201527f4552433230566f7465733a20696e76616c6964206e6f6e636500000000000000604482015260640161086d565b6111498188611c20565b50505050505050565b834211156111a25760405162461bcd60e51b815260206004820152601d60248201527f45524332305065726d69743a206578706972656420646561646c696e65000000604482015260640161086d565b6000610130548888886111b48c611e47565b6040805160208101969096526001600160a01b0394851690860152929091166060840152608083015260a082015260c0810186905260e001604051602081830303815290604052805190602001209050600061120f82611dd1565b9050600061121f82878787611e1f565b9050896001600160a01b0316816001600160a01b0316146112825760405162461bcd60e51b815260206004820152601e60248201527f45524332305065726d69743a20696e76616c6964207369676e61747572650000604482015260640161086d565b61128d8a8a8a611595565b50505050505050505050565b60006001600160a01b03831630146112f35760405162461bcd60e51b815260206004820152601b60248201527f4552433230466c6173684d696e743a2077726f6e6720746f6b656e0000000000604482015260640161086d565b50600092915050565b60408051808201909152600080825260208201526001600160a01b038316600090815261016360205260409020805463ffffffff8416908110611341576113416132bc565b60009182526020918290206040805180820190915291015463ffffffff8116825264010000000090046001600160e01b0316918101919091529392505050565b60c9546001600160a01b031633146113ab5760405162461bcd60e51b815260040161086d906131fb565b6001600160a01b0381166114105760405162461bcd60e51b815260206004820152602660248201527f4f776e61626c653a206e6577206f776e657220697320746865207a65726f206160448201526564647265737360d01b606482015260840161086d565b61096581611d04565b600054610100900460ff166114345760005460ff1615611438565b303b155b61149b5760405162461bcd60e51b815260206004820152602e60248201527f496e697469616c697a61626c653a20636f6e747261637420697320616c72656160448201526d191e481a5b9a5d1a585b1a5e995960921b606482015260840161086d565b600054610100900460ff161580156114bd576000805461ffff19166101011790555b61150a6040518060400160405280600e81526020016d14dd19595c88141c9bdd1bd8dbdb60921b8152506040518060400160405280600581526020016429aa22a2a960d91b815250611e70565b611512611ea9565b61151a611ee0565b611522611f17565b6115516040518060400160405280600e81526020016d14dd19595c88141c9bdd1bd8dbdb60921b815250611f4e565b611559611ea9565b611561611ea9565b611580336115716012600a6133b6565b61157b90856133c5565b611c0c565b8015610a80576000805461ff00191690555050565b6001600160a01b0383166115f75760405162461bcd60e51b8152602060048201526024808201527f45524332303a20617070726f76652066726f6d20746865207a65726f206164646044820152637265737360e01b606482015260840161086d565b6001600160a01b0382166116585760405162461bcd60e51b815260206004820152602260248201527f45524332303a20617070726f766520746f20746865207a65726f206164647265604482015261737360f01b606482015260840161086d565b6001600160a01b0383811660008181526034602090815260408083209487168084529482529182902085905590518481527f8c5be1e5ebec7d5bd14f71427d1e84f3dd0314c0f7b2291e5b200ac8c7c3b925910160405180910390a3505050565b6001600160a01b03831661171d5760405162461bcd60e51b815260206004820152602560248201527f45524332303a207472616e736665722066726f6d20746865207a65726f206164604482015264647265737360d81b606482015260840161086d565b6001600160a01b03821661177f5760405162461bcd60e51b815260206004820152602360248201527f45524332303a207472616e7366657220746f20746865207a65726f206164647260448201526265737360e81b606482015260840161086d565b61178a838383611fa9565b6001600160a01b038316600090815260336020526040902054818110156118025760405162461bcd60e51b815260206004820152602660248201527f45524332303a207472616e7366657220616d6f756e7420657863656564732062604482015265616c616e636560d01b606482015260840161086d565b6001600160a01b038085166000908152603360205260408082208585039055918516815290812080548492906118399084906131e3565b92505081905550826001600160a01b0316846001600160a01b03167fddf252ad1be2c89b69c2b068fc378daa952ba7f163c4a11628f55a4df523b3ef8460405161188591815260200190565b60405180910390a3611898848484611fef565b50505050565b600061089a7f8b73c3c69bb8fe3d512ecc4cf759cc79239f7b179b0ffacaa9a75d522b39400f6118cd60fb5490565b60fc546040805160208101859052908101839052606081018290524660808201523060a082015260009060c0016040516020818303038152906040528051906020012090509392505050565b7f360894a13ba1a3210667c828492db98dca3e2076cc3735a920a3ca505d382bbc546001600160a01b031690565b60c9546001600160a01b031633146109655760405162461bcd60e51b815260040161086d906131fb565b600061197b611919565b905061198684611ffa565b6000835111806119935750815b156119a4576119a2848461209f565b505b7f4910fdfa16fed3260ed0e7147f7cc6da11a60208b5b9406d12a635614ffd9143805460ff16611ab557805460ff191660011781556040516001600160a01b0383166024820152611a2390869060440160408051601f198184030181529190526020810180516001600160e01b0316631b2ce7f360e11b17905261209f565b50805460ff19168155611a34611919565b6001600160a01b0316826001600160a01b031614611aac5760405162461bcd60e51b815260206004820152602f60248201527f45524331393637557067726164653a207570677261646520627265616b73206660448201526e75727468657220757067726164657360881b606482015260840161086d565b611ab58561218a565b5050505050565b8154600090815b81811015611b20576000611ad782846121ca565b905084868281548110611aec57611aec6132bc565b60009182526020909120015463ffffffff161115611b0c57809250611b1a565b611b178160016131e3565b91505b50611ac3565b8115611b645784611b326001846132a5565b81548110611b4257611b426132bc565b60009182526020909120015464010000000090046001600160e01b0316611b67565b60005b6001600160e01b031695945050505050565b60975460ff16611bc25760405162461bcd60e51b815260206004820152601460248201527314185d5cd8589b194e881b9bdd081c185d5cd95960621b604482015260640161086d565b6097805460ff191690557f5db9ee0a495bf2e6ff9c91a7834c1ba4fdd244a5e8aa4e537bd38aeae4b073aa335b6040516001600160a01b03909116815260200160405180910390a1565b610a8082826121e5565b610a808282612270565b6001600160a01b0382811660008181526101626020818152604080842080546033845282862054949093528787166001600160a01b03198416811790915590519190951694919391928592917f3134e8a2e6d97e929a7e54011ea5485d7d196dd5f0ba4d4ef95803e8e3fc257f9190a4611898828483612289565b600063ffffffff821115611d005760405162461bcd60e51b815260206004820152602660248201527f53616665436173743a2076616c756520646f65736e27742066697420696e203360448201526532206269747360d01b606482015260840161086d565b5090565b60c980546001600160a01b038381166001600160a01b0319831681179093556040519116919082907f8be0079c531659141344cd1fd0a4f28419497f9722a3daafe3b4186f6b6457e090600090a35050565b60975460ff1615611d9c5760405162461bcd60e51b815260206004820152601060248201526f14185d5cd8589b194e881c185d5cd95960821b604482015260640161086d565b6097805460ff191660011790557f62e78cea01bee320cd4e420270b5ea74000d11b0c9f74754ebdbfc544b05a258611bef3390565b60006107d9611dde61189e565b8360405161190160f01b6020820152602281018390526042810182905260009060620160405160208183030381529060405280519060200120905092915050565b6000806000611e30878787876123c8565b91509150611e3d816124b5565b5095945050505050565b6001600160a01b038116600090815261012f602052604090208054600181018255905b50919050565b600054610100900460ff16611e975760405162461bcd60e51b815260040161086d906133e4565b611e9f612670565b610a808282612697565b600054610100900460ff16611ed05760405162461bcd60e51b815260040161086d906133e4565b611ed8612670565b610a4a612670565b600054610100900460ff16611f075760405162461bcd60e51b815260040161086d906133e4565b611f0f612670565b610a4a6126e5565b600054610100900460ff16611f3e5760405162461bcd60e51b815260040161086d906133e4565b611f46612670565b610a4a612718565b600054610100900460ff16611f755760405162461bcd60e51b815260040161086d906133e4565b611f7d612670565b611fa081604051806040016040528060018152602001603160f81b815250612748565b61096581612789565b60975460ff1615610e2b5760405162461bcd60e51b815260206004820152601060248201526f14185d5cd8589b194e881c185d5cd95960821b604482015260640161086d565b610e2b8383836127d8565b803b61205e5760405162461bcd60e51b815260206004820152602d60248201527f455243313936373a206e657720696d706c656d656e746174696f6e206973206e60448201526c1bdd08184818dbdb9d1c9858dd609a1b606482015260840161086d565b7f360894a13ba1a3210667c828492db98dca3e2076cc3735a920a3ca505d382bbc80546001600160a01b0319166001600160a01b0392909216919091179055565b6060823b6120fe5760405162461bcd60e51b815260206004820152602660248201527f416464726573733a2064656c65676174652063616c6c20746f206e6f6e2d636f6044820152651b9d1c9858dd60d21b606482015260840161086d565b600080846001600160a01b031684604051612119919061342f565b600060405180830381855af49150503d8060008114612154576040519150601f19603f3d011682016040523d82523d6000602084013e612159565b606091505b509150915061218182826040518060600160405280602781526020016134846027913961280b565b95945050505050565b61219381611ffa565b6040516001600160a01b038216907fbc7cd75a20ee27fd9adebab32041f755214dbc6bffa90cc0225b39da2e5c2d3b90600090a250565b60006121d9600284841861344b565b610889908484166131e3565b6121ef8282612844565b6035546001600160e01b0310156122615760405162461bcd60e51b815260206004820152603060248201527f4552433230566f7465733a20746f74616c20737570706c79207269736b73206f60448201526f766572666c6f77696e6720766f74657360801b606482015260840161086d565b61189861016461293783612943565b61227a8282612abc565b611898610164612c1d83612943565b816001600160a01b0316836001600160a01b0316141580156122ab5750600081115b15610e2b576001600160a01b0383161561233a576001600160a01b03831660009081526101636020526040812081906122e790612c1d85612943565b91509150846001600160a01b03167fdec2bacdd2f05b59de34da9b523dff8be42e5e38e818c82fdb0bae774387a724838360405161232f929190918252602082015260400190565b60405180910390a250505b6001600160a01b03821615610e2b576001600160a01b03821660009081526101636020526040812081906123719061293785612943565b91509150836001600160a01b03167fdec2bacdd2f05b59de34da9b523dff8be42e5e38e818c82fdb0bae774387a72483836040516123b9929190918252602082015260400190565b60405180910390a25050505050565b6000807f7fffffffffffffffffffffffffffffff5d576e7357a4501ddfe92f46681b20a08311156123ff57506000905060036124ac565b8460ff16601b1415801561241757508460ff16601c14155b1561242857506000905060046124ac565b6040805160008082526020820180845289905260ff881692820192909252606081018690526080810185905260019060a0016020604051602081039080840390855afa15801561247c573d6000803e3d6000fd5b5050604051601f1901519150506001600160a01b0381166124a5576000600192509250506124ac565b9150600090505b94509492505050565b60008160048111156124c9576124c961346d565b14156124d25750565b60018160048111156124e6576124e661346d565b14156125345760405162461bcd60e51b815260206004820152601860248201527f45434453413a20696e76616c6964207369676e61747572650000000000000000604482015260640161086d565b60028160048111156125485761254861346d565b14156125965760405162461bcd60e51b815260206004820152601f60248201527f45434453413a20696e76616c6964207369676e6174757265206c656e67746800604482015260640161086d565b60038160048111156125aa576125aa61346d565b14156126035760405162461bcd60e51b815260206004820152602260248201527f45434453413a20696e76616c6964207369676e6174757265202773272076616c604482015261756560f01b606482015260840161086d565b60048160048111156126175761261761346d565b14156109655760405162461bcd60e51b815260206004820152602260248201527f45434453413a20696e76616c6964207369676e6174757265202776272076616c604482015261756560f01b606482015260840161086d565b600054610100900460ff16610a4a5760405162461bcd60e51b815260040161086d906133e4565b600054610100900460ff166126be5760405162461bcd60e51b815260040161086d906133e4565b81516126d1906036906020850190612c92565b508051610e2b906037906020840190612c92565b600054610100900460ff1661270c5760405162461bcd60e51b815260040161086d906133e4565b6097805460ff19169055565b600054610100900460ff1661273f5760405162461bcd60e51b815260040161086d906133e4565b610a4a33611d04565b600054610100900460ff1661276f5760405162461bcd60e51b815260040161086d906133e4565b81516020928301208151919092012060fb9190915560fc55565b600054610100900460ff166127b05760405162461bcd60e51b815260040161086d906133e4565b507f6e71edae12b1b97f4d1f60370fef10105fa2faae0126114a169c64845d6126c961013055565b6001600160a01b0383811660009081526101626020526040808220548584168352912054610e2b92918216911683612289565b6060831561281a575081610889565b82511561282a5782518084602001fd5b8160405162461bcd60e51b815260040161086d9190612d4e565b6001600160a01b03821661289a5760405162461bcd60e51b815260206004820152601f60248201527f45524332303a206d696e7420746f20746865207a65726f206164647265737300604482015260640161086d565b6128a660008383611fa9565b80603560008282546128b891906131e3565b90915550506001600160a01b038216600090815260336020526040812080548392906128e59084906131e3565b90915550506040518181526001600160a01b038316906000907fddf252ad1be2c89b69c2b068fc378daa952ba7f163c4a11628f55a4df523b3ef9060200160405180910390a3610a8060008383611fef565b600061088982846131e3565b82546000908190801561298e578561295c6001836132a5565b8154811061296c5761296c6132bc565b60009182526020909120015464010000000090046001600160e01b0316612991565b60005b6001600160e01b031692506129aa83858763ffffffff16565b91506000811180156129e8575043866129c46001846132a5565b815481106129d4576129d46132bc565b60009182526020909120015463ffffffff16145b15612a48576129f682612c29565b86612a026001846132a5565b81548110612a1257612a126132bc565b9060005260206000200160000160046101000a8154816001600160e01b0302191690836001600160e01b03160217905550612ab3565b856040518060400160405280612a5d43611c9b565b63ffffffff168152602001612a7185612c29565b6001600160e01b0390811690915282546001810184556000938452602093849020835194909301519091166401000000000263ffffffff909316929092179101555b50935093915050565b6001600160a01b038216612b1c5760405162461bcd60e51b815260206004820152602160248201527f45524332303a206275726e2066726f6d20746865207a65726f206164647265736044820152607360f81b606482015260840161086d565b612b2882600083611fa9565b6001600160a01b03821660009081526033602052604090205481811015612b9c5760405162461bcd60e51b815260206004820152602260248201527f45524332303a206275726e20616d6f756e7420657863656564732062616c616e604482015261636560f01b606482015260840161086d565b6001600160a01b0383166000908152603360205260408120838303905560358054849290612bcb9084906132a5565b90915550506040518281526000906001600160a01b038516907fddf252ad1be2c89b69c2b068fc378daa952ba7f163c4a11628f55a4df523b3ef9060200160405180910390a3610e2b83600084611fef565b600061088982846132a5565b60006001600160e01b03821115611d005760405162461bcd60e51b815260206004820152602760248201527f53616665436173743a2076616c756520646f65736e27742066697420696e20326044820152663234206269747360c81b606482015260840161086d565b828054612c9e90613100565b90600052602060002090601f016020900481019282612cc05760008555612d06565b82601f10612cd957805160ff1916838001178555612d06565b82800160010185558215612d06579182015b82811115612d06578251825591602001919060010190612ceb565b50611d009291505b80821115611d005760008155600101612d0e565b60005b83811015612d3d578181015183820152602001612d25565b838111156118985750506000910152565b6020815260008251806020840152612d6d816040850160208701612d22565b601f01601f19169190910160400192915050565b6001600160a01b038116811461096557600080fd5b60008060408385031215612da957600080fd5b8235612db481612d81565b946020939093013593505050565b600080600060608486031215612dd757600080fd5b8335612de281612d81565b92506020840135612df281612d81565b929592945050506040919091013590565b600060208284031215612e1557600080fd5b813561088981612d81565b600060208284031215612e3257600080fd5b5035919050565b634e487b7160e01b600052604160045260246000fd5b60008060408385031215612e6257600080fd5b8235612e6d81612d81565b9150602083013567ffffffffffffffff80821115612e8a57600080fd5b818501915085601f830112612e9e57600080fd5b813581811115612eb057612eb0612e39565b604051601f8201601f19908116603f01168101908382118183101715612ed857612ed8612e39565b81604052828152886020848701011115612ef157600080fd5b8260208601602083013760006020848301015280955050505050509250929050565b600080600080600060808688031215612f2b57600080fd5b8535612f3681612d81565b94506020860135612f4681612d81565b935060408601359250606086013567ffffffffffffffff80821115612f6a57600080fd5b818801915088601f830112612f7e57600080fd5b813581811115612f8d57600080fd5b896020828501011115612f9f57600080fd5b9699959850939650602001949392505050565b803560ff81168114612fc357600080fd5b919050565b60008060008060008060c08789031215612fe157600080fd5b8635612fec81612d81565b9550602087013594506040870135935061300860608801612fb2565b92506080870135915060a087013590509295509295509295565b600080600080600080600060e0888a03121561303d57600080fd5b873561304881612d81565b9650602088013561305881612d81565b9550604088013594506060880135935061307460808901612fb2565b925060a0880135915060c0880135905092959891949750929550565b600080604083850312156130a357600080fd5b82356130ae81612d81565b915060208301356130be81612d81565b809150509250929050565b600080604083850312156130dc57600080fd5b82356130e781612d81565b9150602083013563ffffffff811681146130be57600080fd5b600181811c9082168061311457607f821691505b60208210811415611e6a57634e487b7160e01b600052602260045260246000fd5b6020808252602c908201527f46756e6374696f6e206d7573742062652063616c6c6564207468726f7567682060408201526b19195b1959d85d1958d85b1b60a21b606082015260800190565b6020808252602c908201527f46756e6374696f6e206d7573742062652063616c6c6564207468726f7567682060408201526b6163746976652070726f787960a01b606082015260800190565b634e487b7160e01b600052601160045260246000fd5b600082198211156131f6576131f66131cd565b500190565b6020808252818101527f4f776e61626c653a2063616c6c6572206973206e6f7420746865206f776e6572604082015260600190565b6001600160a01b03878116825286166020820152604081018590526060810184905260a06080820181905281018290526000828460c0840137600060c0848401015260c0601f19601f8501168301019050979650505050505050565b60006020828403121561329e57600080fd5b5051919050565b6000828210156132b7576132b76131cd565b500390565b634e487b7160e01b600052603260045260246000fd5b600181815b8085111561330d5781600019048211156132f3576132f36131cd565b8085161561330057918102915b93841c93908002906132d7565b509250929050565b600082613324575060016107d9565b81613331575060006107d9565b816001811461334757600281146133515761336d565b60019150506107d9565b60ff841115613362576133626131cd565b50506001821b6107d9565b5060208310610133831016604e8410600b8410161715613390575081810a6107d9565b61339a83836132d2565b80600019048211156133ae576133ae6131cd565b029392505050565b600061088960ff841683613315565b60008160001904831182151516156133df576133df6131cd565b500290565b6020808252602b908201527f496e697469616c697a61626c653a20636f6e7472616374206973206e6f74206960408201526a6e697469616c697a696e6760a81b606082015260800190565b60008251613441818460208701612d22565b9190910192915050565b60008261346857634e487b7160e01b600052601260045260246000fd5b500490565b634e487b7160e01b600052602160045260246000fdfe416464726573733a206c6f772d6c6576656c2064656c65676174652063616c6c206661696c6564a264697066735822122013006ba6606b08c9bb4ab06ad267b6638a3002a3debfff7e92f0a6604cbdbc0c64736f6c634300080c0033",
  "devdoc": {
    "author": "Steer Protocol",
    "details": "This token is used within the governance contracts",
    "kind": "dev",
    "methods": {
      "DOMAIN_SEPARATOR()": {
        "details": "See {IERC20Permit-DOMAIN_SEPARATOR}."
      },
      "allowance(address,address)": {
        "details": "See {IERC20-allowance}."
      },
      "approve(address,uint256)": {
        "details": "See {IERC20-approve}. Requirements: - `spender` cannot be the zero address."
      },
      "balanceOf(address)": {
        "details": "See {IERC20-balanceOf}."
      },
      "burn(uint256)": {
        "details": "Destroys `amount` tokens from the caller. See {ERC20-_burn}."
      },
      "burnFrom(address,uint256)": {
        "details": "Destroys `amount` tokens from `account`, deducting from the caller's allowance. See {ERC20-_burn} and {ERC20-allowance}. Requirements: - the caller must have allowance for ``accounts``'s tokens of at least `amount`."
      },
      "checkpoints(address,uint32)": {
        "details": "Get the `pos`-th checkpoint for `account`."
      },
      "decimals()": {
        "details": "Returns the number of decimals used to get its user representation. For example, if `decimals` equals `2`, a balance of `505` tokens should be displayed to a user as `5.05` (`505 / 10 ** 2`). Tokens usually opt for a value of 18, imitating the relationship between Ether and Wei. This is the value {ERC20} uses, unless this function is overridden; NOTE: This information is only used for _display_ purposes: it in no way affects any of the arithmetic of the contract, including {IERC20-balanceOf} and {IERC20-transfer}."
      },
      "decreaseAllowance(address,uint256)": {
        "details": "Atomically decreases the allowance granted to `spender` by the caller. This is an alternative to {approve} that can be used as a mitigation for problems described in {IERC20-approve}. Emits an {Approval} event indicating the updated allowance. Requirements: - `spender` cannot be the zero address. - `spender` must have allowance for the caller of at least `subtractedValue`."
      },
      "delegate(address)": {
        "details": "Delegate votes from the sender to `delegatee`."
      },
      "delegateBySig(address,uint256,uint256,uint8,bytes32,bytes32)": {
        "details": "Delegates votes from signer to `delegatee`"
      },
      "delegates(address)": {
        "details": "Get the address `account` is currently delegating to."
      },
      "flashFee(address,uint256)": {
        "details": "Returns the fee applied when doing flash loans. By default this implementation has 0 fees. This function can be overloaded to make the flash loan mechanism deflationary.",
        "params": {
          "amount": "The amount of tokens to be loaned.",
          "token": "The token to be flash loaned."
        },
        "returns": {
          "_0": "The fees applied to the corresponding flash loan."
        }
      },
      "flashLoan(address,address,uint256,bytes)": {
        "details": "Performs a flash loan. New tokens are minted and sent to the `receiver`, who is required to implement the {IERC3156FlashBorrower} interface. By the end of the flash loan, the receiver is expected to own amount + fee tokens and have them approved back to the token contract itself so they can be burned.",
        "params": {
          "amount": "The amount of tokens to be loaned.",
          "data": "An arbitrary datafield that is passed to the receiver.",
          "receiver": "The receiver of the flash loan. Should implement the {IERC3156FlashBorrower.onFlashLoan} interface.",
          "token": "The token to be flash loaned. Only `address(this)` is supported."
        },
        "returns": {
          "_0": "`true` is the flash loan was successful."
        }
      },
      "getPastTotalSupply(uint256)": {
        "details": "Retrieve the `totalSupply` at the end of `blockNumber`. Note, this value is the sum of all balances. It is but NOT the sum of all the delegated votes! Requirements: - `blockNumber` must have been already mined"
      },
      "getPastVotes(address,uint256)": {
        "details": "Retrieve the number of votes for `account` at the end of `blockNumber`. Requirements: - `blockNumber` must have been already mined"
      },
      "getVotes(address)": {
        "details": "Gets the current votes balance for `account`"
      },
      "increaseAllowance(address,uint256)": {
        "details": "Atomically increases the allowance granted to `spender` by the caller. This is an alternative to {approve} that can be used as a mitigation for problems described in {IERC20-approve}. Emits an {Approval} event indicating the updated allowance. Requirements: - `spender` cannot be the zero address."
      },
      "maxFlashLoan(address)": {
        "details": "Returns the maximum amount of tokens available for loan.",
        "params": {
          "token": "The address of the token that is requested."
        },
        "returns": {
          "_0": "The amont of token that can be loaned."
        }
      },
      "mint(address,uint256)": {
        "details": "Mints tokens to a given address",
        "params": {
          "_amount": "The amount to transfer",
          "_to": "The address to transfer to"
        }
      },
      "name()": {
        "details": "Returns the name of the token."
      },
      "nonces(address)": {
        "details": "See {IERC20Permit-nonces}."
      },
      "numCheckpoints(address)": {
        "details": "Get number of checkpoints for `account`."
      },
      "owner()": {
        "details": "Returns the address of the current owner."
      },
      "pause()": {
        "details": "Pause token transfers in the event of emergencyThis will only be used for emergency situations and should not be used for any other reason"
      },
      "paused()": {
        "details": "Returns true if the contract is paused, and false otherwise."
      },
      "permit(address,address,uint256,uint256,uint8,bytes32,bytes32)": {
        "details": "See {IERC20Permit-permit}."
      },
      "renounceOwnership()": {
        "details": "Leaves the contract without owner. It will not be possible to call `onlyOwner` functions anymore. Can only be called by the current owner. NOTE: Renouncing ownership will leave the contract without an owner, thereby removing any functionality that is only available to the owner."
      },
      "symbol()": {
        "details": "Returns the symbol of the token, usually a shorter version of the name."
      },
      "totalSupply()": {
        "details": "See {IERC20-totalSupply}."
      },
      "transfer(address,uint256)": {
        "details": "See {IERC20-transfer}. Requirements: - `recipient` cannot be the zero address. - the caller must have a balance of at least `amount`."
      },
      "transferFrom(address,address,uint256)": {
        "details": "See {IERC20-transferFrom}. Emits an {Approval} event indicating the updated allowance. This is not required by the EIP. See the note at the beginning of {ERC20}. Requirements: - `sender` and `recipient` cannot be the zero address. - `sender` must have a balance of at least `amount`. - the caller must have allowance for ``sender``'s tokens of at least `amount`."
      },
      "transferOwnership(address)": {
        "details": "Transfers ownership of the contract to a new account (`newOwner`). Can only be called by the current owner."
      },
      "unpause()": {
        "details": "Unpause token transfers in the event of emergencyThis will restore token transfers after an emergency event"
      },
      "upgradeTo(address)": {
        "details": "Upgrade the implementation of the proxy to `newImplementation`. Calls {_authorizeUpgrade}. Emits an {Upgraded} event."
      },
      "upgradeToAndCall(address,bytes)": {
        "details": "Upgrade the implementation of the proxy to `newImplementation`, and subsequently execute the function call encoded in `data`. Calls {_authorizeUpgrade}. Emits an {Upgraded} event."
      }
    },
    "title": "Steer Protocol Governance Token",
    "version": 1
  },
  "userdoc": {
    "kind": "user",
    "methods": {},
    "version": 1
  },
  "storageLayout": {
    "storage": [
      {
        "astId": 4904,
        "contract": "contracts/SteerToken.sol:SteerToken",
        "label": "_initialized",
        "offset": 0,
        "slot": "0",
        "type": "t_bool"
      },
      {
        "astId": 4907,
        "contract": "contracts/SteerToken.sol:SteerToken",
        "label": "_initializing",
        "offset": 1,
        "slot": "0",
        "type": "t_bool"
      },
      {
        "astId": 9281,
        "contract": "contracts/SteerToken.sol:SteerToken",
        "label": "__gap",
        "offset": 0,
        "slot": "1",
        "type": "t_array(t_uint256)50_storage"
      },
      {
        "astId": 5214,
        "contract": "contracts/SteerToken.sol:SteerToken",
        "label": "_balances",
        "offset": 0,
        "slot": "51",
        "type": "t_mapping(t_address,t_uint256)"
      },
      {
        "astId": 5220,
        "contract": "contracts/SteerToken.sol:SteerToken",
        "label": "_allowances",
        "offset": 0,
        "slot": "52",
        "type": "t_mapping(t_address,t_mapping(t_address,t_uint256))"
      },
      {
        "astId": 5222,
        "contract": "contracts/SteerToken.sol:SteerToken",
        "label": "_totalSupply",
        "offset": 0,
        "slot": "53",
        "type": "t_uint256"
      },
      {
        "astId": 5224,
        "contract": "contracts/SteerToken.sol:SteerToken",
        "label": "_name",
        "offset": 0,
        "slot": "54",
        "type": "t_string_storage"
      },
      {
        "astId": 5226,
        "contract": "contracts/SteerToken.sol:SteerToken",
        "label": "_symbol",
        "offset": 0,
        "slot": "55",
        "type": "t_string_storage"
      },
      {
        "astId": 5767,
        "contract": "contracts/SteerToken.sol:SteerToken",
        "label": "__gap",
        "offset": 0,
        "slot": "56",
        "type": "t_array(t_uint256)45_storage"
      },
      {
        "astId": 5932,
        "contract": "contracts/SteerToken.sol:SteerToken",
        "label": "__gap",
        "offset": 0,
        "slot": "101",
        "type": "t_array(t_uint256)50_storage"
      },
      {
        "astId": 5103,
        "contract": "contracts/SteerToken.sol:SteerToken",
        "label": "_paused",
        "offset": 0,
        "slot": "151",
        "type": "t_bool"
      },
      {
        "astId": 5194,
        "contract": "contracts/SteerToken.sol:SteerToken",
        "label": "__gap",
        "offset": 0,
        "slot": "152",
        "type": "t_array(t_uint256)49_storage"
      },
      {
        "astId": 420,
        "contract": "contracts/SteerToken.sol:SteerToken",
        "label": "_owner",
        "offset": 0,
        "slot": "201",
        "type": "t_address"
      },
      {
        "astId": 534,
        "contract": "contracts/SteerToken.sol:SteerToken",
        "label": "__gap",
        "offset": 0,
        "slot": "202",
        "type": "t_array(t_uint256)49_storage"
      },
      {
        "astId": 10320,
        "contract": "contracts/SteerToken.sol:SteerToken",
        "label": "_HASHED_NAME",
        "offset": 0,
        "slot": "251",
        "type": "t_bytes32"
      },
      {
        "astId": 10322,
        "contract": "contracts/SteerToken.sol:SteerToken",
        "label": "_HASHED_VERSION",
        "offset": 0,
        "slot": "252",
        "type": "t_bytes32"
      },
      {
        "astId": 10459,
        "contract": "contracts/SteerToken.sol:SteerToken",
        "label": "__gap",
        "offset": 0,
        "slot": "253",
        "type": "t_array(t_uint256)50_storage"
      },
      {
        "astId": 6834,
        "contract": "contracts/SteerToken.sol:SteerToken",
        "label": "_nonces",
        "offset": 0,
        "slot": "303",
        "type": "t_mapping(t_address,t_struct(Counter)9288_storage)"
      },
      {
        "astId": 6836,
        "contract": "contracts/SteerToken.sol:SteerToken",
        "label": "_PERMIT_TYPEHASH",
        "offset": 0,
        "slot": "304",
        "type": "t_bytes32"
      },
      {
        "astId": 7004,
        "contract": "contracts/SteerToken.sol:SteerToken",
        "label": "__gap",
        "offset": 0,
        "slot": "305",
        "type": "t_array(t_uint256)49_storage"
      },
      {
        "astId": 6156,
        "contract": "contracts/SteerToken.sol:SteerToken",
        "label": "_delegates",
        "offset": 0,
        "slot": "354",
        "type": "t_mapping(t_address,t_address)"
      },
      {
        "astId": 6162,
        "contract": "contracts/SteerToken.sol:SteerToken",
        "label": "_checkpoints",
        "offset": 0,
        "slot": "355",
        "type": "t_mapping(t_address,t_array(t_struct(Checkpoint)6147_storage)dyn_storage)"
      },
      {
        "astId": 6166,
        "contract": "contracts/SteerToken.sol:SteerToken",
        "label": "_totalSupplyCheckpoints",
        "offset": 0,
        "slot": "356",
        "type": "t_array(t_struct(Checkpoint)6147_storage)dyn_storage"
      },
      {
        "astId": 6782,
        "contract": "contracts/SteerToken.sol:SteerToken",
        "label": "__gap",
        "offset": 0,
        "slot": "357",
        "type": "t_array(t_uint256)47_storage"
      },
      {
        "astId": 6123,
        "contract": "contracts/SteerToken.sol:SteerToken",
        "label": "__gap",
        "offset": 0,
        "slot": "404",
        "type": "t_array(t_uint256)50_storage"
      },
      {
        "astId": 4886,
        "contract": "contracts/SteerToken.sol:SteerToken",
        "label": "__gap",
        "offset": 0,
        "slot": "454",
        "type": "t_array(t_uint256)50_storage"
      },
      {
        "astId": 5081,
        "contract": "contracts/SteerToken.sol:SteerToken",
        "label": "__gap",
        "offset": 0,
        "slot": "504",
        "type": "t_array(t_uint256)50_storage"
      }
    ],
    "types": {
      "t_address": {
        "encoding": "inplace",
        "label": "address",
        "numberOfBytes": "20"
      },
      "t_array(t_struct(Checkpoint)6147_storage)dyn_storage": {
        "base": "t_struct(Checkpoint)6147_storage",
        "encoding": "dynamic_array",
        "label": "struct ERC20VotesUpgradeable.Checkpoint[]",
        "numberOfBytes": "32"
      },
      "t_array(t_uint256)45_storage": {
        "base": "t_uint256",
        "encoding": "inplace",
        "label": "uint256[45]",
        "numberOfBytes": "1440"
      },
      "t_array(t_uint256)47_storage": {
        "base": "t_uint256",
        "encoding": "inplace",
        "label": "uint256[47]",
        "numberOfBytes": "1504"
      },
      "t_array(t_uint256)49_storage": {
        "base": "t_uint256",
        "encoding": "inplace",
        "label": "uint256[49]",
        "numberOfBytes": "1568"
      },
      "t_array(t_uint256)50_storage": {
        "base": "t_uint256",
        "encoding": "inplace",
        "label": "uint256[50]",
        "numberOfBytes": "1600"
      },
      "t_bool": {
        "encoding": "inplace",
        "label": "bool",
        "numberOfBytes": "1"
      },
      "t_bytes32": {
        "encoding": "inplace",
        "label": "bytes32",
        "numberOfBytes": "32"
      },
      "t_mapping(t_address,t_address)": {
        "encoding": "mapping",
        "key": "t_address",
        "label": "mapping(address => address)",
        "numberOfBytes": "32",
        "value": "t_address"
      },
      "t_mapping(t_address,t_array(t_struct(Checkpoint)6147_storage)dyn_storage)": {
        "encoding": "mapping",
        "key": "t_address",
        "label": "mapping(address => struct ERC20VotesUpgradeable.Checkpoint[])",
        "numberOfBytes": "32",
        "value": "t_array(t_struct(Checkpoint)6147_storage)dyn_storage"
      },
      "t_mapping(t_address,t_mapping(t_address,t_uint256))": {
        "encoding": "mapping",
        "key": "t_address",
        "label": "mapping(address => mapping(address => uint256))",
        "numberOfBytes": "32",
        "value": "t_mapping(t_address,t_uint256)"
      },
      "t_mapping(t_address,t_struct(Counter)9288_storage)": {
        "encoding": "mapping",
        "key": "t_address",
        "label": "mapping(address => struct CountersUpgradeable.Counter)",
        "numberOfBytes": "32",
        "value": "t_struct(Counter)9288_storage"
      },
      "t_mapping(t_address,t_uint256)": {
        "encoding": "mapping",
        "key": "t_address",
        "label": "mapping(address => uint256)",
        "numberOfBytes": "32",
        "value": "t_uint256"
      },
      "t_string_storage": {
        "encoding": "bytes",
        "label": "string",
        "numberOfBytes": "32"
      },
      "t_struct(Checkpoint)6147_storage": {
        "encoding": "inplace",
        "label": "struct ERC20VotesUpgradeable.Checkpoint",
        "members": [
          {
            "astId": 6144,
            "contract": "contracts/SteerToken.sol:SteerToken",
            "label": "fromBlock",
            "offset": 0,
            "slot": "0",
            "type": "t_uint32"
          },
          {
            "astId": 6146,
            "contract": "contracts/SteerToken.sol:SteerToken",
            "label": "votes",
            "offset": 4,
            "slot": "0",
            "type": "t_uint224"
          }
        ],
        "numberOfBytes": "32"
      },
      "t_struct(Counter)9288_storage": {
        "encoding": "inplace",
        "label": "struct CountersUpgradeable.Counter",
        "members": [
          {
            "astId": 9287,
            "contract": "contracts/SteerToken.sol:SteerToken",
            "label": "_value",
            "offset": 0,
            "slot": "0",
            "type": "t_uint256"
          }
        ],
        "numberOfBytes": "32"
      },
      "t_uint224": {
        "encoding": "inplace",
        "label": "uint224",
        "numberOfBytes": "28"
      },
      "t_uint256": {
        "encoding": "inplace",
        "label": "uint256",
        "numberOfBytes": "32"
      },
      "t_uint32": {
        "encoding": "inplace",
        "label": "uint32",
        "numberOfBytes": "4"
      }
    }
  }
}