{
  "address": "0xEfE1A4a97181d37d9Fd2aacb306E9a2dB956Ccdd",
  "abi": [
    {
      "inputs": [],
      "stateMutability": "nonpayable",
      "type": "constructor"
    },
    {
      "anonymous": false,
      "inputs": [
        {
          "indexed": false,
          "internalType": "address",
          "name": "previousAdmin",
          "type": "address"
        },
        {
          "indexed": false,
          "internalType": "address",
          "name": "newAdmin",
          "type": "address"
        }
      ],
      "name": "AdminChanged",
      "type": "event"
    },
    {
      "anonymous": false,
      "inputs": [
        {
          "indexed": true,
          "internalType": "address",
          "name": "owner",
          "type": "address"
        },
        {
          "indexed": true,
          "internalType": "address",
          "name": "approved",
          "type": "address"
        },
        {
          "indexed": true,
          "internalType": "uint256",
          "name": "tokenId",
          "type": "uint256"
        }
      ],
      "name": "Approval",
      "type": "event"
    },
    {
      "anonymous": false,
      "inputs": [
        {
          "indexed": true,
          "internalType": "address",
          "name": "owner",
          "type": "address"
        },
        {
          "indexed": true,
          "internalType": "address",
          "name": "operator",
          "type": "address"
        },
        {
          "indexed": false,
          "internalType": "bool",
          "name": "approved",
          "type": "bool"
        }
      ],
      "name": "ApprovalForAll",
      "type": "event"
    },
    {
      "anonymous": false,
      "inputs": [
        {
          "indexed": true,
          "internalType": "address",
          "name": "beacon",
          "type": "address"
        }
      ],
      "name": "BeaconUpgraded",
      "type": "event"
    },
    {
      "anonymous": false,
      "inputs": [
        {
          "indexed": true,
          "internalType": "address",
          "name": "previousOwner",
          "type": "address"
        },
        {
          "indexed": true,
          "internalType": "address",
          "name": "newOwner",
          "type": "address"
        }
      ],
      "name": "OwnershipTransferred",
      "type": "event"
    },
    {
      "anonymous": false,
      "inputs": [
        {
          "indexed": false,
          "internalType": "address",
          "name": "account",
          "type": "address"
        }
      ],
      "name": "Paused",
      "type": "event"
    },
    {
      "anonymous": false,
      "inputs": [
        {
          "indexed": true,
          "internalType": "bytes32",
          "name": "role",
          "type": "bytes32"
        },
        {
          "indexed": true,
          "internalType": "bytes32",
          "name": "previousAdminRole",
          "type": "bytes32"
        },
        {
          "indexed": true,
          "internalType": "bytes32",
          "name": "newAdminRole",
          "type": "bytes32"
        }
      ],
      "name": "RoleAdminChanged",
      "type": "event"
    },
    {
      "anonymous": false,
      "inputs": [
        {
          "indexed": true,
          "internalType": "bytes32",
          "name": "role",
          "type": "bytes32"
        },
        {
          "indexed": true,
          "internalType": "address",
          "name": "account",
          "type": "address"
        },
        {
          "indexed": true,
          "internalType": "address",
          "name": "sender",
          "type": "address"
        }
      ],
      "name": "RoleGranted",
      "type": "event"
    },
    {
      "anonymous": false,
      "inputs": [
        {
          "indexed": true,
          "internalType": "bytes32",
          "name": "role",
          "type": "bytes32"
        },
        {
          "indexed": true,
          "internalType": "address",
          "name": "account",
          "type": "address"
        },
        {
          "indexed": true,
          "internalType": "address",
          "name": "sender",
          "type": "address"
        }
      ],
      "name": "RoleRevoked",
      "type": "event"
    },
    {
      "anonymous": false,
      "inputs": [
        {
          "indexed": true,
          "internalType": "address",
          "name": "owner",
          "type": "address"
        },
        {
          "indexed": true,
          "internalType": "uint256",
          "name": "tokenId",
          "type": "uint256"
        },
        {
          "indexed": false,
          "internalType": "string",
          "name": "name",
          "type": "string"
        }
      ],
      "name": "StrategyCreated",
      "type": "event"
    },
    {
      "anonymous": false,
      "inputs": [
        {
          "indexed": true,
          "internalType": "address",
          "name": "from",
          "type": "address"
        },
        {
          "indexed": true,
          "internalType": "address",
          "name": "to",
          "type": "address"
        },
        {
          "indexed": true,
          "internalType": "uint256",
          "name": "tokenId",
          "type": "uint256"
        }
      ],
      "name": "Transfer",
      "type": "event"
    },
    {
      "anonymous": false,
      "inputs": [
        {
          "indexed": false,
          "internalType": "address",
          "name": "account",
          "type": "address"
        }
      ],
      "name": "Unpaused",
      "type": "event"
    },
    {
      "anonymous": false,
      "inputs": [
        {
          "indexed": true,
          "internalType": "address",
          "name": "implementation",
          "type": "address"
        }
      ],
      "name": "Upgraded",
      "type": "event"
    },
    {
      "inputs": [],
      "name": "DEFAULT_ADMIN_ROLE",
      "outputs": [
        {
          "internalType": "bytes32",
          "name": "",
          "type": "bytes32"
        }
      ],
      "stateMutability": "view",
      "type": "function"
    },
    {
      "inputs": [],
      "name": "GOVERNANCE_ROLE",
      "outputs": [
        {
          "internalType": "bytes32",
          "name": "",
          "type": "bytes32"
        }
      ],
      "stateMutability": "view",
      "type": "function"
    },
    {
      "inputs": [],
      "name": "MINTER_ROLE",
      "outputs": [
        {
          "internalType": "bytes32",
          "name": "",
          "type": "bytes32"
        }
      ],
      "stateMutability": "view",
      "type": "function"
    },
    {
      "inputs": [],
      "name": "PAUSER_ROLE",
      "outputs": [
        {
          "internalType": "bytes32",
          "name": "",
          "type": "bytes32"
        }
      ],
      "stateMutability": "view",
      "type": "function"
    },
    {
      "inputs": [],
      "name": "_tokenIdTracker",
      "outputs": [
        {
          "internalType": "uint256",
          "name": "_value",
          "type": "uint256"
        }
      ],
      "stateMutability": "view",
      "type": "function"
    },
    {
      "inputs": [
        {
          "internalType": "address",
          "name": "to",
          "type": "address"
        },
        {
          "internalType": "uint256",
          "name": "tokenId",
          "type": "uint256"
        }
      ],
      "name": "approve",
      "outputs": [],
      "stateMutability": "nonpayable",
      "type": "function"
    },
    {
      "inputs": [
        {
          "internalType": "address",
          "name": "owner",
          "type": "address"
        }
      ],
      "name": "balanceOf",
      "outputs": [
        {
          "internalType": "uint256",
          "name": "",
          "type": "uint256"
        }
      ],
      "stateMutability": "view",
      "type": "function"
    },
    {
      "inputs": [],
      "name": "baseURI",
      "outputs": [
        {
          "internalType": "string",
          "name": "",
          "type": "string"
        }
      ],
      "stateMutability": "view",
      "type": "function"
    },
    {
      "inputs": [
        {
          "internalType": "address",
          "name": "strategyCreator",
          "type": "address"
        },
        {
          "internalType": "string",
          "name": "strategyName",
          "type": "string"
        },
        {
          "internalType": "string",
          "name": "execBundle",
          "type": "string"
        },
        {
          "internalType": "uint128",
          "name": "maxGasCost",
          "type": "uint128"
        },
        {
          "internalType": "uint128",
          "name": "maxGasPerAction",
          "type": "uint128"
        }
      ],
      "name": "createStrategy",
      "outputs": [
        {
          "internalType": "uint256",
          "name": "newStrategyTokenId",
          "type": "uint256"
        }
      ],
      "stateMutability": "nonpayable",
      "type": "function"
    },
    {
      "inputs": [
        {
          "internalType": "uint256",
          "name": "tokenId",
          "type": "uint256"
        }
      ],
      "name": "getApproved",
      "outputs": [
        {
          "internalType": "address",
          "name": "",
          "type": "address"
        }
      ],
      "stateMutability": "view",
      "type": "function"
    },
    {
      "inputs": [
        {
          "internalType": "uint256",
          "name": "tokenId",
          "type": "uint256"
        }
      ],
      "name": "getRegisteredStrategy",
      "outputs": [
        {
          "components": [
            {
              "internalType": "uint256",
              "name": "id",
              "type": "uint256"
            },
            {
              "internalType": "string",
              "name": "name",
              "type": "string"
            },
            {
              "internalType": "address",
              "name": "owner",
              "type": "address"
            },
            {
              "internalType": "string",
              "name": "execBundle",
              "type": "string"
            },
            {
              "internalType": "uint128",
              "name": "maxGasCost",
              "type": "uint128"
            },
            {
              "internalType": "uint128",
              "name": "maxGasPerAction",
              "type": "uint128"
            }
          ],
          "internalType": "struct IStrategyRegistry.RegisteredStrategy",
          "name": "",
          "type": "tuple"
        }
      ],
      "stateMutability": "view",
      "type": "function"
    },
    {
      "inputs": [
        {
          "internalType": "bytes32",
          "name": "role",
          "type": "bytes32"
        }
      ],
      "name": "getRoleAdmin",
      "outputs": [
        {
          "internalType": "bytes32",
          "name": "",
          "type": "bytes32"
        }
      ],
      "stateMutability": "view",
      "type": "function"
    },
    {
      "inputs": [
        {
          "internalType": "bytes32",
          "name": "role",
          "type": "bytes32"
        },
        {
          "internalType": "address",
          "name": "account",
          "type": "address"
        }
      ],
      "name": "grantRole",
      "outputs": [],
      "stateMutability": "nonpayable",
      "type": "function"
    },
    {
      "inputs": [
        {
          "internalType": "bytes32",
          "name": "role",
          "type": "bytes32"
        },
        {
          "internalType": "address",
          "name": "account",
          "type": "address"
        }
      ],
      "name": "hasRole",
      "outputs": [
        {
          "internalType": "bool",
          "name": "",
          "type": "bool"
        }
      ],
      "stateMutability": "view",
      "type": "function"
    },
    {
      "inputs": [],
      "name": "hashedEmptyString",
      "outputs": [
        {
          "internalType": "bytes32",
          "name": "",
          "type": "bytes32"
        }
      ],
      "stateMutability": "view",
      "type": "function"
    },
    {
      "inputs": [
        {
          "internalType": "string",
          "name": "registry",
          "type": "string"
        }
      ],
      "name": "initialize",
      "outputs": [],
      "stateMutability": "nonpayable",
      "type": "function"
    },
    {
      "inputs": [
        {
          "internalType": "address",
          "name": "owner",
          "type": "address"
        },
        {
          "internalType": "address",
          "name": "operator",
          "type": "address"
        }
      ],
      "name": "isApprovedForAll",
      "outputs": [
        {
          "internalType": "bool",
          "name": "",
          "type": "bool"
        }
      ],
      "stateMutability": "view",
      "type": "function"
    },
    {
      "inputs": [],
      "name": "maxMaxGasPerAction",
      "outputs": [
        {
          "internalType": "uint256",
          "name": "",
          "type": "uint256"
        }
      ],
      "stateMutability": "view",
      "type": "function"
    },
    {
      "inputs": [],
      "name": "name",
      "outputs": [
        {
          "internalType": "string",
          "name": "",
          "type": "string"
        }
      ],
      "stateMutability": "view",
      "type": "function"
    },
    {
      "inputs": [],
      "name": "owner",
      "outputs": [
        {
          "internalType": "address",
          "name": "",
          "type": "address"
        }
      ],
      "stateMutability": "view",
      "type": "function"
    },
    {
      "inputs": [
        {
          "internalType": "uint256",
          "name": "tokenId",
          "type": "uint256"
        }
      ],
      "name": "ownerOf",
      "outputs": [
        {
          "internalType": "address",
          "name": "",
          "type": "address"
        }
      ],
      "stateMutability": "view",
      "type": "function"
    },
    {
      "inputs": [],
      "name": "pause",
      "outputs": [],
      "stateMutability": "nonpayable",
      "type": "function"
    },
    {
      "inputs": [],
      "name": "paused",
      "outputs": [
        {
          "internalType": "bool",
          "name": "",
          "type": "bool"
        }
      ],
      "stateMutability": "view",
      "type": "function"
    },
    {
      "inputs": [],
      "name": "renounceOwnership",
      "outputs": [],
      "stateMutability": "nonpayable",
      "type": "function"
    },
    {
      "inputs": [
        {
          "internalType": "bytes32",
          "name": "role",
          "type": "bytes32"
        },
        {
          "internalType": "address",
          "name": "account",
          "type": "address"
        }
      ],
      "name": "renounceRole",
      "outputs": [],
      "stateMutability": "nonpayable",
      "type": "function"
    },
    {
      "inputs": [
        {
          "internalType": "bytes32",
          "name": "role",
          "type": "bytes32"
        },
        {
          "internalType": "address",
          "name": "account",
          "type": "address"
        }
      ],
      "name": "revokeRole",
      "outputs": [],
      "stateMutability": "nonpayable",
      "type": "function"
    },
    {
      "inputs": [
        {
          "internalType": "address",
          "name": "from",
          "type": "address"
        },
        {
          "internalType": "address",
          "name": "to",
          "type": "address"
        },
        {
          "internalType": "uint256",
          "name": "tokenId",
          "type": "uint256"
        }
      ],
      "name": "safeTransferFrom",
      "outputs": [],
      "stateMutability": "nonpayable",
      "type": "function"
    },
    {
      "inputs": [
        {
          "internalType": "address",
          "name": "from",
          "type": "address"
        },
        {
          "internalType": "address",
          "name": "to",
          "type": "address"
        },
        {
          "internalType": "uint256",
          "name": "tokenId",
          "type": "uint256"
        },
        {
          "internalType": "bytes",
          "name": "_data",
          "type": "bytes"
        }
      ],
      "name": "safeTransferFrom",
      "outputs": [],
      "stateMutability": "nonpayable",
      "type": "function"
    },
    {
      "inputs": [
        {
          "internalType": "address",
          "name": "operator",
          "type": "address"
        },
        {
          "internalType": "bool",
          "name": "approved",
          "type": "bool"
        }
      ],
      "name": "setApprovalForAll",
      "outputs": [],
      "stateMutability": "nonpayable",
      "type": "function"
    },
    {
      "inputs": [
        {
          "internalType": "uint256",
          "name": "_tokenId",
          "type": "uint256"
        },
        {
          "internalType": "uint128",
          "name": "_maxGasCost",
          "type": "uint128"
        },
        {
          "internalType": "uint128",
          "name": "_maxGasPerAction",
          "type": "uint128"
        }
      ],
      "name": "setGasParameters",
      "outputs": [],
      "stateMutability": "nonpayable",
      "type": "function"
    },
    {
      "inputs": [
        {
          "internalType": "uint256",
          "name": "_maxMaxGasPerAction",
          "type": "uint256"
        }
      ],
      "name": "setMaxMaxGasPerAction",
      "outputs": [],
      "stateMutability": "nonpayable",
      "type": "function"
    },
    {
      "inputs": [
        {
          "internalType": "string",
          "name": "",
          "type": "string"
        }
      ],
      "name": "strategies",
      "outputs": [
        {
          "internalType": "uint256",
          "name": "id",
          "type": "uint256"
        },
        {
          "internalType": "string",
          "name": "name",
          "type": "string"
        },
        {
          "internalType": "address",
          "name": "owner",
          "type": "address"
        },
        {
          "internalType": "string",
          "name": "execBundle",
          "type": "string"
        },
        {
          "internalType": "uint128",
          "name": "maxGasCost",
          "type": "uint128"
        },
        {
          "internalType": "uint128",
          "name": "maxGasPerAction",
          "type": "uint128"
        }
      ],
      "stateMutability": "view",
      "type": "function"
    },
    {
      "inputs": [
        {
          "internalType": "bytes4",
          "name": "interfaceId",
          "type": "bytes4"
        }
      ],
      "name": "supportsInterface",
      "outputs": [
        {
          "internalType": "bool",
          "name": "",
          "type": "bool"
        }
      ],
      "stateMutability": "view",
      "type": "function"
    },
    {
      "inputs": [],
      "name": "symbol",
      "outputs": [
        {
          "internalType": "string",
          "name": "",
          "type": "string"
        }
      ],
      "stateMutability": "view",
      "type": "function"
    },
    {
      "inputs": [
        {
          "internalType": "uint256",
          "name": "index",
          "type": "uint256"
        }
      ],
      "name": "tokenByIndex",
      "outputs": [
        {
          "internalType": "uint256",
          "name": "",
          "type": "uint256"
        }
      ],
      "stateMutability": "view",
      "type": "function"
    },
    {
      "inputs": [
        {
          "internalType": "uint256",
          "name": "",
          "type": "uint256"
        }
      ],
      "name": "tokenIdToExecBundle",
      "outputs": [
        {
          "internalType": "string",
          "name": "",
          "type": "string"
        }
      ],
      "stateMutability": "view",
      "type": "function"
    },
    {
      "inputs": [
        {
          "internalType": "address",
          "name": "owner",
          "type": "address"
        },
        {
          "internalType": "uint256",
          "name": "index",
          "type": "uint256"
        }
      ],
      "name": "tokenOfOwnerByIndex",
      "outputs": [
        {
          "internalType": "uint256",
          "name": "",
          "type": "uint256"
        }
      ],
      "stateMutability": "view",
      "type": "function"
    },
    {
      "inputs": [
        {
          "internalType": "uint256",
          "name": "tokenId",
          "type": "uint256"
        }
      ],
      "name": "tokenURI",
      "outputs": [
        {
          "internalType": "string",
          "name": "",
          "type": "string"
        }
      ],
      "stateMutability": "view",
      "type": "function"
    },
    {
      "inputs": [],
      "name": "totalSupply",
      "outputs": [
        {
          "internalType": "uint256",
          "name": "",
          "type": "uint256"
        }
      ],
      "stateMutability": "view",
      "type": "function"
    },
    {
      "inputs": [
        {
          "internalType": "address",
          "name": "from",
          "type": "address"
        },
        {
          "internalType": "address",
          "name": "to",
          "type": "address"
        },
        {
          "internalType": "uint256",
          "name": "tokenId",
          "type": "uint256"
        }
      ],
      "name": "transferFrom",
      "outputs": [],
      "stateMutability": "nonpayable",
      "type": "function"
    },
    {
      "inputs": [
        {
          "internalType": "address",
          "name": "newOwner",
          "type": "address"
        }
      ],
      "name": "transferOwnership",
      "outputs": [],
      "stateMutability": "nonpayable",
      "type": "function"
    },
    {
      "inputs": [],
      "name": "unpause",
      "outputs": [],
      "stateMutability": "nonpayable",
      "type": "function"
    },
    {
      "inputs": [
        {
          "internalType": "address",
          "name": "newImplementation",
          "type": "address"
        }
      ],
      "name": "upgradeTo",
      "outputs": [],
      "stateMutability": "nonpayable",
      "type": "function"
    },
    {
      "inputs": [
        {
          "internalType": "address",
          "name": "newImplementation",
          "type": "address"
        },
        {
          "internalType": "bytes",
          "name": "data",
          "type": "bytes"
        }
      ],
      "name": "upgradeToAndCall",
      "outputs": [],
      "stateMutability": "payable",
      "type": "function"
    }
  ],
  "transactionHash": "0xee578eef7fb7bbed5934c0a32c766730032310acc2b78b12b18b4b082b86b214",
  "args": [],
  "numDeployments": 1,
  "solcInputHash": "de4128423a4eb3f1b17d57738cf295f0",
  "bytecode": "0x60a0604052306080523480156200001557600080fd5b50600054610100900460ff16620000335760005460ff16156200003d565b6200003d620000e2565b620000a55760405162461bcd60e51b815260206004820152602e60248201527f496e697469616c697a61626c653a20636f6e747261637420697320616c72656160448201526d191e481a5b9a5d1a585b1a5e995960921b606482015260840160405180910390fd5b600054610100900460ff16158015620000c8576000805461ffff19166101011790555b8015620000db576000805461ff00191690555b5062000106565b6000620000fa306200010060201b62001ca11760201c565b15905090565b3b151590565b608051613d806200013760003960008181610f4c01528181610f8c0152818161125b015261129b0152613d806000f3fe6080604052600436106102675760003560e01c8063715018a611610144578063bfb44ae9116100b6578063e63ab1e91161007a578063e63ab1e914610742578063e985e9c514610764578063f1eb1a2b146107ad578063f2fde38b146107da578063f36c8f5c146107fa578063f62d18881461082e57600080fd5b8063bfb44ae914610683578063c2a36db0146106b7578063c87b56dd146106ce578063d5391393146106ee578063d547741f1461072257600080fd5b806395d89b411161010857806395d89b41146105e157806398bcede9146105f6578063a217fddf1461060e578063a22cb46514610623578063b2c900d314610643578063b88d4fde1461066357600080fd5b8063715018a614610546578063780f1acd1461055b5780638456cb591461058d5780638da5cb5b146105a257806391d14854146105c157600080fd5b80633659cfe6116101dd5780634f1ef286116101a15780634f1ef286146104a65780634f6ccce7146104b95780635c975abb146104d95780636352211e146104f15780636c0360eb1461051157806370a082311461052657600080fd5b80633659cfe6146104115780633e8c792c146104315780633f4ba83a1461045157806342842e0e14610466578063456ec6481461048657600080fd5b806318160ddd1161022f57806318160ddd1461034b57806323b872dd14610360578063248a9ca3146103805780632f2ff15d146103b15780632f745c59146103d157806336568abe146103f157600080fd5b806301ffc9a71461026c57806306fdde03146102a1578063081812fc146102c3578063095ea7b3146102fb578063125c42401461031d575b600080fd5b34801561027857600080fd5b5061028c6102873660046132fd565b61084e565b60405190151581526020015b60405180910390f35b3480156102ad57600080fd5b506102b661085f565b6040516102989190613372565b3480156102cf57600080fd5b506102e36102de366004613385565b6108f1565b6040516001600160a01b039091168152602001610298565b34801561030757600080fd5b5061031b6103163660046133ba565b61098b565b005b34801561032957600080fd5b5061033d610338366004613444565b610aa1565b604051908152602001610298565b34801561035757600080fd5b5060cb5461033d565b34801561036c57600080fd5b5061031b61037b3660046134e6565b610dd5565b34801561038c57600080fd5b5061033d61039b366004613385565b600090815261015f602052604090206001015490565b3480156103bd57600080fd5b5061031b6103cc366004613522565b610e06565b3480156103dd57600080fd5b5061033d6103ec3660046133ba565b610e2d565b3480156103fd57600080fd5b5061031b61040c366004613522565b610ec3565b34801561041d57600080fd5b5061031b61042c36600461354e565b610f41565b34801561043d57600080fd5b5061031b61044c366004613385565b61100a565b34801561045d57600080fd5b5061031b611078565b34801561047257600080fd5b5061031b6104813660046134e6565b61110e565b34801561049257600080fd5b5061031b6104a1366004613569565b611129565b61031b6104b4366004613651565b611250565b3480156104c557600080fd5b5061033d6104d4366004613385565b611306565b3480156104e557600080fd5b5060fb5460ff1661028c565b3480156104fd57600080fd5b506102e361050c366004613385565b611399565b34801561051d57600080fd5b506102b6611410565b34801561053257600080fd5b5061033d61054136600461354e565b61141f565b34801561055257600080fd5b5061031b6114a6565b34801561056757600080fd5b5061057b61057636600461369f565b6114db565b604051610298969594939291906136e8565b34801561059957600080fd5b5061031b611649565b3480156105ae57600080fd5b506101f5546001600160a01b03166102e3565b3480156105cd57600080fd5b5061028c6105dc366004613522565b6116db565b3480156105ed57600080fd5b506102b6611707565b34801561060257600080fd5b5061022a5461033d9081565b34801561061a57600080fd5b5061033d600081565b34801561062f57600080fd5b5061031b61063e366004613749565b611716565b34801561064f57600080fd5b506102b661065e366004613385565b611721565b34801561066f57600080fd5b5061031b61067e366004613785565b6117bc565b34801561068f57600080fd5b5061033d7fc5d2460186f7233c927e7db2dcc703c0e500b653ca82273b7bfad8045d85a47081565b3480156106c357600080fd5b5061033d61022b5481565b3480156106da57600080fd5b506102b66106e9366004613385565b6117f4565b3480156106fa57600080fd5b5061033d7f9f2df0fed2c77648de5860a4cc508cd0818c85b8b8a1ab4ceeef8d981c8956a681565b34801561072e57600080fd5b5061031b61073d366004613522565b6117fe565b34801561074e57600080fd5b5061033d600080516020613d0483398151915281565b34801561077057600080fd5b5061028c61077f3660046137ed565b6001600160a01b039182166000908152606a6020908152604080832093909416825291909152205460ff1690565b3480156107b957600080fd5b506107cd6107c8366004613385565b611825565b6040516102989190613817565b3480156107e657600080fd5b5061031b6107f536600461354e565b611a22565b34801561080657600080fd5b5061033d7f71840dc4906352362b0cdaf79870196c8e42acafade72d5d5a6d59291253ceb181565b34801561083a57600080fd5b5061031b61084936600461369f565b611abb565b600061085982611ca7565b92915050565b60606065805461086e906138a0565b80601f016020809104026020016040519081016040528092919081815260200182805461089a906138a0565b80156108e75780601f106108bc576101008083540402835291602001916108e7565b820191906000526020600020905b8154815290600101906020018083116108ca57829003601f168201915b5050505050905090565b6000818152606760205260408120546001600160a01b031661096f5760405162461bcd60e51b815260206004820152602c60248201527f4552433732313a20617070726f76656420717565727920666f72206e6f6e657860448201526b34b9ba32b73a103a37b5b2b760a11b60648201526084015b60405180910390fd5b506000908152606960205260409020546001600160a01b031690565b600061099682611399565b9050806001600160a01b0316836001600160a01b03161415610a045760405162461bcd60e51b815260206004820152602160248201527f4552433732313a20617070726f76616c20746f2063757272656e74206f776e656044820152603960f91b6064820152608401610966565b336001600160a01b0382161480610a205750610a20813361077f565b610a925760405162461bcd60e51b815260206004820152603860248201527f4552433732313a20617070726f76652063616c6c6572206973206e6f74206f7760448201527f6e6572206e6f7220617070726f76656420666f7220616c6c00000000000000006064820152608401610966565b610a9c8383611ccc565b505050565b6000808585604051602001610ab79291906138db565b6040516020818303038152906040528051906020012090507fc5d2460186f7233c927e7db2dcc703c0e500b653ca82273b7bfad8045d85a470811415610b275760405162461bcd60e51b8152602060048201526005602482015264456d70747960d81b6044820152606401610966565b806102288787604051610b3b9291906138db565b9081526020016040518091039020600301604051602001610b5c91906138eb565b604051602081830303815290604052805190602001201415610ba95760405162461bcd60e51b815260206004820152600660248201526545786973747360d01b6044820152606401610966565b61022b54836001600160801b03161115610c005760405162461bcd60e51b81526020600482015260186024820152770dac2f08ec2e6a0cae482c6e8d2dedc40e8dede40d0d2ced60431b6044820152606401610966565b610c0b898787611d3a565b91506040518060c0016040528083815260200189898080601f0160208091040260200160405190810160405280939291908181526020018383808284376000920191909152505050908252506001600160a01b038b1660208083019190915260408051601f8a0183900483028101830182528981529201919089908990819084018382808284376000920191909152505050908252506001600160801b03808716602083015285166040918201525161022890610ccb90899089906138db565b9081526020016040518091039020600082015181600001556020820151816001019080519060200190610cff9291906131da565b5060408201516002820180546001600160a01b0319166001600160a01b0390921691909117905560608201518051610d419160038401916020909101906131da565b50608082015160a0909201516001600160801b03908116600160801b02921691909117600490910155600082815261022960205260409020610d8490878761325e565b5081896001600160a01b03167f7052642ef562f5c864625a76bc84583678fa33406b6d8462432c2e8ab06acc148a8a604051610dc1929190613987565b60405180910390a350979650505050505050565b610ddf3382611dac565b610dfb5760405162461bcd60e51b8152600401610966906139b6565b610a9c838383611ea3565b600082815261015f6020526040902060010154610e23813361204e565b610a9c83836120b2565b6000610e388361141f565b8210610e9a5760405162461bcd60e51b815260206004820152602b60248201527f455243373231456e756d657261626c653a206f776e657220696e646578206f7560448201526a74206f6620626f756e647360a81b6064820152608401610966565b506001600160a01b0391909116600090815260c960209081526040808320938352929052205490565b6001600160a01b0381163314610f335760405162461bcd60e51b815260206004820152602f60248201527f416363657373436f6e74726f6c3a2063616e206f6e6c792072656e6f756e636560448201526e103937b632b9903337b91039b2b63360891b6064820152608401610966565b610f3d8282612139565b5050565b306001600160a01b037f0000000000000000000000000000000000000000000000000000000000000000161415610f8a5760405162461bcd60e51b815260040161096690613a07565b7f00000000000000000000000000000000000000000000000000000000000000006001600160a01b0316610fbc6121a1565b6001600160a01b031614610fe25760405162461bcd60e51b815260040161096690613a53565b610feb816121cf565b60408051600080825260208201909252611007918391906121fa565b50565b6101f5546001600160a01b031633146110355760405162461bcd60e51b815260040161096690613a9f565b62e4e1c08110156110725760405162461bcd60e51b8152602060048201526007602482015266125b9d985b1a5960ca1b6044820152606401610966565b61022b55565b611090600080516020613d04833981519152336116db565b611104576040805162461bcd60e51b81526020600482015260248101919091527f4552433732315072657365744d696e7465725061757365724175746f49643a2060448201527f6d75737420686176652070617573657220726f6c6520746f20756e70617573656064820152608401610966565b61110c612345565b565b610a9c838383604051806020016040528060008152506117bc565b61113283611399565b6001600160a01b0316336001600160a01b0316146111a55760405162461bcd60e51b815260206004820152602a60248201527f4f6e6c79207374726174656779206f776e65722063616e207365742067617320604482015269706172616d657465727360b01b6064820152608401610966565b61022b54816001600160801b031611156111fc5760405162461bcd60e51b81526020600482015260186024820152770dac2f08ec2e6a0cae482c6e8d2dedc40e8dede40d0d2ced60431b6044820152606401610966565b6000838152610229602052604080822090516102289161121b916138eb565b9081526040519081900360200190206001600160801b03928316600160801b0292909316919091176004909201919091555050565b306001600160a01b037f00000000000000000000000000000000000000000000000000000000000000001614156112995760405162461bcd60e51b815260040161096690613a07565b7f00000000000000000000000000000000000000000000000000000000000000006001600160a01b03166112cb6121a1565b6001600160a01b0316146112f15760405162461bcd60e51b815260040161096690613a53565b6112fa826121cf565b610f3d828260016121fa565b600061131160cb5490565b82106113745760405162461bcd60e51b815260206004820152602c60248201527f455243373231456e756d657261626c653a20676c6f62616c20696e646578206f60448201526b7574206f6620626f756e647360a01b6064820152608401610966565b60cb828154811061138757611387613ad4565b90600052602060002001549050919050565b6000818152606760205260408120546001600160a01b0316806108595760405162461bcd60e51b815260206004820152602960248201527f4552433732313a206f776e657220717565727920666f72206e6f6e657869737460448201526832b73a103a37b5b2b760b91b6064820152608401610966565b606061141a6123d8565b905090565b60006001600160a01b03821661148a5760405162461bcd60e51b815260206004820152602a60248201527f4552433732313a2062616c616e636520717565727920666f7220746865207a65604482015269726f206164647265737360b01b6064820152608401610966565b506001600160a01b031660009081526068602052604090205490565b6101f5546001600160a01b031633146114d15760405162461bcd60e51b815260040161096690613a9f565b61110c60006123e8565b80516020818301810180516102288252928201919093012091528054600182018054919291611509906138a0565b80601f0160208091040260200160405190810160405280929190818152602001828054611535906138a0565b80156115825780601f1061155757610100808354040283529160200191611582565b820191906000526020600020905b81548152906001019060200180831161156557829003601f168201915b505050600284015460038501805494956001600160a01b039092169491935091506115ac906138a0565b80601f01602080910402602001604051908101604052809291908181526020018280546115d8906138a0565b80156116255780601f106115fa57610100808354040283529160200191611625565b820191906000526020600020905b81548152906001019060200180831161160857829003601f168201915b505050600490930154919250506001600160801b0380821691600160801b90041686565b611661600080516020613d04833981519152336116db565b6116d35760405162461bcd60e51b815260206004820152603e60248201527f4552433732315072657365744d696e7465725061757365724175746f49643a2060448201527f6d75737420686176652070617573657220726f6c6520746f20706175736500006064820152608401610966565b61110c61243b565b600091825261015f602090815260408084206001600160a01b0393909316845291905290205460ff1690565b60606066805461086e906138a0565b610f3d3383836124b6565b610229602052600090815260409020805461173b906138a0565b80601f0160208091040260200160405190810160405280929190818152602001828054611767906138a0565b80156117b45780601f10611789576101008083540402835291602001916117b4565b820191906000526020600020905b81548152906001019060200180831161179757829003601f168201915b505050505081565b6117c63383611dac565b6117e25760405162461bcd60e51b8152600401610966906139b6565b6117ee84848484612585565b50505050565b60606108596123d8565b600082815261015f602052604090206001015461181b813361204e565b610a9c8383612139565b6118796040518060c00160405280600081526020016060815260200160006001600160a01b031681526020016060815260200160006001600160801b0316815260200160006001600160801b031681525090565b6000828152610229602052604090819020905161022891611899916138eb565b90815260200160405180910390206040518060c0016040529081600082015481526020016001820180546118cc906138a0565b80601f01602080910402602001604051908101604052809291908181526020018280546118f8906138a0565b80156119455780601f1061191a57610100808354040283529160200191611945565b820191906000526020600020905b81548152906001019060200180831161192857829003601f168201915b505050918352505060028201546001600160a01b03166020820152600382018054604090920191611975906138a0565b80601f01602080910402602001604051908101604052809291908181526020018280546119a1906138a0565b80156119ee5780601f106119c3576101008083540402835291602001916119ee565b820191906000526020600020905b8154815290600101906020018083116119d157829003601f168201915b5050509183525050600491909101546001600160801b038082166020840152600160801b9091041660409091015292915050565b6101f5546001600160a01b03163314611a4d5760405162461bcd60e51b815260040161096690613a9f565b6001600160a01b038116611ab25760405162461bcd60e51b815260206004820152602660248201527f4f776e61626c653a206e6577206f776e657220697320746865207a65726f206160448201526564647265737360d01b6064820152608401610966565b611007816123e8565b600054610100900460ff16611ad65760005460ff1615611ada565b303b155b611b3d5760405162461bcd60e51b815260206004820152602e60248201527f496e697469616c697a61626c653a20636f6e747261637420697320616c72656160448201526d191e481a5b9a5d1a585b1a5e995960921b6064820152608401610966565b600054610100900460ff16158015611b5f576000805461ffff19166101011790555b611b676125b8565b611b6f6125e7565b611b7761261e565b611b7f6125b8565b611b8761264d565b611bd86040518060400160405280600e81526020016d537465657220537472617465677960901b815250604051806040016040528060098152602001685354525f535254475960b81b81525061267c565b611be061264d565b611be86126bd565b611bf06126f4565b611bf861264d565b611c03600033612733565b611c2d7f9f2df0fed2c77648de5860a4cc508cd0818c85b8b8a1ab4ceeef8d981c8956a633612733565b611c45600080516020613d0483398151915233612733565b611c6f7f71840dc4906352362b0cdaf79870196c8e42acafade72d5d5a6d59291253ceb133612733565b8151611c83906102279060208501906131da565b5062e4e1c061022b558015610f3d576000805461ff00191690555050565b3b151590565b60006001600160e01b03198216637965db0b60e01b148061085957506108598261273d565b600081815260696020526040902080546001600160a01b0319166001600160a01b0384169081179091558190611d0182611399565b6001600160a01b03167f8c5be1e5ebec7d5bd14f71427d1e84f3dd0314c0f7b2291e5b200ac8c7c3b92560405160405180910390a45050565b600080611d4761022a5490565b9050611d538582612762565b611d938185858080601f0160208091040260200160405190810160405280939291908181526020018383808284376000920191909152506128b092505050565b611da261022a80546001019055565b90505b9392505050565b6000818152606760205260408120546001600160a01b0316611e255760405162461bcd60e51b815260206004820152602c60248201527f4552433732313a206f70657261746f7220717565727920666f72206e6f6e657860448201526b34b9ba32b73a103a37b5b2b760a11b6064820152608401610966565b6000611e3083611399565b9050806001600160a01b0316846001600160a01b03161480611e6b5750836001600160a01b0316611e60846108f1565b6001600160a01b0316145b80611e9b57506001600160a01b038082166000908152606a602090815260408083209388168352929052205460ff165b949350505050565b826001600160a01b0316611eb682611399565b6001600160a01b031614611f1e5760405162461bcd60e51b815260206004820152602960248201527f4552433732313a207472616e73666572206f6620746f6b656e2074686174206960448201526839903737ba1037bbb760b91b6064820152608401610966565b6001600160a01b038216611f805760405162461bcd60e51b8152602060048201526024808201527f4552433732313a207472616e7366657220746f20746865207a65726f206164646044820152637265737360e01b6064820152608401610966565b611f8b83838361294a565b611f96600082611ccc565b6001600160a01b0383166000908152606860205260408120805460019290611fbf908490613b00565b90915550506001600160a01b0382166000908152606860205260408120805460019290611fed908490613b17565b909155505060008181526067602052604080822080546001600160a01b0319166001600160a01b0386811691821790925591518493918716917fddf252ad1be2c89b69c2b068fc378daa952ba7f163c4a11628f55a4df523b3ef91a4505050565b61205882826116db565b610f3d57612070816001600160a01b03166014612955565b61207b836020612955565b60405160200161208c929190613b2f565b60408051601f198184030181529082905262461bcd60e51b825261096691600401613372565b6120bc82826116db565b610f3d57600082815261015f602090815260408083206001600160a01b03851684529091529020805460ff191660011790556120f53390565b6001600160a01b0316816001600160a01b0316837f2f8788117e7eff1d82e926ec794901d17c78024a50270940304540a733656f0d60405160405180910390a45050565b61214382826116db565b15610f3d57600082815261015f602090815260408083206001600160a01b0385168085529252808320805460ff1916905551339285917ff6391f5c32d9c69d2a47ea670b442974b53935d1edc7fd64eb21e047a839171b9190a45050565b7f360894a13ba1a3210667c828492db98dca3e2076cc3735a920a3ca505d382bbc546001600160a01b031690565b6101f5546001600160a01b031633146110075760405162461bcd60e51b815260040161096690613a9f565b60006122046121a1565b905061220f84612af1565b60008351118061221c5750815b1561222d5761222b8484612b96565b505b7f4910fdfa16fed3260ed0e7147f7cc6da11a60208b5b9406d12a635614ffd9143805460ff1661233e57805460ff191660011781556040516001600160a01b03831660248201526122ac90869060440160408051601f198184030181529190526020810180516001600160e01b0316631b2ce7f360e11b179052612b96565b50805460ff191681556122bd6121a1565b6001600160a01b0316826001600160a01b0316146123355760405162461bcd60e51b815260206004820152602f60248201527f45524331393637557067726164653a207570677261646520627265616b73206660448201526e75727468657220757067726164657360881b6064820152608401610966565b61233e85612c81565b5050505050565b60fb5460ff1661238e5760405162461bcd60e51b815260206004820152601460248201527314185d5cd8589b194e881b9bdd081c185d5cd95960621b6044820152606401610966565b60fb805460ff191690557f5db9ee0a495bf2e6ff9c91a7834c1ba4fdd244a5e8aa4e537bd38aeae4b073aa335b6040516001600160a01b03909116815260200160405180910390a1565b6060610227805461086e906138a0565b6101f580546001600160a01b038381166001600160a01b0319831681179093556040519116919082907f8be0079c531659141344cd1fd0a4f28419497f9722a3daafe3b4186f6b6457e090600090a35050565b60fb5460ff16156124815760405162461bcd60e51b815260206004820152601060248201526f14185d5cd8589b194e881c185d5cd95960821b6044820152606401610966565b60fb805460ff191660011790557f62e78cea01bee320cd4e420270b5ea74000d11b0c9f74754ebdbfc544b05a2586123bb3390565b816001600160a01b0316836001600160a01b031614156125185760405162461bcd60e51b815260206004820152601960248201527f4552433732313a20617070726f766520746f2063616c6c6572000000000000006044820152606401610966565b6001600160a01b038381166000818152606a6020908152604080832094871680845294825291829020805460ff191686151590811790915591519182527f17307eab39ab6107e8899845ad3d59bd9653f200f220920489ca2b5937696c31910160405180910390a3505050565b612590848484611ea3565b61259c84848484612cc1565b6117ee5760405162461bcd60e51b815260040161096690613ba4565b600054610100900460ff166125df5760405162461bcd60e51b815260040161096690613bf6565b61110c612dbf565b600054610100900460ff1661260e5760405162461bcd60e51b815260040161096690613bf6565b612616612dbf565b61110c612de6565b600054610100900460ff166126455760405162461bcd60e51b815260040161096690613bf6565b6125df612dbf565b600054610100900460ff166126745760405162461bcd60e51b815260040161096690613bf6565b612645612dbf565b600054610100900460ff166126a35760405162461bcd60e51b815260040161096690613bf6565b6126ab612dbf565b6126b3612dbf565b610f3d8282612e16565b600054610100900460ff166126e45760405162461bcd60e51b815260040161096690613bf6565b6126ec612dbf565b61110c612e64565b600054610100900460ff1661271b5760405162461bcd60e51b815260040161096690613bf6565b612723612dbf565b61272b612dbf565b6125df612e64565b610f3d82826120b2565b60006001600160e01b0319821663780e9d6360e01b1480610859575061085982612e97565b6001600160a01b0382166127b85760405162461bcd60e51b815260206004820181905260248201527f4552433732313a206d696e7420746f20746865207a65726f20616464726573736044820152606401610966565b6000818152606760205260409020546001600160a01b03161561281d5760405162461bcd60e51b815260206004820152601c60248201527f4552433732313a20746f6b656e20616c7265616479206d696e746564000000006044820152606401610966565b6128296000838361294a565b6001600160a01b0382166000908152606860205260408120805460019290612852908490613b17565b909155505060008181526067602052604080822080546001600160a01b0319166001600160a01b03861690811790915590518392907fddf252ad1be2c89b69c2b068fc378daa952ba7f163c4a11628f55a4df523b3ef908290a45050565b6000828152606760205260409020546001600160a01b031661292b5760405162461bcd60e51b815260206004820152602e60248201527f45524337323155524953746f726167653a2055524920736574206f66206e6f6e60448201526d32bc34b9ba32b73a103a37b5b2b760911b6064820152608401610966565b60008281526097602090815260409091208251610a9c928401906131da565b610a9c838383612ee7565b60606000612964836002613c41565b61296f906002613b17565b67ffffffffffffffff811115612987576129876135a5565b6040519080825280601f01601f1916602001820160405280156129b1576020820181803683370190505b509050600360fc1b816000815181106129cc576129cc613ad4565b60200101906001600160f81b031916908160001a905350600f60fb1b816001815181106129fb576129fb613ad4565b60200101906001600160f81b031916908160001a9053506000612a1f846002613c41565b612a2a906001613b17565b90505b6001811115612aa2576f181899199a1a9b1b9c1cb0b131b232b360811b85600f1660108110612a5e57612a5e613ad4565b1a60f81b828281518110612a7457612a74613ad4565b60200101906001600160f81b031916908160001a90535060049490941c93612a9b81613c60565b9050612a2d565b508315611da55760405162461bcd60e51b815260206004820181905260248201527f537472696e67733a20686578206c656e67746820696e73756666696369656e746044820152606401610966565b803b612b555760405162461bcd60e51b815260206004820152602d60248201527f455243313936373a206e657720696d706c656d656e746174696f6e206973206e60448201526c1bdd08184818dbdb9d1c9858dd609a1b6064820152608401610966565b7f360894a13ba1a3210667c828492db98dca3e2076cc3735a920a3ca505d382bbc80546001600160a01b0319166001600160a01b0392909216919091179055565b6060823b612bf55760405162461bcd60e51b815260206004820152602660248201527f416464726573733a2064656c65676174652063616c6c20746f206e6f6e2d636f6044820152651b9d1c9858dd60d21b6064820152608401610966565b600080846001600160a01b031684604051612c109190613c77565b600060405180830381855af49150503d8060008114612c4b576040519150601f19603f3d011682016040523d82523d6000602084013e612c50565b606091505b5091509150612c788282604051806060016040528060278152602001613d2460279139612f59565b95945050505050565b612c8a81612af1565b6040516001600160a01b038216907fbc7cd75a20ee27fd9adebab32041f755214dbc6bffa90cc0225b39da2e5c2d3b90600090a250565b60006001600160a01b0384163b15612db457604051630a85bd0160e11b81526001600160a01b0385169063150b7a0290612d05903390899088908890600401613c93565b6020604051808303816000875af1925050508015612d40575060408051601f3d908101601f19168201909252612d3d91810190613cd0565b60015b612d9a573d808015612d6e576040519150601f19603f3d011682016040523d82523d6000602084013e612d73565b606091505b508051612d925760405162461bcd60e51b815260040161096690613ba4565b805181602001fd5b6001600160e01b031916630a85bd0160e11b149050611e9b565b506001949350505050565b600054610100900460ff1661110c5760405162461bcd60e51b815260040161096690613bf6565b600054610100900460ff16612e0d5760405162461bcd60e51b815260040161096690613bf6565b61110c336123e8565b600054610100900460ff16612e3d5760405162461bcd60e51b815260040161096690613bf6565b8151612e509060659060208501906131da565b508051610a9c9060669060208401906131da565b600054610100900460ff16612e8b5760405162461bcd60e51b815260040161096690613bf6565b60fb805460ff19169055565b60006001600160e01b031982166380ac58cd60e01b1480612ec857506001600160e01b03198216635b5e139f60e01b145b8061085957506301ffc9a760e01b6001600160e01b0319831614610859565b612ef2838383612f92565b60fb5460ff1615610a9c5760405162461bcd60e51b815260206004820152602b60248201527f4552433732315061757361626c653a20746f6b656e207472616e73666572207760448201526a1a1a5b19481c185d5cd95960aa1b6064820152608401610966565b60608315612f68575081611da5565b825115612f785782518084602001fd5b8160405162461bcd60e51b81526004016109669190613372565b6001600160a01b038316612fed57612fe88160cb8054600083815260cc60205260408120829055600182018355919091527fa7ce836d032b2bf62b7e2097a8e0a6d8aeb35405ad15271e96d3b0188a1d06fb0155565b613010565b816001600160a01b0316836001600160a01b03161461301057613010838261304a565b6001600160a01b03821661302757610a9c816130e7565b826001600160a01b0316826001600160a01b031614610a9c57610a9c8282613196565b600060016130578461141f565b6130619190613b00565b600083815260ca60205260409020549091508082146130b4576001600160a01b038416600090815260c960209081526040808320858452825280832054848452818420819055835260ca90915290208190555b50600091825260ca602090815260408084208490556001600160a01b03909416835260c981528383209183525290812055565b60cb546000906130f990600190613b00565b600083815260cc602052604081205460cb805493945090928490811061312157613121613ad4565b906000526020600020015490508060cb838154811061314257613142613ad4565b600091825260208083209091019290925582815260cc909152604080822084905585825281205560cb80548061317a5761317a613ced565b6001900381819060005260206000200160009055905550505050565b60006131a18361141f565b6001600160a01b03909316600090815260c960209081526040808320868452825280832085905593825260ca9052919091209190915550565b8280546131e6906138a0565b90600052602060002090601f016020900481019282613208576000855561324e565b82601f1061322157805160ff191683800117855561324e565b8280016001018555821561324e579182015b8281111561324e578251825591602001919060010190613233565b5061325a9291506132d2565b5090565b82805461326a906138a0565b90600052602060002090601f01602090048101928261328c576000855561324e565b82601f106132a55782800160ff1982351617855561324e565b8280016001018555821561324e579182015b8281111561324e5782358255916020019190600101906132b7565b5b8082111561325a57600081556001016132d3565b6001600160e01b03198116811461100757600080fd5b60006020828403121561330f57600080fd5b8135611da5816132e7565b60005b8381101561333557818101518382015260200161331d565b838111156117ee5750506000910152565b6000815180845261335e81602086016020860161331a565b601f01601f19169290920160200192915050565b602081526000611da56020830184613346565b60006020828403121561339757600080fd5b5035919050565b80356001600160a01b03811681146133b557600080fd5b919050565b600080604083850312156133cd57600080fd5b6133d68361339e565b946020939093013593505050565b60008083601f8401126133f657600080fd5b50813567ffffffffffffffff81111561340e57600080fd5b60208301915083602082850101111561342657600080fd5b9250929050565b80356001600160801b03811681146133b557600080fd5b600080600080600080600060a0888a03121561345f57600080fd5b6134688861339e565b9650602088013567ffffffffffffffff8082111561348557600080fd5b6134918b838c016133e4565b909850965060408a01359150808211156134aa57600080fd5b506134b78a828b016133e4565b90955093506134ca90506060890161342d565b91506134d86080890161342d565b905092959891949750929550565b6000806000606084860312156134fb57600080fd5b6135048461339e565b92506135126020850161339e565b9150604084013590509250925092565b6000806040838503121561353557600080fd5b823591506135456020840161339e565b90509250929050565b60006020828403121561356057600080fd5b611da58261339e565b60008060006060848603121561357e57600080fd5b8335925061358e6020850161342d565b915061359c6040850161342d565b90509250925092565b634e487b7160e01b600052604160045260246000fd5b600067ffffffffffffffff808411156135d6576135d66135a5565b604051601f8501601f19908116603f011681019082821181831017156135fe576135fe6135a5565b8160405280935085815286868601111561361757600080fd5b858560208301376000602087830101525050509392505050565b600082601f83011261364257600080fd5b611da5838335602085016135bb565b6000806040838503121561366457600080fd5b61366d8361339e565b9150602083013567ffffffffffffffff81111561368957600080fd5b61369585828601613631565b9150509250929050565b6000602082840312156136b157600080fd5b813567ffffffffffffffff8111156136c857600080fd5b8201601f810184136136d957600080fd5b611e9b848235602084016135bb565b86815260c06020820152600061370160c0830188613346565b6001600160a01b038716604084015282810360608401526137228187613346565b9150506001600160801b03808516608084015280841660a084015250979650505050505050565b6000806040838503121561375c57600080fd5b6137658361339e565b91506020830135801515811461377a57600080fd5b809150509250929050565b6000806000806080858703121561379b57600080fd5b6137a48561339e565b93506137b26020860161339e565b925060408501359150606085013567ffffffffffffffff8111156137d557600080fd5b6137e187828801613631565b91505092959194509250565b6000806040838503121561380057600080fd5b6138098361339e565b91506135456020840161339e565b60208152815160208201526000602083015160c0604084015261383d60e0840182613346565b60408501516001600160a01b0316606085810191909152850151848203601f190160808601529091506138708282613346565b91505060808401516001600160801b0380821660a08601528060a08701511660c086015250508091505092915050565b600181811c908216806138b457607f821691505b602082108114156138d557634e487b7160e01b600052602260045260246000fd5b50919050565b8183823760009101908152919050565b600080835481600182811c91508083168061390757607f831692505b602080841082141561392757634e487b7160e01b86526022600452602486fd5b81801561393b576001811461394c57613979565b60ff19861689528489019650613979565b60008a81526020902060005b868110156139715781548b820152908501908301613958565b505084890196505b509498975050505050505050565b60208152816020820152818360408301376000818301604090810191909152601f909201601f19160101919050565b60208082526031908201527f4552433732313a207472616e736665722063616c6c6572206973206e6f74206f6040820152701ddb995c881b9bdc88185c1c1c9bdd9959607a1b606082015260800190565b6020808252602c908201527f46756e6374696f6e206d7573742062652063616c6c6564207468726f7567682060408201526b19195b1959d85d1958d85b1b60a21b606082015260800190565b6020808252602c908201527f46756e6374696f6e206d7573742062652063616c6c6564207468726f7567682060408201526b6163746976652070726f787960a01b606082015260800190565b6020808252818101527f4f776e61626c653a2063616c6c6572206973206e6f7420746865206f776e6572604082015260600190565b634e487b7160e01b600052603260045260246000fd5b634e487b7160e01b600052601160045260246000fd5b600082821015613b1257613b12613aea565b500390565b60008219821115613b2a57613b2a613aea565b500190565b7f416363657373436f6e74726f6c3a206163636f756e7420000000000000000000815260008351613b6781601785016020880161331a565b7001034b99036b4b9b9b4b733903937b6329607d1b6017918401918201528351613b9881602884016020880161331a565b01602801949350505050565b60208082526032908201527f4552433732313a207472616e7366657220746f206e6f6e20455243373231526560408201527131b2b4bb32b91034b6b83632b6b2b73a32b960711b606082015260800190565b6020808252602b908201527f496e697469616c697a61626c653a20636f6e7472616374206973206e6f74206960408201526a6e697469616c697a696e6760a81b606082015260800190565b6000816000190483118215151615613c5b57613c5b613aea565b500290565b600081613c6f57613c6f613aea565b506000190190565b60008251613c8981846020870161331a565b9190910192915050565b6001600160a01b0385811682528416602082015260408101839052608060608201819052600090613cc690830184613346565b9695505050505050565b600060208284031215613ce257600080fd5b8151611da5816132e7565b634e487b7160e01b600052603160045260246000fdfe65d7a28e3265b37a6474929f336521b332c1681b933f6cb9f3376673440d862a416464726573733a206c6f772d6c6576656c2064656c65676174652063616c6c206661696c6564a264697066735822122060939cbbad220eb2c581ec16f985b85256924d876acc699ae2b33713c75488eb64736f6c634300080c0033",
  "devdoc": {
    "author": "Steer Protocol",
    "details": "All strategies are registered through this contract.This is where strategy bundles are stored as well as the offline data needed to decode parameters stored on a vault.",
    "kind": "dev",
    "methods": {
      "approve(address,uint256)": {
        "details": "See {IERC721-approve}."
      },
      "balanceOf(address)": {
        "details": "See {IERC721-balanceOf}."
      },
      "baseURI()": {
        "details": "Get the base URI",
        "returns": {
          "_0": "The base URI of the registry"
        }
      },
      "constructor": {
        "custom:oz-upgrades-unsafe-allow": "constructor"
      },
      "createStrategy(address,string,string,uint128,uint128)": {
        "details": "Create NFT for execution bundle",
        "params": {
          "execBundle": "The IPFS reference of the execution bundle.",
          "maxGasCost": "The maximum gas cost of the strategy.",
          "maxGasPerAction": "The maximum gas per action of the strategy, in terms of wei / gas.",
          "strategyName": "The name of the strategy."
        },
        "returns": {
          "newStrategyTokenId": "as the token id of the new NFT."
        }
      },
      "getApproved(uint256)": {
        "details": "See {IERC721-getApproved}."
      },
      "getRegisteredStrategy(uint256)": {
        "details": "Get the strategy details by tokenId",
        "params": {
          "tokenId": "The token id of the strategy"
        },
        "returns": {
          "_0": "The details of the strategy"
        }
      },
      "getRoleAdmin(bytes32)": {
        "details": "Returns the admin role that controls `role`. See {grantRole} and {revokeRole}. To change a role's admin, use {_setRoleAdmin}."
      },
      "grantRole(bytes32,address)": {
        "details": "Grants `role` to `account`. If `account` had not been already granted `role`, emits a {RoleGranted} event. Requirements: - the caller must have ``role``'s admin role."
      },
      "hasRole(bytes32,address)": {
        "details": "Returns `true` if `account` has been granted `role`."
      },
      "isApprovedForAll(address,address)": {
        "details": "See {IERC721-isApprovedForAll}."
      },
      "name()": {
        "details": "See {IERC721Metadata-name}."
      },
      "owner()": {
        "details": "Returns the address of the current owner."
      },
      "ownerOf(uint256)": {
        "details": "See {IERC721-ownerOf}."
      },
      "pause()": {
        "details": "Pauses all token transfers. See {ERC721Pausable} and {Pausable-_pause}. Requirements: - the caller must have the `PAUSER_ROLE`."
      },
      "paused()": {
        "details": "Returns true if the contract is paused, and false otherwise."
      },
      "renounceOwnership()": {
        "details": "Leaves the contract without owner. It will not be possible to call `onlyOwner` functions anymore. Can only be called by the current owner. NOTE: Renouncing ownership will leave the contract without an owner, thereby removing any functionality that is only available to the owner."
      },
      "renounceRole(bytes32,address)": {
        "details": "Revokes `role` from the calling account. Roles are often managed via {grantRole} and {revokeRole}: this function's purpose is to provide a mechanism for accounts to lose their privileges if they are compromised (such as when a trusted device is misplaced). If the calling account had been revoked `role`, emits a {RoleRevoked} event. Requirements: - the caller must be `account`."
      },
      "revokeRole(bytes32,address)": {
        "details": "Revokes `role` from `account`. If `account` had been granted `role`, emits a {RoleRevoked} event. Requirements: - the caller must have ``role``'s admin role."
      },
      "safeTransferFrom(address,address,uint256)": {
        "details": "See {IERC721-safeTransferFrom}."
      },
      "safeTransferFrom(address,address,uint256,bytes)": {
        "details": "See {IERC721-safeTransferFrom}."
      },
      "setApprovalForAll(address,bool)": {
        "details": "See {IERC721-setApprovalForAll}."
      },
      "setGasParameters(uint256,uint128,uint128)": {
        "details": "Set the gas parameters for a given strategy",
        "params": {
          "_maxGasCost": "The maximum gas cost of the strategy",
          "_maxGasPerAction": "The maximum gas per action of the strategy",
          "_tokenId": "The token id of the strategy"
        }
      },
      "supportsInterface(bytes4)": {
        "details": "See {IERC165-supportsInterface}."
      },
      "symbol()": {
        "details": "See {IERC721Metadata-symbol}."
      },
      "tokenByIndex(uint256)": {
        "details": "See {IERC721Enumerable-tokenByIndex}."
      },
      "tokenOfOwnerByIndex(address,uint256)": {
        "details": "See {IERC721Enumerable-tokenOfOwnerByIndex}."
      },
      "totalSupply()": {
        "details": "See {IERC721Enumerable-totalSupply}."
      },
      "transferFrom(address,address,uint256)": {
        "details": "See {IERC721-transferFrom}."
      },
      "transferOwnership(address)": {
        "details": "Transfers ownership of the contract to a new account (`newOwner`). Can only be called by the current owner."
      },
      "unpause()": {
        "details": "Unpauses all token transfers. See {ERC721Pausable} and {Pausable-_unpause}. Requirements: - the caller must have the `PAUSER_ROLE`."
      },
      "upgradeTo(address)": {
        "details": "Upgrade the implementation of the proxy to `newImplementation`. Calls {_authorizeUpgrade}. Emits an {Upgraded} event."
      },
      "upgradeToAndCall(address,bytes)": {
        "details": "Upgrade the implementation of the proxy to `newImplementation`, and subsequently execute the function call encoded in `data`. Calls {_authorizeUpgrade}. Emits an {Upgraded} event."
      }
    },
    "title": "A registry for strategies",
    "version": 1
  },
  "userdoc": {
    "kind": "user",
    "methods": {},
    "version": 1
  },
  "storageLayout": {
    "storage": [
      {
        "astId": 4834,
        "contract": "contracts/StrategyRegistry.sol:StrategyRegistry",
        "label": "_initialized",
        "offset": 0,
        "slot": "0",
        "type": "t_bool"
      },
      {
        "astId": 4837,
        "contract": "contracts/StrategyRegistry.sol:StrategyRegistry",
        "label": "_initializing",
        "offset": 1,
        "slot": "0",
        "type": "t_bool"
      },
      {
        "astId": 8682,
        "contract": "contracts/StrategyRegistry.sol:StrategyRegistry",
        "label": "__gap",
        "offset": 0,
        "slot": "1",
        "type": "t_array(t_uint256)50_storage"
      },
      {
        "astId": 10020,
        "contract": "contracts/StrategyRegistry.sol:StrategyRegistry",
        "label": "__gap",
        "offset": 0,
        "slot": "51",
        "type": "t_array(t_uint256)50_storage"
      },
      {
        "astId": 6780,
        "contract": "contracts/StrategyRegistry.sol:StrategyRegistry",
        "label": "_name",
        "offset": 0,
        "slot": "101",
        "type": "t_string_storage"
      },
      {
        "astId": 6782,
        "contract": "contracts/StrategyRegistry.sol:StrategyRegistry",
        "label": "_symbol",
        "offset": 0,
        "slot": "102",
        "type": "t_string_storage"
      },
      {
        "astId": 6786,
        "contract": "contracts/StrategyRegistry.sol:StrategyRegistry",
        "label": "_owners",
        "offset": 0,
        "slot": "103",
        "type": "t_mapping(t_uint256,t_address)"
      },
      {
        "astId": 6790,
        "contract": "contracts/StrategyRegistry.sol:StrategyRegistry",
        "label": "_balances",
        "offset": 0,
        "slot": "104",
        "type": "t_mapping(t_address,t_uint256)"
      },
      {
        "astId": 6794,
        "contract": "contracts/StrategyRegistry.sol:StrategyRegistry",
        "label": "_tokenApprovals",
        "offset": 0,
        "slot": "105",
        "type": "t_mapping(t_uint256,t_address)"
      },
      {
        "astId": 6800,
        "contract": "contracts/StrategyRegistry.sol:StrategyRegistry",
        "label": "_operatorApprovals",
        "offset": 0,
        "slot": "106",
        "type": "t_mapping(t_address,t_mapping(t_address,t_bool))"
      },
      {
        "astId": 7611,
        "contract": "contracts/StrategyRegistry.sol:StrategyRegistry",
        "label": "__gap",
        "offset": 0,
        "slot": "107",
        "type": "t_array(t_uint256)44_storage"
      },
      {
        "astId": 8217,
        "contract": "contracts/StrategyRegistry.sol:StrategyRegistry",
        "label": "_tokenURIs",
        "offset": 0,
        "slot": "151",
        "type": "t_mapping(t_uint256,t_string_storage)"
      },
      {
        "astId": 8335,
        "contract": "contracts/StrategyRegistry.sol:StrategyRegistry",
        "label": "__gap",
        "offset": 0,
        "slot": "152",
        "type": "t_array(t_uint256)49_storage"
      },
      {
        "astId": 7785,
        "contract": "contracts/StrategyRegistry.sol:StrategyRegistry",
        "label": "_ownedTokens",
        "offset": 0,
        "slot": "201",
        "type": "t_mapping(t_address,t_mapping(t_uint256,t_uint256))"
      },
      {
        "astId": 7789,
        "contract": "contracts/StrategyRegistry.sol:StrategyRegistry",
        "label": "_ownedTokensIndex",
        "offset": 0,
        "slot": "202",
        "type": "t_mapping(t_uint256,t_uint256)"
      },
      {
        "astId": 7792,
        "contract": "contracts/StrategyRegistry.sol:StrategyRegistry",
        "label": "_allTokens",
        "offset": 0,
        "slot": "203",
        "type": "t_array(t_uint256)dyn_storage"
      },
      {
        "astId": 7796,
        "contract": "contracts/StrategyRegistry.sol:StrategyRegistry",
        "label": "_allTokensIndex",
        "offset": 0,
        "slot": "204",
        "type": "t_mapping(t_uint256,t_uint256)"
      },
      {
        "astId": 8111,
        "contract": "contracts/StrategyRegistry.sol:StrategyRegistry",
        "label": "__gap",
        "offset": 0,
        "slot": "205",
        "type": "t_array(t_uint256)46_storage"
      },
      {
        "astId": 5033,
        "contract": "contracts/StrategyRegistry.sol:StrategyRegistry",
        "label": "_paused",
        "offset": 0,
        "slot": "251",
        "type": "t_bool"
      },
      {
        "astId": 5124,
        "contract": "contracts/StrategyRegistry.sol:StrategyRegistry",
        "label": "__gap",
        "offset": 0,
        "slot": "252",
        "type": "t_array(t_uint256)49_storage"
      },
      {
        "astId": 8179,
        "contract": "contracts/StrategyRegistry.sol:StrategyRegistry",
        "label": "__gap",
        "offset": 0,
        "slot": "301",
        "type": "t_array(t_uint256)50_storage"
      },
      {
        "astId": 48,
        "contract": "contracts/StrategyRegistry.sol:StrategyRegistry",
        "label": "_roles",
        "offset": 0,
        "slot": "351",
        "type": "t_mapping(t_bytes32,t_struct(RoleData)43_storage)"
      },
      {
        "astId": 335,
        "contract": "contracts/StrategyRegistry.sol:StrategyRegistry",
        "label": "__gap",
        "offset": 0,
        "slot": "352",
        "type": "t_array(t_uint256)49_storage"
      },
      {
        "astId": 4816,
        "contract": "contracts/StrategyRegistry.sol:StrategyRegistry",
        "label": "__gap",
        "offset": 0,
        "slot": "401",
        "type": "t_array(t_uint256)50_storage"
      },
      {
        "astId": 5011,
        "contract": "contracts/StrategyRegistry.sol:StrategyRegistry",
        "label": "__gap",
        "offset": 0,
        "slot": "451",
        "type": "t_array(t_uint256)50_storage"
      },
      {
        "astId": 420,
        "contract": "contracts/StrategyRegistry.sol:StrategyRegistry",
        "label": "_owner",
        "offset": 0,
        "slot": "501",
        "type": "t_address"
      },
      {
        "astId": 534,
        "contract": "contracts/StrategyRegistry.sol:StrategyRegistry",
        "label": "__gap",
        "offset": 0,
        "slot": "502",
        "type": "t_array(t_uint256)49_storage"
      },
      {
        "astId": 15896,
        "contract": "contracts/StrategyRegistry.sol:StrategyRegistry",
        "label": "_baseTokenURI",
        "offset": 0,
        "slot": "551",
        "type": "t_string_storage"
      },
      {
        "astId": 15901,
        "contract": "contracts/StrategyRegistry.sol:StrategyRegistry",
        "label": "strategies",
        "offset": 0,
        "slot": "552",
        "type": "t_mapping(t_string_memory_ptr,t_struct(RegisteredStrategy)18231_storage)"
      },
      {
        "astId": 15905,
        "contract": "contracts/StrategyRegistry.sol:StrategyRegistry",
        "label": "tokenIdToExecBundle",
        "offset": 0,
        "slot": "553",
        "type": "t_mapping(t_uint256,t_string_storage)"
      },
      {
        "astId": 15908,
        "contract": "contracts/StrategyRegistry.sol:StrategyRegistry",
        "label": "_tokenIdTracker",
        "offset": 0,
        "slot": "554",
        "type": "t_struct(Counter)8689_storage"
      },
      {
        "astId": 15925,
        "contract": "contracts/StrategyRegistry.sol:StrategyRegistry",
        "label": "maxMaxGasPerAction",
        "offset": 0,
        "slot": "555",
        "type": "t_uint256"
      }
    ],
    "types": {
      "t_address": {
        "encoding": "inplace",
        "label": "address",
        "numberOfBytes": "20"
      },
      "t_array(t_uint256)44_storage": {
        "base": "t_uint256",
        "encoding": "inplace",
        "label": "uint256[44]",
        "numberOfBytes": "1408"
      },
      "t_array(t_uint256)46_storage": {
        "base": "t_uint256",
        "encoding": "inplace",
        "label": "uint256[46]",
        "numberOfBytes": "1472"
      },
      "t_array(t_uint256)49_storage": {
        "base": "t_uint256",
        "encoding": "inplace",
        "label": "uint256[49]",
        "numberOfBytes": "1568"
      },
      "t_array(t_uint256)50_storage": {
        "base": "t_uint256",
        "encoding": "inplace",
        "label": "uint256[50]",
        "numberOfBytes": "1600"
      },
      "t_array(t_uint256)dyn_storage": {
        "base": "t_uint256",
        "encoding": "dynamic_array",
        "label": "uint256[]",
        "numberOfBytes": "32"
      },
      "t_bool": {
        "encoding": "inplace",
        "label": "bool",
        "numberOfBytes": "1"
      },
      "t_bytes32": {
        "encoding": "inplace",
        "label": "bytes32",
        "numberOfBytes": "32"
      },
      "t_mapping(t_address,t_bool)": {
        "encoding": "mapping",
        "key": "t_address",
        "label": "mapping(address => bool)",
        "numberOfBytes": "32",
        "value": "t_bool"
      },
      "t_mapping(t_address,t_mapping(t_address,t_bool))": {
        "encoding": "mapping",
        "key": "t_address",
        "label": "mapping(address => mapping(address => bool))",
        "numberOfBytes": "32",
        "value": "t_mapping(t_address,t_bool)"
      },
      "t_mapping(t_address,t_mapping(t_uint256,t_uint256))": {
        "encoding": "mapping",
        "key": "t_address",
        "label": "mapping(address => mapping(uint256 => uint256))",
        "numberOfBytes": "32",
        "value": "t_mapping(t_uint256,t_uint256)"
      },
      "t_mapping(t_address,t_uint256)": {
        "encoding": "mapping",
        "key": "t_address",
        "label": "mapping(address => uint256)",
        "numberOfBytes": "32",
        "value": "t_uint256"
      },
      "t_mapping(t_bytes32,t_struct(RoleData)43_storage)": {
        "encoding": "mapping",
        "key": "t_bytes32",
        "label": "mapping(bytes32 => struct AccessControlUpgradeable.RoleData)",
        "numberOfBytes": "32",
        "value": "t_struct(RoleData)43_storage"
      },
      "t_mapping(t_string_memory_ptr,t_struct(RegisteredStrategy)18231_storage)": {
        "encoding": "mapping",
        "key": "t_string_memory_ptr",
        "label": "mapping(string => struct IStrategyRegistry.RegisteredStrategy)",
        "numberOfBytes": "32",
        "value": "t_struct(RegisteredStrategy)18231_storage"
      },
      "t_mapping(t_uint256,t_address)": {
        "encoding": "mapping",
        "key": "t_uint256",
        "label": "mapping(uint256 => address)",
        "numberOfBytes": "32",
        "value": "t_address"
      },
      "t_mapping(t_uint256,t_string_storage)": {
        "encoding": "mapping",
        "key": "t_uint256",
        "label": "mapping(uint256 => string)",
        "numberOfBytes": "32",
        "value": "t_string_storage"
      },
      "t_mapping(t_uint256,t_uint256)": {
        "encoding": "mapping",
        "key": "t_uint256",
        "label": "mapping(uint256 => uint256)",
        "numberOfBytes": "32",
        "value": "t_uint256"
      },
      "t_string_memory_ptr": {
        "encoding": "bytes",
        "label": "string",
        "numberOfBytes": "32"
      },
      "t_string_storage": {
        "encoding": "bytes",
        "label": "string",
        "numberOfBytes": "32"
      },
      "t_struct(Counter)8689_storage": {
        "encoding": "inplace",
        "label": "struct CountersUpgradeable.Counter",
        "members": [
          {
            "astId": 8688,
            "contract": "contracts/StrategyRegistry.sol:StrategyRegistry",
            "label": "_value",
            "offset": 0,
            "slot": "0",
            "type": "t_uint256"
          }
        ],
        "numberOfBytes": "32"
      },
      "t_struct(RegisteredStrategy)18231_storage": {
        "encoding": "inplace",
        "label": "struct IStrategyRegistry.RegisteredStrategy",
        "members": [
          {
            "astId": 18220,
            "contract": "contracts/StrategyRegistry.sol:StrategyRegistry",
            "label": "id",
            "offset": 0,
            "slot": "0",
            "type": "t_uint256"
          },
          {
            "astId": 18222,
            "contract": "contracts/StrategyRegistry.sol:StrategyRegistry",
            "label": "name",
            "offset": 0,
            "slot": "1",
            "type": "t_string_storage"
          },
          {
            "astId": 18224,
            "contract": "contracts/StrategyRegistry.sol:StrategyRegistry",
            "label": "owner",
            "offset": 0,
            "slot": "2",
            "type": "t_address"
          },
          {
            "astId": 18226,
            "contract": "contracts/StrategyRegistry.sol:StrategyRegistry",
            "label": "execBundle",
            "offset": 0,
            "slot": "3",
            "type": "t_string_storage"
          },
          {
            "astId": 18228,
            "contract": "contracts/StrategyRegistry.sol:StrategyRegistry",
            "label": "maxGasCost",
            "offset": 0,
            "slot": "4",
            "type": "t_uint128"
          },
          {
            "astId": 18230,
            "contract": "contracts/StrategyRegistry.sol:StrategyRegistry",
            "label": "maxGasPerAction",
            "offset": 16,
            "slot": "4",
            "type": "t_uint128"
          }
        ],
        "numberOfBytes": "160"
      },
      "t_struct(RoleData)43_storage": {
        "encoding": "inplace",
        "label": "struct AccessControlUpgradeable.RoleData",
        "members": [
          {
            "astId": 40,
            "contract": "contracts/StrategyRegistry.sol:StrategyRegistry",
            "label": "members",
            "offset": 0,
            "slot": "0",
            "type": "t_mapping(t_address,t_bool)"
          },
          {
            "astId": 42,
            "contract": "contracts/StrategyRegistry.sol:StrategyRegistry",
            "label": "adminRole",
            "offset": 0,
            "slot": "1",
            "type": "t_bytes32"
          }
        ],
        "numberOfBytes": "64"
      },
      "t_uint128": {
        "encoding": "inplace",
        "label": "uint128",
        "numberOfBytes": "16"
      },
      "t_uint256": {
        "encoding": "inplace",
        "label": "uint256",
        "numberOfBytes": "32"
      }
    }
  }
}