{
  "address": "0xD259853e5d3DB0844f1E70fB876AEdEfBb021148",
  "abi": [
    {
      "inputs": [
        {
          "internalType": "address",
          "name": "test1",
          "type": "address"
        },
        {
          "internalType": "address",
          "name": "test2",
          "type": "address"
        }
      ],
      "stateMutability": "nonpayable",
      "type": "constructor"
    },
    {
      "inputs": [],
      "name": "Test1",
      "outputs": [
        {
          "internalType": "contract IERC20",
          "name": "",
          "type": "address"
        }
      ],
      "stateMutability": "view",
      "type": "function"
    },
    {
      "inputs": [],
      "name": "Test2",
      "outputs": [
        {
          "internalType": "contract IERC20",
          "name": "",
          "type": "address"
        }
      ],
      "stateMutability": "view",
      "type": "function"
    },
    {
      "inputs": [],
      "name": "getTestTokens",
      "outputs": [],
      "stateMutability": "nonpayable",
      "type": "function"
    },
    {
      "inputs": [
        {
          "internalType": "address",
          "name": "",
          "type": "address"
        }
      ],
      "name": "isGiven",
      "outputs": [
        {
          "internalType": "bool",
          "name": "",
          "type": "bool"
        }
      ],
      "stateMutability": "view",
      "type": "function"
    }
  ],
  "transactionHash": "0x5af092d8ce5d191701cb12f0d19893684e00e364942708941066d3f53da9c2dd",
  "args": [
    "0x125116e39Ec5CECfE29F3d139050cd036Ea2ce19",
    "0x1673a527836C577c8807480C89CE6de529ab0017"
  ],
  "numDeployments": 1,
  "solcInputHash": "de4128423a4eb3f1b17d57738cf295f0",
  "bytecode": "0x60806040526802b5e3af16b188000060015534801561001d57600080fd5b5060405161038b38038061038b83398101604081905261003c91610089565b600280546001600160a01b039384166001600160a01b031991821617909155600380549290931691161790556100bc565b80516001600160a01b038116811461008457600080fd5b919050565b6000806040838503121561009c57600080fd5b6100a58361006d565b91506100b36020840161006d565b90509250929050565b6102c0806100cb6000396000f3fe608060405234801561001057600080fd5b506004361061004c5760003560e01c8063218444ab14610051578063b15addec14610081578063b3ccd71a14610094578063d1300eb6146100c7575b600080fd5b600354610064906001600160a01b031681565b6040516001600160a01b0390911681526020015b60405180910390f35b600254610064906001600160a01b031681565b6100b76100a2366004610238565b60006020819052908152604090205460ff1681565b6040519015158152602001610078565b6100cf6100d1565b005b3360009081526020819052604090205460ff16156101255760405162461bcd60e51b815260206004820152600d60248201526c20b63932b0b23c9023b4bb32b760991b604482015260640160405180910390fd5b3360008181526020819052604090819020805460ff191660019081179091556002549054915163a9059cbb60e01b8152600481019390935260248301919091526001600160a01b03169063a9059cbb906044016020604051808303816000875af1158015610197573d6000803e3d6000fd5b505050506040513d601f19601f820116820180604052508101906101bb9190610268565b5060035460015460405163a9059cbb60e01b815233600482015260248101919091526001600160a01b039091169063a9059cbb906044016020604051808303816000875af1158015610211573d6000803e3d6000fd5b505050506040513d601f19601f820116820180604052508101906102359190610268565b50565b60006020828403121561024a57600080fd5b81356001600160a01b038116811461026157600080fd5b9392505050565b60006020828403121561027a57600080fd5b8151801515811461026157600080fdfea26469706673582212209efddf7173e06b4b90d0abfab6edfb7d05ba5761e907ad79ac0c5fc50614975d64736f6c634300080c0033",
  "devdoc": {
    "kind": "dev",
    "methods": {},
    "version": 1
  },
  "userdoc": {
    "kind": "user",
    "methods": {},
    "version": 1
  },
  "storageLayout": {
    "storage": [
      {
        "astId": 18573,
        "contract": "contracts/mocks/TestFaucet.sol:TestFaucet",
        "label": "isGiven",
        "offset": 0,
        "slot": "0",
        "type": "t_mapping(t_address,t_bool)"
      },
      {
        "astId": 18576,
        "contract": "contracts/mocks/TestFaucet.sol:TestFaucet",
        "label": "Amount",
        "offset": 0,
        "slot": "1",
        "type": "t_uint256"
      },
      {
        "astId": 18579,
        "contract": "contracts/mocks/TestFaucet.sol:TestFaucet",
        "label": "Test1",
        "offset": 0,
        "slot": "2",
        "type": "t_contract(IERC20)11739"
      },
      {
        "astId": 18582,
        "contract": "contracts/mocks/TestFaucet.sol:TestFaucet",
        "label": "Test2",
        "offset": 0,
        "slot": "3",
        "type": "t_contract(IERC20)11739"
      }
    ],
    "types": {
      "t_address": {
        "encoding": "inplace",
        "label": "address",
        "numberOfBytes": "20"
      },
      "t_bool": {
        "encoding": "inplace",
        "label": "bool",
        "numberOfBytes": "1"
      },
      "t_contract(IERC20)11739": {
        "encoding": "inplace",
        "label": "contract IERC20",
        "numberOfBytes": "20"
      },
      "t_mapping(t_address,t_bool)": {
        "encoding": "mapping",
        "key": "t_address",
        "label": "mapping(address => bool)",
        "numberOfBytes": "32",
        "value": "t_bool"
      },
      "t_uint256": {
        "encoding": "inplace",
        "label": "uint256",
        "numberOfBytes": "32"
      }
    }
  }
}