{
  "address": "0x9FaE744510adCB2fb5c8e518756b6038Fc4fa4ca",
  "abi": [
    {
      "inputs": [],
      "stateMutability": "nonpayable",
      "type": "constructor"
    },
    {
      "anonymous": false,
      "inputs": [
        {
          "indexed": false,
          "internalType": "address",
          "name": "previousAdmin",
          "type": "address"
        },
        {
          "indexed": false,
          "internalType": "address",
          "name": "newAdmin",
          "type": "address"
        }
      ],
      "name": "AdminChanged",
      "type": "event"
    },
    {
      "anonymous": false,
      "inputs": [
        {
          "indexed": true,
          "internalType": "address",
          "name": "beacon",
          "type": "address"
        }
      ],
      "name": "BeaconUpgraded",
      "type": "event"
    },
    {
      "anonymous": false,
      "inputs": [
        {
          "indexed": false,
          "internalType": "uint256",
          "name": "data",
          "type": "uint256"
        }
      ],
      "name": "OracleUpdated",
      "type": "event"
    },
    {
      "anonymous": false,
      "inputs": [
        {
          "indexed": true,
          "internalType": "address",
          "name": "previousOwner",
          "type": "address"
        },
        {
          "indexed": true,
          "internalType": "address",
          "name": "newOwner",
          "type": "address"
        }
      ],
      "name": "OwnershipTransferred",
      "type": "event"
    },
    {
      "anonymous": false,
      "inputs": [
        {
          "indexed": true,
          "internalType": "address",
          "name": "implementation",
          "type": "address"
        }
      ],
      "name": "Upgraded",
      "type": "event"
    },
    {
      "inputs": [],
      "name": "creator",
      "outputs": [
        {
          "internalType": "address",
          "name": "",
          "type": "address"
        }
      ],
      "stateMutability": "view",
      "type": "function"
    },
    {
      "inputs": [],
      "name": "data",
      "outputs": [
        {
          "internalType": "uint256",
          "name": "",
          "type": "uint256"
        }
      ],
      "stateMutability": "view",
      "type": "function"
    },
    {
      "inputs": [
        {
          "internalType": "address",
          "name": "_orchestrator",
          "type": "address"
        },
        {
          "internalType": "address",
          "name": "",
          "type": "address"
        },
        {
          "internalType": "address",
          "name": "",
          "type": "address"
        },
        {
          "internalType": "bytes",
          "name": "_params",
          "type": "bytes"
        }
      ],
      "name": "initialize",
      "outputs": [],
      "stateMutability": "nonpayable",
      "type": "function"
    },
    {
      "inputs": [],
      "name": "oracleName",
      "outputs": [
        {
          "internalType": "string",
          "name": "",
          "type": "string"
        }
      ],
      "stateMutability": "view",
      "type": "function"
    },
    {
      "inputs": [],
      "name": "orchestrator",
      "outputs": [
        {
          "internalType": "address",
          "name": "",
          "type": "address"
        }
      ],
      "stateMutability": "view",
      "type": "function"
    },
    {
      "inputs": [],
      "name": "owner",
      "outputs": [
        {
          "internalType": "address",
          "name": "",
          "type": "address"
        }
      ],
      "stateMutability": "view",
      "type": "function"
    },
    {
      "inputs": [],
      "name": "renounceOwnership",
      "outputs": [],
      "stateMutability": "nonpayable",
      "type": "function"
    },
    {
      "inputs": [
        {
          "internalType": "address",
          "name": "newOwner",
          "type": "address"
        }
      ],
      "name": "transferOwnership",
      "outputs": [],
      "stateMutability": "nonpayable",
      "type": "function"
    },
    {
      "inputs": [
        {
          "internalType": "uint256",
          "name": "_data",
          "type": "uint256"
        }
      ],
      "name": "updateOracle",
      "outputs": [],
      "stateMutability": "nonpayable",
      "type": "function"
    },
    {
      "inputs": [
        {
          "internalType": "address",
          "name": "newImplementation",
          "type": "address"
        }
      ],
      "name": "upgradeTo",
      "outputs": [],
      "stateMutability": "nonpayable",
      "type": "function"
    },
    {
      "inputs": [
        {
          "internalType": "address",
          "name": "newImplementation",
          "type": "address"
        },
        {
          "internalType": "bytes",
          "name": "data",
          "type": "bytes"
        }
      ],
      "name": "upgradeToAndCall",
      "outputs": [],
      "stateMutability": "payable",
      "type": "function"
    }
  ],
  "transactionHash": "0x8973510aa9f3e234b681b5f5d6d97e47d315640fd1baac23b447b24863078e25",
  "args": [],
  "numDeployments": 1,
  "solcInputHash": "4d3e56af63bf54cf90ac1bc35cfb9eec",
  "bytecode": "0x60a06040523060805234801561001457600080fd5b5060805161100e6100456000396000818161035201528181610392015281816104120152610452015261100e6000f3fe60806040526004361061009c5760003560e01c806373d4a13a1161006457806373d4a13a146101485780637d11f0201461016c5780638da5cb5b1461018e578063b74795d9146101ac578063c23c1c9f146101cc578063f2fde38b146101ec57600080fd5b806302d05d3f146100a1578063246581f7146100de5780633659cfe6146101005780634f1ef28614610120578063715018a614610133575b600080fd5b3480156100ad57600080fd5b5060ca546100c1906001600160a01b031681565b6040516001600160a01b0390911681526020015b60405180910390f35b3480156100ea57600080fd5b506100fe6100f9366004610c46565b61020c565b005b34801561010c57600080fd5b506100fe61011b366004610cee565b610347565b6100fe61012e366004610d97565b610407565b34801561013f57600080fd5b506100fe6104b8565b34801561015457600080fd5b5061015e60cb5481565b6040519081526020016100d5565b34801561017857600080fd5b5061018161051e565b6040516100d59190610e2b565b34801561019a57600080fd5b506033546001600160a01b03166100c1565b3480156101b857600080fd5b5060c9546100c1906001600160a01b031681565b3480156101d857600080fd5b506100fe6101e7366004610e5e565b6105ac565b3480156101f857600080fd5b506100fe610207366004610cee565b610630565b600054610100900460ff166102275760005460ff161561022b565b303b155b6102935760405162461bcd60e51b815260206004820152602e60248201527f496e697469616c697a61626c653a20636f6e747261637420697320616c72656160448201526d191e481a5b9a5d1a585b1a5e995960921b60648201526084015b60405180910390fd5b600054610100900460ff161580156102b5576000805461ffff19166101011790555b6102c182840184610d97565b805160ca906000906102da9060cc906020860190610b98565b508391906101000a8154816001600160a01b0302191690836001600160a01b03160217905550505061030a6106f8565b61031261072f565b60c980546001600160a01b0319166001600160a01b038816179055801561033f576000805461ff00191690555b505050505050565b306001600160a01b037f00000000000000000000000000000000000000000000000000000000000000001614156103905760405162461bcd60e51b815260040161028a90610e77565b7f00000000000000000000000000000000000000000000000000000000000000006001600160a01b03166103c2610766565b6001600160a01b0316146103e85760405162461bcd60e51b815260040161028a90610ec3565b6040805160008082526020820190925261040491839190610794565b50565b306001600160a01b037f00000000000000000000000000000000000000000000000000000000000000001614156104505760405162461bcd60e51b815260040161028a90610e77565b7f00000000000000000000000000000000000000000000000000000000000000006001600160a01b0316610482610766565b6001600160a01b0316146104a85760405162461bcd60e51b815260040161028a90610ec3565b6104b482826001610794565b5050565b6033546001600160a01b031633146105125760405162461bcd60e51b815260206004820181905260248201527f4f776e61626c653a2063616c6c6572206973206e6f7420746865206f776e6572604482015260640161028a565b61051c60006108df565b565b60cc805461052b90610f0f565b80601f016020809104026020016040519081016040528092919081815260200182805461055790610f0f565b80156105a45780601f10610579576101008083540402835291602001916105a4565b820191906000526020600020905b81548152906001019060200180831161058757829003601f168201915b505050505081565b60c9546001600160a01b031633146105f55760405162461bcd60e51b815260206004820152600c60248201526b155b985d5d1a1bdc9a5e995960a21b604482015260640161028a565b60cb8190556040518181527f1d9f8660b46684cf0620a1aec89ad8da885e41a4f67fd708b483914dda0e66ed9060200160405180910390a150565b6033546001600160a01b0316331461068a5760405162461bcd60e51b815260206004820181905260248201527f4f776e61626c653a2063616c6c6572206973206e6f7420746865206f776e6572604482015260640161028a565b6001600160a01b0381166106ef5760405162461bcd60e51b815260206004820152602660248201527f4f776e61626c653a206e6577206f776e657220697320746865207a65726f206160448201526564647265737360d01b606482015260840161028a565b610404816108df565b600054610100900460ff1661071f5760405162461bcd60e51b815260040161028a90610f4a565b610727610931565b61051c610931565b600054610100900460ff166107565760405162461bcd60e51b815260040161028a90610f4a565b61075e610931565b61051c610958565b7f360894a13ba1a3210667c828492db98dca3e2076cc3735a920a3ca505d382bbc546001600160a01b031690565b600061079e610766565b90506107a984610988565b6000835111806107b65750815b156107c7576107c58484610a2d565b505b7f4910fdfa16fed3260ed0e7147f7cc6da11a60208b5b9406d12a635614ffd9143805460ff166108d857805460ff191660011781556040516001600160a01b038316602482015261084690869060440160408051601f198184030181529190526020810180516001600160e01b0316631b2ce7f360e11b179052610a2d565b50805460ff19168155610857610766565b6001600160a01b0316826001600160a01b0316146108cf5760405162461bcd60e51b815260206004820152602f60248201527f45524331393637557067726164653a207570677261646520627265616b73206660448201526e75727468657220757067726164657360881b606482015260840161028a565b6108d885610b18565b5050505050565b603380546001600160a01b038381166001600160a01b0319831681179093556040519116919082907f8be0079c531659141344cd1fd0a4f28419497f9722a3daafe3b4186f6b6457e090600090a35050565b600054610100900460ff1661051c5760405162461bcd60e51b815260040161028a90610f4a565b600054610100900460ff1661097f5760405162461bcd60e51b815260040161028a90610f4a565b61051c336108df565b803b6109ec5760405162461bcd60e51b815260206004820152602d60248201527f455243313936373a206e657720696d706c656d656e746174696f6e206973206e60448201526c1bdd08184818dbdb9d1c9858dd609a1b606482015260840161028a565b7f360894a13ba1a3210667c828492db98dca3e2076cc3735a920a3ca505d382bbc80546001600160a01b0319166001600160a01b0392909216919091179055565b6060823b610a8c5760405162461bcd60e51b815260206004820152602660248201527f416464726573733a2064656c65676174652063616c6c20746f206e6f6e2d636f6044820152651b9d1c9858dd60d21b606482015260840161028a565b600080846001600160a01b031684604051610aa79190610f95565b600060405180830381855af49150503d8060008114610ae2576040519150601f19603f3d011682016040523d82523d6000602084013e610ae7565b606091505b5091509150610b0f8282604051806060016040528060278152602001610fb260279139610b58565b95945050505050565b610b2181610988565b6040516001600160a01b038216907fbc7cd75a20ee27fd9adebab32041f755214dbc6bffa90cc0225b39da2e5c2d3b90600090a250565b60608315610b67575081610b91565b825115610b775782518084602001fd5b8160405162461bcd60e51b815260040161028a9190610e2b565b9392505050565b828054610ba490610f0f565b90600052602060002090601f016020900481019282610bc65760008555610c0c565b82601f10610bdf57805160ff1916838001178555610c0c565b82800160010185558215610c0c579182015b82811115610c0c578251825591602001919060010190610bf1565b50610c18929150610c1c565b5090565b5b80821115610c185760008155600101610c1d565b6001600160a01b038116811461040457600080fd5b600080600080600060808688031215610c5e57600080fd5b8535610c6981610c31565b94506020860135610c7981610c31565b93506040860135610c8981610c31565b9250606086013567ffffffffffffffff80821115610ca657600080fd5b818801915088601f830112610cba57600080fd5b813581811115610cc957600080fd5b896020828501011115610cdb57600080fd5b9699959850939650602001949392505050565b600060208284031215610d0057600080fd5b8135610b9181610c31565b634e487b7160e01b600052604160045260246000fd5b600067ffffffffffffffff80841115610d3c57610d3c610d0b565b604051601f8501601f19908116603f01168101908282118183101715610d6457610d64610d0b565b81604052809350858152868686011115610d7d57600080fd5b858560208301376000602087830101525050509392505050565b60008060408385031215610daa57600080fd5b8235610db581610c31565b9150602083013567ffffffffffffffff811115610dd157600080fd5b8301601f81018513610de257600080fd5b610df185823560208401610d21565b9150509250929050565b60005b83811015610e16578181015183820152602001610dfe565b83811115610e25576000848401525b50505050565b6020815260008251806020840152610e4a816040850160208701610dfb565b601f01601f19169190910160400192915050565b600060208284031215610e7057600080fd5b5035919050565b6020808252602c908201527f46756e6374696f6e206d7573742062652063616c6c6564207468726f7567682060408201526b19195b1959d85d1958d85b1b60a21b606082015260800190565b6020808252602c908201527f46756e6374696f6e206d7573742062652063616c6c6564207468726f7567682060408201526b6163746976652070726f787960a01b606082015260800190565b600181811c90821680610f2357607f821691505b60208210811415610f4457634e487b7160e01b600052602260045260246000fd5b50919050565b6020808252602b908201527f496e697469616c697a61626c653a20636f6e7472616374206973206e6f74206960408201526a6e697469616c697a696e6760a81b606082015260800190565b60008251610fa7818460208701610dfb565b919091019291505056fe416464726573733a206c6f772d6c6576656c2064656c65676174652063616c6c206661696c6564a2646970667358221220dc1db283705b453a30224218b2c5872e48aac104001e5333d32e9135750a79bb64736f6c634300080c0033",
  "devdoc": {
    "author": "Steer Protocol",
    "details": "All uint oracle vaults will follow this structure",
    "events": {
      "OracleUpdated(uint256)": {
        "details": "Oracle Updation event",
        "params": {
          "data": "is the updated data"
        }
      }
    },
    "kind": "dev",
    "methods": {
      "owner()": {
        "details": "Returns the address of the current owner."
      },
      "renounceOwnership()": {
        "details": "Leaves the contract without owner. It will not be possible to call `onlyOwner` functions anymore. Can only be called by the current owner. NOTE: Renouncing ownership will leave the contract without an owner, thereby removing any functionality that is only available to the owner."
      },
      "transferOwnership(address)": {
        "details": "Transfers ownership of the contract to a new account (`newOwner`). Can only be called by the current owner."
      },
      "updateOracle(uint256)": {
        "details": "Updates the data on this oracleOnly orchestrator can call this function",
        "params": {
          "_data": "is the most updated value that should be stored on this oracle"
        }
      },
      "upgradeTo(address)": {
        "details": "Upgrade the implementation of the proxy to `newImplementation`. Calls {_authorizeUpgrade}. Emits an {Upgraded} event."
      },
      "upgradeToAndCall(address,bytes)": {
        "details": "Upgrade the implementation of the proxy to `newImplementation`, and subsequently execute the function call encoded in `data`. Calls {_authorizeUpgrade}. Emits an {Upgraded} event."
      }
    },
    "title": "Structure for Uint Oracle vaults",
    "version": 1
  },
  "userdoc": {
    "kind": "user",
    "methods": {},
    "version": 1
  },
  "storageLayout": {
    "storage": [
      {
        "astId": 4904,
        "contract": "contracts/UintOracle.sol:UintOracle",
        "label": "_initialized",
        "offset": 0,
        "slot": "0",
        "type": "t_bool"
      },
      {
        "astId": 4907,
        "contract": "contracts/UintOracle.sol:UintOracle",
        "label": "_initializing",
        "offset": 1,
        "slot": "0",
        "type": "t_bool"
      },
      {
        "astId": 9281,
        "contract": "contracts/UintOracle.sol:UintOracle",
        "label": "__gap",
        "offset": 0,
        "slot": "1",
        "type": "t_array(t_uint256)50_storage"
      },
      {
        "astId": 420,
        "contract": "contracts/UintOracle.sol:UintOracle",
        "label": "_owner",
        "offset": 0,
        "slot": "51",
        "type": "t_address"
      },
      {
        "astId": 534,
        "contract": "contracts/UintOracle.sol:UintOracle",
        "label": "__gap",
        "offset": 0,
        "slot": "52",
        "type": "t_array(t_uint256)49_storage"
      },
      {
        "astId": 4886,
        "contract": "contracts/UintOracle.sol:UintOracle",
        "label": "__gap",
        "offset": 0,
        "slot": "101",
        "type": "t_array(t_uint256)50_storage"
      },
      {
        "astId": 5081,
        "contract": "contracts/UintOracle.sol:UintOracle",
        "label": "__gap",
        "offset": 0,
        "slot": "151",
        "type": "t_array(t_uint256)50_storage"
      },
      {
        "astId": 21782,
        "contract": "contracts/UintOracle.sol:UintOracle",
        "label": "orchestrator",
        "offset": 0,
        "slot": "201",
        "type": "t_address"
      },
      {
        "astId": 21784,
        "contract": "contracts/UintOracle.sol:UintOracle",
        "label": "creator",
        "offset": 0,
        "slot": "202",
        "type": "t_address"
      },
      {
        "astId": 21786,
        "contract": "contracts/UintOracle.sol:UintOracle",
        "label": "data",
        "offset": 0,
        "slot": "203",
        "type": "t_uint256"
      },
      {
        "astId": 21788,
        "contract": "contracts/UintOracle.sol:UintOracle",
        "label": "oracleName",
        "offset": 0,
        "slot": "204",
        "type": "t_string_storage"
      }
    ],
    "types": {
      "t_address": {
        "encoding": "inplace",
        "label": "address",
        "numberOfBytes": "20"
      },
      "t_array(t_uint256)49_storage": {
        "base": "t_uint256",
        "encoding": "inplace",
        "label": "uint256[49]",
        "numberOfBytes": "1568"
      },
      "t_array(t_uint256)50_storage": {
        "base": "t_uint256",
        "encoding": "inplace",
        "label": "uint256[50]",
        "numberOfBytes": "1600"
      },
      "t_bool": {
        "encoding": "inplace",
        "label": "bool",
        "numberOfBytes": "1"
      },
      "t_string_storage": {
        "encoding": "bytes",
        "label": "string",
        "numberOfBytes": "32"
      },
      "t_uint256": {
        "encoding": "inplace",
        "label": "uint256",
        "numberOfBytes": "32"
      }
    }
  }
}