{
  "address": "0x080a3E0c18c4946C11780CF85BaBfAFADAeF35F4",
  "abi": [
    {
      "inputs": [],
      "stateMutability": "nonpayable",
      "type": "constructor"
    },
    {
      "inputs": [
        {
          "internalType": "uint256",
          "name": "selectorLength",
          "type": "uint256"
        },
        {
          "internalType": "uint256",
          "name": "isImplementedLength",
          "type": "uint256"
        }
      ],
      "name": "IncorrectArrayLengths",
      "type": "error"
    },
    {
      "anonymous": false,
      "inputs": [
        {
          "indexed": false,
          "internalType": "address",
          "name": "previousAdmin",
          "type": "address"
        },
        {
          "indexed": false,
          "internalType": "address",
          "name": "newAdmin",
          "type": "address"
        }
      ],
      "name": "AdminChanged",
      "type": "event"
    },
    {
      "anonymous": false,
      "inputs": [
        {
          "indexed": false,
          "internalType": "string",
          "name": "_name",
          "type": "string"
        },
        {
          "indexed": false,
          "internalType": "string",
          "name": "_ipfsHash",
          "type": "string"
        }
      ],
      "name": "BeaconConfigUpdated",
      "type": "event"
    },
    {
      "anonymous": false,
      "inputs": [
        {
          "indexed": false,
          "internalType": "string",
          "name": "_name",
          "type": "string"
        }
      ],
      "name": "BeaconDeregistered",
      "type": "event"
    },
    {
      "anonymous": false,
      "inputs": [
        {
          "indexed": false,
          "internalType": "string",
          "name": "_name",
          "type": "string"
        },
        {
          "indexed": false,
          "internalType": "address",
          "name": "_address",
          "type": "address"
        },
        {
          "indexed": false,
          "internalType": "string",
          "name": "_ipfsHash",
          "type": "string"
        }
      ],
      "name": "BeaconRegistered",
      "type": "event"
    },
    {
      "anonymous": false,
      "inputs": [
        {
          "indexed": true,
          "internalType": "address",
          "name": "beacon",
          "type": "address"
        }
      ],
      "name": "BeaconUpgraded",
      "type": "event"
    },
    {
      "anonymous": false,
      "inputs": [
        {
          "indexed": true,
          "internalType": "address",
          "name": "previousOwner",
          "type": "address"
        },
        {
          "indexed": true,
          "internalType": "address",
          "name": "newOwner",
          "type": "address"
        }
      ],
      "name": "OwnershipTransferred",
      "type": "event"
    },
    {
      "anonymous": false,
      "inputs": [
        {
          "indexed": false,
          "internalType": "address",
          "name": "account",
          "type": "address"
        }
      ],
      "name": "Paused",
      "type": "event"
    },
    {
      "anonymous": false,
      "inputs": [
        {
          "indexed": true,
          "internalType": "bytes32",
          "name": "role",
          "type": "bytes32"
        },
        {
          "indexed": true,
          "internalType": "bytes32",
          "name": "previousAdminRole",
          "type": "bytes32"
        },
        {
          "indexed": true,
          "internalType": "bytes32",
          "name": "newAdminRole",
          "type": "bytes32"
        }
      ],
      "name": "RoleAdminChanged",
      "type": "event"
    },
    {
      "anonymous": false,
      "inputs": [
        {
          "indexed": true,
          "internalType": "bytes32",
          "name": "role",
          "type": "bytes32"
        },
        {
          "indexed": true,
          "internalType": "address",
          "name": "account",
          "type": "address"
        },
        {
          "indexed": true,
          "internalType": "address",
          "name": "sender",
          "type": "address"
        }
      ],
      "name": "RoleGranted",
      "type": "event"
    },
    {
      "anonymous": false,
      "inputs": [
        {
          "indexed": true,
          "internalType": "bytes32",
          "name": "role",
          "type": "bytes32"
        },
        {
          "indexed": true,
          "internalType": "address",
          "name": "account",
          "type": "address"
        },
        {
          "indexed": true,
          "internalType": "address",
          "name": "sender",
          "type": "address"
        }
      ],
      "name": "RoleRevoked",
      "type": "event"
    },
    {
      "anonymous": false,
      "inputs": [
        {
          "indexed": false,
          "internalType": "address",
          "name": "account",
          "type": "address"
        }
      ],
      "name": "Unpaused",
      "type": "event"
    },
    {
      "anonymous": false,
      "inputs": [
        {
          "indexed": true,
          "internalType": "address",
          "name": "implementation",
          "type": "address"
        }
      ],
      "name": "Upgraded",
      "type": "event"
    },
    {
      "anonymous": false,
      "inputs": [
        {
          "indexed": false,
          "internalType": "address",
          "name": "deployer",
          "type": "address"
        },
        {
          "indexed": false,
          "internalType": "address",
          "name": "vault",
          "type": "address"
        },
        {
          "indexed": false,
          "internalType": "string",
          "name": "beaconName",
          "type": "string"
        },
        {
          "indexed": true,
          "internalType": "uint256",
          "name": "tokenId",
          "type": "uint256"
        },
        {
          "indexed": false,
          "internalType": "address",
          "name": "vaultManager",
          "type": "address"
        }
      ],
      "name": "VaultCreated",
      "type": "event"
    },
    {
      "anonymous": false,
      "inputs": [
        {
          "indexed": true,
          "internalType": "address",
          "name": "vault",
          "type": "address"
        },
        {
          "indexed": false,
          "internalType": "enum VaultRegistry.VaultState",
          "name": "newState",
          "type": "uint8"
        }
      ],
      "name": "VaultStateChanged",
      "type": "event"
    },
    {
      "inputs": [],
      "name": "DEFAULT_ADMIN_ROLE",
      "outputs": [
        {
          "internalType": "bytes32",
          "name": "",
          "type": "bytes32"
        }
      ],
      "stateMutability": "view",
      "type": "function"
    },
    {
      "inputs": [
        {
          "internalType": "string",
          "name": "",
          "type": "string"
        }
      ],
      "name": "beaconAddresses",
      "outputs": [
        {
          "internalType": "address",
          "name": "",
          "type": "address"
        }
      ],
      "stateMutability": "view",
      "type": "function"
    },
    {
      "inputs": [
        {
          "internalType": "address",
          "name": "",
          "type": "address"
        }
      ],
      "name": "beaconTypes",
      "outputs": [
        {
          "internalType": "string",
          "name": "",
          "type": "string"
        }
      ],
      "stateMutability": "view",
      "type": "function"
    },
    {
      "inputs": [
        {
          "internalType": "bytes",
          "name": "_params",
          "type": "bytes"
        },
        {
          "internalType": "uint256",
          "name": "_tokenId",
          "type": "uint256"
        },
        {
          "internalType": "string",
          "name": "_beaconName",
          "type": "string"
        },
        {
          "internalType": "address",
          "name": "_vaultManager",
          "type": "address"
        },
        {
          "internalType": "string",
          "name": "_payloadIpfs",
          "type": "string"
        }
      ],
      "name": "createVault",
      "outputs": [
        {
          "internalType": "address",
          "name": "",
          "type": "address"
        }
      ],
      "stateMutability": "nonpayable",
      "type": "function"
    },
    {
      "inputs": [
        {
          "internalType": "address",
          "name": "_address",
          "type": "address"
        },
        {
          "internalType": "string",
          "name": "_name",
          "type": "string"
        },
        {
          "internalType": "string",
          "name": "_ipfsConfigForBeacon",
          "type": "string"
        }
      ],
      "name": "deployAndRegisterBeacon",
      "outputs": [
        {
          "internalType": "address",
          "name": "",
          "type": "address"
        }
      ],
      "stateMutability": "nonpayable",
      "type": "function"
    },
    {
      "inputs": [
        {
          "internalType": "string",
          "name": "_name",
          "type": "string"
        }
      ],
      "name": "deregisterBeacon",
      "outputs": [],
      "stateMutability": "nonpayable",
      "type": "function"
    },
    {
      "inputs": [
        {
          "internalType": "bytes4",
          "name": "interfaceId",
          "type": "bytes4"
        }
      ],
      "name": "doISupportInterface",
      "outputs": [
        {
          "internalType": "bool",
          "name": "",
          "type": "bool"
        }
      ],
      "stateMutability": "view",
      "type": "function"
    },
    {
      "inputs": [
        {
          "internalType": "bytes32",
          "name": "role",
          "type": "bytes32"
        }
      ],
      "name": "getRoleAdmin",
      "outputs": [
        {
          "internalType": "bytes32",
          "name": "",
          "type": "bytes32"
        }
      ],
      "stateMutability": "view",
      "type": "function"
    },
    {
      "inputs": [
        {
          "internalType": "address",
          "name": "_vault",
          "type": "address"
        }
      ],
      "name": "getStrategyCreatorForVault",
      "outputs": [
        {
          "internalType": "address",
          "name": "",
          "type": "address"
        }
      ],
      "stateMutability": "view",
      "type": "function"
    },
    {
      "inputs": [
        {
          "internalType": "uint256",
          "name": "_tokenId",
          "type": "uint256"
        },
        {
          "internalType": "uint256",
          "name": "_vaultId",
          "type": "uint256"
        }
      ],
      "name": "getVaultByStrategyAndIndex",
      "outputs": [
        {
          "components": [
            {
              "internalType": "enum VaultRegistry.VaultState",
              "name": "state",
              "type": "uint8"
            },
            {
              "internalType": "uint256",
              "name": "tokenId",
              "type": "uint256"
            },
            {
              "internalType": "uint256",
              "name": "vaultID",
              "type": "uint256"
            },
            {
              "internalType": "string",
              "name": "payloadIpfs",
              "type": "string"
            },
            {
              "internalType": "address",
              "name": "vaultAddress",
              "type": "address"
            },
            {
              "internalType": "string",
              "name": "beaconName",
              "type": "string"
            }
          ],
          "internalType": "struct VaultRegistry.VaultData",
          "name": "",
          "type": "tuple"
        }
      ],
      "stateMutability": "view",
      "type": "function"
    },
    {
      "inputs": [
        {
          "internalType": "uint256",
          "name": "_tokenId",
          "type": "uint256"
        }
      ],
      "name": "getVaultCountByStrategyId",
      "outputs": [
        {
          "internalType": "uint256",
          "name": "",
          "type": "uint256"
        }
      ],
      "stateMutability": "view",
      "type": "function"
    },
    {
      "inputs": [
        {
          "internalType": "address",
          "name": "_address",
          "type": "address"
        }
      ],
      "name": "getVaultDetails",
      "outputs": [
        {
          "components": [
            {
              "internalType": "enum VaultRegistry.VaultState",
              "name": "state",
              "type": "uint8"
            },
            {
              "internalType": "uint256",
              "name": "tokenId",
              "type": "uint256"
            },
            {
              "internalType": "uint256",
              "name": "vaultID",
              "type": "uint256"
            },
            {
              "internalType": "string",
              "name": "payloadIpfs",
              "type": "string"
            },
            {
              "internalType": "address",
              "name": "vaultAddress",
              "type": "address"
            },
            {
              "internalType": "string",
              "name": "beaconName",
              "type": "string"
            }
          ],
          "internalType": "struct VaultRegistry.VaultData",
          "name": "",
          "type": "tuple"
        }
      ],
      "stateMutability": "view",
      "type": "function"
    },
    {
      "inputs": [
        {
          "internalType": "bytes32",
          "name": "role",
          "type": "bytes32"
        },
        {
          "internalType": "address",
          "name": "account",
          "type": "address"
        }
      ],
      "name": "grantRole",
      "outputs": [],
      "stateMutability": "nonpayable",
      "type": "function"
    },
    {
      "inputs": [
        {
          "internalType": "bytes32",
          "name": "role",
          "type": "bytes32"
        },
        {
          "internalType": "address",
          "name": "account",
          "type": "address"
        }
      ],
      "name": "hasRole",
      "outputs": [
        {
          "internalType": "bool",
          "name": "",
          "type": "bool"
        }
      ],
      "stateMutability": "view",
      "type": "function"
    },
    {
      "inputs": [
        {
          "internalType": "address",
          "name": "_orchestrator",
          "type": "address"
        },
        {
          "internalType": "address",
          "name": "_strategyRegistry",
          "type": "address"
        },
        {
          "internalType": "address",
          "name": "_whitelistRegistry",
          "type": "address"
        }
      ],
      "name": "initialize",
      "outputs": [],
      "stateMutability": "nonpayable",
      "type": "function"
    },
    {
      "inputs": [
        {
          "internalType": "string",
          "name": "",
          "type": "string"
        },
        {
          "internalType": "bytes4",
          "name": "",
          "type": "bytes4"
        }
      ],
      "name": "interfaceImplementations",
      "outputs": [
        {
          "internalType": "bool",
          "name": "",
          "type": "bool"
        }
      ],
      "stateMutability": "view",
      "type": "function"
    },
    {
      "inputs": [
        {
          "internalType": "uint256",
          "name": "",
          "type": "uint256"
        },
        {
          "internalType": "uint256",
          "name": "",
          "type": "uint256"
        }
      ],
      "name": "linkedVaults",
      "outputs": [
        {
          "internalType": "address",
          "name": "",
          "type": "address"
        }
      ],
      "stateMutability": "view",
      "type": "function"
    },
    {
      "inputs": [],
      "name": "orchestrator",
      "outputs": [
        {
          "internalType": "address",
          "name": "",
          "type": "address"
        }
      ],
      "stateMutability": "view",
      "type": "function"
    },
    {
      "inputs": [],
      "name": "owner",
      "outputs": [
        {
          "internalType": "address",
          "name": "",
          "type": "address"
        }
      ],
      "stateMutability": "view",
      "type": "function"
    },
    {
      "inputs": [],
      "name": "pause",
      "outputs": [],
      "stateMutability": "nonpayable",
      "type": "function"
    },
    {
      "inputs": [],
      "name": "paused",
      "outputs": [
        {
          "internalType": "bool",
          "name": "",
          "type": "bool"
        }
      ],
      "stateMutability": "view",
      "type": "function"
    },
    {
      "inputs": [
        {
          "internalType": "string",
          "name": "_name",
          "type": "string"
        },
        {
          "internalType": "address",
          "name": "_address",
          "type": "address"
        },
        {
          "internalType": "string",
          "name": "_ipfsConfigForBeacon",
          "type": "string"
        }
      ],
      "name": "registerBeacon",
      "outputs": [],
      "stateMutability": "nonpayable",
      "type": "function"
    },
    {
      "inputs": [],
      "name": "renounceOwnership",
      "outputs": [],
      "stateMutability": "nonpayable",
      "type": "function"
    },
    {
      "inputs": [
        {
          "internalType": "bytes32",
          "name": "role",
          "type": "bytes32"
        },
        {
          "internalType": "address",
          "name": "account",
          "type": "address"
        }
      ],
      "name": "renounceRole",
      "outputs": [],
      "stateMutability": "nonpayable",
      "type": "function"
    },
    {
      "inputs": [
        {
          "internalType": "bytes32",
          "name": "role",
          "type": "bytes32"
        },
        {
          "internalType": "address",
          "name": "account",
          "type": "address"
        }
      ],
      "name": "revokeRole",
      "outputs": [],
      "stateMutability": "nonpayable",
      "type": "function"
    },
    {
      "inputs": [],
      "name": "strategyRegistry",
      "outputs": [
        {
          "internalType": "contract IStrategyRegistry",
          "name": "",
          "type": "address"
        }
      ],
      "stateMutability": "view",
      "type": "function"
    },
    {
      "inputs": [
        {
          "internalType": "bytes4",
          "name": "interfaceId",
          "type": "bytes4"
        }
      ],
      "name": "supportsInterface",
      "outputs": [
        {
          "internalType": "bool",
          "name": "",
          "type": "bool"
        }
      ],
      "stateMutability": "view",
      "type": "function"
    },
    {
      "inputs": [],
      "name": "totalVaultCount",
      "outputs": [
        {
          "internalType": "uint256",
          "name": "",
          "type": "uint256"
        }
      ],
      "stateMutability": "view",
      "type": "function"
    },
    {
      "inputs": [
        {
          "internalType": "address",
          "name": "newOwner",
          "type": "address"
        }
      ],
      "name": "transferOwnership",
      "outputs": [],
      "stateMutability": "nonpayable",
      "type": "function"
    },
    {
      "inputs": [],
      "name": "unpause",
      "outputs": [],
      "stateMutability": "nonpayable",
      "type": "function"
    },
    {
      "inputs": [
        {
          "internalType": "string",
          "name": "_name",
          "type": "string"
        },
        {
          "internalType": "string",
          "name": "_newIPFSConfigForBeacon",
          "type": "string"
        }
      ],
      "name": "updateBeaconConfig",
      "outputs": [],
      "stateMutability": "nonpayable",
      "type": "function"
    },
    {
      "inputs": [
        {
          "internalType": "string",
          "name": "beaconName",
          "type": "string"
        },
        {
          "internalType": "bytes4[]",
          "name": "selectors",
          "type": "bytes4[]"
        },
        {
          "internalType": "bool[]",
          "name": "isImplemented",
          "type": "bool[]"
        }
      ],
      "name": "updateInterfaceImplementations",
      "outputs": [],
      "stateMutability": "nonpayable",
      "type": "function"
    },
    {
      "inputs": [
        {
          "internalType": "address",
          "name": "_vault",
          "type": "address"
        },
        {
          "internalType": "enum VaultRegistry.VaultState",
          "name": "_newState",
          "type": "uint8"
        }
      ],
      "name": "updateVaultState",
      "outputs": [],
      "stateMutability": "nonpayable",
      "type": "function"
    },
    {
      "inputs": [
        {
          "internalType": "address",
          "name": "newImplementation",
          "type": "address"
        }
      ],
      "name": "upgradeTo",
      "outputs": [],
      "stateMutability": "nonpayable",
      "type": "function"
    },
    {
      "inputs": [
        {
          "internalType": "address",
          "name": "newImplementation",
          "type": "address"
        },
        {
          "internalType": "bytes",
          "name": "data",
          "type": "bytes"
        }
      ],
      "name": "upgradeToAndCall",
      "outputs": [],
      "stateMutability": "payable",
      "type": "function"
    },
    {
      "inputs": [],
      "name": "whitelistRegistry",
      "outputs": [
        {
          "internalType": "address",
          "name": "",
          "type": "address"
        }
      ],
      "stateMutability": "view",
      "type": "function"
    }
  ],
  "transactionHash": "0xc1e98ca8a8a4c61da449957a4a38b9d12cd21cccdaf4b142ec99d5958a8aa6dc",
  "args": [],
  "numDeployments": 1,
  "solcInputHash": "de4128423a4eb3f1b17d57738cf295f0",
  "bytecode": "0x60a0604052306080523480156200001557600080fd5b50600054610100900460ff16620000335760005460ff16156200003d565b6200003d620000e2565b620000a55760405162461bcd60e51b815260206004820152602e60248201527f496e697469616c697a61626c653a20636f6e747261637420697320616c72656160448201526d191e481a5b9a5d1a585b1a5e995960921b606482015260840160405180910390fd5b600054610100900460ff16158015620000c8576000805461ffff19166101011790555b8015620000db576000805461ff00191690555b5062000106565b6000620000fa306200010060201b62001cfb1760201c565b15905090565b3b151590565b60805161454f6200013760003960008181610d2501528181610d680152818161134f0152611392015261454f6000f3fe6080604052600436106200023b5760003560e01c806367a44ca3116200012f578063be2bf8ae11620000ad578063e67fec821162000078578063e67fec8214620006f0578063ec192f8a1462000722578063ed9506381462000768578063f2fde38b146200078b578063f3b881a314620007b057600080fd5b8063be2bf8ae146200065e578063c0c53b8b1462000683578063d080bf2714620006a8578063d547741f14620006cb57600080fd5b806391d1485411620000fa57806391d1485414620005b55780639774272c14620005da578063a217fddf14620005ff578063ab8b2a731462000616578063b74795d9146200063b57600080fd5b806367a44ca31462000540578063715018a614620005655780638456cb59146200057d5780638da5cb5b146200059557600080fd5b80633659cfe611620001bd578063456b79c71162000188578063456b79c714620004a05780634b894cff14620004c55780634f1ef28614620004ea5780634f4df28714620005015780635c975abb146200052657600080fd5b80633659cfe6146200041657806338119369146200043b5780633f4ba83a1462000454578063437783d6146200046c57600080fd5b8063248a9ca3116200020a578063248a9ca3146200032f57806325d8d09e1462000373578063280c8dfd14620003a75780632f2ff15d14620003cc57806336568abe14620003f157600080fd5b806301ffc9a7146200024057806303286fbf146200027a57806306b5203b14620002ca5780630ad0eb3814620002f1575b600080fd5b3480156200024d57600080fd5b50620002656200025f366004620029de565b620007f6565b60405190151581526020015b60405180910390f35b3480156200028757600080fd5b50620002656200029936600462002aa6565b8151602081840181018051610161825292820194820194909420919093529091526000908152604090205460ff1681565b348015620002d757600080fd5b50620002ef620002e936600462002b5a565b6200082e565b005b348015620002fe57600080fd5b50620003166200031036600462002be0565b62000972565b6040516001600160a01b03909116815260200162000271565b3480156200033c57600080fd5b50620003646200034e36600462002c00565b600090815261012d602052604090206001015490565b60405190815260200162000271565b3480156200038057600080fd5b50620003986200039236600462002c1a565b620009fd565b60405162000271919062002cd3565b348015620003b457600080fd5b50620002ef620003c636600462002d4d565b62000bda565b348015620003d957600080fd5b50620002ef620003eb36600462002d92565b62000c68565b348015620003fe57600080fd5b50620002ef6200041036600462002d92565b62000c98565b3480156200042357600080fd5b50620002ef6200043536600462002be0565b62000d1a565b3480156200044857600080fd5b50620003646101625481565b3480156200046157600080fd5b50620002ef62000def565b3480156200047957600080fd5b50620004916200048b36600462002be0565b62000e26565b60405162000271919062002dc5565b348015620004ad57600080fd5b5062000316620004bf36600462002dda565b62000ec9565b348015620004d257600080fd5b5062000316620004e436600462002e8c565b6200113e565b620002ef620004fb36600462002f17565b62001344565b3480156200050e57600080fd5b50620002ef6200052036600462002fb3565b62001406565b3480156200053357600080fd5b5060975460ff1662000265565b3480156200054d57600080fd5b50620003986200055f36600462002be0565b6200152d565b3480156200057257600080fd5b50620002ef620016f4565b3480156200058a57600080fd5b50620002ef6200172f565b348015620005a257600080fd5b5060c9546001600160a01b031662000316565b348015620005c257600080fd5b5062000265620005d436600462002d92565b62001766565b348015620005e757600080fd5b50620002ef620005f936600462003056565b62001792565b3480156200060c57600080fd5b5062000364600081565b3480156200062357600080fd5b506200026562000635366004620029de565b62001866565b3480156200064857600080fd5b506101665462000316906001600160a01b031681565b3480156200066b57600080fd5b50620002ef6200067d366004620030c8565b62001953565b3480156200069057600080fd5b50620002ef620006a2366004620030fe565b62001a05565b348015620006b557600080fd5b506101675462000316906001600160a01b031681565b348015620006d857600080fd5b50620002ef620006ea36600462002d92565b62001c31565b348015620006fd57600080fd5b50620003646200070f36600462002c00565b6000908152610165602052604090205490565b3480156200072f57600080fd5b50620003166200074136600462002c1a565b6101646020908152600092835260408084209091529082529020546001600160a01b031681565b3480156200077557600080fd5b506101685462000316906001600160a01b031681565b3480156200079857600080fd5b50620002ef620007aa36600462002be0565b62001c5c565b348015620007bd57600080fd5b5062000316620007cf36600462003150565b805160208183018101805161015f825292820191909301209152546001600160a01b031681565b60006001600160e01b03198216637965db0b60e01b14806200082857506301ffc9a760e01b6001600160e01b03198316145b92915050565b600080516020620044fa8339815191526200084a813362001d01565b60006001600160a01b031661015f86866040516200086a92919062003190565b908152604051908190036020019020546001600160a01b031614620008ce5760405162461bcd60e51b8152602060048201526015602482015274426561636f6e20616c72656164792065786973747360581b60448201526064015b60405180910390fd5b8261015f8686604051620008e492919062003190565b908152604080516020928190038301902080546001600160a01b0319166001600160a01b039485161790559185166000908152610160909152206200092b90868662002841565b507f24465a1f9a55eb0e9691adbdc0160061ace64f7309611b6aa3add1f00b178d0f85858585604051620009639493929190620031c9565b60405180910390a15050505050565b610167546001600160a01b03828116600090815261016360205260408082206001015490516331a9108f60e11b8152600481019190915290929190911690636352211e90602401602060405180830381865afa158015620009d7573d6000803e3d6000fd5b505050506040513d601f19601f820116820180604052508101906200082891906200320d565b62000a07620028d0565b6000838152610164602090815260408083208584528252808320546001600160a01b0316835261016390915290819020815160c081019092528054829060ff16600481111562000a5b5762000a5b62002c3d565b600481111562000a6f5762000a6f62002c3d565b8152602001600182015481526020016002820154815260200160038201805462000a99906200322d565b80601f016020809104026020016040519081016040528092919081815260200182805462000ac7906200322d565b801562000b185780601f1062000aec5761010080835404028352916020019162000b18565b820191906000526020600020905b81548152906001019060200180831162000afa57829003601f168201915b505050918352505060048201546001600160a01b0316602082015260058201805460409092019162000b4a906200322d565b80601f016020809104026020016040519081016040528092919081815260200182805462000b78906200322d565b801562000bc95780601f1062000b9d5761010080835404028352916020019162000bc9565b820191906000526020600020905b81548152906001019060200180831162000bab57829003601f168201915b505050505081525050905092915050565b600080516020620044fa83398151915262000bf6813362001d01565b7f1a066afb4a727dab9f80135f964045d9e6b7e75e1fa27bf957f29dcc024e43ed838360405162000c299291906200326a565b60405180910390a161015f838360405162000c4692919062003190565b90815260405190819003602001902080546001600160a01b0319169055505050565b600082815261012d602052604090206001015462000c87813362001d01565b62000c93838362001d70565b505050565b6001600160a01b038116331462000d0a5760405162461bcd60e51b815260206004820152602f60248201527f416363657373436f6e74726f6c3a2063616e206f6e6c792072656e6f756e636560448201526e103937b632b9903337b91039b2b63360891b6064820152608401620008c5565b62000d16828262001dfb565b5050565b306001600160a01b037f000000000000000000000000000000000000000000000000000000000000000016141562000d665760405162461bcd60e51b8152600401620008c59062003280565b7f00000000000000000000000000000000000000000000000000000000000000006001600160a01b031662000d9a62001e66565b6001600160a01b03161462000dc35760405162461bcd60e51b8152600401620008c590620032cc565b62000dce8162001e94565b6040805160008082526020820190925262000dec9183919062001ec1565b50565b7f65d7a28e3265b37a6474929f336521b332c1681b933f6cb9f3376673440d862a62000e1c813362001d01565b62000dec6200201d565b610160602052600090815260409020805462000e42906200322d565b80601f016020809104026020016040519081016040528092919081815260200182805462000e70906200322d565b801562000ec15780601f1062000e955761010080835404028352916020019162000ec1565b820191906000526020600020905b81548152906001019060200180831162000ea357829003601f168201915b505050505081565b600062000ed860975460ff1690565b1562000f1a5760405162461bcd60e51b815260206004820152601060248201526f14185d5cd8589b194e881c185d5cd95960821b6044820152606401620008c5565b610167546040516331a9108f60e11b8152600481018790526001600160a01b0390911690636352211e90602401602060405180830381865afa15801562000f65573d6000803e3d6000fd5b505050506040513d601f19601f8201168201806040525081019062000f8b91906200320d565b50600061015f8560405162000fa1919062003318565b908152604051908190036020019020546001600160a01b0316905080620010035760405162461bcd60e51b815260206004820152601560248201527410995858dbdb881a5cc81b9bdd081c1c995cd95b9d605a1b6044820152606401620008c5565b61016654600090829063246581f760e01b9087906001600160a01b03166200103360c9546001600160a01b031690565b8c60405160240162001049949392919062003336565b60408051601f198184030181529181526020820180516001600160e01b03166001600160e01b0319909416939093179092529051620010889062002910565b6200109592919062003376565b604051809103906000f080158015620010b2573d6000803e3d6000fd5b506001600160a01b0381166000908152610160602090815260409091208851929350620010e49290918901906200291e565b50620010f387828689620020b2565b867f3910bed511b4ecc0d6ae24498d585722a54c6ce9ab5e65b4be534cec981f7f6f338389896040516200112b94939291906200339c565b60405180910390a2979650505050505050565b6000600080516020620044fa8339815191526200115c813362001d01565b60006001600160a01b031661015f87876040516200117c92919062003190565b908152604051908190036020019020546001600160a01b031614620011dc5760405162461bcd60e51b8152602060048201526015602482015274426561636f6e20616c72656164792065786973747360581b6044820152606401620008c5565b600087604051620011ed906200299b565b6001600160a01b039091168152602001604051809103906000f0801580156200121a573d6000803e3d6000fd5b509050806001600160a01b031663f2fde38b6200123f60c9546001600160a01b031690565b6040516001600160e01b031960e084901b1681526001600160a01b039091166004820152602401600060405180830381600087803b1580156200128157600080fd5b505af115801562001296573d6000803e3d6000fd5b505050508061015f8888604051620012b092919062003190565b908152604080516020928190038301902080546001600160a01b0319166001600160a01b03948516179055918316600090815261016090915220620012f790888862002841565b507f24465a1f9a55eb0e9691adbdc0160061ace64f7309611b6aa3add1f00b178d0f87878a888860405162001331959493929190620033dc565b60405180910390a1979650505050505050565b306001600160a01b037f0000000000000000000000000000000000000000000000000000000000000000161415620013905760405162461bcd60e51b8152600401620008c59062003280565b7f00000000000000000000000000000000000000000000000000000000000000006001600160a01b0316620013c462001e66565b6001600160a01b031614620013ed5760405162461bcd60e51b8152600401620008c590620032cc565b620013f88262001e94565b62000d168282600162001ec1565b7f5f36c4325e7b3e3c355f553dd2d909e309f22530e6b36ae3260b053f89fb8c2162001433813362001d01565b8382146200145f57604051630d07103b60e41b81526004810185905260248101839052604401620008c5565b60005b80851462001523578383828181106200147f576200147f62003422565b905060200201602081019062001496919062003438565b6101618989604051620014ab92919062003190565b90815260200160405180910390206000888885818110620014d057620014d062003422565b9050602002016020810190620014e79190620029de565b6001600160e01b03191681526020810191909152604001600020805460ff19169115159190911790556200151b8162003472565b905062001462565b5050505050505050565b62001537620028d0565b6001600160a01b0382166000908152610163602052604090819020815160c081019092528054829060ff16600481111562001576576200157662002c3d565b60048111156200158a576200158a62002c3d565b81526020016001820154815260200160028201548152602001600382018054620015b4906200322d565b80601f0160208091040260200160405190810160405280929190818152602001828054620015e2906200322d565b8015620016335780601f10620016075761010080835404028352916020019162001633565b820191906000526020600020905b8154815290600101906020018083116200161557829003601f168201915b505050918352505060048201546001600160a01b0316602082015260058201805460409092019162001665906200322d565b80601f016020809104026020016040519081016040528092919081815260200182805462001693906200322d565b8015620016e45780601f10620016b857610100808354040283529160200191620016e4565b820191906000526020600020905b815481529060010190602001808311620016c657829003601f168201915b5050505050815250509050919050565b60c9546001600160a01b03163314620017215760405162461bcd60e51b8152600401620008c59062003490565b6200172d600062002207565b565b7f65d7a28e3265b37a6474929f336521b332c1681b933f6cb9f3376673440d862a6200175c813362001d01565b62000dec62002259565b600091825261012d602090815260408084206001600160a01b0393909316845291905290205460ff1690565b600080516020620044fa833981519152620017ae813362001d01565b60006001600160a01b031661015f8686604051620017ce92919062003190565b908152604051908190036020019020546001600160a01b031614156200182f5760405162461bcd60e51b815260206004820152601560248201527410995858dbdb88191bd95cc81b9bdd08195e1a5cdd605a1b6044820152606401620008c5565b7f36f2c5b342695ee5dddbc5f4df3702d45b57810740060110c70c87e723e01cf885858585604051620009639493929190620034c5565b33600090815261016060205260408120805482919062001886906200322d565b80601f0160208091040260200160405190810160405280929190818152602001828054620018b4906200322d565b8015620019055780601f10620018d95761010080835404028352916020019162001905565b820191906000526020600020905b815481529060010190602001808311620018e757829003601f168201915b50505050509050610161816040516200191f919062003318565b90815260408051602092819003830190206001600160e01b0319959095166000908152949091529092205460ff1692915050565b60c9546001600160a01b03163314620019805760405162461bcd60e51b8152600401620008c59062003490565b6001600160a01b038216600090815261016360205260409020805482919060ff19166001836004811115620019b957620019b962002c3d565b0217905550816001600160a01b03167fb977ce68002d3b49b272b3ae970ad8a17b283cd2b5d40a674c888140bca7436b82604051620019f99190620034f0565b60405180910390a25050565b600054610100900460ff1662001a225760005460ff161562001a26565b303b155b62001a8b5760405162461bcd60e51b815260206004820152602e60248201527f496e697469616c697a61626c653a20636f6e747261637420697320616c72656160448201526d191e481a5b9a5d1a585b1a5e995960921b6064820152608401620008c5565b600054610100900460ff1615801562001aae576000805461ffff19166101011790555b62001ab8620022d7565b62001ac262002315565b62001acc62002353565b62001ad662002387565b6001600160a01b03831662001aff5760405162461bcd60e51b8152600401620008c59062003500565b6001600160a01b03821662001b285760405162461bcd60e51b8152600401620008c59062003500565b6001600160a01b03841662001b515760405162461bcd60e51b8152600401620008c59062003500565b61016680546001600160a01b038087166001600160a01b031992831617909255610167805486841690831617905561016880549285169290911691909117905562001bc47f65d7a28e3265b37a6474929f336521b332c1681b933f6cb9f3376673440d862a62001bbe3390565b620023c5565b62001bdf600080516020620044fa83398151915233620023c5565b62001c0b7f5f36c4325e7b3e3c355f553dd2d909e309f22530e6b36ae3260b053f89fb8c2133620023c5565b62001c18600033620023c5565b801562001c2b576000805461ff00191690555b50505050565b600082815261012d602052604090206001015462001c50813362001d01565b62000c93838362001dfb565b60c9546001600160a01b0316331462001c895760405162461bcd60e51b8152600401620008c59062003490565b6001600160a01b03811662001cf05760405162461bcd60e51b815260206004820152602660248201527f4f776e61626c653a206e6577206f776e657220697320746865207a65726f206160448201526564647265737360d01b6064820152608401620008c5565b62000dec8162002207565b3b151590565b62001d0d828262001766565b62000d165762001d28816001600160a01b03166014620023d1565b62001d35836020620023d1565b60405160200162001d4892919062003524565b60408051601f198184030181529082905262461bcd60e51b8252620008c59160040162002dc5565b62001d7c828262001766565b62000d1657600082815261012d602090815260408083206001600160a01b03851684529091529020805460ff1916600117905562001db73390565b6001600160a01b0316816001600160a01b0316837f2f8788117e7eff1d82e926ec794901d17c78024a50270940304540a733656f0d60405160405180910390a45050565b62001e07828262001766565b1562000d1657600082815261012d602090815260408083206001600160a01b0385168085529252808320805460ff1916905551339285917ff6391f5c32d9c69d2a47ea670b442974b53935d1edc7fd64eb21e047a839171b9190a45050565b7f360894a13ba1a3210667c828492db98dca3e2076cc3735a920a3ca505d382bbc546001600160a01b031690565b60c9546001600160a01b0316331462000dec5760405162461bcd60e51b8152600401620008c59062003490565b600062001ecd62001e66565b905062001eda8462002591565b60008351118062001ee85750815b1562001efc5762001efa848462002638565b505b7f4910fdfa16fed3260ed0e7147f7cc6da11a60208b5b9406d12a635614ffd9143805460ff166200201657805460ff191660011781556040516001600160a01b038316602482015262001f7e90869060440160408051601f198184030181529190526020810180516001600160e01b0316631b2ce7f360e11b17905262002638565b50805460ff1916815562001f9162001e66565b6001600160a01b0316826001600160a01b0316146200200b5760405162461bcd60e51b815260206004820152602f60248201527f45524331393637557067726164653a207570677261646520627265616b73206660448201526e75727468657220757067726164657360881b6064820152608401620008c5565b62002016856200272c565b5050505050565b60975460ff16620020685760405162461bcd60e51b815260206004820152601460248201527314185d5cd8589b194e881b9bdd081c185d5cd95960621b6044820152606401620008c5565b6097805460ff191690557f5db9ee0a495bf2e6ff9c91a7834c1ba4fdd244a5e8aa4e537bd38aeae4b073aa335b6040516001600160a01b03909116815260200160405180910390a1565b60008481526101656020908152604080832054610164835281842081855290925290912080546001600160a01b0319166001600160a01b038616179055620020fc8160016200359d565b600086815261016560205260409081902091909155805160c081019091528060018152602001868152602001610162600081546200213a9062003472565b9182905550815260208082018690526001600160a01b0387166040808401829052606090930186905260009081526101639091522081518154829060ff1916600183600481111562002190576200219062002c3d565b021790555060208281015160018301556040830151600283015560608301518051620021c392600385019201906200291e565b5060808201516004820180546001600160a01b0319166001600160a01b0390921691909117905560a08201518051620015239160058401916020909101906200291e565b60c980546001600160a01b038381166001600160a01b0319831681179093556040519116919082907f8be0079c531659141344cd1fd0a4f28419497f9722a3daafe3b4186f6b6457e090600090a35050565b60975460ff1615620022a15760405162461bcd60e51b815260206004820152601060248201526f14185d5cd8589b194e881c185d5cd95960821b6044820152606401620008c5565b6097805460ff191660011790557f62e78cea01bee320cd4e420270b5ea74000d11b0c9f74754ebdbfc544b05a258620020953390565b600054610100900460ff16620023015760405162461bcd60e51b8152600401620008c590620035b8565b6200230b6200276e565b6200172d6200276e565b600054610100900460ff166200233f5760405162461bcd60e51b8152600401620008c590620035b8565b620023496200276e565b6200172d62002798565b600054610100900460ff166200237d5760405162461bcd60e51b8152600401620008c590620035b8565b620023016200276e565b600054610100900460ff16620023b15760405162461bcd60e51b8152600401620008c590620035b8565b620023bb6200276e565b6200172d620027cd565b62000d16828262001d70565b60606000620023e283600262003603565b620023ef9060026200359d565b6001600160401b03811115620024095762002409620029fc565b6040519080825280601f01601f19166020018201604052801562002434576020820181803683370190505b509050600360fc1b8160008151811062002452576200245262003422565b60200101906001600160f81b031916908160001a905350600f60fb1b8160018151811062002484576200248462003422565b60200101906001600160f81b031916908160001a9053506000620024aa84600262003603565b620024b79060016200359d565b90505b600181111562002539576f181899199a1a9b1b9c1cb0b131b232b360811b85600f1660108110620024ef57620024ef62003422565b1a60f81b82828151811062002508576200250862003422565b60200101906001600160f81b031916908160001a90535060049490941c93620025318162003625565b9050620024ba565b5083156200258a5760405162461bcd60e51b815260206004820181905260248201527f537472696e67733a20686578206c656e67746820696e73756666696369656e746044820152606401620008c5565b9392505050565b803b620025f75760405162461bcd60e51b815260206004820152602d60248201527f455243313936373a206e657720696d706c656d656e746174696f6e206973206e60448201526c1bdd08184818dbdb9d1c9858dd609a1b6064820152608401620008c5565b7f360894a13ba1a3210667c828492db98dca3e2076cc3735a920a3ca505d382bbc80546001600160a01b0319166001600160a01b0392909216919091179055565b6060823b620026995760405162461bcd60e51b815260206004820152602660248201527f416464726573733a2064656c65676174652063616c6c20746f206e6f6e2d636f6044820152651b9d1c9858dd60d21b6064820152608401620008c5565b600080846001600160a01b031684604051620026b6919062003318565b600060405180830381855af49150503d8060008114620026f3576040519150601f19603f3d011682016040523d82523d6000602084013e620026f8565b606091505b5091509150620027238282604051806060016040528060278152602001620044d36027913962002803565b95945050505050565b620027378162002591565b6040516001600160a01b038216907fbc7cd75a20ee27fd9adebab32041f755214dbc6bffa90cc0225b39da2e5c2d3b90600090a250565b600054610100900460ff166200172d5760405162461bcd60e51b8152600401620008c590620035b8565b600054610100900460ff16620027c25760405162461bcd60e51b8152600401620008c590620035b8565b6200172d3362002207565b600054610100900460ff16620027f75760405162461bcd60e51b8152600401620008c590620035b8565b6097805460ff19169055565b60608315620028145750816200258a565b825115620028255782518084602001fd5b8160405162461bcd60e51b8152600401620008c5919062002dc5565b8280546200284f906200322d565b90600052602060002090601f016020900481019282620028735760008555620028be565b82601f106200288e5782800160ff19823516178555620028be565b82800160010185558215620028be579182015b82811115620028be578235825591602001919060010190620028a1565b50620028cc929150620029a9565b5090565b6040805160c08101909152806000815260200160008152602001600081526020016060815260200160006001600160a01b03168152602001606081525090565b610966806200364083390190565b8280546200292c906200322d565b90600052602060002090601f016020900481019282620029505760008555620028be565b82601f106200296b57805160ff1916838001178555620028be565b82800160010185558215620028be579182015b82811115620028be5782518255916020019190600101906200297e565b61052d8062003fa683390190565b5b80821115620028cc5760008155600101620029aa565b80356001600160e01b031981168114620029d957600080fd5b919050565b600060208284031215620029f157600080fd5b6200258a82620029c0565b634e487b7160e01b600052604160045260246000fd5b600082601f83011262002a2457600080fd5b81356001600160401b038082111562002a415762002a41620029fc565b604051601f8301601f19908116603f0116810190828211818310171562002a6c5762002a6c620029fc565b8160405283815286602085880101111562002a8657600080fd5b836020870160208301376000602085830101528094505050505092915050565b6000806040838503121562002aba57600080fd5b82356001600160401b0381111562002ad157600080fd5b62002adf8582860162002a12565b92505062002af060208401620029c0565b90509250929050565b60008083601f84011262002b0c57600080fd5b5081356001600160401b0381111562002b2457600080fd5b60208301915083602082850101111562002b3d57600080fd5b9250929050565b6001600160a01b038116811462000dec57600080fd5b6000806000806060858703121562002b7157600080fd5b84356001600160401b038082111562002b8957600080fd5b62002b978883890162002af9565b90965094506020870135915062002bae8262002b44565b9092506040860135908082111562002bc557600080fd5b5062002bd48782880162002a12565b91505092959194509250565b60006020828403121562002bf357600080fd5b81356200258a8162002b44565b60006020828403121562002c1357600080fd5b5035919050565b6000806040838503121562002c2e57600080fd5b50508035926020909101359150565b634e487b7160e01b600052602160045260246000fd5b6005811062002c7257634e487b7160e01b600052602160045260246000fd5b9052565b60005b8381101562002c9357818101518382015260200162002c79565b8381111562001c2b5750506000910152565b6000815180845262002cbf81602086016020860162002c76565b601f01601f19169290920160200192915050565b6020815262002ce760208201835162002c53565b60208201516040820152604082015160608201526000606083015160c0608084015262002d1860e084018262002ca5565b60808501516001600160a01b031660a085810191909152850151848203601f190160c086015290915062002723828262002ca5565b6000806020838503121562002d6157600080fd5b82356001600160401b0381111562002d7857600080fd5b62002d868582860162002af9565b90969095509350505050565b6000806040838503121562002da657600080fd5b82359150602083013562002dba8162002b44565b809150509250929050565b6020815260006200258a602083018462002ca5565b600080600080600060a0868803121562002df357600080fd5b85356001600160401b038082111562002e0b57600080fd5b62002e1989838a0162002a12565b965060208801359550604088013591508082111562002e3757600080fd5b62002e4589838a0162002a12565b94506060880135915062002e598262002b44565b9092506080870135908082111562002e7057600080fd5b5062002e7f8882890162002a12565b9150509295509295909350565b60008060008060006060868803121562002ea557600080fd5b853562002eb28162002b44565b945060208601356001600160401b038082111562002ecf57600080fd5b62002edd89838a0162002af9565b9096509450604088013591508082111562002ef757600080fd5b5062002f068882890162002af9565b969995985093965092949392505050565b6000806040838503121562002f2b57600080fd5b823562002f388162002b44565b915060208301356001600160401b0381111562002f5457600080fd5b62002f628582860162002a12565b9150509250929050565b60008083601f84011262002f7f57600080fd5b5081356001600160401b0381111562002f9757600080fd5b6020830191508360208260051b850101111562002b3d57600080fd5b6000806000806000806060878903121562002fcd57600080fd5b86356001600160401b038082111562002fe557600080fd5b62002ff38a838b0162002af9565b909850965060208901359150808211156200300d57600080fd5b6200301b8a838b0162002f6c565b909650945060408901359150808211156200303557600080fd5b506200304489828a0162002f6c565b979a9699509497509295939492505050565b600080600080604085870312156200306d57600080fd5b84356001600160401b03808211156200308557600080fd5b620030938883890162002af9565b90965094506020870135915080821115620030ad57600080fd5b50620030bc8782880162002af9565b95989497509550505050565b60008060408385031215620030dc57600080fd5b8235620030e98162002b44565b915060208301356005811062002dba57600080fd5b6000806000606084860312156200311457600080fd5b8335620031218162002b44565b92506020840135620031338162002b44565b91506040840135620031458162002b44565b809150509250925092565b6000602082840312156200316357600080fd5b81356001600160401b038111156200317a57600080fd5b620031888482850162002a12565b949350505050565b8183823760009101908152919050565b81835281816020850137506000828201602090810191909152601f909101601f19169091010190565b606081526000620031df606083018688620031a0565b6001600160a01b0385166020840152828103604084015262003202818562002ca5565b979650505050505050565b6000602082840312156200322057600080fd5b81516200258a8162002b44565b600181811c908216806200324257607f821691505b602082108114156200326457634e487b7160e01b600052602260045260246000fd5b50919050565b60208152600062003188602083018486620031a0565b6020808252602c908201527f46756e6374696f6e206d7573742062652063616c6c6564207468726f7567682060408201526b19195b1959d85d1958d85b1b60a21b606082015260800190565b6020808252602c908201527f46756e6374696f6e206d7573742062652063616c6c6564207468726f7567682060408201526b6163746976652070726f787960a01b606082015260800190565b600082516200332c81846020870162002c76565b9190910192915050565b6001600160a01b0385811682528481166020830152831660408201526080606082018190526000906200336c9083018462002ca5565b9695505050505050565b6001600160a01b0383168152604060208201819052600090620031889083018462002ca5565b600060018060a01b038087168352808616602084015260806040840152620033c8608084018662002ca5565b915080841660608401525095945050505050565b606081526000620033f2606083018789620031a0565b6001600160a01b0386166020840152828103604084015262003416818587620031a0565b98975050505050505050565b634e487b7160e01b600052603260045260246000fd5b6000602082840312156200344b57600080fd5b813580151581146200258a57600080fd5b634e487b7160e01b600052601160045260246000fd5b60006000198214156200348957620034896200345c565b5060010190565b6020808252818101527f4f776e61626c653a2063616c6c6572206973206e6f7420746865206f776e6572604082015260600190565b604081526000620034db604083018688620031a0565b828103602084015262003202818587620031a0565b6020810162000828828462002c53565b6020808252600a90820152696164647265737328302960b01b604082015260600190565b7f416363657373436f6e74726f6c3a206163636f756e74200000000000000000008152600083516200355e81601785016020880162002c76565b7001034b99036b4b9b9b4b733903937b6329607d1b60179184019182015283516200359181602884016020880162002c76565b01602801949350505050565b60008219821115620035b357620035b36200345c565b500190565b6020808252602b908201527f496e697469616c697a61626c653a20636f6e7472616374206973206e6f74206960408201526a6e697469616c697a696e6760a81b606082015260800190565b60008160001904831182151516156200362057620036206200345c565b500290565b6000816200363757620036376200345c565b50600019019056fe608060405260405161096638038061096683398101604081905261002291610479565b61004d60017fa3f0ad74e5423aebfd80d3ef4346578335a9a72aeaee59ff6cb3582b35133d51610539565b60008051602061091f833981519152146100695761006961055e565b6100758282600061007c565b50506105de565b61008583610147565b6040516001600160a01b038416907f1cf3b03a6cf19fa2baba4df148e9dcabedea7f8a5c07840e207e5c089be95d3e90600090a26000825111806100c65750805b1561014257610140836001600160a01b0316635c60da1b6040518163ffffffff1660e01b8152600401602060405180830381865afa15801561010c573d6000803e3d6000fd5b505050506040513d601f19601f820116820180604052508101906101309190610574565b836102d860201b6100291760201c565b505b505050565b61015a8161030460201b6100551760201c565b6101b95760405162461bcd60e51b815260206004820152602560248201527f455243313936373a206e657720626561636f6e206973206e6f74206120636f6e6044820152641d1c9858dd60da1b60648201526084015b60405180910390fd5b61022d816001600160a01b0316635c60da1b6040518163ffffffff1660e01b8152600401602060405180830381865afa1580156101fa573d6000803e3d6000fd5b505050506040513d601f19601f8201168201806040525081019061021e9190610574565b61030460201b6100551760201c565b6102925760405162461bcd60e51b815260206004820152603060248201527f455243313936373a20626561636f6e20696d706c656d656e746174696f6e206960448201526f1cc81b9bdd08184818dbdb9d1c9858dd60821b60648201526084016101b0565b806102b760008051602061091f83398151915260001b61030a60201b61005b1760201c565b80546001600160a01b0319166001600160a01b039290921691909117905550565b60606102fd838360405180606001604052806027815260200161093f6027913961030d565b9392505050565b3b151590565b90565b6060833b61036c5760405162461bcd60e51b815260206004820152602660248201527f416464726573733a2064656c65676174652063616c6c20746f206e6f6e2d636f6044820152651b9d1c9858dd60d21b60648201526084016101b0565b600080856001600160a01b031685604051610387919061058f565b600060405180830381855af49150503d80600081146103c2576040519150601f19603f3d011682016040523d82523d6000602084013e6103c7565b606091505b5090925090506103d88282866103e2565b9695505050505050565b606083156103f15750816102fd565b8251156104015782518084602001fd5b8160405162461bcd60e51b81526004016101b091906105ab565b80516001600160a01b038116811461043257600080fd5b919050565b634e487b7160e01b600052604160045260246000fd5b60005b83811015610468578181015183820152602001610450565b838111156101405750506000910152565b6000806040838503121561048c57600080fd5b6104958361041b565b60208401519092506001600160401b03808211156104b257600080fd5b818501915085601f8301126104c657600080fd5b8151818111156104d8576104d8610437565b604051601f8201601f19908116603f0116810190838211818310171561050057610500610437565b8160405282815288602084870101111561051957600080fd5b61052a83602083016020880161044d565b80955050505050509250929050565b60008282101561055957634e487b7160e01b600052601160045260246000fd5b500390565b634e487b7160e01b600052600160045260246000fd5b60006020828403121561058657600080fd5b6102fd8261041b565b600082516105a181846020870161044d565b9190910192915050565b60208152600082518060208401526105ca81604085016020870161044d565b601f01601f19169190910160400192915050565b610332806105ed6000396000f3fe60806040523661001357610011610017565b005b6100115b61002761002261005e565b6100f7565b565b606061004e83836040518060600160405280602781526020016102d66027913961011b565b9392505050565b3b151590565b90565b60006100917fa3f0ad74e5423aebfd80d3ef4346578335a9a72aeaee59ff6cb3582b35133d50546001600160a01b031690565b6001600160a01b0316635c60da1b6040518163ffffffff1660e01b8152600401602060405180830381865afa1580156100ce573d6000803e3d6000fd5b505050506040513d601f19601f820116820180604052508101906100f2919061022d565b905090565b3660008037600080366000845af43d6000803e808015610116573d6000f35b3d6000fd5b6060833b61017f5760405162461bcd60e51b815260206004820152602660248201527f416464726573733a2064656c65676174652063616c6c20746f206e6f6e2d636f6044820152651b9d1c9858dd60d21b60648201526084015b60405180910390fd5b600080856001600160a01b03168560405161019a9190610286565b600060405180830381855af49150503d80600081146101d5576040519150601f19603f3d011682016040523d82523d6000602084013e6101da565b606091505b50915091506101ea8282866101f4565b9695505050505050565b6060831561020357508161004e565b8251156102135782518084602001fd5b8160405162461bcd60e51b815260040161017691906102a2565b60006020828403121561023f57600080fd5b81516001600160a01b038116811461004e57600080fd5b60005b83811015610271578181015183820152602001610259565b83811115610280576000848401525b50505050565b60008251610298818460208701610256565b9190910192915050565b60208152600082518060208401526102c1816040850160208701610256565b601f01601f1916919091016040019291505056fe416464726573733a206c6f772d6c6576656c2064656c65676174652063616c6c206661696c6564a2646970667358221220dec10375713c641ca341e62980e6664dc9248ed491d19afc08d134da273f3fdb64736f6c634300080c0033a3f0ad74e5423aebfd80d3ef4346578335a9a72aeaee59ff6cb3582b35133d50416464726573733a206c6f772d6c6576656c2064656c65676174652063616c6c206661696c6564608060405234801561001057600080fd5b5060405161052d38038061052d83398101604081905261002f91610170565b61003833610047565b61004181610097565b506101a0565b600080546001600160a01b038381166001600160a01b0319831681178455604051919092169283917f8be0079c531659141344cd1fd0a4f28419497f9722a3daafe3b4186f6b6457e09190a35050565b6100aa8161016a60201b6101d91760201c565b6101205760405162461bcd60e51b815260206004820152603360248201527f5570677261646561626c65426561636f6e3a20696d706c656d656e746174696f60448201527f6e206973206e6f74206120636f6e747261637400000000000000000000000000606482015260840160405180910390fd5b600180546001600160a01b0319166001600160a01b0383169081179091556040517fbc7cd75a20ee27fd9adebab32041f755214dbc6bffa90cc0225b39da2e5c2d3b90600090a250565b3b151590565b60006020828403121561018257600080fd5b81516001600160a01b038116811461019957600080fd5b9392505050565b61037e806101af6000396000f3fe608060405234801561001057600080fd5b50600436106100575760003560e01c80635c60da1b1461005c5780635c879c101461008b578063715018a6146100a05780638da5cb5b146100a8578063f2fde38b146100b9575b600080fd5b60015461006f906001600160a01b031681565b6040516001600160a01b03909116815260200160405180910390f35b61009e6100993660046102e3565b6100cc565b005b61009e61010b565b6000546001600160a01b031661006f565b61009e6100c73660046102e3565b610141565b6000546001600160a01b031633146100ff5760405162461bcd60e51b81526004016100f690610313565b60405180910390fd5b610108816101df565b50565b6000546001600160a01b031633146101355760405162461bcd60e51b81526004016100f690610313565b61013f6000610293565b565b6000546001600160a01b0316331461016b5760405162461bcd60e51b81526004016100f690610313565b6001600160a01b0381166101d05760405162461bcd60e51b815260206004820152602660248201527f4f776e61626c653a206e6577206f776e657220697320746865207a65726f206160448201526564647265737360d01b60648201526084016100f6565b61010881610293565b3b151590565b803b6102495760405162461bcd60e51b815260206004820152603360248201527f5570677261646561626c65426561636f6e3a20696d706c656d656e746174696f6044820152721b881a5cc81b9bdd08184818dbdb9d1c9858dd606a1b60648201526084016100f6565b600180546001600160a01b0319166001600160a01b0383169081179091556040517fbc7cd75a20ee27fd9adebab32041f755214dbc6bffa90cc0225b39da2e5c2d3b90600090a250565b600080546001600160a01b038381166001600160a01b0319831681178455604051919092169283917f8be0079c531659141344cd1fd0a4f28419497f9722a3daafe3b4186f6b6457e09190a35050565b6000602082840312156102f557600080fd5b81356001600160a01b038116811461030c57600080fd5b9392505050565b6020808252818101527f4f776e61626c653a2063616c6c6572206973206e6f7420746865206f776e657260408201526060019056fea2646970667358221220a597c0cf29dbfd094990df3e8b3c13dce409639173ef37d77d7f9336775b801464736f6c634300080c0033416464726573733a206c6f772d6c6576656c2064656c65676174652063616c6c206661696c656443c4ee843c388ace340d7c40a79a882e9cb3437dbb4d5f773148b941fef1a5afa2646970667358221220011a91fb36bb0f01a8dbf1fb6dbfba5b2eb9607955bf34a7e89a96eaa5449d9864736f6c634300080c0033",
  "devdoc": {
    "author": "Steer Protocol",
    "details": "All vaults are created through this contract",
    "events": {
      "VaultCreated(address,address,string,uint256,address)": {
        "details": "Vault creation event",
        "params": {
          "deployer": "The address of the deployer",
          "tokenId": "ERC721 token id for the vault",
          "vault": "The address of the vault",
          "vaultManager": "is the address which will manage the vault being created"
        }
      },
      "VaultStateChanged(address,uint8)": {
        "details": "Vault state change event",
        "params": {
          "newState": "The new state of the vault",
          "vault": "The address of the vault"
        }
      }
    },
    "kind": "dev",
    "methods": {
      "constructor": {
        "custom:oz-upgrades-unsafe-allow": "constructor"
      },
      "createVault(bytes,uint256,string,address,string)": {
        "details": "Creates a new vault with the given strategyRegisters an execution bundle, mints an NFT and mappings it to execution bundle and it's details.owner is set as msg.sender.",
        "params": {
          "_beaconName": "beacon identifier of vault type to be created",
          "_params": "is extra parameters in vault.",
          "_tokenId": "is the NFT of the execution bundle this vault will be using. Note that if the given tokenID does not yet exist, the vault will remain inactive.",
          "_vaultManager": "is the address which will manage the vault being created"
        }
      },
      "deployAndRegisterBeacon(address,string,string)": {
        "details": "Deploy new beacon for a new vault type AND register it",
        "params": {
          "_address": "The address of the implementation for the beacon",
          "_ipfsConfigForBeacon": "IPFS hash for the config of this beacon note that the contract registered as a beacon should not be used as a vault, to avoid confusion.",
          "_name": "The name of the beacon (identifier)"
        }
      },
      "deregisterBeacon(string)": {
        "details": "Removes a beacon associated with a vault typeThis will stop the creation of more vaults of the type provided",
        "params": {
          "_name": "The name of the beacon (identifier)"
        }
      },
      "doISupportInterface(bytes4)": {
        "details": "check whether msg.sender supports a given interface id. Used to support ERC165 from a central location.",
        "params": {
          "interfaceId": "the interface id to check"
        }
      },
      "getRoleAdmin(bytes32)": {
        "details": "Returns the admin role that controls `role`. See {grantRole} and {revokeRole}. To change a role's admin, use {_setRoleAdmin}."
      },
      "getStrategyCreatorForVault(address)": {
        "details": "Retrieves the creator of a given vault",
        "params": {
          "_vault": "The address of the vault"
        },
        "returns": {
          "_0": "The address of the creator"
        }
      },
      "getVaultByStrategyAndIndex(uint256,uint256)": {
        "details": "Retrieves the vault by vault token id and vault index",
        "params": {
          "_tokenId": "The token id of the vault",
          "_vaultId": "The index of the vault"
        },
        "returns": {
          "_0": "Vault details"
        }
      },
      "getVaultCountByStrategyId(uint256)": {
        "details": "Retrieves the vault count by vault token id",
        "params": {
          "_tokenId": "The token id of the vault"
        },
        "returns": {
          "_0": "The count of the vault"
        }
      },
      "getVaultDetails(address)": {
        "details": "Retrieves the details of a given vault by address",
        "params": {
          "_address": "The address of the vault"
        },
        "returns": {
          "_0": "The details of the vault"
        }
      },
      "grantRole(bytes32,address)": {
        "details": "Grants `role` to `account`. If `account` had not been already granted `role`, emits a {RoleGranted} event. Requirements: - the caller must have ``role``'s admin role."
      },
      "hasRole(bytes32,address)": {
        "details": "Returns `true` if `account` has been granted `role`."
      },
      "initialize(address,address,address)": {
        "details": "intializes the vault registry",
        "params": {
          "_orchestrator": "The address of the orchestrator",
          "_strategyRegistry": "The address of the strategy registry",
          "_whitelistRegistry": "Address of whitelist registry which keeps track of whitelist managers and members of whitelisted vaults"
        }
      },
      "owner()": {
        "details": "Returns the address of the current owner."
      },
      "pause()": {
        "details": "Pauses the minting of the ERC721 tokens for the vaultThis function is only available to the pauser role"
      },
      "paused()": {
        "details": "Returns true if the contract is paused, and false otherwise."
      },
      "registerBeacon(string,address,string)": {
        "details": "Registers a beacon associated with a new vault typeThis function is only available to the beacon creatorRegisters any address as a new beacon. Useful for alternative beacon types (i.e. a contract which will use a proxy structure other than the standard beacon).",
        "params": {
          "_address": "The address of the beacon contract",
          "_ipfsConfigForBeacon": "IPFS hash for the config of this beacon",
          "_name": "The name of the vault type this beacon will be using"
        }
      },
      "renounceOwnership()": {
        "details": "Leaves the contract without owner. It will not be possible to call `onlyOwner` functions anymore. Can only be called by the current owner. NOTE: Renouncing ownership will leave the contract without an owner, thereby removing any functionality that is only available to the owner."
      },
      "renounceRole(bytes32,address)": {
        "details": "Revokes `role` from the calling account. Roles are often managed via {grantRole} and {revokeRole}: this function's purpose is to provide a mechanism for accounts to lose their privileges if they are compromised (such as when a trusted device is misplaced). If the calling account had been revoked `role`, emits a {RoleRevoked} event. Requirements: - the caller must be `account`."
      },
      "revokeRole(bytes32,address)": {
        "details": "Revokes `role` from `account`. If `account` had been granted `role`, emits a {RoleRevoked} event. Requirements: - the caller must have ``role``'s admin role."
      },
      "supportsInterface(bytes4)": {
        "details": "See {IERC165-supportsInterface}."
      },
      "transferOwnership(address)": {
        "details": "Transfers ownership of the contract to a new account (`newOwner`). Can only be called by the current owner."
      },
      "updateBeaconConfig(string,string)": {
        "details": "Updates the ipfs link storing the beaconConfig",
        "params": {
          "_name": "The name of the beacon (identifier)",
          "_newIPFSConfigForBeacon": "IPFS hash for the config of this beacon"
        }
      },
      "updateInterfaceImplementations(string,bytes4[],bool[])": {
        "details": "add interface info to given beacon"
      },
      "updateVaultState(address,uint8)": {
        "details": "Updates the vault state and emits a VaultStateChanged eventThis function is only available to the registry owner.",
        "params": {
          "_newState": "The new state of the vault",
          "_vault": "The address of the vault"
        }
      },
      "upgradeTo(address)": {
        "details": "Upgrade the implementation of the proxy to `newImplementation`. Calls {_authorizeUpgrade}. Emits an {Upgraded} event."
      },
      "upgradeToAndCall(address,bytes)": {
        "details": "Upgrade the implementation of the proxy to `newImplementation`, and subsequently execute the function call encoded in `data`. Calls {_authorizeUpgrade}. Emits an {Upgraded} event."
      }
    },
    "title": "A registry for vaults",
    "version": 1
  },
  "userdoc": {
    "kind": "user",
    "methods": {},
    "version": 1
  },
  "storageLayout": {
    "storage": [
      {
        "astId": 4834,
        "contract": "contracts/VaultRegistry.sol:VaultRegistry",
        "label": "_initialized",
        "offset": 0,
        "slot": "0",
        "type": "t_bool"
      },
      {
        "astId": 4837,
        "contract": "contracts/VaultRegistry.sol:VaultRegistry",
        "label": "_initializing",
        "offset": 1,
        "slot": "0",
        "type": "t_bool"
      },
      {
        "astId": 4816,
        "contract": "contracts/VaultRegistry.sol:VaultRegistry",
        "label": "__gap",
        "offset": 0,
        "slot": "1",
        "type": "t_array(t_uint256)50_storage"
      },
      {
        "astId": 5011,
        "contract": "contracts/VaultRegistry.sol:VaultRegistry",
        "label": "__gap",
        "offset": 0,
        "slot": "51",
        "type": "t_array(t_uint256)50_storage"
      },
      {
        "astId": 8682,
        "contract": "contracts/VaultRegistry.sol:VaultRegistry",
        "label": "__gap",
        "offset": 0,
        "slot": "101",
        "type": "t_array(t_uint256)50_storage"
      },
      {
        "astId": 5033,
        "contract": "contracts/VaultRegistry.sol:VaultRegistry",
        "label": "_paused",
        "offset": 0,
        "slot": "151",
        "type": "t_bool"
      },
      {
        "astId": 5124,
        "contract": "contracts/VaultRegistry.sol:VaultRegistry",
        "label": "__gap",
        "offset": 0,
        "slot": "152",
        "type": "t_array(t_uint256)49_storage"
      },
      {
        "astId": 420,
        "contract": "contracts/VaultRegistry.sol:VaultRegistry",
        "label": "_owner",
        "offset": 0,
        "slot": "201",
        "type": "t_address"
      },
      {
        "astId": 534,
        "contract": "contracts/VaultRegistry.sol:VaultRegistry",
        "label": "__gap",
        "offset": 0,
        "slot": "202",
        "type": "t_array(t_uint256)49_storage"
      },
      {
        "astId": 10020,
        "contract": "contracts/VaultRegistry.sol:VaultRegistry",
        "label": "__gap",
        "offset": 0,
        "slot": "251",
        "type": "t_array(t_uint256)50_storage"
      },
      {
        "astId": 48,
        "contract": "contracts/VaultRegistry.sol:VaultRegistry",
        "label": "_roles",
        "offset": 0,
        "slot": "301",
        "type": "t_mapping(t_bytes32,t_struct(RoleData)43_storage)"
      },
      {
        "astId": 335,
        "contract": "contracts/VaultRegistry.sol:VaultRegistry",
        "label": "__gap",
        "offset": 0,
        "slot": "302",
        "type": "t_array(t_uint256)49_storage"
      },
      {
        "astId": 16923,
        "contract": "contracts/VaultRegistry.sol:VaultRegistry",
        "label": "beaconAddresses",
        "offset": 0,
        "slot": "351",
        "type": "t_mapping(t_string_memory_ptr,t_address)"
      },
      {
        "astId": 16927,
        "contract": "contracts/VaultRegistry.sol:VaultRegistry",
        "label": "beaconTypes",
        "offset": 0,
        "slot": "352",
        "type": "t_mapping(t_address,t_string_storage)"
      },
      {
        "astId": 17117,
        "contract": "contracts/VaultRegistry.sol:VaultRegistry",
        "label": "interfaceImplementations",
        "offset": 0,
        "slot": "353",
        "type": "t_mapping(t_string_memory_ptr,t_mapping(t_bytes4,t_bool))"
      },
      {
        "astId": 16492,
        "contract": "contracts/VaultRegistry.sol:VaultRegistry",
        "label": "totalVaultCount",
        "offset": 0,
        "slot": "354",
        "type": "t_uint256"
      },
      {
        "astId": 16497,
        "contract": "contracts/VaultRegistry.sol:VaultRegistry",
        "label": "vaults",
        "offset": 0,
        "slot": "355",
        "type": "t_mapping(t_address,t_struct(VaultData)16474_storage)"
      },
      {
        "astId": 16503,
        "contract": "contracts/VaultRegistry.sol:VaultRegistry",
        "label": "linkedVaults",
        "offset": 0,
        "slot": "356",
        "type": "t_mapping(t_uint256,t_mapping(t_uint256,t_address))"
      },
      {
        "astId": 16507,
        "contract": "contracts/VaultRegistry.sol:VaultRegistry",
        "label": "linkedVaultCounts",
        "offset": 0,
        "slot": "357",
        "type": "t_mapping(t_uint256,t_uint256)"
      },
      {
        "astId": 16509,
        "contract": "contracts/VaultRegistry.sol:VaultRegistry",
        "label": "orchestrator",
        "offset": 0,
        "slot": "358",
        "type": "t_address"
      },
      {
        "astId": 16512,
        "contract": "contracts/VaultRegistry.sol:VaultRegistry",
        "label": "strategyRegistry",
        "offset": 0,
        "slot": "359",
        "type": "t_contract(IStrategyRegistry)18321"
      },
      {
        "astId": 16514,
        "contract": "contracts/VaultRegistry.sol:VaultRegistry",
        "label": "whitelistRegistry",
        "offset": 0,
        "slot": "360",
        "type": "t_address"
      }
    ],
    "types": {
      "t_address": {
        "encoding": "inplace",
        "label": "address",
        "numberOfBytes": "20"
      },
      "t_array(t_uint256)49_storage": {
        "base": "t_uint256",
        "encoding": "inplace",
        "label": "uint256[49]",
        "numberOfBytes": "1568"
      },
      "t_array(t_uint256)50_storage": {
        "base": "t_uint256",
        "encoding": "inplace",
        "label": "uint256[50]",
        "numberOfBytes": "1600"
      },
      "t_bool": {
        "encoding": "inplace",
        "label": "bool",
        "numberOfBytes": "1"
      },
      "t_bytes32": {
        "encoding": "inplace",
        "label": "bytes32",
        "numberOfBytes": "32"
      },
      "t_bytes4": {
        "encoding": "inplace",
        "label": "bytes4",
        "numberOfBytes": "4"
      },
      "t_contract(IStrategyRegistry)18321": {
        "encoding": "inplace",
        "label": "contract IStrategyRegistry",
        "numberOfBytes": "20"
      },
      "t_enum(VaultState)16480": {
        "encoding": "inplace",
        "label": "enum VaultRegistry.VaultState",
        "numberOfBytes": "1"
      },
      "t_mapping(t_address,t_bool)": {
        "encoding": "mapping",
        "key": "t_address",
        "label": "mapping(address => bool)",
        "numberOfBytes": "32",
        "value": "t_bool"
      },
      "t_mapping(t_address,t_string_storage)": {
        "encoding": "mapping",
        "key": "t_address",
        "label": "mapping(address => string)",
        "numberOfBytes": "32",
        "value": "t_string_storage"
      },
      "t_mapping(t_address,t_struct(VaultData)16474_storage)": {
        "encoding": "mapping",
        "key": "t_address",
        "label": "mapping(address => struct VaultRegistry.VaultData)",
        "numberOfBytes": "32",
        "value": "t_struct(VaultData)16474_storage"
      },
      "t_mapping(t_bytes32,t_struct(RoleData)43_storage)": {
        "encoding": "mapping",
        "key": "t_bytes32",
        "label": "mapping(bytes32 => struct AccessControlUpgradeable.RoleData)",
        "numberOfBytes": "32",
        "value": "t_struct(RoleData)43_storage"
      },
      "t_mapping(t_bytes4,t_bool)": {
        "encoding": "mapping",
        "key": "t_bytes4",
        "label": "mapping(bytes4 => bool)",
        "numberOfBytes": "32",
        "value": "t_bool"
      },
      "t_mapping(t_string_memory_ptr,t_address)": {
        "encoding": "mapping",
        "key": "t_string_memory_ptr",
        "label": "mapping(string => address)",
        "numberOfBytes": "32",
        "value": "t_address"
      },
      "t_mapping(t_string_memory_ptr,t_mapping(t_bytes4,t_bool))": {
        "encoding": "mapping",
        "key": "t_string_memory_ptr",
        "label": "mapping(string => mapping(bytes4 => bool))",
        "numberOfBytes": "32",
        "value": "t_mapping(t_bytes4,t_bool)"
      },
      "t_mapping(t_uint256,t_address)": {
        "encoding": "mapping",
        "key": "t_uint256",
        "label": "mapping(uint256 => address)",
        "numberOfBytes": "32",
        "value": "t_address"
      },
      "t_mapping(t_uint256,t_mapping(t_uint256,t_address))": {
        "encoding": "mapping",
        "key": "t_uint256",
        "label": "mapping(uint256 => mapping(uint256 => address))",
        "numberOfBytes": "32",
        "value": "t_mapping(t_uint256,t_address)"
      },
      "t_mapping(t_uint256,t_uint256)": {
        "encoding": "mapping",
        "key": "t_uint256",
        "label": "mapping(uint256 => uint256)",
        "numberOfBytes": "32",
        "value": "t_uint256"
      },
      "t_string_memory_ptr": {
        "encoding": "bytes",
        "label": "string",
        "numberOfBytes": "32"
      },
      "t_string_storage": {
        "encoding": "bytes",
        "label": "string",
        "numberOfBytes": "32"
      },
      "t_struct(RoleData)43_storage": {
        "encoding": "inplace",
        "label": "struct AccessControlUpgradeable.RoleData",
        "members": [
          {
            "astId": 40,
            "contract": "contracts/VaultRegistry.sol:VaultRegistry",
            "label": "members",
            "offset": 0,
            "slot": "0",
            "type": "t_mapping(t_address,t_bool)"
          },
          {
            "astId": 42,
            "contract": "contracts/VaultRegistry.sol:VaultRegistry",
            "label": "adminRole",
            "offset": 0,
            "slot": "1",
            "type": "t_bytes32"
          }
        ],
        "numberOfBytes": "64"
      },
      "t_struct(VaultData)16474_storage": {
        "encoding": "inplace",
        "label": "struct VaultRegistry.VaultData",
        "members": [
          {
            "astId": 16463,
            "contract": "contracts/VaultRegistry.sol:VaultRegistry",
            "label": "state",
            "offset": 0,
            "slot": "0",
            "type": "t_enum(VaultState)16480"
          },
          {
            "astId": 16465,
            "contract": "contracts/VaultRegistry.sol:VaultRegistry",
            "label": "tokenId",
            "offset": 0,
            "slot": "1",
            "type": "t_uint256"
          },
          {
            "astId": 16467,
            "contract": "contracts/VaultRegistry.sol:VaultRegistry",
            "label": "vaultID",
            "offset": 0,
            "slot": "2",
            "type": "t_uint256"
          },
          {
            "astId": 16469,
            "contract": "contracts/VaultRegistry.sol:VaultRegistry",
            "label": "payloadIpfs",
            "offset": 0,
            "slot": "3",
            "type": "t_string_storage"
          },
          {
            "astId": 16471,
            "contract": "contracts/VaultRegistry.sol:VaultRegistry",
            "label": "vaultAddress",
            "offset": 0,
            "slot": "4",
            "type": "t_address"
          },
          {
            "astId": 16473,
            "contract": "contracts/VaultRegistry.sol:VaultRegistry",
            "label": "beaconName",
            "offset": 0,
            "slot": "5",
            "type": "t_string_storage"
          }
        ],
        "numberOfBytes": "192"
      },
      "t_uint256": {
        "encoding": "inplace",
        "label": "uint256",
        "numberOfBytes": "32"
      }
    }
  }
}