{
  "address": "0x9903C4ED61A71d0d5C322097adfF752d6339F871",
  "abi": [
    {
      "anonymous": false,
      "inputs": [
        {
          "indexed": true,
          "internalType": "address",
          "name": "owner",
          "type": "address"
        },
        {
          "indexed": true,
          "internalType": "address",
          "name": "spender",
          "type": "address"
        },
        {
          "indexed": false,
          "internalType": "uint256",
          "name": "value",
          "type": "uint256"
        }
      ],
      "name": "Approval",
      "type": "event"
    },
    {
      "anonymous": false,
      "inputs": [
        {
          "indexed": true,
          "internalType": "address",
          "name": "sender",
          "type": "address"
        },
        {
          "indexed": true,
          "internalType": "address",
          "name": "to",
          "type": "address"
        },
        {
          "indexed": false,
          "internalType": "uint256",
          "name": "shares",
          "type": "uint256"
        },
        {
          "indexed": false,
          "internalType": "uint256",
          "name": "amount0",
          "type": "uint256"
        },
        {
          "indexed": false,
          "internalType": "uint256",
          "name": "amount1",
          "type": "uint256"
        }
      ],
      "name": "Deposit",
      "type": "event"
    },
    {
      "anonymous": false,
      "inputs": [
        {
          "indexed": false,
          "internalType": "uint256",
          "name": "amount0Earned",
          "type": "uint256"
        },
        {
          "indexed": false,
          "internalType": "uint256",
          "name": "amount1Earned",
          "type": "uint256"
        }
      ],
      "name": "FeesEarned",
      "type": "event"
    },
    {
      "anonymous": false,
      "inputs": [
        {
          "indexed": false,
          "internalType": "address",
          "name": "account",
          "type": "address"
        }
      ],
      "name": "Paused",
      "type": "event"
    },
    {
      "anonymous": false,
      "inputs": [
        {
          "indexed": true,
          "internalType": "bytes32",
          "name": "role",
          "type": "bytes32"
        },
        {
          "indexed": true,
          "internalType": "bytes32",
          "name": "previousAdminRole",
          "type": "bytes32"
        },
        {
          "indexed": true,
          "internalType": "bytes32",
          "name": "newAdminRole",
          "type": "bytes32"
        }
      ],
      "name": "RoleAdminChanged",
      "type": "event"
    },
    {
      "anonymous": false,
      "inputs": [
        {
          "indexed": true,
          "internalType": "bytes32",
          "name": "role",
          "type": "bytes32"
        },
        {
          "indexed": true,
          "internalType": "address",
          "name": "account",
          "type": "address"
        },
        {
          "indexed": true,
          "internalType": "address",
          "name": "sender",
          "type": "address"
        }
      ],
      "name": "RoleGranted",
      "type": "event"
    },
    {
      "anonymous": false,
      "inputs": [
        {
          "indexed": true,
          "internalType": "bytes32",
          "name": "role",
          "type": "bytes32"
        },
        {
          "indexed": true,
          "internalType": "address",
          "name": "account",
          "type": "address"
        },
        {
          "indexed": true,
          "internalType": "address",
          "name": "sender",
          "type": "address"
        }
      ],
      "name": "RoleRevoked",
      "type": "event"
    },
    {
      "anonymous": false,
      "inputs": [
        {
          "indexed": false,
          "internalType": "uint160",
          "name": "sqrtPriceX96",
          "type": "uint160"
        },
        {
          "indexed": false,
          "internalType": "uint256",
          "name": "totalAmount0",
          "type": "uint256"
        },
        {
          "indexed": false,
          "internalType": "uint256",
          "name": "totalAmount1",
          "type": "uint256"
        },
        {
          "indexed": false,
          "internalType": "uint256",
          "name": "totalSupply",
          "type": "uint256"
        }
      ],
      "name": "Snapshot",
      "type": "event"
    },
    {
      "anonymous": false,
      "inputs": [
        {
          "indexed": true,
          "internalType": "address",
          "name": "from",
          "type": "address"
        },
        {
          "indexed": true,
          "internalType": "address",
          "name": "to",
          "type": "address"
        },
        {
          "indexed": false,
          "internalType": "uint256",
          "name": "value",
          "type": "uint256"
        }
      ],
      "name": "Transfer",
      "type": "event"
    },
    {
      "anonymous": false,
      "inputs": [
        {
          "indexed": false,
          "internalType": "address",
          "name": "account",
          "type": "address"
        }
      ],
      "name": "Unpaused",
      "type": "event"
    },
    {
      "anonymous": false,
      "inputs": [
        {
          "indexed": true,
          "internalType": "address",
          "name": "sender",
          "type": "address"
        },
        {
          "indexed": true,
          "internalType": "address",
          "name": "to",
          "type": "address"
        },
        {
          "indexed": false,
          "internalType": "uint256",
          "name": "shares",
          "type": "uint256"
        },
        {
          "indexed": false,
          "internalType": "uint256",
          "name": "amount0",
          "type": "uint256"
        },
        {
          "indexed": false,
          "internalType": "uint256",
          "name": "amount1",
          "type": "uint256"
        }
      ],
      "name": "Withdraw",
      "type": "event"
    },
    {
      "inputs": [],
      "name": "DEFAULT_ADMIN_ROLE",
      "outputs": [
        {
          "internalType": "bytes32",
          "name": "",
          "type": "bytes32"
        }
      ],
      "stateMutability": "view",
      "type": "function"
    },
    {
      "inputs": [],
      "name": "STEER_FRACTION_OF_FEE",
      "outputs": [
        {
          "internalType": "uint256",
          "name": "",
          "type": "uint256"
        }
      ],
      "stateMutability": "view",
      "type": "function"
    },
    {
      "inputs": [],
      "name": "TOTAL_FEE",
      "outputs": [
        {
          "internalType": "uint256",
          "name": "",
          "type": "uint256"
        }
      ],
      "stateMutability": "view",
      "type": "function"
    },
    {
      "inputs": [],
      "name": "accruedSteerFees0",
      "outputs": [
        {
          "internalType": "uint256",
          "name": "",
          "type": "uint256"
        }
      ],
      "stateMutability": "view",
      "type": "function"
    },
    {
      "inputs": [],
      "name": "accruedSteerFees1",
      "outputs": [
        {
          "internalType": "uint256",
          "name": "",
          "type": "uint256"
        }
      ],
      "stateMutability": "view",
      "type": "function"
    },
    {
      "inputs": [],
      "name": "accruedStrategistFees0",
      "outputs": [
        {
          "internalType": "uint256",
          "name": "",
          "type": "uint256"
        }
      ],
      "stateMutability": "view",
      "type": "function"
    },
    {
      "inputs": [],
      "name": "accruedStrategistFees1",
      "outputs": [
        {
          "internalType": "uint256",
          "name": "",
          "type": "uint256"
        }
      ],
      "stateMutability": "view",
      "type": "function"
    },
    {
      "inputs": [
        {
          "internalType": "address",
          "name": "owner",
          "type": "address"
        },
        {
          "internalType": "address",
          "name": "spender",
          "type": "address"
        }
      ],
      "name": "allowance",
      "outputs": [
        {
          "internalType": "uint256",
          "name": "",
          "type": "uint256"
        }
      ],
      "stateMutability": "view",
      "type": "function"
    },
    {
      "inputs": [
        {
          "internalType": "address",
          "name": "spender",
          "type": "address"
        },
        {
          "internalType": "uint256",
          "name": "amount",
          "type": "uint256"
        }
      ],
      "name": "approve",
      "outputs": [
        {
          "internalType": "bool",
          "name": "",
          "type": "bool"
        }
      ],
      "stateMutability": "nonpayable",
      "type": "function"
    },
    {
      "inputs": [
        {
          "internalType": "address",
          "name": "account",
          "type": "address"
        }
      ],
      "name": "balanceOf",
      "outputs": [
        {
          "internalType": "uint256",
          "name": "",
          "type": "uint256"
        }
      ],
      "stateMutability": "view",
      "type": "function"
    },
    {
      "inputs": [],
      "name": "decimals",
      "outputs": [
        {
          "internalType": "uint8",
          "name": "",
          "type": "uint8"
        }
      ],
      "stateMutability": "view",
      "type": "function"
    },
    {
      "inputs": [
        {
          "internalType": "address",
          "name": "spender",
          "type": "address"
        },
        {
          "internalType": "uint256",
          "name": "subtractedValue",
          "type": "uint256"
        }
      ],
      "name": "decreaseAllowance",
      "outputs": [
        {
          "internalType": "bool",
          "name": "",
          "type": "bool"
        }
      ],
      "stateMutability": "nonpayable",
      "type": "function"
    },
    {
      "inputs": [
        {
          "internalType": "uint256",
          "name": "amount0Desired",
          "type": "uint256"
        },
        {
          "internalType": "uint256",
          "name": "amount1Desired",
          "type": "uint256"
        },
        {
          "internalType": "uint256",
          "name": "amount0Min",
          "type": "uint256"
        },
        {
          "internalType": "uint256",
          "name": "amount1Min",
          "type": "uint256"
        },
        {
          "internalType": "address",
          "name": "to",
          "type": "address"
        }
      ],
      "name": "deposit",
      "outputs": [
        {
          "internalType": "uint256",
          "name": "shares",
          "type": "uint256"
        },
        {
          "internalType": "uint256",
          "name": "amount0Used",
          "type": "uint256"
        },
        {
          "internalType": "uint256",
          "name": "amount1Used",
          "type": "uint256"
        }
      ],
      "stateMutability": "nonpayable",
      "type": "function"
    },
    {
      "inputs": [
        {
          "internalType": "int24",
          "name": "tickLower",
          "type": "int24"
        },
        {
          "internalType": "int24",
          "name": "tickUpper",
          "type": "int24"
        },
        {
          "internalType": "uint128",
          "name": "liquidity",
          "type": "uint128"
        }
      ],
      "name": "emergencyBurn",
      "outputs": [
        {
          "internalType": "uint256",
          "name": "amount0",
          "type": "uint256"
        },
        {
          "internalType": "uint256",
          "name": "amount1",
          "type": "uint256"
        }
      ],
      "stateMutability": "nonpayable",
      "type": "function"
    },
    {
      "inputs": [],
      "name": "getPositions",
      "outputs": [
        {
          "internalType": "int24[]",
          "name": "",
          "type": "int24[]"
        },
        {
          "internalType": "int24[]",
          "name": "",
          "type": "int24[]"
        },
        {
          "internalType": "uint16[]",
          "name": "",
          "type": "uint16[]"
        }
      ],
      "stateMutability": "view",
      "type": "function"
    },
    {
      "inputs": [
        {
          "internalType": "bytes32",
          "name": "role",
          "type": "bytes32"
        }
      ],
      "name": "getRoleAdmin",
      "outputs": [
        {
          "internalType": "bytes32",
          "name": "",
          "type": "bytes32"
        }
      ],
      "stateMutability": "view",
      "type": "function"
    },
    {
      "inputs": [
        {
          "internalType": "bytes32",
          "name": "role",
          "type": "bytes32"
        },
        {
          "internalType": "uint256",
          "name": "index",
          "type": "uint256"
        }
      ],
      "name": "getRoleMember",
      "outputs": [
        {
          "internalType": "address",
          "name": "",
          "type": "address"
        }
      ],
      "stateMutability": "view",
      "type": "function"
    },
    {
      "inputs": [
        {
          "internalType": "bytes32",
          "name": "role",
          "type": "bytes32"
        }
      ],
      "name": "getRoleMemberCount",
      "outputs": [
        {
          "internalType": "uint256",
          "name": "",
          "type": "uint256"
        }
      ],
      "stateMutability": "view",
      "type": "function"
    },
    {
      "inputs": [],
      "name": "getTotalAmounts",
      "outputs": [
        {
          "internalType": "uint256",
          "name": "total0",
          "type": "uint256"
        },
        {
          "internalType": "uint256",
          "name": "total1",
          "type": "uint256"
        }
      ],
      "stateMutability": "view",
      "type": "function"
    },
    {
      "inputs": [
        {
          "internalType": "bytes32",
          "name": "role",
          "type": "bytes32"
        },
        {
          "internalType": "address",
          "name": "account",
          "type": "address"
        }
      ],
      "name": "grantRole",
      "outputs": [],
      "stateMutability": "nonpayable",
      "type": "function"
    },
    {
      "inputs": [
        {
          "internalType": "bytes32",
          "name": "role",
          "type": "bytes32"
        },
        {
          "internalType": "address",
          "name": "account",
          "type": "address"
        }
      ],
      "name": "hasRole",
      "outputs": [
        {
          "internalType": "bool",
          "name": "",
          "type": "bool"
        }
      ],
      "stateMutability": "view",
      "type": "function"
    },
    {
      "inputs": [
        {
          "internalType": "address",
          "name": "spender",
          "type": "address"
        },
        {
          "internalType": "uint256",
          "name": "addedValue",
          "type": "uint256"
        }
      ],
      "name": "increaseAllowance",
      "outputs": [
        {
          "internalType": "bool",
          "name": "",
          "type": "bool"
        }
      ],
      "stateMutability": "nonpayable",
      "type": "function"
    },
    {
      "inputs": [
        {
          "internalType": "address",
          "name": "_vaultManager",
          "type": "address"
        },
        {
          "internalType": "address",
          "name": "",
          "type": "address"
        },
        {
          "internalType": "address",
          "name": "_steer",
          "type": "address"
        },
        {
          "internalType": "bytes",
          "name": "_params",
          "type": "bytes"
        }
      ],
      "name": "initialize",
      "outputs": [],
      "stateMutability": "nonpayable",
      "type": "function"
    },
    {
      "inputs": [],
      "name": "maxTickChange",
      "outputs": [
        {
          "internalType": "int24",
          "name": "",
          "type": "int24"
        }
      ],
      "stateMutability": "view",
      "type": "function"
    },
    {
      "inputs": [],
      "name": "name",
      "outputs": [
        {
          "internalType": "string",
          "name": "",
          "type": "string"
        }
      ],
      "stateMutability": "view",
      "type": "function"
    },
    {
      "inputs": [],
      "name": "pause",
      "outputs": [],
      "stateMutability": "nonpayable",
      "type": "function"
    },
    {
      "inputs": [],
      "name": "paused",
      "outputs": [
        {
          "internalType": "bool",
          "name": "",
          "type": "bool"
        }
      ],
      "stateMutability": "view",
      "type": "function"
    },
    {
      "inputs": [],
      "name": "poke",
      "outputs": [],
      "stateMutability": "nonpayable",
      "type": "function"
    },
    {
      "inputs": [],
      "name": "pool",
      "outputs": [
        {
          "internalType": "contract IUniswapV3Pool",
          "name": "",
          "type": "address"
        }
      ],
      "stateMutability": "view",
      "type": "function"
    },
    {
      "inputs": [
        {
          "internalType": "bytes32",
          "name": "role",
          "type": "bytes32"
        },
        {
          "internalType": "address",
          "name": "account",
          "type": "address"
        }
      ],
      "name": "renounceRole",
      "outputs": [],
      "stateMutability": "nonpayable",
      "type": "function"
    },
    {
      "inputs": [
        {
          "internalType": "bytes32",
          "name": "role",
          "type": "bytes32"
        },
        {
          "internalType": "address",
          "name": "account",
          "type": "address"
        }
      ],
      "name": "revokeRole",
      "outputs": [],
      "stateMutability": "nonpayable",
      "type": "function"
    },
    {
      "inputs": [
        {
          "internalType": "uint256",
          "name": "amount0",
          "type": "uint256"
        },
        {
          "internalType": "uint256",
          "name": "amount1",
          "type": "uint256"
        },
        {
          "internalType": "address",
          "name": "to",
          "type": "address"
        }
      ],
      "name": "steerCollectFees",
      "outputs": [],
      "stateMutability": "nonpayable",
      "type": "function"
    },
    {
      "inputs": [
        {
          "internalType": "uint256",
          "name": "amount0",
          "type": "uint256"
        },
        {
          "internalType": "uint256",
          "name": "amount1",
          "type": "uint256"
        },
        {
          "internalType": "address",
          "name": "to",
          "type": "address"
        }
      ],
      "name": "strategistCollectFees",
      "outputs": [],
      "stateMutability": "nonpayable",
      "type": "function"
    },
    {
      "inputs": [
        {
          "internalType": "bytes4",
          "name": "interfaceId",
          "type": "bytes4"
        }
      ],
      "name": "supportsInterface",
      "outputs": [
        {
          "internalType": "bool",
          "name": "",
          "type": "bool"
        }
      ],
      "stateMutability": "view",
      "type": "function"
    },
    {
      "inputs": [],
      "name": "symbol",
      "outputs": [
        {
          "internalType": "string",
          "name": "",
          "type": "string"
        }
      ],
      "stateMutability": "view",
      "type": "function"
    },
    {
      "inputs": [
        {
          "internalType": "uint256",
          "name": "totalWeight",
          "type": "uint256"
        },
        {
          "components": [
            {
              "internalType": "int24[]",
              "name": "lowerTick",
              "type": "int24[]"
            },
            {
              "internalType": "int24[]",
              "name": "upperTick",
              "type": "int24[]"
            },
            {
              "internalType": "uint16[]",
              "name": "relativeWeight",
              "type": "uint16[]"
            }
          ],
          "internalType": "struct MultiPositionLiquidityManager.LiquidityPositions",
          "name": "newPositions",
          "type": "tuple"
        },
        {
          "internalType": "bytes",
          "name": "timeSensitiveData",
          "type": "bytes"
        }
      ],
      "name": "tend",
      "outputs": [],
      "stateMutability": "nonpayable",
      "type": "function"
    },
    {
      "inputs": [],
      "name": "token0",
      "outputs": [
        {
          "internalType": "contract IERC20",
          "name": "",
          "type": "address"
        }
      ],
      "stateMutability": "view",
      "type": "function"
    },
    {
      "inputs": [],
      "name": "token1",
      "outputs": [
        {
          "internalType": "contract IERC20",
          "name": "",
          "type": "address"
        }
      ],
      "stateMutability": "view",
      "type": "function"
    },
    {
      "inputs": [],
      "name": "totalSupply",
      "outputs": [
        {
          "internalType": "uint256",
          "name": "",
          "type": "uint256"
        }
      ],
      "stateMutability": "view",
      "type": "function"
    },
    {
      "inputs": [
        {
          "internalType": "address",
          "name": "recipient",
          "type": "address"
        },
        {
          "internalType": "uint256",
          "name": "amount",
          "type": "uint256"
        }
      ],
      "name": "transfer",
      "outputs": [
        {
          "internalType": "bool",
          "name": "",
          "type": "bool"
        }
      ],
      "stateMutability": "nonpayable",
      "type": "function"
    },
    {
      "inputs": [
        {
          "internalType": "address",
          "name": "sender",
          "type": "address"
        },
        {
          "internalType": "address",
          "name": "recipient",
          "type": "address"
        },
        {
          "internalType": "uint256",
          "name": "amount",
          "type": "uint256"
        }
      ],
      "name": "transferFrom",
      "outputs": [
        {
          "internalType": "bool",
          "name": "",
          "type": "bool"
        }
      ],
      "stateMutability": "nonpayable",
      "type": "function"
    },
    {
      "inputs": [],
      "name": "twapInterval",
      "outputs": [
        {
          "internalType": "uint32",
          "name": "",
          "type": "uint32"
        }
      ],
      "stateMutability": "view",
      "type": "function"
    },
    {
      "inputs": [
        {
          "internalType": "uint256",
          "name": "amount0",
          "type": "uint256"
        },
        {
          "internalType": "uint256",
          "name": "amount1",
          "type": "uint256"
        },
        {
          "internalType": "bytes",
          "name": "",
          "type": "bytes"
        }
      ],
      "name": "uniswapV3MintCallback",
      "outputs": [],
      "stateMutability": "nonpayable",
      "type": "function"
    },
    {
      "inputs": [
        {
          "internalType": "int256",
          "name": "amount0Wanted",
          "type": "int256"
        },
        {
          "internalType": "int256",
          "name": "amount1Wanted",
          "type": "int256"
        },
        {
          "internalType": "bytes",
          "name": "",
          "type": "bytes"
        }
      ],
      "name": "uniswapV3SwapCallback",
      "outputs": [],
      "stateMutability": "nonpayable",
      "type": "function"
    },
    {
      "inputs": [],
      "name": "unpause",
      "outputs": [],
      "stateMutability": "nonpayable",
      "type": "function"
    },
    {
      "inputs": [],
      "name": "whitelistManager",
      "outputs": [
        {
          "internalType": "address",
          "name": "",
          "type": "address"
        }
      ],
      "stateMutability": "view",
      "type": "function"
    },
    {
      "inputs": [
        {
          "internalType": "uint256",
          "name": "shares",
          "type": "uint256"
        },
        {
          "internalType": "uint256",
          "name": "amount0Min",
          "type": "uint256"
        },
        {
          "internalType": "uint256",
          "name": "amount1Min",
          "type": "uint256"
        },
        {
          "internalType": "address",
          "name": "to",
          "type": "address"
        }
      ],
      "name": "withdraw",
      "outputs": [
        {
          "internalType": "uint256",
          "name": "amount0",
          "type": "uint256"
        },
        {
          "internalType": "uint256",
          "name": "amount1",
          "type": "uint256"
        }
      ],
      "stateMutability": "nonpayable",
      "type": "function"
    }
  ],
  "transactionHash": "0x5ab8a8ae8b8b81a2a41e364beacce71c1f49bb2cd68354cdc5eba94764387092",
  "args": [],
  "numDeployments": 1,
  "solcInputHash": "622bf9933a2727a1e5785fdccb2c70b6",
  "bytecode": "0x60806040523480156200001157600080fd5b50600054610100900460ff16806200002e57506200002e620000c0565b806200003d575060005460ff16155b6200007a5760405162461bcd60e51b815260040180806020018281038252602e81526020018062005fa0602e913960400191505060405180910390fd5b600054610100900460ff16158015620000a6576000805460ff1961ff0019909116610100171660011790555b8015620000b9576000805461ff00191690555b50620000e4565b6000620000d830620000de60201b62001cac1760201c565b15905090565b3b151590565b615eac80620000f46000396000f3fe608060405234801561001057600080fd5b50600436106102955760003560e01c80633f4ba83a11610167578063a457c2d7116100ce578063d331bef711610087578063d331bef714610545578063d348799714610558578063d547741f1461056b578063dd62ed3e1461057e578063ef94c27914610591578063fa461e331461059957610295565b8063a457c2d7146104db578063a9059cbb146104ee578063abbffcb914610501578063c4a7761e14610522578063ca15c8731461052a578063d21220a71461053d57610295565b80638ea234cb116101205780638ea234cb1461047f5780638f747bb8146104925780639010d07c146104a557806391d14854146104b857806395d89b41146104cb578063a217fddf146104d357610295565b80633f4ba83a146104355780635c975abb1461043d57806363db7eae1461044557806370a082311461044d57806380275860146104605780638456cb591461047757610295565b8063246581f71161020b57806336568abe116101c457806336568abe146103c8578063365d0ed7146103db578063366e897b146103fd57806339509351146104055780633c1d5df0146104185780633f2218f11461042d57610295565b8063246581f71461035f578063248a9ca31461037257806326563b40146103855780632b528d331461038d5780632f2ff15d146103a0578063313ce567146103b357610295565b80631053f8711161025d5780631053f8711461031557806316f0115b1461032a57806318160ddd14610332578063181783581461033a5780631c1f19361461034457806323b872dd1461034c57610295565b806301ffc9a71461029a57806302bcd6ca146102c357806306fdde03146102d8578063095ea7b3146102ed5780630dfe168114610300575b600080fd5b6102ad6102a8366004615248565b6105ac565b6040516102ba91906158ef565b60405180910390f35b6102cb610635565b6040516102ba91906158fa565b6102e061063b565b6040516102ba919061594c565b6102ad6102fb3660046150e9565b6106d1565b6103086106ef565b6040516102ba919061572a565b61031d6106fe565b6040516102ba9190615918565b61030861070e565b6102cb61071d565b610342610723565b005b6102cb6109cc565b6102ad61035a3660046150a9565b6109d2565b61034261036d366004614fff565b610a5a565b6102cb6103803660046151eb565b610b7b565b610308610b90565b61034261039b366004615608565b610b9f565b6103426103ae366004615203565b610ca5565b6103bb610d0c565b6040516102ba9190615adf565b6103426103d6366004615203565b610d15565b6103ee6103e9366004615675565b610d76565b6040516102ba93929190615ab8565b6102cb610e43565b6102ad6104133660046150e9565b610e49565b610420610e97565b6040516102ba9190615ace565b6102cb610eaa565b610342610eb0565b6102ad610ef0565b6102cb610ef9565b6102cb61045b366004614eab565b610eff565b610468610f1a565b6040516102ba93929190615839565b6103426110c5565b61034261048d366004615608565b611102565b6103426104a0366004615524565b6111a1565b6103086104b3366004615227565b611510565b6102ad6104c6366004615203565b611528565b6102e0611540565b6102cb6115a1565b6102ad6104e93660046150e9565b6115a6565b6102ad6104fc3660046150e9565b61160e565b61051461050f366004615270565b611622565b6040516102ba929190615aaa565b61051461177e565b6102cb6105383660046151eb565b611a8c565b610308611aa3565b610514610553366004615635565b611ab2565b6103426105663660046152dd565b611ba3565b610342610579366004615203565b611bcb565b6102cb61058c366004614fc7565b611c24565b6102cb611c4f565b6103426105a73660046152dd565b611c55565b60c95460405163ab8b2a7360e01b81526000916001600160a01b03169063ab8b2a73906105dd908590600401615903565b60206040518083038186803b1580156105f557600080fd5b505afa158015610609573d6000803e3d6000fd5b505050506040513d601f19601f8201168201806040525081019061062d91906151d1565b90505b919050565b60cd5481565b60368054604080516020601f60026000196101006001881615020190951694909404938401819004810282018101909252828152606093909290918301828280156106c75780601f1061069c576101008083540402835291602001916106c7565b820191906000526020600020905b8154815290600101906020018083116106aa57829003601f168201915b5050505050905090565b60006106e56106de611cb2565b8484611cb6565b5060015b92915050565b60ca546001600160a01b031681565b60d054600160a01b900460020b81565b60d0546001600160a01b031681565b60355490565b6040805160f9805460806020820284018101909452606083018181526000948492849184018282801561079b57602002820191906000526020600020906000905b82829054906101000a900460020b60020b815260200190600301906020826002010492830192600103820291508084116107645790505b505050505081526020016001820180548060200260200160405190810160405280929190818152602001828054801561081957602002820191906000526020600020906000905b82829054906101000a900460020b60020b815260200190600301906020826002010492830192600103820291508084116107e25790505b505050505081526020016002820180548060200260200160405190810160405280929190818152602001828054801561089957602002820191906000526020600020906000905b82829054906101000a900461ffff1661ffff16815260200190600201906020826001010492830192600103820291508084116108605790505b505050919092525050815151919250600090505b8181146109c75760006108ee846000015183815181106108c957fe5b6020026020010151856020015184815181106108e157fe5b6020026020010151611da2565b5050505090506000816001600160801b031611156109be5760d054845180516001600160a01b039092169163a34123a791908590811061092a57fe5b60200260200101518660200151858151811061094257fe5b602002602001015160006040518463ffffffff1660e01b815260040161096a93929190615926565b6040805180830381600087803b15801561098357600080fd5b505af1158015610997573d6000803e3d6000fd5b505050506040513d601f19601f820116820180604052508101906109bb91906152ba565b50505b506001016108ad565b505050565b611a0b81565b60006109df848484611e48565b610a4f846109eb611cb2565b610a4a85604051806060016040528060288152602001615d47602891396001600160a01b038a16600090815260346020526040812090610a29611cb2565b6001600160a01b031681526020810191909152604001600020549190611fa5565b611cb6565b5060015b9392505050565b60008082806020019051810190610a719190614f66565b915091506000336001600160a01b031663ed9506386040518163ffffffff1660e01b815260040160206040518083038186803b158015610ab057600080fd5b505afa158015610ac4573d6000803e3d6000fd5b505050506040513d601f19601f82011682018060405250810190610ae89190614ec7565b60405163ed316ad960e01b81529091506001600160a01b0382169063ed316ad990610b1790869060040161572a565b600060405180830381600087803b158015610b3157600080fd5b505af1158015610b45573d6000803e3d6000fd5b505060fc80546001600160a01b0319166001600160a01b03851617905550610b729050876000878561203c565b50505050505050565b60009081526097602052604090206002015490565b60fc546001600160a01b031681565b610ba7610ef0565b15610bec576040805162461bcd60e51b815260206004820152601060248201526f14185d5cd8589b194e881c185d5cd95960821b604482015290519081900360640190fd5b60c95460405163015a1d6760e31b81526001600160a01b0390911690630ad0eb3890610c1c90309060040161572a565b60206040518083038186803b158015610c3457600080fd5b505afa158015610c48573d6000803e3d6000fd5b505050506040513d601f19601f82011682018060405250810190610c6c9190614ec7565b6001600160a01b0316336001600160a01b031614610c8957600080fd5b610c9a8160ce5460cf5486866123d9565b60cf5560ce55505050565b600082815260976020526040902060020154610cc3906104c6611cb2565b610cfe5760405162461bcd60e51b815260040180806020018281038252602f815260200180615c09602f913960400191505060405180910390fd5b610d08828261244b565b5050565b60385460ff1690565b610d1d611cb2565b6001600160a01b0316816001600160a01b031614610d6c5760405162461bcd60e51b815260040180806020018281038252602f815260200180615e48602f913960400191505060405180910390fd5b610d0882826124b4565b60fc54604051631f9838b560e01b8152600091829182916001600160a01b031690631f9838b590610dad903090889060040161573e565b60206040518083038186803b158015610dc557600080fd5b505afa158015610dd9573d6000803e3d6000fd5b505050506040513d601f19601f82011682018060405250810190610dfd919061550c565b600114610e255760405162461bcd60e51b8152600401610e1c90615a33565b60405180910390fd5b610e32888888888861251d565b925092509250955095509592505050565b60cf5481565b60006106e5610e56611cb2565b84610a4a8560346000610e67611cb2565b6001600160a01b03908116825260208083019390935260409182016000908120918c16815292529020549061273c565b60d054600160b81b900463ffffffff1681565b60ce5481565b600080516020615e03833981519152610ec98133611528565b610ee55760405162461bcd60e51b8152600401610e1c90615a4e565b610eed612796565b50565b60655460ff1690565b6105dc81565b6001600160a01b031660009081526033602052604090205490565b6060806060600060f960405180606001604052908160008201805480602002602001604051908101604052809291908181526020018280548015610fa357602002820191906000526020600020906000905b82829054906101000a900460020b60020b81526020019060030190602082600201049283019260010382029150808411610f6c5790505b505050505081526020016001820180548060200260200160405190810160405280929190818152602001828054801561102157602002820191906000526020600020906000905b82829054906101000a900460020b60020b81526020019060030190602082600201049283019260010382029150808411610fea5790505b50505050508152602001600282018054806020026020016040519081016040528092919081815260200182805480156110a157602002820191906000526020600020906000905b82829054906101000a900461ffff1661ffff16815260200190600201906020826001010492830192600103820291508084116110685790505b50505091909252505081516020830151604090930151909792965094509092505050565b600080516020615e038339815191526110de8133611528565b6110fa5760405162461bcd60e51b8152600401610e1c90615a4e565b610eed612836565b600080516020615e0383398151915261111b8133611528565b6111375760405162461bcd60e51b8152600401610e1c90615a4e565b61113f610ef0565b15611184576040805162461bcd60e51b815260206004820152601060248201526f14185d5cd8589b194e881c185d5cd95960821b604482015290519081900360640190fd5b6111958260cc5460cd5487876123d9565b60cd5560cc5550505050565b7f241ecf16d79d0f8dbfb92cbc07fe17840425976cf0667f022fe9877caa831b086111cc8133611528565b6111e85760405162461bcd60e51b8152600401610e1c90615a4e565b6111f0610ef0565b15611235576040805162461bcd60e51b815260206004820152601060248201526f14185d5cd8589b194e881c185d5cd95960821b604482015290519081900360640190fd5b60008061124484860186615203565b9150915060008060d060009054906101000a90046001600160a01b03166001600160a01b0316633850c7bd6040518163ffffffff1660e01b815260040160e06040518083038186803b15801561129957600080fd5b505afa1580156112ad573d6000803e3d6000fd5b505050506040513d601f19601f820116820180604052508101906112d19190615471565b5050505050915091506112e3816128b9565b6112ee600180612a27565b50508751511561134b5787518051899160f991611312918391602090910190614ada565b50602082810151805161132b9260018501920190614ada565b5060408201518051611347916002840191602090910190614b89565b5050505b831561147d5760d05460008513906001600160a01b031663128acb083083806113775788600003611379565b885b886040518563ffffffff1660e01b81526004016113999493929190615780565b6040805180830381600087803b1580156113b257600080fd5b505af11580156113c6573d6000803e3d6000fd5b505050506040513d601f19601f820116820180604052508101906113ea91906152ba565b505060d060009054906101000a90046001600160a01b03166001600160a01b0316633850c7bd6040518163ffffffff1660e01b815260040160e06040518083038186803b15801561143a57600080fd5b505afa15801561144e573d6000803e3d6000fd5b505050506040513d601f19601f820116820180604052508101906114729190615471565b509497505050505050505b6000611487612eb9565b90506000611493612f51565b90507f2fd4737bac0995700ade358ae308c92f20ee63884dfbe658bf55d2f99f60f0778483836114c161071d565b6040516114d19493929190615a84565b60405180910390a18a1561150357611503846114f0848e612710612f8e565b6114fd848f612710612f8e565b89613039565b5050505050505050505050565b6000828152609760205260408120610a5390836135aa565b6000828152609760205260408120610a5390836135b6565b60378054604080516020601f60026000196101006001881615020190951694909404938401819004810282018101909252828152606093909290918301828280156106c75780601f1061069c576101008083540402835291602001916106c7565b600081565b60006106e56115b3611cb2565b84610a4a85604051806060016040528060258152602001615e2360259139603460006115dd611cb2565b6001600160a01b03908116825260208083019390935260409182016000908120918d16815292529020549190611fa5565b60006106e561161b611cb2565b8484611e48565b600080600080516020615e0383398151915261163e8133611528565b61165a5760405162461bcd60e51b8152600401610e1c90615a4e565b60d05460405163a34123a760e01b81526001600160a01b039091169063a34123a79061168e90899089908990600401615926565b6040805180830381600087803b1580156116a757600080fd5b505af11580156116bb573d6000803e3d6000fd5b505050506040513d601f19601f820116820180604052508101906116df91906152ba565b60d0546040516309e3d67b60e31b81529295509093506001600160a01b031690634f1eb3d8906117229030908a908a906001600160801b039081906004016157fc565b6040805180830381600087803b15801561173b57600080fd5b505af115801561174f573d6000803e3d6000fd5b505050506040513d601f19601f8201168201806040525081019061177391906153f0565b505050935093915050565b600080611789612eb9565b9150611793612f51565b9050600080600060f96040518060600160405290816000820180548060200260200160405190810160405280929190818152602001828054801561181c57602002820191906000526020600020906000905b82829054906101000a900460020b60020b815260200190600301906020826002010492830192600103820291508084116117e55790505b505050505081526020016001820180548060200260200160405190810160405280929190818152602001828054801561189a57602002820191906000526020600020906000905b82829054906101000a900460020b60020b815260200190600301906020826002010492830192600103820291508084116118635790505b505050505081526020016002820180548060200260200160405190810160405280929190818152602001828054801561191a57602002820191906000526020600020906000905b82829054906101000a900461ffff1661ffff16815260200190600201906020826001010492830192600103820291508084116118e15790505b5050505050815250509050600060d060009054906101000a90046001600160a01b03166001600160a01b0316633850c7bd6040518163ffffffff1660e01b815260040160e06040518083038186803b15801561197557600080fd5b505afa158015611989573d6000803e3d6000fd5b505050506040513d601f19601f820116820180604052508101906119ad9190615471565b5050865151949550600093505050505b818114611a4c57600080600080611a0387896000015187815181106119de57fe5b60200260200101518a6020015188815181106119f657fe5b60200260200101516135cb565b92965090945092509050611a178c8561273c565b9b50611a238b8461273c565b9a50611a2f8a8361273c565b9950611a3b898261273c565b9850505050508060010190506119bd565b50611a66611a5f86612134612710612f8e565b889061273c565b9650611a81611a7a85612134612710612f8e565b879061273c565b955050505050509091565b600081815260976020526040812061062d90613622565b60cb546001600160a01b031681565b60008060008611611ac257600080fd5b6000611acc61071d565b9050611ad8338861362d565b611aea611ae3612eb9565b8883612f8e565b9250611af7611ae3612f51565b9150600080611b068984612a27565b9092509050611b15858361273c565b9450611b21848261273c565b935087851015611b3057600080fd5b86841015611b3d57600080fd5b611b48868686613729565b856001600160a01b0316336001600160a01b03167febff2602b3f468259e1e99f613fed6691f3a6526effe6ef3e768ba7ae7a36c4f8b8888604051611b8f93929190615ab8565b60405180910390a350505094509492505050565b60d0546001600160a01b03163314611bba57600080fd5b611bc5338585613729565b50505050565b600082815260976020526040902060020154611be9906104c6611cb2565b610d6c5760405162461bcd60e51b8152600401808060200182810382526030815260200180615cc86030913960400191505060405180910390fd5b6001600160a01b03918216600090815260346020908152604080832093909416825291909152205490565b60cc5481565b60d0546001600160a01b03163314611c6c57600080fd5b6000841315611c8c5760ca54611c8c906001600160a01b0316338661375f565b6000831315611bc55760cb54611bc5906001600160a01b0316338561375f565b3b151590565b3390565b6001600160a01b038316611cfb5760405162461bcd60e51b8152600401808060200182810382526024815260200180615db56024913960400191505060405180910390fd5b6001600160a01b038216611d405760405162461bcd60e51b8152600401808060200182810382526022815260200180615c5a6022913960400191505060405180910390fd5b6001600160a01b03808416600081815260346020908152604080832094871680845294825291829020859055815185815291517f8c5be1e5ebec7d5bd14f71427d1e84f3dd0314c0f7b2291e5b200ac8c7c3b9259281900390910190a3505050565b60d05460009081908190819081906001600160a01b031663514ea4bf611dc9308a8a6137b1565b6040518263ffffffff1660e01b8152600401611de591906158fa565b60a06040518083038186803b158015611dfd57600080fd5b505afa158015611e11573d6000803e3d6000fd5b505050506040513d601f19601f82011682018060405250810190611e35919061541e565b939b929a50909850965090945092505050565b6001600160a01b038316611e8d5760405162461bcd60e51b8152600401808060200182810382526025815260200180615d906025913960400191505060405180910390fd5b6001600160a01b038216611ed25760405162461bcd60e51b8152600401808060200182810382526023815260200180615be66023913960400191505060405180910390fd5b611edd8383836109c7565b611f1a81604051806060016040528060268152602001615c7c602691396001600160a01b0386166000908152603360205260409020549190611fa5565b6001600160a01b038085166000908152603360205260408082209390935590841681522054611f49908261273c565b6001600160a01b0380841660008181526033602090815260409182902094909455805185815290519193928716927fddf252ad1be2c89b69c2b068fc378daa952ba7f163c4a11628f55a4df523b3ef92918290030190a3505050565b600081848411156120345760405162461bcd60e51b81526004018080602001828103825283818151815260200191508051906020019080838360005b83811015611ff9578181015183820152602001611fe1565b50505050905090810190601f1680156120265780820380516001836020036101000a031916815260200191505b509250505060405180910390fd5b505050900390565b600054610100900460ff16806120555750612055613807565b80612063575060005460ff16155b61209e5760405162461bcd60e51b815260040180806020018281038252602e815260200180615cf8602e913960400191505060405180910390fd5b600054610100900460ff161580156120c9576000805460ff1961ff0019909116610100171660011790555b6000806000806000868060200190518101906120e59190614ee3565b9450945094509450945060098260020b13801561210657506107d18260020b125b61210f57600080fd5b60058163ffffffff1611801561212c57506102588163ffffffff16105b61213557600080fd5b836001600160a01b0316856001600160a01b0316106121665760405162461bcd60e51b8152600401610e1c906159e2565b60c98054336001600160a01b03199182161790915560ca805482166001600160a01b038881169190911790915560cb8054909216908616179055604051630b4c774160e11b815260009073b656da17129e7eb733a557f4ebc57b76cfbb5d1090631698ee82906121de90899089908990600401615758565b60206040518083038186803b1580156121f657600080fd5b505afa15801561220a573d6000803e3d6000fd5b505050506040513d601f19601f8201168201806040525081019061222e9190614ec7565b90506001600160a01b03811661224357600080fd5b60d080546001600160a01b0319166001600160a01b03831617905560408051633811936960e01b815290516000916122dc9133916338119369916004808301926020929190829003018186803b15801561229c57600080fd5b505afa1580156122b0573d6000803e3d6000fd5b505050506040513d601f19601f820116820180604052508101906122d4919061550c565b600101613818565b9050612326816040516020016122f291906156f0565b6040516020818303038152906040528260405160200161231291906156f0565b6040516020818303038152906040526138f2565b61232e6139a7565b612336613a58565b61234e600080516020615e038339815191528b610cfe565b6123787f241ecf16d79d0f8dbfb92cbc07fe17840425976cf0667f022fe9877caa831b088d610cfe565b505060d0805463ffffffff909216600160b81b0263ffffffff60b81b1960029490940b62ffffff16600160a01b0262ffffff60a01b1990931692909217929092161790555050811590506123d2576000805461ff00191690555b5050505050565b600080831561240b576123ec8685613af5565b60ca54909250612406906001600160a01b0316888661375f565b61240f565b8591505b821561243e5761241f8584613af5565b60cb54909150612439906001600160a01b0316888561375f565b612441565b50835b9550959350505050565b60008281526097602052604090206124639082613b52565b15610d0857612470611cb2565b6001600160a01b0316816001600160a01b0316837f2f8788117e7eff1d82e926ec794901d17c78024a50270940304540a733656f0d60405160405180910390a45050565b60008281526097602052604090206124cc9082613b67565b15610d08576124d9611cb2565b6001600160a01b0316816001600160a01b0316837ff6391f5c32d9c69d2a47ea670b442974b53935d1edc7fd64eb21e047a839171b60405160405180910390a45050565b600080600061252a610ef0565b1561256f576040805162461bcd60e51b815260206004820152601060248201526f14185d5cd8589b194e881c185d5cd95960821b604482015290519081900360640190fd5b60c9546040516367a44ca360e01b81526000916001600160a01b0316906367a44ca3906125a090309060040161572a565b60006040518083038186803b1580156125b857600080fd5b505afa1580156125cc573d6000803e3d6000fd5b505050506040513d6000823e601f3d908101601f191682016040526125f4919081019061532d565b519050600181600481111561260557fe5b148061261c5750600381600481111561261a57fe5b145b6126385760405162461bcd60e51b8152600401610e1c906159b5565b612640610723565b61264a8989613b7c565b919550935091508361265b57600080fd5b8683101561267b5760405162461bcd60e51b8152600401610e1c9061599a565b8582101561269b5760405162461bcd60e51b8152600401610e1c90615a18565b82156126b95760ca546126b9906001600160a01b0316333086613ca5565b81156126d75760cb546126d7906001600160a01b0316333085613ca5565b6126e18585613cff565b846001600160a01b0316336001600160a01b03167f4e2ca0515ed1aef1395f66b5303bb5d6f1bf9d61a353fa53f73f8ac9973fa9f686868660405161272893929190615ab8565b60405180910390a350955095509592505050565b600082820183811015610a53576040805162461bcd60e51b815260206004820152601b60248201527f536166654d6174683a206164646974696f6e206f766572666c6f770000000000604482015290519081900360640190fd5b61279e610ef0565b6127e6576040805162461bcd60e51b815260206004820152601460248201527314185d5cd8589b194e881b9bdd081c185d5cd95960621b604482015290519081900360640190fd5b6065805460ff191690557f5db9ee0a495bf2e6ff9c91a7834c1ba4fdd244a5e8aa4e537bd38aeae4b073aa612819611cb2565b604080516001600160a01b039092168252519081900360200190a1565b61283e610ef0565b15612883576040805162461bcd60e51b815260206004820152601060248201526f14185d5cd8589b194e881c185d5cd95960821b604482015290519081900360640190fd5b6065805460ff191660011790557f62e78cea01bee320cd4e420270b5ea74000d11b0c9f74754ebdbfc544b05a258612819611cb2565b60d05460408051600280825260608201835263ffffffff600160b81b85041693600160a01b9004810b926000929190602083019080368337019050509050828160008151811061290557fe5b63ffffffff9092166020928302919091019091015260d05460405163883bdbfd60e01b81526000916001600160a01b03169063883bdbfd9061294b9085906004016158a5565b60006040518083038186803b15801561296357600080fd5b505afa158015612977573d6000803e3d6000fd5b505050506040513d6000823e601f3d908101601f1916820160405261299f9190810190615114565b50905060008463ffffffff16826000815181106129b857fe5b6020026020010151836001815181106129cd57fe5b60200260200101510360060b816129e057fe5b05905083810160020b8660020b13158015612a03575083810360020b8660020b12155b612a1f5760405162461bcd60e51b8152600401610e1c90615a69565b505050505050565b600080600060f960405180606001604052908160008201805480602002602001604051908101604052809291908181526020018280548015612aae57602002820191906000526020600020906000905b82829054906101000a900460020b60020b81526020019060030190602082600201049283019260010382029150808411612a775790505b5050505050815260200160018201805480602002602001604051908101604052809291908181526020018280548015612b2c57602002820191906000526020600020906000905b82829054906101000a900460020b60020b81526020019060030190602082600201049283019260010382029150808411612af55790505b5050505050815260200160028201805480602002602001604051908101604052809291908181526020018280548015612bac57602002820191906000526020600020906000905b82829054906101000a900461ffff1661ffff1681526020019060020190602082600101049283019260010382029150808411612b735790505b505050919092525050815151919250600091829150815b818114612d9f57600085600001518281518110612bdc57fe5b60200260200101519050600086602001518381518110612bf857fe5b60200260200101519050600080612c0f8484611da2565b505050509050612c29816001600160801b03168e8e612f8e565b9150506001600160801b03811615612d915760d05460405163a34123a760e01b815260009182916001600160a01b039091169063a34123a790612c7490889088908890600401615926565b6040805180830381600087803b158015612c8d57600080fd5b505af1158015612ca1573d6000803e3d6000fd5b505050506040513d601f19601f82011682018060405250810190612cc591906152ba565b60d0546040516309e3d67b60e31b815292945090925060009182916001600160a01b031690634f1eb3d890612d0d9030908b908b906001600160801b039081906004016157fc565b6040805180830381600087803b158015612d2657600080fd5b505af1158015612d3a573d6000803e3d6000fd5b505050506040513d601f19601f82011682018060405250810190612d5e91906153f0565b6001600160801b031691506001600160801b03169150838e019d50828d019c508382038b019a508281038a019950505050505b505050806001019050612bc3565b507fc28ad1de9c0c32e5394ba60323e44d8d9536312236a47231772e448a3e49de428383604051612dd1929190615aaa565b60405180910390a18215612e30576000612df0846105dc612710612f8e565b905080840393506000612e0882611a0b612710612f8e565b60cc54909150612e18908261273c565b60cc5560ce54612e2a9082840361273c565b60ce5550505b8115612e87576000612e47836105dc612710612f8e565b905080830392506000612e5f82611a0b612710612f8e565b60cd54909150612e6f908261273c565b60cd5560cf54612e819082840361273c565b60cf5550505b612e95611a7a848a8a612f8e565b9550612eac612ea5838a8a612f8e565b869061273c565b9450505050509250929050565b60ce5460cc5460ca546040516370a0823160e01b8152600093612f4c9301916001600160a01b0316906370a0823190612ef690309060040161572a565b60206040518083038186803b158015612f0e57600080fd5b505afa158015612f22573d6000803e3d6000fd5b505050506040513d601f19601f82011682018060405250810190612f46919061550c565b90613af5565b905090565b60cf5460cd5460cb546040516370a0823160e01b8152600093612f4c9301916001600160a01b0316906370a0823190612ef690309060040161572a565b6000808060001985870986860292508281109083900303905080612fc45760008411612fb957600080fd5b508290049050610a53565b808411612fd057600080fd5b60008486880960026001871981018816978890046003810283188082028403028082028403028082028403028082028403028082028403029081029092039091026000889003889004909101858311909403939093029303949094049190911702949350505050565b6040805160f980546080602082028401810190945260608301818152600094849284918401828280156130b157602002820191906000526020600020906000905b82829054906101000a900460020b60020b8152602001906003019060208260020104928301926001038202915080841161307a5790505b505050505081526020016001820180548060200260200160405190810160405280929190818152602001828054801561312f57602002820191906000526020600020906000905b82829054906101000a900460020b60020b815260200190600301906020826002010492830192600103820291508084116130f85790505b50505050508152602001600282018054806020026020016040519081016040528092919081815260200182805480156131af57602002820191906000526020600020906000905b82829054906101000a900461ffff1661ffff16815260200190600201906020826001010492830192600103820291508084116131765790505b505050505081525050905060608060008060008560000151519050806001600160401b03811180156131e057600080fd5b5060405190808252806020026020018201604052801561320a578160200160208202803683370190505b509450806001600160401b038111801561322357600080fd5b5060405190808252806020026020018201604052801561324d578160200160208202803683370190505b50935060005b81811461339157600181106132e757865180518290811061327057fe5b602002602001015160020b8760000151600183038151811061328e57fe5b602002602001015160020b13156132a457600080fd5b866020015181815181106132b457fe5b602002602001015160020b876020015160018303815181106132d257fe5b602002602001015160020b126132e757600080fd5b60008061334c8d61330e8b60000151868151811061330157fe5b6020026020010151613df1565b6133218c60200151878151811061330157fe5b8c60400151878151811061333157fe5b602002602001015161ffff16670de0b6b3a764000002614123565b915091508188848151811061335d57fe5b6020026020010181815250508087848151811061337657fe5b60209081029190910101529401939290920191600101613253565b5060005b81811461352e5760008085156133c6576133c38884815181106133b457fe5b60200260200101518d88612f8e565b91505b84156133ed576133ea8784815181106133db57fe5b60200260200101518c87612f8e565b90505b60006134208e6134068c60000151878151811061330157fe5b6134198d60200151888151811061330157fe5b86866141bf565b90506001600160801b038116156135205760d05460f980546001600160a01b0390921691633c8a7d8d9130918890811061345657fe5b90600052602060002090600a91828204019190066003029054906101000a900460020b60f9600101888154811061348957fe5b90600052602060002090600a91828204019190066003029054906101000a900460020b856040518563ffffffff1660e01b81526004016134cc94939291906157ba565b6040805180830381600087803b1580156134e557600080fd5b505af11580156134f9573d6000803e3d6000fd5b505050506040513d601f19601f8201168201806040525081019061351d91906152ba565b50505b505050806001019050613395565b5060008713156135695760646005890204613547612f51565b106135645760405162461bcd60e51b8152600401610e1c906159fd565b61359e565b600087121561359e57606460058a0204613581612eb9565b1061359e5760405162461bcd60e51b8152600401610e1c906159fd565b50505050505050505050565b6000610a538383614283565b6000610a53836001600160a01b0384166142e7565b60008060008060006135dd8787611da2565b6001600160801b039182169750169450919250613610915089905061360189613df1565b61360a89613df1565b84614123565b80955081965050505093509350935093565b600061062d826142ff565b6001600160a01b0382166136725760405162461bcd60e51b8152600401808060200182810382526021815260200180615d6f6021913960400191505060405180910390fd5b61367e826000836109c7565b6136bb81604051806060016040528060228152602001615c38602291396001600160a01b0385166000908152603360205260409020549190611fa5565b6001600160a01b0383166000908152603360205260409020556035546136e19082613af5565b6035556040805182815290516000916001600160a01b038516917fddf252ad1be2c89b69c2b068fc378daa952ba7f163c4a11628f55a4df523b3ef9181900360200190a35050565b81156137465760ca54613746906001600160a01b0316848461375f565b80156109c75760cb546109c7906001600160a01b031684835b604080516001600160a01b038416602482015260448082018490528251808303909101815260649091019091526020810180516001600160e01b031663a9059cbb60e01b1790526109c7908490614303565b6040805160609490941b6bffffffffffffffffffffffff1916602080860191909152600293840b60e890811b60348701529290930b90911b60378401528051808403601a018152603a9093019052815191012090565b600061381230611cac565b15905090565b60608161383d57506040805180820190915260018152600360fc1b6020820152610630565b8160005b811561385557600101600a82049150613841565b6000816001600160401b038111801561386d57600080fd5b506040519080825280601f01601f191660200182016040528015613898576020820181803683370190505b50859350905060001982015b83156138e957600a840660300160f81b828280600190039350815181106138c757fe5b60200101906001600160f81b031916908160001a905350600a840493506138a4565b50949350505050565b600054610100900460ff168061390b575061390b613807565b80613919575060005460ff16155b6139545760405162461bcd60e51b815260040180806020018281038252602e815260200180615cf8602e913960400191505060405180910390fd5b600054610100900460ff1615801561397f576000805460ff1961ff0019909116610100171660011790555b6139876143b4565b6139918383614454565b80156109c7576000805461ff0019169055505050565b600054610100900460ff16806139c057506139c0613807565b806139ce575060005460ff16155b613a095760405162461bcd60e51b815260040180806020018281038252602e815260200180615cf8602e913960400191505060405180910390fd5b600054610100900460ff16158015613a34576000805460ff1961ff0019909116610100171660011790555b613a3c6143b4565b613a4461452c565b8015610eed576000805461ff001916905550565b600054610100900460ff1680613a715750613a71613807565b80613a7f575060005460ff16155b613aba5760405162461bcd60e51b815260040180806020018281038252602e815260200180615cf8602e913960400191505060405180910390fd5b600054610100900460ff16158015613ae5576000805460ff1961ff0019909116610100171660011790555b613aed6143b4565b613a446143b4565b600082821115613b4c576040805162461bcd60e51b815260206004820152601e60248201527f536166654d6174683a207375627472616374696f6e206f766572666c6f770000604482015290519081900360640190fd5b50900390565b6000610a53836001600160a01b0384166145d7565b6000610a53836001600160a01b038416614621565b600080600080613b8a61071d565b9050600080613b9761177e565b915091508260001480613baa5750600082115b80613bb55750600081115b613bbb57fe5b82613bd757879450869350613bd085856146e7565b9550613c9b565b81613bfb57613be7878483612f8e565b9550613bf48682856146fe565b9350613c9b565b80613c1f57613c0b888484612f8e565b9550613c188683856146fe565b9450613c9b565b6000613c3d613c2e8a84614738565b613c388a86614738565b614791565b905060008111613c5f5760405162461bcd60e51b8152600401610e1c9061597f565b816001820381613c6b57fe5b046001019550826001820381613c7d57fe5b04600101945081613c8f828686612f8e565b81613c9657fe5b049650505b5050509250925092565b604080516001600160a01b0380861660248301528416604482015260648082018490528251808303909101815260849091019091526020810180516001600160e01b03166323b872dd60e01b179052611bc5908590614303565b6001600160a01b038216613d5a576040805162461bcd60e51b815260206004820152601f60248201527f45524332303a206d696e7420746f20746865207a65726f206164647265737300604482015290519081900360640190fd5b613d66600083836109c7565b603554613d73908261273c565b6035556001600160a01b038216600090815260336020526040902054613d99908261273c565b6001600160a01b03831660008181526033602090815260408083209490945583518581529351929391927fddf252ad1be2c89b69c2b068fc378daa952ba7f163c4a11628f55a4df523b3ef9281900390910190a35050565b60008060008360020b12613e08578260020b613e10565b8260020b6000035b9050620d89e8811115613e4e576040805162461bcd60e51b81526020600482015260016024820152601560fa1b604482015290519081900360640190fd5b600060018216613e6257600160801b613e74565b6ffffcb933bd6fad37aa2d162d1a5940015b70ffffffffffffffffffffffffffffffffff1690506002821615613ea8576ffff97272373d413259a46990580e213a0260801c5b6004821615613ec7576ffff2e50f5f656932ef12357cf3c7fdcc0260801c5b6008821615613ee6576fffe5caca7e10e4e61c3624eaa0941cd00260801c5b6010821615613f05576fffcb9843d60f6159c9db58835c9266440260801c5b6020821615613f24576fff973b41fa98c081472e6896dfb254c00260801c5b6040821615613f43576fff2ea16466c96a3843ec78b326b528610260801c5b6080821615613f62576ffe5dee046a99a2a811c461f1969c30530260801c5b610100821615613f82576ffcbe86c7900a88aedcffc83b479aa3a40260801c5b610200821615613fa2576ff987a7253ac413176f2b074cf7815e540260801c5b610400821615613fc2576ff3392b0822b70005940c7a398e4b70f30260801c5b610800821615613fe2576fe7159475a2c29b7443b29c7fa6e889d90260801c5b611000821615614002576fd097f3bdfd2022b8845ad8f792aa58250260801c5b612000821615614022576fa9f746462d870fdf8a65dc1f90e061e50260801c5b614000821615614042576f70d869a156d2a1b890bb3df62baf32f70260801c5b618000821615614062576f31be135f97d08fd981231505542fcfa60260801c5b62010000821615614083576f09aa508b5b7a84e1c677de54f3e99bc90260801c5b620200008216156140a3576e5d6af8dedb81196699c329225ee6040260801c5b620400008216156140c2576d2216e584f5fa1ea926041bedfe980260801c5b620800008216156140df576b048a170391f7dc42444e8fa20260801c5b60008460020b13156140fa5780600019816140f657fe5b0490505b64010000000081061561410e576001614111565b60005b60ff16602082901c0192505050919050565b600080836001600160a01b0316856001600160a01b03161115614144579293925b846001600160a01b0316866001600160a01b03161161416f576141688585856147a0565b91506141b6565b836001600160a01b0316866001600160a01b031610156141a8576141948685856147a0565b91506141a1858785614809565b90506141b6565b6141b3858585614809565b90505b94509492505050565b6000836001600160a01b0316856001600160a01b031611156141df579293925b846001600160a01b0316866001600160a01b03161161420a57614203858585614854565b905061427a565b836001600160a01b0316866001600160a01b0316101561426c576000614231878686614854565b905060006142408789866148b7565b9050806001600160801b0316826001600160801b0316106142615780614263565b815b9250505061427a565b6142778585846148b7565b90505b95945050505050565b815460009082106142c55760405162461bcd60e51b8152600401808060200182810382526022815260200180615bc46022913960400191505060405180910390fd5b8260000182815481106142d457fe5b9060005260206000200154905092915050565b60009081526001919091016020526040902054151590565b5490565b6000614358826040518060400160405280602081526020017f5361666545524332303a206c6f772d6c6576656c2063616c6c206661696c6564815250856001600160a01b03166148f49092919063ffffffff16565b8051909150156109c75780806020019051602081101561437757600080fd5b50516109c75760405162461bcd60e51b815260040180806020018281038252602a815260200180615dd9602a913960400191505060405180910390fd5b600054610100900460ff16806143cd57506143cd613807565b806143db575060005460ff16155b6144165760405162461bcd60e51b815260040180806020018281038252602e815260200180615cf8602e913960400191505060405180910390fd5b600054610100900460ff16158015613a44576000805460ff1961ff0019909116610100171660011790558015610eed576000805461ff001916905550565b600054610100900460ff168061446d575061446d613807565b8061447b575060005460ff16155b6144b65760405162461bcd60e51b815260040180806020018281038252602e815260200180615cf8602e913960400191505060405180910390fd5b600054610100900460ff161580156144e1576000805460ff1961ff0019909116610100171660011790555b82516144f4906036906020860190614c20565b508151614508906037906020850190614c20565b506038805460ff1916601217905580156109c7576000805461ff0019169055505050565b600054610100900460ff16806145455750614545613807565b80614553575060005460ff16155b61458e5760405162461bcd60e51b815260040180806020018281038252602e815260200180615cf8602e913960400191505060405180910390fd5b600054610100900460ff161580156145b9576000805460ff1961ff0019909116610100171660011790555b6065805460ff191690558015610eed576000805461ff001916905550565b60006145e383836142e7565b614619575081546001818101845560008481526020808220909301849055845484825282860190935260409020919091556106e9565b5060006106e9565b600081815260018301602052604081205480156146dd578354600019808301919081019060009087908390811061465457fe5b906000526020600020015490508087600001848154811061467157fe5b6000918252602080832090910192909255828152600189810190925260409020908401905586548790806146a157fe5b600190038181906000526020600020016000905590558660010160008781526020019081526020016000206000905560019450505050506106e9565b60009150506106e9565b6000818310156146f75781610a53565b5090919050565b600061470b848484612f8e565b90506000828061471757fe5b8486091115610a5357600019811061472e57600080fd5b6001019392505050565b600082614747575060006106e9565b8282028284828161475457fe5b0414610a535760405162461bcd60e51b8152600401808060200182810382526021815260200180615d266021913960400191505060405180910390fd5b60008183106146f75781610a53565b6000826001600160a01b0316846001600160a01b031611156147c0579192915b836001600160a01b03166147f9606060ff16846001600160801b0316901b8686036001600160a01b0316866001600160a01b0316612f8e565b8161480057fe5b04949350505050565b6000826001600160a01b0316846001600160a01b03161115614829579192915b61484c826001600160801b03168585036001600160a01b0316600160601b612f8e565b949350505050565b6000826001600160a01b0316846001600160a01b03161115614874579192915b6000614897856001600160a01b0316856001600160a01b0316600160601b612f8e565b905061427a6148b284838888036001600160a01b0316612f8e565b614903565b6000826001600160a01b0316846001600160a01b031611156148d7579192915b61484c6148b283600160601b8787036001600160a01b0316612f8e565b606061484c8484600085614919565b806001600160801b038116811461063057600080fd5b60608247101561495a5760405162461bcd60e51b8152600401808060200182810382526026815260200180615ca26026913960400191505060405180910390fd5b61496385611cac565b6149b4576040805162461bcd60e51b815260206004820152601d60248201527f416464726573733a2063616c6c20746f206e6f6e2d636f6e7472616374000000604482015290519081900360640190fd5b600080866001600160a01b031685876040518082805190602001908083835b602083106149f25780518252601f1990920191602091820191016149d3565b6001836020036101000a03801982511681845116808217855250505050505090500191505060006040518083038185875af1925050503d8060008114614a54576040519150601f19603f3d011682016040523d82523d6000602084013e614a59565b606091505b5091509150614a69828286614a74565b979650505050505050565b60608315614a83575081610a53565b825115614a935782518084602001fd5b60405162461bcd60e51b8152602060048201818152845160248401528451859391928392604401919085019080838360008315611ff9578181015183820152602001611fe1565b82805482825590600052602060002090600901600a90048101928215614b795791602002820160005b83821115614b4857835183826101000a81548162ffffff021916908360020b62ffffff1602179055509260200192600301602081600201049283019260010302614b03565b8015614b775782816101000a81549062ffffff0219169055600301602081600201049283019260010302614b48565b505b50614b85929150614c9c565b5090565b82805482825590600052602060002090600f01601090048101928215614b795791602002820160005b83821115614bf257835183826101000a81548161ffff021916908361ffff1602179055509260200192600201602081600101049283019260010302614bb2565b8015614b775782816101000a81549061ffff0219169055600201602081600101049283019260010302614bf2565b828054600181600116156101000203166002900490600052602060002090601f016020900481019282614c565760008555614b79565b82601f10614c6f57805160ff1916838001178555614b79565b82800160010185558215614b79579182015b82811115614b79578251825591602001919060010190614c81565b5b80821115614b855760008155600101614c9d565b6000614cc4614cbf84615b2d565b615aed565b9050828152838383011115614cd857600080fd5b610a53836020830184615b4e565b805161063081615b7a565b600082601f830112614d01578081fd5b81356020614d11614cbf83615b10565b8281528181019085830183850287018401881015614d2d578586fd5b855b85811015614d54578135614d4281615b8f565b84529284019290840190600101614d2f565b5090979650505050505050565b600082601f830112614d71578081fd5b81516020614d81614cbf83615b10565b8281528181019085830183850287018401881015614d9d578586fd5b855b85811015614d54578151614db281615b7a565b84529284019290840190600101614d9f565b600082601f830112614dd4578081fd5b81356020614de4614cbf83615b10565b8281528181019085830183850287018401881015614e00578586fd5b855b85811015614d54578135614e1581615bb3565b84529284019290840190600101614e02565b8051801515811461063057600080fd5b60008083601f840112614e48578182fd5b5081356001600160401b03811115614e5e578182fd5b602083019150836020828501011115614e7657600080fd5b9250929050565b80516005811061063057600080fd5b600082601f830112614e9c578081fd5b610a5383835160208501614cb1565b600060208284031215614ebc578081fd5b8135610a5381615b7a565b600060208284031215614ed8578081fd5b8151610a5381615b7a565b600080600080600060a08688031215614efa578081fd5b8551614f0581615b7a565b6020870151909550614f1681615b7a565b604087015190945062ffffff81168114614f2e578182fd5b6060870151909350614f3f81615b8f565b608087015190925063ffffffff81168114614f58578182fd5b809150509295509295909350565b60008060408385031215614f78578182fd5b8251614f8381615b7a565b60208401519092506001600160401b03811115614f9e578182fd5b8301601f81018513614fae578182fd5b614fbd85825160208401614cb1565b9150509250929050565b60008060408385031215614fd9578182fd5b8235614fe481615b7a565b91506020830135614ff481615b7a565b809150509250929050565b60008060008060808587031215615014578182fd5b843561501f81615b7a565b9350602085013561502f81615b7a565b9250604085013561503f81615b7a565b915060608501356001600160401b03811115615059578182fd5b8501601f81018713615069578182fd5b8035615077614cbf82615b2d565b81815288602083850101111561508b578384fd5b81602084016020830137908101602001929092525092959194509250565b6000806000606084860312156150bd578081fd5b83356150c881615b7a565b925060208401356150d881615b7a565b929592945050506040919091013590565b600080604083850312156150fb578182fd5b823561510681615b7a565b946020939093013593505050565b60008060408385031215615126578182fd5b82516001600160401b038082111561513c578384fd5b818501915085601f83011261514f578384fd5b8151602061515f614cbf83615b10565b82815281810190858301838502870184018b101561517b578889fd5b8896505b848710156151ab5780518060060b811461519757898afd5b83526001969096019591830191830161517f565b50918801519196509093505050808211156151c4578283fd5b50614fbd85828601614d61565b6000602082840312156151e2578081fd5b610a5382614e27565b6000602082840312156151fc578081fd5b5035919050565b60008060408385031215615215578182fd5b823591506020830135614ff481615b7a565b60008060408385031215615239578182fd5b50508035926020909101359150565b600060208284031215615259578081fd5b81356001600160e01b031981168114610a53578182fd5b600080600060608486031215615284578081fd5b833561528f81615b8f565b9250602084013561529f81615b8f565b915060408401356152af81615b9e565b809150509250925092565b600080604083850312156152cc578182fd5b505080516020909101519092909150565b600080600080606085870312156152f2578182fd5b843593506020850135925060408501356001600160401b03811115615315578283fd5b61532187828801614e37565b95989497509550505050565b60006020828403121561533e578081fd5b81516001600160401b0380821115615354578283fd5b9083019060c08286031215615367578283fd5b61537160c0615aed565b61537a83614e7d565b815260208301516020820152604083015160408201526060830151828111156153a1578485fd5b6153ad87828601614e8c565b6060830152506153bf60808401614ce6565b608082015260a0830151828111156153d5578485fd5b6153e187828601614e8c565b60a08301525095945050505050565b60008060408385031215615402578182fd5b825161540d81615b9e565b6020840151909250614ff481615b9e565b600080600080600060a08688031215615435578283fd5b855161544081615b9e565b809550506020860151935060408601519250606086015161546081615b9e565b6080870151909250614f5881615b9e565b600080600080600080600060e0888a03121561548b578485fd5b875161549681615b7a565b60208901519097506154a781615b8f565b60408901519096506154b881615bb3565b60608901519095506154c981615bb3565b60808901519094506154da81615bb3565b60a089015190935060ff811681146154f0578283fd5b91506154fe60c08901614e27565b905092959891949750929550565b60006020828403121561551d578081fd5b5051919050565b60008060008060608587031215615539578182fd5b8435935060208501356001600160401b0380821115615556578384fd5b9086019060608289031215615569578384fd5b60405160608101818110838211171561557e57fe5b60405282358281111561558f578586fd5b61559b8a828601614cf1565b8252506020830135828111156155af578586fd5b6155bb8a828601614cf1565b6020830152506040830135828111156155d2578586fd5b6155de8a828601614dc4565b6040830152508095505060408701359150808211156155fb578384fd5b5061532187828801614e37565b60008060006060848603121561561c578081fd5b833592506020840135915060408401356152af81615b7a565b6000806000806080858703121561564a578182fd5b843593506020850135925060408501359150606085013561566a81615b7a565b939692955090935050565b600080600080600060a0868803121561568c578283fd5b853594506020860135935060408601359250606086013591506080860135614f5881615b7a565b6000815180845260208085019450808401835b838110156156e557815160020b875295820195908201906001016156c6565b509495945050505050565b60007153544545525f554e4956335f5641554c545f60701b8252825161571d816012850160208701615b4e565b9190910160120192915050565b6001600160a01b0391909116815260200190565b6001600160a01b0392831681529116602082015260400190565b6001600160a01b03938416815291909216602082015262ffffff909116604082015260600190565b6001600160a01b03948516815292151560208401526040830191909152909116606082015260a06080820181905260009082015260c00190565b6001600160a01b03949094168452600292830b6020850152910b60408301526001600160801b0316606082015260a06080820181905260009082015260c00190565b6001600160a01b03959095168552600293840b60208601529190920b60408401526001600160801b03918216606084015216608082015260a00190565b60006060825261584c60608301866156b3565b60208382038185015261585f82876156b3565b84810360408601528551808252828701935090820190845b8181101561589757845161ffff1683529383019391830191600101615877565b509098975050505050505050565b6020808252825182820181905260009190848201906040850190845b818110156158e357835163ffffffff16835292840192918401916001016158c1565b50909695505050505050565b901515815260200190565b90815260200190565b6001600160e01b031991909116815260200190565b60029190910b815260200190565b600293840b81529190920b60208201526001600160801b03909116604082015260600190565b600060208252825180602084015261596b816040850160208701615b4e565b601f01601f19169190910160400192915050565b6020808252600190820152604360f81b604082015260600190565b6020808252600190820152600360fc1b604082015260600190565b602080825260139082015272496e76616c6964205661756c7420537461746560681b604082015260600190565b6020808252600190820152601560fa1b604082015260600190565b6020808252600190820152605360f81b604082015260600190565b6020808252600190820152603160f81b604082015260600190565b6020808252600190820152605760f81b604082015260600190565b6020808252600190820152602960f91b604082015260600190565b6020808252600190820152602b60f91b604082015260600190565b6001600160a01b0394909416845260208401929092526040830152606082015260800190565b918252602082015260400190565b9283526020830191909152604082015260600190565b63ffffffff91909116815260200190565b60ff91909116815260200190565b6040518181016001600160401b0381118282101715615b0857fe5b604052919050565b60006001600160401b03821115615b2357fe5b5060209081020190565b60006001600160401b03821115615b4057fe5b50601f01601f191660200190565b60005b83811015615b69578181015183820152602001615b51565b83811115611bc55750506000910152565b6001600160a01b0381168114610eed57600080fd5b8060020b8114610eed57600080fd5b6001600160801b0381168114610eed57600080fd5b61ffff81168114610eed57600080fdfe456e756d657261626c655365743a20696e646578206f7574206f6620626f756e647345524332303a207472616e7366657220746f20746865207a65726f2061646472657373416363657373436f6e74726f6c3a2073656e646572206d75737420626520616e2061646d696e20746f206772616e7445524332303a206275726e20616d6f756e7420657863656564732062616c616e636545524332303a20617070726f766520746f20746865207a65726f206164647265737345524332303a207472616e7366657220616d6f756e7420657863656564732062616c616e6365416464726573733a20696e73756666696369656e742062616c616e636520666f722063616c6c416363657373436f6e74726f6c3a2073656e646572206d75737420626520616e2061646d696e20746f207265766f6b65496e697469616c697a61626c653a20636f6e747261637420697320616c726561647920696e697469616c697a6564536166654d6174683a206d756c7469706c69636174696f6e206f766572666c6f7745524332303a207472616e7366657220616d6f756e74206578636565647320616c6c6f77616e636545524332303a206275726e2066726f6d20746865207a65726f206164647265737345524332303a207472616e736665722066726f6d20746865207a65726f206164647265737345524332303a20617070726f76652066726f6d20746865207a65726f20616464726573735361666545524332303a204552433230206f7065726174696f6e20646964206e6f742073756363656564c62a261ff212893ed0a2ac422d821462bb04a4b5c153a746ad6a15108fb4f95145524332303a2064656372656173656420616c6c6f77616e63652062656c6f77207a65726f416363657373436f6e74726f6c3a2063616e206f6e6c792072656e6f756e636520726f6c657320666f722073656c66a264697066735822122095840289798ad754cbcf9d2e113b7931ab890c4f6f8e9aef7b420e7ab08e71ac64736f6c63430007060033496e697469616c697a61626c653a20636f6e747261637420697320616c726561647920696e697469616c697a6564",
  "devdoc": {
    "kind": "dev",
    "methods": {
      "allowance(address,address)": {
        "details": "See {IERC20-allowance}."
      },
      "approve(address,uint256)": {
        "details": "See {IERC20-approve}. Requirements: - `spender` cannot be the zero address."
      },
      "balanceOf(address)": {
        "details": "See {IERC20-balanceOf}."
      },
      "decimals()": {
        "details": "Returns the number of decimals used to get its user representation. For example, if `decimals` equals `2`, a balance of `505` tokens should be displayed to a user as `5,05` (`505 / 10 ** 2`). Tokens usually opt for a value of 18, imitating the relationship between Ether and Wei. This is the value {ERC20} uses, unless {_setupDecimals} is called. NOTE: This information is only used for _display_ purposes: it in no way affects any of the arithmetic of the contract, including {IERC20-balanceOf} and {IERC20-transfer}."
      },
      "decreaseAllowance(address,uint256)": {
        "details": "Atomically decreases the allowance granted to `spender` by the caller. This is an alternative to {approve} that can be used as a mitigation for problems described in {IERC20-approve}. Emits an {Approval} event indicating the updated allowance. Requirements: - `spender` cannot be the zero address. - `spender` must have allowance for the caller of at least `subtractedValue`."
      },
      "deposit(uint256,uint256,uint256,uint256,address)": {
        "details": "Checks that user is authorized to deposit, then deposits      check BaseLiquidityManager for more info on the params"
      },
      "getPositions()": {
        "details": "Get current positions held by the vault"
      },
      "getRoleAdmin(bytes32)": {
        "details": "Returns the admin role that controls `role`. See {grantRole} and {revokeRole}. To change a role's admin, use {_setRoleAdmin}."
      },
      "getRoleMember(bytes32,uint256)": {
        "details": "Returns one of the accounts that have `role`. `index` must be a value between 0 and {getRoleMemberCount}, non-inclusive. Role bearers are not sorted in any particular way, and their ordering may change at any point. WARNING: When using {getRoleMember} and {getRoleMemberCount}, make sure you perform all queries on the same block. See the following https://forum.openzeppelin.com/t/iterating-over-elements-on-enumerableset-in-openzeppelin-contracts/2296[forum post] for more information."
      },
      "getRoleMemberCount(bytes32)": {
        "details": "Returns the number of accounts that have `role`. Can be used together with {getRoleMember} to enumerate all bearers of a role."
      },
      "getTotalAmounts()": {
        "details": "Calculates the vault's total holdings of token0 and token1.      in other words, how much of each token the vault would hold if it withdrew      all its liquidity from Uniswap.      This function DOES NOT include fees earned since the last burn.      To include fees, first poke() and then call getTotalAmounts.      There's a function inside the periphery to do so."
      },
      "grantRole(bytes32,address)": {
        "details": "Grants `role` to `account`. If `account` had not been already granted `role`, emits a {RoleGranted} event. Requirements: - the caller must have ``role``'s admin role."
      },
      "hasRole(bytes32,address)": {
        "details": "Returns `true` if `account` has been granted `role`."
      },
      "increaseAllowance(address,uint256)": {
        "details": "Atomically increases the allowance granted to `spender` by the caller. This is an alternative to {approve} that can be used as a mitigation for problems described in {IERC20-approve}. Emits an {Approval} event indicating the updated allowance. Requirements: - `spender` cannot be the zero address."
      },
      "initialize(address,address,address,bytes)": {
        "details": "Initializes vault",
        "params": {
          "_params": "All other parameters this vault will use:                _params.whitelistManager is the address (usually an EOA)                 in charge of adding/removing accounts from the whitelist                _params.setupParams can be found in the MultiLiquidityManager",
          "_steer": "The steer multisig address, responsible for some governance functions.",
          "_vaultManager": "is the address which will manage the vault being created, pass orchestrator address if the vault is meant to be managed by the orchestrator"
        }
      },
      "name()": {
        "details": "Returns the name of the token."
      },
      "pause()": {
        "details": "Pause and unpause"
      },
      "paused()": {
        "details": "Returns true if the contract is paused, and false otherwise."
      },
      "poke()": {
        "details": "burns each vault position which contains liquidity, updating fees owed to that position.      Call this before calling getTotalAmounts if total amounts must include fees.      There's a function in the periphery to do so through a static call."
      },
      "renounceRole(bytes32,address)": {
        "details": "Revokes `role` from the calling account. Roles are often managed via {grantRole} and {revokeRole}: this function's purpose is to provide a mechanism for accounts to lose their privileges if they are compromised (such as when a trusted device is misplaced). If the calling account had been granted `role`, emits a {RoleRevoked} event. Requirements: - the caller must be `account`."
      },
      "revokeRole(bytes32,address)": {
        "details": "Revokes `role` from `account`. If `account` had been granted `role`, emits a {RoleRevoked} event. Requirements: - the caller must have ``role``'s admin role."
      },
      "symbol()": {
        "details": "Returns the symbol of the token, usually a shorter version of the name."
      },
      "tend(uint256,(int24[],int24[],uint16[]),bytes)": {
        "details": "Internal function to pull funds from pool.      Update positions if necessary, then deposit funds into pool.      Reverts if the vault does not own any liquidity or tokens.      newPositions requirements:        Each lowerTick must be lower than its corresponding upperTick        Each lowerTick must be greater than or equal to the tick min (-887272)        Each upperTick must be less than or equal to the tick max (887272)        All lowerTicks and upperTicks must be divisible by the pool tickSpacing--      A 0.05% fee pool has tick spacing of 10, 0.3% has tick spacing 60.      And 1% has tick spacing 200.",
        "params": {
          "newPositions": "The info of each new position to be set.           newPositions.lowerTick[] is an array, in order, of the lower ticks of each position           newPositions.upperTick[] is an array, in order, of the upper ticks of each position           newPositions.relativeWeight[] is an array, in order, of the relative weights of each position           So if for example newPositions is called with lowerTick = [-120, 0],           upperTick = [-60, 60], and relativeWeight = [1, 5],           then the positions would be -120 to -60 with a weight of 1,           and 0 to 60 with a weight of 5.           The weight differences roughly correspond to what           proportion of the liquidity is added to each position.",
          "timeSensitiveData": "Encoded info of the swapAmount and sqrtPriceLimitX96.           It must be encoded as bytes so that it the data is placed after           the newPositions, which is also a dynamic data type.        timeSensitiveData.swapAmount: the amount to be swapped from one token to another this tend. zeroForOne if positive, oneForZero if negative.        timeSensitiveData.sqrtPriceLimitX96: the slippage limit of the swap. Protections elsewhere prevent extreme slippage if the keeper calling this        function is malicious, but this is the first line of defense against MEV attacks.",
          "totalWeight": "The share of liquidity we want deposited, multiplied by 10,000.           A value of 10,000 means we want to deposit all tokens into uniswap.           A value of 0 means we just want all the liquidity out.           Note that values above 10,000 are not explicitly prohibited           but will generally cause the tend to fail."
        }
      },
      "totalSupply()": {
        "details": "See {IERC20-totalSupply}."
      },
      "transfer(address,uint256)": {
        "details": "See {IERC20-transfer}. Requirements: - `recipient` cannot be the zero address. - the caller must have a balance of at least `amount`."
      },
      "transferFrom(address,address,uint256)": {
        "details": "See {IERC20-transferFrom}. Emits an {Approval} event indicating the updated allowance. This is not required by the EIP. See the note at the beginning of {ERC20}. Requirements: - `sender` and `recipient` cannot be the zero address. - `sender` must have a balance of at least `amount`. - the caller must have allowance for ``sender``'s tokens of at least `amount`."
      },
      "uniswapV3MintCallback(uint256,uint256,bytes)": {
        "details": "Callback for Uniswap V3 pool."
      },
      "uniswapV3SwapCallback(int256,int256,bytes)": {
        "details": "Callback for Uniswap V3 pool."
      },
      "withdraw(uint256,uint256,uint256,address)": {
        "params": {
          "amount0Min": "Revert if resulting `amount0` is smaller than this",
          "amount1Min": "Revert if resulting `amount1` is smaller than this",
          "shares": "Shares burned by sender",
          "to": "Recipient of tokens"
        },
        "returns": {
          "amount0": "Amount of token0 sent to recipient",
          "amount1": "Amount of token1 sent to recipient"
        }
      }
    },
    "stateVariables": {
      "whitelistManager": {
        "details": "the contract this vault will check for whitelisting permissions"
      }
    },
    "version": 1
  },
  "userdoc": {
    "kind": "user",
    "methods": {
      "TOTAL_FEE()": {
        "notice": "Fee info"
      },
      "emergencyBurn(int24,int24,uint128)": {
        "notice": "Removes liquidity in case of emergency."
      },
      "pool()": {
        "notice": "Address of Uniswap V3 pool"
      },
      "steerCollectFees(uint256,uint256,address)": {
        "notice": "Used to collect accumulated protocol fees."
      },
      "strategistCollectFees(uint256,uint256,address)": {
        "notice": "Used to collect accumulated protocol fees."
      },
      "supportsInterface(bytes4)": {
        "notice": "Used by periphery to verify vault is depositable."
      },
      "token0()": {
        "notice": "Addresses of Token0 and Token1"
      },
      "withdraw(uint256,uint256,uint256,address)": {
        "notice": "Withdraws tokens in proportion to the vault's holdings."
      }
    },
    "version": 1
  },
  "storageLayout": {
    "storage": [
      {
        "astId": 1994,
        "contract": "contracts/vault-types/UniLiquidityManager/WhitelistedMultiLiquidityManager.sol:WhitelistedMultiLiquidityManager",
        "label": "_initialized",
        "offset": 0,
        "slot": "0",
        "type": "t_bool"
      },
      {
        "astId": 1997,
        "contract": "contracts/vault-types/UniLiquidityManager/WhitelistedMultiLiquidityManager.sol:WhitelistedMultiLiquidityManager",
        "label": "_initializing",
        "offset": 1,
        "slot": "0",
        "type": "t_bool"
      },
      {
        "astId": 2949,
        "contract": "contracts/vault-types/UniLiquidityManager/WhitelistedMultiLiquidityManager.sol:WhitelistedMultiLiquidityManager",
        "label": "__gap",
        "offset": 0,
        "slot": "1",
        "type": "t_array(t_uint256)50_storage"
      },
      {
        "astId": 2073,
        "contract": "contracts/vault-types/UniLiquidityManager/WhitelistedMultiLiquidityManager.sol:WhitelistedMultiLiquidityManager",
        "label": "_balances",
        "offset": 0,
        "slot": "51",
        "type": "t_mapping(t_address,t_uint256)"
      },
      {
        "astId": 2079,
        "contract": "contracts/vault-types/UniLiquidityManager/WhitelistedMultiLiquidityManager.sol:WhitelistedMultiLiquidityManager",
        "label": "_allowances",
        "offset": 0,
        "slot": "52",
        "type": "t_mapping(t_address,t_mapping(t_address,t_uint256))"
      },
      {
        "astId": 2081,
        "contract": "contracts/vault-types/UniLiquidityManager/WhitelistedMultiLiquidityManager.sol:WhitelistedMultiLiquidityManager",
        "label": "_totalSupply",
        "offset": 0,
        "slot": "53",
        "type": "t_uint256"
      },
      {
        "astId": 2083,
        "contract": "contracts/vault-types/UniLiquidityManager/WhitelistedMultiLiquidityManager.sol:WhitelistedMultiLiquidityManager",
        "label": "_name",
        "offset": 0,
        "slot": "54",
        "type": "t_string_storage"
      },
      {
        "astId": 2085,
        "contract": "contracts/vault-types/UniLiquidityManager/WhitelistedMultiLiquidityManager.sol:WhitelistedMultiLiquidityManager",
        "label": "_symbol",
        "offset": 0,
        "slot": "55",
        "type": "t_string_storage"
      },
      {
        "astId": 2087,
        "contract": "contracts/vault-types/UniLiquidityManager/WhitelistedMultiLiquidityManager.sol:WhitelistedMultiLiquidityManager",
        "label": "_decimals",
        "offset": 0,
        "slot": "56",
        "type": "t_uint8"
      },
      {
        "astId": 2582,
        "contract": "contracts/vault-types/UniLiquidityManager/WhitelistedMultiLiquidityManager.sol:WhitelistedMultiLiquidityManager",
        "label": "__gap",
        "offset": 0,
        "slot": "57",
        "type": "t_array(t_uint256)44_storage"
      },
      {
        "astId": 3463,
        "contract": "contracts/vault-types/UniLiquidityManager/WhitelistedMultiLiquidityManager.sol:WhitelistedMultiLiquidityManager",
        "label": "_paused",
        "offset": 0,
        "slot": "101",
        "type": "t_bool"
      },
      {
        "astId": 3554,
        "contract": "contracts/vault-types/UniLiquidityManager/WhitelistedMultiLiquidityManager.sol:WhitelistedMultiLiquidityManager",
        "label": "__gap",
        "offset": 0,
        "slot": "102",
        "type": "t_array(t_uint256)49_storage"
      },
      {
        "astId": 1237,
        "contract": "contracts/vault-types/UniLiquidityManager/WhitelistedMultiLiquidityManager.sol:WhitelistedMultiLiquidityManager",
        "label": "_roles",
        "offset": 0,
        "slot": "151",
        "type": "t_mapping(t_bytes32,t_struct(RoleData)1233_storage)"
      },
      {
        "astId": 1500,
        "contract": "contracts/vault-types/UniLiquidityManager/WhitelistedMultiLiquidityManager.sol:WhitelistedMultiLiquidityManager",
        "label": "__gap",
        "offset": 0,
        "slot": "152",
        "type": "t_array(t_uint256)49_storage"
      },
      {
        "astId": 11461,
        "contract": "contracts/vault-types/UniLiquidityManager/WhitelistedMultiLiquidityManager.sol:WhitelistedMultiLiquidityManager",
        "label": "vaultRegistry",
        "offset": 0,
        "slot": "201",
        "type": "t_address"
      },
      {
        "astId": 11464,
        "contract": "contracts/vault-types/UniLiquidityManager/WhitelistedMultiLiquidityManager.sol:WhitelistedMultiLiquidityManager",
        "label": "token0",
        "offset": 0,
        "slot": "202",
        "type": "t_contract(IERC20)684"
      },
      {
        "astId": 11466,
        "contract": "contracts/vault-types/UniLiquidityManager/WhitelistedMultiLiquidityManager.sol:WhitelistedMultiLiquidityManager",
        "label": "token1",
        "offset": 0,
        "slot": "203",
        "type": "t_contract(IERC20)684"
      },
      {
        "astId": 11469,
        "contract": "contracts/vault-types/UniLiquidityManager/WhitelistedMultiLiquidityManager.sol:WhitelistedMultiLiquidityManager",
        "label": "accruedSteerFees0",
        "offset": 0,
        "slot": "204",
        "type": "t_uint256"
      },
      {
        "astId": 11471,
        "contract": "contracts/vault-types/UniLiquidityManager/WhitelistedMultiLiquidityManager.sol:WhitelistedMultiLiquidityManager",
        "label": "accruedSteerFees1",
        "offset": 0,
        "slot": "205",
        "type": "t_uint256"
      },
      {
        "astId": 11474,
        "contract": "contracts/vault-types/UniLiquidityManager/WhitelistedMultiLiquidityManager.sol:WhitelistedMultiLiquidityManager",
        "label": "accruedStrategistFees0",
        "offset": 0,
        "slot": "206",
        "type": "t_uint256"
      },
      {
        "astId": 11476,
        "contract": "contracts/vault-types/UniLiquidityManager/WhitelistedMultiLiquidityManager.sol:WhitelistedMultiLiquidityManager",
        "label": "accruedStrategistFees1",
        "offset": 0,
        "slot": "207",
        "type": "t_uint256"
      },
      {
        "astId": 11479,
        "contract": "contracts/vault-types/UniLiquidityManager/WhitelistedMultiLiquidityManager.sol:WhitelistedMultiLiquidityManager",
        "label": "pool",
        "offset": 0,
        "slot": "208",
        "type": "t_contract(IUniswapV3Pool)3747"
      },
      {
        "astId": 11482,
        "contract": "contracts/vault-types/UniLiquidityManager/WhitelistedMultiLiquidityManager.sol:WhitelistedMultiLiquidityManager",
        "label": "maxTickChange",
        "offset": 20,
        "slot": "208",
        "type": "t_int24"
      },
      {
        "astId": 11485,
        "contract": "contracts/vault-types/UniLiquidityManager/WhitelistedMultiLiquidityManager.sol:WhitelistedMultiLiquidityManager",
        "label": "twapInterval",
        "offset": 23,
        "slot": "208",
        "type": "t_uint32"
      },
      {
        "astId": 12679,
        "contract": "contracts/vault-types/UniLiquidityManager/WhitelistedMultiLiquidityManager.sol:WhitelistedMultiLiquidityManager",
        "label": "gap",
        "offset": 0,
        "slot": "209",
        "type": "t_array(t_uint256)40_storage"
      },
      {
        "astId": 12694,
        "contract": "contracts/vault-types/UniLiquidityManager/WhitelistedMultiLiquidityManager.sol:WhitelistedMultiLiquidityManager",
        "label": "positions",
        "offset": 0,
        "slot": "249",
        "type": "t_struct(LiquidityPositions)12704_storage"
      },
      {
        "astId": 14170,
        "contract": "contracts/vault-types/UniLiquidityManager/WhitelistedMultiLiquidityManager.sol:WhitelistedMultiLiquidityManager",
        "label": "whitelistManager",
        "offset": 0,
        "slot": "252",
        "type": "t_address"
      }
    ],
    "types": {
      "t_address": {
        "encoding": "inplace",
        "label": "address",
        "numberOfBytes": "20"
      },
      "t_array(t_bytes32)dyn_storage": {
        "base": "t_bytes32",
        "encoding": "dynamic_array",
        "label": "bytes32[]",
        "numberOfBytes": "32"
      },
      "t_array(t_int24)dyn_storage": {
        "base": "t_int24",
        "encoding": "dynamic_array",
        "label": "int24[]",
        "numberOfBytes": "32"
      },
      "t_array(t_uint16)dyn_storage": {
        "base": "t_uint16",
        "encoding": "dynamic_array",
        "label": "uint16[]",
        "numberOfBytes": "32"
      },
      "t_array(t_uint256)40_storage": {
        "base": "t_uint256",
        "encoding": "inplace",
        "label": "uint256[40]",
        "numberOfBytes": "1280"
      },
      "t_array(t_uint256)44_storage": {
        "base": "t_uint256",
        "encoding": "inplace",
        "label": "uint256[44]",
        "numberOfBytes": "1408"
      },
      "t_array(t_uint256)49_storage": {
        "base": "t_uint256",
        "encoding": "inplace",
        "label": "uint256[49]",
        "numberOfBytes": "1568"
      },
      "t_array(t_uint256)50_storage": {
        "base": "t_uint256",
        "encoding": "inplace",
        "label": "uint256[50]",
        "numberOfBytes": "1600"
      },
      "t_bool": {
        "encoding": "inplace",
        "label": "bool",
        "numberOfBytes": "1"
      },
      "t_bytes32": {
        "encoding": "inplace",
        "label": "bytes32",
        "numberOfBytes": "32"
      },
      "t_contract(IERC20)684": {
        "encoding": "inplace",
        "label": "contract IERC20",
        "numberOfBytes": "20"
      },
      "t_contract(IUniswapV3Pool)3747": {
        "encoding": "inplace",
        "label": "contract IUniswapV3Pool",
        "numberOfBytes": "20"
      },
      "t_int24": {
        "encoding": "inplace",
        "label": "int24",
        "numberOfBytes": "3"
      },
      "t_mapping(t_address,t_mapping(t_address,t_uint256))": {
        "encoding": "mapping",
        "key": "t_address",
        "label": "mapping(address => mapping(address => uint256))",
        "numberOfBytes": "32",
        "value": "t_mapping(t_address,t_uint256)"
      },
      "t_mapping(t_address,t_uint256)": {
        "encoding": "mapping",
        "key": "t_address",
        "label": "mapping(address => uint256)",
        "numberOfBytes": "32",
        "value": "t_uint256"
      },
      "t_mapping(t_bytes32,t_struct(RoleData)1233_storage)": {
        "encoding": "mapping",
        "key": "t_bytes32",
        "label": "mapping(bytes32 => struct AccessControlUpgradeable.RoleData)",
        "numberOfBytes": "32",
        "value": "t_struct(RoleData)1233_storage"
      },
      "t_mapping(t_bytes32,t_uint256)": {
        "encoding": "mapping",
        "key": "t_bytes32",
        "label": "mapping(bytes32 => uint256)",
        "numberOfBytes": "32",
        "value": "t_uint256"
      },
      "t_string_storage": {
        "encoding": "bytes",
        "label": "string",
        "numberOfBytes": "32"
      },
      "t_struct(AddressSet)3226_storage": {
        "encoding": "inplace",
        "label": "struct EnumerableSetUpgradeable.AddressSet",
        "members": [
          {
            "astId": 3225,
            "contract": "contracts/vault-types/UniLiquidityManager/WhitelistedMultiLiquidityManager.sol:WhitelistedMultiLiquidityManager",
            "label": "_inner",
            "offset": 0,
            "slot": "0",
            "type": "t_struct(Set)2961_storage"
          }
        ],
        "numberOfBytes": "64"
      },
      "t_struct(LiquidityPositions)12704_storage": {
        "encoding": "inplace",
        "label": "struct MultiPositionLiquidityManager.LiquidityPositions",
        "members": [
          {
            "astId": 12697,
            "contract": "contracts/vault-types/UniLiquidityManager/WhitelistedMultiLiquidityManager.sol:WhitelistedMultiLiquidityManager",
            "label": "lowerTick",
            "offset": 0,
            "slot": "0",
            "type": "t_array(t_int24)dyn_storage"
          },
          {
            "astId": 12700,
            "contract": "contracts/vault-types/UniLiquidityManager/WhitelistedMultiLiquidityManager.sol:WhitelistedMultiLiquidityManager",
            "label": "upperTick",
            "offset": 0,
            "slot": "1",
            "type": "t_array(t_int24)dyn_storage"
          },
          {
            "astId": 12703,
            "contract": "contracts/vault-types/UniLiquidityManager/WhitelistedMultiLiquidityManager.sol:WhitelistedMultiLiquidityManager",
            "label": "relativeWeight",
            "offset": 0,
            "slot": "2",
            "type": "t_array(t_uint16)dyn_storage"
          }
        ],
        "numberOfBytes": "96"
      },
      "t_struct(RoleData)1233_storage": {
        "encoding": "inplace",
        "label": "struct AccessControlUpgradeable.RoleData",
        "members": [
          {
            "astId": 1230,
            "contract": "contracts/vault-types/UniLiquidityManager/WhitelistedMultiLiquidityManager.sol:WhitelistedMultiLiquidityManager",
            "label": "members",
            "offset": 0,
            "slot": "0",
            "type": "t_struct(AddressSet)3226_storage"
          },
          {
            "astId": 1232,
            "contract": "contracts/vault-types/UniLiquidityManager/WhitelistedMultiLiquidityManager.sol:WhitelistedMultiLiquidityManager",
            "label": "adminRole",
            "offset": 0,
            "slot": "2",
            "type": "t_bytes32"
          }
        ],
        "numberOfBytes": "96"
      },
      "t_struct(Set)2961_storage": {
        "encoding": "inplace",
        "label": "struct EnumerableSetUpgradeable.Set",
        "members": [
          {
            "astId": 2956,
            "contract": "contracts/vault-types/UniLiquidityManager/WhitelistedMultiLiquidityManager.sol:WhitelistedMultiLiquidityManager",
            "label": "_values",
            "offset": 0,
            "slot": "0",
            "type": "t_array(t_bytes32)dyn_storage"
          },
          {
            "astId": 2960,
            "contract": "contracts/vault-types/UniLiquidityManager/WhitelistedMultiLiquidityManager.sol:WhitelistedMultiLiquidityManager",
            "label": "_indexes",
            "offset": 0,
            "slot": "1",
            "type": "t_mapping(t_bytes32,t_uint256)"
          }
        ],
        "numberOfBytes": "64"
      },
      "t_uint16": {
        "encoding": "inplace",
        "label": "uint16",
        "numberOfBytes": "2"
      },
      "t_uint256": {
        "encoding": "inplace",
        "label": "uint256",
        "numberOfBytes": "32"
      },
      "t_uint32": {
        "encoding": "inplace",
        "label": "uint32",
        "numberOfBytes": "4"
      },
      "t_uint8": {
        "encoding": "inplace",
        "label": "uint8",
        "numberOfBytes": "1"
      }
    }
  }
}