{
  "_format": "hh-sol-artifact-1",
  "contractName": "InternalGovernanceTimelock",
  "sourceName": "contracts/InternalGovernanceTimelock.sol",
  "abi": [
    {
      "inputs": [],
      "stateMutability": "nonpayable",
      "type": "constructor"
    },
    {
      "anonymous": false,
      "inputs": [
        {
          "indexed": false,
          "internalType": "address",
          "name": "previousAdmin",
          "type": "address"
        },
        {
          "indexed": false,
          "internalType": "address",
          "name": "newAdmin",
          "type": "address"
        }
      ],
      "name": "AdminChanged",
      "type": "event"
    },
    {
      "anonymous": false,
      "inputs": [
        {
          "indexed": true,
          "internalType": "address",
          "name": "beacon",
          "type": "address"
        }
      ],
      "name": "BeaconUpgraded",
      "type": "event"
    },
    {
      "anonymous": false,
      "inputs": [
        {
          "indexed": true,
          "internalType": "bytes32",
          "name": "id",
          "type": "bytes32"
        },
        {
          "indexed": true,
          "internalType": "uint256",
          "name": "index",
          "type": "uint256"
        },
        {
          "indexed": false,
          "internalType": "address",
          "name": "target",
          "type": "address"
        },
        {
          "indexed": false,
          "internalType": "uint256",
          "name": "value",
          "type": "uint256"
        },
        {
          "indexed": false,
          "internalType": "bytes",
          "name": "data",
          "type": "bytes"
        }
      ],
      "name": "CallExecuted",
      "type": "event"
    },
    {
      "anonymous": false,
      "inputs": [
        {
          "indexed": true,
          "internalType": "bytes32",
          "name": "id",
          "type": "bytes32"
        },
        {
          "indexed": true,
          "internalType": "uint256",
          "name": "index",
          "type": "uint256"
        },
        {
          "indexed": false,
          "internalType": "address",
          "name": "target",
          "type": "address"
        },
        {
          "indexed": false,
          "internalType": "uint256",
          "name": "value",
          "type": "uint256"
        },
        {
          "indexed": false,
          "internalType": "bytes",
          "name": "data",
          "type": "bytes"
        },
        {
          "indexed": false,
          "internalType": "bytes32",
          "name": "predecessor",
          "type": "bytes32"
        },
        {
          "indexed": false,
          "internalType": "uint256",
          "name": "delay",
          "type": "uint256"
        }
      ],
      "name": "CallScheduled",
      "type": "event"
    },
    {
      "anonymous": false,
      "inputs": [
        {
          "indexed": true,
          "internalType": "bytes32",
          "name": "id",
          "type": "bytes32"
        }
      ],
      "name": "Cancelled",
      "type": "event"
    },
    {
      "anonymous": false,
      "inputs": [
        {
          "indexed": false,
          "internalType": "uint256",
          "name": "oldDuration",
          "type": "uint256"
        },
        {
          "indexed": false,
          "internalType": "uint256",
          "name": "newDuration",
          "type": "uint256"
        }
      ],
      "name": "MinDelayChange",
      "type": "event"
    },
    {
      "anonymous": false,
      "inputs": [
        {
          "indexed": true,
          "internalType": "address",
          "name": "previousOwner",
          "type": "address"
        },
        {
          "indexed": true,
          "internalType": "address",
          "name": "newOwner",
          "type": "address"
        }
      ],
      "name": "OwnershipTransferred",
      "type": "event"
    },
    {
      "anonymous": false,
      "inputs": [
        {
          "indexed": true,
          "internalType": "bytes32",
          "name": "role",
          "type": "bytes32"
        },
        {
          "indexed": true,
          "internalType": "bytes32",
          "name": "previousAdminRole",
          "type": "bytes32"
        },
        {
          "indexed": true,
          "internalType": "bytes32",
          "name": "newAdminRole",
          "type": "bytes32"
        }
      ],
      "name": "RoleAdminChanged",
      "type": "event"
    },
    {
      "anonymous": false,
      "inputs": [
        {
          "indexed": true,
          "internalType": "bytes32",
          "name": "role",
          "type": "bytes32"
        },
        {
          "indexed": true,
          "internalType": "address",
          "name": "account",
          "type": "address"
        },
        {
          "indexed": true,
          "internalType": "address",
          "name": "sender",
          "type": "address"
        }
      ],
      "name": "RoleGranted",
      "type": "event"
    },
    {
      "anonymous": false,
      "inputs": [
        {
          "indexed": true,
          "internalType": "bytes32",
          "name": "role",
          "type": "bytes32"
        },
        {
          "indexed": true,
          "internalType": "address",
          "name": "account",
          "type": "address"
        },
        {
          "indexed": true,
          "internalType": "address",
          "name": "sender",
          "type": "address"
        }
      ],
      "name": "RoleRevoked",
      "type": "event"
    },
    {
      "anonymous": false,
      "inputs": [
        {
          "indexed": true,
          "internalType": "address",
          "name": "implementation",
          "type": "address"
        }
      ],
      "name": "Upgraded",
      "type": "event"
    },
    {
      "inputs": [],
      "name": "DEFAULT_ADMIN_ROLE",
      "outputs": [
        {
          "internalType": "bytes32",
          "name": "",
          "type": "bytes32"
        }
      ],
      "stateMutability": "view",
      "type": "function"
    },
    {
      "inputs": [],
      "name": "EXECUTOR_ROLE",
      "outputs": [
        {
          "internalType": "bytes32",
          "name": "",
          "type": "bytes32"
        }
      ],
      "stateMutability": "view",
      "type": "function"
    },
    {
      "inputs": [],
      "name": "PROPOSER_ROLE",
      "outputs": [
        {
          "internalType": "bytes32",
          "name": "",
          "type": "bytes32"
        }
      ],
      "stateMutability": "view",
      "type": "function"
    },
    {
      "inputs": [],
      "name": "TIMELOCK_ADMIN_ROLE",
      "outputs": [
        {
          "internalType": "bytes32",
          "name": "",
          "type": "bytes32"
        }
      ],
      "stateMutability": "view",
      "type": "function"
    },
    {
      "inputs": [
        {
          "internalType": "bytes32",
          "name": "id",
          "type": "bytes32"
        }
      ],
      "name": "cancel",
      "outputs": [],
      "stateMutability": "nonpayable",
      "type": "function"
    },
    {
      "inputs": [
        {
          "internalType": "address",
          "name": "target",
          "type": "address"
        },
        {
          "internalType": "uint256",
          "name": "value",
          "type": "uint256"
        },
        {
          "internalType": "bytes",
          "name": "data",
          "type": "bytes"
        },
        {
          "internalType": "bytes32",
          "name": "predecessor",
          "type": "bytes32"
        },
        {
          "internalType": "bytes32",
          "name": "salt",
          "type": "bytes32"
        }
      ],
      "name": "execute",
      "outputs": [],
      "stateMutability": "payable",
      "type": "function"
    },
    {
      "inputs": [
        {
          "internalType": "address[]",
          "name": "targets",
          "type": "address[]"
        },
        {
          "internalType": "uint256[]",
          "name": "values",
          "type": "uint256[]"
        },
        {
          "internalType": "bytes[]",
          "name": "datas",
          "type": "bytes[]"
        },
        {
          "internalType": "bytes32",
          "name": "predecessor",
          "type": "bytes32"
        },
        {
          "internalType": "bytes32",
          "name": "salt",
          "type": "bytes32"
        }
      ],
      "name": "executeBatch",
      "outputs": [],
      "stateMutability": "payable",
      "type": "function"
    },
    {
      "inputs": [],
      "name": "getMinDelay",
      "outputs": [
        {
          "internalType": "uint256",
          "name": "duration",
          "type": "uint256"
        }
      ],
      "stateMutability": "view",
      "type": "function"
    },
    {
      "inputs": [
        {
          "internalType": "bytes32",
          "name": "role",
          "type": "bytes32"
        }
      ],
      "name": "getRoleAdmin",
      "outputs": [
        {
          "internalType": "bytes32",
          "name": "",
          "type": "bytes32"
        }
      ],
      "stateMutability": "view",
      "type": "function"
    },
    {
      "inputs": [
        {
          "internalType": "bytes32",
          "name": "id",
          "type": "bytes32"
        }
      ],
      "name": "getTimestamp",
      "outputs": [
        {
          "internalType": "uint256",
          "name": "timestamp",
          "type": "uint256"
        }
      ],
      "stateMutability": "view",
      "type": "function"
    },
    {
      "inputs": [
        {
          "internalType": "bytes32",
          "name": "role",
          "type": "bytes32"
        },
        {
          "internalType": "address",
          "name": "account",
          "type": "address"
        }
      ],
      "name": "grantRole",
      "outputs": [],
      "stateMutability": "nonpayable",
      "type": "function"
    },
    {
      "inputs": [
        {
          "internalType": "bytes32",
          "name": "role",
          "type": "bytes32"
        },
        {
          "internalType": "address",
          "name": "account",
          "type": "address"
        }
      ],
      "name": "hasRole",
      "outputs": [
        {
          "internalType": "bool",
          "name": "",
          "type": "bool"
        }
      ],
      "stateMutability": "view",
      "type": "function"
    },
    {
      "inputs": [
        {
          "internalType": "address",
          "name": "target",
          "type": "address"
        },
        {
          "internalType": "uint256",
          "name": "value",
          "type": "uint256"
        },
        {
          "internalType": "bytes",
          "name": "data",
          "type": "bytes"
        },
        {
          "internalType": "bytes32",
          "name": "predecessor",
          "type": "bytes32"
        },
        {
          "internalType": "bytes32",
          "name": "salt",
          "type": "bytes32"
        }
      ],
      "name": "hashOperation",
      "outputs": [
        {
          "internalType": "bytes32",
          "name": "hash",
          "type": "bytes32"
        }
      ],
      "stateMutability": "pure",
      "type": "function"
    },
    {
      "inputs": [
        {
          "internalType": "address[]",
          "name": "targets",
          "type": "address[]"
        },
        {
          "internalType": "uint256[]",
          "name": "values",
          "type": "uint256[]"
        },
        {
          "internalType": "bytes[]",
          "name": "datas",
          "type": "bytes[]"
        },
        {
          "internalType": "bytes32",
          "name": "predecessor",
          "type": "bytes32"
        },
        {
          "internalType": "bytes32",
          "name": "salt",
          "type": "bytes32"
        }
      ],
      "name": "hashOperationBatch",
      "outputs": [
        {
          "internalType": "bytes32",
          "name": "hash",
          "type": "bytes32"
        }
      ],
      "stateMutability": "pure",
      "type": "function"
    },
    {
      "inputs": [
        {
          "internalType": "uint256",
          "name": "minDelay",
          "type": "uint256"
        },
        {
          "internalType": "address[]",
          "name": "proposers",
          "type": "address[]"
        },
        {
          "internalType": "address[]",
          "name": "executors",
          "type": "address[]"
        }
      ],
      "name": "initialize",
      "outputs": [],
      "stateMutability": "nonpayable",
      "type": "function"
    },
    {
      "inputs": [
        {
          "internalType": "bytes32",
          "name": "id",
          "type": "bytes32"
        }
      ],
      "name": "isOperation",
      "outputs": [
        {
          "internalType": "bool",
          "name": "pending",
          "type": "bool"
        }
      ],
      "stateMutability": "view",
      "type": "function"
    },
    {
      "inputs": [
        {
          "internalType": "bytes32",
          "name": "id",
          "type": "bytes32"
        }
      ],
      "name": "isOperationDone",
      "outputs": [
        {
          "internalType": "bool",
          "name": "done",
          "type": "bool"
        }
      ],
      "stateMutability": "view",
      "type": "function"
    },
    {
      "inputs": [
        {
          "internalType": "bytes32",
          "name": "id",
          "type": "bytes32"
        }
      ],
      "name": "isOperationPending",
      "outputs": [
        {
          "internalType": "bool",
          "name": "pending",
          "type": "bool"
        }
      ],
      "stateMutability": "view",
      "type": "function"
    },
    {
      "inputs": [
        {
          "internalType": "bytes32",
          "name": "id",
          "type": "bytes32"
        }
      ],
      "name": "isOperationReady",
      "outputs": [
        {
          "internalType": "bool",
          "name": "ready",
          "type": "bool"
        }
      ],
      "stateMutability": "view",
      "type": "function"
    },
    {
      "inputs": [],
      "name": "owner",
      "outputs": [
        {
          "internalType": "address",
          "name": "",
          "type": "address"
        }
      ],
      "stateMutability": "view",
      "type": "function"
    },
    {
      "inputs": [],
      "name": "renounceOwnership",
      "outputs": [],
      "stateMutability": "nonpayable",
      "type": "function"
    },
    {
      "inputs": [
        {
          "internalType": "bytes32",
          "name": "role",
          "type": "bytes32"
        },
        {
          "internalType": "address",
          "name": "account",
          "type": "address"
        }
      ],
      "name": "renounceRole",
      "outputs": [],
      "stateMutability": "nonpayable",
      "type": "function"
    },
    {
      "inputs": [
        {
          "internalType": "bytes32",
          "name": "role",
          "type": "bytes32"
        },
        {
          "internalType": "address",
          "name": "account",
          "type": "address"
        }
      ],
      "name": "revokeRole",
      "outputs": [],
      "stateMutability": "nonpayable",
      "type": "function"
    },
    {
      "inputs": [
        {
          "internalType": "address",
          "name": "target",
          "type": "address"
        },
        {
          "internalType": "uint256",
          "name": "value",
          "type": "uint256"
        },
        {
          "internalType": "bytes",
          "name": "data",
          "type": "bytes"
        },
        {
          "internalType": "bytes32",
          "name": "predecessor",
          "type": "bytes32"
        },
        {
          "internalType": "bytes32",
          "name": "salt",
          "type": "bytes32"
        },
        {
          "internalType": "uint256",
          "name": "delay",
          "type": "uint256"
        }
      ],
      "name": "schedule",
      "outputs": [],
      "stateMutability": "nonpayable",
      "type": "function"
    },
    {
      "inputs": [
        {
          "internalType": "address[]",
          "name": "targets",
          "type": "address[]"
        },
        {
          "internalType": "uint256[]",
          "name": "values",
          "type": "uint256[]"
        },
        {
          "internalType": "bytes[]",
          "name": "datas",
          "type": "bytes[]"
        },
        {
          "internalType": "bytes32",
          "name": "predecessor",
          "type": "bytes32"
        },
        {
          "internalType": "bytes32",
          "name": "salt",
          "type": "bytes32"
        },
        {
          "internalType": "uint256",
          "name": "delay",
          "type": "uint256"
        }
      ],
      "name": "scheduleBatch",
      "outputs": [],
      "stateMutability": "nonpayable",
      "type": "function"
    },
    {
      "inputs": [
        {
          "internalType": "bytes4",
          "name": "interfaceId",
          "type": "bytes4"
        }
      ],
      "name": "supportsInterface",
      "outputs": [
        {
          "internalType": "bool",
          "name": "",
          "type": "bool"
        }
      ],
      "stateMutability": "view",
      "type": "function"
    },
    {
      "inputs": [
        {
          "internalType": "address",
          "name": "newOwner",
          "type": "address"
        }
      ],
      "name": "transferOwnership",
      "outputs": [],
      "stateMutability": "nonpayable",
      "type": "function"
    },
    {
      "inputs": [
        {
          "internalType": "uint256",
          "name": "newDelay",
          "type": "uint256"
        }
      ],
      "name": "updateDelay",
      "outputs": [],
      "stateMutability": "nonpayable",
      "type": "function"
    },
    {
      "inputs": [
        {
          "internalType": "address",
          "name": "newImplementation",
          "type": "address"
        }
      ],
      "name": "upgradeTo",
      "outputs": [],
      "stateMutability": "nonpayable",
      "type": "function"
    },
    {
      "inputs": [
        {
          "internalType": "address",
          "name": "newImplementation",
          "type": "address"
        },
        {
          "internalType": "bytes",
          "name": "data",
          "type": "bytes"
        }
      ],
      "name": "upgradeToAndCall",
      "outputs": [],
      "stateMutability": "payable",
      "type": "function"
    },
    {
      "stateMutability": "payable",
      "type": "receive"
    }
  ],
  "bytecode": "0x60a0604052306080523480156200001557600080fd5b50600054610100900460ff16620000335760005460ff16156200003d565b6200003d620000e2565b620000a55760405162461bcd60e51b815260206004820152602e60248201527f496e697469616c697a61626c653a20636f6e747261637420697320616c72656160448201526d191e481a5b9a5d1a585b1a5e995960921b606482015260840160405180910390fd5b600054610100900460ff16158015620000c8576000805461ffff19166101011790555b8015620000db576000805461ff00191690555b5062000106565b6000620000fa306200010060201b62000f9f1760201c565b15905090565b3b151590565b6080516127af62000137600039600081816107ce0152818161080e0152818161089701526108d701526127af6000f3fe6080604052600436106101d15760003560e01c8063715018a6116100f7578063a217fddf11610095578063d547741f11610064578063d547741f1461054d578063e38335e51461056d578063f27a0c9214610580578063f2fde38b1461059557600080fd5b8063a217fddf146104cb578063b1c5f427146104e0578063c4d252f514610500578063d45c44351461052057600080fd5b80638da5cb5b116100d15780638da5cb5b146104415780638f2a0bb0146104695780638f61f4f51461048957806391d14854146104ab57600080fd5b8063715018a6146103ec5780637fbc79c6146104015780638065657f1461042157600080fd5b80632ab0f5291161016f5780633659cfe61161013e5780633659cfe6146103795780634f1ef28614610399578063584b153e146103ac57806364d62353146103cc57600080fd5b80632ab0f529146102e95780632f2ff15d1461031957806331d507501461033957806336568abe1461035957600080fd5b80630d3cf6fc116101ab5780630d3cf6fc14610264578063134008d31461028657806313bc9f2014610299578063248a9ca3146102b957600080fd5b806301d5062a146101dd57806301ffc9a7146101ff57806307bd02651461023457600080fd5b366101d857005b600080fd5b3480156101e957600080fd5b506101fd6101f8366004611cbc565b6105b5565b005b34801561020b57600080fd5b5061021f61021a366004611d30565b610639565b60405190151581526020015b60405180910390f35b34801561024057600080fd5b5061025660008051602061275a83398151915281565b60405190815260200161022b565b34801561027057600080fd5b506102566000805160206126f383398151915281565b6101fd610294366004611d5a565b610670565b3480156102a557600080fd5b5061021f6102b4366004611dc5565b6106d6565b3480156102c557600080fd5b506102566102d4366004611dc5565b60009081526065602052604090206001015490565b3480156102f557600080fd5b5061021f610304366004611dc5565b60009081526097602052604090205460011490565b34801561032557600080fd5b506101fd610334366004611dde565b6106fc565b34801561034557600080fd5b5061021f610354366004611dc5565b610727565b34801561036557600080fd5b506101fd610374366004611dde565b610740565b34801561038557600080fd5b506101fd610394366004611e0a565b6107c3565b6101fd6103a7366004611e6b565b61088c565b3480156103b857600080fd5b5061021f6103c7366004611dc5565b610942565b3480156103d857600080fd5b506101fd6103e7366004611dc5565b610959565b3480156103f857600080fd5b506101fd6109fd565b34801561040d57600080fd5b506101fd61041c366004611f96565b610a33565b34801561042d57600080fd5b5061025661043c366004611d5a565b610b0a565b34801561044d57600080fd5b5060c9546040516001600160a01b03909116815260200161022b565b34801561047557600080fd5b506101fd610484366004612046565b610b49565b34801561049557600080fd5b5061025660008051602061273a83398151915281565b3480156104b757600080fd5b5061021f6104c6366004611dde565b610c8a565b3480156104d757600080fd5b50610256600081565b3480156104ec57600080fd5b506102566104fb3660046120f7565b610cb5565b34801561050c57600080fd5b506101fd61051b366004611dc5565b610cfa565b34801561052c57600080fd5b5061025661053b366004611dc5565b60009081526097602052604090205490565b34801561055957600080fd5b506101fd610568366004611dde565b610dbe565b6101fd61057b3660046120f7565b610de4565b34801561058c57600080fd5b50609854610256565b3480156105a157600080fd5b506101fd6105b0366004611e0a565b610f07565b60008051602061273a8339815191526105ce8133610fa5565b60006105de898989898989610b0a565b90506105ea8184611009565b6000817f4cf4410cc57040e44862ef0f45f3dd5a5e02db8eb8add648d4b0e236f1d07dca8b8b8b8b8b8a604051610626969594939291906121c8565b60405180910390a3505050505050505050565b60006001600160e01b03198216637965db0b60e01b148061066a57506301ffc9a760e01b6001600160e01b03198316145b92915050565b60008051602061275a83398151915261068a816000610c8a565b610698576106988133610fa5565b60006106a8888888888888610b0a565b90506106b481856110f8565b6106c38160008a8a8a8a611193565b6106cc816112a7565b5050505050505050565b6000818152609760205260408120546001811180156106f55750428111155b9392505050565b6000828152606560205260409020600101546107188133610fa5565b61072283836112e0565b505050565b60008181526097602052604081205481905b1192915050565b6001600160a01b03811633146107b55760405162461bcd60e51b815260206004820152602f60248201527f416363657373436f6e74726f6c3a2063616e206f6e6c792072656e6f756e636560448201526e103937b632b9903337b91039b2b63360891b60648201526084015b60405180910390fd5b6107bf8282611366565b5050565b306001600160a01b037f000000000000000000000000000000000000000000000000000000000000000016141561080c5760405162461bcd60e51b81526004016107ac90612205565b7f00000000000000000000000000000000000000000000000000000000000000006001600160a01b031661083e6113cd565b6001600160a01b0316146108645760405162461bcd60e51b81526004016107ac90612251565b61086d816113fb565b6040805160008082526020820190925261088991839190611425565b50565b306001600160a01b037f00000000000000000000000000000000000000000000000000000000000000001614156108d55760405162461bcd60e51b81526004016107ac90612205565b7f00000000000000000000000000000000000000000000000000000000000000006001600160a01b03166109076113cd565b6001600160a01b03161461092d5760405162461bcd60e51b81526004016107ac90612251565b610936826113fb565b6107bf82826001611425565b600081815260976020526040812054600190610739565b3330146109bc5760405162461bcd60e51b815260206004820152602b60248201527f54696d656c6f636b436f6e74726f6c6c65723a2063616c6c6572206d7573742060448201526a62652074696d656c6f636b60a81b60648201526084016107ac565b60985460408051918252602082018390527f11c24f4ead16507c69ac467fbd5e4eed5fb5c699626d2cc6d66421df253886d5910160405180910390a1609855565b60c9546001600160a01b03163314610a275760405162461bcd60e51b81526004016107ac9061229d565b610a316000611570565b565b600054610100900460ff16610a4e5760005460ff1615610a52565b303b155b610ab55760405162461bcd60e51b815260206004820152602e60248201527f496e697469616c697a61626c653a20636f6e747261637420697320616c72656160448201526d191e481a5b9a5d1a585b1a5e995960921b60648201526084016107ac565b600054610100900460ff16158015610ad7576000805461ffff19166101011790555b610ae28484846115c2565b610aea61160c565b610af2611643565b8015610b04576000805461ff00191690555b50505050565b6000868686868686604051602001610b27969594939291906121c8565b6040516020818303038152906040528051906020012090509695505050505050565b60008051602061273a833981519152610b628133610fa5565b888714610b815760405162461bcd60e51b81526004016107ac906122d2565b888514610ba05760405162461bcd60e51b81526004016107ac906122d2565b6000610bb28b8b8b8b8b8b8b8b610cb5565b9050610bbe8184611009565b60005b8a811015610c7c5780827f4cf4410cc57040e44862ef0f45f3dd5a5e02db8eb8add648d4b0e236f1d07dca8e8e85818110610bfe57610bfe612315565b9050602002016020810190610c139190611e0a565b8d8d86818110610c2557610c25612315565b905060200201358c8c87818110610c3e57610c3e612315565b9050602002810190610c50919061232b565b8c8b604051610c64969594939291906121c8565b60405180910390a3610c7581612387565b9050610bc1565b505050505050505050505050565b60009182526065602090815260408084206001600160a01b0393909316845291905290205460ff1690565b60008888888888888888604051602001610cd6989796959493929190612432565b60405160208183030381529060405280519060200120905098975050505050505050565b60008051602061273a833981519152610d138133610fa5565b610d1c82610942565b610d825760405162461bcd60e51b815260206004820152603160248201527f54696d656c6f636b436f6e74726f6c6c65723a206f7065726174696f6e2063616044820152701b9b9bdd0818994818d85b98d95b1b1959607a1b60648201526084016107ac565b6000828152609760205260408082208290555183917fbaa1eb22f2a492ba1a5fea61b8df4d27c6c8b5f3971e63bb58fa14ff72eedb7091a25050565b600082815260656020526040902060010154610dda8133610fa5565b6107228383611366565b60008051602061275a833981519152610dfe816000610c8a565b610e0c57610e0c8133610fa5565b878614610e2b5760405162461bcd60e51b81526004016107ac906122d2565b878414610e4a5760405162461bcd60e51b81526004016107ac906122d2565b6000610e5c8a8a8a8a8a8a8a8a610cb5565b9050610e6881856110f8565b60005b89811015610ef157610ee182828d8d85818110610e8a57610e8a612315565b9050602002016020810190610e9f9190611e0a565b8c8c86818110610eb157610eb1612315565b905060200201358b8b87818110610eca57610eca612315565b9050602002810190610edc919061232b565b611193565b610eea81612387565b9050610e6b565b50610efb816112a7565b50505050505050505050565b60c9546001600160a01b03163314610f315760405162461bcd60e51b81526004016107ac9061229d565b6001600160a01b038116610f965760405162461bcd60e51b815260206004820152602660248201527f4f776e61626c653a206e6577206f776e657220697320746865207a65726f206160448201526564647265737360d01b60648201526084016107ac565b61088981611570565b3b151590565b610faf8282610c8a565b6107bf57610fc7816001600160a01b0316601461167a565b610fd283602061167a565b604051602001610fe3929190612509565b60408051601f198184030181529082905262461bcd60e51b82526107ac9160040161257e565b61101282610727565b156110775760405162461bcd60e51b815260206004820152602f60248201527f54696d656c6f636b436f6e74726f6c6c65723a206f7065726174696f6e20616c60448201526e1c9958591e481cd8da19591d5b1959608a1b60648201526084016107ac565b6098548110156110d85760405162461bcd60e51b815260206004820152602660248201527f54696d656c6f636b436f6e74726f6c6c65723a20696e73756666696369656e746044820152652064656c617960d01b60648201526084016107ac565b6110e281426125b1565b6000928352609760205260409092209190915550565b611101826106d6565b61111d5760405162461bcd60e51b81526004016107ac906125c9565b80158061113857506000818152609760205260409020546001145b6107bf5760405162461bcd60e51b815260206004820152602660248201527f54696d656c6f636b436f6e74726f6c6c65723a206d697373696e6720646570656044820152656e64656e637960d01b60648201526084016107ac565b6000846001600160a01b03168484846040516111b0929190612613565b60006040518083038185875af1925050503d80600081146111ed576040519150601f19603f3d011682016040523d82523d6000602084013e6111f2565b606091505b505090508061125f5760405162461bcd60e51b815260206004820152603360248201527f54696d656c6f636b436f6e74726f6c6c65723a20756e6465726c79696e6720746044820152721c985b9cd858dd1a5bdb881c995d995c9d1959606a1b60648201526084016107ac565b85877fc2617efa69bab66782fa219543714338489c4e9e178271560a91b82c3f612b58878787876040516112969493929190612623565b60405180910390a350505050505050565b6112b0816106d6565b6112cc5760405162461bcd60e51b81526004016107ac906125c9565b600090815260976020526040902060019055565b6112ea8282610c8a565b6107bf5760008281526065602090815260408083206001600160a01b03851684529091529020805460ff191660011790556113223390565b6001600160a01b0316816001600160a01b0316837f2f8788117e7eff1d82e926ec794901d17c78024a50270940304540a733656f0d60405160405180910390a45050565b6113708282610c8a565b156107bf5760008281526065602090815260408083206001600160a01b0385168085529252808320805460ff1916905551339285917ff6391f5c32d9c69d2a47ea670b442974b53935d1edc7fd64eb21e047a839171b9190a45050565b7f360894a13ba1a3210667c828492db98dca3e2076cc3735a920a3ca505d382bbc546001600160a01b031690565b60c9546001600160a01b031633146108895760405162461bcd60e51b81526004016107ac9061229d565b600061142f6113cd565b905061143a84611815565b6000835111806114475750815b156114585761145684846118ba565b505b7f4910fdfa16fed3260ed0e7147f7cc6da11a60208b5b9406d12a635614ffd9143805460ff1661156957805460ff191660011781556040516001600160a01b03831660248201526114d790869060440160408051601f198184030181529190526020810180516001600160e01b0316631b2ce7f360e11b1790526118ba565b50805460ff191681556114e86113cd565b6001600160a01b0316826001600160a01b0316146115605760405162461bcd60e51b815260206004820152602f60248201527f45524331393637557067726164653a207570677261646520627265616b73206660448201526e75727468657220757067726164657360881b60648201526084016107ac565b611569856119a5565b5050505050565b60c980546001600160a01b038381166001600160a01b0319831681179093556040519116919082907f8be0079c531659141344cd1fd0a4f28419497f9722a3daafe3b4186f6b6457e090600090a35050565b600054610100900460ff166115e95760405162461bcd60e51b81526004016107ac90612655565b6115f16119e5565b6115f96119e5565b6116016119e5565b610722838383611a0c565b600054610100900460ff166116335760405162461bcd60e51b81526004016107ac90612655565b61163b6119e5565b610a31611b9a565b600054610100900460ff1661166a5760405162461bcd60e51b81526004016107ac90612655565b6116726119e5565b610a316119e5565b606060006116898360026126a0565b6116949060026125b1565b6001600160401b038111156116ab576116ab611e25565b6040519080825280601f01601f1916602001820160405280156116d5576020820181803683370190505b509050600360fc1b816000815181106116f0576116f0612315565b60200101906001600160f81b031916908160001a905350600f60fb1b8160018151811061171f5761171f612315565b60200101906001600160f81b031916908160001a90535060006117438460026126a0565b61174e9060016125b1565b90505b60018111156117c6576f181899199a1a9b1b9c1cb0b131b232b360811b85600f166010811061178257611782612315565b1a60f81b82828151811061179857611798612315565b60200101906001600160f81b031916908160001a90535060049490941c936117bf816126bf565b9050611751565b5083156106f55760405162461bcd60e51b815260206004820181905260248201527f537472696e67733a20686578206c656e67746820696e73756666696369656e7460448201526064016107ac565b803b6118795760405162461bcd60e51b815260206004820152602d60248201527f455243313936373a206e657720696d706c656d656e746174696f6e206973206e60448201526c1bdd08184818dbdb9d1c9858dd609a1b60648201526084016107ac565b7f360894a13ba1a3210667c828492db98dca3e2076cc3735a920a3ca505d382bbc80546001600160a01b0319166001600160a01b0392909216919091179055565b6060823b6119195760405162461bcd60e51b815260206004820152602660248201527f416464726573733a2064656c65676174652063616c6c20746f206e6f6e2d636f6044820152651b9d1c9858dd60d21b60648201526084016107ac565b600080846001600160a01b03168460405161193491906126d6565b600060405180830381855af49150503d806000811461196f576040519150601f19603f3d011682016040523d82523d6000602084013e611974565b606091505b509150915061199c828260405180606001604052806027815260200161271360279139611bca565b95945050505050565b6119ae81611815565b6040516001600160a01b038216907fbc7cd75a20ee27fd9adebab32041f755214dbc6bffa90cc0225b39da2e5c2d3b90600090a250565b600054610100900460ff16610a315760405162461bcd60e51b81526004016107ac90612655565b600054610100900460ff16611a335760405162461bcd60e51b81526004016107ac90612655565b611a4b6000805160206126f383398151915280611c03565b611a7160008051602061273a8339815191526000805160206126f3833981519152611c03565b611a9760008051602061275a8339815191526000805160206126f3833981519152611c03565b611aaf6000805160206126f383398151915233611c4e565b611ac76000805160206126f383398151915230611c4e565b60005b8251811015611b1457611b0460008051602061273a833981519152848381518110611af757611af7612315565b6020026020010151611c4e565b611b0d81612387565b9050611aca565b5060005b8151811015611b5557611b4560008051602061275a833981519152838381518110611af757611af7612315565b611b4e81612387565b9050611b18565b5060988390556040805160008152602081018590527f11c24f4ead16507c69ac467fbd5e4eed5fb5c699626d2cc6d66421df253886d5910160405180910390a1505050565b600054610100900460ff16611bc15760405162461bcd60e51b81526004016107ac90612655565b610a3133611570565b60608315611bd95750816106f5565b825115611be95782518084602001fd5b8160405162461bcd60e51b81526004016107ac919061257e565b600082815260656020526040808220600101805490849055905190918391839186917fbd79b86ffe0ab8e8776151514217cd7cacd52c909f66475c3af44e129f0b00ff9190a4505050565b6107bf82826112e0565b80356001600160a01b0381168114611c6f57600080fd5b919050565b60008083601f840112611c8657600080fd5b5081356001600160401b03811115611c9d57600080fd5b602083019150836020828501011115611cb557600080fd5b9250929050565b600080600080600080600060c0888a031215611cd757600080fd5b611ce088611c58565b96506020880135955060408801356001600160401b03811115611d0257600080fd5b611d0e8a828b01611c74565b989b979a50986060810135976080820135975060a09091013595509350505050565b600060208284031215611d4257600080fd5b81356001600160e01b0319811681146106f557600080fd5b60008060008060008060a08789031215611d7357600080fd5b611d7c87611c58565b95506020870135945060408701356001600160401b03811115611d9e57600080fd5b611daa89828a01611c74565b979a9699509760608101359660809091013595509350505050565b600060208284031215611dd757600080fd5b5035919050565b60008060408385031215611df157600080fd5b82359150611e0160208401611c58565b90509250929050565b600060208284031215611e1c57600080fd5b6106f582611c58565b634e487b7160e01b600052604160045260246000fd5b604051601f8201601f191681016001600160401b0381118282101715611e6357611e63611e25565b604052919050565b60008060408385031215611e7e57600080fd5b611e8783611c58565b91506020808401356001600160401b0380821115611ea457600080fd5b818601915086601f830112611eb857600080fd5b813581811115611eca57611eca611e25565b611edc601f8201601f19168501611e3b565b91508082528784828501011115611ef257600080fd5b80848401858401376000848284010152508093505050509250929050565b600082601f830112611f2157600080fd5b813560206001600160401b03821115611f3c57611f3c611e25565b8160051b611f4b828201611e3b565b9283528481018201928281019087851115611f6557600080fd5b83870192505b84831015611f8b57611f7c83611c58565b82529183019190830190611f6b565b979650505050505050565b600080600060608486031215611fab57600080fd5b8335925060208401356001600160401b0380821115611fc957600080fd5b611fd587838801611f10565b93506040860135915080821115611feb57600080fd5b50611ff886828701611f10565b9150509250925092565b60008083601f84011261201457600080fd5b5081356001600160401b0381111561202b57600080fd5b6020830191508360208260051b8501011115611cb557600080fd5b600080600080600080600080600060c08a8c03121561206457600080fd5b89356001600160401b038082111561207b57600080fd5b6120878d838e01612002565b909b50995060208c01359150808211156120a057600080fd5b6120ac8d838e01612002565b909950975060408c01359150808211156120c557600080fd5b506120d28c828d01612002565b9a9d999c50979a969997986060880135976080810135975060a0013595509350505050565b60008060008060008060008060a0898b03121561211357600080fd5b88356001600160401b038082111561212a57600080fd5b6121368c838d01612002565b909a50985060208b013591508082111561214f57600080fd5b61215b8c838d01612002565b909850965060408b013591508082111561217457600080fd5b506121818b828c01612002565b999c989b509699959896976060870135966080013595509350505050565b81835281816020850137506000828201602090810191909152601f909101601f19169091010190565b60018060a01b038716815285602082015260a0604082015260006121f060a08301868861219f565b60608301949094525060800152949350505050565b6020808252602c908201527f46756e6374696f6e206d7573742062652063616c6c6564207468726f7567682060408201526b19195b1959d85d1958d85b1b60a21b606082015260800190565b6020808252602c908201527f46756e6374696f6e206d7573742062652063616c6c6564207468726f7567682060408201526b6163746976652070726f787960a01b606082015260800190565b6020808252818101527f4f776e61626c653a2063616c6c6572206973206e6f7420746865206f776e6572604082015260600190565b60208082526023908201527f54696d656c6f636b436f6e74726f6c6c65723a206c656e677468206d69736d616040820152620e8c6d60eb1b606082015260800190565b634e487b7160e01b600052603260045260246000fd5b6000808335601e1984360301811261234257600080fd5b8301803591506001600160401b0382111561235c57600080fd5b602001915036819003821315611cb557600080fd5b634e487b7160e01b600052601160045260246000fd5b600060001982141561239b5761239b612371565b5060010190565b81835260006020808501808196508560051b810191508460005b878110156124255782840389528135601e198836030181126123dd57600080fd5b870180356001600160401b038111156123f557600080fd5b80360389131561240457600080fd5b612411868289850161219f565b9a87019a95505050908401906001016123bc565b5091979650505050505050565b60a0808252810188905260008960c08301825b8b811015612473576001600160a01b0361245e84611c58565b16825260209283019290910190600101612445565b5083810360208501528881526001600160fb1b0389111561249357600080fd5b8860051b9150818a6020830137818101915050602081016000815260208483030160408501526124c481888a6123a2565b6060850196909652505050608001529695505050505050565b60005b838110156124f85781810151838201526020016124e0565b83811115610b045750506000910152565b7f416363657373436f6e74726f6c3a206163636f756e74200000000000000000008152600083516125418160178501602088016124dd565b7001034b99036b4b9b9b4b733903937b6329607d1b60179184019182015283516125728160288401602088016124dd565b01602801949350505050565b602081526000825180602084015261259d8160408501602087016124dd565b601f01601f19169190910160400192915050565b600082198211156125c4576125c4612371565b500190565b6020808252602a908201527f54696d656c6f636b436f6e74726f6c6c65723a206f7065726174696f6e206973604082015269206e6f7420726561647960b01b606082015260800190565b8183823760009101908152919050565b60018060a01b038516815283602082015260606040820152600061264b60608301848661219f565b9695505050505050565b6020808252602b908201527f496e697469616c697a61626c653a20636f6e7472616374206973206e6f74206960408201526a6e697469616c697a696e6760a81b606082015260800190565b60008160001904831182151516156126ba576126ba612371565b500290565b6000816126ce576126ce612371565b506000190190565b600082516126e88184602087016124dd565b919091019291505056fe5f58e3a2316349923ce3780f8d587db2d72378aed66a8261c916544fa6846ca5416464726573733a206c6f772d6c6576656c2064656c65676174652063616c6c206661696c6564b09aa5aeb3702cfd50b6b62bc4532604938f21248a27a1d5ca736082b6819cc1d8aa0f3194971a2a116679f7c2090f6939c8d4e01a2a8d7e41d55e5351469e63a26469706673582212201225e1bea51e144ad8be038fc5c30b47772d7a9c97f1558d7ed90f1c75b8994264736f6c634300080b0033",
  "linkReferences": {},
  "deployedLinkReferences": {}
}