{
  "_format": "hh-sol-artifact-1",
  "contractName": "RunnerRegistry",
  "sourceName": "contracts/RunnerRegistry.sol",
  "abi": [
    {
      "anonymous": false,
      "inputs": [
        {
          "indexed": false,
          "internalType": "address",
          "name": "previousAdmin",
          "type": "address"
        },
        {
          "indexed": false,
          "internalType": "address",
          "name": "newAdmin",
          "type": "address"
        }
      ],
      "name": "AdminChanged",
      "type": "event"
    },
    {
      "anonymous": false,
      "inputs": [
        {
          "indexed": true,
          "internalType": "address",
          "name": "beacon",
          "type": "address"
        }
      ],
      "name": "BeaconUpgraded",
      "type": "event"
    },
    {
      "anonymous": false,
      "inputs": [
        {
          "indexed": true,
          "internalType": "address",
          "name": "previousOwner",
          "type": "address"
        },
        {
          "indexed": true,
          "internalType": "address",
          "name": "newOwner",
          "type": "address"
        }
      ],
      "name": "OwnershipTransferred",
      "type": "event"
    },
    {
      "anonymous": false,
      "inputs": [
        {
          "indexed": false,
          "internalType": "address",
          "name": "runner",
          "type": "address"
        },
        {
          "indexed": false,
          "internalType": "uint256",
          "name": "amount",
          "type": "uint256"
        }
      ],
      "name": "RunnerAmountChanged",
      "type": "event"
    },
    {
      "anonymous": false,
      "inputs": [
        {
          "indexed": true,
          "internalType": "address",
          "name": "implementation",
          "type": "address"
        }
      ],
      "name": "Upgraded",
      "type": "event"
    },
    {
      "inputs": [
        {
          "internalType": "uint256",
          "name": "_amount",
          "type": "uint256"
        }
      ],
      "name": "bond",
      "outputs": [],
      "stateMutability": "nonpayable",
      "type": "function"
    },
    {
      "inputs": [],
      "name": "bondAmount",
      "outputs": [
        {
          "internalType": "uint256",
          "name": "",
          "type": "uint256"
        }
      ],
      "stateMutability": "view",
      "type": "function"
    },
    {
      "inputs": [],
      "name": "bondToken",
      "outputs": [
        {
          "internalType": "contract IERC20",
          "name": "",
          "type": "address"
        }
      ],
      "stateMutability": "view",
      "type": "function"
    },
    {
      "inputs": [],
      "name": "freeCoin",
      "outputs": [
        {
          "internalType": "uint256",
          "name": "",
          "type": "uint256"
        }
      ],
      "stateMutability": "view",
      "type": "function"
    },
    {
      "inputs": [
        {
          "internalType": "address",
          "name": "_keeperRegistry",
          "type": "address"
        },
        {
          "internalType": "uint256",
          "name": "_bondAmount",
          "type": "uint256"
        },
        {
          "internalType": "address",
          "name": "_bondToken",
          "type": "address"
        }
      ],
      "name": "initialize",
      "outputs": [],
      "stateMutability": "nonpayable",
      "type": "function"
    },
    {
      "inputs": [
        {
          "internalType": "address",
          "name": "_runner",
          "type": "address"
        }
      ],
      "name": "isRunner",
      "outputs": [
        {
          "internalType": "bool",
          "name": "",
          "type": "bool"
        }
      ],
      "stateMutability": "view",
      "type": "function"
    },
    {
      "inputs": [],
      "name": "keeperRegistry",
      "outputs": [
        {
          "internalType": "contract KeeperRegistry",
          "name": "",
          "type": "address"
        }
      ],
      "stateMutability": "view",
      "type": "function"
    },
    {
      "inputs": [],
      "name": "owner",
      "outputs": [
        {
          "internalType": "address",
          "name": "",
          "type": "address"
        }
      ],
      "stateMutability": "view",
      "type": "function"
    },
    {
      "inputs": [],
      "name": "renounceOwnership",
      "outputs": [],
      "stateMutability": "nonpayable",
      "type": "function"
    },
    {
      "inputs": [
        {
          "internalType": "address",
          "name": "",
          "type": "address"
        }
      ],
      "name": "runners",
      "outputs": [
        {
          "internalType": "uint256",
          "name": "",
          "type": "uint256"
        }
      ],
      "stateMutability": "view",
      "type": "function"
    },
    {
      "inputs": [
        {
          "internalType": "address",
          "name": "_runner",
          "type": "address"
        },
        {
          "internalType": "uint256",
          "name": "_amount",
          "type": "uint256"
        }
      ],
      "name": "slash",
      "outputs": [],
      "stateMutability": "nonpayable",
      "type": "function"
    },
    {
      "inputs": [
        {
          "internalType": "address",
          "name": "newOwner",
          "type": "address"
        }
      ],
      "name": "transferOwnership",
      "outputs": [],
      "stateMutability": "nonpayable",
      "type": "function"
    },
    {
      "inputs": [
        {
          "internalType": "uint256",
          "name": "_amount",
          "type": "uint256"
        }
      ],
      "name": "unbond",
      "outputs": [],
      "stateMutability": "nonpayable",
      "type": "function"
    },
    {
      "inputs": [
        {
          "internalType": "address",
          "name": "newImplementation",
          "type": "address"
        }
      ],
      "name": "upgradeTo",
      "outputs": [],
      "stateMutability": "nonpayable",
      "type": "function"
    },
    {
      "inputs": [
        {
          "internalType": "address",
          "name": "newImplementation",
          "type": "address"
        },
        {
          "internalType": "bytes",
          "name": "data",
          "type": "bytes"
        }
      ],
      "name": "upgradeToAndCall",
      "outputs": [],
      "stateMutability": "payable",
      "type": "function"
    },
    {
      "inputs": [
        {
          "internalType": "uint256",
          "name": "amount",
          "type": "uint256"
        }
      ],
      "name": "withdrawFreeCoin",
      "outputs": [],
      "stateMutability": "nonpayable",
      "type": "function"
    }
  ],
  "bytecode": "0x60a06040523060805234801561001457600080fd5b5060805161137e610045600039600081816105b0015281816105f00152818161067901526106b9015261137e6000f3fe6080604052600436106100f35760003560e01c806383e227741161008a578063c28f439211610059578063c28f4392146102b1578063c350a1b5146102d1578063dcb77c76146102f1578063f2fde38b1461031157600080fd5b806383e22774146101ee5780638da5cb5b146102265780639940686e14610244578063a78f8bd61461026457600080fd5b80634f1ef286116100c65780634f1ef2861461019a5780635bc38359146101ad578063715018a6146101c357806380f323a7146101d857600080fd5b806302fb4d85146100f857806327de9e321461011a578063347bec081461013a5780633659cfe61461017a575b600080fd5b34801561010457600080fd5b50610118610113366004610f76565b610331565b005b34801561012657600080fd5b50610118610135366004610fa0565b610430565b34801561014657600080fd5b50610167610155366004610fb9565b60c96020526000908152604090205481565b6040519081526020015b60405180910390f35b34801561018657600080fd5b50610118610195366004610fb9565b6105a5565b6101186101a8366004610fea565b61066e565b3480156101b957600080fd5b5061016760cc5481565b3480156101cf57600080fd5b50610118610724565b3480156101e457600080fd5b5061016760ca5481565b3480156101fa57600080fd5b5060cd5461020e906001600160a01b031681565b6040516001600160a01b039091168152602001610171565b34801561023257600080fd5b506097546001600160a01b031661020e565b34801561025057600080fd5b5061011861025f366004610fa0565b61075a565b34801561027057600080fd5b506102a161027f366004610fb9565b60ca546001600160a01b03909116600090815260c96020526040902054101590565b6040519015158152602001610171565b3480156102bd57600080fd5b5060cb5461020e906001600160a01b031681565b3480156102dd57600080fd5b506101186102ec3660046110ac565b61087f565b3480156102fd57600080fd5b5061011861030c366004610fa0565b610980565b34801561031d57600080fd5b5061011861032c366004610fb9565b6109f8565b60cd546040516335d2155560e11b81523360048201526001600160a01b0390911690636ba42aaa90602401602060405180830381865afa158015610379573d6000803e3d6000fd5b505050506040513d601f19601f8201168201806040525081019061039d91906110e8565b6103e65760405162461bcd60e51b815260206004820152601560248201527409edcd8f240d6cacae0cae440c6c2dc40e6d8c2e6d605b1b60448201526064015b60405180910390fd5b6001600160a01b038216600090815260c960205260408120805483929061040e908490611120565b925050819055508060cc60008282546104279190611137565b90915550505050565b33600090815260c9602052604081205461044b90839061114f565b12156104bf5760405162461bcd60e51b815260206004820152603760248201527f426f6e64656420616d6f756e74206d7573742062652062656c6f7720746f746160448201527f6c20626f6e64656420616d6f756e74206279207573657200000000000000000060648201526084016103dd565b33600090815260c96020526040812080548392906104de908490611120565b909155505033600081815260c96020908152604091829020548251938452908301527fd0a780f73437d8afeb5faed6db9312f1b18eb41afa8b3df7cade5bd72b14bcd8910160405180910390a160cb5460405163a9059cbb60e01b8152336004820152602481018390526001600160a01b039091169063a9059cbb906044015b6020604051808303816000875af115801561057d573d6000803e3d6000fd5b505050506040513d601f19601f820116820180604052508101906105a191906110e8565b5050565b306001600160a01b037f00000000000000000000000000000000000000000000000000000000000000001614156105ee5760405162461bcd60e51b81526004016103dd9061118e565b7f00000000000000000000000000000000000000000000000000000000000000006001600160a01b0316610620610a90565b6001600160a01b0316146106465760405162461bcd60e51b81526004016103dd906111da565b61064f81610abe565b6040805160008082526020820190925261066b91839190610ae8565b50565b306001600160a01b037f00000000000000000000000000000000000000000000000000000000000000001614156106b75760405162461bcd60e51b81526004016103dd9061118e565b7f00000000000000000000000000000000000000000000000000000000000000006001600160a01b03166106e9610a90565b6001600160a01b03161461070f5760405162461bcd60e51b81526004016103dd906111da565b61071882610abe565b6105a182826001610ae8565b6097546001600160a01b0316331461074e5760405162461bcd60e51b81526004016103dd90611226565b6107586000610c33565b565b60ca5433600090815260c96020526040902054610778908390611137565b10156107d65760405162461bcd60e51b815260206004820152602760248201527f426f6e64656420616d6f756e74206d7573742062652061626f766520746865206044820152666d696e696d756d60c81b60648201526084016103dd565b33600090815260c96020526040812080548392906107f5908490611137565b909155505033600081815260c96020908152604091829020548251938452908301527fd0a780f73437d8afeb5faed6db9312f1b18eb41afa8b3df7cade5bd72b14bcd8910160405180910390a160cb546040516323b872dd60e01b8152336004820152306024820152604481018390526001600160a01b03909116906323b872dd9060640161055e565b600054610100900460ff1661089a5760005460ff161561089e565b303b155b6109015760405162461bcd60e51b815260206004820152602e60248201527f496e697469616c697a61626c653a20636f6e747261637420697320616c72656160448201526d191e481a5b9a5d1a585b1a5e995960921b60648201526084016103dd565b600054610100900460ff16158015610923576000805461ffff19166101011790555b61092b610c85565b610933610cbc565b60cd80546001600160a01b038087166001600160a01b03199283161790925560ca85905560cb805492851692909116919091179055801561097a576000805461ff00191690555b50505050565b6097546001600160a01b031633146109aa5760405162461bcd60e51b81526004016103dd90611226565b8060cc60008282546109bc9190611120565b909155505060cb5460405163a9059cbb60e01b8152336004820152602481018390526001600160a01b039091169063a9059cbb9060440161055e565b6097546001600160a01b03163314610a225760405162461bcd60e51b81526004016103dd90611226565b6001600160a01b038116610a875760405162461bcd60e51b815260206004820152602660248201527f4f776e61626c653a206e6577206f776e657220697320746865207a65726f206160448201526564647265737360d01b60648201526084016103dd565b61066b81610c33565b7f360894a13ba1a3210667c828492db98dca3e2076cc3735a920a3ca505d382bbc546001600160a01b031690565b6097546001600160a01b0316331461066b5760405162461bcd60e51b81526004016103dd90611226565b6000610af2610a90565b9050610afd84610cf3565b600083511180610b0a5750815b15610b1b57610b198484610d98565b505b7f4910fdfa16fed3260ed0e7147f7cc6da11a60208b5b9406d12a635614ffd9143805460ff16610c2c57805460ff191660011781556040516001600160a01b0383166024820152610b9a90869060440160408051601f198184030181529190526020810180516001600160e01b0316631b2ce7f360e11b179052610d98565b50805460ff19168155610bab610a90565b6001600160a01b0316826001600160a01b031614610c235760405162461bcd60e51b815260206004820152602f60248201527f45524331393637557067726164653a207570677261646520627265616b73206660448201526e75727468657220757067726164657360881b60648201526084016103dd565b610c2c85610e83565b5050505050565b609780546001600160a01b038381166001600160a01b0319831681179093556040519116919082907f8be0079c531659141344cd1fd0a4f28419497f9722a3daafe3b4186f6b6457e090600090a35050565b600054610100900460ff16610cac5760405162461bcd60e51b81526004016103dd9061125b565b610cb4610ec3565b610758610ec3565b600054610100900460ff16610ce35760405162461bcd60e51b81526004016103dd9061125b565b610ceb610ec3565b610758610eea565b803b610d575760405162461bcd60e51b815260206004820152602d60248201527f455243313936373a206e657720696d706c656d656e746174696f6e206973206e60448201526c1bdd08184818dbdb9d1c9858dd609a1b60648201526084016103dd565b7f360894a13ba1a3210667c828492db98dca3e2076cc3735a920a3ca505d382bbc80546001600160a01b0319166001600160a01b0392909216919091179055565b6060823b610df75760405162461bcd60e51b815260206004820152602660248201527f416464726573733a2064656c65676174652063616c6c20746f206e6f6e2d636f6044820152651b9d1c9858dd60d21b60648201526084016103dd565b600080846001600160a01b031684604051610e1291906112d2565b600060405180830381855af49150503d8060008114610e4d576040519150601f19603f3d011682016040523d82523d6000602084013e610e52565b606091505b5091509150610e7a828260405180606001604052806027815260200161132260279139610f1a565b95945050505050565b610e8c81610cf3565b6040516001600160a01b038216907fbc7cd75a20ee27fd9adebab32041f755214dbc6bffa90cc0225b39da2e5c2d3b90600090a250565b600054610100900460ff166107585760405162461bcd60e51b81526004016103dd9061125b565b600054610100900460ff16610f115760405162461bcd60e51b81526004016103dd9061125b565b61075833610c33565b60608315610f29575081610f53565b825115610f395782518084602001fd5b8160405162461bcd60e51b81526004016103dd91906112ee565b9392505050565b80356001600160a01b0381168114610f7157600080fd5b919050565b60008060408385031215610f8957600080fd5b610f9283610f5a565b946020939093013593505050565b600060208284031215610fb257600080fd5b5035919050565b600060208284031215610fcb57600080fd5b610f5382610f5a565b634e487b7160e01b600052604160045260246000fd5b60008060408385031215610ffd57600080fd5b61100683610f5a565b9150602083013567ffffffffffffffff8082111561102357600080fd5b818501915085601f83011261103757600080fd5b81358181111561104957611049610fd4565b604051601f8201601f19908116603f0116810190838211818310171561107157611071610fd4565b8160405282815288602084870101111561108a57600080fd5b8260208601602083013760006020848301015280955050505050509250929050565b6000806000606084860312156110c157600080fd5b6110ca84610f5a565b9250602084013591506110df60408501610f5a565b90509250925092565b6000602082840312156110fa57600080fd5b81518015158114610f5357600080fd5b634e487b7160e01b600052601160045260246000fd5b6000828210156111325761113261110a565b500390565b6000821982111561114a5761114a61110a565b500190565b60008083128015600160ff1b85018412161561116d5761116d61110a565b6001600160ff1b03840183138116156111885761118861110a565b50500390565b6020808252602c908201527f46756e6374696f6e206d7573742062652063616c6c6564207468726f7567682060408201526b19195b1959d85d1958d85b1b60a21b606082015260800190565b6020808252602c908201527f46756e6374696f6e206d7573742062652063616c6c6564207468726f7567682060408201526b6163746976652070726f787960a01b606082015260800190565b6020808252818101527f4f776e61626c653a2063616c6c6572206973206e6f7420746865206f776e6572604082015260600190565b6020808252602b908201527f496e697469616c697a61626c653a20636f6e7472616374206973206e6f74206960408201526a6e697469616c697a696e6760a81b606082015260800190565b60005b838110156112c15781810151838201526020016112a9565b8381111561097a5750506000910152565b600082516112e48184602087016112a6565b9190910192915050565b602081526000825180602084015261130d8160408501602087016112a6565b601f01601f1916919091016040019291505056fe416464726573733a206c6f772d6c6576656c2064656c65676174652063616c6c206661696c6564a2646970667358221220940469c114b11c9c6e3dab7c83c70d7fa72232f39704c8e1868f13f8bd6ea5e864736f6c634300080b0033",
  "linkReferences": {},
  "deployedLinkReferences": {}
}