{
  "_format": "hh-sol-artifact-1",
  "contractName": "L2orchestrator",
  "sourceName": "contracts/L2orchestrator.sol",
  "abi": [
    {
      "anonymous": false,
      "inputs": [
        {
          "indexed": false,
          "internalType": "address",
          "name": "previousAdmin",
          "type": "address"
        },
        {
          "indexed": false,
          "internalType": "address",
          "name": "newAdmin",
          "type": "address"
        }
      ],
      "name": "AdminChanged",
      "type": "event"
    },
    {
      "anonymous": false,
      "inputs": [
        {
          "indexed": true,
          "internalType": "address",
          "name": "beacon",
          "type": "address"
        }
      ],
      "name": "BeaconUpgraded",
      "type": "event"
    },
    {
      "anonymous": false,
      "inputs": [
        {
          "indexed": false,
          "internalType": "uint256",
          "name": "requestId",
          "type": "uint256"
        },
        {
          "indexed": false,
          "internalType": "bytes32",
          "name": "hash",
          "type": "bytes32"
        }
      ],
      "name": "ExecutedHashChangeRequestRequest",
      "type": "event"
    },
    {
      "anonymous": false,
      "inputs": [
        {
          "indexed": true,
          "internalType": "address",
          "name": "previousOwner",
          "type": "address"
        },
        {
          "indexed": true,
          "internalType": "address",
          "name": "newOwner",
          "type": "address"
        }
      ],
      "name": "OwnershipTransferred",
      "type": "event"
    },
    {
      "anonymous": false,
      "inputs": [
        {
          "indexed": true,
          "internalType": "address",
          "name": "implementation",
          "type": "address"
        }
      ],
      "name": "Upgraded",
      "type": "event"
    },
    {
      "inputs": [],
      "name": "Reward",
      "outputs": [
        {
          "internalType": "contract L2rewards",
          "name": "",
          "type": "address"
        }
      ],
      "stateMutability": "view",
      "type": "function"
    },
    {
      "inputs": [],
      "name": "actionThresholdPercent",
      "outputs": [
        {
          "internalType": "uint256",
          "name": "",
          "type": "uint256"
        }
      ],
      "stateMutability": "view",
      "type": "function"
    },
    {
      "inputs": [
        {
          "internalType": "uint256",
          "name": "_hashId",
          "type": "uint256"
        },
        {
          "internalType": "uint8",
          "name": "approved",
          "type": "uint8"
        }
      ],
      "name": "approveHashChangeRequest",
      "outputs": [],
      "stateMutability": "nonpayable",
      "type": "function"
    },
    {
      "inputs": [
        {
          "internalType": "bytes32",
          "name": "_hash",
          "type": "bytes32"
        }
      ],
      "name": "createHashChangeRequest",
      "outputs": [
        {
          "internalType": "uint256",
          "name": "",
          "type": "uint256"
        }
      ],
      "stateMutability": "nonpayable",
      "type": "function"
    },
    {
      "inputs": [],
      "name": "currentHashID",
      "outputs": [
        {
          "internalType": "uint256",
          "name": "",
          "type": "uint256"
        }
      ],
      "stateMutability": "view",
      "type": "function"
    },
    {
      "inputs": [
        {
          "internalType": "uint256",
          "name": "_hashId",
          "type": "uint256"
        }
      ],
      "name": "executeHashChangeRequest",
      "outputs": [
        {
          "internalType": "enum L2orchestrator.State",
          "name": "",
          "type": "uint8"
        }
      ],
      "stateMutability": "nonpayable",
      "type": "function"
    },
    {
      "inputs": [
        {
          "internalType": "uint256",
          "name": "",
          "type": "uint256"
        },
        {
          "internalType": "address",
          "name": "",
          "type": "address"
        }
      ],
      "name": "hashChangeApprovals",
      "outputs": [
        {
          "internalType": "uint8",
          "name": "",
          "type": "uint8"
        }
      ],
      "stateMutability": "view",
      "type": "function"
    },
    {
      "inputs": [
        {
          "internalType": "uint256",
          "name": "",
          "type": "uint256"
        }
      ],
      "name": "hashChangeRequests",
      "outputs": [
        {
          "internalType": "bytes32",
          "name": "hash",
          "type": "bytes32"
        },
        {
          "internalType": "enum L2orchestrator.State",
          "name": "state",
          "type": "uint8"
        }
      ],
      "stateMutability": "view",
      "type": "function"
    },
    {
      "inputs": [
        {
          "internalType": "address",
          "name": "_keeperRegistry",
          "type": "address"
        },
        {
          "internalType": "address",
          "name": "_L2RewarderAddress",
          "type": "address"
        }
      ],
      "name": "initialize",
      "outputs": [],
      "stateMutability": "nonpayable",
      "type": "function"
    },
    {
      "inputs": [
        {
          "internalType": "uint256",
          "name": "hashId",
          "type": "uint256"
        }
      ],
      "name": "isHashChangeRequestApproved",
      "outputs": [
        {
          "internalType": "uint8",
          "name": "",
          "type": "uint8"
        }
      ],
      "stateMutability": "view",
      "type": "function"
    },
    {
      "inputs": [
        {
          "internalType": "uint256",
          "name": "hashId",
          "type": "uint256"
        },
        {
          "internalType": "address",
          "name": "member",
          "type": "address"
        }
      ],
      "name": "isHashChangeRequestApprovedByUser",
      "outputs": [
        {
          "internalType": "bool",
          "name": "",
          "type": "bool"
        }
      ],
      "stateMutability": "view",
      "type": "function"
    },
    {
      "inputs": [],
      "name": "keeperRegistry",
      "outputs": [
        {
          "internalType": "contract KeeperRegistry",
          "name": "",
          "type": "address"
        }
      ],
      "stateMutability": "view",
      "type": "function"
    },
    {
      "inputs": [],
      "name": "lastExecutedHashId",
      "outputs": [
        {
          "internalType": "uint256",
          "name": "",
          "type": "uint256"
        }
      ],
      "stateMutability": "view",
      "type": "function"
    },
    {
      "inputs": [],
      "name": "owner",
      "outputs": [
        {
          "internalType": "address",
          "name": "",
          "type": "address"
        }
      ],
      "stateMutability": "view",
      "type": "function"
    },
    {
      "inputs": [],
      "name": "renounceOwnership",
      "outputs": [],
      "stateMutability": "nonpayable",
      "type": "function"
    },
    {
      "inputs": [
        {
          "internalType": "address",
          "name": "newOwner",
          "type": "address"
        }
      ],
      "name": "transferOwnership",
      "outputs": [],
      "stateMutability": "nonpayable",
      "type": "function"
    },
    {
      "inputs": [
        {
          "internalType": "address",
          "name": "newImplementation",
          "type": "address"
        }
      ],
      "name": "upgradeTo",
      "outputs": [],
      "stateMutability": "nonpayable",
      "type": "function"
    },
    {
      "inputs": [
        {
          "internalType": "address",
          "name": "newImplementation",
          "type": "address"
        },
        {
          "internalType": "bytes",
          "name": "data",
          "type": "bytes"
        }
      ],
      "name": "upgradeToAndCall",
      "outputs": [],
      "stateMutability": "payable",
      "type": "function"
    }
  ],
  "bytecode": "0x60a06040523060805234801561001457600080fd5b50608051611a0e6100456000396000818161083b0152818161087b015281816109ff0152610a3f0152611a0e6000f3fe6080604052600436106101095760003560e01c80639b39163611610095578063d930b5ae11610064578063d930b5ae14610320578063dfc4139914610365578063e2e15f2e14610385578063f2fde38b146103a5578063f62dd625146103c557600080fd5b80639b3916361461027b578063a2450bad14610290578063c3c289af146102ea578063c46edd671461030057600080fd5b80634f1ef286116100dc5780634f1ef286146101b0578063715018a6146101c35780637e0f51ab146101d857806383e22774146102255780638da5cb5b1461025d57600080fd5b806307a378cc1461010e57806324885575146101415780633659cfe61461016e578063485cc95514610190575b600080fd5b34801561011a57600080fd5b5061012e6101293660046113e5565b6103db565b6040519081526020015b60405180910390f35b34801561014d57600080fd5b5061016161015c3660046113e5565b610520565b6040516101389190611436565b34801561017a57600080fd5b5061018e610189366004611459565b610830565b005b34801561019c57600080fd5b5061018e6101ab366004611476565b6108f9565b61018e6101be3660046114f6565b6109f4565b3480156101cf57600080fd5b5061018e610aae565b3480156101e457600080fd5b506102136101f336600461159e565b60cd60209081526000928352604080842090915290825290205460ff1681565b60405160ff9091168152602001610138565b34801561023157600080fd5b5060c954610245906001600160a01b031681565b6040516001600160a01b039091168152602001610138565b34801561026957600080fd5b506097546001600160a01b0316610245565b34801561028757600080fd5b5061012e603381565b34801561029c57600080fd5b506102da6102ab36600461159e565b600082815260cd602090815260408083206001600160a01b038516845290915290205460ff1660011492915050565b6040519015158152602001610138565b3480156102f657600080fd5b5061012e60ce5481565b34801561030c57600080fd5b5061021361031b3660046113e5565b610ae4565b34801561032c57600080fd5b5061035761033b3660046113e5565b60cc602052600090815260409020805460019091015460ff1682565b6040516101389291906115c3565b34801561037157600080fd5b5061018e6103803660046115d7565b610c63565b34801561039157600080fd5b5060ca54610245906001600160a01b031681565b3480156103b157600080fd5b5061018e6103c0366004611459565b610e83565b3480156103d157600080fd5b5061012e60cb5481565b60c9546000906001600160a01b0316636ba42aaa336040516001600160e01b031960e084901b1681526001600160a01b039091166004820152602401602060405180830381865afa158015610434573d6000803e3d6000fd5b505050506040513d601f19601f820116820180604052508101906104589190611602565b61047d5760405162461bcd60e51b815260040161047490611624565b60405180910390fd5b6040805180820182528381526000602080830182815260cb54835260cc90915292902081518155915160018084018054939493909160ff19909116908360028111156104cb576104cb6113fe565b02179055505060cb8054600090815260cd602090815260408083203384529091528120805460ff19166001179055815492506105068361167c565b9190505550600160cb5461051a9190611697565b92915050565b60c9546000906001600160a01b0316636ba42aaa336040516001600160e01b031960e084901b1681526001600160a01b039091166004820152602401602060405180830381865afa158015610579573d6000803e3d6000fd5b505050506040513d601f19601f8201168201806040525081019061059d9190611602565b6105b95760405162461bcd60e51b815260040161047490611624565b8160008082815260cc602052604090206001015460ff1660028111156105e1576105e16113fe565b146105fe5760405162461bcd60e51b8152600401610474906116ae565b600083815260cc602090815260408083208151808301909252805482526001810154919290919083019060ff16600281111561063c5761063c6113fe565b600281111561064d5761064d6113fe565b9052509050600061065d85610ae4565b90508060ff16600114156107a45760ce548510156106d65760405162461bcd60e51b815260206004820152603060248201527f4861736849642073686f756c642062652067726561746572207468616e206c6160448201526f1cdd115e1958dd5d195912185cda125960821b6064820152608401610474565b60ce859055600085815260cc60209081526040918290206001908101805460ff1916909117905583518251888152918201527f457735f106fa21d8aa63f477ef083efac742a61664e176ddc84666f1e30ce791910160405180910390a160ca5482516040516301dfdf7b60e71b81526001600160a01b039092169163efefbd80916107679160040190815260200190565b600060405180830381600087803b15801561078157600080fd5b505af1158015610795573d6000803e3d6000fd5b5050505060019350505061082a565b8060ff16600214156107d8575050600083815260cc60205260409020600101805460ff19166002908117909155915061082a565b60405162461bcd60e51b815260206004820152602160248201527f566f746573206c61636b696e672c5374617465207374696c6c2070656e64696e6044820152606760f81b6064820152608401610474565b50919050565b306001600160a01b037f00000000000000000000000000000000000000000000000000000000000000001614156108795760405162461bcd60e51b8152600401610474906116f9565b7f00000000000000000000000000000000000000000000000000000000000000006001600160a01b03166108ab610f1b565b6001600160a01b0316146108d15760405162461bcd60e51b815260040161047490611745565b6108da81610f49565b604080516000808252602082019092526108f691839190610f73565b50565b600054610100900460ff166109145760005460ff1615610918565b303b155b61097b5760405162461bcd60e51b815260206004820152602e60248201527f496e697469616c697a61626c653a20636f6e747261637420697320616c72656160448201526d191e481a5b9a5d1a585b1a5e995960921b6064820152608401610474565b600054610100900460ff1615801561099d576000805461ffff19166101011790555b6109a56110be565b6109ad6110f5565b60ca80546001600160a01b038085166001600160a01b03199283161790925560c980549286169290911691909117905580156109ef576000805461ff00191690555b505050565b306001600160a01b037f0000000000000000000000000000000000000000000000000000000000000000161415610a3d5760405162461bcd60e51b8152600401610474906116f9565b7f00000000000000000000000000000000000000000000000000000000000000006001600160a01b0316610a6f610f1b565b6001600160a01b031614610a955760405162461bcd60e51b815260040161047490611745565b610a9e82610f49565b610aaa82826001610f73565b5050565b6097546001600160a01b03163314610ad85760405162461bcd60e51b815260040161047490611791565b610ae2600061112c565b565b60008060008060c960009054906101000a90046001600160a01b03166001600160a01b03166303b132086040518163ffffffff1660e01b8152600401600060405180830381865afa158015610b3d573d6000803e3d6000fd5b505050506040513d6000823e601f3d908101601f19168201604052610b6591908101906117c6565b905060005b8151811015610c0557600086815260cd6020526040812083518290859085908110610b9757610b97611878565b6020908102919091018101516001600160a01b031682528101919091526040016000205460ff1690506001811415610bdb57610bd460018661188e565b9450610bf2565b8060021415610bf257610bef60018561188e565b93505b5080610bfd8161167c565b915050610b6a565b5080516033610c158560646118a6565b610c1f91906118c5565b10610c2f57506001949350505050565b80516033610c3e8460646118a6565b610c4891906118c5565b10610c5857506002949350505050565b506000949350505050565b60c9546001600160a01b0316636ba42aaa336040516001600160e01b031960e084901b1681526001600160a01b039091166004820152602401602060405180830381865afa158015610cb9573d6000803e3d6000fd5b505050506040513d601f19601f82011682018060405250810190610cdd9190611602565b610cf95760405162461bcd60e51b815260040161047490611624565b8160008082815260cc602052604090206001015460ff166002811115610d2157610d216113fe565b14610d3e5760405162461bcd60e51b8152600401610474906116ae565b60cb548310610d815760405162461bcd60e51b815260206004820152600f60248201526e125b9d985b1a59081a185cda081a59608a1b6044820152606401610474565b8160ff1660011480610d9657508160ff166002145b610df25760405162461bcd60e51b815260206004820152602760248201527f496e73657274203120746f20617070726f766520616e64203220746f20646973604482015266617070726f766560c81b6064820152608401610474565b600083815260cd6020908152604080832033845290915290205460ff1615610e555760405162461bcd60e51b8152602060048201526016602482015275165bdd481a185d9948185b1c9958591e481d9bdd195960521b6044820152606401610474565b50600091825260cd60209081526040808420338552909152909120805460ff191660ff909216919091179055565b6097546001600160a01b03163314610ead5760405162461bcd60e51b815260040161047490611791565b6001600160a01b038116610f125760405162461bcd60e51b815260206004820152602660248201527f4f776e61626c653a206e6577206f776e657220697320746865207a65726f206160448201526564647265737360d01b6064820152608401610474565b6108f68161112c565b7f360894a13ba1a3210667c828492db98dca3e2076cc3735a920a3ca505d382bbc546001600160a01b031690565b6097546001600160a01b031633146108f65760405162461bcd60e51b815260040161047490611791565b6000610f7d610f1b565b9050610f888461117e565b600083511180610f955750815b15610fa657610fa48484611223565b505b7f4910fdfa16fed3260ed0e7147f7cc6da11a60208b5b9406d12a635614ffd9143805460ff166110b757805460ff191660011781556040516001600160a01b038316602482015261102590869060440160408051601f198184030181529190526020810180516001600160e01b0316631b2ce7f360e11b179052611223565b50805460ff19168155611036610f1b565b6001600160a01b0316826001600160a01b0316146110ae5760405162461bcd60e51b815260206004820152602f60248201527f45524331393637557067726164653a207570677261646520627265616b73206660448201526e75727468657220757067726164657360881b6064820152608401610474565b6110b78561130e565b5050505050565b600054610100900460ff166110e55760405162461bcd60e51b8152600401610474906118e7565b6110ed61134e565b610ae2611375565b600054610100900460ff1661111c5760405162461bcd60e51b8152600401610474906118e7565b61112461134e565b610ae261134e565b609780546001600160a01b038381166001600160a01b0319831681179093556040519116919082907f8be0079c531659141344cd1fd0a4f28419497f9722a3daafe3b4186f6b6457e090600090a35050565b803b6111e25760405162461bcd60e51b815260206004820152602d60248201527f455243313936373a206e657720696d706c656d656e746174696f6e206973206e60448201526c1bdd08184818dbdb9d1c9858dd609a1b6064820152608401610474565b7f360894a13ba1a3210667c828492db98dca3e2076cc3735a920a3ca505d382bbc80546001600160a01b0319166001600160a01b0392909216919091179055565b6060823b6112825760405162461bcd60e51b815260206004820152602660248201527f416464726573733a2064656c65676174652063616c6c20746f206e6f6e2d636f6044820152651b9d1c9858dd60d21b6064820152608401610474565b600080846001600160a01b03168460405161129d9190611962565b600060405180830381855af49150503d80600081146112d8576040519150601f19603f3d011682016040523d82523d6000602084013e6112dd565b606091505b509150915061130582826040518060600160405280602781526020016119b2602791396113a5565b95945050505050565b6113178161117e565b6040516001600160a01b038216907fbc7cd75a20ee27fd9adebab32041f755214dbc6bffa90cc0225b39da2e5c2d3b90600090a250565b600054610100900460ff16610ae25760405162461bcd60e51b8152600401610474906118e7565b600054610100900460ff1661139c5760405162461bcd60e51b8152600401610474906118e7565b610ae23361112c565b606083156113b45750816113de565b8251156113c45782518084602001fd5b8160405162461bcd60e51b8152600401610474919061197e565b9392505050565b6000602082840312156113f757600080fd5b5035919050565b634e487b7160e01b600052602160045260246000fd5b6003811061143257634e487b7160e01b600052602160045260246000fd5b9052565b6020810161051a8284611414565b6001600160a01b03811681146108f657600080fd5b60006020828403121561146b57600080fd5b81356113de81611444565b6000806040838503121561148957600080fd5b823561149481611444565b915060208301356114a481611444565b809150509250929050565b634e487b7160e01b600052604160045260246000fd5b604051601f8201601f1916810167ffffffffffffffff811182821017156114ee576114ee6114af565b604052919050565b6000806040838503121561150957600080fd5b823561151481611444565b915060208381013567ffffffffffffffff8082111561153257600080fd5b818601915086601f83011261154657600080fd5b813581811115611558576115586114af565b61156a601f8201601f191685016114c5565b9150808252878482850101111561158057600080fd5b80848401858401376000848284010152508093505050509250929050565b600080604083850312156115b157600080fd5b8235915060208301356114a481611444565b828152604081016113de6020830184611414565b600080604083850312156115ea57600080fd5b82359150602083013560ff811681146114a457600080fd5b60006020828403121561161457600080fd5b815180151581146113de57600080fd5b60208082526022908201527f4f6e6c79204b65657065722063616e2063616c6c20746869732066756e63746960408201526137b760f11b606082015260800190565b634e487b7160e01b600052601160045260246000fd5b600060001982141561169057611690611666565b5060010190565b6000828210156116a9576116a9611666565b500390565b6020808252602b908201527f4e6f2070656e64696e672068617368206368616e67652072657175657374207760408201526a1a5d1a081d1a1a5cc8125160aa1b606082015260800190565b6020808252602c908201527f46756e6374696f6e206d7573742062652063616c6c6564207468726f7567682060408201526b19195b1959d85d1958d85b1b60a21b606082015260800190565b6020808252602c908201527f46756e6374696f6e206d7573742062652063616c6c6564207468726f7567682060408201526b6163746976652070726f787960a01b606082015260800190565b6020808252818101527f4f776e61626c653a2063616c6c6572206973206e6f7420746865206f776e6572604082015260600190565b600060208083850312156117d957600080fd5b825167ffffffffffffffff808211156117f157600080fd5b818501915085601f83011261180557600080fd5b815181811115611817576118176114af565b8060051b91506118288483016114c5565b818152918301840191848101908884111561184257600080fd5b938501935b8385101561186c578451925061185c83611444565b8282529385019390850190611847565b98975050505050505050565b634e487b7160e01b600052603260045260246000fd5b600082198211156118a1576118a1611666565b500190565b60008160001904831182151516156118c0576118c0611666565b500290565b6000826118e257634e487b7160e01b600052601260045260246000fd5b500490565b6020808252602b908201527f496e697469616c697a61626c653a20636f6e7472616374206973206e6f74206960408201526a6e697469616c697a696e6760a81b606082015260800190565b60005b8381101561194d578181015183820152602001611935565b8381111561195c576000848401525b50505050565b60008251611974818460208701611932565b9190910192915050565b602081526000825180602084015261199d816040850160208701611932565b601f01601f1916919091016040019291505056fe416464726573733a206c6f772d6c6576656c2064656c65676174652063616c6c206661696c6564a2646970667358221220d32f3f334de06854d9b2128a3115e3f66cfd3a85bc24359be86a540dc036d14f64736f6c634300080b0033",
  "linkReferences": {},
  "deployedLinkReferences": {}
}