{
  "_format": "hh-sol-artifact-1",
  "contractName": "Orchestrator",
  "sourceName": "contracts/Orchestrator.sol",
  "abi": [
    {
      "anonymous": false,
      "inputs": [
        {
          "indexed": false,
          "internalType": "uint256",
          "name": "_actionId",
          "type": "uint256"
        },
        {
          "indexed": false,
          "internalType": "address",
          "name": "_from",
          "type": "address"
        },
        {
          "indexed": false,
          "internalType": "enum IOrchestrator.ActionState",
          "name": "_state",
          "type": "uint8"
        },
        {
          "indexed": false,
          "internalType": "bytes32",
          "name": "_hash",
          "type": "bytes32"
        },
        {
          "indexed": false,
          "internalType": "address[]",
          "name": "_recipients",
          "type": "address[]"
        }
      ],
      "name": "ActionCreated",
      "type": "event"
    },
    {
      "anonymous": false,
      "inputs": [
        {
          "indexed": false,
          "internalType": "uint256",
          "name": "_actionId",
          "type": "uint256"
        },
        {
          "indexed": false,
          "internalType": "address",
          "name": "_from",
          "type": "address"
        },
        {
          "indexed": false,
          "internalType": "uint256",
          "name": "_rewardPerRequest",
          "type": "uint256"
        }
      ],
      "name": "ActionExecuted",
      "type": "event"
    },
    {
      "anonymous": false,
      "inputs": [
        {
          "indexed": false,
          "internalType": "uint256",
          "name": "_actionId",
          "type": "uint256"
        }
      ],
      "name": "ActionFailed",
      "type": "event"
    },
    {
      "anonymous": false,
      "inputs": [
        {
          "indexed": false,
          "internalType": "uint256",
          "name": "_actionId",
          "type": "uint256"
        },
        {
          "indexed": false,
          "internalType": "address",
          "name": "_from",
          "type": "address"
        }
      ],
      "name": "ActionRejected",
      "type": "event"
    },
    {
      "anonymous": false,
      "inputs": [
        {
          "indexed": false,
          "internalType": "address",
          "name": "previousAdmin",
          "type": "address"
        },
        {
          "indexed": false,
          "internalType": "address",
          "name": "newAdmin",
          "type": "address"
        }
      ],
      "name": "AdminChanged",
      "type": "event"
    },
    {
      "anonymous": false,
      "inputs": [
        {
          "indexed": true,
          "internalType": "address",
          "name": "beacon",
          "type": "address"
        }
      ],
      "name": "BeaconUpgraded",
      "type": "event"
    },
    {
      "anonymous": false,
      "inputs": [
        {
          "indexed": true,
          "internalType": "address",
          "name": "previousOwner",
          "type": "address"
        },
        {
          "indexed": true,
          "internalType": "address",
          "name": "newOwner",
          "type": "address"
        }
      ],
      "name": "OwnershipTransferred",
      "type": "event"
    },
    {
      "anonymous": false,
      "inputs": [
        {
          "indexed": true,
          "internalType": "address",
          "name": "implementation",
          "type": "address"
        }
      ],
      "name": "Upgraded",
      "type": "event"
    },
    {
      "anonymous": false,
      "inputs": [
        {
          "indexed": false,
          "internalType": "uint256",
          "name": "_actionId",
          "type": "uint256"
        },
        {
          "indexed": false,
          "internalType": "address",
          "name": "_from",
          "type": "address"
        },
        {
          "indexed": false,
          "internalType": "uint8",
          "name": "_approved",
          "type": "uint8"
        }
      ],
      "name": "vote",
      "type": "event"
    },
    {
      "inputs": [
        {
          "internalType": "bytes",
          "name": "data",
          "type": "bytes"
        },
        {
          "internalType": "bytes",
          "name": "dynamicData",
          "type": "bytes"
        }
      ],
      "name": "_executeAction",
      "outputs": [],
      "stateMutability": "nonpayable",
      "type": "function"
    },
    {
      "inputs": [
        {
          "internalType": "uint256",
          "name": "actionId",
          "type": "uint256"
        },
        {
          "internalType": "address",
          "name": "_member",
          "type": "address"
        }
      ],
      "name": "actionApprovalByUser",
      "outputs": [
        {
          "internalType": "uint8",
          "name": "",
          "type": "uint8"
        }
      ],
      "stateMutability": "view",
      "type": "function"
    },
    {
      "inputs": [
        {
          "internalType": "uint256",
          "name": "actionId",
          "type": "uint256"
        }
      ],
      "name": "actionApprovalStatus",
      "outputs": [
        {
          "internalType": "uint8",
          "name": "",
          "type": "uint8"
        }
      ],
      "stateMutability": "view",
      "type": "function"
    },
    {
      "inputs": [],
      "name": "actionCount",
      "outputs": [
        {
          "internalType": "uint256",
          "name": "",
          "type": "uint256"
        }
      ],
      "stateMutability": "view",
      "type": "function"
    },
    {
      "inputs": [],
      "name": "actionThresholdPercent",
      "outputs": [
        {
          "internalType": "uint16",
          "name": "",
          "type": "uint16"
        }
      ],
      "stateMutability": "view",
      "type": "function"
    },
    {
      "inputs": [
        {
          "internalType": "uint256",
          "name": "",
          "type": "uint256"
        },
        {
          "internalType": "address",
          "name": "",
          "type": "address"
        }
      ],
      "name": "action_approvals",
      "outputs": [
        {
          "internalType": "uint8",
          "name": "",
          "type": "uint8"
        }
      ],
      "stateMutability": "view",
      "type": "function"
    },
    {
      "inputs": [
        {
          "internalType": "uint256",
          "name": "",
          "type": "uint256"
        }
      ],
      "name": "actions",
      "outputs": [
        {
          "internalType": "address",
          "name": "targetAddress",
          "type": "address"
        },
        {
          "internalType": "bytes32",
          "name": "hash",
          "type": "bytes32"
        },
        {
          "internalType": "enum IOrchestrator.ActionState",
          "name": "state",
          "type": "uint8"
        }
      ],
      "stateMutability": "view",
      "type": "function"
    },
    {
      "inputs": [
        {
          "internalType": "uint256",
          "name": "actionId",
          "type": "uint256"
        },
        {
          "internalType": "uint8",
          "name": "_vote",
          "type": "uint8"
        }
      ],
      "name": "approveAction",
      "outputs": [
        {
          "internalType": "bool",
          "name": "",
          "type": "bool"
        }
      ],
      "stateMutability": "nonpayable",
      "type": "function"
    },
    {
      "inputs": [
        {
          "internalType": "bytes4[]",
          "name": "methods",
          "type": "bytes4[]"
        },
        {
          "internalType": "bytes[]",
          "name": "args",
          "type": "bytes[]"
        },
        {
          "internalType": "address",
          "name": "targetAddress",
          "type": "address"
        },
        {
          "internalType": "bytes32",
          "name": "_hash",
          "type": "bytes32"
        },
        {
          "internalType": "address[]",
          "name": "_recipients",
          "type": "address[]"
        }
      ],
      "name": "createAction",
      "outputs": [
        {
          "internalType": "uint256",
          "name": "",
          "type": "uint256"
        }
      ],
      "stateMutability": "nonpayable",
      "type": "function"
    },
    {
      "inputs": [
        {
          "internalType": "uint256",
          "name": "actionId",
          "type": "uint256"
        },
        {
          "internalType": "bytes[]",
          "name": "dynamicData",
          "type": "bytes[]"
        }
      ],
      "name": "executeAction",
      "outputs": [
        {
          "internalType": "enum IOrchestrator.ActionState",
          "name": "",
          "type": "uint8"
        }
      ],
      "stateMutability": "nonpayable",
      "type": "function"
    },
    {
      "inputs": [
        {
          "internalType": "uint256",
          "name": "actionId",
          "type": "uint256"
        }
      ],
      "name": "getActionInfo",
      "outputs": [
        {
          "internalType": "bytes4[]",
          "name": "methods",
          "type": "bytes4[]"
        },
        {
          "internalType": "bytes[]",
          "name": "args",
          "type": "bytes[]"
        },
        {
          "internalType": "address",
          "name": "targetAddress",
          "type": "address"
        },
        {
          "internalType": "enum IOrchestrator.ActionState",
          "name": "state",
          "type": "uint8"
        }
      ],
      "stateMutability": "view",
      "type": "function"
    },
    {
      "inputs": [
        {
          "internalType": "address",
          "name": "_keeperRegistry",
          "type": "address"
        },
        {
          "internalType": "uint256",
          "name": "_rewardPerAction",
          "type": "uint256"
        }
      ],
      "name": "initialize",
      "outputs": [],
      "stateMutability": "nonpayable",
      "type": "function"
    },
    {
      "inputs": [],
      "name": "owner",
      "outputs": [
        {
          "internalType": "address",
          "name": "",
          "type": "address"
        }
      ],
      "stateMutability": "view",
      "type": "function"
    },
    {
      "inputs": [],
      "name": "renounceOwnership",
      "outputs": [],
      "stateMutability": "nonpayable",
      "type": "function"
    },
    {
      "inputs": [],
      "name": "rewardPerAction",
      "outputs": [
        {
          "internalType": "uint256",
          "name": "",
          "type": "uint256"
        }
      ],
      "stateMutability": "view",
      "type": "function"
    },
    {
      "inputs": [
        {
          "internalType": "address",
          "name": "_gasVault",
          "type": "address"
        }
      ],
      "name": "setGasVault",
      "outputs": [],
      "stateMutability": "nonpayable",
      "type": "function"
    },
    {
      "inputs": [
        {
          "internalType": "uint256",
          "name": "_rewardPerAction",
          "type": "uint256"
        }
      ],
      "name": "setRewardPerRequest",
      "outputs": [],
      "stateMutability": "nonpayable",
      "type": "function"
    },
    {
      "inputs": [
        {
          "internalType": "address",
          "name": "newOwner",
          "type": "address"
        }
      ],
      "name": "transferOwnership",
      "outputs": [],
      "stateMutability": "nonpayable",
      "type": "function"
    },
    {
      "inputs": [
        {
          "internalType": "address",
          "name": "newImplementation",
          "type": "address"
        }
      ],
      "name": "upgradeTo",
      "outputs": [],
      "stateMutability": "nonpayable",
      "type": "function"
    },
    {
      "inputs": [
        {
          "internalType": "address",
          "name": "newImplementation",
          "type": "address"
        },
        {
          "internalType": "bytes",
          "name": "data",
          "type": "bytes"
        }
      ],
      "name": "upgradeToAndCall",
      "outputs": [],
      "stateMutability": "payable",
      "type": "function"
    }
  ],
  "bytecode": "0x60a06040523060805234801561001457600080fd5b50608051612fae61004560003960008181610463015281816104ac0152818161053501526105750152612fae6000f3fe60806040526004361061011f5760003560e01c806383240f83116100a0578063b3ba436c11610064578063b3ba436c146103a8578063b4b33d68146103c8578063cc3172a1146103e8578063cd6dc68714610418578063f2fde38b1461043857600080fd5b806383240f83146102bd5780638da5cb5b14610318578063954e9bb41461034057806397459e0d146103605780639b3916361461038057600080fd5b806356986a9e116100e757806356986a9e146101b857806361a630c0146102055780636daaa1ab14610232578063715018a6146102625780637c44b1fa1461027757600080fd5b80630d98f7f81461012457806329da57381461014d5780633659cfe6146101635780634f1ef286146101855780634f790c0b14610198575b600080fd5b34801561013057600080fd5b5061013a60c95481565b6040519081526020015b60405180910390f35b34801561015957600080fd5b5061013a60cc5481565b34801561016f57600080fd5b5061018361017e3660046120ab565b610458565b005b6101836101933660046121b3565b61052a565b3480156101a457600080fd5b5061013a6101b336600461233d565b6105e4565b3480156101c457600080fd5b506101f36101d336600461243d565b60ce60209081526000928352604080842090915290825290205460ff1681565b60405160ff9091168152602001610144565b34801561021157600080fd5b5061022561022036600461246d565b6108da565b6040516101449190612523565b34801561023e57600080fd5b5061025261024d366004612531565b611065565b6040519015158152602001610144565b34801561026e57600080fd5b506101836111b6565b34801561028357600080fd5b506101f361029236600461243d565b600091825260ce602090815260408084206001600160a01b0393909316845291905290205460ff1690565b3480156102c957600080fd5b506103096102d836600461255c565b60cd602052600090815260409020600281015460038201546004909201546001600160a01b03909116919060ff1683565b60405161014493929190612575565b34801561032457600080fd5b506033546040516001600160a01b039091168152602001610144565b34801561034c57600080fd5b5061018361035b3660046125a1565b6111ec565b34801561036c57600080fd5b5061018361037b3660046120ab565b611481565b34801561038c57600080fd5b50610395603281565b60405161ffff9091168152602001610144565b3480156103b457600080fd5b506101836103c336600461255c565b6114cd565b3480156103d457600080fd5b506101f36103e336600461255c565b6114fc565b3480156103f457600080fd5b5061040861040336600461255c565b611683565b60405161014494939291906126a7565b34801561042457600080fd5b5061018361043336600461271f565b61186c565b34801561044457600080fd5b506101836104533660046120ab565b611956565b306001600160a01b037f00000000000000000000000000000000000000000000000000000000000000001614156104aa5760405162461bcd60e51b81526004016104a19061274b565b60405180910390fd5b7f00000000000000000000000000000000000000000000000000000000000000006001600160a01b03166104dc6119ee565b6001600160a01b0316146105025760405162461bcd60e51b81526004016104a190612797565b61050b81611a1c565b6040805160008082526020820190925261052791839190611a46565b50565b306001600160a01b037f00000000000000000000000000000000000000000000000000000000000000001614156105735760405162461bcd60e51b81526004016104a19061274b565b7f00000000000000000000000000000000000000000000000000000000000000006001600160a01b03166105a56119ee565b6001600160a01b0316146105cb5760405162461bcd60e51b81526004016104a190612797565b6105d482611a1c565b6105e082826001611a46565b5050565b60cb546000906001600160a01b0316636ba42aaa336040516001600160e01b031960e084901b1681526001600160a01b039091166004820152602401602060405180830381865afa15801561063d573d6000803e3d6000fd5b505050506040513d601f19601f8201168201806040525081019061066191906127e3565b61067d5760405162461bcd60e51b81526004016104a190612805565b81516106cb5760405162461bcd60e51b815260206004820152601960248201527f726563697069656e74732063616e6e6f74206265207a65726f0000000000000060448201526064016104a1565b6001600160a01b03841630141561072f5760405162461bcd60e51b815260206004820152602260248201527f416374696f6e2063616e6e6f74206d6f64696679207468697320636f6e74726160448201526118dd60f21b60648201526084016104a1565b84518651146107805760405162461bcd60e51b815260206004820152601d60248201527f4d6574686f647320767320617267732073697a65206d69736d6174636800000060448201526064016104a1565b60cc546040805160a08101825288815260208082018990526001600160a01b038816828401526060820187905260006080830181905284815260cd82529290922081518051929391926107d69284920190611ea1565b5060208281015180516107ef9260018501920190611f4d565b506040820151600282810180546001600160a01b0319166001600160a01b03909316929092179091556060830151600383015560808301516004830180549192909160ff191690600190849081111561084a5761084a6124eb565b02179055505050600081815260ce602090815260408083203384529091528120805460ff1916600217905560cc80546001929061088890849061285d565b909155507f99aa60494d21577f9dd53f32186565bc688565ab5ed4f8f98f83361af504c71a90508133600087876040516108c6959493929190612875565b60405180910390a190505b95945050505050565b60cb546000906001600160a01b0316636ba42aaa336040516001600160e01b031960e084901b1681526001600160a01b039091166004820152602401602060405180830381865afa158015610933573d6000803e3d6000fd5b505050506040513d601f19601f8201168201806040525081019061095791906127e3565b6109735760405162461bcd60e51b81526004016104a190612805565b600084815260cd602090815260408083208151815460c09481028201850190935260a08101838152909391928492849190840182828015610a0057602002820191906000526020600020906000905b82829054906101000a900460e01b6001600160e01b031916815260200190600401906020826003010492830192600103820291508084116109c25790505b5050505050815260200160018201805480602002602001604051908101604052809291908181526020016000905b82821015610ada578382906000526020600020018054610a4d906128ea565b80601f0160208091040260200160405190810160405280929190818152602001828054610a79906128ea565b8015610ac65780601f10610a9b57610100808354040283529160200191610ac6565b820191906000526020600020905b815481529060010190602001808311610aa957829003601f168201915b505050505081526020019060010190610a2e565b505050908252506002828101546001600160a01b0316602083015260038301546040830152600483015460609092019160ff1690811115610b1d57610b1d6124eb565b6002811115610b2e57610b2e6124eb565b9052509050600081608001516002811115610b4b57610b4b6124eb565b14610ba45760405162461bcd60e51b815260206004820152602360248201527f416374696f6e20616c7265616479206578656375746564206f722072656a65636044820152621d195960ea1b60648201526084016104a1565b6000610baf866114fc565b90508060ff1660021415610f9657600086815260cd60205260408120600401805460ff191660011790555a60ca54604085810151905163657859fd60e11b81526001600160a01b03918216600482015292935060009291169063caf0b3fa906024016020604051808303816000875af1158015610c30573d6000803e3d6000fd5b505050506040513d601f19601f82011682018060405250810190610c549190612925565b9050600084604051602001610c69919061293e565b6040516020818303038152906040529050600088886000818110610c8f57610c8f6129ed565b9050602002810190610ca19190612a03565b15159050610d4857306001600160a01b03168383604051602401610cc59190612a50565b60408051601f198184030181529181526020820180516001600160e01b0316632553a6ed60e21b17905251610cfa9190612a7a565b60006040518083038160008787f1925050503d8060008114610d38576040519150601f19603f3d011682016040523d82523d6000602084013e610d3d565b606091505b505080915050610e29565b600060405180602001604052808b8b90610d629190612a96565b8152509050600081604051602001610d7a9190612aa3565b6040516020818303038152906040529050306001600160a01b0316858583604051602401610da9929190612abe565b60408051601f198184030181529181526020820180516001600160e01b0316632553a6ed60e21b17905251610dde9190612a7a565b60006040518083038160008787f1925050503d8060008114610e1c576040519150601f19603f3d011682016040523d82523d6000602084013e610e21565b606091505b509093505050505b8015610eea5760c954604080518c815233602082015280820192909252517f2ce4239ce51f7366f0a28baaaeeb5395025fb8de17e1b68dce8f7aa84b6ab95f9181900360600190a160ca54604087810151905163034b1bb360e61b81526001600160a01b0391821660048201526024810187905291169063d2c6ecc090604401600060405180830381600087803b158015610ec357600080fd5b505af1158015610ed7573d6000803e3d6000fd5b505050506001965050505050505061105e565b6040518a81527fa6a7dbbd4f2866cba9cd5a436f4982496ce98682adb410540faa675e61cef0159060200160405180910390a160ca54604087810151905163034b1bb360e61b81526001600160a01b0391821660048201526024810187905291169063d2c6ecc090604401600060405180830381600087803b158015610f6f57600080fd5b505af1158015610f83573d6000803e3d6000fd5b505050506000965050505050505061105e565b8060ff166001141561100c57600086815260cd60205260409020600401805460ff191660021790557f56bdda336a8bb949a57770a7cde5b62bd8913d11d9dde767735db889a609692f8633604080519283526001600160a01b0390911660208301520160405180910390a160029250505061105e565b60405162461bcd60e51b815260206004820152602160248201527f566f746573206c61636b696e672c7374617465207374696c6c2070656e64696e6044820152606760f81b60648201526084016104a1565b9392505050565b60cb546000906001600160a01b0316636ba42aaa336040516001600160e01b031960e084901b1681526001600160a01b039091166004820152602401602060405180830381865afa1580156110be573d6000803e3d6000fd5b505050506040513d601f19601f820116820180604052508101906110e291906127e3565b6110fe5760405162461bcd60e51b81526004016104a190612805565b60038260ff16106111405760405162461bcd60e51b815260206004820152600c60248201526b496e76616c696420766f746560a01b60448201526064016104a1565b600083815260ce602090815260408083203380855290835292819020805460ff871660ff1990911681179091558151878152928301939093528181019290925290517f93327ced03600b9bfb71847969d51b9dd630af17f21287940ff5bb705a58d09c9181900360600190a15060015b92915050565b6033546001600160a01b031633146111e05760405162461bcd60e51b81526004016104a190612ae3565b6111ea6000611b8a565b565b33301461124c5760405162461bcd60e51b815260206004820152602860248201527f4f6e6c79204f7263686573747261746f722063616e2063616c6c207468697320604482015267333ab731ba34b7b760c11b60648201526084016104a1565b6000828060200190518101906112629190612bed565b905081516000141561135b5760005b81515181101561135557600082604001516001600160a01b0316836000015183815181106112a1576112a16129ed565b6020026020010151846020015184815181106112bf576112bf6129ed565b60200260200101516040516020016112d8929190612d04565b60408051601f19818403018152908290526112f291612a7a565b6000604051808303816000865af19150503d806000811461132f576040519150601f19603f3d011682016040523d82523d6000602084013e611334565b606091505b505090508061134257600080fd5b508061134d81612d35565b915050611271565b50505050565b6000828060200190518101906113719190612d50565b905060005b82515181101561147957600083604001516001600160a01b0316846000015183815181106113a6576113a66129ed565b6020026020010151856020015184815181106113c4576113c46129ed565b6020026020010151856000015185815181106113e2576113e26129ed565b60200260200101516040516020016113fc93929190612dd2565b60408051601f198184030181529082905261141691612a7a565b6000604051808303816000865af19150503d8060008114611453576040519150601f19603f3d011682016040523d82523d6000602084013e611458565b606091505b505090508061146657600080fd5b508061147181612d35565b915050611376565b50505b505050565b6033546001600160a01b031633146114ab5760405162461bcd60e51b81526004016104a190612ae3565b60ca80546001600160a01b0319166001600160a01b0392909216919091179055565b6033546001600160a01b031633146114f75760405162461bcd60e51b81526004016104a190612ae3565b60c955565b60008060008060cb60009054906101000a90046001600160a01b03166001600160a01b03166303b132086040518163ffffffff1660e01b8152600401600060405180830381865afa158015611555573d6000803e3d6000fd5b505050506040513d6000823e601f3d908101601f1916820160405261157d9190810190612e19565b805190915060005b8181101561162257600087815260ce60205260408120845182908690859081106115b1576115b16129ed565b6020908102919091018101516001600160a01b031682528101919091526040016000205460ff16905060018114156115f5576115ee60018661285d565b945061160f565b8060ff166002141561160f5761160c60018761285d565b95505b508061161a81612d35565b915050611585565b5081516032611632856064612eb2565b61163c9190612ed1565b1061164d5750600195945050505050565b8151603261165c866064612eb2565b6116669190612ed1565b106116775750600295945050505050565b50600095945050505050565b600081815260cd602090815260408083208151815460c09481028201850190935260a0810183815260609586959094859485949390928492849184018282801561171957602002820191906000526020600020906000905b82829054906101000a900460e01b6001600160e01b031916815260200190600401906020826003010492830192600103820291508084116116db5790505b5050505050815260200160018201805480602002602001604051908101604052809291908181526020016000905b828210156117f3578382906000526020600020018054611766906128ea565b80601f0160208091040260200160405190810160405280929190818152602001828054611792906128ea565b80156117df5780601f106117b4576101008083540402835291602001916117df565b820191906000526020600020905b8154815290600101906020018083116117c257829003601f168201915b505050505081526020019060010190611747565b505050908252506002828101546001600160a01b0316602083015260038301546040830152600483015460609092019160ff1690811115611836576118366124eb565b6002811115611847576118476124eb565b9052508051602082015160408301516080909301519199909850919650945092505050565b600054610100900460ff166118875760005460ff161561188b565b303b155b6118ee5760405162461bcd60e51b815260206004820152602e60248201527f496e697469616c697a61626c653a20636f6e747261637420697320616c72656160448201526d191e481a5b9a5d1a585b1a5e995960921b60648201526084016104a1565b600054610100900460ff16158015611910576000805461ffff19166101011790555b611918611bdc565b611920611c13565b60c982905560cb80546001600160a01b0319166001600160a01b038516179055801561147c576000805461ff0019169055505050565b6033546001600160a01b031633146119805760405162461bcd60e51b81526004016104a190612ae3565b6001600160a01b0381166119e55760405162461bcd60e51b815260206004820152602660248201527f4f776e61626c653a206e6577206f776e657220697320746865207a65726f206160448201526564647265737360d01b60648201526084016104a1565b61052781611b8a565b7f360894a13ba1a3210667c828492db98dca3e2076cc3735a920a3ca505d382bbc546001600160a01b031690565b6033546001600160a01b031633146105275760405162461bcd60e51b81526004016104a190612ae3565b6000611a506119ee565b9050611a5b84611c4a565b600083511180611a685750815b15611a7957611a778484611cef565b505b7f4910fdfa16fed3260ed0e7147f7cc6da11a60208b5b9406d12a635614ffd9143805460ff1661147957805460ff191660011781556040516001600160a01b0383166024820152611af890869060440160408051601f198184030181529190526020810180516001600160e01b0316631b2ce7f360e11b179052611cef565b50805460ff19168155611b096119ee565b6001600160a01b0316826001600160a01b031614611b815760405162461bcd60e51b815260206004820152602f60248201527f45524331393637557067726164653a207570677261646520627265616b73206660448201526e75727468657220757067726164657360881b60648201526084016104a1565b61147985611dd1565b603380546001600160a01b038381166001600160a01b0319831681179093556040519116919082907f8be0079c531659141344cd1fd0a4f28419497f9722a3daafe3b4186f6b6457e090600090a35050565b600054610100900460ff16611c035760405162461bcd60e51b81526004016104a190612ef3565b611c0b611e11565b6111ea611e38565b600054610100900460ff16611c3a5760405162461bcd60e51b81526004016104a190612ef3565b611c42611e11565b6111ea611e11565b803b611cae5760405162461bcd60e51b815260206004820152602d60248201527f455243313936373a206e657720696d706c656d656e746174696f6e206973206e60448201526c1bdd08184818dbdb9d1c9858dd609a1b60648201526084016104a1565b7f360894a13ba1a3210667c828492db98dca3e2076cc3735a920a3ca505d382bbc80546001600160a01b0319166001600160a01b0392909216919091179055565b6060823b611d4e5760405162461bcd60e51b815260206004820152602660248201527f416464726573733a2064656c65676174652063616c6c20746f206e6f6e2d636f6044820152651b9d1c9858dd60d21b60648201526084016104a1565b600080846001600160a01b031684604051611d699190612a7a565b600060405180830381855af49150503d8060008114611da4576040519150601f19603f3d011682016040523d82523d6000602084013e611da9565b606091505b50915091506108d18282604051806060016040528060278152602001612f5260279139611e68565b611dda81611c4a565b6040516001600160a01b038216907fbc7cd75a20ee27fd9adebab32041f755214dbc6bffa90cc0225b39da2e5c2d3b90600090a250565b600054610100900460ff166111ea5760405162461bcd60e51b81526004016104a190612ef3565b600054610100900460ff16611e5f5760405162461bcd60e51b81526004016104a190612ef3565b6111ea33611b8a565b60608315611e7757508161105e565b825115611e875782518084602001fd5b8160405162461bcd60e51b81526004016104a19190612f3e565b82805482825590600052602060002090600701600890048101928215611f3d5791602002820160005b83821115611f0b57835183826101000a81548163ffffffff021916908360e01c02179055509260200192600401602081600301049283019260010302611eca565b8015611f3b5782816101000a81549063ffffffff0219169055600401602081600301049283019260010302611f0b565b505b50611f49929150611fa6565b5090565b828054828255906000526020600020908101928215611f9a579160200282015b82811115611f9a5782518051611f8a918491602090910190611fbb565b5091602001919060010190611f6d565b50611f4992915061202f565b5b80821115611f495760008155600101611fa7565b828054611fc7906128ea565b90600052602060002090601f016020900481019282611fe95760008555611f3d565b82601f1061200257805160ff1916838001178555611f3d565b82800160010185558215611f3d579182015b82811115611f3d578251825591602001919060010190612014565b80821115611f49576000612043828261204c565b5060010161202f565b508054612058906128ea565b6000825580601f10612068575050565b601f0160209004906000526020600020908101906105279190611fa6565b6001600160a01b038116811461052757600080fd5b80356120a681612086565b919050565b6000602082840312156120bd57600080fd5b813561105e81612086565b634e487b7160e01b600052604160045260246000fd5b60405160a081016001600160401b0381118282101715612100576121006120c8565b60405290565b604051601f8201601f191681016001600160401b038111828210171561212e5761212e6120c8565b604052919050565b60006001600160401b0382111561214f5761214f6120c8565b50601f01601f191660200190565b600082601f83011261216e57600080fd5b813561218161217c82612136565b612106565b81815284602083860101111561219657600080fd5b816020850160208301376000918101602001919091529392505050565b600080604083850312156121c657600080fd5b82356121d181612086565b915060208301356001600160401b038111156121ec57600080fd5b6121f88582860161215d565b9150509250929050565b60006001600160401b0382111561221b5761221b6120c8565b5060051b60200190565b6001600160e01b03198116811461052757600080fd5b600061224961217c84612202565b8381529050602080820190600585901b84018681111561226857600080fd5b845b818110156122a35780356001600160401b038111156122895760008081fd5b6122958982890161215d565b85525092820192820161226a565b505050509392505050565b600082601f8301126122bf57600080fd5b61105e8383356020850161223b565b600082601f8301126122df57600080fd5b813560206122ef61217c83612202565b82815260059290921b8401810191818101908684111561230e57600080fd5b8286015b8481101561233257803561232581612086565b8352918301918301612312565b509695505050505050565b600080600080600060a0868803121561235557600080fd5b85356001600160401b038082111561236c57600080fd5b818801915088601f83011261238057600080fd5b8135602061239061217c83612202565b82815260059290921b8401810191818101908c8411156123af57600080fd5b948201945b838610156123d65785356123c781612225565b825294820194908201906123b4565b995050890135925050808211156123ec57600080fd5b6123f889838a016122ae565b95506124066040890161209b565b945060608801359350608088013591508082111561242357600080fd5b50612430888289016122ce565b9150509295509295909350565b6000806040838503121561245057600080fd5b82359150602083013561246281612086565b809150509250929050565b60008060006040848603121561248257600080fd5b8335925060208401356001600160401b03808211156124a057600080fd5b818601915086601f8301126124b457600080fd5b8135818111156124c357600080fd5b8760208260051b85010111156124d857600080fd5b6020830194508093505050509250925092565b634e487b7160e01b600052602160045260246000fd5b6003811061251f57634e487b7160e01b600052602160045260246000fd5b9052565b602081016111b08284612501565b6000806040838503121561254457600080fd5b82359150602083013560ff8116811461246257600080fd5b60006020828403121561256e57600080fd5b5035919050565b6001600160a01b038416815260208101839052606081016125996040830184612501565b949350505050565b600080604083850312156125b457600080fd5b82356001600160401b03808211156125cb57600080fd5b6125d78683870161215d565b935060208501359150808211156125ed57600080fd5b506121f88582860161215d565b60005b838110156126155781810151838201526020016125fd565b838111156113555750506000910152565b6000815180845261263e8160208601602086016125fa565b601f01601f19169290920160200192915050565b600081518084526020808501808196508360051b8101915082860160005b8581101561269a578284038952612688848351612626565b98850198935090840190600101612670565b5091979650505050505050565b6080808252855190820181905260009060209060a0840190828901845b828110156126ea5781516001600160e01b031916845292840192908401906001016126c4565b505050838103828501526126fe8188612652565b6001600160a01b038716604086015292506108d19150506060830184612501565b6000806040838503121561273257600080fd5b823561273d81612086565b946020939093013593505050565b6020808252602c908201527f46756e6374696f6e206d7573742062652063616c6c6564207468726f7567682060408201526b19195b1959d85d1958d85b1b60a21b606082015260800190565b6020808252602c908201527f46756e6374696f6e206d7573742062652063616c6c6564207468726f7567682060408201526b6163746976652070726f787960a01b606082015260800190565b6000602082840312156127f557600080fd5b8151801515811461105e57600080fd5b60208082526022908201527f4f6e6c79204b65657065722063616e2063616c6c20746869732066756e63746960408201526137b760f11b606082015260800190565b634e487b7160e01b600052601160045260246000fd5b6000821982111561287057612870612847565b500190565b600060a08201878352602060018060a01b038089168286015261289b6040860189612501565b6060850187905260a060808601528551928390528186019260c086019060005b818110156128d95785518416835294840194918401916001016128bb565b50909b9a5050505050505050505050565b600181811c908216806128fe57607f821691505b6020821081141561291f57634e487b7160e01b600052602260045260246000fd5b50919050565b60006020828403121561293757600080fd5b5051919050565b6020808252825160a083830152805160c0840181905260009291820190839060e08601905b8083101561298d5783516001600160e01b0319168252928401926001929092019190840190612963565b5092860151858403601f19016040870152926129a98185612652565b935050505060408401516129c860608501826001600160a01b03169052565b506060840151608084015260808401516129e560a0850182612501565b509392505050565b634e487b7160e01b600052603260045260246000fd5b6000808335601e19843603018112612a1a57600080fd5b8301803591506001600160401b03821115612a3457600080fd5b602001915036819003821315612a4957600080fd5b9250929050565b604081526000612a636040830184612626565b828103602093840152600081529190910192915050565b60008251612a8c8184602087016125fa565b9190910192915050565b600061105e36848461223b565b60208152600082516020808401526125996040840182612652565b604081526000612ad16040830185612626565b82810360208401526108d18185612626565b6020808252818101527f4f776e61626c653a2063616c6c6572206973206e6f7420746865206f776e6572604082015260600190565b600082601f830112612b2957600080fd5b81516020612b3961217c83612202565b82815260059290921b84018101918181019086841115612b5857600080fd5b8286015b848110156123325780516001600160401b03811115612b7b5760008081fd5b8701603f81018913612b8d5760008081fd5b848101516040612b9f61217c83612136565b8281528b82848601011115612bb45760008081fd5b612bc3838983018487016125fa565b8652505050918301918301612b5c565b80516120a681612086565b8051600381106120a657600080fd5b60006020808385031215612c0057600080fd5b82516001600160401b0380821115612c1757600080fd5b9084019060a08287031215612c2b57600080fd5b612c336120de565b825182811115612c4257600080fd5b8301601f81018813612c5357600080fd5b8051612c6161217c82612202565b81815260059190911b8201860190868101908a831115612c8057600080fd5b928701925b82841015612ca7578351612c9881612225565b82529287019290870190612c85565b84525050508284015182811115612cbd57600080fd5b612cc988828601612b18565b8583015250612cda60408401612bd3565b604082015260608301516060820152612cf560808401612bde565b60808201529695505050505050565b6001600160e01b0319831681528151600090612d278160048501602087016125fa565b919091016004019392505050565b6000600019821415612d4957612d49612847565b5060010190565b600060208284031215612d6257600080fd5b81516001600160401b0380821115612d7957600080fd5b9083019060208286031215612d8d57600080fd5b604051602081018181108382111715612da857612da86120c8565b604052825182811115612dba57600080fd5b612dc687828601612b18565b82525095945050505050565b6001600160e01b0319841681528251600090612df58160048501602088016125fa565b835190830190612e0c8160048401602088016125fa565b0160040195945050505050565b60006020808385031215612e2c57600080fd5b82516001600160401b03811115612e4257600080fd5b8301601f81018513612e5357600080fd5b8051612e6161217c82612202565b81815260059190911b82018301908381019087831115612e8057600080fd5b928401925b82841015612ea7578351612e9881612086565b82529284019290840190612e85565b979650505050505050565b6000816000190483118215151615612ecc57612ecc612847565b500290565b600082612eee57634e487b7160e01b600052601260045260246000fd5b500490565b6020808252602b908201527f496e697469616c697a61626c653a20636f6e7472616374206973206e6f74206960408201526a6e697469616c697a696e6760a81b606082015260800190565b60208152600061105e602083018461262656fe416464726573733a206c6f772d6c6576656c2064656c65676174652063616c6c206661696c6564a2646970667358221220792cb918fc25a139169333f142308de5c996157c892b14afd8bfe35bb8d7b3c964736f6c634300080b0033",
  "linkReferences": {},
  "deployedLinkReferences": {}
}