{
  "_format": "hh-sol-artifact-1",
  "contractName": "StakingRewards",
  "sourceName": "contracts/StakingRewards.sol",
  "abi": [
    {
      "anonymous": false,
      "inputs": [
        {
          "indexed": false,
          "internalType": "address",
          "name": "previousAdmin",
          "type": "address"
        },
        {
          "indexed": false,
          "internalType": "address",
          "name": "newAdmin",
          "type": "address"
        }
      ],
      "name": "AdminChanged",
      "type": "event"
    },
    {
      "anonymous": false,
      "inputs": [
        {
          "indexed": true,
          "internalType": "address",
          "name": "beacon",
          "type": "address"
        }
      ],
      "name": "BeaconUpgraded",
      "type": "event"
    },
    {
      "anonymous": false,
      "inputs": [
        {
          "indexed": true,
          "internalType": "address",
          "name": "previousOwner",
          "type": "address"
        },
        {
          "indexed": true,
          "internalType": "address",
          "name": "newOwner",
          "type": "address"
        }
      ],
      "name": "OwnershipTransferred",
      "type": "event"
    },
    {
      "anonymous": false,
      "inputs": [
        {
          "indexed": false,
          "internalType": "address",
          "name": "account",
          "type": "address"
        }
      ],
      "name": "Paused",
      "type": "event"
    },
    {
      "anonymous": false,
      "inputs": [
        {
          "indexed": true,
          "internalType": "address",
          "name": "user",
          "type": "address"
        },
        {
          "indexed": false,
          "internalType": "uint256",
          "name": "reward",
          "type": "uint256"
        }
      ],
      "name": "RewardPaid",
      "type": "event"
    },
    {
      "anonymous": false,
      "inputs": [
        {
          "indexed": true,
          "internalType": "address",
          "name": "user",
          "type": "address"
        },
        {
          "indexed": false,
          "internalType": "uint256",
          "name": "amount",
          "type": "uint256"
        }
      ],
      "name": "Staked",
      "type": "event"
    },
    {
      "anonymous": false,
      "inputs": [
        {
          "indexed": false,
          "internalType": "address",
          "name": "account",
          "type": "address"
        }
      ],
      "name": "Unpaused",
      "type": "event"
    },
    {
      "anonymous": false,
      "inputs": [
        {
          "indexed": true,
          "internalType": "address",
          "name": "implementation",
          "type": "address"
        }
      ],
      "name": "Upgraded",
      "type": "event"
    },
    {
      "anonymous": false,
      "inputs": [
        {
          "indexed": true,
          "internalType": "address",
          "name": "user",
          "type": "address"
        },
        {
          "indexed": false,
          "internalType": "uint256",
          "name": "amount",
          "type": "uint256"
        }
      ],
      "name": "Withdrawn",
      "type": "event"
    },
    {
      "inputs": [
        {
          "internalType": "address",
          "name": "",
          "type": "address"
        }
      ],
      "name": "_balances",
      "outputs": [
        {
          "internalType": "uint256",
          "name": "",
          "type": "uint256"
        }
      ],
      "stateMutability": "view",
      "type": "function"
    },
    {
      "inputs": [],
      "name": "claimReward",
      "outputs": [],
      "stateMutability": "nonpayable",
      "type": "function"
    },
    {
      "inputs": [
        {
          "internalType": "address",
          "name": "account",
          "type": "address"
        }
      ],
      "name": "earned",
      "outputs": [
        {
          "internalType": "uint256",
          "name": "",
          "type": "uint256"
        }
      ],
      "stateMutability": "view",
      "type": "function"
    },
    {
      "inputs": [],
      "name": "exit",
      "outputs": [],
      "stateMutability": "nonpayable",
      "type": "function"
    },
    {
      "inputs": [
        {
          "internalType": "address",
          "name": "_stakingToken",
          "type": "address"
        },
        {
          "internalType": "address",
          "name": "_rewardToken",
          "type": "address"
        },
        {
          "internalType": "uint256",
          "name": "_rewardRate",
          "type": "uint256"
        },
        {
          "internalType": "uint256",
          "name": "_stakeEndTime",
          "type": "uint256"
        }
      ],
      "name": "initialize",
      "outputs": [],
      "stateMutability": "nonpayable",
      "type": "function"
    },
    {
      "inputs": [
        {
          "internalType": "address",
          "name": "",
          "type": "address"
        }
      ],
      "name": "lastRewarded",
      "outputs": [
        {
          "internalType": "uint256",
          "name": "",
          "type": "uint256"
        }
      ],
      "stateMutability": "view",
      "type": "function"
    },
    {
      "inputs": [],
      "name": "owner",
      "outputs": [
        {
          "internalType": "address",
          "name": "",
          "type": "address"
        }
      ],
      "stateMutability": "view",
      "type": "function"
    },
    {
      "inputs": [],
      "name": "pause",
      "outputs": [],
      "stateMutability": "nonpayable",
      "type": "function"
    },
    {
      "inputs": [],
      "name": "paused",
      "outputs": [
        {
          "internalType": "bool",
          "name": "",
          "type": "bool"
        }
      ],
      "stateMutability": "view",
      "type": "function"
    },
    {
      "inputs": [],
      "name": "renounceOwnership",
      "outputs": [],
      "stateMutability": "nonpayable",
      "type": "function"
    },
    {
      "inputs": [],
      "name": "rewardEndTime",
      "outputs": [
        {
          "internalType": "uint256",
          "name": "",
          "type": "uint256"
        }
      ],
      "stateMutability": "view",
      "type": "function"
    },
    {
      "inputs": [],
      "name": "rewardRate",
      "outputs": [
        {
          "internalType": "uint256",
          "name": "",
          "type": "uint256"
        }
      ],
      "stateMutability": "view",
      "type": "function"
    },
    {
      "inputs": [],
      "name": "rewardToken",
      "outputs": [
        {
          "internalType": "contract IERC20Upgradeable",
          "name": "",
          "type": "address"
        }
      ],
      "stateMutability": "view",
      "type": "function"
    },
    {
      "inputs": [
        {
          "internalType": "address",
          "name": "",
          "type": "address"
        }
      ],
      "name": "rewards",
      "outputs": [
        {
          "internalType": "uint256",
          "name": "",
          "type": "uint256"
        }
      ],
      "stateMutability": "view",
      "type": "function"
    },
    {
      "inputs": [
        {
          "internalType": "uint256",
          "name": "amount",
          "type": "uint256"
        }
      ],
      "name": "stake",
      "outputs": [],
      "stateMutability": "nonpayable",
      "type": "function"
    },
    {
      "inputs": [],
      "name": "stakingToken",
      "outputs": [
        {
          "internalType": "contract IERC20Upgradeable",
          "name": "",
          "type": "address"
        }
      ],
      "stateMutability": "view",
      "type": "function"
    },
    {
      "inputs": [
        {
          "internalType": "address",
          "name": "newOwner",
          "type": "address"
        }
      ],
      "name": "transferOwnership",
      "outputs": [],
      "stateMutability": "nonpayable",
      "type": "function"
    },
    {
      "inputs": [],
      "name": "unpause",
      "outputs": [],
      "stateMutability": "nonpayable",
      "type": "function"
    },
    {
      "inputs": [
        {
          "internalType": "address",
          "name": "newImplementation",
          "type": "address"
        }
      ],
      "name": "upgradeTo",
      "outputs": [],
      "stateMutability": "nonpayable",
      "type": "function"
    },
    {
      "inputs": [
        {
          "internalType": "address",
          "name": "newImplementation",
          "type": "address"
        },
        {
          "internalType": "bytes",
          "name": "data",
          "type": "bytes"
        }
      ],
      "name": "upgradeToAndCall",
      "outputs": [],
      "stateMutability": "payable",
      "type": "function"
    },
    {
      "inputs": [
        {
          "internalType": "uint256",
          "name": "amount",
          "type": "uint256"
        }
      ],
      "name": "withdraw",
      "outputs": [],
      "stateMutability": "nonpayable",
      "type": "function"
    }
  ],
  "bytecode": "0x60a06040523060805234801561001457600080fd5b50608051611979610045600039600081816106140152818161065401528181610711015261075101526119796000f3fe6080604052600436106101295760003560e01c806372f702f3116100ab578063b88a802f1161006f578063b88a802f14610316578063e9fad8ee1461032b578063eb990c5914610340578063f2fde38b14610360578063f7c618c114610380578063f934d6fa146103a057600080fd5b806372f702f3146102755780637b0a47ee146102ad5780638456cb59146102c35780638da5cb5b146102d8578063a694fc3a146102f657600080fd5b80633f4ba83a116100f25780633f4ba83a146101e75780634f1ef286146101fc5780635c975abb1461020f5780636ebcf60714610232578063715018a61461026057600080fd5b80628cc2621461012e5780630700037d146101615780632e1a7d4d1461018f5780633659cfe6146101b157806337e9f64a146101d1575b600080fd5b34801561013a57600080fd5b5061014e610149366004611593565b6103cd565b6040519081526020015b60405180910390f35b34801561016d57600080fd5b5061014e61017c366004611593565b6101006020526000908152604090205481565b34801561019b57600080fd5b506101af6101aa3660046115ae565b610477565b005b3480156101bd57600080fd5b506101af6101cc366004611593565b610609565b3480156101dd57600080fd5b5061014e60fe5481565b3480156101f357600080fd5b506101af6106d2565b6101af61020a3660046115dd565b610706565b34801561021b57600080fd5b5060c95460ff166040519015158152602001610158565b34801561023e57600080fd5b5061014e61024d366004611593565b6101016020526000908152604090205481565b34801561026c57600080fd5b506101af6107c0565b34801561028157600080fd5b5060fb54610295906001600160a01b031681565b6040516001600160a01b039091168152602001610158565b3480156102b957600080fd5b5061014e60fd5481565b3480156102cf57600080fd5b506101af6107f4565b3480156102e457600080fd5b506033546001600160a01b0316610295565b34801561030257600080fd5b506101af6103113660046115ae565b610826565b34801561032257600080fd5b506101af6109d7565b34801561033757600080fd5b506101af610ac1565b34801561034c57600080fd5b506101af61035b36600461169f565b610ae3565b34801561036c57600080fd5b506101af61037b366004611593565b610bfa565b34801561038c57600080fd5b5060fc54610295906001600160a01b031681565b3480156103ac57600080fd5b5061014e6103bb366004611593565b60ff6020526000908152604090205481565b60008060fe544211156103e3575060fe546103e6565b50425b670de0b6b3a764000064496cebb80060fd54670de0b6b3a764000061040b91906116f7565b6001600160a01b038616600090815260ff602052604090205461042e9085611716565b61043891906116f7565b610442919061172d565b6001600160a01b0385166000908152610101602052604090205461046691906116f7565b610470919061172d565b9392505050565b336000610483826103cd565b9050600060fe5442111561049a575060fe5461049d565b50425b6001600160a01b038316156104e8576001600160a01b038316600090815260ff60209081526040808320849055610100909152812080548492906104e290849061174f565b90915550505b600084116105315760405162461bcd60e51b8152602060048201526011602482015270043616e6e6f74207769746864726177203607c1b60448201526064015b60405180910390fd5b33600090815261010160205260409020548411156105915760405162461bcd60e51b815260206004820152601b60248201527f416d6f756e7420657863656564207374616b656420616d6f756e7400000000006044820152606401610528565b3360009081526101016020526040812080548692906105b1908490611716565b909155505060fb546105cd906001600160a01b03163386610c92565b60405184815233907f7084f5476618d8e60b11ef0d7d3f06914655adb8793e28ff7f018d4c76d505d5906020015b60405180910390a250505050565b306001600160a01b037f00000000000000000000000000000000000000000000000000000000000000001614156106525760405162461bcd60e51b815260040161052890611767565b7f00000000000000000000000000000000000000000000000000000000000000006001600160a01b0316610684610cfa565b6001600160a01b0316146106aa5760405162461bcd60e51b8152600401610528906117b3565b6106b381610d28565b604080516000808252602082019092526106cf91839190610d52565b50565b6033546001600160a01b031633146106fc5760405162461bcd60e51b8152600401610528906117ff565b610704610e96565b565b306001600160a01b037f000000000000000000000000000000000000000000000000000000000000000016141561074f5760405162461bcd60e51b815260040161052890611767565b7f00000000000000000000000000000000000000000000000000000000000000006001600160a01b0316610781610cfa565b6001600160a01b0316146107a75760405162461bcd60e51b8152600401610528906117b3565b6107b082610d28565b6107bc82826001610d52565b5050565b6033546001600160a01b031633146107ea5760405162461bcd60e51b8152600401610528906117ff565b6107046000610f29565b6033546001600160a01b0316331461081e5760405162461bcd60e51b8152600401610528906117ff565b610704610f7b565b60c95460ff161561086c5760405162461bcd60e51b815260206004820152601060248201526f14185d5cd8589b194e881c185d5cd95960821b6044820152606401610528565b336000610878826103cd565b9050600060fe5442111561088f575060fe54610892565b50425b6001600160a01b038316156108dd576001600160a01b038316600090815260ff60209081526040808320849055610100909152812080548492906108d790849061174f565b90915550505b6000841161091e5760405162461bcd60e51b815260206004820152600e60248201526d043616e6e6f74207374616b6520360941b6044820152606401610528565b60fe5442106109685760405162461bcd60e51b815260206004820152601660248201527529ba30b5b4b733902832b934b7b21034b99037bb32b960511b6044820152606401610528565b33600090815261010160205260408120805486929061098890849061174f565b909155505060fb546109a5906001600160a01b0316333087610ff6565b60405184815233907f9e71bc8eea02a63969f509818f2dafb9254532904319f9dbda79b67bd34a5f3d906020016105fb565b3360006109e3826103cd565b9050600060fe544211156109fa575060fe546109fd565b50425b6001600160a01b03831615610a48576001600160a01b038316600090815260ff6020908152604080832084905561010090915281208054849290610a4290849061174f565b90915550505b33600090815261010060205260409020548015610abb57336000818152610100602052604081205560fc54610a89916001600160a01b039091169083610c92565b60405181815233907fe2403640ba68fed3a2f88b7557551d1993f84b99bb10ff833f0cf8db0c5e0486906020016105fb565b50505050565b3360009081526101016020526040902054610adb90610477565b6107046109d7565b600054610100900460ff16610afe5760005460ff1615610b02565b303b155b610b655760405162461bcd60e51b815260206004820152602e60248201527f496e697469616c697a61626c653a20636f6e747261637420697320616c72656160448201526d191e481a5b9a5d1a585b1a5e995960921b6064820152608401610528565b600054610100900460ff16158015610b87576000805461ffff19166101011790555b610b8f61102e565b610b97611065565b610b9f61109c565b60fc80546001600160a01b038087166001600160a01b03199283161790925560fb80549288169290911691909117905560fd839055610bde824261174f565b60fe558015610bf3576000805461ff00191690555b5050505050565b6033546001600160a01b03163314610c245760405162461bcd60e51b8152600401610528906117ff565b6001600160a01b038116610c895760405162461bcd60e51b815260206004820152602660248201527f4f776e61626c653a206e6577206f776e657220697320746865207a65726f206160448201526564647265737360d01b6064820152608401610528565b6106cf81610f29565b6040516001600160a01b038316602482015260448101829052610cf590849063a9059cbb60e01b906064015b60408051601f198184030181529190526020810180516001600160e01b03166001600160e01b0319909316929092179091526110d3565b505050565b7f360894a13ba1a3210667c828492db98dca3e2076cc3735a920a3ca505d382bbc546001600160a01b031690565b6033546001600160a01b031633146106cf5760405162461bcd60e51b8152600401610528906117ff565b6000610d5c610cfa565b9050610d67846111a5565b600083511180610d745750815b15610d8557610d83848461124a565b505b7f4910fdfa16fed3260ed0e7147f7cc6da11a60208b5b9406d12a635614ffd9143805460ff16610bf357805460ff191660011781556040516001600160a01b0383166024820152610e0490869060440160408051601f198184030181529190526020810180516001600160e01b0316631b2ce7f360e11b17905261124a565b50805460ff19168155610e15610cfa565b6001600160a01b0316826001600160a01b031614610e8d5760405162461bcd60e51b815260206004820152602f60248201527f45524331393637557067726164653a207570677261646520627265616b73206660448201526e75727468657220757067726164657360881b6064820152608401610528565b610bf385611335565b60c95460ff16610edf5760405162461bcd60e51b815260206004820152601460248201527314185d5cd8589b194e881b9bdd081c185d5cd95960621b6044820152606401610528565b60c9805460ff191690557f5db9ee0a495bf2e6ff9c91a7834c1ba4fdd244a5e8aa4e537bd38aeae4b073aa335b6040516001600160a01b03909116815260200160405180910390a1565b603380546001600160a01b038381166001600160a01b0319831681179093556040519116919082907f8be0079c531659141344cd1fd0a4f28419497f9722a3daafe3b4186f6b6457e090600090a35050565b60c95460ff1615610fc15760405162461bcd60e51b815260206004820152601060248201526f14185d5cd8589b194e881c185d5cd95960821b6044820152606401610528565b60c9805460ff191660011790557f62e78cea01bee320cd4e420270b5ea74000d11b0c9f74754ebdbfc544b05a258610f0c3390565b6040516001600160a01b0380851660248301528316604482015260648101829052610abb9085906323b872dd60e01b90608401610cbe565b600054610100900460ff166110555760405162461bcd60e51b815260040161052890611834565b61105d611375565b610704611375565b600054610100900460ff1661108c5760405162461bcd60e51b815260040161052890611834565b611094611375565b61070461139c565b600054610100900460ff166110c35760405162461bcd60e51b815260040161052890611834565b6110cb611375565b6107046113cc565b6000611128826040518060400160405280602081526020017f5361666545524332303a206c6f772d6c6576656c2063616c6c206661696c6564815250856001600160a01b03166113ff9092919063ffffffff16565b805190915015610cf55780806020019051810190611146919061187f565b610cf55760405162461bcd60e51b815260206004820152602a60248201527f5361666545524332303a204552433230206f7065726174696f6e20646964206e6044820152691bdd081cdd58d8d9595960b21b6064820152608401610528565b803b6112095760405162461bcd60e51b815260206004820152602d60248201527f455243313936373a206e657720696d706c656d656e746174696f6e206973206e60448201526c1bdd08184818dbdb9d1c9858dd609a1b6064820152608401610528565b7f360894a13ba1a3210667c828492db98dca3e2076cc3735a920a3ca505d382bbc80546001600160a01b0319166001600160a01b0392909216919091179055565b6060823b6112a95760405162461bcd60e51b815260206004820152602660248201527f416464726573733a2064656c65676174652063616c6c20746f206e6f6e2d636f6044820152651b9d1c9858dd60d21b6064820152608401610528565b600080846001600160a01b0316846040516112c491906118cd565b600060405180830381855af49150503d80600081146112ff576040519150601f19603f3d011682016040523d82523d6000602084013e611304565b606091505b509150915061132c828260405180606001604052806027815260200161191d60279139611416565b95945050505050565b61133e816111a5565b6040516001600160a01b038216907fbc7cd75a20ee27fd9adebab32041f755214dbc6bffa90cc0225b39da2e5c2d3b90600090a250565b600054610100900460ff166107045760405162461bcd60e51b815260040161052890611834565b600054610100900460ff166113c35760405162461bcd60e51b815260040161052890611834565b61070433610f29565b600054610100900460ff166113f35760405162461bcd60e51b815260040161052890611834565b60c9805460ff19169055565b606061140e848460008561144f565b949350505050565b60608315611425575081610470565b8251156114355782518084602001fd5b8160405162461bcd60e51b815260040161052891906118e9565b6060824710156114b05760405162461bcd60e51b815260206004820152602660248201527f416464726573733a20696e73756666696369656e742062616c616e636520666f6044820152651c8818d85b1b60d21b6064820152608401610528565b843b6114fe5760405162461bcd60e51b815260206004820152601d60248201527f416464726573733a2063616c6c20746f206e6f6e2d636f6e74726163740000006044820152606401610528565b600080866001600160a01b0316858760405161151a91906118cd565b60006040518083038185875af1925050503d8060008114611557576040519150601f19603f3d011682016040523d82523d6000602084013e61155c565b606091505b509150915061156c828286611416565b979650505050505050565b80356001600160a01b038116811461158e57600080fd5b919050565b6000602082840312156115a557600080fd5b61047082611577565b6000602082840312156115c057600080fd5b5035919050565b634e487b7160e01b600052604160045260246000fd5b600080604083850312156115f057600080fd5b6115f983611577565b9150602083013567ffffffffffffffff8082111561161657600080fd5b818501915085601f83011261162a57600080fd5b81358181111561163c5761163c6115c7565b604051601f8201601f19908116603f01168101908382118183101715611664576116646115c7565b8160405282815288602084870101111561167d57600080fd5b8260208601602083013760006020848301015280955050505050509250929050565b600080600080608085870312156116b557600080fd5b6116be85611577565b93506116cc60208601611577565b93969395505050506040820135916060013590565b634e487b7160e01b600052601160045260246000fd5b6000816000190483118215151615611711576117116116e1565b500290565b600082821015611728576117286116e1565b500390565b60008261174a57634e487b7160e01b600052601260045260246000fd5b500490565b60008219821115611762576117626116e1565b500190565b6020808252602c908201527f46756e6374696f6e206d7573742062652063616c6c6564207468726f7567682060408201526b19195b1959d85d1958d85b1b60a21b606082015260800190565b6020808252602c908201527f46756e6374696f6e206d7573742062652063616c6c6564207468726f7567682060408201526b6163746976652070726f787960a01b606082015260800190565b6020808252818101527f4f776e61626c653a2063616c6c6572206973206e6f7420746865206f776e6572604082015260600190565b6020808252602b908201527f496e697469616c697a61626c653a20636f6e7472616374206973206e6f74206960408201526a6e697469616c697a696e6760a81b606082015260800190565b60006020828403121561189157600080fd5b8151801515811461047057600080fd5b60005b838110156118bc5781810151838201526020016118a4565b83811115610abb5750506000910152565b600082516118df8184602087016118a1565b9190910192915050565b60208152600082518060208401526119088160408501602087016118a1565b601f01601f1916919091016040019291505056fe416464726573733a206c6f772d6c6576656c2064656c65676174652063616c6c206661696c6564a26469706673582212204199cc17e0fbcc795aaf1bbe64ca3345184b4096447e0f8ba06660639e1aeab064736f6c634300080b0033",
  "linkReferences": {},
  "deployedLinkReferences": {}
}