{
  "_format": "hh-sol-artifact-1",
  "contractName": "InternalGovernance",
  "sourceName": "contracts/InternalGovernance.sol",
  "abi": [
    {
      "inputs": [],
      "stateMutability": "nonpayable",
      "type": "constructor"
    },
    {
      "anonymous": false,
      "inputs": [
        {
          "indexed": false,
          "internalType": "address",
          "name": "previousAdmin",
          "type": "address"
        },
        {
          "indexed": false,
          "internalType": "address",
          "name": "newAdmin",
          "type": "address"
        }
      ],
      "name": "AdminChanged",
      "type": "event"
    },
    {
      "anonymous": false,
      "inputs": [
        {
          "indexed": true,
          "internalType": "address",
          "name": "beacon",
          "type": "address"
        }
      ],
      "name": "BeaconUpgraded",
      "type": "event"
    },
    {
      "anonymous": false,
      "inputs": [
        {
          "indexed": true,
          "internalType": "address",
          "name": "previousOwner",
          "type": "address"
        },
        {
          "indexed": true,
          "internalType": "address",
          "name": "newOwner",
          "type": "address"
        }
      ],
      "name": "OwnershipTransferred",
      "type": "event"
    },
    {
      "anonymous": false,
      "inputs": [
        {
          "indexed": false,
          "internalType": "uint256",
          "name": "proposalId",
          "type": "uint256"
        }
      ],
      "name": "ProposalCanceled",
      "type": "event"
    },
    {
      "anonymous": false,
      "inputs": [
        {
          "indexed": false,
          "internalType": "uint256",
          "name": "proposalId",
          "type": "uint256"
        },
        {
          "indexed": false,
          "internalType": "address",
          "name": "proposer",
          "type": "address"
        },
        {
          "indexed": false,
          "internalType": "address[]",
          "name": "targets",
          "type": "address[]"
        },
        {
          "indexed": false,
          "internalType": "uint256[]",
          "name": "values",
          "type": "uint256[]"
        },
        {
          "indexed": false,
          "internalType": "string[]",
          "name": "signatures",
          "type": "string[]"
        },
        {
          "indexed": false,
          "internalType": "bytes[]",
          "name": "calldatas",
          "type": "bytes[]"
        },
        {
          "indexed": false,
          "internalType": "uint256",
          "name": "startBlock",
          "type": "uint256"
        },
        {
          "indexed": false,
          "internalType": "uint256",
          "name": "endBlock",
          "type": "uint256"
        },
        {
          "indexed": false,
          "internalType": "string",
          "name": "description",
          "type": "string"
        }
      ],
      "name": "ProposalCreated",
      "type": "event"
    },
    {
      "anonymous": false,
      "inputs": [
        {
          "indexed": false,
          "internalType": "uint256",
          "name": "proposalId",
          "type": "uint256"
        }
      ],
      "name": "ProposalExecuted",
      "type": "event"
    },
    {
      "anonymous": false,
      "inputs": [
        {
          "indexed": false,
          "internalType": "uint256",
          "name": "proposalId",
          "type": "uint256"
        },
        {
          "indexed": false,
          "internalType": "uint256",
          "name": "eta",
          "type": "uint256"
        }
      ],
      "name": "ProposalQueued",
      "type": "event"
    },
    {
      "anonymous": false,
      "inputs": [
        {
          "indexed": false,
          "internalType": "uint256",
          "name": "oldProposalThreshold",
          "type": "uint256"
        },
        {
          "indexed": false,
          "internalType": "uint256",
          "name": "newProposalThreshold",
          "type": "uint256"
        }
      ],
      "name": "ProposalThresholdSet",
      "type": "event"
    },
    {
      "anonymous": false,
      "inputs": [
        {
          "indexed": false,
          "internalType": "uint256",
          "name": "oldQuorumNumerator",
          "type": "uint256"
        },
        {
          "indexed": false,
          "internalType": "uint256",
          "name": "newQuorumNumerator",
          "type": "uint256"
        }
      ],
      "name": "QuorumNumeratorUpdated",
      "type": "event"
    },
    {
      "anonymous": false,
      "inputs": [
        {
          "indexed": false,
          "internalType": "address",
          "name": "oldTimelock",
          "type": "address"
        },
        {
          "indexed": false,
          "internalType": "address",
          "name": "newTimelock",
          "type": "address"
        }
      ],
      "name": "TimelockChange",
      "type": "event"
    },
    {
      "anonymous": false,
      "inputs": [
        {
          "indexed": true,
          "internalType": "address",
          "name": "implementation",
          "type": "address"
        }
      ],
      "name": "Upgraded",
      "type": "event"
    },
    {
      "anonymous": false,
      "inputs": [
        {
          "indexed": true,
          "internalType": "address",
          "name": "voter",
          "type": "address"
        },
        {
          "indexed": false,
          "internalType": "uint256",
          "name": "proposalId",
          "type": "uint256"
        },
        {
          "indexed": false,
          "internalType": "uint8",
          "name": "support",
          "type": "uint8"
        },
        {
          "indexed": false,
          "internalType": "uint256",
          "name": "weight",
          "type": "uint256"
        },
        {
          "indexed": false,
          "internalType": "string",
          "name": "reason",
          "type": "string"
        }
      ],
      "name": "VoteCast",
      "type": "event"
    },
    {
      "anonymous": false,
      "inputs": [
        {
          "indexed": false,
          "internalType": "uint256",
          "name": "oldVotingDelay",
          "type": "uint256"
        },
        {
          "indexed": false,
          "internalType": "uint256",
          "name": "newVotingDelay",
          "type": "uint256"
        }
      ],
      "name": "VotingDelaySet",
      "type": "event"
    },
    {
      "anonymous": false,
      "inputs": [
        {
          "indexed": false,
          "internalType": "uint256",
          "name": "oldVotingPeriod",
          "type": "uint256"
        },
        {
          "indexed": false,
          "internalType": "uint256",
          "name": "newVotingPeriod",
          "type": "uint256"
        }
      ],
      "name": "VotingPeriodSet",
      "type": "event"
    },
    {
      "inputs": [],
      "name": "BALLOT_TYPEHASH",
      "outputs": [
        {
          "internalType": "bytes32",
          "name": "",
          "type": "bytes32"
        }
      ],
      "stateMutability": "view",
      "type": "function"
    },
    {
      "inputs": [],
      "name": "COUNTING_MODE",
      "outputs": [
        {
          "internalType": "string",
          "name": "",
          "type": "string"
        }
      ],
      "stateMutability": "pure",
      "type": "function"
    },
    {
      "inputs": [
        {
          "internalType": "uint256",
          "name": "proposalId",
          "type": "uint256"
        }
      ],
      "name": "cancel",
      "outputs": [],
      "stateMutability": "nonpayable",
      "type": "function"
    },
    {
      "inputs": [
        {
          "internalType": "uint256",
          "name": "proposalId",
          "type": "uint256"
        },
        {
          "internalType": "uint8",
          "name": "support",
          "type": "uint8"
        }
      ],
      "name": "castVote",
      "outputs": [
        {
          "internalType": "uint256",
          "name": "",
          "type": "uint256"
        }
      ],
      "stateMutability": "nonpayable",
      "type": "function"
    },
    {
      "inputs": [
        {
          "internalType": "uint256",
          "name": "proposalId",
          "type": "uint256"
        },
        {
          "internalType": "uint8",
          "name": "support",
          "type": "uint8"
        },
        {
          "internalType": "uint8",
          "name": "v",
          "type": "uint8"
        },
        {
          "internalType": "bytes32",
          "name": "r",
          "type": "bytes32"
        },
        {
          "internalType": "bytes32",
          "name": "s",
          "type": "bytes32"
        }
      ],
      "name": "castVoteBySig",
      "outputs": [
        {
          "internalType": "uint256",
          "name": "",
          "type": "uint256"
        }
      ],
      "stateMutability": "nonpayable",
      "type": "function"
    },
    {
      "inputs": [
        {
          "internalType": "uint256",
          "name": "proposalId",
          "type": "uint256"
        },
        {
          "internalType": "uint8",
          "name": "support",
          "type": "uint8"
        },
        {
          "internalType": "string",
          "name": "reason",
          "type": "string"
        }
      ],
      "name": "castVoteWithReason",
      "outputs": [
        {
          "internalType": "uint256",
          "name": "",
          "type": "uint256"
        }
      ],
      "stateMutability": "nonpayable",
      "type": "function"
    },
    {
      "inputs": [
        {
          "internalType": "address[]",
          "name": "targets",
          "type": "address[]"
        },
        {
          "internalType": "uint256[]",
          "name": "values",
          "type": "uint256[]"
        },
        {
          "internalType": "bytes[]",
          "name": "calldatas",
          "type": "bytes[]"
        },
        {
          "internalType": "bytes32",
          "name": "descriptionHash",
          "type": "bytes32"
        }
      ],
      "name": "execute",
      "outputs": [
        {
          "internalType": "uint256",
          "name": "",
          "type": "uint256"
        }
      ],
      "stateMutability": "payable",
      "type": "function"
    },
    {
      "inputs": [
        {
          "internalType": "uint256",
          "name": "proposalId",
          "type": "uint256"
        }
      ],
      "name": "execute",
      "outputs": [],
      "stateMutability": "payable",
      "type": "function"
    },
    {
      "inputs": [
        {
          "internalType": "uint256",
          "name": "proposalId",
          "type": "uint256"
        }
      ],
      "name": "getActions",
      "outputs": [
        {
          "internalType": "address[]",
          "name": "targets",
          "type": "address[]"
        },
        {
          "internalType": "uint256[]",
          "name": "values",
          "type": "uint256[]"
        },
        {
          "internalType": "string[]",
          "name": "signatures",
          "type": "string[]"
        },
        {
          "internalType": "bytes[]",
          "name": "calldatas",
          "type": "bytes[]"
        }
      ],
      "stateMutability": "view",
      "type": "function"
    },
    {
      "inputs": [
        {
          "internalType": "uint256",
          "name": "proposalId",
          "type": "uint256"
        },
        {
          "internalType": "address",
          "name": "voter",
          "type": "address"
        }
      ],
      "name": "getReceipt",
      "outputs": [
        {
          "components": [
            {
              "internalType": "bool",
              "name": "hasVoted",
              "type": "bool"
            },
            {
              "internalType": "uint8",
              "name": "support",
              "type": "uint8"
            },
            {
              "internalType": "uint96",
              "name": "votes",
              "type": "uint96"
            }
          ],
          "internalType": "struct IGovernorCompatibilityBravoUpgradeable.Receipt",
          "name": "",
          "type": "tuple"
        }
      ],
      "stateMutability": "view",
      "type": "function"
    },
    {
      "inputs": [
        {
          "internalType": "address",
          "name": "account",
          "type": "address"
        },
        {
          "internalType": "uint256",
          "name": "blockNumber",
          "type": "uint256"
        }
      ],
      "name": "getVotes",
      "outputs": [
        {
          "internalType": "uint256",
          "name": "",
          "type": "uint256"
        }
      ],
      "stateMutability": "view",
      "type": "function"
    },
    {
      "inputs": [
        {
          "internalType": "address[]",
          "name": "_recipients",
          "type": "address[]"
        }
      ],
      "name": "giveVotingPower",
      "outputs": [],
      "stateMutability": "nonpayable",
      "type": "function"
    },
    {
      "inputs": [
        {
          "internalType": "uint256",
          "name": "proposalId",
          "type": "uint256"
        },
        {
          "internalType": "address",
          "name": "account",
          "type": "address"
        }
      ],
      "name": "hasVoted",
      "outputs": [
        {
          "internalType": "bool",
          "name": "",
          "type": "bool"
        }
      ],
      "stateMutability": "view",
      "type": "function"
    },
    {
      "inputs": [
        {
          "internalType": "address",
          "name": "",
          "type": "address"
        }
      ],
      "name": "hasVotingPower",
      "outputs": [
        {
          "internalType": "bool",
          "name": "",
          "type": "bool"
        }
      ],
      "stateMutability": "view",
      "type": "function"
    },
    {
      "inputs": [
        {
          "internalType": "address[]",
          "name": "targets",
          "type": "address[]"
        },
        {
          "internalType": "uint256[]",
          "name": "values",
          "type": "uint256[]"
        },
        {
          "internalType": "bytes[]",
          "name": "calldatas",
          "type": "bytes[]"
        },
        {
          "internalType": "bytes32",
          "name": "descriptionHash",
          "type": "bytes32"
        }
      ],
      "name": "hashProposal",
      "outputs": [
        {
          "internalType": "uint256",
          "name": "",
          "type": "uint256"
        }
      ],
      "stateMutability": "pure",
      "type": "function"
    },
    {
      "inputs": [
        {
          "internalType": "contract ERC20VotesUpgradeable",
          "name": "_token",
          "type": "address"
        },
        {
          "internalType": "contract TimelockControllerUpgradeable",
          "name": "_timelock",
          "type": "address"
        },
        {
          "internalType": "address",
          "name": "_steerTimeLock",
          "type": "address"
        },
        {
          "internalType": "address[]",
          "name": "_voters",
          "type": "address[]"
        }
      ],
      "name": "initialize",
      "outputs": [],
      "stateMutability": "nonpayable",
      "type": "function"
    },
    {
      "inputs": [],
      "name": "name",
      "outputs": [
        {
          "internalType": "string",
          "name": "",
          "type": "string"
        }
      ],
      "stateMutability": "view",
      "type": "function"
    },
    {
      "inputs": [],
      "name": "owner",
      "outputs": [
        {
          "internalType": "address",
          "name": "",
          "type": "address"
        }
      ],
      "stateMutability": "view",
      "type": "function"
    },
    {
      "inputs": [
        {
          "internalType": "uint256",
          "name": "proposalId",
          "type": "uint256"
        }
      ],
      "name": "proposalDeadline",
      "outputs": [
        {
          "internalType": "uint256",
          "name": "",
          "type": "uint256"
        }
      ],
      "stateMutability": "view",
      "type": "function"
    },
    {
      "inputs": [
        {
          "internalType": "uint256",
          "name": "proposalId",
          "type": "uint256"
        }
      ],
      "name": "proposalEta",
      "outputs": [
        {
          "internalType": "uint256",
          "name": "",
          "type": "uint256"
        }
      ],
      "stateMutability": "view",
      "type": "function"
    },
    {
      "inputs": [
        {
          "internalType": "uint256",
          "name": "proposalId",
          "type": "uint256"
        }
      ],
      "name": "proposalSnapshot",
      "outputs": [
        {
          "internalType": "uint256",
          "name": "",
          "type": "uint256"
        }
      ],
      "stateMutability": "view",
      "type": "function"
    },
    {
      "inputs": [],
      "name": "proposalThreshold",
      "outputs": [
        {
          "internalType": "uint256",
          "name": "",
          "type": "uint256"
        }
      ],
      "stateMutability": "view",
      "type": "function"
    },
    {
      "inputs": [
        {
          "internalType": "uint256",
          "name": "proposalId",
          "type": "uint256"
        }
      ],
      "name": "proposals",
      "outputs": [
        {
          "internalType": "uint256",
          "name": "id",
          "type": "uint256"
        },
        {
          "internalType": "address",
          "name": "proposer",
          "type": "address"
        },
        {
          "internalType": "uint256",
          "name": "eta",
          "type": "uint256"
        },
        {
          "internalType": "uint256",
          "name": "startBlock",
          "type": "uint256"
        },
        {
          "internalType": "uint256",
          "name": "endBlock",
          "type": "uint256"
        },
        {
          "internalType": "uint256",
          "name": "forVotes",
          "type": "uint256"
        },
        {
          "internalType": "uint256",
          "name": "againstVotes",
          "type": "uint256"
        },
        {
          "internalType": "uint256",
          "name": "abstainVotes",
          "type": "uint256"
        },
        {
          "internalType": "bool",
          "name": "canceled",
          "type": "bool"
        },
        {
          "internalType": "bool",
          "name": "executed",
          "type": "bool"
        }
      ],
      "stateMutability": "view",
      "type": "function"
    },
    {
      "inputs": [
        {
          "internalType": "address[]",
          "name": "targets",
          "type": "address[]"
        },
        {
          "internalType": "uint256[]",
          "name": "values",
          "type": "uint256[]"
        },
        {
          "internalType": "bytes[]",
          "name": "calldatas",
          "type": "bytes[]"
        },
        {
          "internalType": "string",
          "name": "description",
          "type": "string"
        }
      ],
      "name": "propose",
      "outputs": [
        {
          "internalType": "uint256",
          "name": "",
          "type": "uint256"
        }
      ],
      "stateMutability": "nonpayable",
      "type": "function"
    },
    {
      "inputs": [
        {
          "internalType": "address[]",
          "name": "targets",
          "type": "address[]"
        },
        {
          "internalType": "uint256[]",
          "name": "values",
          "type": "uint256[]"
        },
        {
          "internalType": "string[]",
          "name": "signatures",
          "type": "string[]"
        },
        {
          "internalType": "bytes[]",
          "name": "calldatas",
          "type": "bytes[]"
        },
        {
          "internalType": "string",
          "name": "description",
          "type": "string"
        }
      ],
      "name": "propose",
      "outputs": [
        {
          "internalType": "uint256",
          "name": "",
          "type": "uint256"
        }
      ],
      "stateMutability": "nonpayable",
      "type": "function"
    },
    {
      "inputs": [
        {
          "internalType": "address[]",
          "name": "targets",
          "type": "address[]"
        },
        {
          "internalType": "uint256[]",
          "name": "values",
          "type": "uint256[]"
        },
        {
          "internalType": "bytes[]",
          "name": "calldatas",
          "type": "bytes[]"
        },
        {
          "internalType": "bytes32",
          "name": "descriptionHash",
          "type": "bytes32"
        }
      ],
      "name": "queue",
      "outputs": [
        {
          "internalType": "uint256",
          "name": "",
          "type": "uint256"
        }
      ],
      "stateMutability": "nonpayable",
      "type": "function"
    },
    {
      "inputs": [
        {
          "internalType": "uint256",
          "name": "proposalId",
          "type": "uint256"
        }
      ],
      "name": "queue",
      "outputs": [],
      "stateMutability": "nonpayable",
      "type": "function"
    },
    {
      "inputs": [
        {
          "internalType": "uint256",
          "name": "blockNumber",
          "type": "uint256"
        }
      ],
      "name": "quorum",
      "outputs": [
        {
          "internalType": "uint256",
          "name": "",
          "type": "uint256"
        }
      ],
      "stateMutability": "view",
      "type": "function"
    },
    {
      "inputs": [],
      "name": "quorumDenominator",
      "outputs": [
        {
          "internalType": "uint256",
          "name": "",
          "type": "uint256"
        }
      ],
      "stateMutability": "view",
      "type": "function"
    },
    {
      "inputs": [],
      "name": "quorumNumerator",
      "outputs": [
        {
          "internalType": "uint256",
          "name": "",
          "type": "uint256"
        }
      ],
      "stateMutability": "view",
      "type": "function"
    },
    {
      "inputs": [],
      "name": "quorumVotes",
      "outputs": [
        {
          "internalType": "uint256",
          "name": "",
          "type": "uint256"
        }
      ],
      "stateMutability": "view",
      "type": "function"
    },
    {
      "inputs": [],
      "name": "renounceOwnership",
      "outputs": [],
      "stateMutability": "nonpayable",
      "type": "function"
    },
    {
      "inputs": [
        {
          "internalType": "uint256",
          "name": "newProposalThreshold",
          "type": "uint256"
        }
      ],
      "name": "setProposalThreshold",
      "outputs": [],
      "stateMutability": "nonpayable",
      "type": "function"
    },
    {
      "inputs": [
        {
          "internalType": "uint256",
          "name": "newVotingDelay",
          "type": "uint256"
        }
      ],
      "name": "setVotingDelay",
      "outputs": [],
      "stateMutability": "nonpayable",
      "type": "function"
    },
    {
      "inputs": [
        {
          "internalType": "uint256",
          "name": "newVotingPeriod",
          "type": "uint256"
        }
      ],
      "name": "setVotingPeriod",
      "outputs": [],
      "stateMutability": "nonpayable",
      "type": "function"
    },
    {
      "inputs": [
        {
          "internalType": "uint256",
          "name": "proposalId",
          "type": "uint256"
        }
      ],
      "name": "state",
      "outputs": [
        {
          "internalType": "enum IGovernorUpgradeable.ProposalState",
          "name": "",
          "type": "uint8"
        }
      ],
      "stateMutability": "view",
      "type": "function"
    },
    {
      "inputs": [
        {
          "internalType": "bytes4",
          "name": "interfaceId",
          "type": "bytes4"
        }
      ],
      "name": "supportsInterface",
      "outputs": [
        {
          "internalType": "bool",
          "name": "",
          "type": "bool"
        }
      ],
      "stateMutability": "view",
      "type": "function"
    },
    {
      "inputs": [],
      "name": "timelock",
      "outputs": [
        {
          "internalType": "address",
          "name": "",
          "type": "address"
        }
      ],
      "stateMutability": "view",
      "type": "function"
    },
    {
      "inputs": [],
      "name": "token",
      "outputs": [
        {
          "internalType": "contract ERC20VotesUpgradeable",
          "name": "",
          "type": "address"
        }
      ],
      "stateMutability": "view",
      "type": "function"
    },
    {
      "inputs": [
        {
          "internalType": "address",
          "name": "newOwner",
          "type": "address"
        }
      ],
      "name": "transferOwnership",
      "outputs": [],
      "stateMutability": "nonpayable",
      "type": "function"
    },
    {
      "inputs": [
        {
          "internalType": "uint256",
          "name": "newQuorumNumerator",
          "type": "uint256"
        }
      ],
      "name": "updateQuorumNumerator",
      "outputs": [],
      "stateMutability": "nonpayable",
      "type": "function"
    },
    {
      "inputs": [
        {
          "internalType": "contract TimelockControllerUpgradeable",
          "name": "newTimelock",
          "type": "address"
        }
      ],
      "name": "updateTimelock",
      "outputs": [],
      "stateMutability": "nonpayable",
      "type": "function"
    },
    {
      "inputs": [
        {
          "internalType": "address",
          "name": "newImplementation",
          "type": "address"
        }
      ],
      "name": "upgradeTo",
      "outputs": [],
      "stateMutability": "nonpayable",
      "type": "function"
    },
    {
      "inputs": [
        {
          "internalType": "address",
          "name": "newImplementation",
          "type": "address"
        },
        {
          "internalType": "bytes",
          "name": "data",
          "type": "bytes"
        }
      ],
      "name": "upgradeToAndCall",
      "outputs": [],
      "stateMutability": "payable",
      "type": "function"
    },
    {
      "inputs": [],
      "name": "version",
      "outputs": [
        {
          "internalType": "string",
          "name": "",
          "type": "string"
        }
      ],
      "stateMutability": "view",
      "type": "function"
    },
    {
      "inputs": [],
      "name": "votingDelay",
      "outputs": [
        {
          "internalType": "uint256",
          "name": "",
          "type": "uint256"
        }
      ],
      "stateMutability": "view",
      "type": "function"
    },
    {
      "inputs": [],
      "name": "votingPeriod",
      "outputs": [
        {
          "internalType": "uint256",
          "name": "",
          "type": "uint256"
        }
      ],
      "stateMutability": "view",
      "type": "function"
    },
    {
      "stateMutability": "payable",
      "type": "receive"
    }
  ],
  "bytecode": "0x60a0604052306080523480156200001557600080fd5b50600054610100900460ff16620000335760005460ff16156200003d565b6200003d620000e2565b620000a55760405162461bcd60e51b815260206004820152602e60248201527f496e697469616c697a61626c653a20636f6e747261637420697320616c72656160448201526d191e481a5b9a5d1a585b1a5e995960921b606482015260840160405180910390fd5b600054610100900460ff16158015620000c8576000805461ffff19166101011790555b8015620000db576000805461ff00191690555b5062000106565b6000620000fa306200010060201b620021741760201c565b15905090565b3b151590565b608051615094620001376000396000818161117a015281816111ba01528181611604015261164401526150946000f3fe60806040526004361061028c5760003560e01c80638da5cb5b1161015a578063dd4e2ba5116100c1578063eb9019d41161007a578063eb9019d414610942578063ece40cc114610962578063f2fde38b14610982578063f8ce560a146109a2578063fc0c546a146109c2578063fe0d94c1146109e357600080fd5b8063dd4e2ba51461079d578063ddf0b009146107e3578063deaaa7cc14610803578063e23a9a5214610837578063e6bfbfd814610902578063ea0217cf1461092257600080fd5b8063b58131b011610113578063b58131b0146106e9578063c01f9e37146106fe578063c59057e41461071e578063cf93d92f1461073e578063d33219b41461075e578063da95691a1461077d57600080fd5b80638da5cb5b1461061b57806397c3d3341461064e578063a7713a7014610662578063a890c91014610678578063a9b4563c14610698578063ab58fb8e146106c957600080fd5b80633932abb1116101fe57806354fd4d50116101b757806354fd4d501461055c578063567813881461058657806370b0f660146105a6578063715018a6146105c65780637b3c71d3146105db5780637d5e81e2146105fb57600080fd5b80633932abb11461047c5780633bccf4fd146104915780633e4f49e6146104b157806340e58ee5146104de57806343859632146104fe5780634f1ef2861461054957600080fd5b8063160cbed711610250578063160cbed7146103c457806324bc1a64146103e45780632656227d146103f95780632d63f6931461040c578063328dd9821461042c5780633659cfe61461045c57600080fd5b8063013cf08b146102b457806301ffc9a71461032f57806302a251a31461035f57806306f3f9e61461038257806306fdde03146103a257600080fd5b366102af573061029a6109f6565b6001600160a01b0316146102ad57600080fd5b005b600080fd5b3480156102c057600080fd5b506102d46102cf3660046141ff565b610a10565b604080519a8b526001600160a01b0390991660208b0152978901969096526060880194909452608087019290925260a086015260c085015260e084015215156101008301521515610120820152610140015b60405180910390f35b34801561033b57600080fd5b5061034f61034a366004614218565b610aba565b6040519015158152602001610326565b34801561036b57600080fd5b50610374610acb565b604051908152602001610326565b34801561038e57600080fd5b506102ad61039d3660046141ff565b610ad7565b3480156103ae57600080fd5b506103b7610b24565b604051610326919061429e565b3480156103d057600080fd5b506103746103df3660046144ec565b610bb7565b3480156103f057600080fd5b50610374610dbc565b6103746104073660046144ec565b610dcc565b34801561041857600080fd5b506103746104273660046141ff565b610ea5565b34801561043857600080fd5b5061044c6104473660046141ff565b610edd565b6040516103269493929190614644565b34801561046857600080fd5b506102ad610477366004614691565b61116f565b34801561048857600080fd5b50610374611235565b34801561049d57600080fd5b506103746104ac3660046146c4565b611241565b3480156104bd57600080fd5b506104d16104cc3660046141ff565b6112d5565b6040516103269190614728565b3480156104ea57600080fd5b506102ad6104f93660046141ff565b6112e0565b34801561050a57600080fd5b5061034f610519366004614750565b6000828152610193602090815260408083206001600160a01b038516845260080190915290205460ff1692915050565b6102ad610557366004614780565b6115f9565b34801561056857600080fd5b506040805180820190915260018152603160f81b60208201526103b7565b34801561059257600080fd5b506103746105a13660046147cf565b6116b3565b3480156105b257600080fd5b506102ad6105c13660046141ff565b6116dc565b3480156105d257600080fd5b506102ad61171d565b3480156105e757600080fd5b506103746105f63660046147fb565b611754565b34801561060757600080fd5b50610374610616366004614881565b6117a6565b34801561062757600080fd5b5061025c546001600160a01b03165b6040516001600160a01b039091168152602001610326565b34801561065a57600080fd5b506064610374565b34801561066e57600080fd5b506101f854610374565b34801561068457600080fd5b506102ad610693366004614691565b6117f0565b3480156106a457600080fd5b5061034f6106b3366004614691565b6102f36020526000908152604090205460ff1681565b3480156106d557600080fd5b506103746106e43660046141ff565b611831565b3480156106f557600080fd5b506103746118ce565b34801561070a57600080fd5b506103746107193660046141ff565b6118da565b34801561072a57600080fd5b506103746107393660046144ec565b61190a565b34801561074a57600080fd5b506102ad61075936600461492d565b611944565b34801561076a57600080fd5b5061022a546001600160a01b0316610636565b34801561078957600080fd5b50610374610798366004614961565b6119c5565b3480156107a957600080fd5b5060408051808201909152601a81527f737570706f72743d627261766f2671756f72756d3d627261766f00000000000060208201526103b7565b3480156107ef57600080fd5b506102ad6107fe3660046141ff565b611a07565b34801561080f57600080fd5b506103747f150214d74d59b7d1e90c73fc22ef3d991dd0a76b046543d4d80ab92d2a50328f81565b34801561084357600080fd5b506108d2610852366004614750565b6040805160608101825260008082526020820181905291810191909152506000918252610193602090815260408084206001600160a01b0393909316845260089092018152918190208151606081018352905460ff8082161515835261010082041693820193909352620100009092046001600160601b03169082015290565b6040805182511515815260208084015160ff1690820152918101516001600160601b031690820152606001610326565b34801561090e57600080fd5b506102ad61091d366004614a32565b611c76565b34801561092e57600080fd5b506102ad61093d3660046141ff565b611dd3565b34801561094e57600080fd5b5061037461095d366004614a9a565b611e14565b34801561096e57600080fd5b506102ad61097d3660046141ff565b611e20565b34801561098e57600080fd5b506102ad61099d366004614691565b611e61565b3480156109ae57600080fd5b506103746109bd3660046141ff565b611efa565b3480156109ce57600080fd5b506101c554610636906001600160a01b031681565b6102ad6109f13660046141ff565b611f05565b6000610a0b61022a546001600160a01b031690565b905090565b8060008080808080808080610a248a611831565b9750610a2f8b610ea5565b9650610a3a8b6118da565b60008c81526101936020526040812080546005820154600683015460078401546001600160a01b039093169e50949a509850929650919450610a7b8d6112d5565b90506002816007811115610a9157610a91614712565b1493506007816007811115610aa857610aa8614712565b14925050509193959799509193959799565b6000610ac58261217a565b92915050565b6000610a0b6101625490565b610adf6109f6565b6001600160a01b0316336001600160a01b031614610b185760405162461bcd60e51b8152600401610b0f90614ac6565b60405180910390fd5b610b218161219f565b50565b606061012f8054610b3490614afd565b80601f0160208091040260200160405190810160405280929190818152602001828054610b6090614afd565b8015610bad5780601f10610b8257610100808354040283529160200191610bad565b820191906000526020600020905b815481529060010190602001808311610b9057829003601f168201915b5050505050905090565b600080610bc68686868661190a565b90506004610bd3826112d5565b6007811115610be457610be4614712565b14610c015760405162461bcd60e51b8152600401610b0f90614b32565b61022a546040805163793d064960e11b815290516000926001600160a01b03169163f27a0c929160048083019260209291908290030181865afa158015610c4c573d6000803e3d6000fd5b505050506040513d601f19601f82011682018060405250810190610c709190614b73565b61022a5460405163b1c5f42760e01b81529192506001600160a01b03169063b1c5f42790610cab908a908a908a906000908b90600401614b8c565b602060405180830381865afa158015610cc8573d6000803e3d6000fd5b505050506040513d601f19601f82011682018060405250810190610cec9190614b73565b600083815261022b60205260408082209290925561022a5491516308f2a0bb60e41b81526001600160a01b0390921691638f2a0bb091610d39918b918b918b91908b908990600401614bda565b600060405180830381600087803b158015610d5357600080fd5b505af1158015610d67573d6000803e3d6000fd5b505050507f9a2e42fd6722813d69113e7d0079d3d940171428df7373df9c7f7617cfda2892828242610d999190614c48565b604080519283526020830191909152015b60405180910390a15095945050505050565b6000610a0b6109bd600143614c60565b600080610ddb8686868661190a565b90506000610de8826112d5565b90506004816007811115610dfe57610dfe614712565b1480610e1b57506005816007811115610e1957610e19614712565b145b610e375760405162461bcd60e51b8152600401610b0f90614b32565b6000828152610130602052604090819020600201805460ff19166001179055517f712ae1383f79ac853f8d882153778e0260ef8f03b504e2866e0593e04d2b291f90610e869084815260200190565b60405180910390a1610e9b8288888888612268565b5095945050505050565b6000818152610130602090815260408083208151928301909152546001600160401b0316908190525b6001600160401b031692915050565b6060806060806000610193600087815260200190815260200160002090508060010181600201826003018360040183805480602002602001604051908101604052809291908181526020018280548015610f6057602002820191906000526020600020905b81546001600160a01b03168152600190910190602001808311610f42575b5050505050935082805480602002602001604051908101604052809291908181526020018280548015610fb257602002820191906000526020600020905b815481526020019060010190808311610f9e575b5050505050925081805480602002602001604051908101604052809291908181526020016000905b82821015611086578382906000526020600020018054610ff990614afd565b80601f016020809104026020016040519081016040528092919081815260200182805461102590614afd565b80156110725780601f1061104757610100808354040283529160200191611072565b820191906000526020600020905b81548152906001019060200180831161105557829003601f168201915b505050505081526020019060010190610fda565b50505050915080805480602002602001604051908101604052809291908181526020016000905b828210156111595783829060005260206000200180546110cc90614afd565b80601f01602080910402602001604051908101604052809291908181526020018280546110f890614afd565b80156111455780601f1061111a57610100808354040283529160200191611145565b820191906000526020600020905b81548152906001019060200180831161112857829003601f168201915b5050505050815260200190600101906110ad565b5050505090509450945094509450509193509193565b306001600160a01b037f00000000000000000000000000000000000000000000000000000000000000001614156111b85760405162461bcd60e51b8152600401610b0f90614c77565b7f00000000000000000000000000000000000000000000000000000000000000006001600160a01b03166111ea612275565b6001600160a01b0316146112105760405162461bcd60e51b8152600401610b0f90614cc3565b611219816122a3565b60408051600080825260208201909252610b21918391906122ce565b6000610a0b6101615490565b604080517f150214d74d59b7d1e90c73fc22ef3d991dd0a76b046543d4d80ab92d2a50328f602082015290810186905260ff8516606082015260009081906112ad906112a59060800160405160208183030381529060405280519060200120612412565b868686612460565b90506112ca8782886040518060200160405280600081525061247e565b979650505050505050565b6000610ac5826124f9565b60008181526101936020526040902080546001600160a01b0316336001600160a01b0316148061132f57506113136118ce565b815461132d906001600160a01b031661095d600143614c60565b105b61138b5760405162461bcd60e51b815260206004820152602760248201527f476f7665726e6f72427261766f3a2070726f706f7365722061626f76652074686044820152661c995cda1bdb1960ca1b6064820152608401610b0f565b6115f4816001018054806020026020016040519081016040528092919081815260200182805480156113e657602002820191906000526020600020905b81546001600160a01b031681526001909101906020018083116113c8575b50505050508260020180548060200260200160405190810160405280929190818152602001828054801561143957602002820191906000526020600020905b815481526020019060010190808311611425575b50505050506115ea84600301805480602002602001604051908101604052809291908181526020016000905b8282101561151157838290600052602060002001805461148490614afd565b80601f01602080910402602001604051908101604052809291908181526020018280546114b090614afd565b80156114fd5780601f106114d2576101008083540402835291602001916114fd565b820191906000526020600020905b8154815290600101906020018083116114e057829003601f168201915b505050505081526020019060010190611465565b50505060048701805460408051602080840282018101909252828152935060009084015b828210156115e157838290600052602060002001805461155490614afd565b80601f016020809104026020016040519081016040528092919081815260200182805461158090614afd565b80156115cd5780601f106115a2576101008083540402835291602001916115cd565b820191906000526020600020905b8154815290600101906020018083116115b057829003601f168201915b505050505081526020019060010190611535565b505050506125c9565b84600901546126fb565b505050565b306001600160a01b037f00000000000000000000000000000000000000000000000000000000000000001614156116425760405162461bcd60e51b8152600401610b0f90614c77565b7f00000000000000000000000000000000000000000000000000000000000000006001600160a01b0316611674612275565b6001600160a01b03161461169a5760405162461bcd60e51b8152600401610b0f90614cc3565b6116a3826122a3565b6116af828260016122ce565b5050565b6000803390506116d48482856040518060200160405280600081525061247e565b949350505050565b6116e46109f6565b6001600160a01b0316336001600160a01b0316146117145760405162461bcd60e51b8152600401610b0f90614ac6565b610b218161276c565b61025c546001600160a01b031633146117485760405162461bcd60e51b8152600401610b0f90614d0f565b61175260006127af565b565b60008033905061179c86828787878080601f01602080910402602001604051908101604052809392919081815260200183838082843760009201919091525061247e92505050565b9695505050505050565b3360009081526102f3602052604081205460ff1615156001146117db5760405162461bcd60e51b8152600401610b0f90614d44565b6117e785858585612802565b95945050505050565b6117f86109f6565b6001600160a01b0316336001600160a01b0316146118285760405162461bcd60e51b8152600401610b0f90614ac6565b610b218161286a565b61022a54600082815261022b602052604080822054905163d45c443560e01b81526004810191909152909182916001600160a01b039091169063d45c443590602401602060405180830381865afa158015611890573d6000803e3d6000fd5b505050506040513d601f19601f820116820180604052508101906118b49190614b73565b9050806001146118c457806118c7565b60005b9392505050565b6000610a0b6101635490565b6000818152610130602090815260408083208151928301909152600101546001600160401b031690819052610ece565b6000848484846040516020016119239493929190614d89565b60408051601f19818403018152919052805160209091012095945050505050565b6102f2546001600160a01b0316331461195c57600080fd5b60005b81518110156116af5760016102f3600084848151811061198157611981614dd4565b6020908102919091018101516001600160a01b03168252810191909152604001600020805460ff1916911515919091179055806119bd81614dea565b91505061195f565b3360009081526102f3602052604081205460ff1615156001146119fa5760405162461bcd60e51b8152600401610b0f90614d44565b61179c86868686866128d5565b6000818152610193602090815260409182902060018101805484518185028101850190955280855291936115f493909290830182828015611a7157602002820191906000526020600020905b81546001600160a01b03168152600190910190602001808311611a53575b505050505082600201805480602002602001604051908101604052809291908181526020018280548015611ac457602002820191906000526020600020905b815481526020019060010190808311611ab0575b5050505050611c6c84600301805480602002602001604051908101604052809291908181526020016000905b82821015611b9c578382906000526020600020018054611b0f90614afd565b80601f0160208091040260200160405190810160405280929190818152602001828054611b3b90614afd565b8015611b885780601f10611b5d57610100808354040283529160200191611b88565b820191906000526020600020905b815481529060010190602001808311611b6b57829003601f168201915b505050505081526020019060010190611af0565b50505060048701805460408051602080840282018101909252828152935060009084015b828210156115e1578382906000526020600020018054611bdf90614afd565b80601f0160208091040260200160405190810160405280929190818152602001828054611c0b90614afd565b8015611c585780601f10611c2d57610100808354040283529160200191611c58565b820191906000526020600020905b815481529060010190602001808311611c3b57829003601f168201915b505050505081526020019060010190611bc0565b8460090154610bb7565b600054610100900460ff16611c915760005460ff1615611c95565b303b155b611cf85760405162461bcd60e51b815260206004820152602e60248201527f496e697469616c697a61626c653a20636f6e747261637420697320616c72656160448201526d191e481a5b9a5d1a585b1a5e995960921b6064820152608401610b0f565b600054610100900460ff16158015611d1a576000805461ffff19166101011790555b611d4a6040518060400160405280600f81526020016e5374656572476f7665726e616e636560881b8152506128fa565b611d61600161b2fa68056bc75e2d63100000612969565b611d696129b3565b611d7285612a0a565b611d7c6028612a52565b611d8584612a9a565b611d8d612aea565b611d95612b21565b6102f280546001600160a01b0319166001600160a01b038516179055611dba82612b48565b8015611dcc576000805461ff00191690555b5050505050565b611ddb6109f6565b6001600160a01b0316336001600160a01b031614611e0b5760405162461bcd60e51b8152600401610b0f90614ac6565b610b2181612bb1565b60006118c78383612c54565b611e286109f6565b6001600160a01b0316336001600160a01b031614611e585760405162461bcd60e51b8152600401610b0f90614ac6565b610b2181612ccb565b61025c546001600160a01b03163314611e8c5760405162461bcd60e51b8152600401610b0f90614d0f565b6001600160a01b038116611ef15760405162461bcd60e51b815260206004820152602660248201527f4f776e61626c653a206e6577206f776e657220697320746865207a65726f206160448201526564647265737360d01b6064820152608401610b0f565b610b21816127af565b6000610ac582612d0e565b6000818152610193602090815260409182902060018101805484518185028101850190955280855291936115f493909290830182828015611f6f57602002820191906000526020600020905b81546001600160a01b03168152600190910190602001808311611f51575b505050505082600201805480602002602001604051908101604052809291908181526020018280548015611fc257602002820191906000526020600020905b815481526020019060010190808311611fae575b505050505061216a84600301805480602002602001604051908101604052809291908181526020016000905b8282101561209a57838290600052602060002001805461200d90614afd565b80601f016020809104026020016040519081016040528092919081815260200182805461203990614afd565b80156120865780601f1061205b57610100808354040283529160200191612086565b820191906000526020600020905b81548152906001019060200180831161206957829003601f168201915b505050505081526020019060010190611fee565b50505060048701805460408051602080840282018101909252828152935060009084015b828210156115e15783829060005260206000200180546120dd90614afd565b80601f016020809104026020016040519081016040528092919081815260200182805461210990614afd565b80156121565780601f1061212b57610100808354040283529160200191612156565b820191906000526020600020905b81548152906001019060200180831161213957829003601f168201915b5050505050815260200190600101906120be565b8460090154610dcc565b3b151590565b60006001600160e01b03198216636e665ced60e01b1480610ac55750610ac582612d98565b60648111156122225760405162461bcd60e51b815260206004820152604360248201527f476f7665726e6f72566f74657351756f72756d4672616374696f6e3a2071756f60448201527f72756d4e756d657261746f72206f7665722071756f72756d44656e6f6d696e616064820152623a37b960e91b608482015260a401610b0f565b6101f880549082905560408051828152602081018490527f0553476bf02ef2726e8ce5ced78d63e26e602e4a2257b1f559418e24b4633997910160405180910390a15050565b611dcc8585858585612dcd565b7f360894a13ba1a3210667c828492db98dca3e2076cc3735a920a3ca505d382bbc546001600160a01b031690565b61025c546001600160a01b03163314610b215760405162461bcd60e51b8152600401610b0f90614d0f565b60006122d8612275565b90506122e384612e42565b6000835111806122f05750815b15612301576122ff8484612ee7565b505b7f4910fdfa16fed3260ed0e7147f7cc6da11a60208b5b9406d12a635614ffd9143805460ff16611dcc57805460ff191660011781556040516001600160a01b038316602482015261238090869060440160408051601f198184030181529190526020810180516001600160e01b0316631b2ce7f360e11b179052612ee7565b50805460ff19168155612391612275565b6001600160a01b0316826001600160a01b0316146124095760405162461bcd60e51b815260206004820152602f60248201527f45524331393637557067726164653a207570677261646520627265616b73206660448201526e75727468657220757067726164657360881b6064820152608401610b0f565b611dcc85612fc9565b6000610ac561241f613009565b8360405161190160f01b6020820152602281018390526042810182905260009060620160405160208183030381529060405280519060200120905092915050565b600080600061247187878787613084565b91509150610e9b81613171565b3360009081526102f3602052604081205460ff1615156001146124ed5760405162461bcd60e51b815260206004820152602160248201527f596f7520646f6e2774206861766520706f77657220746f206361737420766f746044820152606560f81b6064820152608401610b0f565b6117e78585858561332c565b60008061250583613437565b9050600481600781111561251b5761251b614712565b146125265792915050565b600083815261022b602052604090205480612542575092915050565b61022a54604051632ab0f52960e01b8152600481018390526001600160a01b0390911690632ab0f52990602401602060405180830381865afa15801561258c573d6000803e3d6000fd5b505050506040513d601f19601f820116820180604052508101906125b09190614e05565b156125bf575060079392505050565b5060059392505050565b6060600082516001600160401b038111156125e6576125e66142b1565b60405190808252806020026020018201604052801561261957816020015b60608152602001906001900390816126045790505b50905060005b84518110156126f35784818151811061263a5761263a614dd4565b6020026020010151516000146126aa5784818151811061265c5761265c614dd4565b60200260200101518051906020012084828151811061267d5761267d614dd4565b6020026020010151604051602001612696929190614e27565b6040516020818303038152906040526126c5565b8381815181106126bc576126bc614dd4565b60200260200101515b8282815181106126d7576126d7614dd4565b6020026020010181905250806126ec90614dea565b905061261f565b509392505050565b3360009081526102f3602052604081205460ff1615156001146127605760405162461bcd60e51b815260206004820152601e60248201527f596f7520646f6e2774206861766520706f77657220746f2063616e63656c00006044820152606401610b0f565b6117e7858585856135a0565b6101615460408051918252602082018390527fc565b045403dc03c2eea82b81a0465edad9e2e7fc4d97e11421c209da93d7a93910160405180910390a161016155565b61025c80546001600160a01b038381166001600160a01b0319831681179093556040519116919082907f8be0079c531659141344cd1fd0a4f28419497f9722a3daafe3b4186f6b6457e090600090a35050565b600061285e33868686516001600160401b03811115612823576128236142b1565b60405190808252806020026020018201604052801561285657816020015b60608152602001906001900390816128415790505b508787613656565b6117e785858585613714565b61022a54604080516001600160a01b03928316815291831660208301527f08f74ea46ef7894f65eabfb5e6e695de773a000b47c529ab559178069b226401910160405180910390a161022a80546001600160a01b0319166001600160a01b0392909216919091179055565b60006128e5338787878787613656565b61179c86866128f487876125c9565b856117a6565b600054610100900460ff166129215760405162461bcd60e51b8152600401610b0f90614e58565b6129296139f0565b6129316139f0565b612958816129536040805180820190915260018152603160f81b602082015290565b613a17565b6129606139f0565b610b2181613a58565b600054610100900460ff166129905760405162461bcd60e51b8152600401610b0f90614e58565b6129986139f0565b6129a06139f0565b6129a86139f0565b6115f4838383613a93565b600054610100900460ff166129da5760405162461bcd60e51b8152600401610b0f90614e58565b6129e26139f0565b6129ea6139f0565b6129f26139f0565b6129fa6139f0565b612a026139f0565b6117526139f0565b600054610100900460ff16612a315760405162461bcd60e51b8152600401610b0f90614e58565b612a396139f0565b612a416139f0565b612a496139f0565b610b2181613ad5565b600054610100900460ff16612a795760405162461bcd60e51b8152600401610b0f90614e58565b612a816139f0565b612a896139f0565b612a916139f0565b610b2181613b1f565b600054610100900460ff16612ac15760405162461bcd60e51b8152600401610b0f90614e58565b612ac96139f0565b612ad16139f0565b612ad96139f0565b612ae16139f0565b610b2181613b46565b600054610100900460ff16612b115760405162461bcd60e51b8152600401610b0f90614e58565b612b196139f0565b611752613b6d565b600054610100900460ff166129fa5760405162461bcd60e51b8152600401610b0f90614e58565b60005b81518110156116af5760016102f36000848481518110612b6d57612b6d614dd4565b6020908102919091018101516001600160a01b03168252810191909152604001600020805460ff191691151591909117905580612ba981614dea565b915050612b4b565b60008111612c115760405162461bcd60e51b815260206004820152602760248201527f476f7665726e6f7253657474696e67733a20766f74696e6720706572696f6420604482015266746f6f206c6f7760c81b6064820152608401610b0f565b6101625460408051918252602082018390527f7e3f7f0708a84de9203036abaa450dccc85ad5ff52f78c170f3edb55cf5e8828910160405180910390a161016255565b6101c554604051630748d63560e31b81526001600160a01b038481166004830152602482018490526000921690633a46b1a890604401602060405180830381865afa158015612ca7573d6000803e3d6000fd5b505050506040513d601f19601f820116820180604052508101906118c79190614b73565b6101635460408051918252602082018390527fccb45da8d5717e6c4544694297c4ba5cf151d455c9bb0ed4fc7a38411bc05461910160405180910390a161016355565b600060646101f8546101c554604051632394e7a360e21b8152600481018690526001600160a01b0390911690638e539e8c90602401602060405180830381865afa158015612d60573d6000803e3d6000fd5b505050506040513d601f19601f82011682018060405250810190612d849190614b73565b612d8e9190614ea3565b610ac59190614ec2565b60006001600160e01b0319821663bf26d89760e01b1480610ac557506301ffc9a760e01b6001600160e01b0319831614610ac5565b61022a5460405163e38335e560e01b81526001600160a01b039091169063e38335e5903490612e09908890889088906000908990600401614b8c565b6000604051808303818588803b158015612e2257600080fd5b505af1158015612e36573d6000803e3d6000fd5b50505050505050505050565b803b612ea65760405162461bcd60e51b815260206004820152602d60248201527f455243313936373a206e657720696d706c656d656e746174696f6e206973206e60448201526c1bdd08184818dbdb9d1c9858dd609a1b6064820152608401610b0f565b7f360894a13ba1a3210667c828492db98dca3e2076cc3735a920a3ca505d382bbc80546001600160a01b0319166001600160a01b0392909216919091179055565b6060823b612f465760405162461bcd60e51b815260206004820152602660248201527f416464726573733a2064656c65676174652063616c6c20746f206e6f6e2d636f6044820152651b9d1c9858dd60d21b6064820152608401610b0f565b600080846001600160a01b031684604051612f619190614ee4565b600060405180830381855af49150503d8060008114612f9c576040519150601f19603f3d011682016040523d82523d6000602084013e612fa1565b606091505b50915091506117e7828260405180606001604052806027815260200161503860279139613b9d565b612fd281612e42565b6040516001600160a01b038216907fbc7cd75a20ee27fd9adebab32041f755214dbc6bffa90cc0225b39da2e5c2d3b90600090a250565b6000610a0b7f8b73c3c69bb8fe3d512ecc4cf759cc79239f7b179b0ffacaa9a75d522b39400f61303860655490565b6066546040805160208101859052908101839052606081018290524660808201523060a082015260009060c0016040516020818303038152906040528051906020012090509392505050565b6000807f7fffffffffffffffffffffffffffffff5d576e7357a4501ddfe92f46681b20a08311156130bb5750600090506003613168565b8460ff16601b141580156130d357508460ff16601c14155b156130e45750600090506004613168565b6040805160008082526020820180845289905260ff881692820192909252606081018690526080810185905260019060a0016020604051602081039080840390855afa158015613138573d6000803e3d6000fd5b5050604051601f1901519150506001600160a01b03811661316157600060019250925050613168565b9150600090505b94509492505050565b600081600481111561318557613185614712565b141561318e5750565b60018160048111156131a2576131a2614712565b14156131f05760405162461bcd60e51b815260206004820152601860248201527f45434453413a20696e76616c6964207369676e617475726500000000000000006044820152606401610b0f565b600281600481111561320457613204614712565b14156132525760405162461bcd60e51b815260206004820152601f60248201527f45434453413a20696e76616c6964207369676e6174757265206c656e677468006044820152606401610b0f565b600381600481111561326657613266614712565b14156132bf5760405162461bcd60e51b815260206004820152602260248201527f45434453413a20696e76616c6964207369676e6174757265202773272076616c604482015261756560f01b6064820152608401610b0f565b60048160048111156132d3576132d3614712565b1415610b215760405162461bcd60e51b815260206004820152602260248201527f45434453413a20696e76616c6964207369676e6174757265202776272076616c604482015261756560f01b6064820152608401610b0f565b6000848152610130602052604081206001613346876112d5565b600781111561335757613357614712565b146133b05760405162461bcd60e51b815260206004820152602360248201527f476f7665726e6f723a20766f7465206e6f742063757272656e746c792061637460448201526269766560e81b6064820152608401610b0f565b604080516020810190915281546001600160401b0316908190526000906133d8908790611e14565b90506133e687878784613bd6565b856001600160a01b03167fb8e138887d0aa13bab447e82de9d5c1777041ecd21ca36ba824ff1e6c07ddda4888784886040516134259493929190614f00565b60405180910390a29695505050505050565b600081815261013060209081526040808320815160a08101835281546001600160401b039081166080830190815282528351808601855260018401549091168152938101939093526002015460ff8082161580159385019390935261010090910416151560608301526134ad5750600792915050565b8060600151156134c05750600292915050565b80515143906001600160401b0316106134dc5750600092915050565b436134e982602001515190565b6001600160401b0316106135005750600192915050565b61350d8160200151613d7c565b156135525761351b83613dab565b801561353e57506000838152610193602052604090206006810154600590910154115b6135495760036118c7565b60049392505050565b60405162461bcd60e51b815260206004820152601d60248201527f476f7665726e6f723a20756e6b6e6f776e2070726f706f73616c2069640000006044820152606401610b0f565b50919050565b6000806135af86868686613dd4565b600081815261022b6020526040902054909150156117e75761022a54600082815261022b60205260409081902054905163c4d252f560e01b81526001600160a01b039092169163c4d252f59161360b9160040190815260200190565b600060405180830381600087803b15801561362557600080fd5b505af1158015613639573d6000803e3d6000fd5b505050600082815261022b60205260408120555095945050505050565b805160208201206000613674878761366e88886125c9565b8561190a565b6000818152610193602052604090206009810154919250906137095780546001600160a01b0319166001600160a01b038a1617815587516136be90600183019060208b0190613fb5565b5086516136d490600283019060208a0190614016565b5085516136ea9060038301906020890190614051565b50845161370090600483019060208801906140aa565b50600981018390555b505050505050505050565b600061371e6118ce565b61372d3361095d600143614c60565b10156137ad5760405162461bcd60e51b815260206004820152604360248201527f476f7665726e6f72436f6d7061746962696c697479427261766f3a2070726f7060448201527f6f73657220766f7465732062656c6f772070726f706f73616c207468726573686064820152621bdb1960ea1b608482015260a401610b0f565b60006137c2868686868051906020012061190a565b905084518651146137e55760405162461bcd60e51b8152600401610b0f90614f28565b83518651146138065760405162461bcd60e51b8152600401610b0f90614f28565b60008651116138575760405162461bcd60e51b815260206004820152601860248201527f476f7665726e6f723a20656d7074792070726f706f73616c00000000000000006044820152606401610b0f565b60008181526101306020908152604091829020825191820190925281546001600160401b031690819052156138d85760405162461bcd60e51b815260206004820152602160248201527f476f7665726e6f723a2070726f706f73616c20616c72656164792065786973746044820152607360f81b6064820152608401610b0f565b60006138ea6138e5611235565b613ee1565b6138f343613ee1565b6138fd9190614f69565b9050600061390c6138e5610acb565b6139169083614f69565b835467ffffffffffffffff19166001600160401b038416178455905060018301805467ffffffffffffffff19166001600160401b0383161790557f7d84a6263ae0d98d3329bd7b46bb4e8d6f98cd35a7adb45c274c8b7fd5ebd5e084338b8b8d516001600160401b0381111561398e5761398e6142b1565b6040519080825280602002602001820160405280156139c157816020015b60608152602001906001900390816139ac5790505b508c88888e6040516139db99989796959493929190614f94565b60405180910390a15091979650505050505050565b600054610100900460ff166117525760405162461bcd60e51b8152600401610b0f90614e58565b600054610100900460ff16613a3e5760405162461bcd60e51b8152600401610b0f90614e58565b815160209283012081519190920120606591909155606655565b600054610100900460ff16613a7f5760405162461bcd60e51b8152600401610b0f90614e58565b80516116af9061012f906020840190614103565b600054610100900460ff16613aba5760405162461bcd60e51b8152600401610b0f90614e58565b613ac38361276c565b613acc82612bb1565b6115f481612ccb565b600054610100900460ff16613afc5760405162461bcd60e51b8152600401610b0f90614e58565b6101c580546001600160a01b0319166001600160a01b0392909216919091179055565b600054610100900460ff16610b185760405162461bcd60e51b8152600401610b0f90614e58565b600054610100900460ff166118285760405162461bcd60e51b8152600401610b0f90614e58565b600054610100900460ff16613b945760405162461bcd60e51b8152600401610b0f90614e58565b611752336127af565b60608315613bac5750816118c7565b825115613bbc5782518084602001fd5b8160405162461bcd60e51b8152600401610b0f919061429e565b6000848152610193602090815260408083206001600160a01b038716845260088101909252909120805460ff1615613c665760405162461bcd60e51b815260206004820152602d60248201527f476f7665726e6f72436f6d7061746962696c697479427261766f3a20766f746560448201526c08185b1c9958591e4818d85cdd609a1b6064820152608401610b0f565b805460ff85166101000261ffff19909116176001178155613c8683613f4d565b81546001600160601b039190911662010000026dffffffffffffffffffffffff00001990911617815560ff8416613cd65782826006016000828254613ccb9190614c48565b90915550613d749050565b60ff841660011415613cf65782826005016000828254613ccb9190614c48565b60ff841660021415613d165782826007016000828254613ccb9190614c48565b60405162461bcd60e51b815260206004820152602d60248201527f476f7665726e6f72436f6d7061746962696c697479427261766f3a20696e766160448201526c6c696420766f7465207479706560981b6064820152608401610b0f565b505050505050565b6000613d9182516001600160401b0316151590565b8015610ac557505051436001600160401b03909116111590565b6000818152610193602052604081206005810154613dcb6109bd85610ea5565b11159392505050565b600080613de38686868661190a565b90506000613df0826112d5565b90506002816007811115613e0657613e06614712565b14158015613e2657506006816007811115613e2357613e23614712565b14155b8015613e4457506007816007811115613e4157613e41614712565b14155b613e905760405162461bcd60e51b815260206004820152601d60248201527f476f7665726e6f723a2070726f706f73616c206e6f74206163746976650000006044820152606401610b0f565b6000828152610130602052604090819020600201805461ff001916610100179055517f789cf55be980739dad1d0699b93b58e806b51c9d96619bfa8fe0a28abaa7b30c90610daa9084815260200190565b60006001600160401b03821115613f495760405162461bcd60e51b815260206004820152602660248201527f53616665436173743a2076616c756520646f65736e27742066697420696e203660448201526534206269747360d01b6064820152608401610b0f565b5090565b60006001600160601b03821115613f495760405162461bcd60e51b815260206004820152602660248201527f53616665436173743a2076616c756520646f65736e27742066697420696e203960448201526536206269747360d01b6064820152608401610b0f565b82805482825590600052602060002090810192821561400a579160200282015b8281111561400a57825182546001600160a01b0319166001600160a01b03909116178255602090920191600190910190613fd5565b50613f49929150614176565b82805482825590600052602060002090810192821561400a579160200282015b8281111561400a578251825591602001919060010190614036565b82805482825590600052602060002090810192821561409e579160200282015b8281111561409e578251805161408e918491602090910190614103565b5091602001919060010190614071565b50613f4992915061418b565b8280548282559060005260206000209081019282156140f7579160200282015b828111156140f757825180516140e7918491602090910190614103565b50916020019190600101906140ca565b50613f499291506141a8565b82805461410f90614afd565b90600052602060002090601f016020900481019282614131576000855561400a565b82601f1061414a57805160ff191683800117855561400a565b8280016001018555821561400a579182018281111561400a578251825591602001919060010190614036565b5b80821115613f495760008155600101614177565b80821115613f4957600061419f82826141c5565b5060010161418b565b80821115613f495760006141bc82826141c5565b506001016141a8565b5080546141d190614afd565b6000825580601f106141e1575050565b601f016020900490600052602060002090810190610b219190614176565b60006020828403121561421157600080fd5b5035919050565b60006020828403121561422a57600080fd5b81356001600160e01b0319811681146118c757600080fd5b60005b8381101561425d578181015183820152602001614245565b8381111561426c576000848401525b50505050565b6000815180845261428a816020860160208601614242565b601f01601f19169290920160200192915050565b6020815260006118c76020830184614272565b634e487b7160e01b600052604160045260246000fd5b604051601f8201601f191681016001600160401b03811182821017156142ef576142ef6142b1565b604052919050565b60006001600160401b03821115614310576143106142b1565b5060051b60200190565b6001600160a01b0381168114610b2157600080fd5b600082601f83011261434057600080fd5b81356020614355614350836142f7565b6142c7565b82815260059290921b8401810191818101908684111561437457600080fd5b8286015b8481101561439857803561438b8161431a565b8352918301918301614378565b509695505050505050565b600082601f8301126143b457600080fd5b813560206143c4614350836142f7565b82815260059290921b840181019181810190868411156143e357600080fd5b8286015b8481101561439857803583529183019183016143e7565b600082601f83011261440f57600080fd5b81356001600160401b03811115614428576144286142b1565b61443b601f8201601f19166020016142c7565b81815284602083860101111561445057600080fd5b816020850160208301376000918101602001919091529392505050565b600082601f83011261447e57600080fd5b8135602061448e614350836142f7565b82815260059290921b840181019181810190868411156144ad57600080fd5b8286015b848110156143985780356001600160401b038111156144d05760008081fd5b6144de8986838b01016143fe565b8452509183019183016144b1565b6000806000806080858703121561450257600080fd5b84356001600160401b038082111561451957600080fd5b6145258883890161432f565b9550602087013591508082111561453b57600080fd5b614547888389016143a3565b9450604087013591508082111561455d57600080fd5b5061456a8782880161446d565b949793965093946060013593505050565b600081518084526020808501945080840160005b838110156145b45781516001600160a01b03168752958201959082019060010161458f565b509495945050505050565b600081518084526020808501945080840160005b838110156145b4578151875295820195908201906001016145d3565b600081518084526020808501808196508360051b8101915082860160005b85811015614637578284038952614625848351614272565b9885019893509084019060010161460d565b5091979650505050505050565b608081526000614657608083018761457b565b828103602084015261466981876145bf565b9050828103604084015261467d81866145ef565b905082810360608401526112ca81856145ef565b6000602082840312156146a357600080fd5b81356118c78161431a565b803560ff811681146146bf57600080fd5b919050565b600080600080600060a086880312156146dc57600080fd5b853594506146ec602087016146ae565b93506146fa604087016146ae565b94979396509394606081013594506080013592915050565b634e487b7160e01b600052602160045260246000fd5b602081016008831061474a57634e487b7160e01b600052602160045260246000fd5b91905290565b6000806040838503121561476357600080fd5b8235915060208301356147758161431a565b809150509250929050565b6000806040838503121561479357600080fd5b823561479e8161431a565b915060208301356001600160401b038111156147b957600080fd5b6147c5858286016143fe565b9150509250929050565b600080604083850312156147e257600080fd5b823591506147f2602084016146ae565b90509250929050565b6000806000806060858703121561481157600080fd5b84359350614821602086016146ae565b925060408501356001600160401b038082111561483d57600080fd5b818701915087601f83011261485157600080fd5b81358181111561486057600080fd5b88602082850101111561487257600080fd5b95989497505060200194505050565b6000806000806080858703121561489757600080fd5b84356001600160401b03808211156148ae57600080fd5b6148ba8883890161432f565b955060208701359150808211156148d057600080fd5b6148dc888389016143a3565b945060408701359150808211156148f257600080fd5b6148fe8883890161446d565b9350606087013591508082111561491457600080fd5b50614921878288016143fe565b91505092959194509250565b60006020828403121561493f57600080fd5b81356001600160401b0381111561495557600080fd5b6116d48482850161432f565b600080600080600060a0868803121561497957600080fd5b85356001600160401b038082111561499057600080fd5b61499c89838a0161432f565b965060208801359150808211156149b257600080fd5b6149be89838a016143a3565b955060408801359150808211156149d457600080fd5b6149e089838a0161446d565b945060608801359150808211156149f657600080fd5b614a0289838a0161446d565b93506080880135915080821115614a1857600080fd5b50614a25888289016143fe565b9150509295509295909350565b60008060008060808587031215614a4857600080fd5b8435614a538161431a565b93506020850135614a638161431a565b92506040850135614a738161431a565b915060608501356001600160401b03811115614a8e57600080fd5b6149218782880161432f565b60008060408385031215614aad57600080fd5b8235614ab88161431a565b946020939093013593505050565b60208082526018908201527f476f7665726e6f723a206f6e6c79476f7665726e616e63650000000000000000604082015260600190565b600181811c90821680614b1157607f821691505b6020821081141561359a57634e487b7160e01b600052602260045260246000fd5b60208082526021908201527f476f7665726e6f723a2070726f706f73616c206e6f74207375636365737366756040820152601b60fa1b606082015260800190565b600060208284031215614b8557600080fd5b5051919050565b60a081526000614b9f60a083018861457b565b8281036020840152614bb181886145bf565b90508281036040840152614bc581876145ef565b60608401959095525050608001529392505050565b60c081526000614bed60c083018961457b565b8281036020840152614bff81896145bf565b90508281036040840152614c1381886145ef565b60608401969096525050608081019290925260a0909101529392505050565b634e487b7160e01b600052601160045260246000fd5b60008219821115614c5b57614c5b614c32565b500190565b600082821015614c7257614c72614c32565b500390565b6020808252602c908201527f46756e6374696f6e206d7573742062652063616c6c6564207468726f7567682060408201526b19195b1959d85d1958d85b1b60a21b606082015260800190565b6020808252602c908201527f46756e6374696f6e206d7573742062652063616c6c6564207468726f7567682060408201526b6163746976652070726f787960a01b606082015260800190565b6020808252818101527f4f776e61626c653a2063616c6c6572206973206e6f7420746865206f776e6572604082015260600190565b60208082526025908201527f596f7520646f6e2774206861766520706f77657220746f206d616b652070726f6040820152641c1bdcd85b60da1b606082015260800190565b608081526000614d9c608083018761457b565b8281036020840152614dae81876145bf565b90508281036040840152614dc281866145ef565b91505082606083015295945050505050565b634e487b7160e01b600052603260045260246000fd5b6000600019821415614dfe57614dfe614c32565b5060010190565b600060208284031215614e1757600080fd5b815180151581146118c757600080fd5b6001600160e01b0319831681528151600090614e4a816004850160208701614242565b919091016004019392505050565b6020808252602b908201527f496e697469616c697a61626c653a20636f6e7472616374206973206e6f74206960408201526a6e697469616c697a696e6760a81b606082015260800190565b6000816000190483118215151615614ebd57614ebd614c32565b500290565b600082614edf57634e487b7160e01b600052601260045260246000fd5b500490565b60008251614ef6818460208701614242565b9190910192915050565b84815260ff8416602082015282604082015260806060820152600061179c6080830184614272565b60208082526021908201527f476f7665726e6f723a20696e76616c69642070726f706f73616c206c656e67746040820152600d60fb1b606082015260800190565b60006001600160401b03808316818516808303821115614f8b57614f8b614c32565b01949350505050565b8981526001600160a01b038916602082015261012060408201819052600090614fbf8382018b61457b565b90508281036060840152614fd3818a6145bf565b90508281036080840152614fe781896145ef565b905082810360a0840152614ffb81886145ef565b6001600160401b0387811660c0860152861660e085015283810361010085015290506150278185614272565b9c9b50505050505050505050505056fe416464726573733a206c6f772d6c6576656c2064656c65676174652063616c6c206661696c6564a26469706673582212205a512b20b76b171503db8550b874bbd355e01a695d8f9513576f36a1819eb51a64736f6c634300080b0033",
  "linkReferences": {},
  "deployedLinkReferences": {}
}