{
  "_format": "hh-sol-artifact-1",
  "contractName": "DummyContract",
  "sourceName": "contracts/tests/dummyContract.sol",
  "abi": [
    {
      "anonymous": false,
      "inputs": [
        {
          "indexed": false,
          "internalType": "address",
          "name": "previousAdmin",
          "type": "address"
        },
        {
          "indexed": false,
          "internalType": "address",
          "name": "newAdmin",
          "type": "address"
        }
      ],
      "name": "AdminChanged",
      "type": "event"
    },
    {
      "anonymous": false,
      "inputs": [
        {
          "indexed": true,
          "internalType": "address",
          "name": "beacon",
          "type": "address"
        }
      ],
      "name": "BeaconUpgraded",
      "type": "event"
    },
    {
      "anonymous": false,
      "inputs": [
        {
          "indexed": true,
          "internalType": "address",
          "name": "previousOwner",
          "type": "address"
        },
        {
          "indexed": true,
          "internalType": "address",
          "name": "newOwner",
          "type": "address"
        }
      ],
      "name": "OwnershipTransferred",
      "type": "event"
    },
    {
      "anonymous": false,
      "inputs": [
        {
          "indexed": true,
          "internalType": "address",
          "name": "implementation",
          "type": "address"
        }
      ],
      "name": "Upgraded",
      "type": "event"
    },
    {
      "inputs": [
        {
          "internalType": "uint256",
          "name": "newNum",
          "type": "uint256"
        }
      ],
      "name": "changeNum",
      "outputs": [],
      "stateMutability": "nonpayable",
      "type": "function"
    },
    {
      "inputs": [
        {
          "internalType": "uint256",
          "name": "",
          "type": "uint256"
        }
      ],
      "name": "gasInTransaction",
      "outputs": [
        {
          "internalType": "uint256",
          "name": "",
          "type": "uint256"
        }
      ],
      "stateMutability": "view",
      "type": "function"
    },
    {
      "inputs": [],
      "name": "gasVault",
      "outputs": [
        {
          "internalType": "contract IGasVault",
          "name": "",
          "type": "address"
        }
      ],
      "stateMutability": "view",
      "type": "function"
    },
    {
      "inputs": [
        {
          "internalType": "address",
          "name": "_orchestrator",
          "type": "address"
        },
        {
          "internalType": "address",
          "name": "_steer",
          "type": "address"
        },
        {
          "internalType": "bytes",
          "name": "params",
          "type": "bytes"
        }
      ],
      "name": "initialize",
      "outputs": [],
      "stateMutability": "nonpayable",
      "type": "function"
    },
    {
      "inputs": [],
      "name": "num",
      "outputs": [
        {
          "internalType": "uint256",
          "name": "",
          "type": "uint256"
        }
      ],
      "stateMutability": "view",
      "type": "function"
    },
    {
      "inputs": [],
      "name": "owner",
      "outputs": [
        {
          "internalType": "address",
          "name": "",
          "type": "address"
        }
      ],
      "stateMutability": "view",
      "type": "function"
    },
    {
      "inputs": [],
      "name": "recordGas",
      "outputs": [],
      "stateMutability": "nonpayable",
      "type": "function"
    },
    {
      "inputs": [],
      "name": "renounceOwnership",
      "outputs": [],
      "stateMutability": "nonpayable",
      "type": "function"
    },
    {
      "inputs": [],
      "name": "setNumTo50",
      "outputs": [],
      "stateMutability": "nonpayable",
      "type": "function"
    },
    {
      "inputs": [
        {
          "internalType": "uint256",
          "name": "firstNum",
          "type": "uint256"
        },
        {
          "internalType": "uint256",
          "name": "secondNum",
          "type": "uint256"
        }
      ],
      "name": "setNumToMultiple",
      "outputs": [],
      "stateMutability": "nonpayable",
      "type": "function"
    },
    {
      "inputs": [
        {
          "internalType": "address",
          "name": "newOwner",
          "type": "address"
        }
      ],
      "name": "transferOwnership",
      "outputs": [],
      "stateMutability": "nonpayable",
      "type": "function"
    },
    {
      "inputs": [
        {
          "internalType": "address",
          "name": "newImplementation",
          "type": "address"
        }
      ],
      "name": "upgradeTo",
      "outputs": [],
      "stateMutability": "nonpayable",
      "type": "function"
    },
    {
      "inputs": [
        {
          "internalType": "address",
          "name": "newImplementation",
          "type": "address"
        },
        {
          "internalType": "bytes",
          "name": "data",
          "type": "bytes"
        }
      ],
      "name": "upgradeToAndCall",
      "outputs": [],
      "stateMutability": "payable",
      "type": "function"
    }
  ],
  "bytecode": "0x60a06040523060805234801561001457600080fd5b50608051610eea6100456000396000818161029a015281816102e30152818161036c01526103ac0152610eea6000f3fe6080604052600436106100c25760003560e01c8063715018a61161007f5780638da5cb5b116100595780638da5cb5b146101c6578063a6f4724f146101f8578063cf7a1d7714610218578063f2fde38b1461023857600080fd5b8063715018a61461017a5780637682b6971461018f578063899d2865146101af57600080fd5b806314050df7146100c75780632b311337146100fa5780633659cfe61461011c5780634e70b1dc1461013c5780634f1ef286146101525780636f62f0be14610165575b600080fd5b3480156100d357600080fd5b506100e76100e2366004610ada565b610258565b6040519081526020015b60405180910390f35b34801561010657600080fd5b5061011a610115366004610ada565b610279565b005b34801561012857600080fd5b5061011a610137366004610b08565b61028f565b34801561014857600080fd5b506100e760c95481565b61011a610160366004610b3b565b610361565b34801561017157600080fd5b5061011a61041b565b34801561018657600080fd5b5061011a610436565b34801561019b57600080fd5b5061011a6101aa366004610bff565b61046c565b3480156101bb57600080fd5b5061011a603260c955565b3480156101d257600080fd5b506033546001600160a01b03165b6040516001600160a01b0390911681526020016100f1565b34801561020457600080fd5b5060cb546101e0906001600160a01b031681565b34801561022457600080fd5b5061011a610233366004610c21565b61047d565b34801561024457600080fd5b5061011a610253366004610b08565b61057f565b60ca818154811061026857600080fd5b600091825260209091200154905081565b8060c4141561028a5761028a610cb3565b60c955565b306001600160a01b037f00000000000000000000000000000000000000000000000000000000000000001614156102e15760405162461bcd60e51b81526004016102d890610cc9565b60405180910390fd5b7f00000000000000000000000000000000000000000000000000000000000000006001600160a01b0316610313610617565b6001600160a01b0316146103395760405162461bcd60e51b81526004016102d890610d15565b61034281610645565b6040805160008082526020820190925261035e9183919061066f565b50565b306001600160a01b037f00000000000000000000000000000000000000000000000000000000000000001614156103aa5760405162461bcd60e51b81526004016102d890610cc9565b7f00000000000000000000000000000000000000000000000000000000000000006001600160a01b03166103dc610617565b6001600160a01b0316146104025760405162461bcd60e51b81526004016102d890610d15565b61040b82610645565b6104178282600161066f565b5050565b60ca5a81546001810183556000928352602090922090910155565b6033546001600160a01b031633146104605760405162461bcd60e51b81526004016102d890610d61565b61046a60006107b3565b565b6104768183610d96565b60c9555050565b600054610100900460ff166104985760005460ff161561049c565b303b155b6104ff5760405162461bcd60e51b815260206004820152602e60248201527f496e697469616c697a61626c653a20636f6e747261637420697320616c72656160448201526d191e481a5b9a5d1a585b1a5e995960921b60648201526084016102d8565b600054610100900460ff16158015610521576000805461ffff19166101011790555b610529610805565b61053161083c565b600061053f83850185610b08565b60cb80546001600160a01b0319166001600160a01b0383161790559050610565856107b3565b508015610578576000805461ff00191690555b5050505050565b6033546001600160a01b031633146105a95760405162461bcd60e51b81526004016102d890610d61565b6001600160a01b03811661060e5760405162461bcd60e51b815260206004820152602660248201527f4f776e61626c653a206e6577206f776e657220697320746865207a65726f206160448201526564647265737360d01b60648201526084016102d8565b61035e816107b3565b7f360894a13ba1a3210667c828492db98dca3e2076cc3735a920a3ca505d382bbc546001600160a01b031690565b6033546001600160a01b0316331461035e5760405162461bcd60e51b81526004016102d890610d61565b6000610679610617565b905061068484610873565b6000835111806106915750815b156106a2576106a08484610918565b505b7f4910fdfa16fed3260ed0e7147f7cc6da11a60208b5b9406d12a635614ffd9143805460ff1661057857805460ff191660011781556040516001600160a01b038316602482015261072190869060440160408051601f198184030181529190526020810180516001600160e01b0316631b2ce7f360e11b179052610918565b50805460ff19168155610732610617565b6001600160a01b0316826001600160a01b0316146107aa5760405162461bcd60e51b815260206004820152602f60248201527f45524331393637557067726164653a207570677261646520627265616b73206660448201526e75727468657220757067726164657360881b60648201526084016102d8565b61057885610a03565b603380546001600160a01b038381166001600160a01b0319831681179093556040519116919082907f8be0079c531659141344cd1fd0a4f28419497f9722a3daafe3b4186f6b6457e090600090a35050565b600054610100900460ff1661082c5760405162461bcd60e51b81526004016102d890610dc3565b610834610a43565b61046a610a43565b600054610100900460ff166108635760405162461bcd60e51b81526004016102d890610dc3565b61086b610a43565b61046a610a6a565b803b6108d75760405162461bcd60e51b815260206004820152602d60248201527f455243313936373a206e657720696d706c656d656e746174696f6e206973206e60448201526c1bdd08184818dbdb9d1c9858dd609a1b60648201526084016102d8565b7f360894a13ba1a3210667c828492db98dca3e2076cc3735a920a3ca505d382bbc80546001600160a01b0319166001600160a01b0392909216919091179055565b6060823b6109775760405162461bcd60e51b815260206004820152602660248201527f416464726573733a2064656c65676174652063616c6c20746f206e6f6e2d636f6044820152651b9d1c9858dd60d21b60648201526084016102d8565b600080846001600160a01b0316846040516109929190610e3e565b600060405180830381855af49150503d80600081146109cd576040519150601f19603f3d011682016040523d82523d6000602084013e6109d2565b606091505b50915091506109fa8282604051806060016040528060278152602001610e8e60279139610a9a565b95945050505050565b610a0c81610873565b6040516001600160a01b038216907fbc7cd75a20ee27fd9adebab32041f755214dbc6bffa90cc0225b39da2e5c2d3b90600090a250565b600054610100900460ff1661046a5760405162461bcd60e51b81526004016102d890610dc3565b600054610100900460ff16610a915760405162461bcd60e51b81526004016102d890610dc3565b61046a336107b3565b60608315610aa9575081610ad3565b825115610ab95782518084602001fd5b8160405162461bcd60e51b81526004016102d89190610e5a565b9392505050565b600060208284031215610aec57600080fd5b5035919050565b6001600160a01b038116811461035e57600080fd5b600060208284031215610b1a57600080fd5b8135610ad381610af3565b634e487b7160e01b600052604160045260246000fd5b60008060408385031215610b4e57600080fd5b8235610b5981610af3565b9150602083013567ffffffffffffffff80821115610b7657600080fd5b818501915085601f830112610b8a57600080fd5b813581811115610b9c57610b9c610b25565b604051601f8201601f19908116603f01168101908382118183101715610bc457610bc4610b25565b81604052828152886020848701011115610bdd57600080fd5b8260208601602083013760006020848301015280955050505050509250929050565b60008060408385031215610c1257600080fd5b50508035926020909101359150565b60008060008060608587031215610c3757600080fd5b8435610c4281610af3565b93506020850135610c5281610af3565b9250604085013567ffffffffffffffff80821115610c6f57600080fd5b818701915087601f830112610c8357600080fd5b813581811115610c9257600080fd5b886020828501011115610ca457600080fd5b95989497505060200194505050565b634e487b7160e01b600052600160045260246000fd5b6020808252602c908201527f46756e6374696f6e206d7573742062652063616c6c6564207468726f7567682060408201526b19195b1959d85d1958d85b1b60a21b606082015260800190565b6020808252602c908201527f46756e6374696f6e206d7573742062652063616c6c6564207468726f7567682060408201526b6163746976652070726f787960a01b606082015260800190565b6020808252818101527f4f776e61626c653a2063616c6c6572206973206e6f7420746865206f776e6572604082015260600190565b6000816000190483118215151615610dbe57634e487b7160e01b600052601160045260246000fd5b500290565b6020808252602b908201527f496e697469616c697a61626c653a20636f6e7472616374206973206e6f74206960408201526a6e697469616c697a696e6760a81b606082015260800190565b60005b83811015610e29578181015183820152602001610e11565b83811115610e38576000848401525b50505050565b60008251610e50818460208701610e0e565b9190910192915050565b6020815260008251806020840152610e79816040850160208701610e0e565b601f01601f1916919091016040019291505056fe416464726573733a206c6f772d6c6576656c2064656c65676174652063616c6c206661696c6564a2646970667358221220771f4a65840869f62d4934e0930aeec518e5f0e29a13ee89806e6373785651d264736f6c634300080b0033",
  "linkReferences": {},
  "deployedLinkReferences": {}
}